{
	"contracts/FlintPublicEvent.sol": {
		"PublicEvent": {
			"abi": [
				{
					"inputs": [
						{
							"internalType": "string",
							"name": "_title",
							"type": "string"
						},
						{
							"internalType": "string",
							"name": "_location",
							"type": "string"
						},
						{
							"internalType": "uint256",
							"name": "_maxAttendees",
							"type": "uint256"
						},
						{
							"internalType": "string",
							"name": "_description",
							"type": "string"
						},
						{
							"internalType": "string[]",
							"name": "_tags",
							"type": "string[]"
						},
						{
							"internalType": "address",
							"name": "_owner",
							"type": "address"
						},
						{
							"internalType": "uint256",
							"name": "_startsAt",
							"type": "uint256"
						},
						{
							"internalType": "uint256",
							"name": "_endsAt",
							"type": "uint256"
						}
					],
					"stateMutability": "nonpayable",
					"type": "constructor"
				},
				{
					"anonymous": false,
					"inputs": [
						{
							"indexed": false,
							"internalType": "address",
							"name": "attendee",
							"type": "address"
						},
						{
							"indexed": false,
							"internalType": "uint256",
							"name": "timestamp",
							"type": "uint256"
						}
					],
					"name": "AttendeeJoined",
					"type": "event"
				},
				{
					"anonymous": false,
					"inputs": [
						{
							"indexed": false,
							"internalType": "address",
							"name": "attendee",
							"type": "address"
						},
						{
							"indexed": false,
							"internalType": "uint256",
							"name": "timestamp",
							"type": "uint256"
						}
					],
					"name": "AttendeeLeft",
					"type": "event"
				},
				{
					"inputs": [
						{
							"internalType": "address",
							"name": "_attendee",
							"type": "address"
						}
					],
					"name": "addAttendee",
					"outputs": [],
					"stateMutability": "nonpayable",
					"type": "function"
				},
				{
					"inputs": [
						{
							"internalType": "address",
							"name": "_newStaff",
							"type": "address"
						}
					],
					"name": "addStaff",
					"outputs": [],
					"stateMutability": "nonpayable",
					"type": "function"
				},
				{
					"inputs": [],
					"name": "attendeesCount",
					"outputs": [
						{
							"internalType": "uint256",
							"name": "",
							"type": "uint256"
						}
					],
					"stateMutability": "view",
					"type": "function"
				},
				{
					"inputs": [],
					"name": "cancelEvent",
					"outputs": [],
					"stateMutability": "nonpayable",
					"type": "function"
				},
				{
					"inputs": [
						{
							"internalType": "address",
							"name": "_joiner",
							"type": "address"
						}
					],
					"name": "checkAttendee",
					"outputs": [
						{
							"internalType": "bool",
							"name": "",
							"type": "bool"
						}
					],
					"stateMutability": "view",
					"type": "function"
				},
				{
					"inputs": [],
					"name": "createdAt",
					"outputs": [
						{
							"internalType": "uint256",
							"name": "",
							"type": "uint256"
						}
					],
					"stateMutability": "view",
					"type": "function"
				},
				{
					"inputs": [],
					"name": "description",
					"outputs": [
						{
							"internalType": "string",
							"name": "",
							"type": "string"
						}
					],
					"stateMutability": "view",
					"type": "function"
				},
				{
					"inputs": [],
					"name": "endEvent",
					"outputs": [],
					"stateMutability": "nonpayable",
					"type": "function"
				},
				{
					"inputs": [],
					"name": "endsAt",
					"outputs": [
						{
							"internalType": "uint256",
							"name": "",
							"type": "uint256"
						}
					],
					"stateMutability": "view",
					"type": "function"
				},
				{
					"inputs": [],
					"name": "eventCanceled",
					"outputs": [
						{
							"internalType": "bool",
							"name": "",
							"type": "bool"
						}
					],
					"stateMutability": "view",
					"type": "function"
				},
				{
					"inputs": [],
					"name": "eventEnded",
					"outputs": [
						{
							"internalType": "bool",
							"name": "",
							"type": "bool"
						}
					],
					"stateMutability": "view",
					"type": "function"
				},
				{
					"inputs": [],
					"name": "getTags",
					"outputs": [
						{
							"internalType": "string[]",
							"name": "",
							"type": "string[]"
						}
					],
					"stateMutability": "view",
					"type": "function"
				},
				{
					"inputs": [
						{
							"internalType": "address",
							"name": "",
							"type": "address"
						}
					],
					"name": "isAttendee",
					"outputs": [
						{
							"internalType": "bool",
							"name": "",
							"type": "bool"
						}
					],
					"stateMutability": "view",
					"type": "function"
				},
				{
					"inputs": [
						{
							"internalType": "address",
							"name": "",
							"type": "address"
						}
					],
					"name": "isStaff",
					"outputs": [
						{
							"internalType": "bool",
							"name": "",
							"type": "bool"
						}
					],
					"stateMutability": "view",
					"type": "function"
				},
				{
					"inputs": [],
					"name": "joinEvent",
					"outputs": [],
					"stateMutability": "nonpayable",
					"type": "function"
				},
				{
					"inputs": [],
					"name": "leaveEvent",
					"outputs": [],
					"stateMutability": "nonpayable",
					"type": "function"
				},
				{
					"inputs": [],
					"name": "location",
					"outputs": [
						{
							"internalType": "string",
							"name": "",
							"type": "string"
						}
					],
					"stateMutability": "view",
					"type": "function"
				},
				{
					"inputs": [],
					"name": "maxAttendees",
					"outputs": [
						{
							"internalType": "uint256",
							"name": "",
							"type": "uint256"
						}
					],
					"stateMutability": "view",
					"type": "function"
				},
				{
					"inputs": [],
					"name": "owner",
					"outputs": [
						{
							"internalType": "address",
							"name": "",
							"type": "address"
						}
					],
					"stateMutability": "view",
					"type": "function"
				},
				{
					"inputs": [
						{
							"internalType": "address",
							"name": "_attendee",
							"type": "address"
						}
					],
					"name": "removeAttendee",
					"outputs": [],
					"stateMutability": "nonpayable",
					"type": "function"
				},
				{
					"inputs": [
						{
							"internalType": "address",
							"name": "_staff",
							"type": "address"
						}
					],
					"name": "removeStaff",
					"outputs": [],
					"stateMutability": "nonpayable",
					"type": "function"
				},
				{
					"inputs": [],
					"name": "startsAt",
					"outputs": [
						{
							"internalType": "uint256",
							"name": "",
							"type": "uint256"
						}
					],
					"stateMutability": "view",
					"type": "function"
				},
				{
					"inputs": [
						{
							"internalType": "uint256",
							"name": "",
							"type": "uint256"
						}
					],
					"name": "tags",
					"outputs": [
						{
							"internalType": "string",
							"name": "",
							"type": "string"
						}
					],
					"stateMutability": "view",
					"type": "function"
				},
				{
					"inputs": [],
					"name": "title",
					"outputs": [
						{
							"internalType": "string",
							"name": "",
							"type": "string"
						}
					],
					"stateMutability": "view",
					"type": "function"
				}
			],
			"devdoc": {
				"kind": "dev",
				"methods": {},
				"version": 1
			},
			"evm": {
				"assembly": "    /* \"contracts/FlintPublicEvent.sol\":61:4503  contract PublicEvent {... */\n  mstore(0x40, 0x80)\n    /* \"contracts/FlintPublicEvent.sol\":414:419  false */\n  0x00\n    /* \"contracts/FlintPublicEvent.sol\":389:419  bool public eventEnded = false */\n  0x0a\n  exp(0x0100, 0x00)\n  dup2\n  sload\n  dup2\n  0xff\n  mul\n  not\n  and\n  swap1\n  dup4\n  iszero\n  iszero\n  mul\n  or\n  swap1\n  sstore\n  pop\n    /* \"contracts/FlintPublicEvent.sol\":454:459  false */\n  0x00\n    /* \"contracts/FlintPublicEvent.sol\":426:459  bool public eventCanceled = false */\n  0x0a\n  exp(0x0100, 0x01)\n  dup2\n  sload\n  dup2\n  0xff\n  mul\n  not\n  and\n  swap1\n  dup4\n  iszero\n  iszero\n  mul\n  or\n  swap1\n  sstore\n  pop\n    /* \"contracts/FlintPublicEvent.sol\":1113:2251  constructor(... */\n  callvalue\n  dup1\n  iszero\n  tag_1\n  jumpi\n  0x00\n  dup1\n  revert\ntag_1:\n  pop\n  mload(0x40)\n  sub(codesize, bytecodeSize)\n  dup1\n  bytecodeSize\n  dup4\n  codecopy\n  dup2\n  dup2\n  add\n  0x40\n  mstore\n  dup2\n  add\n  swap1\n  tag_2\n  swap2\n  swap1\n  tag_3\n  jump\t// in\ntag_2:\n    /* \"contracts/FlintPublicEvent.sol\":1419:1420  0 */\n  0x00\n    /* \"contracts/FlintPublicEvent.sol\":1402:1408  _title */\n  dup9\n    /* \"contracts/FlintPublicEvent.sol\":1396:1416  bytes(_title).length */\n  mload\n    /* \"contracts/FlintPublicEvent.sol\":1396:1420  bytes(_title).length > 0 */\n  gt\n    /* \"contracts/FlintPublicEvent.sol\":1388:1436  require(bytes(_title).length > 0, \"Empty title\") */\n  tag_6\n  jumpi\n  mload(0x40)\n  0x08c379a000000000000000000000000000000000000000000000000000000000\n  dup2\n  mstore\n  0x04\n  add\n  tag_7\n  swap1\n  tag_8\n  jump\t// in\ntag_7:\n  mload(0x40)\n  dup1\n  swap2\n  sub\n  swap1\n  revert\ntag_6:\n    /* \"contracts/FlintPublicEvent.sol\":1481:1482  0 */\n  0x00\n    /* \"contracts/FlintPublicEvent.sol\":1461:1470  _location */\n  dup8\n    /* \"contracts/FlintPublicEvent.sol\":1455:1478  bytes(_location).length */\n  mload\n    /* \"contracts/FlintPublicEvent.sol\":1455:1482  bytes(_location).length > 0 */\n  gt\n    /* \"contracts/FlintPublicEvent.sol\":1447:1500  require(bytes(_location).length > 0, \"Empty address\") */\n  tag_9\n  jumpi\n  mload(0x40)\n  0x08c379a000000000000000000000000000000000000000000000000000000000\n  dup2\n  mstore\n  0x04\n  add\n  tag_10\n  swap1\n  tag_11\n  jump\t// in\ntag_10:\n  mload(0x40)\n  dup1\n  swap2\n  sub\n  swap1\n  revert\ntag_9:\n    /* \"contracts/FlintPublicEvent.sol\":1535:1536  0 */\n  0x00\n    /* \"contracts/FlintPublicEvent.sol\":1519:1532  _maxAttendees */\n  dup7\n    /* \"contracts/FlintPublicEvent.sol\":1519:1536  _maxAttendees > 0 */\n  gt\n    /* \"contracts/FlintPublicEvent.sol\":1511:1562  require(_maxAttendees > 0, \"Attendees must be > 0\") */\n  tag_12\n  jumpi\n  mload(0x40)\n  0x08c379a000000000000000000000000000000000000000000000000000000000\n  dup2\n  mstore\n  0x04\n  add\n  tag_13\n  swap1\n  tag_14\n  jump\t// in\ntag_13:\n  mload(0x40)\n  dup1\n  swap2\n  sub\n  swap1\n  revert\ntag_12:\n    /* \"contracts/FlintPublicEvent.sol\":1599:1600  0 */\n  0x00\n    /* \"contracts/FlintPublicEvent.sol\":1581:1601  _owner != address(0) */\n  0xffffffffffffffffffffffffffffffffffffffff\n  and\n    /* \"contracts/FlintPublicEvent.sol\":1581:1587  _owner */\n  dup4\n    /* \"contracts/FlintPublicEvent.sol\":1581:1601  _owner != address(0) */\n  0xffffffffffffffffffffffffffffffffffffffff\n  and\n  sub\n    /* \"contracts/FlintPublicEvent.sol\":1573:1622  require(_owner != address(0), \"Owner cannotzero\") */\n  tag_15\n  jumpi\n  mload(0x40)\n  0x08c379a000000000000000000000000000000000000000000000000000000000\n  dup2\n  mstore\n  0x04\n  add\n  tag_16\n  swap1\n  tag_17\n  jump\t// in\ntag_16:\n  mload(0x40)\n  dup1\n  swap2\n  sub\n  swap1\n  revert\ntag_15:\n    /* \"contracts/FlintPublicEvent.sol\":1653:1668  block.timestamp */\n  timestamp\n    /* \"contracts/FlintPublicEvent.sol\":1641:1650  _startsAt */\n  dup3\n    /* \"contracts/FlintPublicEvent.sol\":1641:1668  _startsAt > block.timestamp */\n  gt\n    /* \"contracts/FlintPublicEvent.sol\":1633:1700  require(_startsAt > block.timestamp, \"Event must be in the future\") */\n  tag_18\n  jumpi\n  mload(0x40)\n  0x08c379a000000000000000000000000000000000000000000000000000000000\n  dup2\n  mstore\n  0x04\n  add\n  tag_19\n  swap1\n  tag_20\n  jump\t// in\ntag_19:\n  mload(0x40)\n  dup1\n  swap2\n  sub\n  swap1\n  revert\ntag_18:\n    /* \"contracts/FlintPublicEvent.sol\":1729:1738  _startsAt */\n  dup2\n    /* \"contracts/FlintPublicEvent.sol\":1719:1726  _endsAt */\n  dup2\n    /* \"contracts/FlintPublicEvent.sol\":1719:1738  _endsAt > _startsAt */\n  gt\n    /* \"contracts/FlintPublicEvent.sol\":1711:1784  require(_endsAt > _startsAt, \"Event ending must be after event starting\") */\n  tag_21\n  jumpi\n  mload(0x40)\n  0x08c379a000000000000000000000000000000000000000000000000000000000\n  dup2\n  mstore\n  0x04\n  add\n  tag_22\n  swap1\n  tag_23\n  jump\t// in\ntag_22:\n  mload(0x40)\n  dup1\n  swap2\n  sub\n  swap1\n  revert\ntag_21:\n    /* \"contracts/FlintPublicEvent.sol\":1819:1820  5 */\n  0x05\n    /* \"contracts/FlintPublicEvent.sol\":1803:1808  _tags */\n  dup5\n    /* \"contracts/FlintPublicEvent.sol\":1803:1815  _tags.length */\n  mload\n    /* \"contracts/FlintPublicEvent.sol\":1803:1820  _tags.length <= 5 */\n  gt\n  iszero\n    /* \"contracts/FlintPublicEvent.sol\":1795:1845  require(_tags.length <= 5, \"Too many tags, max 5\") */\n  tag_24\n  jumpi\n  mload(0x40)\n  0x08c379a000000000000000000000000000000000000000000000000000000000\n  dup2\n  mstore\n  0x04\n  add\n  tag_25\n  swap1\n  tag_26\n  jump\t// in\ntag_25:\n  mload(0x40)\n  dup1\n  swap2\n  sub\n  swap1\n  revert\ntag_24:\n    /* \"contracts/FlintPublicEvent.sol\":1866:1872  _title */\n  dup8\n    /* \"contracts/FlintPublicEvent.sol\":1858:1863  title */\n  0x00\n    /* \"contracts/FlintPublicEvent.sol\":1858:1872  title = _title */\n  swap1\n  dup2\n  tag_27\n  swap2\n  swap1\n  tag_28\n  jump\t// in\ntag_27:\n  pop\n    /* \"contracts/FlintPublicEvent.sol\":1894:1903  _location */\n  dup7\n    /* \"contracts/FlintPublicEvent.sol\":1883:1891  location */\n  0x01\n    /* \"contracts/FlintPublicEvent.sol\":1883:1903  location = _location */\n  swap1\n  dup2\n  tag_29\n  swap2\n  swap1\n  tag_28\n  jump\t// in\ntag_29:\n  pop\n    /* \"contracts/FlintPublicEvent.sol\":1929:1942  _maxAttendees */\n  dup6\n    /* \"contracts/FlintPublicEvent.sol\":1914:1926  maxAttendees */\n  0x02\n    /* \"contracts/FlintPublicEvent.sol\":1914:1942  maxAttendees = _maxAttendees */\n  dup2\n  swap1\n  sstore\n  pop\n    /* \"contracts/FlintPublicEvent.sol\":1967:1979  _description */\n  dup5\n    /* \"contracts/FlintPublicEvent.sol\":1953:1964  description */\n  0x04\n    /* \"contracts/FlintPublicEvent.sol\":1953:1979  description = _description */\n  swap1\n  dup2\n  tag_30\n  swap2\n  swap1\n  tag_28\n  jump\t// in\ntag_30:\n  pop\n    /* \"contracts/FlintPublicEvent.sol\":1998:2004  _owner */\n  dup3\n    /* \"contracts/FlintPublicEvent.sol\":1990:1995  owner */\n  0x03\n  0x00\n    /* \"contracts/FlintPublicEvent.sol\":1990:2004  owner = _owner */\n  0x0100\n  exp\n  dup2\n  sload\n  dup2\n  0xffffffffffffffffffffffffffffffffffffffff\n  mul\n  not\n  and\n  swap1\n  dup4\n  0xffffffffffffffffffffffffffffffffffffffff\n  and\n  mul\n  or\n  swap1\n  sstore\n  pop\n    /* \"contracts/FlintPublicEvent.sol\":2027:2042  block.timestamp */\n  timestamp\n    /* \"contracts/FlintPublicEvent.sol\":2015:2024  createdAt */\n  0x06\n    /* \"contracts/FlintPublicEvent.sol\":2015:2042  createdAt = block.timestamp */\n  dup2\n  swap1\n  sstore\n  pop\n    /* \"contracts/FlintPublicEvent.sol\":2064:2073  _startsAt */\n  dup2\n    /* \"contracts/FlintPublicEvent.sol\":2053:2061  startsAt */\n  0x07\n    /* \"contracts/FlintPublicEvent.sol\":2053:2073  startsAt = _startsAt */\n  dup2\n  swap1\n  sstore\n  pop\n    /* \"contracts/FlintPublicEvent.sol\":2093:2100  _endsAt */\n  dup1\n    /* \"contracts/FlintPublicEvent.sol\":2084:2090  endsAt */\n  0x08\n    /* \"contracts/FlintPublicEvent.sol\":2084:2100  endsAt = _endsAt */\n  dup2\n  swap1\n  sstore\n  pop\n    /* \"contracts/FlintPublicEvent.sol\":2132:2137  _tags */\n  dup4\n    /* \"contracts/FlintPublicEvent.sol\":2132:2144  _tags.length */\n  mload\n    /* \"contracts/FlintPublicEvent.sol\":2119:2145  new string[](_tags.length) */\n  0xffffffffffffffff\n  dup2\n  gt\n  iszero\n  tag_31\n  jumpi\n  tag_32\n  tag_33\n  jump\t// in\ntag_32:\ntag_31:\n  mload(0x40)\n  swap1\n  dup1\n  dup3\n  mstore\n  dup1\n  0x20\n  mul\n  0x20\n  add\n  dup3\n  add\n  0x40\n  mstore\n  dup1\n  iszero\n  tag_34\n  jumpi\n  dup2\n  0x20\n  add\ntag_35:\n  0x60\n  dup2\n  mstore\n  0x20\n  add\n  swap1\n  0x01\n  swap1\n  sub\n  swap1\n  dup2\n  tag_35\n  jumpi\n  swap1\n  pop\ntag_34:\n  pop\n    /* \"contracts/FlintPublicEvent.sol\":2112:2116  tags */\n  0x05\n    /* \"contracts/FlintPublicEvent.sol\":2112:2145  tags = new string[](_tags.length) */\n  swap1\n  dup1\n  mload\n  swap1\n  0x20\n  add\n  swap1\n  tag_36\n  swap3\n  swap2\n  swap1\n  tag_37\n  jump\t// in\ntag_36:\n  pop\n    /* \"contracts/FlintPublicEvent.sol\":2161:2170  uint256 i */\n  0x00\n    /* \"contracts/FlintPublicEvent.sol\":2156:2244  for (uint256 i = 0; i < _tags.length; i++) {... */\ntag_38:\n    /* \"contracts/FlintPublicEvent.sol\":2180:2185  _tags */\n  dup5\n    /* \"contracts/FlintPublicEvent.sol\":2180:2192  _tags.length */\n  mload\n    /* \"contracts/FlintPublicEvent.sol\":2176:2177  i */\n  dup2\n    /* \"contracts/FlintPublicEvent.sol\":2176:2192  i < _tags.length */\n  lt\n    /* \"contracts/FlintPublicEvent.sol\":2156:2244  for (uint256 i = 0; i < _tags.length; i++) {... */\n  iszero\n  tag_39\n  jumpi\n    /* \"contracts/FlintPublicEvent.sol\":2224:2229  _tags */\n  dup5\n    /* \"contracts/FlintPublicEvent.sol\":2230:2231  i */\n  dup2\n    /* \"contracts/FlintPublicEvent.sol\":2224:2232  _tags[i] */\n  dup2\n  mload\n  dup2\n  lt\n  tag_41\n  jumpi\n  tag_42\n  tag_43\n  jump\t// in\ntag_42:\ntag_41:\n  0x20\n  mul\n  0x20\n  add\n  add\n  mload\n    /* \"contracts/FlintPublicEvent.sol\":2214:2218  tags */\n  0x05\n    /* \"contracts/FlintPublicEvent.sol\":2219:2220  i */\n  dup3\n    /* \"contracts/FlintPublicEvent.sol\":2214:2221  tags[i] */\n  dup2\n  sload\n  dup2\n  lt\n  tag_44\n  jumpi\n  tag_45\n  tag_43\n  jump\t// in\ntag_45:\ntag_44:\n  swap1\n  0x00\n  mstore\n  keccak256(0x00, 0x20)\n  add\n    /* \"contracts/FlintPublicEvent.sol\":2214:2232  tags[i] = _tags[i] */\n  swap1\n  dup2\n  tag_47\n  swap2\n  swap1\n  tag_28\n  jump\t// in\ntag_47:\n  pop\n    /* \"contracts/FlintPublicEvent.sol\":2194:2197  i++ */\n  dup1\n  dup1\n  0x01\n  add\n  swap2\n  pop\n  pop\n    /* \"contracts/FlintPublicEvent.sol\":2156:2244  for (uint256 i = 0; i < _tags.length; i++) {... */\n  jump(tag_38)\ntag_39:\n  pop\n    /* \"contracts/FlintPublicEvent.sol\":1113:2251  constructor(... */\n  pop\n  pop\n  pop\n  pop\n  pop\n  pop\n  pop\n  pop\n    /* \"contracts/FlintPublicEvent.sol\":61:4503  contract PublicEvent {... */\n  jump(tag_48)\ntag_37:\n  dup3\n  dup1\n  sload\n  dup3\n  dup3\n  sstore\n  swap1\n  0x00\n  mstore\n  keccak256(0x00, 0x20)\n  swap1\n  dup2\n  add\n  swap3\n  dup3\n  iszero\n  tag_49\n  jumpi\n  swap2\n  0x20\n  mul\n  dup3\n  add\ntag_50:\n  dup3\n  dup2\n  gt\n  iszero\n  tag_51\n  jumpi\n  dup3\n  mload\n  dup3\n  swap1\n  dup2\n  tag_52\n  swap2\n  swap1\n  tag_28\n  jump\t// in\ntag_52:\n  pop\n  swap2\n  0x20\n  add\n  swap2\n  swap1\n  0x01\n  add\n  swap1\n  jump(tag_50)\ntag_51:\ntag_49:\n  pop\n  swap1\n  pop\n  tag_53\n  swap2\n  swap1\n  tag_54\n  jump\t// in\ntag_53:\n  pop\n  swap1\n  jump\t// out\ntag_54:\ntag_55:\n  dup1\n  dup3\n  gt\n  iszero\n  tag_56\n  jumpi\n  0x00\n  dup2\n  dup2\n  tag_57\n  swap2\n  swap1\n  tag_58\n  jump\t// in\ntag_57:\n  pop\n  0x01\n  add\n  jump(tag_55)\ntag_56:\n  pop\n  swap1\n  jump\t// out\ntag_58:\n  pop\n  dup1\n  sload\n  tag_59\n  swap1\n  tag_60\n  jump\t// in\ntag_59:\n  0x00\n  dup3\n  sstore\n  dup1\n  0x1f\n  lt\n  tag_62\n  jumpi\n  pop\n  jump(tag_61)\ntag_62:\n  0x1f\n  add\n  0x20\n  swap1\n  div\n  swap1\n  0x00\n  mstore\n  keccak256(0x00, 0x20)\n  swap1\n  dup2\n  add\n  swap1\n  tag_63\n  swap2\n  swap1\n  tag_64\n  jump\t// in\ntag_63:\ntag_61:\n  pop\n  jump\t// out\ntag_64:\ntag_65:\n  dup1\n  dup3\n  gt\n  iszero\n  tag_66\n  jumpi\n  0x00\n  dup2\n  0x00\n  swap1\n  sstore\n  pop\n  0x01\n  add\n  jump(tag_65)\ntag_66:\n  pop\n  swap1\n  jump\t// out\n    /* \"#utility.yul\":7:82   */\ntag_67:\n    /* \"#utility.yul\":40:46   */\n  0x00\n    /* \"#utility.yul\":73:75   */\n  0x40\n    /* \"#utility.yul\":67:76   */\n  mload\n    /* \"#utility.yul\":57:76   */\n  swap1\n  pop\n    /* \"#utility.yul\":7:82   */\n  swap1\n  jump\t// out\n    /* \"#utility.yul\":88:205   */\ntag_68:\n    /* \"#utility.yul\":197:198   */\n  0x00\n    /* \"#utility.yul\":194:195   */\n  dup1\n    /* \"#utility.yul\":187:199   */\n  revert\n    /* \"#utility.yul\":211:328   */\ntag_69:\n    /* \"#utility.yul\":320:321   */\n  0x00\n    /* \"#utility.yul\":317:318   */\n  dup1\n    /* \"#utility.yul\":310:322   */\n  revert\n    /* \"#utility.yul\":334:451   */\ntag_70:\n    /* \"#utility.yul\":443:444   */\n  0x00\n    /* \"#utility.yul\":440:441   */\n  dup1\n    /* \"#utility.yul\":433:445   */\n  revert\n    /* \"#utility.yul\":457:574   */\ntag_71:\n    /* \"#utility.yul\":566:567   */\n  0x00\n    /* \"#utility.yul\":563:564   */\n  dup1\n    /* \"#utility.yul\":556:568   */\n  revert\n    /* \"#utility.yul\":580:682   */\ntag_72:\n    /* \"#utility.yul\":621:627   */\n  0x00\n    /* \"#utility.yul\":672:674   */\n  0x1f\n    /* \"#utility.yul\":668:675   */\n  not\n    /* \"#utility.yul\":663:665   */\n  0x1f\n    /* \"#utility.yul\":656:661   */\n  dup4\n    /* \"#utility.yul\":652:666   */\n  add\n    /* \"#utility.yul\":648:676   */\n  and\n    /* \"#utility.yul\":638:676   */\n  swap1\n  pop\n    /* \"#utility.yul\":580:682   */\n  swap2\n  swap1\n  pop\n  jump\t// out\n    /* \"#utility.yul\":688:868   */\ntag_33:\n    /* \"#utility.yul\":736:813   */\n  0x4e487b7100000000000000000000000000000000000000000000000000000000\n    /* \"#utility.yul\":733:734   */\n  0x00\n    /* \"#utility.yul\":726:814   */\n  mstore\n    /* \"#utility.yul\":833:837   */\n  0x41\n    /* \"#utility.yul\":830:831   */\n  0x04\n    /* \"#utility.yul\":823:838   */\n  mstore\n    /* \"#utility.yul\":857:861   */\n  0x24\n    /* \"#utility.yul\":854:855   */\n  0x00\n    /* \"#utility.yul\":847:862   */\n  revert\n    /* \"#utility.yul\":874:1155   */\ntag_73:\n    /* \"#utility.yul\":957:984   */\n  tag_131\n    /* \"#utility.yul\":979:983   */\n  dup3\n    /* \"#utility.yul\":957:984   */\n  tag_72\n  jump\t// in\ntag_131:\n    /* \"#utility.yul\":949:955   */\n  dup2\n    /* \"#utility.yul\":945:985   */\n  add\n    /* \"#utility.yul\":1087:1093   */\n  dup2\n    /* \"#utility.yul\":1075:1085   */\n  dup2\n    /* \"#utility.yul\":1072:1094   */\n  lt\n    /* \"#utility.yul\":1051:1069   */\n  0xffffffffffffffff\n    /* \"#utility.yul\":1039:1049   */\n  dup3\n    /* \"#utility.yul\":1036:1070   */\n  gt\n    /* \"#utility.yul\":1033:1095   */\n  or\n    /* \"#utility.yul\":1030:1118   */\n  iszero\n  tag_132\n  jumpi\n    /* \"#utility.yul\":1098:1116   */\n  tag_133\n  tag_33\n  jump\t// in\ntag_133:\n    /* \"#utility.yul\":1030:1118   */\ntag_132:\n    /* \"#utility.yul\":1138:1148   */\n  dup1\n    /* \"#utility.yul\":1134:1136   */\n  0x40\n    /* \"#utility.yul\":1127:1149   */\n  mstore\n    /* \"#utility.yul\":917:1155   */\n  pop\n    /* \"#utility.yul\":874:1155   */\n  pop\n  pop\n  jump\t// out\n    /* \"#utility.yul\":1161:1290   */\ntag_74:\n    /* \"#utility.yul\":1195:1201   */\n  0x00\n    /* \"#utility.yul\":1222:1242   */\n  tag_135\n  tag_67\n  jump\t// in\ntag_135:\n    /* \"#utility.yul\":1212:1242   */\n  swap1\n  pop\n    /* \"#utility.yul\":1251:1284   */\n  tag_136\n    /* \"#utility.yul\":1279:1283   */\n  dup3\n    /* \"#utility.yul\":1271:1277   */\n  dup3\n    /* \"#utility.yul\":1251:1284   */\n  tag_73\n  jump\t// in\ntag_136:\n    /* \"#utility.yul\":1161:1290   */\n  swap2\n  swap1\n  pop\n  jump\t// out\n    /* \"#utility.yul\":1296:1604   */\ntag_75:\n    /* \"#utility.yul\":1358:1362   */\n  0x00\n    /* \"#utility.yul\":1448:1466   */\n  0xffffffffffffffff\n    /* \"#utility.yul\":1440:1446   */\n  dup3\n    /* \"#utility.yul\":1437:1467   */\n  gt\n    /* \"#utility.yul\":1434:1490   */\n  iszero\n  tag_138\n  jumpi\n    /* \"#utility.yul\":1470:1488   */\n  tag_139\n  tag_33\n  jump\t// in\ntag_139:\n    /* \"#utility.yul\":1434:1490   */\ntag_138:\n    /* \"#utility.yul\":1508:1537   */\n  tag_140\n    /* \"#utility.yul\":1530:1536   */\n  dup3\n    /* \"#utility.yul\":1508:1537   */\n  tag_72\n  jump\t// in\ntag_140:\n    /* \"#utility.yul\":1500:1537   */\n  swap1\n  pop\n    /* \"#utility.yul\":1592:1596   */\n  0x20\n    /* \"#utility.yul\":1586:1590   */\n  dup2\n    /* \"#utility.yul\":1582:1597   */\n  add\n    /* \"#utility.yul\":1574:1597   */\n  swap1\n  pop\n    /* \"#utility.yul\":1296:1604   */\n  swap2\n  swap1\n  pop\n  jump\t// out\n    /* \"#utility.yul\":1610:1856   */\ntag_76:\n    /* \"#utility.yul\":1691:1692   */\n  0x00\n    /* \"#utility.yul\":1701:1814   */\ntag_142:\n    /* \"#utility.yul\":1715:1721   */\n  dup4\n    /* \"#utility.yul\":1712:1713   */\n  dup2\n    /* \"#utility.yul\":1709:1722   */\n  lt\n    /* \"#utility.yul\":1701:1814   */\n  iszero\n  tag_144\n  jumpi\n    /* \"#utility.yul\":1800:1801   */\n  dup1\n    /* \"#utility.yul\":1795:1798   */\n  dup3\n    /* \"#utility.yul\":1791:1802   */\n  add\n    /* \"#utility.yul\":1785:1803   */\n  mload\n    /* \"#utility.yul\":1781:1782   */\n  dup2\n    /* \"#utility.yul\":1776:1779   */\n  dup5\n    /* \"#utility.yul\":1772:1783   */\n  add\n    /* \"#utility.yul\":1765:1804   */\n  mstore\n    /* \"#utility.yul\":1737:1739   */\n  0x20\n    /* \"#utility.yul\":1734:1735   */\n  dup2\n    /* \"#utility.yul\":1730:1740   */\n  add\n    /* \"#utility.yul\":1725:1740   */\n  swap1\n  pop\n    /* \"#utility.yul\":1701:1814   */\n  jump(tag_142)\ntag_144:\n    /* \"#utility.yul\":1848:1849   */\n  0x00\n    /* \"#utility.yul\":1839:1845   */\n  dup5\n    /* \"#utility.yul\":1834:1837   */\n  dup5\n    /* \"#utility.yul\":1830:1846   */\n  add\n    /* \"#utility.yul\":1823:1850   */\n  mstore\n    /* \"#utility.yul\":1672:1856   */\n  pop\n    /* \"#utility.yul\":1610:1856   */\n  pop\n  pop\n  pop\n  jump\t// out\n    /* \"#utility.yul\":1862:2296   */\ntag_77:\n    /* \"#utility.yul\":1951:1956   */\n  0x00\n    /* \"#utility.yul\":1976:2042   */\n  tag_146\n    /* \"#utility.yul\":1992:2041   */\n  tag_147\n    /* \"#utility.yul\":2034:2040   */\n  dup5\n    /* \"#utility.yul\":1992:2041   */\n  tag_75\n  jump\t// in\ntag_147:\n    /* \"#utility.yul\":1976:2042   */\n  tag_74\n  jump\t// in\ntag_146:\n    /* \"#utility.yul\":1967:2042   */\n  swap1\n  pop\n    /* \"#utility.yul\":2065:2071   */\n  dup3\n    /* \"#utility.yul\":2058:2063   */\n  dup2\n    /* \"#utility.yul\":2051:2072   */\n  mstore\n    /* \"#utility.yul\":2103:2107   */\n  0x20\n    /* \"#utility.yul\":2096:2101   */\n  dup2\n    /* \"#utility.yul\":2092:2108   */\n  add\n    /* \"#utility.yul\":2141:2144   */\n  dup5\n    /* \"#utility.yul\":2132:2138   */\n  dup5\n    /* \"#utility.yul\":2127:2130   */\n  dup5\n    /* \"#utility.yul\":2123:2139   */\n  add\n    /* \"#utility.yul\":2120:2145   */\n  gt\n    /* \"#utility.yul\":2117:2229   */\n  iszero\n  tag_148\n  jumpi\n    /* \"#utility.yul\":2148:2227   */\n  tag_149\n  tag_71\n  jump\t// in\ntag_149:\n    /* \"#utility.yul\":2117:2229   */\ntag_148:\n    /* \"#utility.yul\":2238:2290   */\n  tag_150\n    /* \"#utility.yul\":2283:2289   */\n  dup5\n    /* \"#utility.yul\":2278:2281   */\n  dup3\n    /* \"#utility.yul\":2273:2276   */\n  dup6\n    /* \"#utility.yul\":2238:2290   */\n  tag_76\n  jump\t// in\ntag_150:\n    /* \"#utility.yul\":1957:2296   */\n  pop\n    /* \"#utility.yul\":1862:2296   */\n  swap4\n  swap3\n  pop\n  pop\n  pop\n  jump\t// out\n    /* \"#utility.yul\":2316:2671   */\ntag_78:\n    /* \"#utility.yul\":2383:2388   */\n  0x00\n    /* \"#utility.yul\":2432:2435   */\n  dup3\n    /* \"#utility.yul\":2425:2429   */\n  0x1f\n    /* \"#utility.yul\":2417:2423   */\n  dup4\n    /* \"#utility.yul\":2413:2430   */\n  add\n    /* \"#utility.yul\":2409:2436   */\n  slt\n    /* \"#utility.yul\":2399:2521   */\n  tag_152\n  jumpi\n    /* \"#utility.yul\":2440:2519   */\n  tag_153\n  tag_70\n  jump\t// in\ntag_153:\n    /* \"#utility.yul\":2399:2521   */\ntag_152:\n    /* \"#utility.yul\":2550:2556   */\n  dup2\n    /* \"#utility.yul\":2544:2557   */\n  mload\n    /* \"#utility.yul\":2575:2665   */\n  tag_154\n    /* \"#utility.yul\":2661:2664   */\n  dup5\n    /* \"#utility.yul\":2653:2659   */\n  dup3\n    /* \"#utility.yul\":2646:2650   */\n  0x20\n    /* \"#utility.yul\":2638:2644   */\n  dup7\n    /* \"#utility.yul\":2634:2651   */\n  add\n    /* \"#utility.yul\":2575:2665   */\n  tag_77\n  jump\t// in\ntag_154:\n    /* \"#utility.yul\":2566:2665   */\n  swap2\n  pop\n    /* \"#utility.yul\":2389:2671   */\n  pop\n    /* \"#utility.yul\":2316:2671   */\n  swap3\n  swap2\n  pop\n  pop\n  jump\t// out\n    /* \"#utility.yul\":2677:2754   */\ntag_79:\n    /* \"#utility.yul\":2714:2721   */\n  0x00\n    /* \"#utility.yul\":2743:2748   */\n  dup2\n    /* \"#utility.yul\":2732:2748   */\n  swap1\n  pop\n    /* \"#utility.yul\":2677:2754   */\n  swap2\n  swap1\n  pop\n  jump\t// out\n    /* \"#utility.yul\":2760:2882   */\ntag_80:\n    /* \"#utility.yul\":2833:2857   */\n  tag_157\n    /* \"#utility.yul\":2851:2856   */\n  dup2\n    /* \"#utility.yul\":2833:2857   */\n  tag_79\n  jump\t// in\ntag_157:\n    /* \"#utility.yul\":2826:2831   */\n  dup2\n    /* \"#utility.yul\":2823:2858   */\n  eq\n    /* \"#utility.yul\":2813:2876   */\n  tag_158\n  jumpi\n    /* \"#utility.yul\":2872:2873   */\n  0x00\n    /* \"#utility.yul\":2869:2870   */\n  dup1\n    /* \"#utility.yul\":2862:2874   */\n  revert\n    /* \"#utility.yul\":2813:2876   */\ntag_158:\n    /* \"#utility.yul\":2760:2882   */\n  pop\n  jump\t// out\n    /* \"#utility.yul\":2888:3031   */\ntag_81:\n    /* \"#utility.yul\":2945:2950   */\n  0x00\n    /* \"#utility.yul\":2976:2982   */\n  dup2\n    /* \"#utility.yul\":2970:2983   */\n  mload\n    /* \"#utility.yul\":2961:2983   */\n  swap1\n  pop\n    /* \"#utility.yul\":2992:3025   */\n  tag_160\n    /* \"#utility.yul\":3019:3024   */\n  dup2\n    /* \"#utility.yul\":2992:3025   */\n  tag_80\n  jump\t// in\ntag_160:\n    /* \"#utility.yul\":2888:3031   */\n  swap3\n  swap2\n  pop\n  pop\n  jump\t// out\n    /* \"#utility.yul\":3037:3358   */\ntag_82:\n    /* \"#utility.yul\":3124:3128   */\n  0x00\n    /* \"#utility.yul\":3214:3232   */\n  0xffffffffffffffff\n    /* \"#utility.yul\":3206:3212   */\n  dup3\n    /* \"#utility.yul\":3203:3233   */\n  gt\n    /* \"#utility.yul\":3200:3256   */\n  iszero\n  tag_162\n  jumpi\n    /* \"#utility.yul\":3236:3254   */\n  tag_163\n  tag_33\n  jump\t// in\ntag_163:\n    /* \"#utility.yul\":3200:3256   */\ntag_162:\n    /* \"#utility.yul\":3286:3290   */\n  0x20\n    /* \"#utility.yul\":3278:3284   */\n  dup3\n    /* \"#utility.yul\":3274:3291   */\n  mul\n    /* \"#utility.yul\":3266:3291   */\n  swap1\n  pop\n    /* \"#utility.yul\":3346:3350   */\n  0x20\n    /* \"#utility.yul\":3340:3344   */\n  dup2\n    /* \"#utility.yul\":3336:3351   */\n  add\n    /* \"#utility.yul\":3328:3351   */\n  swap1\n  pop\n    /* \"#utility.yul\":3037:3358   */\n  swap2\n  swap1\n  pop\n  jump\t// out\n    /* \"#utility.yul\":3364:3481   */\ntag_83:\n    /* \"#utility.yul\":3473:3474   */\n  0x00\n    /* \"#utility.yul\":3470:3471   */\n  dup1\n    /* \"#utility.yul\":3463:3475   */\n  revert\n    /* \"#utility.yul\":3503:4463   */\ntag_84:\n    /* \"#utility.yul\":3620:3625   */\n  0x00\n    /* \"#utility.yul\":3645:3736   */\n  tag_166\n    /* \"#utility.yul\":3661:3735   */\n  tag_167\n    /* \"#utility.yul\":3728:3734   */\n  dup5\n    /* \"#utility.yul\":3661:3735   */\n  tag_82\n  jump\t// in\ntag_167:\n    /* \"#utility.yul\":3645:3736   */\n  tag_74\n  jump\t// in\ntag_166:\n    /* \"#utility.yul\":3636:3736   */\n  swap1\n  pop\n    /* \"#utility.yul\":3756:3761   */\n  dup1\n    /* \"#utility.yul\":3785:3791   */\n  dup4\n    /* \"#utility.yul\":3778:3783   */\n  dup3\n    /* \"#utility.yul\":3771:3792   */\n  mstore\n    /* \"#utility.yul\":3819:3823   */\n  0x20\n    /* \"#utility.yul\":3812:3817   */\n  dup3\n    /* \"#utility.yul\":3808:3824   */\n  add\n    /* \"#utility.yul\":3801:3824   */\n  swap1\n  pop\n    /* \"#utility.yul\":3872:3876   */\n  0x20\n    /* \"#utility.yul\":3864:3870   */\n  dup5\n    /* \"#utility.yul\":3860:3877   */\n  mul\n    /* \"#utility.yul\":3852:3858   */\n  dup4\n    /* \"#utility.yul\":3848:3878   */\n  add\n    /* \"#utility.yul\":3901:3904   */\n  dup6\n    /* \"#utility.yul\":3893:3899   */\n  dup2\n    /* \"#utility.yul\":3890:3905   */\n  gt\n    /* \"#utility.yul\":3887:4009   */\n  iszero\n  tag_168\n  jumpi\n    /* \"#utility.yul\":3920:3999   */\n  tag_169\n  tag_83\n  jump\t// in\ntag_169:\n    /* \"#utility.yul\":3887:4009   */\ntag_168:\n    /* \"#utility.yul\":4035:4041   */\n  dup4\n    /* \"#utility.yul\":4018:4457   */\ntag_170:\n    /* \"#utility.yul\":4052:4058   */\n  dup2\n    /* \"#utility.yul\":4047:4050   */\n  dup2\n    /* \"#utility.yul\":4044:4059   */\n  lt\n    /* \"#utility.yul\":4018:4457   */\n  iszero\n  tag_172\n  jumpi\n    /* \"#utility.yul\":4134:4137   */\n  dup1\n    /* \"#utility.yul\":4128:4138   */\n  mload\n    /* \"#utility.yul\":4170:4188   */\n  0xffffffffffffffff\n    /* \"#utility.yul\":4157:4168   */\n  dup2\n    /* \"#utility.yul\":4154:4189   */\n  gt\n    /* \"#utility.yul\":4151:4273   */\n  iszero\n  tag_173\n  jumpi\n    /* \"#utility.yul\":4192:4271   */\n  tag_174\n  tag_70\n  jump\t// in\ntag_174:\n    /* \"#utility.yul\":4151:4273   */\ntag_173:\n    /* \"#utility.yul\":4316:4327   */\n  dup1\n    /* \"#utility.yul\":4308:4314   */\n  dup7\n    /* \"#utility.yul\":4304:4328   */\n  add\n    /* \"#utility.yul\":4354:4412   */\n  tag_175\n    /* \"#utility.yul\":4408:4411   */\n  dup10\n    /* \"#utility.yul\":4396:4406   */\n  dup3\n    /* \"#utility.yul\":4354:4412   */\n  tag_78\n  jump\t// in\ntag_175:\n    /* \"#utility.yul\":4349:4352   */\n  dup6\n    /* \"#utility.yul\":4342:4413   */\n  mstore\n    /* \"#utility.yul\":4442:4446   */\n  0x20\n    /* \"#utility.yul\":4437:4440   */\n  dup6\n    /* \"#utility.yul\":4433:4447   */\n  add\n    /* \"#utility.yul\":4426:4447   */\n  swap5\n  pop\n    /* \"#utility.yul\":4094:4457   */\n  pop\n  pop\n    /* \"#utility.yul\":4078:4082   */\n  0x20\n    /* \"#utility.yul\":4073:4076   */\n  dup2\n    /* \"#utility.yul\":4069:4083   */\n  add\n    /* \"#utility.yul\":4062:4083   */\n  swap1\n  pop\n    /* \"#utility.yul\":4018:4457   */\n  jump(tag_170)\ntag_172:\n    /* \"#utility.yul\":4022:4043   */\n  pop\n    /* \"#utility.yul\":3626:4463   */\n  pop\n  pop\n    /* \"#utility.yul\":3503:4463   */\n  swap4\n  swap3\n  pop\n  pop\n  pop\n  jump\t// out\n    /* \"#utility.yul\":4485:4890   */\ntag_85:\n    /* \"#utility.yul\":4577:4582   */\n  0x00\n    /* \"#utility.yul\":4626:4629   */\n  dup3\n    /* \"#utility.yul\":4619:4623   */\n  0x1f\n    /* \"#utility.yul\":4611:4617   */\n  dup4\n    /* \"#utility.yul\":4607:4624   */\n  add\n    /* \"#utility.yul\":4603:4630   */\n  slt\n    /* \"#utility.yul\":4593:4715   */\n  tag_177\n  jumpi\n    /* \"#utility.yul\":4634:4713   */\n  tag_178\n  tag_70\n  jump\t// in\ntag_178:\n    /* \"#utility.yul\":4593:4715   */\ntag_177:\n    /* \"#utility.yul\":4744:4750   */\n  dup2\n    /* \"#utility.yul\":4738:4751   */\n  mload\n    /* \"#utility.yul\":4769:4884   */\n  tag_179\n    /* \"#utility.yul\":4880:4883   */\n  dup5\n    /* \"#utility.yul\":4872:4878   */\n  dup3\n    /* \"#utility.yul\":4865:4869   */\n  0x20\n    /* \"#utility.yul\":4857:4863   */\n  dup7\n    /* \"#utility.yul\":4853:4870   */\n  add\n    /* \"#utility.yul\":4769:4884   */\n  tag_84\n  jump\t// in\ntag_179:\n    /* \"#utility.yul\":4760:4884   */\n  swap2\n  pop\n    /* \"#utility.yul\":4583:4890   */\n  pop\n    /* \"#utility.yul\":4485:4890   */\n  swap3\n  swap2\n  pop\n  pop\n  jump\t// out\n    /* \"#utility.yul\":4896:5022   */\ntag_86:\n    /* \"#utility.yul\":4933:4940   */\n  0x00\n    /* \"#utility.yul\":4973:5015   */\n  0xffffffffffffffffffffffffffffffffffffffff\n    /* \"#utility.yul\":4966:4971   */\n  dup3\n    /* \"#utility.yul\":4962:5016   */\n  and\n    /* \"#utility.yul\":4951:5016   */\n  swap1\n  pop\n    /* \"#utility.yul\":4896:5022   */\n  swap2\n  swap1\n  pop\n  jump\t// out\n    /* \"#utility.yul\":5028:5124   */\ntag_87:\n    /* \"#utility.yul\":5065:5072   */\n  0x00\n    /* \"#utility.yul\":5094:5118   */\n  tag_182\n    /* \"#utility.yul\":5112:5117   */\n  dup3\n    /* \"#utility.yul\":5094:5118   */\n  tag_86\n  jump\t// in\ntag_182:\n    /* \"#utility.yul\":5083:5118   */\n  swap1\n  pop\n    /* \"#utility.yul\":5028:5124   */\n  swap2\n  swap1\n  pop\n  jump\t// out\n    /* \"#utility.yul\":5130:5252   */\ntag_88:\n    /* \"#utility.yul\":5203:5227   */\n  tag_184\n    /* \"#utility.yul\":5221:5226   */\n  dup2\n    /* \"#utility.yul\":5203:5227   */\n  tag_87\n  jump\t// in\ntag_184:\n    /* \"#utility.yul\":5196:5201   */\n  dup2\n    /* \"#utility.yul\":5193:5228   */\n  eq\n    /* \"#utility.yul\":5183:5246   */\n  tag_185\n  jumpi\n    /* \"#utility.yul\":5242:5243   */\n  0x00\n    /* \"#utility.yul\":5239:5240   */\n  dup1\n    /* \"#utility.yul\":5232:5244   */\n  revert\n    /* \"#utility.yul\":5183:5246   */\ntag_185:\n    /* \"#utility.yul\":5130:5252   */\n  pop\n  jump\t// out\n    /* \"#utility.yul\":5258:5401   */\ntag_89:\n    /* \"#utility.yul\":5315:5320   */\n  0x00\n    /* \"#utility.yul\":5346:5352   */\n  dup2\n    /* \"#utility.yul\":5340:5353   */\n  mload\n    /* \"#utility.yul\":5331:5353   */\n  swap1\n  pop\n    /* \"#utility.yul\":5362:5395   */\n  tag_187\n    /* \"#utility.yul\":5389:5394   */\n  dup2\n    /* \"#utility.yul\":5362:5395   */\n  tag_88\n  jump\t// in\ntag_187:\n    /* \"#utility.yul\":5258:5401   */\n  swap3\n  swap2\n  pop\n  pop\n  jump\t// out\n    /* \"#utility.yul\":5407:7597   */\ntag_3:\n    /* \"#utility.yul\":5605:5611   */\n  0x00\n    /* \"#utility.yul\":5613:5619   */\n  dup1\n    /* \"#utility.yul\":5621:5627   */\n  0x00\n    /* \"#utility.yul\":5629:5635   */\n  dup1\n    /* \"#utility.yul\":5637:5643   */\n  0x00\n    /* \"#utility.yul\":5645:5651   */\n  dup1\n    /* \"#utility.yul\":5653:5659   */\n  0x00\n    /* \"#utility.yul\":5661:5667   */\n  dup1\n    /* \"#utility.yul\":5710:5713   */\n  0x0100\n    /* \"#utility.yul\":5698:5707   */\n  dup10\n    /* \"#utility.yul\":5689:5696   */\n  dup12\n    /* \"#utility.yul\":5685:5708   */\n  sub\n    /* \"#utility.yul\":5681:5714   */\n  slt\n    /* \"#utility.yul\":5678:5798   */\n  iszero\n  tag_189\n  jumpi\n    /* \"#utility.yul\":5717:5796   */\n  tag_190\n  tag_68\n  jump\t// in\ntag_190:\n    /* \"#utility.yul\":5678:5798   */\ntag_189:\n    /* \"#utility.yul\":5858:5859   */\n  0x00\n    /* \"#utility.yul\":5847:5856   */\n  dup10\n    /* \"#utility.yul\":5843:5860   */\n  add\n    /* \"#utility.yul\":5837:5861   */\n  mload\n    /* \"#utility.yul\":5888:5906   */\n  0xffffffffffffffff\n    /* \"#utility.yul\":5880:5886   */\n  dup2\n    /* \"#utility.yul\":5877:5907   */\n  gt\n    /* \"#utility.yul\":5874:5991   */\n  iszero\n  tag_191\n  jumpi\n    /* \"#utility.yul\":5910:5989   */\n  tag_192\n  tag_69\n  jump\t// in\ntag_192:\n    /* \"#utility.yul\":5874:5991   */\ntag_191:\n    /* \"#utility.yul\":6015:6089   */\n  tag_193\n    /* \"#utility.yul\":6081:6088   */\n  dup12\n    /* \"#utility.yul\":6072:6078   */\n  dup3\n    /* \"#utility.yul\":6061:6070   */\n  dup13\n    /* \"#utility.yul\":6057:6079   */\n  add\n    /* \"#utility.yul\":6015:6089   */\n  tag_78\n  jump\t// in\ntag_193:\n    /* \"#utility.yul\":6005:6089   */\n  swap9\n  pop\n    /* \"#utility.yul\":5808:6099   */\n  pop\n    /* \"#utility.yul\":6159:6161   */\n  0x20\n    /* \"#utility.yul\":6148:6157   */\n  dup10\n    /* \"#utility.yul\":6144:6162   */\n  add\n    /* \"#utility.yul\":6138:6163   */\n  mload\n    /* \"#utility.yul\":6190:6208   */\n  0xffffffffffffffff\n    /* \"#utility.yul\":6182:6188   */\n  dup2\n    /* \"#utility.yul\":6179:6209   */\n  gt\n    /* \"#utility.yul\":6176:6293   */\n  iszero\n  tag_194\n  jumpi\n    /* \"#utility.yul\":6212:6291   */\n  tag_195\n  tag_69\n  jump\t// in\ntag_195:\n    /* \"#utility.yul\":6176:6293   */\ntag_194:\n    /* \"#utility.yul\":6317:6391   */\n  tag_196\n    /* \"#utility.yul\":6383:6390   */\n  dup12\n    /* \"#utility.yul\":6374:6380   */\n  dup3\n    /* \"#utility.yul\":6363:6372   */\n  dup13\n    /* \"#utility.yul\":6359:6381   */\n  add\n    /* \"#utility.yul\":6317:6391   */\n  tag_78\n  jump\t// in\ntag_196:\n    /* \"#utility.yul\":6307:6391   */\n  swap8\n  pop\n    /* \"#utility.yul\":6109:6401   */\n  pop\n    /* \"#utility.yul\":6440:6442   */\n  0x40\n    /* \"#utility.yul\":6466:6530   */\n  tag_197\n    /* \"#utility.yul\":6522:6529   */\n  dup12\n    /* \"#utility.yul\":6513:6519   */\n  dup3\n    /* \"#utility.yul\":6502:6511   */\n  dup13\n    /* \"#utility.yul\":6498:6520   */\n  add\n    /* \"#utility.yul\":6466:6530   */\n  tag_81\n  jump\t// in\ntag_197:\n    /* \"#utility.yul\":6456:6530   */\n  swap7\n  pop\n    /* \"#utility.yul\":6411:6540   */\n  pop\n    /* \"#utility.yul\":6600:6602   */\n  0x60\n    /* \"#utility.yul\":6589:6598   */\n  dup10\n    /* \"#utility.yul\":6585:6603   */\n  add\n    /* \"#utility.yul\":6579:6604   */\n  mload\n    /* \"#utility.yul\":6631:6649   */\n  0xffffffffffffffff\n    /* \"#utility.yul\":6623:6629   */\n  dup2\n    /* \"#utility.yul\":6620:6650   */\n  gt\n    /* \"#utility.yul\":6617:6734   */\n  iszero\n  tag_198\n  jumpi\n    /* \"#utility.yul\":6653:6732   */\n  tag_199\n  tag_69\n  jump\t// in\ntag_199:\n    /* \"#utility.yul\":6617:6734   */\ntag_198:\n    /* \"#utility.yul\":6758:6832   */\n  tag_200\n    /* \"#utility.yul\":6824:6831   */\n  dup12\n    /* \"#utility.yul\":6815:6821   */\n  dup3\n    /* \"#utility.yul\":6804:6813   */\n  dup13\n    /* \"#utility.yul\":6800:6822   */\n  add\n    /* \"#utility.yul\":6758:6832   */\n  tag_78\n  jump\t// in\ntag_200:\n    /* \"#utility.yul\":6748:6832   */\n  swap6\n  pop\n    /* \"#utility.yul\":6550:6842   */\n  pop\n    /* \"#utility.yul\":6902:6905   */\n  0x80\n    /* \"#utility.yul\":6891:6900   */\n  dup10\n    /* \"#utility.yul\":6887:6906   */\n  add\n    /* \"#utility.yul\":6881:6907   */\n  mload\n    /* \"#utility.yul\":6934:6952   */\n  0xffffffffffffffff\n    /* \"#utility.yul\":6926:6932   */\n  dup2\n    /* \"#utility.yul\":6923:6953   */\n  gt\n    /* \"#utility.yul\":6920:7037   */\n  iszero\n  tag_201\n  jumpi\n    /* \"#utility.yul\":6956:7035   */\n  tag_202\n  tag_69\n  jump\t// in\ntag_202:\n    /* \"#utility.yul\":6920:7037   */\ntag_201:\n    /* \"#utility.yul\":7061:7160   */\n  tag_203\n    /* \"#utility.yul\":7152:7159   */\n  dup12\n    /* \"#utility.yul\":7143:7149   */\n  dup3\n    /* \"#utility.yul\":7132:7141   */\n  dup13\n    /* \"#utility.yul\":7128:7150   */\n  add\n    /* \"#utility.yul\":7061:7160   */\n  tag_85\n  jump\t// in\ntag_203:\n    /* \"#utility.yul\":7051:7160   */\n  swap5\n  pop\n    /* \"#utility.yul\":6852:7170   */\n  pop\n    /* \"#utility.yul\":7209:7212   */\n  0xa0\n    /* \"#utility.yul\":7236:7300   */\n  tag_204\n    /* \"#utility.yul\":7292:7299   */\n  dup12\n    /* \"#utility.yul\":7283:7289   */\n  dup3\n    /* \"#utility.yul\":7272:7281   */\n  dup13\n    /* \"#utility.yul\":7268:7290   */\n  add\n    /* \"#utility.yul\":7236:7300   */\n  tag_89\n  jump\t// in\ntag_204:\n    /* \"#utility.yul\":7226:7300   */\n  swap4\n  pop\n    /* \"#utility.yul\":7180:7310   */\n  pop\n    /* \"#utility.yul\":7349:7352   */\n  0xc0\n    /* \"#utility.yul\":7376:7440   */\n  tag_205\n    /* \"#utility.yul\":7432:7439   */\n  dup12\n    /* \"#utility.yul\":7423:7429   */\n  dup3\n    /* \"#utility.yul\":7412:7421   */\n  dup13\n    /* \"#utility.yul\":7408:7430   */\n  add\n    /* \"#utility.yul\":7376:7440   */\n  tag_81\n  jump\t// in\ntag_205:\n    /* \"#utility.yul\":7366:7440   */\n  swap3\n  pop\n    /* \"#utility.yul\":7320:7450   */\n  pop\n    /* \"#utility.yul\":7489:7492   */\n  0xe0\n    /* \"#utility.yul\":7516:7580   */\n  tag_206\n    /* \"#utility.yul\":7572:7579   */\n  dup12\n    /* \"#utility.yul\":7563:7569   */\n  dup3\n    /* \"#utility.yul\":7552:7561   */\n  dup13\n    /* \"#utility.yul\":7548:7570   */\n  add\n    /* \"#utility.yul\":7516:7580   */\n  tag_81\n  jump\t// in\ntag_206:\n    /* \"#utility.yul\":7506:7580   */\n  swap2\n  pop\n    /* \"#utility.yul\":7460:7590   */\n  pop\n    /* \"#utility.yul\":5407:7597   */\n  swap3\n  swap6\n  swap9\n  pop\n  swap3\n  swap6\n  swap9\n  swap1\n  swap4\n  swap7\n  pop\n  jump\t// out\n    /* \"#utility.yul\":7603:7772   */\ntag_90:\n    /* \"#utility.yul\":7687:7698   */\n  0x00\n    /* \"#utility.yul\":7721:7727   */\n  dup3\n    /* \"#utility.yul\":7716:7719   */\n  dup3\n    /* \"#utility.yul\":7709:7728   */\n  mstore\n    /* \"#utility.yul\":7761:7765   */\n  0x20\n    /* \"#utility.yul\":7756:7759   */\n  dup3\n    /* \"#utility.yul\":7752:7766   */\n  add\n    /* \"#utility.yul\":7737:7766   */\n  swap1\n  pop\n    /* \"#utility.yul\":7603:7772   */\n  swap3\n  swap2\n  pop\n  pop\n  jump\t// out\n    /* \"#utility.yul\":7778:7939   */\ntag_91:\n    /* \"#utility.yul\":7918:7931   */\n  0x456d707479207469746c65000000000000000000000000000000000000000000\n    /* \"#utility.yul\":7914:7915   */\n  0x00\n    /* \"#utility.yul\":7906:7912   */\n  dup3\n    /* \"#utility.yul\":7902:7916   */\n  add\n    /* \"#utility.yul\":7895:7932   */\n  mstore\n    /* \"#utility.yul\":7778:7939   */\n  pop\n  jump\t// out\n    /* \"#utility.yul\":7945:8311   */\ntag_92:\n    /* \"#utility.yul\":8087:8090   */\n  0x00\n    /* \"#utility.yul\":8108:8175   */\n  tag_210\n    /* \"#utility.yul\":8172:8174   */\n  0x0b\n    /* \"#utility.yul\":8167:8170   */\n  dup4\n    /* \"#utility.yul\":8108:8175   */\n  tag_90\n  jump\t// in\ntag_210:\n    /* \"#utility.yul\":8101:8175   */\n  swap2\n  pop\n    /* \"#utility.yul\":8184:8277   */\n  tag_211\n    /* \"#utility.yul\":8273:8276   */\n  dup3\n    /* \"#utility.yul\":8184:8277   */\n  tag_91\n  jump\t// in\ntag_211:\n    /* \"#utility.yul\":8302:8304   */\n  0x20\n    /* \"#utility.yul\":8297:8300   */\n  dup3\n    /* \"#utility.yul\":8293:8305   */\n  add\n    /* \"#utility.yul\":8286:8305   */\n  swap1\n  pop\n    /* \"#utility.yul\":7945:8311   */\n  swap2\n  swap1\n  pop\n  jump\t// out\n    /* \"#utility.yul\":8317:8736   */\ntag_8:\n    /* \"#utility.yul\":8483:8487   */\n  0x00\n    /* \"#utility.yul\":8521:8523   */\n  0x20\n    /* \"#utility.yul\":8510:8519   */\n  dup3\n    /* \"#utility.yul\":8506:8524   */\n  add\n    /* \"#utility.yul\":8498:8524   */\n  swap1\n  pop\n    /* \"#utility.yul\":8570:8579   */\n  dup2\n    /* \"#utility.yul\":8564:8568   */\n  dup2\n    /* \"#utility.yul\":8560:8580   */\n  sub\n    /* \"#utility.yul\":8556:8557   */\n  0x00\n    /* \"#utility.yul\":8545:8554   */\n  dup4\n    /* \"#utility.yul\":8541:8558   */\n  add\n    /* \"#utility.yul\":8534:8581   */\n  mstore\n    /* \"#utility.yul\":8598:8729   */\n  tag_213\n    /* \"#utility.yul\":8724:8728   */\n  dup2\n    /* \"#utility.yul\":8598:8729   */\n  tag_92\n  jump\t// in\ntag_213:\n    /* \"#utility.yul\":8590:8729   */\n  swap1\n  pop\n    /* \"#utility.yul\":8317:8736   */\n  swap2\n  swap1\n  pop\n  jump\t// out\n    /* \"#utility.yul\":8742:8905   */\ntag_93:\n    /* \"#utility.yul\":8882:8897   */\n  0x456d707479206164647265737300000000000000000000000000000000000000\n    /* \"#utility.yul\":8878:8879   */\n  0x00\n    /* \"#utility.yul\":8870:8876   */\n  dup3\n    /* \"#utility.yul\":8866:8880   */\n  add\n    /* \"#utility.yul\":8859:8898   */\n  mstore\n    /* \"#utility.yul\":8742:8905   */\n  pop\n  jump\t// out\n    /* \"#utility.yul\":8911:9277   */\ntag_94:\n    /* \"#utility.yul\":9053:9056   */\n  0x00\n    /* \"#utility.yul\":9074:9141   */\n  tag_216\n    /* \"#utility.yul\":9138:9140   */\n  0x0d\n    /* \"#utility.yul\":9133:9136   */\n  dup4\n    /* \"#utility.yul\":9074:9141   */\n  tag_90\n  jump\t// in\ntag_216:\n    /* \"#utility.yul\":9067:9141   */\n  swap2\n  pop\n    /* \"#utility.yul\":9150:9243   */\n  tag_217\n    /* \"#utility.yul\":9239:9242   */\n  dup3\n    /* \"#utility.yul\":9150:9243   */\n  tag_93\n  jump\t// in\ntag_217:\n    /* \"#utility.yul\":9268:9270   */\n  0x20\n    /* \"#utility.yul\":9263:9266   */\n  dup3\n    /* \"#utility.yul\":9259:9271   */\n  add\n    /* \"#utility.yul\":9252:9271   */\n  swap1\n  pop\n    /* \"#utility.yul\":8911:9277   */\n  swap2\n  swap1\n  pop\n  jump\t// out\n    /* \"#utility.yul\":9283:9702   */\ntag_11:\n    /* \"#utility.yul\":9449:9453   */\n  0x00\n    /* \"#utility.yul\":9487:9489   */\n  0x20\n    /* \"#utility.yul\":9476:9485   */\n  dup3\n    /* \"#utility.yul\":9472:9490   */\n  add\n    /* \"#utility.yul\":9464:9490   */\n  swap1\n  pop\n    /* \"#utility.yul\":9536:9545   */\n  dup2\n    /* \"#utility.yul\":9530:9534   */\n  dup2\n    /* \"#utility.yul\":9526:9546   */\n  sub\n    /* \"#utility.yul\":9522:9523   */\n  0x00\n    /* \"#utility.yul\":9511:9520   */\n  dup4\n    /* \"#utility.yul\":9507:9524   */\n  add\n    /* \"#utility.yul\":9500:9547   */\n  mstore\n    /* \"#utility.yul\":9564:9695   */\n  tag_219\n    /* \"#utility.yul\":9690:9694   */\n  dup2\n    /* \"#utility.yul\":9564:9695   */\n  tag_94\n  jump\t// in\ntag_219:\n    /* \"#utility.yul\":9556:9695   */\n  swap1\n  pop\n    /* \"#utility.yul\":9283:9702   */\n  swap2\n  swap1\n  pop\n  jump\t// out\n    /* \"#utility.yul\":9708:9879   */\ntag_95:\n    /* \"#utility.yul\":9848:9871   */\n  0x417474656e64656573206d757374206265203e20300000000000000000000000\n    /* \"#utility.yul\":9844:9845   */\n  0x00\n    /* \"#utility.yul\":9836:9842   */\n  dup3\n    /* \"#utility.yul\":9832:9846   */\n  add\n    /* \"#utility.yul\":9825:9872   */\n  mstore\n    /* \"#utility.yul\":9708:9879   */\n  pop\n  jump\t// out\n    /* \"#utility.yul\":9885:10251   */\ntag_96:\n    /* \"#utility.yul\":10027:10030   */\n  0x00\n    /* \"#utility.yul\":10048:10115   */\n  tag_222\n    /* \"#utility.yul\":10112:10114   */\n  0x15\n    /* \"#utility.yul\":10107:10110   */\n  dup4\n    /* \"#utility.yul\":10048:10115   */\n  tag_90\n  jump\t// in\ntag_222:\n    /* \"#utility.yul\":10041:10115   */\n  swap2\n  pop\n    /* \"#utility.yul\":10124:10217   */\n  tag_223\n    /* \"#utility.yul\":10213:10216   */\n  dup3\n    /* \"#utility.yul\":10124:10217   */\n  tag_95\n  jump\t// in\ntag_223:\n    /* \"#utility.yul\":10242:10244   */\n  0x20\n    /* \"#utility.yul\":10237:10240   */\n  dup3\n    /* \"#utility.yul\":10233:10245   */\n  add\n    /* \"#utility.yul\":10226:10245   */\n  swap1\n  pop\n    /* \"#utility.yul\":9885:10251   */\n  swap2\n  swap1\n  pop\n  jump\t// out\n    /* \"#utility.yul\":10257:10676   */\ntag_14:\n    /* \"#utility.yul\":10423:10427   */\n  0x00\n    /* \"#utility.yul\":10461:10463   */\n  0x20\n    /* \"#utility.yul\":10450:10459   */\n  dup3\n    /* \"#utility.yul\":10446:10464   */\n  add\n    /* \"#utility.yul\":10438:10464   */\n  swap1\n  pop\n    /* \"#utility.yul\":10510:10519   */\n  dup2\n    /* \"#utility.yul\":10504:10508   */\n  dup2\n    /* \"#utility.yul\":10500:10520   */\n  sub\n    /* \"#utility.yul\":10496:10497   */\n  0x00\n    /* \"#utility.yul\":10485:10494   */\n  dup4\n    /* \"#utility.yul\":10481:10498   */\n  add\n    /* \"#utility.yul\":10474:10521   */\n  mstore\n    /* \"#utility.yul\":10538:10669   */\n  tag_225\n    /* \"#utility.yul\":10664:10668   */\n  dup2\n    /* \"#utility.yul\":10538:10669   */\n  tag_96\n  jump\t// in\ntag_225:\n    /* \"#utility.yul\":10530:10669   */\n  swap1\n  pop\n    /* \"#utility.yul\":10257:10676   */\n  swap2\n  swap1\n  pop\n  jump\t// out\n    /* \"#utility.yul\":10682:10848   */\ntag_97:\n    /* \"#utility.yul\":10822:10840   */\n  0x4f776e65722063616e6e6f747a65726f00000000000000000000000000000000\n    /* \"#utility.yul\":10818:10819   */\n  0x00\n    /* \"#utility.yul\":10810:10816   */\n  dup3\n    /* \"#utility.yul\":10806:10820   */\n  add\n    /* \"#utility.yul\":10799:10841   */\n  mstore\n    /* \"#utility.yul\":10682:10848   */\n  pop\n  jump\t// out\n    /* \"#utility.yul\":10854:11220   */\ntag_98:\n    /* \"#utility.yul\":10996:10999   */\n  0x00\n    /* \"#utility.yul\":11017:11084   */\n  tag_228\n    /* \"#utility.yul\":11081:11083   */\n  0x10\n    /* \"#utility.yul\":11076:11079   */\n  dup4\n    /* \"#utility.yul\":11017:11084   */\n  tag_90\n  jump\t// in\ntag_228:\n    /* \"#utility.yul\":11010:11084   */\n  swap2\n  pop\n    /* \"#utility.yul\":11093:11186   */\n  tag_229\n    /* \"#utility.yul\":11182:11185   */\n  dup3\n    /* \"#utility.yul\":11093:11186   */\n  tag_97\n  jump\t// in\ntag_229:\n    /* \"#utility.yul\":11211:11213   */\n  0x20\n    /* \"#utility.yul\":11206:11209   */\n  dup3\n    /* \"#utility.yul\":11202:11214   */\n  add\n    /* \"#utility.yul\":11195:11214   */\n  swap1\n  pop\n    /* \"#utility.yul\":10854:11220   */\n  swap2\n  swap1\n  pop\n  jump\t// out\n    /* \"#utility.yul\":11226:11645   */\ntag_17:\n    /* \"#utility.yul\":11392:11396   */\n  0x00\n    /* \"#utility.yul\":11430:11432   */\n  0x20\n    /* \"#utility.yul\":11419:11428   */\n  dup3\n    /* \"#utility.yul\":11415:11433   */\n  add\n    /* \"#utility.yul\":11407:11433   */\n  swap1\n  pop\n    /* \"#utility.yul\":11479:11488   */\n  dup2\n    /* \"#utility.yul\":11473:11477   */\n  dup2\n    /* \"#utility.yul\":11469:11489   */\n  sub\n    /* \"#utility.yul\":11465:11466   */\n  0x00\n    /* \"#utility.yul\":11454:11463   */\n  dup4\n    /* \"#utility.yul\":11450:11467   */\n  add\n    /* \"#utility.yul\":11443:11490   */\n  mstore\n    /* \"#utility.yul\":11507:11638   */\n  tag_231\n    /* \"#utility.yul\":11633:11637   */\n  dup2\n    /* \"#utility.yul\":11507:11638   */\n  tag_98\n  jump\t// in\ntag_231:\n    /* \"#utility.yul\":11499:11638   */\n  swap1\n  pop\n    /* \"#utility.yul\":11226:11645   */\n  swap2\n  swap1\n  pop\n  jump\t// out\n    /* \"#utility.yul\":11651:11828   */\ntag_99:\n    /* \"#utility.yul\":11791:11820   */\n  0x4576656e74206d75737420626520696e20746865206675747572650000000000\n    /* \"#utility.yul\":11787:11788   */\n  0x00\n    /* \"#utility.yul\":11779:11785   */\n  dup3\n    /* \"#utility.yul\":11775:11789   */\n  add\n    /* \"#utility.yul\":11768:11821   */\n  mstore\n    /* \"#utility.yul\":11651:11828   */\n  pop\n  jump\t// out\n    /* \"#utility.yul\":11834:12200   */\ntag_100:\n    /* \"#utility.yul\":11976:11979   */\n  0x00\n    /* \"#utility.yul\":11997:12064   */\n  tag_234\n    /* \"#utility.yul\":12061:12063   */\n  0x1b\n    /* \"#utility.yul\":12056:12059   */\n  dup4\n    /* \"#utility.yul\":11997:12064   */\n  tag_90\n  jump\t// in\ntag_234:\n    /* \"#utility.yul\":11990:12064   */\n  swap2\n  pop\n    /* \"#utility.yul\":12073:12166   */\n  tag_235\n    /* \"#utility.yul\":12162:12165   */\n  dup3\n    /* \"#utility.yul\":12073:12166   */\n  tag_99\n  jump\t// in\ntag_235:\n    /* \"#utility.yul\":12191:12193   */\n  0x20\n    /* \"#utility.yul\":12186:12189   */\n  dup3\n    /* \"#utility.yul\":12182:12194   */\n  add\n    /* \"#utility.yul\":12175:12194   */\n  swap1\n  pop\n    /* \"#utility.yul\":11834:12200   */\n  swap2\n  swap1\n  pop\n  jump\t// out\n    /* \"#utility.yul\":12206:12625   */\ntag_20:\n    /* \"#utility.yul\":12372:12376   */\n  0x00\n    /* \"#utility.yul\":12410:12412   */\n  0x20\n    /* \"#utility.yul\":12399:12408   */\n  dup3\n    /* \"#utility.yul\":12395:12413   */\n  add\n    /* \"#utility.yul\":12387:12413   */\n  swap1\n  pop\n    /* \"#utility.yul\":12459:12468   */\n  dup2\n    /* \"#utility.yul\":12453:12457   */\n  dup2\n    /* \"#utility.yul\":12449:12469   */\n  sub\n    /* \"#utility.yul\":12445:12446   */\n  0x00\n    /* \"#utility.yul\":12434:12443   */\n  dup4\n    /* \"#utility.yul\":12430:12447   */\n  add\n    /* \"#utility.yul\":12423:12470   */\n  mstore\n    /* \"#utility.yul\":12487:12618   */\n  tag_237\n    /* \"#utility.yul\":12613:12617   */\n  dup2\n    /* \"#utility.yul\":12487:12618   */\n  tag_100\n  jump\t// in\ntag_237:\n    /* \"#utility.yul\":12479:12618   */\n  swap1\n  pop\n    /* \"#utility.yul\":12206:12625   */\n  swap2\n  swap1\n  pop\n  jump\t// out\n    /* \"#utility.yul\":12631:12859   */\ntag_101:\n    /* \"#utility.yul\":12771:12805   */\n  0x4576656e7420656e64696e67206d757374206265206166746572206576656e74\n    /* \"#utility.yul\":12767:12768   */\n  0x00\n    /* \"#utility.yul\":12759:12765   */\n  dup3\n    /* \"#utility.yul\":12755:12769   */\n  add\n    /* \"#utility.yul\":12748:12806   */\n  mstore\n    /* \"#utility.yul\":12840:12851   */\n  0x207374617274696e670000000000000000000000000000000000000000000000\n    /* \"#utility.yul\":12835:12837   */\n  0x20\n    /* \"#utility.yul\":12827:12833   */\n  dup3\n    /* \"#utility.yul\":12823:12838   */\n  add\n    /* \"#utility.yul\":12816:12852   */\n  mstore\n    /* \"#utility.yul\":12631:12859   */\n  pop\n  jump\t// out\n    /* \"#utility.yul\":12865:13231   */\ntag_102:\n    /* \"#utility.yul\":13007:13010   */\n  0x00\n    /* \"#utility.yul\":13028:13095   */\n  tag_240\n    /* \"#utility.yul\":13092:13094   */\n  0x29\n    /* \"#utility.yul\":13087:13090   */\n  dup4\n    /* \"#utility.yul\":13028:13095   */\n  tag_90\n  jump\t// in\ntag_240:\n    /* \"#utility.yul\":13021:13095   */\n  swap2\n  pop\n    /* \"#utility.yul\":13104:13197   */\n  tag_241\n    /* \"#utility.yul\":13193:13196   */\n  dup3\n    /* \"#utility.yul\":13104:13197   */\n  tag_101\n  jump\t// in\ntag_241:\n    /* \"#utility.yul\":13222:13224   */\n  0x40\n    /* \"#utility.yul\":13217:13220   */\n  dup3\n    /* \"#utility.yul\":13213:13225   */\n  add\n    /* \"#utility.yul\":13206:13225   */\n  swap1\n  pop\n    /* \"#utility.yul\":12865:13231   */\n  swap2\n  swap1\n  pop\n  jump\t// out\n    /* \"#utility.yul\":13237:13656   */\ntag_23:\n    /* \"#utility.yul\":13403:13407   */\n  0x00\n    /* \"#utility.yul\":13441:13443   */\n  0x20\n    /* \"#utility.yul\":13430:13439   */\n  dup3\n    /* \"#utility.yul\":13426:13444   */\n  add\n    /* \"#utility.yul\":13418:13444   */\n  swap1\n  pop\n    /* \"#utility.yul\":13490:13499   */\n  dup2\n    /* \"#utility.yul\":13484:13488   */\n  dup2\n    /* \"#utility.yul\":13480:13500   */\n  sub\n    /* \"#utility.yul\":13476:13477   */\n  0x00\n    /* \"#utility.yul\":13465:13474   */\n  dup4\n    /* \"#utility.yul\":13461:13478   */\n  add\n    /* \"#utility.yul\":13454:13501   */\n  mstore\n    /* \"#utility.yul\":13518:13649   */\n  tag_243\n    /* \"#utility.yul\":13644:13648   */\n  dup2\n    /* \"#utility.yul\":13518:13649   */\n  tag_102\n  jump\t// in\ntag_243:\n    /* \"#utility.yul\":13510:13649   */\n  swap1\n  pop\n    /* \"#utility.yul\":13237:13656   */\n  swap2\n  swap1\n  pop\n  jump\t// out\n    /* \"#utility.yul\":13662:13832   */\ntag_103:\n    /* \"#utility.yul\":13802:13824   */\n  0x546f6f206d616e7920746167732c206d61782035000000000000000000000000\n    /* \"#utility.yul\":13798:13799   */\n  0x00\n    /* \"#utility.yul\":13790:13796   */\n  dup3\n    /* \"#utility.yul\":13786:13800   */\n  add\n    /* \"#utility.yul\":13779:13825   */\n  mstore\n    /* \"#utility.yul\":13662:13832   */\n  pop\n  jump\t// out\n    /* \"#utility.yul\":13838:14204   */\ntag_104:\n    /* \"#utility.yul\":13980:13983   */\n  0x00\n    /* \"#utility.yul\":14001:14068   */\n  tag_246\n    /* \"#utility.yul\":14065:14067   */\n  0x14\n    /* \"#utility.yul\":14060:14063   */\n  dup4\n    /* \"#utility.yul\":14001:14068   */\n  tag_90\n  jump\t// in\ntag_246:\n    /* \"#utility.yul\":13994:14068   */\n  swap2\n  pop\n    /* \"#utility.yul\":14077:14170   */\n  tag_247\n    /* \"#utility.yul\":14166:14169   */\n  dup3\n    /* \"#utility.yul\":14077:14170   */\n  tag_103\n  jump\t// in\ntag_247:\n    /* \"#utility.yul\":14195:14197   */\n  0x20\n    /* \"#utility.yul\":14190:14193   */\n  dup3\n    /* \"#utility.yul\":14186:14198   */\n  add\n    /* \"#utility.yul\":14179:14198   */\n  swap1\n  pop\n    /* \"#utility.yul\":13838:14204   */\n  swap2\n  swap1\n  pop\n  jump\t// out\n    /* \"#utility.yul\":14210:14629   */\ntag_26:\n    /* \"#utility.yul\":14376:14380   */\n  0x00\n    /* \"#utility.yul\":14414:14416   */\n  0x20\n    /* \"#utility.yul\":14403:14412   */\n  dup3\n    /* \"#utility.yul\":14399:14417   */\n  add\n    /* \"#utility.yul\":14391:14417   */\n  swap1\n  pop\n    /* \"#utility.yul\":14463:14472   */\n  dup2\n    /* \"#utility.yul\":14457:14461   */\n  dup2\n    /* \"#utility.yul\":14453:14473   */\n  sub\n    /* \"#utility.yul\":14449:14450   */\n  0x00\n    /* \"#utility.yul\":14438:14447   */\n  dup4\n    /* \"#utility.yul\":14434:14451   */\n  add\n    /* \"#utility.yul\":14427:14474   */\n  mstore\n    /* \"#utility.yul\":14491:14622   */\n  tag_249\n    /* \"#utility.yul\":14617:14621   */\n  dup2\n    /* \"#utility.yul\":14491:14622   */\n  tag_104\n  jump\t// in\ntag_249:\n    /* \"#utility.yul\":14483:14622   */\n  swap1\n  pop\n    /* \"#utility.yul\":14210:14629   */\n  swap2\n  swap1\n  pop\n  jump\t// out\n    /* \"#utility.yul\":14635:14734   */\ntag_105:\n    /* \"#utility.yul\":14687:14693   */\n  0x00\n    /* \"#utility.yul\":14721:14726   */\n  dup2\n    /* \"#utility.yul\":14715:14727   */\n  mload\n    /* \"#utility.yul\":14705:14727   */\n  swap1\n  pop\n    /* \"#utility.yul\":14635:14734   */\n  swap2\n  swap1\n  pop\n  jump\t// out\n    /* \"#utility.yul\":14740:14920   */\ntag_106:\n    /* \"#utility.yul\":14788:14865   */\n  0x4e487b7100000000000000000000000000000000000000000000000000000000\n    /* \"#utility.yul\":14785:14786   */\n  0x00\n    /* \"#utility.yul\":14778:14866   */\n  mstore\n    /* \"#utility.yul\":14885:14889   */\n  0x22\n    /* \"#utility.yul\":14882:14883   */\n  0x04\n    /* \"#utility.yul\":14875:14890   */\n  mstore\n    /* \"#utility.yul\":14909:14913   */\n  0x24\n    /* \"#utility.yul\":14906:14907   */\n  0x00\n    /* \"#utility.yul\":14899:14914   */\n  revert\n    /* \"#utility.yul\":14926:15246   */\ntag_60:\n    /* \"#utility.yul\":14970:14976   */\n  0x00\n    /* \"#utility.yul\":15007:15008   */\n  0x02\n    /* \"#utility.yul\":15001:15005   */\n  dup3\n    /* \"#utility.yul\":14997:15009   */\n  div\n    /* \"#utility.yul\":14987:15009   */\n  swap1\n  pop\n    /* \"#utility.yul\":15054:15055   */\n  0x01\n    /* \"#utility.yul\":15048:15052   */\n  dup3\n    /* \"#utility.yul\":15044:15056   */\n  and\n    /* \"#utility.yul\":15075:15093   */\n  dup1\n    /* \"#utility.yul\":15065:15146   */\n  tag_253\n  jumpi\n    /* \"#utility.yul\":15131:15135   */\n  0x7f\n    /* \"#utility.yul\":15123:15129   */\n  dup3\n    /* \"#utility.yul\":15119:15136   */\n  and\n    /* \"#utility.yul\":15109:15136   */\n  swap2\n  pop\n    /* \"#utility.yul\":15065:15146   */\ntag_253:\n    /* \"#utility.yul\":15193:15195   */\n  0x20\n    /* \"#utility.yul\":15185:15191   */\n  dup3\n    /* \"#utility.yul\":15182:15196   */\n  lt\n    /* \"#utility.yul\":15162:15180   */\n  dup2\n    /* \"#utility.yul\":15159:15197   */\n  sub\n    /* \"#utility.yul\":15156:15240   */\n  tag_254\n  jumpi\n    /* \"#utility.yul\":15212:15230   */\n  tag_255\n  tag_106\n  jump\t// in\ntag_255:\n    /* \"#utility.yul\":15156:15240   */\ntag_254:\n    /* \"#utility.yul\":14977:15246   */\n  pop\n    /* \"#utility.yul\":14926:15246   */\n  swap2\n  swap1\n  pop\n  jump\t// out\n    /* \"#utility.yul\":15252:15393   */\ntag_107:\n    /* \"#utility.yul\":15301:15305   */\n  0x00\n    /* \"#utility.yul\":15324:15327   */\n  dup2\n    /* \"#utility.yul\":15316:15327   */\n  swap1\n  pop\n    /* \"#utility.yul\":15347:15350   */\n  dup2\n    /* \"#utility.yul\":15344:15345   */\n  0x00\n    /* \"#utility.yul\":15337:15351   */\n  mstore\n    /* \"#utility.yul\":15381:15385   */\n  0x20\n    /* \"#utility.yul\":15378:15379   */\n  0x00\n    /* \"#utility.yul\":15368:15386   */\n  keccak256\n    /* \"#utility.yul\":15360:15386   */\n  swap1\n  pop\n    /* \"#utility.yul\":15252:15393   */\n  swap2\n  swap1\n  pop\n  jump\t// out\n    /* \"#utility.yul\":15399:15492   */\ntag_108:\n    /* \"#utility.yul\":15436:15442   */\n  0x00\n    /* \"#utility.yul\":15483:15485   */\n  0x20\n    /* \"#utility.yul\":15478:15480   */\n  0x1f\n    /* \"#utility.yul\":15471:15476   */\n  dup4\n    /* \"#utility.yul\":15467:15481   */\n  add\n    /* \"#utility.yul\":15463:15486   */\n  div\n    /* \"#utility.yul\":15453:15486   */\n  swap1\n  pop\n    /* \"#utility.yul\":15399:15492   */\n  swap2\n  swap1\n  pop\n  jump\t// out\n    /* \"#utility.yul\":15498:15605   */\ntag_109:\n    /* \"#utility.yul\":15542:15550   */\n  0x00\n    /* \"#utility.yul\":15592:15597   */\n  dup3\n    /* \"#utility.yul\":15586:15590   */\n  dup3\n    /* \"#utility.yul\":15582:15598   */\n  shl\n    /* \"#utility.yul\":15561:15598   */\n  swap1\n  pop\n    /* \"#utility.yul\":15498:15605   */\n  swap3\n  swap2\n  pop\n  pop\n  jump\t// out\n    /* \"#utility.yul\":15611:16004   */\ntag_110:\n    /* \"#utility.yul\":15680:15686   */\n  0x00\n    /* \"#utility.yul\":15730:15731   */\n  0x08\n    /* \"#utility.yul\":15718:15728   */\n  dup4\n    /* \"#utility.yul\":15714:15732   */\n  mul\n    /* \"#utility.yul\":15753:15850   */\n  tag_260\n    /* \"#utility.yul\":15783:15849   */\n  0xffffffffffffffffffffffffffffffffffffffffffffffffffffffffffffffff\n    /* \"#utility.yul\":15772:15781   */\n  dup3\n    /* \"#utility.yul\":15753:15850   */\n  tag_109\n  jump\t// in\ntag_260:\n    /* \"#utility.yul\":15871:15910   */\n  tag_261\n    /* \"#utility.yul\":15901:15909   */\n  dup7\n    /* \"#utility.yul\":15890:15899   */\n  dup4\n    /* \"#utility.yul\":15871:15910   */\n  tag_109\n  jump\t// in\ntag_261:\n    /* \"#utility.yul\":15859:15910   */\n  swap6\n  pop\n    /* \"#utility.yul\":15943:15947   */\n  dup1\n    /* \"#utility.yul\":15939:15948   */\n  not\n    /* \"#utility.yul\":15932:15937   */\n  dup5\n    /* \"#utility.yul\":15928:15949   */\n  and\n    /* \"#utility.yul\":15919:15949   */\n  swap4\n  pop\n    /* \"#utility.yul\":15992:15996   */\n  dup1\n    /* \"#utility.yul\":15982:15990   */\n  dup7\n    /* \"#utility.yul\":15978:15997   */\n  and\n    /* \"#utility.yul\":15971:15976   */\n  dup5\n    /* \"#utility.yul\":15968:15998   */\n  or\n    /* \"#utility.yul\":15958:15998   */\n  swap3\n  pop\n    /* \"#utility.yul\":15687:16004   */\n  pop\n  pop\n    /* \"#utility.yul\":15611:16004   */\n  swap4\n  swap3\n  pop\n  pop\n  pop\n  jump\t// out\n    /* \"#utility.yul\":16010:16070   */\ntag_111:\n    /* \"#utility.yul\":16038:16041   */\n  0x00\n    /* \"#utility.yul\":16059:16064   */\n  dup2\n    /* \"#utility.yul\":16052:16064   */\n  swap1\n  pop\n    /* \"#utility.yul\":16010:16070   */\n  swap2\n  swap1\n  pop\n  jump\t// out\n    /* \"#utility.yul\":16076:16218   */\ntag_112:\n    /* \"#utility.yul\":16126:16135   */\n  0x00\n    /* \"#utility.yul\":16159:16212   */\n  tag_264\n    /* \"#utility.yul\":16177:16211   */\n  tag_265\n    /* \"#utility.yul\":16186:16210   */\n  tag_266\n    /* \"#utility.yul\":16204:16209   */\n  dup5\n    /* \"#utility.yul\":16186:16210   */\n  tag_79\n  jump\t// in\ntag_266:\n    /* \"#utility.yul\":16177:16211   */\n  tag_111\n  jump\t// in\ntag_265:\n    /* \"#utility.yul\":16159:16212   */\n  tag_79\n  jump\t// in\ntag_264:\n    /* \"#utility.yul\":16146:16212   */\n  swap1\n  pop\n    /* \"#utility.yul\":16076:16218   */\n  swap2\n  swap1\n  pop\n  jump\t// out\n    /* \"#utility.yul\":16224:16299   */\ntag_113:\n    /* \"#utility.yul\":16267:16270   */\n  0x00\n    /* \"#utility.yul\":16288:16293   */\n  dup2\n    /* \"#utility.yul\":16281:16293   */\n  swap1\n  pop\n    /* \"#utility.yul\":16224:16299   */\n  swap2\n  swap1\n  pop\n  jump\t// out\n    /* \"#utility.yul\":16305:16574   */\ntag_114:\n    /* \"#utility.yul\":16415:16454   */\n  tag_269\n    /* \"#utility.yul\":16446:16453   */\n  dup4\n    /* \"#utility.yul\":16415:16454   */\n  tag_112\n  jump\t// in\ntag_269:\n    /* \"#utility.yul\":16476:16567   */\n  tag_270\n    /* \"#utility.yul\":16525:16566   */\n  tag_271\n    /* \"#utility.yul\":16549:16565   */\n  dup3\n    /* \"#utility.yul\":16525:16566   */\n  tag_113\n  jump\t// in\ntag_271:\n    /* \"#utility.yul\":16517:16523   */\n  dup5\n    /* \"#utility.yul\":16510:16514   */\n  dup5\n    /* \"#utility.yul\":16504:16515   */\n  sload\n    /* \"#utility.yul\":16476:16567   */\n  tag_110\n  jump\t// in\ntag_270:\n    /* \"#utility.yul\":16470:16474   */\n  dup3\n    /* \"#utility.yul\":16463:16568   */\n  sstore\n    /* \"#utility.yul\":16381:16574   */\n  pop\n    /* \"#utility.yul\":16305:16574   */\n  pop\n  pop\n  pop\n  jump\t// out\n    /* \"#utility.yul\":16580:16653   */\ntag_115:\n    /* \"#utility.yul\":16625:16628   */\n  0x00\n    /* \"#utility.yul\":16580:16653   */\n  swap1\n  jump\t// out\n    /* \"#utility.yul\":16659:16848   */\ntag_116:\n    /* \"#utility.yul\":16736:16768   */\n  tag_274\n  tag_115\n  jump\t// in\ntag_274:\n    /* \"#utility.yul\":16777:16842   */\n  tag_275\n    /* \"#utility.yul\":16835:16841   */\n  dup2\n    /* \"#utility.yul\":16827:16833   */\n  dup5\n    /* \"#utility.yul\":16821:16825   */\n  dup5\n    /* \"#utility.yul\":16777:16842   */\n  tag_114\n  jump\t// in\ntag_275:\n    /* \"#utility.yul\":16712:16848   */\n  pop\n    /* \"#utility.yul\":16659:16848   */\n  pop\n  pop\n  jump\t// out\n    /* \"#utility.yul\":16854:17040   */\ntag_117:\n    /* \"#utility.yul\":16914:17034   */\ntag_277:\n    /* \"#utility.yul\":16931:16934   */\n  dup2\n    /* \"#utility.yul\":16924:16929   */\n  dup2\n    /* \"#utility.yul\":16921:16935   */\n  lt\n    /* \"#utility.yul\":16914:17034   */\n  iszero\n  tag_279\n  jumpi\n    /* \"#utility.yul\":16985:17024   */\n  tag_280\n    /* \"#utility.yul\":17022:17023   */\n  0x00\n    /* \"#utility.yul\":17015:17020   */\n  dup3\n    /* \"#utility.yul\":16985:17024   */\n  tag_116\n  jump\t// in\ntag_280:\n    /* \"#utility.yul\":16958:16959   */\n  0x01\n    /* \"#utility.yul\":16951:16956   */\n  dup2\n    /* \"#utility.yul\":16947:16960   */\n  add\n    /* \"#utility.yul\":16938:16960   */\n  swap1\n  pop\n    /* \"#utility.yul\":16914:17034   */\n  jump(tag_277)\ntag_279:\n    /* \"#utility.yul\":16854:17040   */\n  pop\n  pop\n  jump\t// out\n    /* \"#utility.yul\":17046:17589   */\ntag_118:\n    /* \"#utility.yul\":17147:17149   */\n  0x1f\n    /* \"#utility.yul\":17142:17145   */\n  dup3\n    /* \"#utility.yul\":17139:17150   */\n  gt\n    /* \"#utility.yul\":17136:17582   */\n  iszero\n  tag_282\n  jumpi\n    /* \"#utility.yul\":17181:17219   */\n  tag_283\n    /* \"#utility.yul\":17213:17218   */\n  dup2\n    /* \"#utility.yul\":17181:17219   */\n  tag_107\n  jump\t// in\ntag_283:\n    /* \"#utility.yul\":17265:17294   */\n  tag_284\n    /* \"#utility.yul\":17283:17293   */\n  dup5\n    /* \"#utility.yul\":17265:17294   */\n  tag_108\n  jump\t// in\ntag_284:\n    /* \"#utility.yul\":17255:17263   */\n  dup2\n    /* \"#utility.yul\":17251:17295   */\n  add\n    /* \"#utility.yul\":17448:17450   */\n  0x20\n    /* \"#utility.yul\":17436:17446   */\n  dup6\n    /* \"#utility.yul\":17433:17451   */\n  lt\n    /* \"#utility.yul\":17430:17479   */\n  iszero\n  tag_285\n  jumpi\n    /* \"#utility.yul\":17469:17477   */\n  dup2\n    /* \"#utility.yul\":17454:17477   */\n  swap1\n  pop\n    /* \"#utility.yul\":17430:17479   */\ntag_285:\n    /* \"#utility.yul\":17492:17572   */\n  tag_286\n    /* \"#utility.yul\":17548:17570   */\n  tag_287\n    /* \"#utility.yul\":17566:17569   */\n  dup6\n    /* \"#utility.yul\":17548:17570   */\n  tag_108\n  jump\t// in\ntag_287:\n    /* \"#utility.yul\":17538:17546   */\n  dup4\n    /* \"#utility.yul\":17534:17571   */\n  add\n    /* \"#utility.yul\":17521:17532   */\n  dup3\n    /* \"#utility.yul\":17492:17572   */\n  tag_117\n  jump\t// in\ntag_286:\n    /* \"#utility.yul\":17151:17582   */\n  pop\n  pop\n    /* \"#utility.yul\":17136:17582   */\ntag_282:\n    /* \"#utility.yul\":17046:17589   */\n  pop\n  pop\n  pop\n  jump\t// out\n    /* \"#utility.yul\":17595:17712   */\ntag_119:\n    /* \"#utility.yul\":17649:17657   */\n  0x00\n    /* \"#utility.yul\":17699:17704   */\n  dup3\n    /* \"#utility.yul\":17693:17697   */\n  dup3\n    /* \"#utility.yul\":17689:17705   */\n  shr\n    /* \"#utility.yul\":17668:17705   */\n  swap1\n  pop\n    /* \"#utility.yul\":17595:17712   */\n  swap3\n  swap2\n  pop\n  pop\n  jump\t// out\n    /* \"#utility.yul\":17718:17887   */\ntag_120:\n    /* \"#utility.yul\":17762:17768   */\n  0x00\n    /* \"#utility.yul\":17795:17846   */\n  tag_290\n    /* \"#utility.yul\":17843:17844   */\n  0x00\n    /* \"#utility.yul\":17839:17845   */\n  not\n    /* \"#utility.yul\":17831:17836   */\n  dup5\n    /* \"#utility.yul\":17828:17829   */\n  0x08\n    /* \"#utility.yul\":17824:17837   */\n  mul\n    /* \"#utility.yul\":17795:17846   */\n  tag_119\n  jump\t// in\ntag_290:\n    /* \"#utility.yul\":17791:17847   */\n  not\n    /* \"#utility.yul\":17876:17880   */\n  dup1\n    /* \"#utility.yul\":17870:17874   */\n  dup4\n    /* \"#utility.yul\":17866:17881   */\n  and\n    /* \"#utility.yul\":17856:17881   */\n  swap2\n  pop\n    /* \"#utility.yul\":17769:17887   */\n  pop\n    /* \"#utility.yul\":17718:17887   */\n  swap3\n  swap2\n  pop\n  pop\n  jump\t// out\n    /* \"#utility.yul\":17892:18187   */\ntag_121:\n    /* \"#utility.yul\":17968:17972   */\n  0x00\n    /* \"#utility.yul\":18114:18143   */\n  tag_292\n    /* \"#utility.yul\":18139:18142   */\n  dup4\n    /* \"#utility.yul\":18133:18137   */\n  dup4\n    /* \"#utility.yul\":18114:18143   */\n  tag_120\n  jump\t// in\ntag_292:\n    /* \"#utility.yul\":18106:18143   */\n  swap2\n  pop\n    /* \"#utility.yul\":18176:18179   */\n  dup3\n    /* \"#utility.yul\":18173:18174   */\n  0x02\n    /* \"#utility.yul\":18169:18180   */\n  mul\n    /* \"#utility.yul\":18163:18167   */\n  dup3\n    /* \"#utility.yul\":18160:18181   */\n  or\n    /* \"#utility.yul\":18152:18181   */\n  swap1\n  pop\n    /* \"#utility.yul\":17892:18187   */\n  swap3\n  swap2\n  pop\n  pop\n  jump\t// out\n    /* \"#utility.yul\":18192:19587   */\ntag_28:\n    /* \"#utility.yul\":18309:18346   */\n  tag_294\n    /* \"#utility.yul\":18342:18345   */\n  dup3\n    /* \"#utility.yul\":18309:18346   */\n  tag_105\n  jump\t// in\ntag_294:\n    /* \"#utility.yul\":18411:18429   */\n  0xffffffffffffffff\n    /* \"#utility.yul\":18403:18409   */\n  dup2\n    /* \"#utility.yul\":18400:18430   */\n  gt\n    /* \"#utility.yul\":18397:18453   */\n  iszero\n  tag_295\n  jumpi\n    /* \"#utility.yul\":18433:18451   */\n  tag_296\n  tag_33\n  jump\t// in\ntag_296:\n    /* \"#utility.yul\":18397:18453   */\ntag_295:\n    /* \"#utility.yul\":18477:18515   */\n  tag_297\n    /* \"#utility.yul\":18509:18513   */\n  dup3\n    /* \"#utility.yul\":18503:18514   */\n  sload\n    /* \"#utility.yul\":18477:18515   */\n  tag_60\n  jump\t// in\ntag_297:\n    /* \"#utility.yul\":18562:18629   */\n  tag_298\n    /* \"#utility.yul\":18622:18628   */\n  dup3\n    /* \"#utility.yul\":18614:18620   */\n  dup3\n    /* \"#utility.yul\":18608:18612   */\n  dup6\n    /* \"#utility.yul\":18562:18629   */\n  tag_118\n  jump\t// in\ntag_298:\n    /* \"#utility.yul\":18656:18657   */\n  0x00\n    /* \"#utility.yul\":18680:18684   */\n  0x20\n    /* \"#utility.yul\":18667:18684   */\n  swap1\n  pop\n    /* \"#utility.yul\":18712:18714   */\n  0x1f\n    /* \"#utility.yul\":18704:18710   */\n  dup4\n    /* \"#utility.yul\":18701:18715   */\n  gt\n    /* \"#utility.yul\":18729:18730   */\n  0x01\n    /* \"#utility.yul\":18724:19342   */\n  dup2\n  eq\n  tag_300\n  jumpi\n    /* \"#utility.yul\":19386:19387   */\n  0x00\n    /* \"#utility.yul\":19403:19409   */\n  dup5\n    /* \"#utility.yul\":19400:19477   */\n  iszero\n  tag_301\n  jumpi\n    /* \"#utility.yul\":19452:19461   */\n  dup3\n    /* \"#utility.yul\":19447:19450   */\n  dup8\n    /* \"#utility.yul\":19443:19462   */\n  add\n    /* \"#utility.yul\":19437:19463   */\n  mload\n    /* \"#utility.yul\":19428:19463   */\n  swap1\n  pop\n    /* \"#utility.yul\":19400:19477   */\ntag_301:\n    /* \"#utility.yul\":19503:19570   */\n  tag_302\n    /* \"#utility.yul\":19563:19569   */\n  dup6\n    /* \"#utility.yul\":19556:19561   */\n  dup3\n    /* \"#utility.yul\":19503:19570   */\n  tag_121\n  jump\t// in\ntag_302:\n    /* \"#utility.yul\":19497:19501   */\n  dup7\n    /* \"#utility.yul\":19490:19571   */\n  sstore\n    /* \"#utility.yul\":19359:19581   */\n  pop\n    /* \"#utility.yul\":18694:19581   */\n  jump(tag_299)\n    /* \"#utility.yul\":18724:19342   */\ntag_300:\n    /* \"#utility.yul\":18776:18780   */\n  0x1f\n    /* \"#utility.yul\":18772:18781   */\n  not\n    /* \"#utility.yul\":18764:18770   */\n  dup5\n    /* \"#utility.yul\":18760:18782   */\n  and\n    /* \"#utility.yul\":18810:18847   */\n  tag_303\n    /* \"#utility.yul\":18842:18846   */\n  dup7\n    /* \"#utility.yul\":18810:18847   */\n  tag_107\n  jump\t// in\ntag_303:\n    /* \"#utility.yul\":18869:18870   */\n  0x00\n    /* \"#utility.yul\":18883:19091   */\ntag_304:\n    /* \"#utility.yul\":18897:18904   */\n  dup3\n    /* \"#utility.yul\":18894:18895   */\n  dup2\n    /* \"#utility.yul\":18891:18905   */\n  lt\n    /* \"#utility.yul\":18883:19091   */\n  iszero\n  tag_306\n  jumpi\n    /* \"#utility.yul\":18976:18985   */\n  dup5\n    /* \"#utility.yul\":18971:18974   */\n  dup10\n    /* \"#utility.yul\":18967:18986   */\n  add\n    /* \"#utility.yul\":18961:18987   */\n  mload\n    /* \"#utility.yul\":18953:18959   */\n  dup3\n    /* \"#utility.yul\":18946:18988   */\n  sstore\n    /* \"#utility.yul\":19027:19028   */\n  0x01\n    /* \"#utility.yul\":19019:19025   */\n  dup3\n    /* \"#utility.yul\":19015:19029   */\n  add\n    /* \"#utility.yul\":19005:19029   */\n  swap2\n  pop\n    /* \"#utility.yul\":19074:19076   */\n  0x20\n    /* \"#utility.yul\":19063:19072   */\n  dup6\n    /* \"#utility.yul\":19059:19077   */\n  add\n    /* \"#utility.yul\":19046:19077   */\n  swap5\n  pop\n    /* \"#utility.yul\":18920:18924   */\n  0x20\n    /* \"#utility.yul\":18917:18918   */\n  dup2\n    /* \"#utility.yul\":18913:18925   */\n  add\n    /* \"#utility.yul\":18908:18925   */\n  swap1\n  pop\n    /* \"#utility.yul\":18883:19091   */\n  jump(tag_304)\ntag_306:\n    /* \"#utility.yul\":19119:19125   */\n  dup7\n    /* \"#utility.yul\":19110:19117   */\n  dup4\n    /* \"#utility.yul\":19107:19126   */\n  lt\n    /* \"#utility.yul\":19104:19283   */\n  iszero\n  tag_307\n  jumpi\n    /* \"#utility.yul\":19177:19186   */\n  dup5\n    /* \"#utility.yul\":19172:19175   */\n  dup10\n    /* \"#utility.yul\":19168:19187   */\n  add\n    /* \"#utility.yul\":19162:19188   */\n  mload\n    /* \"#utility.yul\":19220:19268   */\n  tag_308\n    /* \"#utility.yul\":19262:19266   */\n  0x1f\n    /* \"#utility.yul\":19254:19260   */\n  dup10\n    /* \"#utility.yul\":19250:19267   */\n  and\n    /* \"#utility.yul\":19239:19248   */\n  dup3\n    /* \"#utility.yul\":19220:19268   */\n  tag_120\n  jump\t// in\ntag_308:\n    /* \"#utility.yul\":19212:19218   */\n  dup4\n    /* \"#utility.yul\":19205:19269   */\n  sstore\n    /* \"#utility.yul\":19127:19283   */\n  pop\n    /* \"#utility.yul\":19104:19283   */\ntag_307:\n    /* \"#utility.yul\":19329:19330   */\n  0x01\n    /* \"#utility.yul\":19325:19326   */\n  0x02\n    /* \"#utility.yul\":19317:19323   */\n  dup9\n    /* \"#utility.yul\":19313:19327   */\n  mul\n    /* \"#utility.yul\":19309:19331   */\n  add\n    /* \"#utility.yul\":19303:19307   */\n  dup9\n    /* \"#utility.yul\":19296:19332   */\n  sstore\n    /* \"#utility.yul\":18731:19342   */\n  pop\n  pop\n  pop\n    /* \"#utility.yul\":18694:19581   */\ntag_299:\n  pop\n    /* \"#utility.yul\":18284:19587   */\n  pop\n  pop\n  pop\n    /* \"#utility.yul\":18192:19587   */\n  pop\n  pop\n  jump\t// out\n    /* \"#utility.yul\":19593:19773   */\ntag_43:\n    /* \"#utility.yul\":19641:19718   */\n  0x4e487b7100000000000000000000000000000000000000000000000000000000\n    /* \"#utility.yul\":19638:19639   */\n  0x00\n    /* \"#utility.yul\":19631:19719   */\n  mstore\n    /* \"#utility.yul\":19738:19742   */\n  0x32\n    /* \"#utility.yul\":19735:19736   */\n  0x04\n    /* \"#utility.yul\":19728:19743   */\n  mstore\n    /* \"#utility.yul\":19762:19766   */\n  0x24\n    /* \"#utility.yul\":19759:19760   */\n  0x00\n    /* \"#utility.yul\":19752:19767   */\n  revert\n    /* \"contracts/FlintPublicEvent.sol\":61:4503  contract PublicEvent {... */\ntag_48:\n  dataSize(sub_0)\n  dup1\n  dataOffset(sub_0)\n  0x00\n  codecopy\n  0x00\n  return\nstop\n\nsub_0: assembly {\n        /* \"contracts/FlintPublicEvent.sol\":61:4503  contract PublicEvent {... */\n      mstore(0x40, 0x80)\n      callvalue\n      dup1\n      iszero\n      tag_1\n      jumpi\n      0x00\n      dup1\n      revert\n    tag_1:\n      pop\n      jumpi(tag_2, lt(calldatasize, 0x04))\n      shr(0xe0, calldataload(0x00))\n      dup1\n      0x7284e416\n      gt\n      tag_27\n      jumpi\n      dup1\n      0xcb510e97\n      gt\n      tag_28\n      jumpi\n      dup1\n      0xcb510e97\n      eq\n      tag_21\n      jumpi\n      dup1\n      0xcf09e0d0\n      eq\n      tag_22\n      jumpi\n      dup1\n      0xe55448fc\n      eq\n      tag_23\n      jumpi\n      dup1\n      0xf57e63e2\n      eq\n      tag_24\n      jumpi\n      dup1\n      0xf9010d19\n      eq\n      tag_25\n      jumpi\n      dup1\n      0xfb6c9537\n      eq\n      tag_26\n      jumpi\n      jump(tag_2)\n    tag_28:\n      dup1\n      0x7284e416\n      eq\n      tag_15\n      jumpi\n      dup1\n      0x86ec6177\n      eq\n      tag_16\n      jumpi\n      dup1\n      0x8da5cb5b\n      eq\n      tag_17\n      jumpi\n      dup1\n      0x995d9ab7\n      eq\n      tag_18\n      jumpi\n      dup1\n      0xaf468682\n      eq\n      tag_19\n      jumpi\n      dup1\n      0xc4522c92\n      eq\n      tag_20\n      jumpi\n      jump(tag_2)\n    tag_27:\n      dup1\n      0x516f279e\n      gt\n      tag_29\n      jumpi\n      dup1\n      0x516f279e\n      eq\n      tag_9\n      jumpi\n      dup1\n      0x522e4c8a\n      eq\n      tag_10\n      jumpi\n      dup1\n      0x5631a5cb\n      eq\n      tag_11\n      jumpi\n      dup1\n      0x5f3d7fa1\n      eq\n      tag_12\n      jumpi\n      dup1\n      0x61f8506d\n      eq\n      tag_13\n      jumpi\n      dup1\n      0x6cad2590\n      eq\n      tag_14\n      jumpi\n      jump(tag_2)\n    tag_29:\n      dup1\n      0x0a09284a\n      eq\n      tag_3\n      jumpi\n      dup1\n      0x10246254\n      eq\n      tag_4\n      jumpi\n      dup1\n      0x148b597c\n      eq\n      tag_5\n      jumpi\n      dup1\n      0x20822abc\n      eq\n      tag_6\n      jumpi\n      dup1\n      0x405fbab5\n      eq\n      tag_7\n      jumpi\n      dup1\n      0x4a79d50c\n      eq\n      tag_8\n      jumpi\n    tag_2:\n      0x00\n      dup1\n      revert\n        /* \"contracts/FlintPublicEvent.sol\":325:346  uint256 public endsAt */\n    tag_3:\n      tag_30\n      tag_31\n      jump\t// in\n    tag_30:\n      mload(0x40)\n      tag_32\n      swap2\n      swap1\n      tag_33\n      jump\t// in\n    tag_32:\n      mload(0x40)\n      dup1\n      swap2\n      sub\n      swap1\n      return\n        /* \"contracts/FlintPublicEvent.sol\":2940:3220  function addAttendee(address _attendee) external onlyStaff {... */\n    tag_4:\n      tag_34\n      0x04\n      dup1\n      calldatasize\n      sub\n      dup2\n      add\n      swap1\n      tag_35\n      swap2\n      swap1\n      tag_36\n      jump\t// in\n    tag_35:\n      tag_37\n      jump\t// in\n    tag_34:\n      stop\n        /* \"contracts/FlintPublicEvent.sol\":426:459  bool public eventCanceled = false */\n    tag_5:\n      tag_38\n      tag_39\n      jump\t// in\n    tag_38:\n      mload(0x40)\n      tag_40\n      swap2\n      swap1\n      tag_41\n      jump\t// in\n    tag_40:\n      mload(0x40)\n      dup1\n      swap2\n      sub\n      swap1\n      return\n        /* \"contracts/FlintPublicEvent.sol\":237:257  string[] public tags */\n    tag_6:\n      tag_42\n      0x04\n      dup1\n      calldatasize\n      sub\n      dup2\n      add\n      swap1\n      tag_43\n      swap2\n      swap1\n      tag_44\n      jump\t// in\n    tag_43:\n      tag_45\n      jump\t// in\n    tag_42:\n      mload(0x40)\n      tag_46\n      swap2\n      swap1\n      tag_47\n      jump\t// in\n    tag_46:\n      mload(0x40)\n      dup1\n      swap2\n      sub\n      swap1\n      return\n        /* \"contracts/FlintPublicEvent.sol\":4289:4403  function checkAttendee(address _joiner) external view returns (bool) {... */\n    tag_7:\n      tag_48\n      0x04\n      dup1\n      calldatasize\n      sub\n      dup2\n      add\n      swap1\n      tag_49\n      swap2\n      swap1\n      tag_36\n      jump\t// in\n    tag_49:\n      tag_50\n      jump\t// in\n    tag_48:\n      mload(0x40)\n      tag_51\n      swap2\n      swap1\n      tag_41\n      jump\t// in\n    tag_51:\n      mload(0x40)\n      dup1\n      swap2\n      sub\n      swap1\n      return\n        /* \"contracts/FlintPublicEvent.sol\":89:108  string public title */\n    tag_8:\n      tag_52\n      tag_53\n      jump\t// in\n    tag_52:\n      mload(0x40)\n      tag_54\n      swap2\n      swap1\n      tag_47\n      jump\t// in\n    tag_54:\n      mload(0x40)\n      dup1\n      swap2\n      sub\n      swap1\n      return\n        /* \"contracts/FlintPublicEvent.sol\":115:137  string public location */\n    tag_9:\n      tag_55\n      tag_56\n      jump\t// in\n    tag_55:\n      mload(0x40)\n      tag_57\n      swap2\n      swap1\n      tag_47\n      jump\t// in\n    tag_57:\n      mload(0x40)\n      dup1\n      swap2\n      sub\n      swap1\n      return\n        /* \"contracts/FlintPublicEvent.sol\":4027:4127  function addStaff(address _newStaff) external onlyOwner {... */\n    tag_10:\n      tag_58\n      0x04\n      dup1\n      calldatasize\n      sub\n      dup2\n      add\n      swap1\n      tag_59\n      swap2\n      swap1\n      tag_36\n      jump\t// in\n    tag_59:\n      tag_60\n      jump\t// in\n    tag_58:\n      stop\n        /* \"contracts/FlintPublicEvent.sol\":2579:2844  function leaveEvent() external onlyBeforeEventStarts {... */\n    tag_11:\n      tag_61\n      tag_62\n      jump\t// in\n    tag_61:\n      stop\n        /* \"contracts/FlintPublicEvent.sol\":144:171  uint256 public maxAttendees */\n    tag_12:\n      tag_63\n      tag_64\n      jump\t// in\n    tag_63:\n      mload(0x40)\n      tag_65\n      swap2\n      swap1\n      tag_33\n      jump\t// in\n    tag_65:\n      mload(0x40)\n      dup1\n      swap2\n      sub\n      swap1\n      return\n        /* \"contracts/FlintPublicEvent.sol\":353:382  uint256 public attendeesCount */\n    tag_13:\n      tag_66\n      tag_67\n      jump\t// in\n    tag_66:\n      mload(0x40)\n      tag_68\n      swap2\n      swap1\n      tag_33\n      jump\t// in\n    tag_68:\n      mload(0x40)\n      dup1\n      swap2\n      sub\n      swap1\n      return\n        /* \"contracts/FlintPublicEvent.sol\":468:510  mapping(address => bool) public isAttendee */\n    tag_14:\n      tag_69\n      0x04\n      dup1\n      calldatasize\n      sub\n      dup2\n      add\n      swap1\n      tag_70\n      swap2\n      swap1\n      tag_36\n      jump\t// in\n    tag_70:\n      tag_71\n      jump\t// in\n    tag_69:\n      mload(0x40)\n      tag_72\n      swap2\n      swap1\n      tag_41\n      jump\t// in\n    tag_72:\n      mload(0x40)\n      dup1\n      swap2\n      sub\n      swap1\n      return\n        /* \"contracts/FlintPublicEvent.sol\":205:230  string public description */\n    tag_15:\n      tag_73\n      tag_74\n      jump\t// in\n    tag_73:\n      mload(0x40)\n      tag_75\n      swap2\n      swap1\n      tag_47\n      jump\t// in\n    tag_75:\n      mload(0x40)\n      dup1\n      swap2\n      sub\n      swap1\n      return\n        /* \"contracts/FlintPublicEvent.sol\":3498:3704  function endEvent() external onlyStaff {... */\n    tag_16:\n      tag_76\n      tag_77\n      jump\t// in\n    tag_76:\n      stop\n        /* \"contracts/FlintPublicEvent.sol\":178:198  address public owner */\n    tag_17:\n      tag_78\n      tag_79\n      jump\t// in\n    tag_78:\n      mload(0x40)\n      tag_80\n      swap2\n      swap1\n      tag_81\n      jump\t// in\n    tag_80:\n      mload(0x40)\n      dup1\n      swap2\n      sub\n      swap1\n      return\n        /* \"contracts/FlintPublicEvent.sol\":4411:4500  function getTags() external view returns (string[] memory) {... */\n    tag_18:\n      tag_82\n      tag_83\n      jump\t// in\n    tag_82:\n      mload(0x40)\n      tag_84\n      swap2\n      swap1\n      tag_85\n      jump\t// in\n    tag_84:\n      mload(0x40)\n      dup1\n      swap2\n      sub\n      swap1\n      return\n        /* \"contracts/FlintPublicEvent.sol\":295:318  uint256 public startsAt */\n    tag_19:\n      tag_86\n      tag_87\n      jump\t// in\n    tag_86:\n      mload(0x40)\n      tag_88\n      swap2\n      swap1\n      tag_33\n      jump\t// in\n    tag_88:\n      mload(0x40)\n      dup1\n      swap2\n      sub\n      swap1\n      return\n        /* \"contracts/FlintPublicEvent.sol\":4135:4233  function removeStaff(address _staff) external onlyOwner {... */\n    tag_20:\n      tag_89\n      0x04\n      dup1\n      calldatasize\n      sub\n      dup2\n      add\n      swap1\n      tag_90\n      swap2\n      swap1\n      tag_36\n      jump\t// in\n    tag_90:\n      tag_91\n      jump\t// in\n    tag_89:\n      stop\n        /* \"contracts/FlintPublicEvent.sol\":517:556  mapping(address => bool) public isStaff */\n    tag_21:\n      tag_92\n      0x04\n      dup1\n      calldatasize\n      sub\n      dup2\n      add\n      swap1\n      tag_93\n      swap2\n      swap1\n      tag_36\n      jump\t// in\n    tag_93:\n      tag_94\n      jump\t// in\n    tag_92:\n      mload(0x40)\n      tag_95\n      swap2\n      swap1\n      tag_41\n      jump\t// in\n    tag_95:\n      mload(0x40)\n      dup1\n      swap2\n      sub\n      swap1\n      return\n        /* \"contracts/FlintPublicEvent.sol\":264:288  uint256 public createdAt */\n    tag_22:\n      tag_96\n      tag_97\n      jump\t// in\n    tag_96:\n      mload(0x40)\n      tag_98\n      swap2\n      swap1\n      tag_33\n      jump\t// in\n    tag_98:\n      mload(0x40)\n      dup1\n      swap2\n      sub\n      swap1\n      return\n        /* \"contracts/FlintPublicEvent.sol\":3228:3490  function removeAttendee(address _attendee) external onlyStaff {... */\n    tag_23:\n      tag_99\n      0x04\n      dup1\n      calldatasize\n      sub\n      dup2\n      add\n      swap1\n      tag_100\n      swap2\n      swap1\n      tag_36\n      jump\t// in\n    tag_100:\n      tag_101\n      jump\t// in\n    tag_99:\n      stop\n        /* \"contracts/FlintPublicEvent.sol\":389:419  bool public eventEnded = false */\n    tag_24:\n      tag_102\n      tag_103\n      jump\t// in\n    tag_102:\n      mload(0x40)\n      tag_104\n      swap2\n      swap1\n      tag_41\n      jump\t// in\n    tag_104:\n      mload(0x40)\n      dup1\n      swap2\n      sub\n      swap1\n      return\n        /* \"contracts/FlintPublicEvent.sol\":2302:2571  function joinEvent() external onlyBeforeEventStarts {... */\n    tag_25:\n      tag_105\n      tag_106\n      jump\t// in\n    tag_105:\n      stop\n        /* \"contracts/FlintPublicEvent.sol\":3712:3927  function cancelEvent() external onlyStaff {... */\n    tag_26:\n      tag_107\n      tag_108\n      jump\t// in\n    tag_107:\n      stop\n        /* \"contracts/FlintPublicEvent.sol\":325:346  uint256 public endsAt */\n    tag_31:\n      sload(0x08)\n      dup2\n      jump\t// out\n        /* \"contracts/FlintPublicEvent.sol\":2940:3220  function addAttendee(address _attendee) external onlyStaff {... */\n    tag_37:\n        /* \"contracts/FlintPublicEvent.sol\":807:812  owner */\n      0x03\n      0x00\n      swap1\n      sload\n      swap1\n      0x0100\n      exp\n      swap1\n      div\n      0xffffffffffffffffffffffffffffffffffffffff\n      and\n        /* \"contracts/FlintPublicEvent.sol\":793:812  msg.sender == owner */\n      0xffffffffffffffffffffffffffffffffffffffff\n      and\n        /* \"contracts/FlintPublicEvent.sol\":793:803  msg.sender */\n      caller\n        /* \"contracts/FlintPublicEvent.sol\":793:812  msg.sender == owner */\n      0xffffffffffffffffffffffffffffffffffffffff\n      and\n      eq\n        /* \"contracts/FlintPublicEvent.sol\":793:835  msg.sender == owner || isStaff[msg.sender] */\n      dup1\n      tag_110\n      jumpi\n      pop\n        /* \"contracts/FlintPublicEvent.sol\":816:823  isStaff */\n      0x0c\n        /* \"contracts/FlintPublicEvent.sol\":816:835  isStaff[msg.sender] */\n      0x00\n        /* \"contracts/FlintPublicEvent.sol\":824:834  msg.sender */\n      caller\n        /* \"contracts/FlintPublicEvent.sol\":816:835  isStaff[msg.sender] */\n      0xffffffffffffffffffffffffffffffffffffffff\n      and\n      0xffffffffffffffffffffffffffffffffffffffff\n      and\n      dup2\n      mstore\n      0x20\n      add\n      swap1\n      dup2\n      mstore\n      0x20\n      add\n      0x00\n      keccak256\n      0x00\n      swap1\n      sload\n      swap1\n      0x0100\n      exp\n      swap1\n      div\n      0xff\n      and\n        /* \"contracts/FlintPublicEvent.sol\":793:835  msg.sender == owner || isStaff[msg.sender] */\n    tag_110:\n        /* \"contracts/FlintPublicEvent.sol\":785:856  require(msg.sender == owner || isStaff[msg.sender], \"You're not staff\") */\n      tag_111\n      jumpi\n      mload(0x40)\n      0x08c379a000000000000000000000000000000000000000000000000000000000\n      dup2\n      mstore\n      0x04\n      add\n      tag_112\n      swap1\n      tag_113\n      jump\t// in\n    tag_112:\n      mload(0x40)\n      dup1\n      swap2\n      sub\n      swap1\n      revert\n    tag_111:\n        /* \"contracts/FlintPublicEvent.sol\":3019:3029  isAttendee */\n      0x0b\n        /* \"contracts/FlintPublicEvent.sol\":3019:3040  isAttendee[_attendee] */\n      0x00\n        /* \"contracts/FlintPublicEvent.sol\":3030:3039  _attendee */\n      dup3\n        /* \"contracts/FlintPublicEvent.sol\":3019:3040  isAttendee[_attendee] */\n      0xffffffffffffffffffffffffffffffffffffffff\n      and\n      0xffffffffffffffffffffffffffffffffffffffff\n      and\n      dup2\n      mstore\n      0x20\n      add\n      swap1\n      dup2\n      mstore\n      0x20\n      add\n      0x00\n      keccak256\n      0x00\n      swap1\n      sload\n      swap1\n      0x0100\n      exp\n      swap1\n      div\n      0xff\n      and\n        /* \"contracts/FlintPublicEvent.sol\":3018:3040  !isAttendee[_attendee] */\n      iszero\n        /* \"contracts/FlintPublicEvent.sol\":3010:3067  require(!isAttendee[_attendee], \"Attendee already added\") */\n      tag_115\n      jumpi\n      mload(0x40)\n      0x08c379a000000000000000000000000000000000000000000000000000000000\n      dup2\n      mstore\n      0x04\n      add\n      tag_116\n      swap1\n      tag_117\n      jump\t// in\n    tag_116:\n      mload(0x40)\n      dup1\n      swap2\n      sub\n      swap1\n      revert\n    tag_115:\n        /* \"contracts/FlintPublicEvent.sol\":3103:3115  maxAttendees */\n      sload(0x02)\n        /* \"contracts/FlintPublicEvent.sol\":3086:3100  attendeesCount */\n      sload(0x09)\n        /* \"contracts/FlintPublicEvent.sol\":3086:3115  attendeesCount < maxAttendees */\n      lt\n        /* \"contracts/FlintPublicEvent.sol\":3078:3133  require(attendeesCount < maxAttendees, \"Event is full\") */\n      tag_118\n      jumpi\n      mload(0x40)\n      0x08c379a000000000000000000000000000000000000000000000000000000000\n      dup2\n      mstore\n      0x04\n      add\n      tag_119\n      swap1\n      tag_120\n      jump\t// in\n    tag_119:\n      mload(0x40)\n      dup1\n      swap2\n      sub\n      swap1\n      revert\n    tag_118:\n        /* \"contracts/FlintPublicEvent.sol\":3172:3173  1 */\n      0x01\n        /* \"contracts/FlintPublicEvent.sol\":3154:3168  attendeesCount */\n      0x09\n      0x00\n        /* \"contracts/FlintPublicEvent.sol\":3154:3173  attendeesCount += 1 */\n      dup3\n      dup3\n      sload\n      tag_121\n      swap2\n      swap1\n      tag_122\n      jump\t// in\n    tag_121:\n      swap3\n      pop\n      pop\n      dup2\n      swap1\n      sstore\n      pop\n        /* \"contracts/FlintPublicEvent.sol\":3208:3212  true */\n      0x01\n        /* \"contracts/FlintPublicEvent.sol\":3184:3194  isAttendee */\n      0x0b\n        /* \"contracts/FlintPublicEvent.sol\":3184:3205  isAttendee[_attendee] */\n      0x00\n        /* \"contracts/FlintPublicEvent.sol\":3195:3204  _attendee */\n      dup4\n        /* \"contracts/FlintPublicEvent.sol\":3184:3205  isAttendee[_attendee] */\n      0xffffffffffffffffffffffffffffffffffffffff\n      and\n      0xffffffffffffffffffffffffffffffffffffffff\n      and\n      dup2\n      mstore\n      0x20\n      add\n      swap1\n      dup2\n      mstore\n      0x20\n      add\n      0x00\n      keccak256\n      0x00\n        /* \"contracts/FlintPublicEvent.sol\":3184:3212  isAttendee[_attendee] = true */\n      0x0100\n      exp\n      dup2\n      sload\n      dup2\n      0xff\n      mul\n      not\n      and\n      swap1\n      dup4\n      iszero\n      iszero\n      mul\n      or\n      swap1\n      sstore\n      pop\n        /* \"contracts/FlintPublicEvent.sol\":2940:3220  function addAttendee(address _attendee) external onlyStaff {... */\n      pop\n      jump\t// out\n        /* \"contracts/FlintPublicEvent.sol\":426:459  bool public eventCanceled = false */\n    tag_39:\n      0x0a\n      0x01\n      swap1\n      sload\n      swap1\n      0x0100\n      exp\n      swap1\n      div\n      0xff\n      and\n      dup2\n      jump\t// out\n        /* \"contracts/FlintPublicEvent.sol\":237:257  string[] public tags */\n    tag_45:\n      0x05\n      dup2\n      dup2\n      sload\n      dup2\n      lt\n      tag_123\n      jumpi\n      0x00\n      dup1\n      revert\n    tag_123:\n      swap1\n      0x00\n      mstore\n      keccak256(0x00, 0x20)\n      add\n      0x00\n      swap2\n      pop\n      swap1\n      pop\n      dup1\n      sload\n      tag_125\n      swap1\n      tag_126\n      jump\t// in\n    tag_125:\n      dup1\n      0x1f\n      add\n      0x20\n      dup1\n      swap2\n      div\n      mul\n      0x20\n      add\n      mload(0x40)\n      swap1\n      dup2\n      add\n      0x40\n      mstore\n      dup1\n      swap3\n      swap2\n      swap1\n      dup2\n      dup2\n      mstore\n      0x20\n      add\n      dup3\n      dup1\n      sload\n      tag_127\n      swap1\n      tag_126\n      jump\t// in\n    tag_127:\n      dup1\n      iszero\n      tag_128\n      jumpi\n      dup1\n      0x1f\n      lt\n      tag_129\n      jumpi\n      0x0100\n      dup1\n      dup4\n      sload\n      div\n      mul\n      dup4\n      mstore\n      swap2\n      0x20\n      add\n      swap2\n      jump(tag_128)\n    tag_129:\n      dup3\n      add\n      swap2\n      swap1\n      0x00\n      mstore\n      keccak256(0x00, 0x20)\n      swap1\n    tag_130:\n      dup2\n      sload\n      dup2\n      mstore\n      swap1\n      0x01\n      add\n      swap1\n      0x20\n      add\n      dup1\n      dup4\n      gt\n      tag_130\n      jumpi\n      dup3\n      swap1\n      sub\n      0x1f\n      and\n      dup3\n      add\n      swap2\n    tag_128:\n      pop\n      pop\n      pop\n      pop\n      pop\n      dup2\n      jump\t// out\n        /* \"contracts/FlintPublicEvent.sol\":4289:4403  function checkAttendee(address _joiner) external view returns (bool) {... */\n    tag_50:\n        /* \"contracts/FlintPublicEvent.sol\":4352:4356  bool */\n      0x00\n        /* \"contracts/FlintPublicEvent.sol\":4376:4386  isAttendee */\n      0x0b\n        /* \"contracts/FlintPublicEvent.sol\":4376:4395  isAttendee[_joiner] */\n      0x00\n        /* \"contracts/FlintPublicEvent.sol\":4387:4394  _joiner */\n      dup4\n        /* \"contracts/FlintPublicEvent.sol\":4376:4395  isAttendee[_joiner] */\n      0xffffffffffffffffffffffffffffffffffffffff\n      and\n      0xffffffffffffffffffffffffffffffffffffffff\n      and\n      dup2\n      mstore\n      0x20\n      add\n      swap1\n      dup2\n      mstore\n      0x20\n      add\n      0x00\n      keccak256\n      0x00\n      swap1\n      sload\n      swap1\n      0x0100\n      exp\n      swap1\n      div\n      0xff\n      and\n        /* \"contracts/FlintPublicEvent.sol\":4369:4395  return isAttendee[_joiner] */\n      swap1\n      pop\n        /* \"contracts/FlintPublicEvent.sol\":4289:4403  function checkAttendee(address _joiner) external view returns (bool) {... */\n      swap2\n      swap1\n      pop\n      jump\t// out\n        /* \"contracts/FlintPublicEvent.sol\":89:108  string public title */\n    tag_53:\n      0x00\n      dup1\n      sload\n      tag_132\n      swap1\n      tag_126\n      jump\t// in\n    tag_132:\n      dup1\n      0x1f\n      add\n      0x20\n      dup1\n      swap2\n      div\n      mul\n      0x20\n      add\n      mload(0x40)\n      swap1\n      dup2\n      add\n      0x40\n      mstore\n      dup1\n      swap3\n      swap2\n      swap1\n      dup2\n      dup2\n      mstore\n      0x20\n      add\n      dup3\n      dup1\n      sload\n      tag_133\n      swap1\n      tag_126\n      jump\t// in\n    tag_133:\n      dup1\n      iszero\n      tag_134\n      jumpi\n      dup1\n      0x1f\n      lt\n      tag_135\n      jumpi\n      0x0100\n      dup1\n      dup4\n      sload\n      div\n      mul\n      dup4\n      mstore\n      swap2\n      0x20\n      add\n      swap2\n      jump(tag_134)\n    tag_135:\n      dup3\n      add\n      swap2\n      swap1\n      0x00\n      mstore\n      keccak256(0x00, 0x20)\n      swap1\n    tag_136:\n      dup2\n      sload\n      dup2\n      mstore\n      swap1\n      0x01\n      add\n      swap1\n      0x20\n      add\n      dup1\n      dup4\n      gt\n      tag_136\n      jumpi\n      dup3\n      swap1\n      sub\n      0x1f\n      and\n      dup3\n      add\n      swap2\n    tag_134:\n      pop\n      pop\n      pop\n      pop\n      pop\n      dup2\n      jump\t// out\n        /* \"contracts/FlintPublicEvent.sol\":115:137  string public location */\n    tag_56:\n      0x01\n      dup1\n      sload\n      tag_137\n      swap1\n      tag_126\n      jump\t// in\n    tag_137:\n      dup1\n      0x1f\n      add\n      0x20\n      dup1\n      swap2\n      div\n      mul\n      0x20\n      add\n      mload(0x40)\n      swap1\n      dup2\n      add\n      0x40\n      mstore\n      dup1\n      swap3\n      swap2\n      swap1\n      dup2\n      dup2\n      mstore\n      0x20\n      add\n      dup3\n      dup1\n      sload\n      tag_138\n      swap1\n      tag_126\n      jump\t// in\n    tag_138:\n      dup1\n      iszero\n      tag_139\n      jumpi\n      dup1\n      0x1f\n      lt\n      tag_140\n      jumpi\n      0x0100\n      dup1\n      dup4\n      sload\n      div\n      mul\n      dup4\n      mstore\n      swap2\n      0x20\n      add\n      swap2\n      jump(tag_139)\n    tag_140:\n      dup3\n      add\n      swap2\n      swap1\n      0x00\n      mstore\n      keccak256(0x00, 0x20)\n      swap1\n    tag_141:\n      dup2\n      sload\n      dup2\n      mstore\n      swap1\n      0x01\n      add\n      swap1\n      0x20\n      add\n      dup1\n      dup4\n      gt\n      tag_141\n      jumpi\n      dup3\n      swap1\n      sub\n      0x1f\n      and\n      dup3\n      add\n      swap2\n    tag_139:\n      pop\n      pop\n      pop\n      pop\n      pop\n      dup2\n      jump\t// out\n        /* \"contracts/FlintPublicEvent.sol\":4027:4127  function addStaff(address _newStaff) external onlyOwner {... */\n    tag_60:\n        /* \"contracts/FlintPublicEvent.sol\":938:943  owner */\n      0x03\n      0x00\n      swap1\n      sload\n      swap1\n      0x0100\n      exp\n      swap1\n      div\n      0xffffffffffffffffffffffffffffffffffffffff\n      and\n        /* \"contracts/FlintPublicEvent.sol\":924:943  msg.sender == owner */\n      0xffffffffffffffffffffffffffffffffffffffff\n      and\n        /* \"contracts/FlintPublicEvent.sol\":924:934  msg.sender */\n      caller\n        /* \"contracts/FlintPublicEvent.sol\":924:943  msg.sender == owner */\n      0xffffffffffffffffffffffffffffffffffffffff\n      and\n      eq\n        /* \"contracts/FlintPublicEvent.sol\":916:957  require(msg.sender == owner, \"Not owner\") */\n      tag_143\n      jumpi\n      mload(0x40)\n      0x08c379a000000000000000000000000000000000000000000000000000000000\n      dup2\n      mstore\n      0x04\n      add\n      tag_144\n      swap1\n      tag_145\n      jump\t// in\n    tag_144:\n      mload(0x40)\n      dup1\n      swap2\n      sub\n      swap1\n      revert\n    tag_143:\n        /* \"contracts/FlintPublicEvent.sol\":4115:4119  true */\n      0x01\n        /* \"contracts/FlintPublicEvent.sol\":4094:4101  isStaff */\n      0x0c\n        /* \"contracts/FlintPublicEvent.sol\":4094:4112  isStaff[_newStaff] */\n      0x00\n        /* \"contracts/FlintPublicEvent.sol\":4102:4111  _newStaff */\n      dup4\n        /* \"contracts/FlintPublicEvent.sol\":4094:4112  isStaff[_newStaff] */\n      0xffffffffffffffffffffffffffffffffffffffff\n      and\n      0xffffffffffffffffffffffffffffffffffffffff\n      and\n      dup2\n      mstore\n      0x20\n      add\n      swap1\n      dup2\n      mstore\n      0x20\n      add\n      0x00\n      keccak256\n      0x00\n        /* \"contracts/FlintPublicEvent.sol\":4094:4119  isStaff[_newStaff] = true */\n      0x0100\n      exp\n      dup2\n      sload\n      dup2\n      0xff\n      mul\n      not\n      and\n      swap1\n      dup4\n      iszero\n      iszero\n      mul\n      or\n      swap1\n      sstore\n      pop\n        /* \"contracts/FlintPublicEvent.sol\":4027:4127  function addStaff(address _newStaff) external onlyOwner {... */\n      pop\n      jump\t// out\n        /* \"contracts/FlintPublicEvent.sol\":2579:2844  function leaveEvent() external onlyBeforeEventStarts {... */\n    tag_62:\n        /* \"contracts/FlintPublicEvent.sol\":635:643  startsAt */\n      sload(0x07)\n        /* \"contracts/FlintPublicEvent.sol\":617:632  block.timestamp */\n      timestamp\n        /* \"contracts/FlintPublicEvent.sol\":617:643  block.timestamp < startsAt */\n      lt\n        /* \"contracts/FlintPublicEvent.sol\":609:669  require(block.timestamp < startsAt, \"Event already started\") */\n      tag_148\n      jumpi\n      mload(0x40)\n      0x08c379a000000000000000000000000000000000000000000000000000000000\n      dup2\n      mstore\n      0x04\n      add\n      tag_149\n      swap1\n      tag_150\n      jump\t// in\n    tag_149:\n      mload(0x40)\n      dup1\n      swap2\n      sub\n      swap1\n      revert\n    tag_148:\n        /* \"contracts/FlintPublicEvent.sol\":689:702  eventCanceled */\n      0x0a\n      0x01\n      swap1\n      sload\n      swap1\n      0x0100\n      exp\n      swap1\n      div\n      0xff\n      and\n        /* \"contracts/FlintPublicEvent.sol\":688:702  !eventCanceled */\n      iszero\n        /* \"contracts/FlintPublicEvent.sol\":680:725  require(!eventCanceled, \"Event is cancelled\") */\n      tag_151\n      jumpi\n      mload(0x40)\n      0x08c379a000000000000000000000000000000000000000000000000000000000\n      dup2\n      mstore\n      0x04\n      add\n      tag_152\n      swap1\n      tag_153\n      jump\t// in\n    tag_152:\n      mload(0x40)\n      dup1\n      swap2\n      sub\n      swap1\n      revert\n    tag_151:\n        /* \"contracts/FlintPublicEvent.sol\":2651:2661  isAttendee */\n      0x0b\n        /* \"contracts/FlintPublicEvent.sol\":2651:2673  isAttendee[msg.sender] */\n      0x00\n        /* \"contracts/FlintPublicEvent.sol\":2662:2672  msg.sender */\n      caller\n        /* \"contracts/FlintPublicEvent.sol\":2651:2673  isAttendee[msg.sender] */\n      0xffffffffffffffffffffffffffffffffffffffff\n      and\n      0xffffffffffffffffffffffffffffffffffffffff\n      and\n      dup2\n      mstore\n      0x20\n      add\n      swap1\n      dup2\n      mstore\n      0x20\n      add\n      0x00\n      keccak256\n      0x00\n      swap1\n      sload\n      swap1\n      0x0100\n      exp\n      swap1\n      div\n      0xff\n      and\n        /* \"contracts/FlintPublicEvent.sol\":2643:2709  require(isAttendee[msg.sender], \"You're not attending this event\") */\n      tag_155\n      jumpi\n      mload(0x40)\n      0x08c379a000000000000000000000000000000000000000000000000000000000\n      dup2\n      mstore\n      0x04\n      add\n      tag_156\n      swap1\n      tag_157\n      jump\t// in\n    tag_156:\n      mload(0x40)\n      dup1\n      swap2\n      sub\n      swap1\n      revert\n    tag_155:\n        /* \"contracts/FlintPublicEvent.sol\":2745:2746  0 */\n      0x00\n        /* \"contracts/FlintPublicEvent.sol\":2728:2742  attendeesCount */\n      sload(0x09)\n        /* \"contracts/FlintPublicEvent.sol\":2728:2746  attendeesCount > 0 */\n      gt\n        /* \"contracts/FlintPublicEvent.sol\":2720:2763  require(attendeesCount > 0, \"No attendees\") */\n      tag_158\n      jumpi\n      mload(0x40)\n      0x08c379a000000000000000000000000000000000000000000000000000000000\n      dup2\n      mstore\n      0x04\n      add\n      tag_159\n      swap1\n      tag_160\n      jump\t// in\n    tag_159:\n      mload(0x40)\n      dup1\n      swap2\n      sub\n      swap1\n      revert\n    tag_158:\n        /* \"contracts/FlintPublicEvent.sol\":2794:2795  1 */\n      0x01\n        /* \"contracts/FlintPublicEvent.sol\":2776:2790  attendeesCount */\n      0x09\n      0x00\n        /* \"contracts/FlintPublicEvent.sol\":2776:2795  attendeesCount -= 1 */\n      dup3\n      dup3\n      sload\n      tag_161\n      swap2\n      swap1\n      tag_162\n      jump\t// in\n    tag_161:\n      swap3\n      pop\n      pop\n      dup2\n      swap1\n      sstore\n      pop\n        /* \"contracts/FlintPublicEvent.sol\":2831:2836  false */\n      0x00\n        /* \"contracts/FlintPublicEvent.sol\":2806:2816  isAttendee */\n      0x0b\n        /* \"contracts/FlintPublicEvent.sol\":2806:2828  isAttendee[msg.sender] */\n      0x00\n        /* \"contracts/FlintPublicEvent.sol\":2817:2827  msg.sender */\n      caller\n        /* \"contracts/FlintPublicEvent.sol\":2806:2828  isAttendee[msg.sender] */\n      0xffffffffffffffffffffffffffffffffffffffff\n      and\n      0xffffffffffffffffffffffffffffffffffffffff\n      and\n      dup2\n      mstore\n      0x20\n      add\n      swap1\n      dup2\n      mstore\n      0x20\n      add\n      0x00\n      keccak256\n      0x00\n        /* \"contracts/FlintPublicEvent.sol\":2806:2836  isAttendee[msg.sender] = false */\n      0x0100\n      exp\n      dup2\n      sload\n      dup2\n      0xff\n      mul\n      not\n      and\n      swap1\n      dup4\n      iszero\n      iszero\n      mul\n      or\n      swap1\n      sstore\n      pop\n        /* \"contracts/FlintPublicEvent.sol\":2579:2844  function leaveEvent() external onlyBeforeEventStarts {... */\n      jump\t// out\n        /* \"contracts/FlintPublicEvent.sol\":144:171  uint256 public maxAttendees */\n    tag_64:\n      sload(0x02)\n      dup2\n      jump\t// out\n        /* \"contracts/FlintPublicEvent.sol\":353:382  uint256 public attendeesCount */\n    tag_67:\n      sload(0x09)\n      dup2\n      jump\t// out\n        /* \"contracts/FlintPublicEvent.sol\":468:510  mapping(address => bool) public isAttendee */\n    tag_71:\n      mstore(0x20, 0x0b)\n      dup1\n      0x00\n      mstore\n      keccak256(0x00, 0x40)\n      0x00\n      swap2\n      pop\n      sload\n      swap1\n      0x0100\n      exp\n      swap1\n      div\n      0xff\n      and\n      dup2\n      jump\t// out\n        /* \"contracts/FlintPublicEvent.sol\":205:230  string public description */\n    tag_74:\n      0x04\n      dup1\n      sload\n      tag_163\n      swap1\n      tag_126\n      jump\t// in\n    tag_163:\n      dup1\n      0x1f\n      add\n      0x20\n      dup1\n      swap2\n      div\n      mul\n      0x20\n      add\n      mload(0x40)\n      swap1\n      dup2\n      add\n      0x40\n      mstore\n      dup1\n      swap3\n      swap2\n      swap1\n      dup2\n      dup2\n      mstore\n      0x20\n      add\n      dup3\n      dup1\n      sload\n      tag_164\n      swap1\n      tag_126\n      jump\t// in\n    tag_164:\n      dup1\n      iszero\n      tag_165\n      jumpi\n      dup1\n      0x1f\n      lt\n      tag_166\n      jumpi\n      0x0100\n      dup1\n      dup4\n      sload\n      div\n      mul\n      dup4\n      mstore\n      swap2\n      0x20\n      add\n      swap2\n      jump(tag_165)\n    tag_166:\n      dup3\n      add\n      swap2\n      swap1\n      0x00\n      mstore\n      keccak256(0x00, 0x20)\n      swap1\n    tag_167:\n      dup2\n      sload\n      dup2\n      mstore\n      swap1\n      0x01\n      add\n      swap1\n      0x20\n      add\n      dup1\n      dup4\n      gt\n      tag_167\n      jumpi\n      dup3\n      swap1\n      sub\n      0x1f\n      and\n      dup3\n      add\n      swap2\n    tag_165:\n      pop\n      pop\n      pop\n      pop\n      pop\n      dup2\n      jump\t// out\n        /* \"contracts/FlintPublicEvent.sol\":3498:3704  function endEvent() external onlyStaff {... */\n    tag_77:\n        /* \"contracts/FlintPublicEvent.sol\":807:812  owner */\n      0x03\n      0x00\n      swap1\n      sload\n      swap1\n      0x0100\n      exp\n      swap1\n      div\n      0xffffffffffffffffffffffffffffffffffffffff\n      and\n        /* \"contracts/FlintPublicEvent.sol\":793:812  msg.sender == owner */\n      0xffffffffffffffffffffffffffffffffffffffff\n      and\n        /* \"contracts/FlintPublicEvent.sol\":793:803  msg.sender */\n      caller\n        /* \"contracts/FlintPublicEvent.sol\":793:812  msg.sender == owner */\n      0xffffffffffffffffffffffffffffffffffffffff\n      and\n      eq\n        /* \"contracts/FlintPublicEvent.sol\":793:835  msg.sender == owner || isStaff[msg.sender] */\n      dup1\n      tag_169\n      jumpi\n      pop\n        /* \"contracts/FlintPublicEvent.sol\":816:823  isStaff */\n      0x0c\n        /* \"contracts/FlintPublicEvent.sol\":816:835  isStaff[msg.sender] */\n      0x00\n        /* \"contracts/FlintPublicEvent.sol\":824:834  msg.sender */\n      caller\n        /* \"contracts/FlintPublicEvent.sol\":816:835  isStaff[msg.sender] */\n      0xffffffffffffffffffffffffffffffffffffffff\n      and\n      0xffffffffffffffffffffffffffffffffffffffff\n      and\n      dup2\n      mstore\n      0x20\n      add\n      swap1\n      dup2\n      mstore\n      0x20\n      add\n      0x00\n      keccak256\n      0x00\n      swap1\n      sload\n      swap1\n      0x0100\n      exp\n      swap1\n      div\n      0xff\n      and\n        /* \"contracts/FlintPublicEvent.sol\":793:835  msg.sender == owner || isStaff[msg.sender] */\n    tag_169:\n        /* \"contracts/FlintPublicEvent.sol\":785:856  require(msg.sender == owner || isStaff[msg.sender], \"You're not staff\") */\n      tag_170\n      jumpi\n      mload(0x40)\n      0x08c379a000000000000000000000000000000000000000000000000000000000\n      dup2\n      mstore\n      0x04\n      add\n      tag_171\n      swap1\n      tag_113\n      jump\t// in\n    tag_171:\n      mload(0x40)\n      dup1\n      swap2\n      sub\n      swap1\n      revert\n    tag_170:\n        /* \"contracts/FlintPublicEvent.sol\":3557:3567  eventEnded */\n      0x0a\n      0x00\n      swap1\n      sload\n      swap1\n      0x0100\n      exp\n      swap1\n      div\n      0xff\n      and\n        /* \"contracts/FlintPublicEvent.sol\":3556:3567  !eventEnded */\n      iszero\n        /* \"contracts/FlintPublicEvent.sol\":3548:3594  require(!eventEnded, \"Event already finished\") */\n      tag_173\n      jumpi\n      mload(0x40)\n      0x08c379a000000000000000000000000000000000000000000000000000000000\n      dup2\n      mstore\n      0x04\n      add\n      tag_174\n      swap1\n      tag_175\n      jump\t// in\n    tag_174:\n      mload(0x40)\n      dup1\n      swap2\n      sub\n      swap1\n      revert\n    tag_173:\n        /* \"contracts/FlintPublicEvent.sol\":3632:3640  startsAt */\n      sload(0x07)\n        /* \"contracts/FlintPublicEvent.sol\":3613:3628  block.timestamp */\n      timestamp\n        /* \"contracts/FlintPublicEvent.sol\":3613:3640  block.timestamp >= startsAt */\n      lt\n      iszero\n        /* \"contracts/FlintPublicEvent.sol\":3605:3666  require(block.timestamp >= startsAt, \"Event not started yet\") */\n      tag_176\n      jumpi\n      mload(0x40)\n      0x08c379a000000000000000000000000000000000000000000000000000000000\n      dup2\n      mstore\n      0x04\n      add\n      tag_177\n      swap1\n      tag_178\n      jump\t// in\n    tag_177:\n      mload(0x40)\n      dup1\n      swap2\n      sub\n      swap1\n      revert\n    tag_176:\n        /* \"contracts/FlintPublicEvent.sol\":3692:3696  true */\n      0x01\n        /* \"contracts/FlintPublicEvent.sol\":3679:3689  eventEnded */\n      0x0a\n      0x00\n        /* \"contracts/FlintPublicEvent.sol\":3679:3696  eventEnded = true */\n      0x0100\n      exp\n      dup2\n      sload\n      dup2\n      0xff\n      mul\n      not\n      and\n      swap1\n      dup4\n      iszero\n      iszero\n      mul\n      or\n      swap1\n      sstore\n      pop\n        /* \"contracts/FlintPublicEvent.sol\":3498:3704  function endEvent() external onlyStaff {... */\n      jump\t// out\n        /* \"contracts/FlintPublicEvent.sol\":178:198  address public owner */\n    tag_79:\n      0x03\n      0x00\n      swap1\n      sload\n      swap1\n      0x0100\n      exp\n      swap1\n      div\n      0xffffffffffffffffffffffffffffffffffffffff\n      and\n      dup2\n      jump\t// out\n        /* \"contracts/FlintPublicEvent.sol\":4411:4500  function getTags() external view returns (string[] memory) {... */\n    tag_83:\n        /* \"contracts/FlintPublicEvent.sol\":4453:4468  string[] memory */\n      0x60\n        /* \"contracts/FlintPublicEvent.sol\":4488:4492  tags */\n      0x05\n        /* \"contracts/FlintPublicEvent.sol\":4481:4492  return tags */\n      dup1\n      sload\n      dup1\n      0x20\n      mul\n      0x20\n      add\n      mload(0x40)\n      swap1\n      dup2\n      add\n      0x40\n      mstore\n      dup1\n      swap3\n      swap2\n      swap1\n      dup2\n      dup2\n      mstore\n      0x20\n      add\n      0x00\n      swap1\n    tag_180:\n      dup3\n      dup3\n      lt\n      iszero\n      tag_181\n      jumpi\n      dup4\n      dup3\n      swap1\n      0x00\n      mstore\n      keccak256(0x00, 0x20)\n      add\n      dup1\n      sload\n      tag_183\n      swap1\n      tag_126\n      jump\t// in\n    tag_183:\n      dup1\n      0x1f\n      add\n      0x20\n      dup1\n      swap2\n      div\n      mul\n      0x20\n      add\n      mload(0x40)\n      swap1\n      dup2\n      add\n      0x40\n      mstore\n      dup1\n      swap3\n      swap2\n      swap1\n      dup2\n      dup2\n      mstore\n      0x20\n      add\n      dup3\n      dup1\n      sload\n      tag_184\n      swap1\n      tag_126\n      jump\t// in\n    tag_184:\n      dup1\n      iszero\n      tag_185\n      jumpi\n      dup1\n      0x1f\n      lt\n      tag_186\n      jumpi\n      0x0100\n      dup1\n      dup4\n      sload\n      div\n      mul\n      dup4\n      mstore\n      swap2\n      0x20\n      add\n      swap2\n      jump(tag_185)\n    tag_186:\n      dup3\n      add\n      swap2\n      swap1\n      0x00\n      mstore\n      keccak256(0x00, 0x20)\n      swap1\n    tag_187:\n      dup2\n      sload\n      dup2\n      mstore\n      swap1\n      0x01\n      add\n      swap1\n      0x20\n      add\n      dup1\n      dup4\n      gt\n      tag_187\n      jumpi\n      dup3\n      swap1\n      sub\n      0x1f\n      and\n      dup3\n      add\n      swap2\n    tag_185:\n      pop\n      pop\n      pop\n      pop\n      pop\n      dup2\n      mstore\n      0x20\n      add\n      swap1\n      0x01\n      add\n      swap1\n      jump(tag_180)\n    tag_181:\n      pop\n      pop\n      pop\n      pop\n      swap1\n      pop\n        /* \"contracts/FlintPublicEvent.sol\":4411:4500  function getTags() external view returns (string[] memory) {... */\n      swap1\n      jump\t// out\n        /* \"contracts/FlintPublicEvent.sol\":295:318  uint256 public startsAt */\n    tag_87:\n      sload(0x07)\n      dup2\n      jump\t// out\n        /* \"contracts/FlintPublicEvent.sol\":4135:4233  function removeStaff(address _staff) external onlyOwner {... */\n    tag_91:\n        /* \"contracts/FlintPublicEvent.sol\":938:943  owner */\n      0x03\n      0x00\n      swap1\n      sload\n      swap1\n      0x0100\n      exp\n      swap1\n      div\n      0xffffffffffffffffffffffffffffffffffffffff\n      and\n        /* \"contracts/FlintPublicEvent.sol\":924:943  msg.sender == owner */\n      0xffffffffffffffffffffffffffffffffffffffff\n      and\n        /* \"contracts/FlintPublicEvent.sol\":924:934  msg.sender */\n      caller\n        /* \"contracts/FlintPublicEvent.sol\":924:943  msg.sender == owner */\n      0xffffffffffffffffffffffffffffffffffffffff\n      and\n      eq\n        /* \"contracts/FlintPublicEvent.sol\":916:957  require(msg.sender == owner, \"Not owner\") */\n      tag_189\n      jumpi\n      mload(0x40)\n      0x08c379a000000000000000000000000000000000000000000000000000000000\n      dup2\n      mstore\n      0x04\n      add\n      tag_190\n      swap1\n      tag_145\n      jump\t// in\n    tag_190:\n      mload(0x40)\n      dup1\n      swap2\n      sub\n      swap1\n      revert\n    tag_189:\n        /* \"contracts/FlintPublicEvent.sol\":4220:4225  false */\n      0x00\n        /* \"contracts/FlintPublicEvent.sol\":4202:4209  isStaff */\n      0x0c\n        /* \"contracts/FlintPublicEvent.sol\":4202:4217  isStaff[_staff] */\n      0x00\n        /* \"contracts/FlintPublicEvent.sol\":4210:4216  _staff */\n      dup4\n        /* \"contracts/FlintPublicEvent.sol\":4202:4217  isStaff[_staff] */\n      0xffffffffffffffffffffffffffffffffffffffff\n      and\n      0xffffffffffffffffffffffffffffffffffffffff\n      and\n      dup2\n      mstore\n      0x20\n      add\n      swap1\n      dup2\n      mstore\n      0x20\n      add\n      0x00\n      keccak256\n      0x00\n        /* \"contracts/FlintPublicEvent.sol\":4202:4225  isStaff[_staff] = false */\n      0x0100\n      exp\n      dup2\n      sload\n      dup2\n      0xff\n      mul\n      not\n      and\n      swap1\n      dup4\n      iszero\n      iszero\n      mul\n      or\n      swap1\n      sstore\n      pop\n        /* \"contracts/FlintPublicEvent.sol\":4135:4233  function removeStaff(address _staff) external onlyOwner {... */\n      pop\n      jump\t// out\n        /* \"contracts/FlintPublicEvent.sol\":517:556  mapping(address => bool) public isStaff */\n    tag_94:\n      mstore(0x20, 0x0c)\n      dup1\n      0x00\n      mstore\n      keccak256(0x00, 0x40)\n      0x00\n      swap2\n      pop\n      sload\n      swap1\n      0x0100\n      exp\n      swap1\n      div\n      0xff\n      and\n      dup2\n      jump\t// out\n        /* \"contracts/FlintPublicEvent.sol\":264:288  uint256 public createdAt */\n    tag_97:\n      sload(0x06)\n      dup2\n      jump\t// out\n        /* \"contracts/FlintPublicEvent.sol\":3228:3490  function removeAttendee(address _attendee) external onlyStaff {... */\n    tag_101:\n        /* \"contracts/FlintPublicEvent.sol\":807:812  owner */\n      0x03\n      0x00\n      swap1\n      sload\n      swap1\n      0x0100\n      exp\n      swap1\n      div\n      0xffffffffffffffffffffffffffffffffffffffff\n      and\n        /* \"contracts/FlintPublicEvent.sol\":793:812  msg.sender == owner */\n      0xffffffffffffffffffffffffffffffffffffffff\n      and\n        /* \"contracts/FlintPublicEvent.sol\":793:803  msg.sender */\n      caller\n        /* \"contracts/FlintPublicEvent.sol\":793:812  msg.sender == owner */\n      0xffffffffffffffffffffffffffffffffffffffff\n      and\n      eq\n        /* \"contracts/FlintPublicEvent.sol\":793:835  msg.sender == owner || isStaff[msg.sender] */\n      dup1\n      tag_193\n      jumpi\n      pop\n        /* \"contracts/FlintPublicEvent.sol\":816:823  isStaff */\n      0x0c\n        /* \"contracts/FlintPublicEvent.sol\":816:835  isStaff[msg.sender] */\n      0x00\n        /* \"contracts/FlintPublicEvent.sol\":824:834  msg.sender */\n      caller\n        /* \"contracts/FlintPublicEvent.sol\":816:835  isStaff[msg.sender] */\n      0xffffffffffffffffffffffffffffffffffffffff\n      and\n      0xffffffffffffffffffffffffffffffffffffffff\n      and\n      dup2\n      mstore\n      0x20\n      add\n      swap1\n      dup2\n      mstore\n      0x20\n      add\n      0x00\n      keccak256\n      0x00\n      swap1\n      sload\n      swap1\n      0x0100\n      exp\n      swap1\n      div\n      0xff\n      and\n        /* \"contracts/FlintPublicEvent.sol\":793:835  msg.sender == owner || isStaff[msg.sender] */\n    tag_193:\n        /* \"contracts/FlintPublicEvent.sol\":785:856  require(msg.sender == owner || isStaff[msg.sender], \"You're not staff\") */\n      tag_194\n      jumpi\n      mload(0x40)\n      0x08c379a000000000000000000000000000000000000000000000000000000000\n      dup2\n      mstore\n      0x04\n      add\n      tag_195\n      swap1\n      tag_113\n      jump\t// in\n    tag_195:\n      mload(0x40)\n      dup1\n      swap2\n      sub\n      swap1\n      revert\n    tag_194:\n        /* \"contracts/FlintPublicEvent.sol\":3309:3319  isAttendee */\n      0x0b\n        /* \"contracts/FlintPublicEvent.sol\":3309:3330  isAttendee[_attendee] */\n      0x00\n        /* \"contracts/FlintPublicEvent.sol\":3320:3329  _attendee */\n      dup3\n        /* \"contracts/FlintPublicEvent.sol\":3309:3330  isAttendee[_attendee] */\n      0xffffffffffffffffffffffffffffffffffffffff\n      and\n      0xffffffffffffffffffffffffffffffffffffffff\n      and\n      dup2\n      mstore\n      0x20\n      add\n      swap1\n      dup2\n      mstore\n      0x20\n      add\n      0x00\n      keccak256\n      0x00\n      swap1\n      sload\n      swap1\n      0x0100\n      exp\n      swap1\n      div\n      0xff\n      and\n        /* \"contracts/FlintPublicEvent.sol\":3301:3348  require(isAttendee[_attendee], \"Not attending\") */\n      tag_197\n      jumpi\n      mload(0x40)\n      0x08c379a000000000000000000000000000000000000000000000000000000000\n      dup2\n      mstore\n      0x04\n      add\n      tag_198\n      swap1\n      tag_199\n      jump\t// in\n    tag_198:\n      mload(0x40)\n      dup1\n      swap2\n      sub\n      swap1\n      revert\n    tag_197:\n        /* \"contracts/FlintPublicEvent.sol\":3384:3385  0 */\n      0x00\n        /* \"contracts/FlintPublicEvent.sol\":3367:3381  attendeesCount */\n      sload(0x09)\n        /* \"contracts/FlintPublicEvent.sol\":3367:3385  attendeesCount > 0 */\n      gt\n        /* \"contracts/FlintPublicEvent.sol\":3359:3402  require(attendeesCount > 0, \"No attendees\") */\n      tag_200\n      jumpi\n      mload(0x40)\n      0x08c379a000000000000000000000000000000000000000000000000000000000\n      dup2\n      mstore\n      0x04\n      add\n      tag_201\n      swap1\n      tag_160\n      jump\t// in\n    tag_201:\n      mload(0x40)\n      dup1\n      swap2\n      sub\n      swap1\n      revert\n    tag_200:\n        /* \"contracts/FlintPublicEvent.sol\":3441:3442  1 */\n      0x01\n        /* \"contracts/FlintPublicEvent.sol\":3423:3437  attendeesCount */\n      0x09\n      0x00\n        /* \"contracts/FlintPublicEvent.sol\":3423:3442  attendeesCount -= 1 */\n      dup3\n      dup3\n      sload\n      tag_202\n      swap2\n      swap1\n      tag_162\n      jump\t// in\n    tag_202:\n      swap3\n      pop\n      pop\n      dup2\n      swap1\n      sstore\n      pop\n        /* \"contracts/FlintPublicEvent.sol\":3477:3482  false */\n      0x00\n        /* \"contracts/FlintPublicEvent.sol\":3453:3463  isAttendee */\n      0x0b\n        /* \"contracts/FlintPublicEvent.sol\":3453:3474  isAttendee[_attendee] */\n      0x00\n        /* \"contracts/FlintPublicEvent.sol\":3464:3473  _attendee */\n      dup4\n        /* \"contracts/FlintPublicEvent.sol\":3453:3474  isAttendee[_attendee] */\n      0xffffffffffffffffffffffffffffffffffffffff\n      and\n      0xffffffffffffffffffffffffffffffffffffffff\n      and\n      dup2\n      mstore\n      0x20\n      add\n      swap1\n      dup2\n      mstore\n      0x20\n      add\n      0x00\n      keccak256\n      0x00\n        /* \"contracts/FlintPublicEvent.sol\":3453:3482  isAttendee[_attendee] = false */\n      0x0100\n      exp\n      dup2\n      sload\n      dup2\n      0xff\n      mul\n      not\n      and\n      swap1\n      dup4\n      iszero\n      iszero\n      mul\n      or\n      swap1\n      sstore\n      pop\n        /* \"contracts/FlintPublicEvent.sol\":3228:3490  function removeAttendee(address _attendee) external onlyStaff {... */\n      pop\n      jump\t// out\n        /* \"contracts/FlintPublicEvent.sol\":389:419  bool public eventEnded = false */\n    tag_103:\n      0x0a\n      0x00\n      swap1\n      sload\n      swap1\n      0x0100\n      exp\n      swap1\n      div\n      0xff\n      and\n      dup2\n      jump\t// out\n        /* \"contracts/FlintPublicEvent.sol\":2302:2571  function joinEvent() external onlyBeforeEventStarts {... */\n    tag_106:\n        /* \"contracts/FlintPublicEvent.sol\":635:643  startsAt */\n      sload(0x07)\n        /* \"contracts/FlintPublicEvent.sol\":617:632  block.timestamp */\n      timestamp\n        /* \"contracts/FlintPublicEvent.sol\":617:643  block.timestamp < startsAt */\n      lt\n        /* \"contracts/FlintPublicEvent.sol\":609:669  require(block.timestamp < startsAt, \"Event already started\") */\n      tag_204\n      jumpi\n      mload(0x40)\n      0x08c379a000000000000000000000000000000000000000000000000000000000\n      dup2\n      mstore\n      0x04\n      add\n      tag_205\n      swap1\n      tag_150\n      jump\t// in\n    tag_205:\n      mload(0x40)\n      dup1\n      swap2\n      sub\n      swap1\n      revert\n    tag_204:\n        /* \"contracts/FlintPublicEvent.sol\":689:702  eventCanceled */\n      0x0a\n      0x01\n      swap1\n      sload\n      swap1\n      0x0100\n      exp\n      swap1\n      div\n      0xff\n      and\n        /* \"contracts/FlintPublicEvent.sol\":688:702  !eventCanceled */\n      iszero\n        /* \"contracts/FlintPublicEvent.sol\":680:725  require(!eventCanceled, \"Event is cancelled\") */\n      tag_206\n      jumpi\n      mload(0x40)\n      0x08c379a000000000000000000000000000000000000000000000000000000000\n      dup2\n      mstore\n      0x04\n      add\n      tag_207\n      swap1\n      tag_153\n      jump\t// in\n    tag_207:\n      mload(0x40)\n      dup1\n      swap2\n      sub\n      swap1\n      revert\n    tag_206:\n        /* \"contracts/FlintPublicEvent.sol\":2390:2402  maxAttendees */\n      sload(0x02)\n        /* \"contracts/FlintPublicEvent.sol\":2373:2387  attendeesCount */\n      sload(0x09)\n        /* \"contracts/FlintPublicEvent.sol\":2373:2402  attendeesCount < maxAttendees */\n      lt\n        /* \"contracts/FlintPublicEvent.sol\":2365:2420  require(attendeesCount < maxAttendees, \"Event is full\") */\n      tag_209\n      jumpi\n      mload(0x40)\n      0x08c379a000000000000000000000000000000000000000000000000000000000\n      dup2\n      mstore\n      0x04\n      add\n      tag_210\n      swap1\n      tag_120\n      jump\t// in\n    tag_210:\n      mload(0x40)\n      dup1\n      swap2\n      sub\n      swap1\n      revert\n    tag_209:\n        /* \"contracts/FlintPublicEvent.sol\":2440:2450  isAttendee */\n      0x0b\n        /* \"contracts/FlintPublicEvent.sol\":2440:2462  isAttendee[msg.sender] */\n      0x00\n        /* \"contracts/FlintPublicEvent.sol\":2451:2461  msg.sender */\n      caller\n        /* \"contracts/FlintPublicEvent.sol\":2440:2462  isAttendee[msg.sender] */\n      0xffffffffffffffffffffffffffffffffffffffff\n      and\n      0xffffffffffffffffffffffffffffffffffffffff\n      and\n      dup2\n      mstore\n      0x20\n      add\n      swap1\n      dup2\n      mstore\n      0x20\n      add\n      0x00\n      keccak256\n      0x00\n      swap1\n      sload\n      swap1\n      0x0100\n      exp\n      swap1\n      div\n      0xff\n      and\n        /* \"contracts/FlintPublicEvent.sol\":2439:2462  !isAttendee[msg.sender] */\n      iszero\n        /* \"contracts/FlintPublicEvent.sol\":2431:2491  require(!isAttendee[msg.sender], \"You're already attending\") */\n      tag_211\n      jumpi\n      mload(0x40)\n      0x08c379a000000000000000000000000000000000000000000000000000000000\n      dup2\n      mstore\n      0x04\n      add\n      tag_212\n      swap1\n      tag_213\n      jump\t// in\n    tag_212:\n      mload(0x40)\n      dup1\n      swap2\n      sub\n      swap1\n      revert\n    tag_211:\n        /* \"contracts/FlintPublicEvent.sol\":2522:2523  1 */\n      0x01\n        /* \"contracts/FlintPublicEvent.sol\":2504:2518  attendeesCount */\n      0x09\n      0x00\n        /* \"contracts/FlintPublicEvent.sol\":2504:2523  attendeesCount += 1 */\n      dup3\n      dup3\n      sload\n      tag_214\n      swap2\n      swap1\n      tag_122\n      jump\t// in\n    tag_214:\n      swap3\n      pop\n      pop\n      dup2\n      swap1\n      sstore\n      pop\n        /* \"contracts/FlintPublicEvent.sol\":2559:2563  true */\n      0x01\n        /* \"contracts/FlintPublicEvent.sol\":2534:2544  isAttendee */\n      0x0b\n        /* \"contracts/FlintPublicEvent.sol\":2534:2556  isAttendee[msg.sender] */\n      0x00\n        /* \"contracts/FlintPublicEvent.sol\":2545:2555  msg.sender */\n      caller\n        /* \"contracts/FlintPublicEvent.sol\":2534:2556  isAttendee[msg.sender] */\n      0xffffffffffffffffffffffffffffffffffffffff\n      and\n      0xffffffffffffffffffffffffffffffffffffffff\n      and\n      dup2\n      mstore\n      0x20\n      add\n      swap1\n      dup2\n      mstore\n      0x20\n      add\n      0x00\n      keccak256\n      0x00\n        /* \"contracts/FlintPublicEvent.sol\":2534:2563  isAttendee[msg.sender] = true */\n      0x0100\n      exp\n      dup2\n      sload\n      dup2\n      0xff\n      mul\n      not\n      and\n      swap1\n      dup4\n      iszero\n      iszero\n      mul\n      or\n      swap1\n      sstore\n      pop\n        /* \"contracts/FlintPublicEvent.sol\":2302:2571  function joinEvent() external onlyBeforeEventStarts {... */\n      jump\t// out\n        /* \"contracts/FlintPublicEvent.sol\":3712:3927  function cancelEvent() external onlyStaff {... */\n    tag_108:\n        /* \"contracts/FlintPublicEvent.sol\":807:812  owner */\n      0x03\n      0x00\n      swap1\n      sload\n      swap1\n      0x0100\n      exp\n      swap1\n      div\n      0xffffffffffffffffffffffffffffffffffffffff\n      and\n        /* \"contracts/FlintPublicEvent.sol\":793:812  msg.sender == owner */\n      0xffffffffffffffffffffffffffffffffffffffff\n      and\n        /* \"contracts/FlintPublicEvent.sol\":793:803  msg.sender */\n      caller\n        /* \"contracts/FlintPublicEvent.sol\":793:812  msg.sender == owner */\n      0xffffffffffffffffffffffffffffffffffffffff\n      and\n      eq\n        /* \"contracts/FlintPublicEvent.sol\":793:835  msg.sender == owner || isStaff[msg.sender] */\n      dup1\n      tag_216\n      jumpi\n      pop\n        /* \"contracts/FlintPublicEvent.sol\":816:823  isStaff */\n      0x0c\n        /* \"contracts/FlintPublicEvent.sol\":816:835  isStaff[msg.sender] */\n      0x00\n        /* \"contracts/FlintPublicEvent.sol\":824:834  msg.sender */\n      caller\n        /* \"contracts/FlintPublicEvent.sol\":816:835  isStaff[msg.sender] */\n      0xffffffffffffffffffffffffffffffffffffffff\n      and\n      0xffffffffffffffffffffffffffffffffffffffff\n      and\n      dup2\n      mstore\n      0x20\n      add\n      swap1\n      dup2\n      mstore\n      0x20\n      add\n      0x00\n      keccak256\n      0x00\n      swap1\n      sload\n      swap1\n      0x0100\n      exp\n      swap1\n      div\n      0xff\n      and\n        /* \"contracts/FlintPublicEvent.sol\":793:835  msg.sender == owner || isStaff[msg.sender] */\n    tag_216:\n        /* \"contracts/FlintPublicEvent.sol\":785:856  require(msg.sender == owner || isStaff[msg.sender], \"You're not staff\") */\n      tag_217\n      jumpi\n      mload(0x40)\n      0x08c379a000000000000000000000000000000000000000000000000000000000\n      dup2\n      mstore\n      0x04\n      add\n      tag_218\n      swap1\n      tag_113\n      jump\t// in\n    tag_218:\n      mload(0x40)\n      dup1\n      swap2\n      sub\n      swap1\n      revert\n    tag_217:\n        /* \"contracts/FlintPublicEvent.sol\":3791:3799  startsAt */\n      sload(0x07)\n        /* \"contracts/FlintPublicEvent.sol\":3773:3788  block.timestamp */\n      timestamp\n        /* \"contracts/FlintPublicEvent.sol\":3773:3799  block.timestamp < startsAt */\n      lt\n        /* \"contracts/FlintPublicEvent.sol\":3765:3850  require(block.timestamp < startsAt, \"Event already started, use finishEvent instead\") */\n      tag_220\n      jumpi\n      mload(0x40)\n      0x08c379a000000000000000000000000000000000000000000000000000000000\n      dup2\n      mstore\n      0x04\n      add\n      tag_221\n      swap1\n      tag_222\n      jump\t// in\n    tag_221:\n      mload(0x40)\n      dup1\n      swap2\n      sub\n      swap1\n      revert\n    tag_220:\n        /* \"contracts/FlintPublicEvent.sol\":3887:3891  true */\n      0x01\n        /* \"contracts/FlintPublicEvent.sol\":3871:3884  eventCanceled */\n      0x0a\n      0x01\n        /* \"contracts/FlintPublicEvent.sol\":3871:3891  eventCanceled = true */\n      0x0100\n      exp\n      dup2\n      sload\n      dup2\n      0xff\n      mul\n      not\n      and\n      swap1\n      dup4\n      iszero\n      iszero\n      mul\n      or\n      swap1\n      sstore\n      pop\n        /* \"contracts/FlintPublicEvent.sol\":3915:3919  true */\n      0x01\n        /* \"contracts/FlintPublicEvent.sol\":3902:3912  eventEnded */\n      0x0a\n      0x00\n        /* \"contracts/FlintPublicEvent.sol\":3902:3919  eventEnded = true */\n      0x0100\n      exp\n      dup2\n      sload\n      dup2\n      0xff\n      mul\n      not\n      and\n      swap1\n      dup4\n      iszero\n      iszero\n      mul\n      or\n      swap1\n      sstore\n      pop\n        /* \"contracts/FlintPublicEvent.sol\":3712:3927  function cancelEvent() external onlyStaff {... */\n      jump\t// out\n        /* \"#utility.yul\":7:84   */\n    tag_223:\n        /* \"#utility.yul\":44:51   */\n      0x00\n        /* \"#utility.yul\":73:78   */\n      dup2\n        /* \"#utility.yul\":62:78   */\n      swap1\n      pop\n        /* \"#utility.yul\":7:84   */\n      swap2\n      swap1\n      pop\n      jump\t// out\n        /* \"#utility.yul\":90:208   */\n    tag_224:\n        /* \"#utility.yul\":177:201   */\n      tag_281\n        /* \"#utility.yul\":195:200   */\n      dup2\n        /* \"#utility.yul\":177:201   */\n      tag_223\n      jump\t// in\n    tag_281:\n        /* \"#utility.yul\":172:175   */\n      dup3\n        /* \"#utility.yul\":165:202   */\n      mstore\n        /* \"#utility.yul\":90:208   */\n      pop\n      pop\n      jump\t// out\n        /* \"#utility.yul\":214:436   */\n    tag_33:\n        /* \"#utility.yul\":307:311   */\n      0x00\n        /* \"#utility.yul\":345:347   */\n      0x20\n        /* \"#utility.yul\":334:343   */\n      dup3\n        /* \"#utility.yul\":330:348   */\n      add\n        /* \"#utility.yul\":322:348   */\n      swap1\n      pop\n        /* \"#utility.yul\":358:429   */\n      tag_283\n        /* \"#utility.yul\":426:427   */\n      0x00\n        /* \"#utility.yul\":415:424   */\n      dup4\n        /* \"#utility.yul\":411:428   */\n      add\n        /* \"#utility.yul\":402:408   */\n      dup5\n        /* \"#utility.yul\":358:429   */\n      tag_224\n      jump\t// in\n    tag_283:\n        /* \"#utility.yul\":214:436   */\n      swap3\n      swap2\n      pop\n      pop\n      jump\t// out\n        /* \"#utility.yul\":523:640   */\n    tag_226:\n        /* \"#utility.yul\":632:633   */\n      0x00\n        /* \"#utility.yul\":629:630   */\n      dup1\n        /* \"#utility.yul\":622:634   */\n      revert\n        /* \"#utility.yul\":769:895   */\n    tag_228:\n        /* \"#utility.yul\":806:813   */\n      0x00\n        /* \"#utility.yul\":846:888   */\n      0xffffffffffffffffffffffffffffffffffffffff\n        /* \"#utility.yul\":839:844   */\n      dup3\n        /* \"#utility.yul\":835:889   */\n      and\n        /* \"#utility.yul\":824:889   */\n      swap1\n      pop\n        /* \"#utility.yul\":769:895   */\n      swap2\n      swap1\n      pop\n      jump\t// out\n        /* \"#utility.yul\":901:997   */\n    tag_229:\n        /* \"#utility.yul\":938:945   */\n      0x00\n        /* \"#utility.yul\":967:991   */\n      tag_289\n        /* \"#utility.yul\":985:990   */\n      dup3\n        /* \"#utility.yul\":967:991   */\n      tag_228\n      jump\t// in\n    tag_289:\n        /* \"#utility.yul\":956:991   */\n      swap1\n      pop\n        /* \"#utility.yul\":901:997   */\n      swap2\n      swap1\n      pop\n      jump\t// out\n        /* \"#utility.yul\":1003:1125   */\n    tag_230:\n        /* \"#utility.yul\":1076:1100   */\n      tag_291\n        /* \"#utility.yul\":1094:1099   */\n      dup2\n        /* \"#utility.yul\":1076:1100   */\n      tag_229\n      jump\t// in\n    tag_291:\n        /* \"#utility.yul\":1069:1074   */\n      dup2\n        /* \"#utility.yul\":1066:1101   */\n      eq\n        /* \"#utility.yul\":1056:1119   */\n      tag_292\n      jumpi\n        /* \"#utility.yul\":1115:1116   */\n      0x00\n        /* \"#utility.yul\":1112:1113   */\n      dup1\n        /* \"#utility.yul\":1105:1117   */\n      revert\n        /* \"#utility.yul\":1056:1119   */\n    tag_292:\n        /* \"#utility.yul\":1003:1125   */\n      pop\n      jump\t// out\n        /* \"#utility.yul\":1131:1270   */\n    tag_231:\n        /* \"#utility.yul\":1177:1182   */\n      0x00\n        /* \"#utility.yul\":1215:1221   */\n      dup2\n        /* \"#utility.yul\":1202:1222   */\n      calldataload\n        /* \"#utility.yul\":1193:1222   */\n      swap1\n      pop\n        /* \"#utility.yul\":1231:1264   */\n      tag_294\n        /* \"#utility.yul\":1258:1263   */\n      dup2\n        /* \"#utility.yul\":1231:1264   */\n      tag_230\n      jump\t// in\n    tag_294:\n        /* \"#utility.yul\":1131:1270   */\n      swap3\n      swap2\n      pop\n      pop\n      jump\t// out\n        /* \"#utility.yul\":1276:1605   */\n    tag_36:\n        /* \"#utility.yul\":1335:1341   */\n      0x00\n        /* \"#utility.yul\":1384:1386   */\n      0x20\n        /* \"#utility.yul\":1372:1381   */\n      dup3\n        /* \"#utility.yul\":1363:1370   */\n      dup5\n        /* \"#utility.yul\":1359:1382   */\n      sub\n        /* \"#utility.yul\":1355:1387   */\n      slt\n        /* \"#utility.yul\":1352:1471   */\n      iszero\n      tag_296\n      jumpi\n        /* \"#utility.yul\":1390:1469   */\n      tag_297\n      tag_226\n      jump\t// in\n    tag_297:\n        /* \"#utility.yul\":1352:1471   */\n    tag_296:\n        /* \"#utility.yul\":1510:1511   */\n      0x00\n        /* \"#utility.yul\":1535:1588   */\n      tag_298\n        /* \"#utility.yul\":1580:1587   */\n      dup5\n        /* \"#utility.yul\":1571:1577   */\n      dup3\n        /* \"#utility.yul\":1560:1569   */\n      dup6\n        /* \"#utility.yul\":1556:1578   */\n      add\n        /* \"#utility.yul\":1535:1588   */\n      tag_231\n      jump\t// in\n    tag_298:\n        /* \"#utility.yul\":1525:1588   */\n      swap2\n      pop\n        /* \"#utility.yul\":1481:1598   */\n      pop\n        /* \"#utility.yul\":1276:1605   */\n      swap3\n      swap2\n      pop\n      pop\n      jump\t// out\n        /* \"#utility.yul\":1611:1701   */\n    tag_232:\n        /* \"#utility.yul\":1645:1652   */\n      0x00\n        /* \"#utility.yul\":1688:1693   */\n      dup2\n        /* \"#utility.yul\":1681:1694   */\n      iszero\n        /* \"#utility.yul\":1674:1695   */\n      iszero\n        /* \"#utility.yul\":1663:1695   */\n      swap1\n      pop\n        /* \"#utility.yul\":1611:1701   */\n      swap2\n      swap1\n      pop\n      jump\t// out\n        /* \"#utility.yul\":1707:1816   */\n    tag_233:\n        /* \"#utility.yul\":1788:1809   */\n      tag_301\n        /* \"#utility.yul\":1803:1808   */\n      dup2\n        /* \"#utility.yul\":1788:1809   */\n      tag_232\n      jump\t// in\n    tag_301:\n        /* \"#utility.yul\":1783:1786   */\n      dup3\n        /* \"#utility.yul\":1776:1810   */\n      mstore\n        /* \"#utility.yul\":1707:1816   */\n      pop\n      pop\n      jump\t// out\n        /* \"#utility.yul\":1822:2032   */\n    tag_41:\n        /* \"#utility.yul\":1909:1913   */\n      0x00\n        /* \"#utility.yul\":1947:1949   */\n      0x20\n        /* \"#utility.yul\":1936:1945   */\n      dup3\n        /* \"#utility.yul\":1932:1950   */\n      add\n        /* \"#utility.yul\":1924:1950   */\n      swap1\n      pop\n        /* \"#utility.yul\":1960:2025   */\n      tag_303\n        /* \"#utility.yul\":2022:2023   */\n      0x00\n        /* \"#utility.yul\":2011:2020   */\n      dup4\n        /* \"#utility.yul\":2007:2024   */\n      add\n        /* \"#utility.yul\":1998:2004   */\n      dup5\n        /* \"#utility.yul\":1960:2025   */\n      tag_233\n      jump\t// in\n    tag_303:\n        /* \"#utility.yul\":1822:2032   */\n      swap3\n      swap2\n      pop\n      pop\n      jump\t// out\n        /* \"#utility.yul\":2038:2160   */\n    tag_234:\n        /* \"#utility.yul\":2111:2135   */\n      tag_305\n        /* \"#utility.yul\":2129:2134   */\n      dup2\n        /* \"#utility.yul\":2111:2135   */\n      tag_223\n      jump\t// in\n    tag_305:\n        /* \"#utility.yul\":2104:2109   */\n      dup2\n        /* \"#utility.yul\":2101:2136   */\n      eq\n        /* \"#utility.yul\":2091:2154   */\n      tag_306\n      jumpi\n        /* \"#utility.yul\":2150:2151   */\n      0x00\n        /* \"#utility.yul\":2147:2148   */\n      dup1\n        /* \"#utility.yul\":2140:2152   */\n      revert\n        /* \"#utility.yul\":2091:2154   */\n    tag_306:\n        /* \"#utility.yul\":2038:2160   */\n      pop\n      jump\t// out\n        /* \"#utility.yul\":2166:2305   */\n    tag_235:\n        /* \"#utility.yul\":2212:2217   */\n      0x00\n        /* \"#utility.yul\":2250:2256   */\n      dup2\n        /* \"#utility.yul\":2237:2257   */\n      calldataload\n        /* \"#utility.yul\":2228:2257   */\n      swap1\n      pop\n        /* \"#utility.yul\":2266:2299   */\n      tag_308\n        /* \"#utility.yul\":2293:2298   */\n      dup2\n        /* \"#utility.yul\":2266:2299   */\n      tag_234\n      jump\t// in\n    tag_308:\n        /* \"#utility.yul\":2166:2305   */\n      swap3\n      swap2\n      pop\n      pop\n      jump\t// out\n        /* \"#utility.yul\":2311:2640   */\n    tag_44:\n        /* \"#utility.yul\":2370:2376   */\n      0x00\n        /* \"#utility.yul\":2419:2421   */\n      0x20\n        /* \"#utility.yul\":2407:2416   */\n      dup3\n        /* \"#utility.yul\":2398:2405   */\n      dup5\n        /* \"#utility.yul\":2394:2417   */\n      sub\n        /* \"#utility.yul\":2390:2422   */\n      slt\n        /* \"#utility.yul\":2387:2506   */\n      iszero\n      tag_310\n      jumpi\n        /* \"#utility.yul\":2425:2504   */\n      tag_311\n      tag_226\n      jump\t// in\n    tag_311:\n        /* \"#utility.yul\":2387:2506   */\n    tag_310:\n        /* \"#utility.yul\":2545:2546   */\n      0x00\n        /* \"#utility.yul\":2570:2623   */\n      tag_312\n        /* \"#utility.yul\":2615:2622   */\n      dup5\n        /* \"#utility.yul\":2606:2612   */\n      dup3\n        /* \"#utility.yul\":2595:2604   */\n      dup6\n        /* \"#utility.yul\":2591:2613   */\n      add\n        /* \"#utility.yul\":2570:2623   */\n      tag_235\n      jump\t// in\n    tag_312:\n        /* \"#utility.yul\":2560:2623   */\n      swap2\n      pop\n        /* \"#utility.yul\":2516:2633   */\n      pop\n        /* \"#utility.yul\":2311:2640   */\n      swap3\n      swap2\n      pop\n      pop\n      jump\t// out\n        /* \"#utility.yul\":2646:2745   */\n    tag_236:\n        /* \"#utility.yul\":2698:2704   */\n      0x00\n        /* \"#utility.yul\":2732:2737   */\n      dup2\n        /* \"#utility.yul\":2726:2738   */\n      mload\n        /* \"#utility.yul\":2716:2738   */\n      swap1\n      pop\n        /* \"#utility.yul\":2646:2745   */\n      swap2\n      swap1\n      pop\n      jump\t// out\n        /* \"#utility.yul\":2751:2920   */\n    tag_237:\n        /* \"#utility.yul\":2835:2846   */\n      0x00\n        /* \"#utility.yul\":2869:2875   */\n      dup3\n        /* \"#utility.yul\":2864:2867   */\n      dup3\n        /* \"#utility.yul\":2857:2876   */\n      mstore\n        /* \"#utility.yul\":2909:2913   */\n      0x20\n        /* \"#utility.yul\":2904:2907   */\n      dup3\n        /* \"#utility.yul\":2900:2914   */\n      add\n        /* \"#utility.yul\":2885:2914   */\n      swap1\n      pop\n        /* \"#utility.yul\":2751:2920   */\n      swap3\n      swap2\n      pop\n      pop\n      jump\t// out\n        /* \"#utility.yul\":2926:3172   */\n    tag_238:\n        /* \"#utility.yul\":3007:3008   */\n      0x00\n        /* \"#utility.yul\":3017:3130   */\n    tag_316:\n        /* \"#utility.yul\":3031:3037   */\n      dup4\n        /* \"#utility.yul\":3028:3029   */\n      dup2\n        /* \"#utility.yul\":3025:3038   */\n      lt\n        /* \"#utility.yul\":3017:3130   */\n      iszero\n      tag_318\n      jumpi\n        /* \"#utility.yul\":3116:3117   */\n      dup1\n        /* \"#utility.yul\":3111:3114   */\n      dup3\n        /* \"#utility.yul\":3107:3118   */\n      add\n        /* \"#utility.yul\":3101:3119   */\n      mload\n        /* \"#utility.yul\":3097:3098   */\n      dup2\n        /* \"#utility.yul\":3092:3095   */\n      dup5\n        /* \"#utility.yul\":3088:3099   */\n      add\n        /* \"#utility.yul\":3081:3120   */\n      mstore\n        /* \"#utility.yul\":3053:3055   */\n      0x20\n        /* \"#utility.yul\":3050:3051   */\n      dup2\n        /* \"#utility.yul\":3046:3056   */\n      add\n        /* \"#utility.yul\":3041:3056   */\n      swap1\n      pop\n        /* \"#utility.yul\":3017:3130   */\n      jump(tag_316)\n    tag_318:\n        /* \"#utility.yul\":3164:3165   */\n      0x00\n        /* \"#utility.yul\":3155:3161   */\n      dup5\n        /* \"#utility.yul\":3150:3153   */\n      dup5\n        /* \"#utility.yul\":3146:3162   */\n      add\n        /* \"#utility.yul\":3139:3166   */\n      mstore\n        /* \"#utility.yul\":2988:3172   */\n      pop\n        /* \"#utility.yul\":2926:3172   */\n      pop\n      pop\n      pop\n      jump\t// out\n        /* \"#utility.yul\":3178:3280   */\n    tag_239:\n        /* \"#utility.yul\":3219:3225   */\n      0x00\n        /* \"#utility.yul\":3270:3272   */\n      0x1f\n        /* \"#utility.yul\":3266:3273   */\n      not\n        /* \"#utility.yul\":3261:3263   */\n      0x1f\n        /* \"#utility.yul\":3254:3259   */\n      dup4\n        /* \"#utility.yul\":3250:3264   */\n      add\n        /* \"#utility.yul\":3246:3274   */\n      and\n        /* \"#utility.yul\":3236:3274   */\n      swap1\n      pop\n        /* \"#utility.yul\":3178:3280   */\n      swap2\n      swap1\n      pop\n      jump\t// out\n        /* \"#utility.yul\":3286:3663   */\n    tag_240:\n        /* \"#utility.yul\":3374:3377   */\n      0x00\n        /* \"#utility.yul\":3402:3441   */\n      tag_321\n        /* \"#utility.yul\":3435:3440   */\n      dup3\n        /* \"#utility.yul\":3402:3441   */\n      tag_236\n      jump\t// in\n    tag_321:\n        /* \"#utility.yul\":3457:3528   */\n      tag_322\n        /* \"#utility.yul\":3521:3527   */\n      dup2\n        /* \"#utility.yul\":3516:3519   */\n      dup6\n        /* \"#utility.yul\":3457:3528   */\n      tag_237\n      jump\t// in\n    tag_322:\n        /* \"#utility.yul\":3450:3528   */\n      swap4\n      pop\n        /* \"#utility.yul\":3537:3602   */\n      tag_323\n        /* \"#utility.yul\":3595:3601   */\n      dup2\n        /* \"#utility.yul\":3590:3593   */\n      dup6\n        /* \"#utility.yul\":3583:3587   */\n      0x20\n        /* \"#utility.yul\":3576:3581   */\n      dup7\n        /* \"#utility.yul\":3572:3588   */\n      add\n        /* \"#utility.yul\":3537:3602   */\n      tag_238\n      jump\t// in\n    tag_323:\n        /* \"#utility.yul\":3627:3656   */\n      tag_324\n        /* \"#utility.yul\":3649:3655   */\n      dup2\n        /* \"#utility.yul\":3627:3656   */\n      tag_239\n      jump\t// in\n    tag_324:\n        /* \"#utility.yul\":3622:3625   */\n      dup5\n        /* \"#utility.yul\":3618:3657   */\n      add\n        /* \"#utility.yul\":3611:3657   */\n      swap2\n      pop\n        /* \"#utility.yul\":3378:3663   */\n      pop\n        /* \"#utility.yul\":3286:3663   */\n      swap3\n      swap2\n      pop\n      pop\n      jump\t// out\n        /* \"#utility.yul\":3669:3982   */\n    tag_47:\n        /* \"#utility.yul\":3782:3786   */\n      0x00\n        /* \"#utility.yul\":3820:3822   */\n      0x20\n        /* \"#utility.yul\":3809:3818   */\n      dup3\n        /* \"#utility.yul\":3805:3823   */\n      add\n        /* \"#utility.yul\":3797:3823   */\n      swap1\n      pop\n        /* \"#utility.yul\":3869:3878   */\n      dup2\n        /* \"#utility.yul\":3863:3867   */\n      dup2\n        /* \"#utility.yul\":3859:3879   */\n      sub\n        /* \"#utility.yul\":3855:3856   */\n      0x00\n        /* \"#utility.yul\":3844:3853   */\n      dup4\n        /* \"#utility.yul\":3840:3857   */\n      add\n        /* \"#utility.yul\":3833:3880   */\n      mstore\n        /* \"#utility.yul\":3897:3975   */\n      tag_326\n        /* \"#utility.yul\":3970:3974   */\n      dup2\n        /* \"#utility.yul\":3961:3967   */\n      dup5\n        /* \"#utility.yul\":3897:3975   */\n      tag_240\n      jump\t// in\n    tag_326:\n        /* \"#utility.yul\":3889:3975   */\n      swap1\n      pop\n        /* \"#utility.yul\":3669:3982   */\n      swap3\n      swap2\n      pop\n      pop\n      jump\t// out\n        /* \"#utility.yul\":3988:4106   */\n    tag_241:\n        /* \"#utility.yul\":4075:4099   */\n      tag_328\n        /* \"#utility.yul\":4093:4098   */\n      dup2\n        /* \"#utility.yul\":4075:4099   */\n      tag_229\n      jump\t// in\n    tag_328:\n        /* \"#utility.yul\":4070:4073   */\n      dup3\n        /* \"#utility.yul\":4063:4100   */\n      mstore\n        /* \"#utility.yul\":3988:4106   */\n      pop\n      pop\n      jump\t// out\n        /* \"#utility.yul\":4112:4334   */\n    tag_81:\n        /* \"#utility.yul\":4205:4209   */\n      0x00\n        /* \"#utility.yul\":4243:4245   */\n      0x20\n        /* \"#utility.yul\":4232:4241   */\n      dup3\n        /* \"#utility.yul\":4228:4246   */\n      add\n        /* \"#utility.yul\":4220:4246   */\n      swap1\n      pop\n        /* \"#utility.yul\":4256:4327   */\n      tag_330\n        /* \"#utility.yul\":4324:4325   */\n      0x00\n        /* \"#utility.yul\":4313:4322   */\n      dup4\n        /* \"#utility.yul\":4309:4326   */\n      add\n        /* \"#utility.yul\":4300:4306   */\n      dup5\n        /* \"#utility.yul\":4256:4327   */\n      tag_241\n      jump\t// in\n    tag_330:\n        /* \"#utility.yul\":4112:4334   */\n      swap3\n      swap2\n      pop\n      pop\n      jump\t// out\n        /* \"#utility.yul\":4340:4464   */\n    tag_242:\n        /* \"#utility.yul\":4417:4423   */\n      0x00\n        /* \"#utility.yul\":4451:4456   */\n      dup2\n        /* \"#utility.yul\":4445:4457   */\n      mload\n        /* \"#utility.yul\":4435:4457   */\n      swap1\n      pop\n        /* \"#utility.yul\":4340:4464   */\n      swap2\n      swap1\n      pop\n      jump\t// out\n        /* \"#utility.yul\":4470:4664   */\n    tag_243:\n        /* \"#utility.yul\":4579:4590   */\n      0x00\n        /* \"#utility.yul\":4613:4619   */\n      dup3\n        /* \"#utility.yul\":4608:4611   */\n      dup3\n        /* \"#utility.yul\":4601:4620   */\n      mstore\n        /* \"#utility.yul\":4653:4657   */\n      0x20\n        /* \"#utility.yul\":4648:4651   */\n      dup3\n        /* \"#utility.yul\":4644:4658   */\n      add\n        /* \"#utility.yul\":4629:4658   */\n      swap1\n      pop\n        /* \"#utility.yul\":4470:4664   */\n      swap3\n      swap2\n      pop\n      pop\n      jump\t// out\n        /* \"#utility.yul\":4670:4812   */\n    tag_244:\n        /* \"#utility.yul\":4747:4751   */\n      0x00\n        /* \"#utility.yul\":4770:4773   */\n      dup2\n        /* \"#utility.yul\":4762:4773   */\n      swap1\n      pop\n        /* \"#utility.yul\":4800:4804   */\n      0x20\n        /* \"#utility.yul\":4795:4798   */\n      dup3\n        /* \"#utility.yul\":4791:4805   */\n      add\n        /* \"#utility.yul\":4783:4805   */\n      swap1\n      pop\n        /* \"#utility.yul\":4670:4812   */\n      swap2\n      swap1\n      pop\n      jump\t// out\n        /* \"#utility.yul\":4818:4977   */\n    tag_245:\n        /* \"#utility.yul\":4892:4903   */\n      0x00\n        /* \"#utility.yul\":4926:4932   */\n      dup3\n        /* \"#utility.yul\":4921:4924   */\n      dup3\n        /* \"#utility.yul\":4914:4933   */\n      mstore\n        /* \"#utility.yul\":4966:4970   */\n      0x20\n        /* \"#utility.yul\":4961:4964   */\n      dup3\n        /* \"#utility.yul\":4957:4971   */\n      add\n        /* \"#utility.yul\":4942:4971   */\n      swap1\n      pop\n        /* \"#utility.yul\":4818:4977   */\n      swap3\n      swap2\n      pop\n      pop\n      jump\t// out\n        /* \"#utility.yul\":4983:5340   */\n    tag_246:\n        /* \"#utility.yul\":5061:5064   */\n      0x00\n        /* \"#utility.yul\":5089:5128   */\n      tag_336\n        /* \"#utility.yul\":5122:5127   */\n      dup3\n        /* \"#utility.yul\":5089:5128   */\n      tag_236\n      jump\t// in\n    tag_336:\n        /* \"#utility.yul\":5144:5205   */\n      tag_337\n        /* \"#utility.yul\":5198:5204   */\n      dup2\n        /* \"#utility.yul\":5193:5196   */\n      dup6\n        /* \"#utility.yul\":5144:5205   */\n      tag_245\n      jump\t// in\n    tag_337:\n        /* \"#utility.yul\":5137:5205   */\n      swap4\n      pop\n        /* \"#utility.yul\":5214:5279   */\n      tag_338\n        /* \"#utility.yul\":5272:5278   */\n      dup2\n        /* \"#utility.yul\":5267:5270   */\n      dup6\n        /* \"#utility.yul\":5260:5264   */\n      0x20\n        /* \"#utility.yul\":5253:5258   */\n      dup7\n        /* \"#utility.yul\":5249:5265   */\n      add\n        /* \"#utility.yul\":5214:5279   */\n      tag_238\n      jump\t// in\n    tag_338:\n        /* \"#utility.yul\":5304:5333   */\n      tag_339\n        /* \"#utility.yul\":5326:5332   */\n      dup2\n        /* \"#utility.yul\":5304:5333   */\n      tag_239\n      jump\t// in\n    tag_339:\n        /* \"#utility.yul\":5299:5302   */\n      dup5\n        /* \"#utility.yul\":5295:5334   */\n      add\n        /* \"#utility.yul\":5288:5334   */\n      swap2\n      pop\n        /* \"#utility.yul\":5065:5340   */\n      pop\n        /* \"#utility.yul\":4983:5340   */\n      swap3\n      swap2\n      pop\n      pop\n      jump\t// out\n        /* \"#utility.yul\":5346:5542   */\n    tag_247:\n        /* \"#utility.yul\":5435:5445   */\n      0x00\n        /* \"#utility.yul\":5470:5536   */\n      tag_341\n        /* \"#utility.yul\":5532:5535   */\n      dup4\n        /* \"#utility.yul\":5524:5530   */\n      dup4\n        /* \"#utility.yul\":5470:5536   */\n      tag_246\n      jump\t// in\n    tag_341:\n        /* \"#utility.yul\":5456:5536   */\n      swap1\n      pop\n        /* \"#utility.yul\":5346:5542   */\n      swap3\n      swap2\n      pop\n      pop\n      jump\t// out\n        /* \"#utility.yul\":5548:5671   */\n    tag_248:\n        /* \"#utility.yul\":5628:5632   */\n      0x00\n        /* \"#utility.yul\":5660:5664   */\n      0x20\n        /* \"#utility.yul\":5655:5658   */\n      dup3\n        /* \"#utility.yul\":5651:5665   */\n      add\n        /* \"#utility.yul\":5643:5665   */\n      swap1\n      pop\n        /* \"#utility.yul\":5548:5671   */\n      swap2\n      swap1\n      pop\n      jump\t// out\n        /* \"#utility.yul\":5705:6696   */\n    tag_249:\n        /* \"#utility.yul\":5844:5847   */\n      0x00\n        /* \"#utility.yul\":5873:5937   */\n      tag_344\n        /* \"#utility.yul\":5931:5936   */\n      dup3\n        /* \"#utility.yul\":5873:5937   */\n      tag_242\n      jump\t// in\n    tag_344:\n        /* \"#utility.yul\":5953:6049   */\n      tag_345\n        /* \"#utility.yul\":6042:6048   */\n      dup2\n        /* \"#utility.yul\":6037:6040   */\n      dup6\n        /* \"#utility.yul\":5953:6049   */\n      tag_243\n      jump\t// in\n    tag_345:\n        /* \"#utility.yul\":5946:6049   */\n      swap4\n      pop\n        /* \"#utility.yul\":6075:6078   */\n      dup4\n        /* \"#utility.yul\":6120:6124   */\n      0x20\n        /* \"#utility.yul\":6112:6118   */\n      dup3\n        /* \"#utility.yul\":6108:6125   */\n      mul\n        /* \"#utility.yul\":6103:6106   */\n      dup6\n        /* \"#utility.yul\":6099:6126   */\n      add\n        /* \"#utility.yul\":6150:6216   */\n      tag_346\n        /* \"#utility.yul\":6210:6215   */\n      dup6\n        /* \"#utility.yul\":6150:6216   */\n      tag_244\n      jump\t// in\n    tag_346:\n        /* \"#utility.yul\":6239:6246   */\n      dup1\n        /* \"#utility.yul\":6270:6271   */\n      0x00\n        /* \"#utility.yul\":6255:6651   */\n    tag_347:\n        /* \"#utility.yul\":6280:6286   */\n      dup6\n        /* \"#utility.yul\":6277:6278   */\n      dup2\n        /* \"#utility.yul\":6274:6287   */\n      lt\n        /* \"#utility.yul\":6255:6651   */\n      iszero\n      tag_349\n      jumpi\n        /* \"#utility.yul\":6351:6360   */\n      dup5\n        /* \"#utility.yul\":6345:6349   */\n      dup5\n        /* \"#utility.yul\":6341:6361   */\n      sub\n        /* \"#utility.yul\":6336:6339   */\n      dup10\n        /* \"#utility.yul\":6329:6362   */\n      mstore\n        /* \"#utility.yul\":6402:6408   */\n      dup2\n        /* \"#utility.yul\":6396:6409   */\n      mload\n        /* \"#utility.yul\":6430:6514   */\n      tag_350\n        /* \"#utility.yul\":6509:6513   */\n      dup6\n        /* \"#utility.yul\":6494:6507   */\n      dup3\n        /* \"#utility.yul\":6430:6514   */\n      tag_247\n      jump\t// in\n    tag_350:\n        /* \"#utility.yul\":6422:6514   */\n      swap5\n      pop\n        /* \"#utility.yul\":6537:6607   */\n      tag_351\n        /* \"#utility.yul\":6600:6606   */\n      dup4\n        /* \"#utility.yul\":6537:6607   */\n      tag_248\n      jump\t// in\n    tag_351:\n        /* \"#utility.yul\":6527:6607   */\n      swap3\n      pop\n        /* \"#utility.yul\":6636:6640   */\n      0x20\n        /* \"#utility.yul\":6631:6634   */\n      dup11\n        /* \"#utility.yul\":6627:6641   */\n      add\n        /* \"#utility.yul\":6620:6641   */\n      swap10\n      pop\n        /* \"#utility.yul\":6315:6651   */\n      pop\n        /* \"#utility.yul\":6302:6303   */\n      0x01\n        /* \"#utility.yul\":6299:6300   */\n      dup2\n        /* \"#utility.yul\":6295:6304   */\n      add\n        /* \"#utility.yul\":6290:6304   */\n      swap1\n      pop\n        /* \"#utility.yul\":6255:6651   */\n      jump(tag_347)\n    tag_349:\n        /* \"#utility.yul\":6259:6273   */\n      pop\n        /* \"#utility.yul\":6667:6671   */\n      dup3\n        /* \"#utility.yul\":6660:6671   */\n      swap8\n      pop\n        /* \"#utility.yul\":6687:6690   */\n      dup8\n        /* \"#utility.yul\":6680:6690   */\n      swap6\n      pop\n        /* \"#utility.yul\":5849:6696   */\n      pop\n      pop\n      pop\n      pop\n      pop\n        /* \"#utility.yul\":5705:6696   */\n      swap3\n      swap2\n      pop\n      pop\n      jump\t// out\n        /* \"#utility.yul\":6702:7115   */\n    tag_85:\n        /* \"#utility.yul\":6865:6869   */\n      0x00\n        /* \"#utility.yul\":6903:6905   */\n      0x20\n        /* \"#utility.yul\":6892:6901   */\n      dup3\n        /* \"#utility.yul\":6888:6906   */\n      add\n        /* \"#utility.yul\":6880:6906   */\n      swap1\n      pop\n        /* \"#utility.yul\":6952:6961   */\n      dup2\n        /* \"#utility.yul\":6946:6950   */\n      dup2\n        /* \"#utility.yul\":6942:6962   */\n      sub\n        /* \"#utility.yul\":6938:6939   */\n      0x00\n        /* \"#utility.yul\":6927:6936   */\n      dup4\n        /* \"#utility.yul\":6923:6940   */\n      add\n        /* \"#utility.yul\":6916:6963   */\n      mstore\n        /* \"#utility.yul\":6980:7108   */\n      tag_353\n        /* \"#utility.yul\":7103:7107   */\n      dup2\n        /* \"#utility.yul\":7094:7100   */\n      dup5\n        /* \"#utility.yul\":6980:7108   */\n      tag_249\n      jump\t// in\n    tag_353:\n        /* \"#utility.yul\":6972:7108   */\n      swap1\n      pop\n        /* \"#utility.yul\":6702:7115   */\n      swap3\n      swap2\n      pop\n      pop\n      jump\t// out\n        /* \"#utility.yul\":7121:7287   */\n    tag_250:\n        /* \"#utility.yul\":7261:7279   */\n      0x596f75277265206e6f7420737461666600000000000000000000000000000000\n        /* \"#utility.yul\":7257:7258   */\n      0x00\n        /* \"#utility.yul\":7249:7255   */\n      dup3\n        /* \"#utility.yul\":7245:7259   */\n      add\n        /* \"#utility.yul\":7238:7280   */\n      mstore\n        /* \"#utility.yul\":7121:7287   */\n      pop\n      jump\t// out\n        /* \"#utility.yul\":7293:7659   */\n    tag_251:\n        /* \"#utility.yul\":7435:7438   */\n      0x00\n        /* \"#utility.yul\":7456:7523   */\n      tag_356\n        /* \"#utility.yul\":7520:7522   */\n      0x10\n        /* \"#utility.yul\":7515:7518   */\n      dup4\n        /* \"#utility.yul\":7456:7523   */\n      tag_237\n      jump\t// in\n    tag_356:\n        /* \"#utility.yul\":7449:7523   */\n      swap2\n      pop\n        /* \"#utility.yul\":7532:7625   */\n      tag_357\n        /* \"#utility.yul\":7621:7624   */\n      dup3\n        /* \"#utility.yul\":7532:7625   */\n      tag_250\n      jump\t// in\n    tag_357:\n        /* \"#utility.yul\":7650:7652   */\n      0x20\n        /* \"#utility.yul\":7645:7648   */\n      dup3\n        /* \"#utility.yul\":7641:7653   */\n      add\n        /* \"#utility.yul\":7634:7653   */\n      swap1\n      pop\n        /* \"#utility.yul\":7293:7659   */\n      swap2\n      swap1\n      pop\n      jump\t// out\n        /* \"#utility.yul\":7665:8084   */\n    tag_113:\n        /* \"#utility.yul\":7831:7835   */\n      0x00\n        /* \"#utility.yul\":7869:7871   */\n      0x20\n        /* \"#utility.yul\":7858:7867   */\n      dup3\n        /* \"#utility.yul\":7854:7872   */\n      add\n        /* \"#utility.yul\":7846:7872   */\n      swap1\n      pop\n        /* \"#utility.yul\":7918:7927   */\n      dup2\n        /* \"#utility.yul\":7912:7916   */\n      dup2\n        /* \"#utility.yul\":7908:7928   */\n      sub\n        /* \"#utility.yul\":7904:7905   */\n      0x00\n        /* \"#utility.yul\":7893:7902   */\n      dup4\n        /* \"#utility.yul\":7889:7906   */\n      add\n        /* \"#utility.yul\":7882:7929   */\n      mstore\n        /* \"#utility.yul\":7946:8077   */\n      tag_359\n        /* \"#utility.yul\":8072:8076   */\n      dup2\n        /* \"#utility.yul\":7946:8077   */\n      tag_251\n      jump\t// in\n    tag_359:\n        /* \"#utility.yul\":7938:8077   */\n      swap1\n      pop\n        /* \"#utility.yul\":7665:8084   */\n      swap2\n      swap1\n      pop\n      jump\t// out\n        /* \"#utility.yul\":8090:8262   */\n    tag_252:\n        /* \"#utility.yul\":8230:8254   */\n      0x417474656e64656520616c726561647920616464656400000000000000000000\n        /* \"#utility.yul\":8226:8227   */\n      0x00\n        /* \"#utility.yul\":8218:8224   */\n      dup3\n        /* \"#utility.yul\":8214:8228   */\n      add\n        /* \"#utility.yul\":8207:8255   */\n      mstore\n        /* \"#utility.yul\":8090:8262   */\n      pop\n      jump\t// out\n        /* \"#utility.yul\":8268:8634   */\n    tag_253:\n        /* \"#utility.yul\":8410:8413   */\n      0x00\n        /* \"#utility.yul\":8431:8498   */\n      tag_362\n        /* \"#utility.yul\":8495:8497   */\n      0x16\n        /* \"#utility.yul\":8490:8493   */\n      dup4\n        /* \"#utility.yul\":8431:8498   */\n      tag_237\n      jump\t// in\n    tag_362:\n        /* \"#utility.yul\":8424:8498   */\n      swap2\n      pop\n        /* \"#utility.yul\":8507:8600   */\n      tag_363\n        /* \"#utility.yul\":8596:8599   */\n      dup3\n        /* \"#utility.yul\":8507:8600   */\n      tag_252\n      jump\t// in\n    tag_363:\n        /* \"#utility.yul\":8625:8627   */\n      0x20\n        /* \"#utility.yul\":8620:8623   */\n      dup3\n        /* \"#utility.yul\":8616:8628   */\n      add\n        /* \"#utility.yul\":8609:8628   */\n      swap1\n      pop\n        /* \"#utility.yul\":8268:8634   */\n      swap2\n      swap1\n      pop\n      jump\t// out\n        /* \"#utility.yul\":8640:9059   */\n    tag_117:\n        /* \"#utility.yul\":8806:8810   */\n      0x00\n        /* \"#utility.yul\":8844:8846   */\n      0x20\n        /* \"#utility.yul\":8833:8842   */\n      dup3\n        /* \"#utility.yul\":8829:8847   */\n      add\n        /* \"#utility.yul\":8821:8847   */\n      swap1\n      pop\n        /* \"#utility.yul\":8893:8902   */\n      dup2\n        /* \"#utility.yul\":8887:8891   */\n      dup2\n        /* \"#utility.yul\":8883:8903   */\n      sub\n        /* \"#utility.yul\":8879:8880   */\n      0x00\n        /* \"#utility.yul\":8868:8877   */\n      dup4\n        /* \"#utility.yul\":8864:8881   */\n      add\n        /* \"#utility.yul\":8857:8904   */\n      mstore\n        /* \"#utility.yul\":8921:9052   */\n      tag_365\n        /* \"#utility.yul\":9047:9051   */\n      dup2\n        /* \"#utility.yul\":8921:9052   */\n      tag_253\n      jump\t// in\n    tag_365:\n        /* \"#utility.yul\":8913:9052   */\n      swap1\n      pop\n        /* \"#utility.yul\":8640:9059   */\n      swap2\n      swap1\n      pop\n      jump\t// out\n        /* \"#utility.yul\":9065:9228   */\n    tag_254:\n        /* \"#utility.yul\":9205:9220   */\n      0x4576656e742069732066756c6c00000000000000000000000000000000000000\n        /* \"#utility.yul\":9201:9202   */\n      0x00\n        /* \"#utility.yul\":9193:9199   */\n      dup3\n        /* \"#utility.yul\":9189:9203   */\n      add\n        /* \"#utility.yul\":9182:9221   */\n      mstore\n        /* \"#utility.yul\":9065:9228   */\n      pop\n      jump\t// out\n        /* \"#utility.yul\":9234:9600   */\n    tag_255:\n        /* \"#utility.yul\":9376:9379   */\n      0x00\n        /* \"#utility.yul\":9397:9464   */\n      tag_368\n        /* \"#utility.yul\":9461:9463   */\n      0x0d\n        /* \"#utility.yul\":9456:9459   */\n      dup4\n        /* \"#utility.yul\":9397:9464   */\n      tag_237\n      jump\t// in\n    tag_368:\n        /* \"#utility.yul\":9390:9464   */\n      swap2\n      pop\n        /* \"#utility.yul\":9473:9566   */\n      tag_369\n        /* \"#utility.yul\":9562:9565   */\n      dup3\n        /* \"#utility.yul\":9473:9566   */\n      tag_254\n      jump\t// in\n    tag_369:\n        /* \"#utility.yul\":9591:9593   */\n      0x20\n        /* \"#utility.yul\":9586:9589   */\n      dup3\n        /* \"#utility.yul\":9582:9594   */\n      add\n        /* \"#utility.yul\":9575:9594   */\n      swap1\n      pop\n        /* \"#utility.yul\":9234:9600   */\n      swap2\n      swap1\n      pop\n      jump\t// out\n        /* \"#utility.yul\":9606:10025   */\n    tag_120:\n        /* \"#utility.yul\":9772:9776   */\n      0x00\n        /* \"#utility.yul\":9810:9812   */\n      0x20\n        /* \"#utility.yul\":9799:9808   */\n      dup3\n        /* \"#utility.yul\":9795:9813   */\n      add\n        /* \"#utility.yul\":9787:9813   */\n      swap1\n      pop\n        /* \"#utility.yul\":9859:9868   */\n      dup2\n        /* \"#utility.yul\":9853:9857   */\n      dup2\n        /* \"#utility.yul\":9849:9869   */\n      sub\n        /* \"#utility.yul\":9845:9846   */\n      0x00\n        /* \"#utility.yul\":9834:9843   */\n      dup4\n        /* \"#utility.yul\":9830:9847   */\n      add\n        /* \"#utility.yul\":9823:9870   */\n      mstore\n        /* \"#utility.yul\":9887:10018   */\n      tag_371\n        /* \"#utility.yul\":10013:10017   */\n      dup2\n        /* \"#utility.yul\":9887:10018   */\n      tag_255\n      jump\t// in\n    tag_371:\n        /* \"#utility.yul\":9879:10018   */\n      swap1\n      pop\n        /* \"#utility.yul\":9606:10025   */\n      swap2\n      swap1\n      pop\n      jump\t// out\n        /* \"#utility.yul\":10031:10211   */\n    tag_256:\n        /* \"#utility.yul\":10079:10156   */\n      0x4e487b7100000000000000000000000000000000000000000000000000000000\n        /* \"#utility.yul\":10076:10077   */\n      0x00\n        /* \"#utility.yul\":10069:10157   */\n      mstore\n        /* \"#utility.yul\":10176:10180   */\n      0x11\n        /* \"#utility.yul\":10173:10174   */\n      0x04\n        /* \"#utility.yul\":10166:10181   */\n      mstore\n        /* \"#utility.yul\":10200:10204   */\n      0x24\n        /* \"#utility.yul\":10197:10198   */\n      0x00\n        /* \"#utility.yul\":10190:10205   */\n      revert\n        /* \"#utility.yul\":10217:10408   */\n    tag_122:\n        /* \"#utility.yul\":10257:10260   */\n      0x00\n        /* \"#utility.yul\":10276:10296   */\n      tag_374\n        /* \"#utility.yul\":10294:10295   */\n      dup3\n        /* \"#utility.yul\":10276:10296   */\n      tag_223\n      jump\t// in\n    tag_374:\n        /* \"#utility.yul\":10271:10296   */\n      swap2\n      pop\n        /* \"#utility.yul\":10310:10330   */\n      tag_375\n        /* \"#utility.yul\":10328:10329   */\n      dup4\n        /* \"#utility.yul\":10310:10330   */\n      tag_223\n      jump\t// in\n    tag_375:\n        /* \"#utility.yul\":10305:10330   */\n      swap3\n      pop\n        /* \"#utility.yul\":10353:10354   */\n      dup3\n        /* \"#utility.yul\":10350:10351   */\n      dup3\n        /* \"#utility.yul\":10346:10355   */\n      add\n        /* \"#utility.yul\":10339:10355   */\n      swap1\n      pop\n        /* \"#utility.yul\":10374:10377   */\n      dup1\n        /* \"#utility.yul\":10371:10372   */\n      dup3\n        /* \"#utility.yul\":10368:10378   */\n      gt\n        /* \"#utility.yul\":10365:10401   */\n      iszero\n      tag_376\n      jumpi\n        /* \"#utility.yul\":10381:10399   */\n      tag_377\n      tag_256\n      jump\t// in\n    tag_377:\n        /* \"#utility.yul\":10365:10401   */\n    tag_376:\n        /* \"#utility.yul\":10217:10408   */\n      swap3\n      swap2\n      pop\n      pop\n      jump\t// out\n        /* \"#utility.yul\":10414:10594   */\n    tag_257:\n        /* \"#utility.yul\":10462:10539   */\n      0x4e487b7100000000000000000000000000000000000000000000000000000000\n        /* \"#utility.yul\":10459:10460   */\n      0x00\n        /* \"#utility.yul\":10452:10540   */\n      mstore\n        /* \"#utility.yul\":10559:10563   */\n      0x22\n        /* \"#utility.yul\":10556:10557   */\n      0x04\n        /* \"#utility.yul\":10549:10564   */\n      mstore\n        /* \"#utility.yul\":10583:10587   */\n      0x24\n        /* \"#utility.yul\":10580:10581   */\n      0x00\n        /* \"#utility.yul\":10573:10588   */\n      revert\n        /* \"#utility.yul\":10600:10920   */\n    tag_126:\n        /* \"#utility.yul\":10644:10650   */\n      0x00\n        /* \"#utility.yul\":10681:10682   */\n      0x02\n        /* \"#utility.yul\":10675:10679   */\n      dup3\n        /* \"#utility.yul\":10671:10683   */\n      div\n        /* \"#utility.yul\":10661:10683   */\n      swap1\n      pop\n        /* \"#utility.yul\":10728:10729   */\n      0x01\n        /* \"#utility.yul\":10722:10726   */\n      dup3\n        /* \"#utility.yul\":10718:10730   */\n      and\n        /* \"#utility.yul\":10749:10767   */\n      dup1\n        /* \"#utility.yul\":10739:10820   */\n      tag_380\n      jumpi\n        /* \"#utility.yul\":10805:10809   */\n      0x7f\n        /* \"#utility.yul\":10797:10803   */\n      dup3\n        /* \"#utility.yul\":10793:10810   */\n      and\n        /* \"#utility.yul\":10783:10810   */\n      swap2\n      pop\n        /* \"#utility.yul\":10739:10820   */\n    tag_380:\n        /* \"#utility.yul\":10867:10869   */\n      0x20\n        /* \"#utility.yul\":10859:10865   */\n      dup3\n        /* \"#utility.yul\":10856:10870   */\n      lt\n        /* \"#utility.yul\":10836:10854   */\n      dup2\n        /* \"#utility.yul\":10833:10871   */\n      sub\n        /* \"#utility.yul\":10830:10914   */\n      tag_381\n      jumpi\n        /* \"#utility.yul\":10886:10904   */\n      tag_382\n      tag_257\n      jump\t// in\n    tag_382:\n        /* \"#utility.yul\":10830:10914   */\n    tag_381:\n        /* \"#utility.yul\":10651:10920   */\n      pop\n        /* \"#utility.yul\":10600:10920   */\n      swap2\n      swap1\n      pop\n      jump\t// out\n        /* \"#utility.yul\":10926:11085   */\n    tag_258:\n        /* \"#utility.yul\":11066:11077   */\n      0x4e6f74206f776e65720000000000000000000000000000000000000000000000\n        /* \"#utility.yul\":11062:11063   */\n      0x00\n        /* \"#utility.yul\":11054:11060   */\n      dup3\n        /* \"#utility.yul\":11050:11064   */\n      add\n        /* \"#utility.yul\":11043:11078   */\n      mstore\n        /* \"#utility.yul\":10926:11085   */\n      pop\n      jump\t// out\n        /* \"#utility.yul\":11091:11456   */\n    tag_259:\n        /* \"#utility.yul\":11233:11236   */\n      0x00\n        /* \"#utility.yul\":11254:11320   */\n      tag_385\n        /* \"#utility.yul\":11318:11319   */\n      0x09\n        /* \"#utility.yul\":11313:11316   */\n      dup4\n        /* \"#utility.yul\":11254:11320   */\n      tag_237\n      jump\t// in\n    tag_385:\n        /* \"#utility.yul\":11247:11320   */\n      swap2\n      pop\n        /* \"#utility.yul\":11329:11422   */\n      tag_386\n        /* \"#utility.yul\":11418:11421   */\n      dup3\n        /* \"#utility.yul\":11329:11422   */\n      tag_258\n      jump\t// in\n    tag_386:\n        /* \"#utility.yul\":11447:11449   */\n      0x20\n        /* \"#utility.yul\":11442:11445   */\n      dup3\n        /* \"#utility.yul\":11438:11450   */\n      add\n        /* \"#utility.yul\":11431:11450   */\n      swap1\n      pop\n        /* \"#utility.yul\":11091:11456   */\n      swap2\n      swap1\n      pop\n      jump\t// out\n        /* \"#utility.yul\":11462:11881   */\n    tag_145:\n        /* \"#utility.yul\":11628:11632   */\n      0x00\n        /* \"#utility.yul\":11666:11668   */\n      0x20\n        /* \"#utility.yul\":11655:11664   */\n      dup3\n        /* \"#utility.yul\":11651:11669   */\n      add\n        /* \"#utility.yul\":11643:11669   */\n      swap1\n      pop\n        /* \"#utility.yul\":11715:11724   */\n      dup2\n        /* \"#utility.yul\":11709:11713   */\n      dup2\n        /* \"#utility.yul\":11705:11725   */\n      sub\n        /* \"#utility.yul\":11701:11702   */\n      0x00\n        /* \"#utility.yul\":11690:11699   */\n      dup4\n        /* \"#utility.yul\":11686:11703   */\n      add\n        /* \"#utility.yul\":11679:11726   */\n      mstore\n        /* \"#utility.yul\":11743:11874   */\n      tag_388\n        /* \"#utility.yul\":11869:11873   */\n      dup2\n        /* \"#utility.yul\":11743:11874   */\n      tag_259\n      jump\t// in\n    tag_388:\n        /* \"#utility.yul\":11735:11874   */\n      swap1\n      pop\n        /* \"#utility.yul\":11462:11881   */\n      swap2\n      swap1\n      pop\n      jump\t// out\n        /* \"#utility.yul\":11887:12058   */\n    tag_260:\n        /* \"#utility.yul\":12027:12050   */\n      0x4576656e7420616c726561647920737461727465640000000000000000000000\n        /* \"#utility.yul\":12023:12024   */\n      0x00\n        /* \"#utility.yul\":12015:12021   */\n      dup3\n        /* \"#utility.yul\":12011:12025   */\n      add\n        /* \"#utility.yul\":12004:12051   */\n      mstore\n        /* \"#utility.yul\":11887:12058   */\n      pop\n      jump\t// out\n        /* \"#utility.yul\":12064:12430   */\n    tag_261:\n        /* \"#utility.yul\":12206:12209   */\n      0x00\n        /* \"#utility.yul\":12227:12294   */\n      tag_391\n        /* \"#utility.yul\":12291:12293   */\n      0x15\n        /* \"#utility.yul\":12286:12289   */\n      dup4\n        /* \"#utility.yul\":12227:12294   */\n      tag_237\n      jump\t// in\n    tag_391:\n        /* \"#utility.yul\":12220:12294   */\n      swap2\n      pop\n        /* \"#utility.yul\":12303:12396   */\n      tag_392\n        /* \"#utility.yul\":12392:12395   */\n      dup3\n        /* \"#utility.yul\":12303:12396   */\n      tag_260\n      jump\t// in\n    tag_392:\n        /* \"#utility.yul\":12421:12423   */\n      0x20\n        /* \"#utility.yul\":12416:12419   */\n      dup3\n        /* \"#utility.yul\":12412:12424   */\n      add\n        /* \"#utility.yul\":12405:12424   */\n      swap1\n      pop\n        /* \"#utility.yul\":12064:12430   */\n      swap2\n      swap1\n      pop\n      jump\t// out\n        /* \"#utility.yul\":12436:12855   */\n    tag_150:\n        /* \"#utility.yul\":12602:12606   */\n      0x00\n        /* \"#utility.yul\":12640:12642   */\n      0x20\n        /* \"#utility.yul\":12629:12638   */\n      dup3\n        /* \"#utility.yul\":12625:12643   */\n      add\n        /* \"#utility.yul\":12617:12643   */\n      swap1\n      pop\n        /* \"#utility.yul\":12689:12698   */\n      dup2\n        /* \"#utility.yul\":12683:12687   */\n      dup2\n        /* \"#utility.yul\":12679:12699   */\n      sub\n        /* \"#utility.yul\":12675:12676   */\n      0x00\n        /* \"#utility.yul\":12664:12673   */\n      dup4\n        /* \"#utility.yul\":12660:12677   */\n      add\n        /* \"#utility.yul\":12653:12700   */\n      mstore\n        /* \"#utility.yul\":12717:12848   */\n      tag_394\n        /* \"#utility.yul\":12843:12847   */\n      dup2\n        /* \"#utility.yul\":12717:12848   */\n      tag_261\n      jump\t// in\n    tag_394:\n        /* \"#utility.yul\":12709:12848   */\n      swap1\n      pop\n        /* \"#utility.yul\":12436:12855   */\n      swap2\n      swap1\n      pop\n      jump\t// out\n        /* \"#utility.yul\":12861:13029   */\n    tag_262:\n        /* \"#utility.yul\":13001:13021   */\n      0x4576656e742069732063616e63656c6c65640000000000000000000000000000\n        /* \"#utility.yul\":12997:12998   */\n      0x00\n        /* \"#utility.yul\":12989:12995   */\n      dup3\n        /* \"#utility.yul\":12985:12999   */\n      add\n        /* \"#utility.yul\":12978:13022   */\n      mstore\n        /* \"#utility.yul\":12861:13029   */\n      pop\n      jump\t// out\n        /* \"#utility.yul\":13035:13401   */\n    tag_263:\n        /* \"#utility.yul\":13177:13180   */\n      0x00\n        /* \"#utility.yul\":13198:13265   */\n      tag_397\n        /* \"#utility.yul\":13262:13264   */\n      0x12\n        /* \"#utility.yul\":13257:13260   */\n      dup4\n        /* \"#utility.yul\":13198:13265   */\n      tag_237\n      jump\t// in\n    tag_397:\n        /* \"#utility.yul\":13191:13265   */\n      swap2\n      pop\n        /* \"#utility.yul\":13274:13367   */\n      tag_398\n        /* \"#utility.yul\":13363:13366   */\n      dup3\n        /* \"#utility.yul\":13274:13367   */\n      tag_262\n      jump\t// in\n    tag_398:\n        /* \"#utility.yul\":13392:13394   */\n      0x20\n        /* \"#utility.yul\":13387:13390   */\n      dup3\n        /* \"#utility.yul\":13383:13395   */\n      add\n        /* \"#utility.yul\":13376:13395   */\n      swap1\n      pop\n        /* \"#utility.yul\":13035:13401   */\n      swap2\n      swap1\n      pop\n      jump\t// out\n        /* \"#utility.yul\":13407:13826   */\n    tag_153:\n        /* \"#utility.yul\":13573:13577   */\n      0x00\n        /* \"#utility.yul\":13611:13613   */\n      0x20\n        /* \"#utility.yul\":13600:13609   */\n      dup3\n        /* \"#utility.yul\":13596:13614   */\n      add\n        /* \"#utility.yul\":13588:13614   */\n      swap1\n      pop\n        /* \"#utility.yul\":13660:13669   */\n      dup2\n        /* \"#utility.yul\":13654:13658   */\n      dup2\n        /* \"#utility.yul\":13650:13670   */\n      sub\n        /* \"#utility.yul\":13646:13647   */\n      0x00\n        /* \"#utility.yul\":13635:13644   */\n      dup4\n        /* \"#utility.yul\":13631:13648   */\n      add\n        /* \"#utility.yul\":13624:13671   */\n      mstore\n        /* \"#utility.yul\":13688:13819   */\n      tag_400\n        /* \"#utility.yul\":13814:13818   */\n      dup2\n        /* \"#utility.yul\":13688:13819   */\n      tag_263\n      jump\t// in\n    tag_400:\n        /* \"#utility.yul\":13680:13819   */\n      swap1\n      pop\n        /* \"#utility.yul\":13407:13826   */\n      swap2\n      swap1\n      pop\n      jump\t// out\n        /* \"#utility.yul\":13832:14013   */\n    tag_264:\n        /* \"#utility.yul\":13972:14005   */\n      0x596f75277265206e6f7420617474656e64696e672074686973206576656e7400\n        /* \"#utility.yul\":13968:13969   */\n      0x00\n        /* \"#utility.yul\":13960:13966   */\n      dup3\n        /* \"#utility.yul\":13956:13970   */\n      add\n        /* \"#utility.yul\":13949:14006   */\n      mstore\n        /* \"#utility.yul\":13832:14013   */\n      pop\n      jump\t// out\n        /* \"#utility.yul\":14019:14385   */\n    tag_265:\n        /* \"#utility.yul\":14161:14164   */\n      0x00\n        /* \"#utility.yul\":14182:14249   */\n      tag_403\n        /* \"#utility.yul\":14246:14248   */\n      0x1f\n        /* \"#utility.yul\":14241:14244   */\n      dup4\n        /* \"#utility.yul\":14182:14249   */\n      tag_237\n      jump\t// in\n    tag_403:\n        /* \"#utility.yul\":14175:14249   */\n      swap2\n      pop\n        /* \"#utility.yul\":14258:14351   */\n      tag_404\n        /* \"#utility.yul\":14347:14350   */\n      dup3\n        /* \"#utility.yul\":14258:14351   */\n      tag_264\n      jump\t// in\n    tag_404:\n        /* \"#utility.yul\":14376:14378   */\n      0x20\n        /* \"#utility.yul\":14371:14374   */\n      dup3\n        /* \"#utility.yul\":14367:14379   */\n      add\n        /* \"#utility.yul\":14360:14379   */\n      swap1\n      pop\n        /* \"#utility.yul\":14019:14385   */\n      swap2\n      swap1\n      pop\n      jump\t// out\n        /* \"#utility.yul\":14391:14810   */\n    tag_157:\n        /* \"#utility.yul\":14557:14561   */\n      0x00\n        /* \"#utility.yul\":14595:14597   */\n      0x20\n        /* \"#utility.yul\":14584:14593   */\n      dup3\n        /* \"#utility.yul\":14580:14598   */\n      add\n        /* \"#utility.yul\":14572:14598   */\n      swap1\n      pop\n        /* \"#utility.yul\":14644:14653   */\n      dup2\n        /* \"#utility.yul\":14638:14642   */\n      dup2\n        /* \"#utility.yul\":14634:14654   */\n      sub\n        /* \"#utility.yul\":14630:14631   */\n      0x00\n        /* \"#utility.yul\":14619:14628   */\n      dup4\n        /* \"#utility.yul\":14615:14632   */\n      add\n        /* \"#utility.yul\":14608:14655   */\n      mstore\n        /* \"#utility.yul\":14672:14803   */\n      tag_406\n        /* \"#utility.yul\":14798:14802   */\n      dup2\n        /* \"#utility.yul\":14672:14803   */\n      tag_265\n      jump\t// in\n    tag_406:\n        /* \"#utility.yul\":14664:14803   */\n      swap1\n      pop\n        /* \"#utility.yul\":14391:14810   */\n      swap2\n      swap1\n      pop\n      jump\t// out\n        /* \"#utility.yul\":14816:14978   */\n    tag_266:\n        /* \"#utility.yul\":14956:14970   */\n      0x4e6f20617474656e646565730000000000000000000000000000000000000000\n        /* \"#utility.yul\":14952:14953   */\n      0x00\n        /* \"#utility.yul\":14944:14950   */\n      dup3\n        /* \"#utility.yul\":14940:14954   */\n      add\n        /* \"#utility.yul\":14933:14971   */\n      mstore\n        /* \"#utility.yul\":14816:14978   */\n      pop\n      jump\t// out\n        /* \"#utility.yul\":14984:15350   */\n    tag_267:\n        /* \"#utility.yul\":15126:15129   */\n      0x00\n        /* \"#utility.yul\":15147:15214   */\n      tag_409\n        /* \"#utility.yul\":15211:15213   */\n      0x0c\n        /* \"#utility.yul\":15206:15209   */\n      dup4\n        /* \"#utility.yul\":15147:15214   */\n      tag_237\n      jump\t// in\n    tag_409:\n        /* \"#utility.yul\":15140:15214   */\n      swap2\n      pop\n        /* \"#utility.yul\":15223:15316   */\n      tag_410\n        /* \"#utility.yul\":15312:15315   */\n      dup3\n        /* \"#utility.yul\":15223:15316   */\n      tag_266\n      jump\t// in\n    tag_410:\n        /* \"#utility.yul\":15341:15343   */\n      0x20\n        /* \"#utility.yul\":15336:15339   */\n      dup3\n        /* \"#utility.yul\":15332:15344   */\n      add\n        /* \"#utility.yul\":15325:15344   */\n      swap1\n      pop\n        /* \"#utility.yul\":14984:15350   */\n      swap2\n      swap1\n      pop\n      jump\t// out\n        /* \"#utility.yul\":15356:15775   */\n    tag_160:\n        /* \"#utility.yul\":15522:15526   */\n      0x00\n        /* \"#utility.yul\":15560:15562   */\n      0x20\n        /* \"#utility.yul\":15549:15558   */\n      dup3\n        /* \"#utility.yul\":15545:15563   */\n      add\n        /* \"#utility.yul\":15537:15563   */\n      swap1\n      pop\n        /* \"#utility.yul\":15609:15618   */\n      dup2\n        /* \"#utility.yul\":15603:15607   */\n      dup2\n        /* \"#utility.yul\":15599:15619   */\n      sub\n        /* \"#utility.yul\":15595:15596   */\n      0x00\n        /* \"#utility.yul\":15584:15593   */\n      dup4\n        /* \"#utility.yul\":15580:15597   */\n      add\n        /* \"#utility.yul\":15573:15620   */\n      mstore\n        /* \"#utility.yul\":15637:15768   */\n      tag_412\n        /* \"#utility.yul\":15763:15767   */\n      dup2\n        /* \"#utility.yul\":15637:15768   */\n      tag_267\n      jump\t// in\n    tag_412:\n        /* \"#utility.yul\":15629:15768   */\n      swap1\n      pop\n        /* \"#utility.yul\":15356:15775   */\n      swap2\n      swap1\n      pop\n      jump\t// out\n        /* \"#utility.yul\":15781:15975   */\n    tag_162:\n        /* \"#utility.yul\":15821:15825   */\n      0x00\n        /* \"#utility.yul\":15841:15861   */\n      tag_414\n        /* \"#utility.yul\":15859:15860   */\n      dup3\n        /* \"#utility.yul\":15841:15861   */\n      tag_223\n      jump\t// in\n    tag_414:\n        /* \"#utility.yul\":15836:15861   */\n      swap2\n      pop\n        /* \"#utility.yul\":15875:15895   */\n      tag_415\n        /* \"#utility.yul\":15893:15894   */\n      dup4\n        /* \"#utility.yul\":15875:15895   */\n      tag_223\n      jump\t// in\n    tag_415:\n        /* \"#utility.yul\":15870:15895   */\n      swap3\n      pop\n        /* \"#utility.yul\":15919:15920   */\n      dup3\n        /* \"#utility.yul\":15916:15917   */\n      dup3\n        /* \"#utility.yul\":15912:15921   */\n      sub\n        /* \"#utility.yul\":15904:15921   */\n      swap1\n      pop\n        /* \"#utility.yul\":15943:15944   */\n      dup2\n        /* \"#utility.yul\":15937:15941   */\n      dup2\n        /* \"#utility.yul\":15934:15945   */\n      gt\n        /* \"#utility.yul\":15931:15968   */\n      iszero\n      tag_416\n      jumpi\n        /* \"#utility.yul\":15948:15966   */\n      tag_417\n      tag_256\n      jump\t// in\n    tag_417:\n        /* \"#utility.yul\":15931:15968   */\n    tag_416:\n        /* \"#utility.yul\":15781:15975   */\n      swap3\n      swap2\n      pop\n      pop\n      jump\t// out\n        /* \"#utility.yul\":15981:16153   */\n    tag_268:\n        /* \"#utility.yul\":16121:16145   */\n      0x4576656e7420616c72656164792066696e697368656400000000000000000000\n        /* \"#utility.yul\":16117:16118   */\n      0x00\n        /* \"#utility.yul\":16109:16115   */\n      dup3\n        /* \"#utility.yul\":16105:16119   */\n      add\n        /* \"#utility.yul\":16098:16146   */\n      mstore\n        /* \"#utility.yul\":15981:16153   */\n      pop\n      jump\t// out\n        /* \"#utility.yul\":16159:16525   */\n    tag_269:\n        /* \"#utility.yul\":16301:16304   */\n      0x00\n        /* \"#utility.yul\":16322:16389   */\n      tag_420\n        /* \"#utility.yul\":16386:16388   */\n      0x16\n        /* \"#utility.yul\":16381:16384   */\n      dup4\n        /* \"#utility.yul\":16322:16389   */\n      tag_237\n      jump\t// in\n    tag_420:\n        /* \"#utility.yul\":16315:16389   */\n      swap2\n      pop\n        /* \"#utility.yul\":16398:16491   */\n      tag_421\n        /* \"#utility.yul\":16487:16490   */\n      dup3\n        /* \"#utility.yul\":16398:16491   */\n      tag_268\n      jump\t// in\n    tag_421:\n        /* \"#utility.yul\":16516:16518   */\n      0x20\n        /* \"#utility.yul\":16511:16514   */\n      dup3\n        /* \"#utility.yul\":16507:16519   */\n      add\n        /* \"#utility.yul\":16500:16519   */\n      swap1\n      pop\n        /* \"#utility.yul\":16159:16525   */\n      swap2\n      swap1\n      pop\n      jump\t// out\n        /* \"#utility.yul\":16531:16950   */\n    tag_175:\n        /* \"#utility.yul\":16697:16701   */\n      0x00\n        /* \"#utility.yul\":16735:16737   */\n      0x20\n        /* \"#utility.yul\":16724:16733   */\n      dup3\n        /* \"#utility.yul\":16720:16738   */\n      add\n        /* \"#utility.yul\":16712:16738   */\n      swap1\n      pop\n        /* \"#utility.yul\":16784:16793   */\n      dup2\n        /* \"#utility.yul\":16778:16782   */\n      dup2\n        /* \"#utility.yul\":16774:16794   */\n      sub\n        /* \"#utility.yul\":16770:16771   */\n      0x00\n        /* \"#utility.yul\":16759:16768   */\n      dup4\n        /* \"#utility.yul\":16755:16772   */\n      add\n        /* \"#utility.yul\":16748:16795   */\n      mstore\n        /* \"#utility.yul\":16812:16943   */\n      tag_423\n        /* \"#utility.yul\":16938:16942   */\n      dup2\n        /* \"#utility.yul\":16812:16943   */\n      tag_269\n      jump\t// in\n    tag_423:\n        /* \"#utility.yul\":16804:16943   */\n      swap1\n      pop\n        /* \"#utility.yul\":16531:16950   */\n      swap2\n      swap1\n      pop\n      jump\t// out\n        /* \"#utility.yul\":16956:17127   */\n    tag_270:\n        /* \"#utility.yul\":17096:17119   */\n      0x4576656e74206e6f742073746172746564207965740000000000000000000000\n        /* \"#utility.yul\":17092:17093   */\n      0x00\n        /* \"#utility.yul\":17084:17090   */\n      dup3\n        /* \"#utility.yul\":17080:17094   */\n      add\n        /* \"#utility.yul\":17073:17120   */\n      mstore\n        /* \"#utility.yul\":16956:17127   */\n      pop\n      jump\t// out\n        /* \"#utility.yul\":17133:17499   */\n    tag_271:\n        /* \"#utility.yul\":17275:17278   */\n      0x00\n        /* \"#utility.yul\":17296:17363   */\n      tag_426\n        /* \"#utility.yul\":17360:17362   */\n      0x15\n        /* \"#utility.yul\":17355:17358   */\n      dup4\n        /* \"#utility.yul\":17296:17363   */\n      tag_237\n      jump\t// in\n    tag_426:\n        /* \"#utility.yul\":17289:17363   */\n      swap2\n      pop\n        /* \"#utility.yul\":17372:17465   */\n      tag_427\n        /* \"#utility.yul\":17461:17464   */\n      dup3\n        /* \"#utility.yul\":17372:17465   */\n      tag_270\n      jump\t// in\n    tag_427:\n        /* \"#utility.yul\":17490:17492   */\n      0x20\n        /* \"#utility.yul\":17485:17488   */\n      dup3\n        /* \"#utility.yul\":17481:17493   */\n      add\n        /* \"#utility.yul\":17474:17493   */\n      swap1\n      pop\n        /* \"#utility.yul\":17133:17499   */\n      swap2\n      swap1\n      pop\n      jump\t// out\n        /* \"#utility.yul\":17505:17924   */\n    tag_178:\n        /* \"#utility.yul\":17671:17675   */\n      0x00\n        /* \"#utility.yul\":17709:17711   */\n      0x20\n        /* \"#utility.yul\":17698:17707   */\n      dup3\n        /* \"#utility.yul\":17694:17712   */\n      add\n        /* \"#utility.yul\":17686:17712   */\n      swap1\n      pop\n        /* \"#utility.yul\":17758:17767   */\n      dup2\n        /* \"#utility.yul\":17752:17756   */\n      dup2\n        /* \"#utility.yul\":17748:17768   */\n      sub\n        /* \"#utility.yul\":17744:17745   */\n      0x00\n        /* \"#utility.yul\":17733:17742   */\n      dup4\n        /* \"#utility.yul\":17729:17746   */\n      add\n        /* \"#utility.yul\":17722:17769   */\n      mstore\n        /* \"#utility.yul\":17786:17917   */\n      tag_429\n        /* \"#utility.yul\":17912:17916   */\n      dup2\n        /* \"#utility.yul\":17786:17917   */\n      tag_271\n      jump\t// in\n    tag_429:\n        /* \"#utility.yul\":17778:17917   */\n      swap1\n      pop\n        /* \"#utility.yul\":17505:17924   */\n      swap2\n      swap1\n      pop\n      jump\t// out\n        /* \"#utility.yul\":17930:18093   */\n    tag_272:\n        /* \"#utility.yul\":18070:18085   */\n      0x4e6f7420617474656e64696e6700000000000000000000000000000000000000\n        /* \"#utility.yul\":18066:18067   */\n      0x00\n        /* \"#utility.yul\":18058:18064   */\n      dup3\n        /* \"#utility.yul\":18054:18068   */\n      add\n        /* \"#utility.yul\":18047:18086   */\n      mstore\n        /* \"#utility.yul\":17930:18093   */\n      pop\n      jump\t// out\n        /* \"#utility.yul\":18099:18465   */\n    tag_273:\n        /* \"#utility.yul\":18241:18244   */\n      0x00\n        /* \"#utility.yul\":18262:18329   */\n      tag_432\n        /* \"#utility.yul\":18326:18328   */\n      0x0d\n        /* \"#utility.yul\":18321:18324   */\n      dup4\n        /* \"#utility.yul\":18262:18329   */\n      tag_237\n      jump\t// in\n    tag_432:\n        /* \"#utility.yul\":18255:18329   */\n      swap2\n      pop\n        /* \"#utility.yul\":18338:18431   */\n      tag_433\n        /* \"#utility.yul\":18427:18430   */\n      dup3\n        /* \"#utility.yul\":18338:18431   */\n      tag_272\n      jump\t// in\n    tag_433:\n        /* \"#utility.yul\":18456:18458   */\n      0x20\n        /* \"#utility.yul\":18451:18454   */\n      dup3\n        /* \"#utility.yul\":18447:18459   */\n      add\n        /* \"#utility.yul\":18440:18459   */\n      swap1\n      pop\n        /* \"#utility.yul\":18099:18465   */\n      swap2\n      swap1\n      pop\n      jump\t// out\n        /* \"#utility.yul\":18471:18890   */\n    tag_199:\n        /* \"#utility.yul\":18637:18641   */\n      0x00\n        /* \"#utility.yul\":18675:18677   */\n      0x20\n        /* \"#utility.yul\":18664:18673   */\n      dup3\n        /* \"#utility.yul\":18660:18678   */\n      add\n        /* \"#utility.yul\":18652:18678   */\n      swap1\n      pop\n        /* \"#utility.yul\":18724:18733   */\n      dup2\n        /* \"#utility.yul\":18718:18722   */\n      dup2\n        /* \"#utility.yul\":18714:18734   */\n      sub\n        /* \"#utility.yul\":18710:18711   */\n      0x00\n        /* \"#utility.yul\":18699:18708   */\n      dup4\n        /* \"#utility.yul\":18695:18712   */\n      add\n        /* \"#utility.yul\":18688:18735   */\n      mstore\n        /* \"#utility.yul\":18752:18883   */\n      tag_435\n        /* \"#utility.yul\":18878:18882   */\n      dup2\n        /* \"#utility.yul\":18752:18883   */\n      tag_273\n      jump\t// in\n    tag_435:\n        /* \"#utility.yul\":18744:18883   */\n      swap1\n      pop\n        /* \"#utility.yul\":18471:18890   */\n      swap2\n      swap1\n      pop\n      jump\t// out\n        /* \"#utility.yul\":18896:19070   */\n    tag_274:\n        /* \"#utility.yul\":19036:19062   */\n      0x596f7527726520616c726561647920617474656e64696e670000000000000000\n        /* \"#utility.yul\":19032:19033   */\n      0x00\n        /* \"#utility.yul\":19024:19030   */\n      dup3\n        /* \"#utility.yul\":19020:19034   */\n      add\n        /* \"#utility.yul\":19013:19063   */\n      mstore\n        /* \"#utility.yul\":18896:19070   */\n      pop\n      jump\t// out\n        /* \"#utility.yul\":19076:19442   */\n    tag_275:\n        /* \"#utility.yul\":19218:19221   */\n      0x00\n        /* \"#utility.yul\":19239:19306   */\n      tag_438\n        /* \"#utility.yul\":19303:19305   */\n      0x18\n        /* \"#utility.yul\":19298:19301   */\n      dup4\n        /* \"#utility.yul\":19239:19306   */\n      tag_237\n      jump\t// in\n    tag_438:\n        /* \"#utility.yul\":19232:19306   */\n      swap2\n      pop\n        /* \"#utility.yul\":19315:19408   */\n      tag_439\n        /* \"#utility.yul\":19404:19407   */\n      dup3\n        /* \"#utility.yul\":19315:19408   */\n      tag_274\n      jump\t// in\n    tag_439:\n        /* \"#utility.yul\":19433:19435   */\n      0x20\n        /* \"#utility.yul\":19428:19431   */\n      dup3\n        /* \"#utility.yul\":19424:19436   */\n      add\n        /* \"#utility.yul\":19417:19436   */\n      swap1\n      pop\n        /* \"#utility.yul\":19076:19442   */\n      swap2\n      swap1\n      pop\n      jump\t// out\n        /* \"#utility.yul\":19448:19867   */\n    tag_213:\n        /* \"#utility.yul\":19614:19618   */\n      0x00\n        /* \"#utility.yul\":19652:19654   */\n      0x20\n        /* \"#utility.yul\":19641:19650   */\n      dup3\n        /* \"#utility.yul\":19637:19655   */\n      add\n        /* \"#utility.yul\":19629:19655   */\n      swap1\n      pop\n        /* \"#utility.yul\":19701:19710   */\n      dup2\n        /* \"#utility.yul\":19695:19699   */\n      dup2\n        /* \"#utility.yul\":19691:19711   */\n      sub\n        /* \"#utility.yul\":19687:19688   */\n      0x00\n        /* \"#utility.yul\":19676:19685   */\n      dup4\n        /* \"#utility.yul\":19672:19689   */\n      add\n        /* \"#utility.yul\":19665:19712   */\n      mstore\n        /* \"#utility.yul\":19729:19860   */\n      tag_441\n        /* \"#utility.yul\":19855:19859   */\n      dup2\n        /* \"#utility.yul\":19729:19860   */\n      tag_275\n      jump\t// in\n    tag_441:\n        /* \"#utility.yul\":19721:19860   */\n      swap1\n      pop\n        /* \"#utility.yul\":19448:19867   */\n      swap2\n      swap1\n      pop\n      jump\t// out\n        /* \"#utility.yul\":19873:20106   */\n    tag_276:\n        /* \"#utility.yul\":20013:20047   */\n      0x4576656e7420616c726561647920737461727465642c207573652066696e6973\n        /* \"#utility.yul\":20009:20010   */\n      0x00\n        /* \"#utility.yul\":20001:20007   */\n      dup3\n        /* \"#utility.yul\":19997:20011   */\n      add\n        /* \"#utility.yul\":19990:20048   */\n      mstore\n        /* \"#utility.yul\":20082:20098   */\n      0x684576656e7420696e7374656164000000000000000000000000000000000000\n        /* \"#utility.yul\":20077:20079   */\n      0x20\n        /* \"#utility.yul\":20069:20075   */\n      dup3\n        /* \"#utility.yul\":20065:20080   */\n      add\n        /* \"#utility.yul\":20058:20099   */\n      mstore\n        /* \"#utility.yul\":19873:20106   */\n      pop\n      jump\t// out\n        /* \"#utility.yul\":20112:20478   */\n    tag_277:\n        /* \"#utility.yul\":20254:20257   */\n      0x00\n        /* \"#utility.yul\":20275:20342   */\n      tag_444\n        /* \"#utility.yul\":20339:20341   */\n      0x2e\n        /* \"#utility.yul\":20334:20337   */\n      dup4\n        /* \"#utility.yul\":20275:20342   */\n      tag_237\n      jump\t// in\n    tag_444:\n        /* \"#utility.yul\":20268:20342   */\n      swap2\n      pop\n        /* \"#utility.yul\":20351:20444   */\n      tag_445\n        /* \"#utility.yul\":20440:20443   */\n      dup3\n        /* \"#utility.yul\":20351:20444   */\n      tag_276\n      jump\t// in\n    tag_445:\n        /* \"#utility.yul\":20469:20471   */\n      0x40\n        /* \"#utility.yul\":20464:20467   */\n      dup3\n        /* \"#utility.yul\":20460:20472   */\n      add\n        /* \"#utility.yul\":20453:20472   */\n      swap1\n      pop\n        /* \"#utility.yul\":20112:20478   */\n      swap2\n      swap1\n      pop\n      jump\t// out\n        /* \"#utility.yul\":20484:20903   */\n    tag_222:\n        /* \"#utility.yul\":20650:20654   */\n      0x00\n        /* \"#utility.yul\":20688:20690   */\n      0x20\n        /* \"#utility.yul\":20677:20686   */\n      dup3\n        /* \"#utility.yul\":20673:20691   */\n      add\n        /* \"#utility.yul\":20665:20691   */\n      swap1\n      pop\n        /* \"#utility.yul\":20737:20746   */\n      dup2\n        /* \"#utility.yul\":20731:20735   */\n      dup2\n        /* \"#utility.yul\":20727:20747   */\n      sub\n        /* \"#utility.yul\":20723:20724   */\n      0x00\n        /* \"#utility.yul\":20712:20721   */\n      dup4\n        /* \"#utility.yul\":20708:20725   */\n      add\n        /* \"#utility.yul\":20701:20748   */\n      mstore\n        /* \"#utility.yul\":20765:20896   */\n      tag_447\n        /* \"#utility.yul\":20891:20895   */\n      dup2\n        /* \"#utility.yul\":20765:20896   */\n      tag_277\n      jump\t// in\n    tag_447:\n        /* \"#utility.yul\":20757:20896   */\n      swap1\n      pop\n        /* \"#utility.yul\":20484:20903   */\n      swap2\n      swap1\n      pop\n      jump\t// out\n\n    auxdata: 0xa2646970667358221220ffe438f6e85e96fa8c6885a1d04ad4573dbc4288c39ba16a26682279d967d83464736f6c63430008180033\n}\n",
				"bytecode": {
					"linkReferences": {},
					"object": "60806040525f600a5f6101000a81548160ff0219169083151502179055505f600a60016101000a81548160ff02191690831515021790555034801562000043575f80fd5b5060405162002e3f38038062002e3f8339818101604052810190620000699190620007ea565b5f885111620000af576040517f08c379a0000000000000000000000000000000000000000000000000000000008152600401620000a69062000988565b60405180910390fd5b5f875111620000f5576040517f08c379a0000000000000000000000000000000000000000000000000000000008152600401620000ec90620009f6565b60405180910390fd5b5f86116200013a576040517f08c379a0000000000000000000000000000000000000000000000000000000008152600401620001319062000a64565b60405180910390fd5b5f73ffffffffffffffffffffffffffffffffffffffff168373ffffffffffffffffffffffffffffffffffffffff1603620001ab576040517f08c379a0000000000000000000000000000000000000000000000000000000008152600401620001a29062000ad2565b60405180910390fd5b428211620001f0576040517f08c379a0000000000000000000000000000000000000000000000000000000008152600401620001e79062000b40565b60405180910390fd5b81811162000235576040517f08c379a00000000000000000000000000000000000000000000000000000000081526004016200022c9062000bd4565b60405180910390fd5b6005845111156200027d576040517f08c379a0000000000000000000000000000000000000000000000000000000008152600401620002749062000c42565b60405180910390fd5b875f90816200028d919062000e90565b5086600190816200029f919062000e90565b50856002819055508460049081620002b8919062000e90565b508260035f6101000a81548173ffffffffffffffffffffffffffffffffffffffff021916908373ffffffffffffffffffffffffffffffffffffffff160217905550426006819055508160078190555080600881905550835167ffffffffffffffff8111156200032c576200032b620004fd565b5b6040519080825280602002602001820160405280156200036157816020015b60608152602001906001900390816200034b5790505b506005908051906020019062000379929190620003ef565b505f5b8451811015620003e0578481815181106200039c576200039b62000f74565b5b602002602001015160058281548110620003bb57620003ba62000f74565b5b905f5260205f20019081620003d1919062000e90565b5080806001019150506200037c565b50505050505050505062000fa1565b828054828255905f5260205f209081019282156200043a579160200282015b828111156200043957825182908162000428919062000e90565b50916020019190600101906200040e565b5b5090506200044991906200044d565b5090565b5b8082111562000470575f818162000466919062000474565b506001016200044e565b5090565b508054620004829062000c99565b5f825580601f10620004955750620004b4565b601f0160209004905f5260205f2090810190620004b39190620004b7565b5b50565b5b80821115620004d0575f815f905550600101620004b8565b5090565b5f604051905090565b5f80fd5b5f80fd5b5f80fd5b5f80fd5b5f601f19601f8301169050919050565b7f4e487b71000000000000000000000000000000000000000000000000000000005f52604160045260245ffd5b6200053582620004ed565b810181811067ffffffffffffffff82111715620005575762000556620004fd565b5b80604052505050565b5f6200056b620004d4565b90506200057982826200052a565b919050565b5f67ffffffffffffffff8211156200059b576200059a620004fd565b5b620005a682620004ed565b9050602081019050919050565b5f5b83811015620005d2578082015181840152602081019050620005b5565b5f8484015250505050565b5f620005f3620005ed846200057e565b62000560565b905082815260208101848484011115620006125762000611620004e9565b5b6200061f848285620005b3565b509392505050565b5f82601f8301126200063e576200063d620004e5565b5b815162000650848260208601620005dd565b91505092915050565b5f819050919050565b6200066d8162000659565b811462000678575f80fd5b50565b5f815190506200068b8162000662565b92915050565b5f67ffffffffffffffff821115620006ae57620006ad620004fd565b5b602082029050602081019050919050565b5f80fd5b5f620006d9620006d38462000691565b62000560565b90508083825260208201905060208402830185811115620006ff57620006fe620006bf565b5b835b818110156200074d57805167ffffffffffffffff811115620007285762000727620004e5565b5b80860162000737898262000627565b8552602085019450505060208101905062000701565b5050509392505050565b5f82601f8301126200076e576200076d620004e5565b5b815162000780848260208601620006c3565b91505092915050565b5f73ffffffffffffffffffffffffffffffffffffffff82169050919050565b5f620007b48262000789565b9050919050565b620007c681620007a8565b8114620007d1575f80fd5b50565b5f81519050620007e481620007bb565b92915050565b5f805f805f805f80610100898b0312156200080a5762000809620004dd565b5b5f89015167ffffffffffffffff8111156200082a5762000829620004e1565b5b620008388b828c0162000627565b985050602089015167ffffffffffffffff8111156200085c576200085b620004e1565b5b6200086a8b828c0162000627565b97505060406200087d8b828c016200067b565b965050606089015167ffffffffffffffff811115620008a157620008a0620004e1565b5b620008af8b828c0162000627565b955050608089015167ffffffffffffffff811115620008d357620008d2620004e1565b5b620008e18b828c0162000757565b94505060a0620008f48b828c01620007d4565b93505060c0620009078b828c016200067b565b92505060e06200091a8b828c016200067b565b9150509295985092959890939650565b5f82825260208201905092915050565b7f456d707479207469746c650000000000000000000000000000000000000000005f82015250565b5f62000970600b836200092a565b91506200097d826200093a565b602082019050919050565b5f6020820190508181035f830152620009a18162000962565b9050919050565b7f456d7074792061646472657373000000000000000000000000000000000000005f82015250565b5f620009de600d836200092a565b9150620009eb82620009a8565b602082019050919050565b5f6020820190508181035f83015262000a0f81620009d0565b9050919050565b7f417474656e64656573206d757374206265203e203000000000000000000000005f82015250565b5f62000a4c6015836200092a565b915062000a598262000a16565b602082019050919050565b5f6020820190508181035f83015262000a7d8162000a3e565b9050919050565b7f4f776e65722063616e6e6f747a65726f000000000000000000000000000000005f82015250565b5f62000aba6010836200092a565b915062000ac78262000a84565b602082019050919050565b5f6020820190508181035f83015262000aeb8162000aac565b9050919050565b7f4576656e74206d75737420626520696e207468652066757475726500000000005f82015250565b5f62000b28601b836200092a565b915062000b358262000af2565b602082019050919050565b5f6020820190508181035f83015262000b598162000b1a565b9050919050565b7f4576656e7420656e64696e67206d757374206265206166746572206576656e745f8201527f207374617274696e670000000000000000000000000000000000000000000000602082015250565b5f62000bbc6029836200092a565b915062000bc98262000b60565b604082019050919050565b5f6020820190508181035f83015262000bed8162000bae565b9050919050565b7f546f6f206d616e7920746167732c206d617820350000000000000000000000005f82015250565b5f62000c2a6014836200092a565b915062000c378262000bf4565b602082019050919050565b5f6020820190508181035f83015262000c5b8162000c1c565b9050919050565b5f81519050919050565b7f4e487b71000000000000000000000000000000000000000000000000000000005f52602260045260245ffd5b5f600282049050600182168062000cb157607f821691505b60208210810362000cc75762000cc662000c6c565b5b50919050565b5f819050815f5260205f209050919050565b5f6020601f8301049050919050565b5f82821b905092915050565b5f6008830262000d2b7fffffffffffffffffffffffffffffffffffffffffffffffffffffffffffffffff8262000cee565b62000d37868362000cee565b95508019841693508086168417925050509392505050565b5f819050919050565b5f62000d7862000d7262000d6c8462000659565b62000d4f565b62000659565b9050919050565b5f819050919050565b62000d938362000d58565b62000dab62000da28262000d7f565b84845462000cfa565b825550505050565b5f90565b62000dc162000db3565b62000dce81848462000d88565b505050565b5b8181101562000df55762000de95f8262000db7565b60018101905062000dd4565b5050565b601f82111562000e445762000e0e8162000ccd565b62000e198462000cdf565b8101602085101562000e29578190505b62000e4162000e388562000cdf565b83018262000dd3565b50505b505050565b5f82821c905092915050565b5f62000e665f198460080262000e49565b1980831691505092915050565b5f62000e80838362000e55565b9150826002028217905092915050565b62000e9b8262000c62565b67ffffffffffffffff81111562000eb75762000eb6620004fd565b5b62000ec3825462000c99565b62000ed082828562000df9565b5f60209050601f83116001811462000f06575f841562000ef1578287015190505b62000efd858262000e73565b86555062000f6c565b601f19841662000f168662000ccd565b5f5b8281101562000f3f5784890151825560018201915060208501945060208101905062000f18565b8683101562000f5f578489015162000f5b601f89168262000e55565b8355505b6001600288020188555050505b505050505050565b7f4e487b71000000000000000000000000000000000000000000000000000000005f52603260045260245ffd5b611e908062000faf5f395ff3fe608060405234801561000f575f80fd5b5060043610610156575f3560e01c80637284e416116100c1578063cb510e971161007a578063cb510e971461037e578063cf09e0d0146103ae578063e55448fc146103cc578063f57e63e2146103e8578063f9010d1914610406578063fb6c95371461041057610156565b80637284e416146102e057806386ec6177146102fe5780638da5cb5b14610308578063995d9ab714610326578063af46868214610344578063c4522c921461036257610156565b8063516f279e11610113578063516f279e14610230578063522e4c8a1461024e5780635631a5cb1461026a5780635f3d7fa11461027457806361f8506d146102925780636cad2590146102b057610156565b80630a09284a1461015a5780631024625414610178578063148b597c1461019457806320822abc146101b2578063405fbab5146101e25780634a79d50c14610212575b5f80fd5b61016261041a565b60405161016f91906114dd565b60405180910390f35b610192600480360381019061018d9190611554565b610420565b005b61019c610641565b6040516101a99190611599565b60405180910390f35b6101cc60048036038101906101c791906115dc565b610654565b6040516101d99190611691565b60405180910390f35b6101fc60048036038101906101f79190611554565b6106fa565b6040516102099190611599565b60405180910390f35b61021a61074c565b6040516102279190611691565b60405180910390f35b6102386107d7565b6040516102459190611691565b60405180910390f35b61026860048036038101906102639190611554565b610863565b005b61027261094a565b005b61027c610b1a565b60405161028991906114dd565b60405180910390f35b61029a610b20565b6040516102a791906114dd565b60405180910390f35b6102ca60048036038101906102c59190611554565b610b26565b6040516102d79190611599565b60405180910390f35b6102e8610b43565b6040516102f59190611691565b60405180910390f35b610306610bcf565b005b610310610d5f565b60405161031d91906116c0565b60405180910390f35b61032e610d84565b60405161033b91906117dc565b60405180910390f35b61034c610e58565b60405161035991906114dd565b60405180910390f35b61037c60048036038101906103779190611554565b610e5e565b005b61039860048036038101906103939190611554565b610f44565b6040516103a59190611599565b60405180910390f35b6103b6610f61565b6040516103c391906114dd565b60405180910390f35b6103e660048036038101906103e19190611554565b610f67565b005b6103f0611184565b6040516103fd9190611599565b60405180910390f35b61040e611196565b005b61041861136a565b005b60085481565b60035f9054906101000a900473ffffffffffffffffffffffffffffffffffffffff1673ffffffffffffffffffffffffffffffffffffffff163373ffffffffffffffffffffffffffffffffffffffff1614806104c15750600c5f3373ffffffffffffffffffffffffffffffffffffffff1673ffffffffffffffffffffffffffffffffffffffff1681526020019081526020015f205f9054906101000a900460ff165b610500576040517f08c379a00000000000000000000000000000000000000000000000000000000081526004016104f790611846565b60405180910390fd5b600b5f8273ffffffffffffffffffffffffffffffffffffffff1673ffffffffffffffffffffffffffffffffffffffff1681526020019081526020015f205f9054906101000a900460ff161561058a576040517f08c379a0000000000000000000000000000000000000000000000000000000008152600401610581906118ae565b60405180910390fd5b600254600954106105d0576040517f08c379a00000000000000000000000000000000000000000000000000000000081526004016105c790611916565b60405180910390fd5b600160095f8282546105e29190611961565b925050819055506001600b5f8373ffffffffffffffffffffffffffffffffffffffff1673ffffffffffffffffffffffffffffffffffffffff1681526020019081526020015f205f6101000a81548160ff02191690831515021790555050565b600a60019054906101000a900460ff1681565b60058181548110610663575f80fd5b905f5260205f20015f91509050805461067b906119c1565b80601f01602080910402602001604051908101604052809291908181526020018280546106a7906119c1565b80156106f25780601f106106c9576101008083540402835291602001916106f2565b820191905f5260205f20905b8154815290600101906020018083116106d557829003601f168201915b505050505081565b5f600b5f8373ffffffffffffffffffffffffffffffffffffffff1673ffffffffffffffffffffffffffffffffffffffff1681526020019081526020015f205f9054906101000a900460ff169050919050565b5f8054610758906119c1565b80601f0160208091040260200160405190810160405280929190818152602001828054610784906119c1565b80156107cf5780601f106107a6576101008083540402835291602001916107cf565b820191905f5260205f20905b8154815290600101906020018083116107b257829003601f168201915b505050505081565b600180546107e4906119c1565b80601f0160208091040260200160405190810160405280929190818152602001828054610810906119c1565b801561085b5780601f106108325761010080835404028352916020019161085b565b820191905f5260205f20905b81548152906001019060200180831161083e57829003601f168201915b505050505081565b60035f9054906101000a900473ffffffffffffffffffffffffffffffffffffffff1673ffffffffffffffffffffffffffffffffffffffff163373ffffffffffffffffffffffffffffffffffffffff16146108f2576040517f08c379a00000000000000000000000000000000000000000000000000000000081526004016108e990611a3b565b60405180910390fd5b6001600c5f8373ffffffffffffffffffffffffffffffffffffffff1673ffffffffffffffffffffffffffffffffffffffff1681526020019081526020015f205f6101000a81548160ff02191690831515021790555050565b600754421061098e576040517f08c379a000000000000000000000000000000000000000000000000000000000815260040161098590611aa3565b60405180910390fd5b600a60019054906101000a900460ff16156109de576040517f08c379a00000000000000000000000000000000000000000000000000000000081526004016109d590611b0b565b60405180910390fd5b600b5f3373ffffffffffffffffffffffffffffffffffffffff1673ffffffffffffffffffffffffffffffffffffffff1681526020019081526020015f205f9054906101000a900460ff16610a67576040517f08c379a0000000000000000000000000000000000000000000000000000000008152600401610a5e90611b73565b60405180910390fd5b5f60095411610aab576040517f08c379a0000000000000000000000000000000000000000000000000000000008152600401610aa290611bdb565b60405180910390fd5b600160095f828254610abd9190611bf9565b925050819055505f600b5f3373ffffffffffffffffffffffffffffffffffffffff1673ffffffffffffffffffffffffffffffffffffffff1681526020019081526020015f205f6101000a81548160ff021916908315150217905550565b60025481565b60095481565b600b602052805f5260405f205f915054906101000a900460ff1681565b60048054610b50906119c1565b80601f0160208091040260200160405190810160405280929190818152602001828054610b7c906119c1565b8015610bc75780601f10610b9e57610100808354040283529160200191610bc7565b820191905f5260205f20905b815481529060010190602001808311610baa57829003601f168201915b505050505081565b60035f9054906101000a900473ffffffffffffffffffffffffffffffffffffffff1673ffffffffffffffffffffffffffffffffffffffff163373ffffffffffffffffffffffffffffffffffffffff161480610c705750600c5f3373ffffffffffffffffffffffffffffffffffffffff1673ffffffffffffffffffffffffffffffffffffffff1681526020019081526020015f205f9054906101000a900460ff165b610caf576040517f08c379a0000000000000000000000000000000000000000000000000000000008152600401610ca690611846565b60405180910390fd5b600a5f9054906101000a900460ff1615610cfe576040517f08c379a0000000000000000000000000000000000000000000000000000000008152600401610cf590611c76565b60405180910390fd5b600754421015610d43576040517f08c379a0000000000000000000000000000000000000000000000000000000008152600401610d3a90611cde565b60405180910390fd5b6001600a5f6101000a81548160ff021916908315150217905550565b60035f9054906101000a900473ffffffffffffffffffffffffffffffffffffffff1681565b60606005805480602002602001604051908101604052809291908181526020015f905b82821015610e4f578382905f5260205f20018054610dc4906119c1565b80601f0160208091040260200160405190810160405280929190818152602001828054610df0906119c1565b8015610e3b5780601f10610e1257610100808354040283529160200191610e3b565b820191905f5260205f20905b815481529060010190602001808311610e1e57829003601f168201915b505050505081526020019060010190610da7565b50505050905090565b60075481565b60035f9054906101000a900473ffffffffffffffffffffffffffffffffffffffff1673ffffffffffffffffffffffffffffffffffffffff163373ffffffffffffffffffffffffffffffffffffffff1614610eed576040517f08c379a0000000000000000000000000000000000000000000000000000000008152600401610ee490611a3b565b60405180910390fd5b5f600c5f8373ffffffffffffffffffffffffffffffffffffffff1673ffffffffffffffffffffffffffffffffffffffff1681526020019081526020015f205f6101000a81548160ff02191690831515021790555050565b600c602052805f5260405f205f915054906101000a900460ff1681565b60065481565b60035f9054906101000a900473ffffffffffffffffffffffffffffffffffffffff1673ffffffffffffffffffffffffffffffffffffffff163373ffffffffffffffffffffffffffffffffffffffff1614806110085750600c5f3373ffffffffffffffffffffffffffffffffffffffff1673ffffffffffffffffffffffffffffffffffffffff1681526020019081526020015f205f9054906101000a900460ff165b611047576040517f08c379a000000000000000000000000000000000000000000000000000000000815260040161103e90611846565b60405180910390fd5b600b5f8273ffffffffffffffffffffffffffffffffffffffff1673ffffffffffffffffffffffffffffffffffffffff1681526020019081526020015f205f9054906101000a900460ff166110d0576040517f08c379a00000000000000000000000000000000000000000000000000000000081526004016110c790611d46565b60405180910390fd5b5f60095411611114576040517f08c379a000000000000000000000000000000000000000000000000000000000815260040161110b90611bdb565b60405180910390fd5b600160095f8282546111269190611bf9565b925050819055505f600b5f8373ffffffffffffffffffffffffffffffffffffffff1673ffffffffffffffffffffffffffffffffffffffff1681526020019081526020015f205f6101000a81548160ff02191690831515021790555050565b600a5f9054906101000a900460ff1681565b60075442106111da576040517f08c379a00000000000000000000000000000000000000000000000000000000081526004016111d190611aa3565b60405180910390fd5b600a60019054906101000a900460ff161561122a576040517f08c379a000000000000000000000000000000000000000000000000000000000815260040161122190611b0b565b60405180910390fd5b60025460095410611270576040517f08c379a000000000000000000000000000000000000000000000000000000000815260040161126790611916565b60405180910390fd5b600b5f3373ffffffffffffffffffffffffffffffffffffffff1673ffffffffffffffffffffffffffffffffffffffff1681526020019081526020015f205f9054906101000a900460ff16156112fa576040517f08c379a00000000000000000000000000000000000000000000000000000000081526004016112f190611dae565b60405180910390fd5b600160095f82825461130c9190611961565b925050819055506001600b5f3373ffffffffffffffffffffffffffffffffffffffff1673ffffffffffffffffffffffffffffffffffffffff1681526020019081526020015f205f6101000a81548160ff021916908315150217905550565b60035f9054906101000a900473ffffffffffffffffffffffffffffffffffffffff1673ffffffffffffffffffffffffffffffffffffffff163373ffffffffffffffffffffffffffffffffffffffff16148061140b5750600c5f3373ffffffffffffffffffffffffffffffffffffffff1673ffffffffffffffffffffffffffffffffffffffff1681526020019081526020015f205f9054906101000a900460ff165b61144a576040517f08c379a000000000000000000000000000000000000000000000000000000000815260040161144190611846565b60405180910390fd5b600754421061148e576040517f08c379a000000000000000000000000000000000000000000000000000000000815260040161148590611e3c565b60405180910390fd5b6001600a60016101000a81548160ff0219169083151502179055506001600a5f6101000a81548160ff021916908315150217905550565b5f819050919050565b6114d7816114c5565b82525050565b5f6020820190506114f05f8301846114ce565b92915050565b5f80fd5b5f73ffffffffffffffffffffffffffffffffffffffff82169050919050565b5f611523826114fa565b9050919050565b61153381611519565b811461153d575f80fd5b50565b5f8135905061154e8161152a565b92915050565b5f60208284031215611569576115686114f6565b5b5f61157684828501611540565b91505092915050565b5f8115159050919050565b6115938161157f565b82525050565b5f6020820190506115ac5f83018461158a565b92915050565b6115bb816114c5565b81146115c5575f80fd5b50565b5f813590506115d6816115b2565b92915050565b5f602082840312156115f1576115f06114f6565b5b5f6115fe848285016115c8565b91505092915050565b5f81519050919050565b5f82825260208201905092915050565b5f5b8381101561163e578082015181840152602081019050611623565b5f8484015250505050565b5f601f19601f8301169050919050565b5f61166382611607565b61166d8185611611565b935061167d818560208601611621565b61168681611649565b840191505092915050565b5f6020820190508181035f8301526116a98184611659565b905092915050565b6116ba81611519565b82525050565b5f6020820190506116d35f8301846116b1565b92915050565b5f81519050919050565b5f82825260208201905092915050565b5f819050602082019050919050565b5f82825260208201905092915050565b5f61171c82611607565b6117268185611702565b9350611736818560208601611621565b61173f81611649565b840191505092915050565b5f6117558383611712565b905092915050565b5f602082019050919050565b5f611773826116d9565b61177d81856116e3565b93508360208202850161178f856116f3565b805f5b858110156117ca57848403895281516117ab858261174a565b94506117b68361175d565b925060208a01995050600181019050611792565b50829750879550505050505092915050565b5f6020820190508181035f8301526117f48184611769565b905092915050565b7f596f75277265206e6f74207374616666000000000000000000000000000000005f82015250565b5f611830601083611611565b915061183b826117fc565b602082019050919050565b5f6020820190508181035f83015261185d81611824565b9050919050565b7f417474656e64656520616c7265616479206164646564000000000000000000005f82015250565b5f611898601683611611565b91506118a382611864565b602082019050919050565b5f6020820190508181035f8301526118c58161188c565b9050919050565b7f4576656e742069732066756c6c000000000000000000000000000000000000005f82015250565b5f611900600d83611611565b915061190b826118cc565b602082019050919050565b5f6020820190508181035f83015261192d816118f4565b9050919050565b7f4e487b71000000000000000000000000000000000000000000000000000000005f52601160045260245ffd5b5f61196b826114c5565b9150611976836114c5565b925082820190508082111561198e5761198d611934565b5b92915050565b7f4e487b71000000000000000000000000000000000000000000000000000000005f52602260045260245ffd5b5f60028204905060018216806119d857607f821691505b6020821081036119eb576119ea611994565b5b50919050565b7f4e6f74206f776e657200000000000000000000000000000000000000000000005f82015250565b5f611a25600983611611565b9150611a30826119f1565b602082019050919050565b5f6020820190508181035f830152611a5281611a19565b9050919050565b7f4576656e7420616c7265616479207374617274656400000000000000000000005f82015250565b5f611a8d601583611611565b9150611a9882611a59565b602082019050919050565b5f6020820190508181035f830152611aba81611a81565b9050919050565b7f4576656e742069732063616e63656c6c656400000000000000000000000000005f82015250565b5f611af5601283611611565b9150611b0082611ac1565b602082019050919050565b5f6020820190508181035f830152611b2281611ae9565b9050919050565b7f596f75277265206e6f7420617474656e64696e672074686973206576656e74005f82015250565b5f611b5d601f83611611565b9150611b6882611b29565b602082019050919050565b5f6020820190508181035f830152611b8a81611b51565b9050919050565b7f4e6f20617474656e6465657300000000000000000000000000000000000000005f82015250565b5f611bc5600c83611611565b9150611bd082611b91565b602082019050919050565b5f6020820190508181035f830152611bf281611bb9565b9050919050565b5f611c03826114c5565b9150611c0e836114c5565b9250828203905081811115611c2657611c25611934565b5b92915050565b7f4576656e7420616c72656164792066696e6973686564000000000000000000005f82015250565b5f611c60601683611611565b9150611c6b82611c2c565b602082019050919050565b5f6020820190508181035f830152611c8d81611c54565b9050919050565b7f4576656e74206e6f7420737461727465642079657400000000000000000000005f82015250565b5f611cc8601583611611565b9150611cd382611c94565b602082019050919050565b5f6020820190508181035f830152611cf581611cbc565b9050919050565b7f4e6f7420617474656e64696e67000000000000000000000000000000000000005f82015250565b5f611d30600d83611611565b9150611d3b82611cfc565b602082019050919050565b5f6020820190508181035f830152611d5d81611d24565b9050919050565b7f596f7527726520616c726561647920617474656e64696e6700000000000000005f82015250565b5f611d98601883611611565b9150611da382611d64565b602082019050919050565b5f6020820190508181035f830152611dc581611d8c565b9050919050565b7f4576656e7420616c726561647920737461727465642c207573652066696e69735f8201527f684576656e7420696e7374656164000000000000000000000000000000000000602082015250565b5f611e26602e83611611565b9150611e3182611dcc565b604082019050919050565b5f6020820190508181035f830152611e5381611e1a565b905091905056fea2646970667358221220ffe438f6e85e96fa8c6885a1d04ad4573dbc4288c39ba16a26682279d967d83464736f6c63430008180033",
					"opcodes": "PUSH1 0x80 PUSH1 0x40 MSTORE PUSH0 PUSH1 0xA PUSH0 PUSH2 0x100 EXP DUP2 SLOAD DUP2 PUSH1 0xFF MUL NOT AND SWAP1 DUP4 ISZERO ISZERO MUL OR SWAP1 SSTORE POP PUSH0 PUSH1 0xA PUSH1 0x1 PUSH2 0x100 EXP DUP2 SLOAD DUP2 PUSH1 0xFF MUL NOT AND SWAP1 DUP4 ISZERO ISZERO MUL OR SWAP1 SSTORE POP CALLVALUE DUP1 ISZERO PUSH3 0x43 JUMPI PUSH0 DUP1 REVERT JUMPDEST POP PUSH1 0x40 MLOAD PUSH3 0x2E3F CODESIZE SUB DUP1 PUSH3 0x2E3F DUP4 CODECOPY DUP2 DUP2 ADD PUSH1 0x40 MSTORE DUP2 ADD SWAP1 PUSH3 0x69 SWAP2 SWAP1 PUSH3 0x7EA JUMP JUMPDEST PUSH0 DUP9 MLOAD GT PUSH3 0xAF JUMPI PUSH1 0x40 MLOAD PUSH32 0x8C379A000000000000000000000000000000000000000000000000000000000 DUP2 MSTORE PUSH1 0x4 ADD PUSH3 0xA6 SWAP1 PUSH3 0x988 JUMP JUMPDEST PUSH1 0x40 MLOAD DUP1 SWAP2 SUB SWAP1 REVERT JUMPDEST PUSH0 DUP8 MLOAD GT PUSH3 0xF5 JUMPI PUSH1 0x40 MLOAD PUSH32 0x8C379A000000000000000000000000000000000000000000000000000000000 DUP2 MSTORE PUSH1 0x4 ADD PUSH3 0xEC SWAP1 PUSH3 0x9F6 JUMP JUMPDEST PUSH1 0x40 MLOAD DUP1 SWAP2 SUB SWAP1 REVERT JUMPDEST PUSH0 DUP7 GT PUSH3 0x13A JUMPI PUSH1 0x40 MLOAD PUSH32 0x8C379A000000000000000000000000000000000000000000000000000000000 DUP2 MSTORE PUSH1 0x4 ADD PUSH3 0x131 SWAP1 PUSH3 0xA64 JUMP JUMPDEST PUSH1 0x40 MLOAD DUP1 SWAP2 SUB SWAP1 REVERT JUMPDEST PUSH0 PUSH20 0xFFFFFFFFFFFFFFFFFFFFFFFFFFFFFFFFFFFFFFFF AND DUP4 PUSH20 0xFFFFFFFFFFFFFFFFFFFFFFFFFFFFFFFFFFFFFFFF AND SUB PUSH3 0x1AB JUMPI PUSH1 0x40 MLOAD PUSH32 0x8C379A000000000000000000000000000000000000000000000000000000000 DUP2 MSTORE PUSH1 0x4 ADD PUSH3 0x1A2 SWAP1 PUSH3 0xAD2 JUMP JUMPDEST PUSH1 0x40 MLOAD DUP1 SWAP2 SUB SWAP1 REVERT JUMPDEST TIMESTAMP DUP3 GT PUSH3 0x1F0 JUMPI PUSH1 0x40 MLOAD PUSH32 0x8C379A000000000000000000000000000000000000000000000000000000000 DUP2 MSTORE PUSH1 0x4 ADD PUSH3 0x1E7 SWAP1 PUSH3 0xB40 JUMP JUMPDEST PUSH1 0x40 MLOAD DUP1 SWAP2 SUB SWAP1 REVERT JUMPDEST DUP2 DUP2 GT PUSH3 0x235 JUMPI PUSH1 0x40 MLOAD PUSH32 0x8C379A000000000000000000000000000000000000000000000000000000000 DUP2 MSTORE PUSH1 0x4 ADD PUSH3 0x22C SWAP1 PUSH3 0xBD4 JUMP JUMPDEST PUSH1 0x40 MLOAD DUP1 SWAP2 SUB SWAP1 REVERT JUMPDEST PUSH1 0x5 DUP5 MLOAD GT ISZERO PUSH3 0x27D JUMPI PUSH1 0x40 MLOAD PUSH32 0x8C379A000000000000000000000000000000000000000000000000000000000 DUP2 MSTORE PUSH1 0x4 ADD PUSH3 0x274 SWAP1 PUSH3 0xC42 JUMP JUMPDEST PUSH1 0x40 MLOAD DUP1 SWAP2 SUB SWAP1 REVERT JUMPDEST DUP8 PUSH0 SWAP1 DUP2 PUSH3 0x28D SWAP2 SWAP1 PUSH3 0xE90 JUMP JUMPDEST POP DUP7 PUSH1 0x1 SWAP1 DUP2 PUSH3 0x29F SWAP2 SWAP1 PUSH3 0xE90 JUMP JUMPDEST POP DUP6 PUSH1 0x2 DUP2 SWAP1 SSTORE POP DUP5 PUSH1 0x4 SWAP1 DUP2 PUSH3 0x2B8 SWAP2 SWAP1 PUSH3 0xE90 JUMP JUMPDEST POP DUP3 PUSH1 0x3 PUSH0 PUSH2 0x100 EXP DUP2 SLOAD DUP2 PUSH20 0xFFFFFFFFFFFFFFFFFFFFFFFFFFFFFFFFFFFFFFFF MUL NOT AND SWAP1 DUP4 PUSH20 0xFFFFFFFFFFFFFFFFFFFFFFFFFFFFFFFFFFFFFFFF AND MUL OR SWAP1 SSTORE POP TIMESTAMP PUSH1 0x6 DUP2 SWAP1 SSTORE POP DUP2 PUSH1 0x7 DUP2 SWAP1 SSTORE POP DUP1 PUSH1 0x8 DUP2 SWAP1 SSTORE POP DUP4 MLOAD PUSH8 0xFFFFFFFFFFFFFFFF DUP2 GT ISZERO PUSH3 0x32C JUMPI PUSH3 0x32B PUSH3 0x4FD JUMP JUMPDEST JUMPDEST PUSH1 0x40 MLOAD SWAP1 DUP1 DUP3 MSTORE DUP1 PUSH1 0x20 MUL PUSH1 0x20 ADD DUP3 ADD PUSH1 0x40 MSTORE DUP1 ISZERO PUSH3 0x361 JUMPI DUP2 PUSH1 0x20 ADD JUMPDEST PUSH1 0x60 DUP2 MSTORE PUSH1 0x20 ADD SWAP1 PUSH1 0x1 SWAP1 SUB SWAP1 DUP2 PUSH3 0x34B JUMPI SWAP1 POP JUMPDEST POP PUSH1 0x5 SWAP1 DUP1 MLOAD SWAP1 PUSH1 0x20 ADD SWAP1 PUSH3 0x379 SWAP3 SWAP2 SWAP1 PUSH3 0x3EF JUMP JUMPDEST POP PUSH0 JUMPDEST DUP5 MLOAD DUP2 LT ISZERO PUSH3 0x3E0 JUMPI DUP5 DUP2 DUP2 MLOAD DUP2 LT PUSH3 0x39C JUMPI PUSH3 0x39B PUSH3 0xF74 JUMP JUMPDEST JUMPDEST PUSH1 0x20 MUL PUSH1 0x20 ADD ADD MLOAD PUSH1 0x5 DUP3 DUP2 SLOAD DUP2 LT PUSH3 0x3BB JUMPI PUSH3 0x3BA PUSH3 0xF74 JUMP JUMPDEST JUMPDEST SWAP1 PUSH0 MSTORE PUSH1 0x20 PUSH0 KECCAK256 ADD SWAP1 DUP2 PUSH3 0x3D1 SWAP2 SWAP1 PUSH3 0xE90 JUMP JUMPDEST POP DUP1 DUP1 PUSH1 0x1 ADD SWAP2 POP POP PUSH3 0x37C JUMP JUMPDEST POP POP POP POP POP POP POP POP POP PUSH3 0xFA1 JUMP JUMPDEST DUP3 DUP1 SLOAD DUP3 DUP3 SSTORE SWAP1 PUSH0 MSTORE PUSH1 0x20 PUSH0 KECCAK256 SWAP1 DUP2 ADD SWAP3 DUP3 ISZERO PUSH3 0x43A JUMPI SWAP2 PUSH1 0x20 MUL DUP3 ADD JUMPDEST DUP3 DUP2 GT ISZERO PUSH3 0x439 JUMPI DUP3 MLOAD DUP3 SWAP1 DUP2 PUSH3 0x428 SWAP2 SWAP1 PUSH3 0xE90 JUMP JUMPDEST POP SWAP2 PUSH1 0x20 ADD SWAP2 SWAP1 PUSH1 0x1 ADD SWAP1 PUSH3 0x40E JUMP JUMPDEST JUMPDEST POP SWAP1 POP PUSH3 0x449 SWAP2 SWAP1 PUSH3 0x44D JUMP JUMPDEST POP SWAP1 JUMP JUMPDEST JUMPDEST DUP1 DUP3 GT ISZERO PUSH3 0x470 JUMPI PUSH0 DUP2 DUP2 PUSH3 0x466 SWAP2 SWAP1 PUSH3 0x474 JUMP JUMPDEST POP PUSH1 0x1 ADD PUSH3 0x44E JUMP JUMPDEST POP SWAP1 JUMP JUMPDEST POP DUP1 SLOAD PUSH3 0x482 SWAP1 PUSH3 0xC99 JUMP JUMPDEST PUSH0 DUP3 SSTORE DUP1 PUSH1 0x1F LT PUSH3 0x495 JUMPI POP PUSH3 0x4B4 JUMP JUMPDEST PUSH1 0x1F ADD PUSH1 0x20 SWAP1 DIV SWAP1 PUSH0 MSTORE PUSH1 0x20 PUSH0 KECCAK256 SWAP1 DUP2 ADD SWAP1 PUSH3 0x4B3 SWAP2 SWAP1 PUSH3 0x4B7 JUMP JUMPDEST JUMPDEST POP JUMP JUMPDEST JUMPDEST DUP1 DUP3 GT ISZERO PUSH3 0x4D0 JUMPI PUSH0 DUP2 PUSH0 SWAP1 SSTORE POP PUSH1 0x1 ADD PUSH3 0x4B8 JUMP JUMPDEST POP SWAP1 JUMP JUMPDEST PUSH0 PUSH1 0x40 MLOAD SWAP1 POP SWAP1 JUMP JUMPDEST PUSH0 DUP1 REVERT JUMPDEST PUSH0 DUP1 REVERT JUMPDEST PUSH0 DUP1 REVERT JUMPDEST PUSH0 DUP1 REVERT JUMPDEST PUSH0 PUSH1 0x1F NOT PUSH1 0x1F DUP4 ADD AND SWAP1 POP SWAP2 SWAP1 POP JUMP JUMPDEST PUSH32 0x4E487B7100000000000000000000000000000000000000000000000000000000 PUSH0 MSTORE PUSH1 0x41 PUSH1 0x4 MSTORE PUSH1 0x24 PUSH0 REVERT JUMPDEST PUSH3 0x535 DUP3 PUSH3 0x4ED JUMP JUMPDEST DUP2 ADD DUP2 DUP2 LT PUSH8 0xFFFFFFFFFFFFFFFF DUP3 GT OR ISZERO PUSH3 0x557 JUMPI PUSH3 0x556 PUSH3 0x4FD JUMP JUMPDEST JUMPDEST DUP1 PUSH1 0x40 MSTORE POP POP POP JUMP JUMPDEST PUSH0 PUSH3 0x56B PUSH3 0x4D4 JUMP JUMPDEST SWAP1 POP PUSH3 0x579 DUP3 DUP3 PUSH3 0x52A JUMP JUMPDEST SWAP2 SWAP1 POP JUMP JUMPDEST PUSH0 PUSH8 0xFFFFFFFFFFFFFFFF DUP3 GT ISZERO PUSH3 0x59B JUMPI PUSH3 0x59A PUSH3 0x4FD JUMP JUMPDEST JUMPDEST PUSH3 0x5A6 DUP3 PUSH3 0x4ED JUMP JUMPDEST SWAP1 POP PUSH1 0x20 DUP2 ADD SWAP1 POP SWAP2 SWAP1 POP JUMP JUMPDEST PUSH0 JUMPDEST DUP4 DUP2 LT ISZERO PUSH3 0x5D2 JUMPI DUP1 DUP3 ADD MLOAD DUP2 DUP5 ADD MSTORE PUSH1 0x20 DUP2 ADD SWAP1 POP PUSH3 0x5B5 JUMP JUMPDEST PUSH0 DUP5 DUP5 ADD MSTORE POP POP POP POP JUMP JUMPDEST PUSH0 PUSH3 0x5F3 PUSH3 0x5ED DUP5 PUSH3 0x57E JUMP JUMPDEST PUSH3 0x560 JUMP JUMPDEST SWAP1 POP DUP3 DUP2 MSTORE PUSH1 0x20 DUP2 ADD DUP5 DUP5 DUP5 ADD GT ISZERO PUSH3 0x612 JUMPI PUSH3 0x611 PUSH3 0x4E9 JUMP JUMPDEST JUMPDEST PUSH3 0x61F DUP5 DUP3 DUP6 PUSH3 0x5B3 JUMP JUMPDEST POP SWAP4 SWAP3 POP POP POP JUMP JUMPDEST PUSH0 DUP3 PUSH1 0x1F DUP4 ADD SLT PUSH3 0x63E JUMPI PUSH3 0x63D PUSH3 0x4E5 JUMP JUMPDEST JUMPDEST DUP2 MLOAD PUSH3 0x650 DUP5 DUP3 PUSH1 0x20 DUP7 ADD PUSH3 0x5DD JUMP JUMPDEST SWAP2 POP POP SWAP3 SWAP2 POP POP JUMP JUMPDEST PUSH0 DUP2 SWAP1 POP SWAP2 SWAP1 POP JUMP JUMPDEST PUSH3 0x66D DUP2 PUSH3 0x659 JUMP JUMPDEST DUP2 EQ PUSH3 0x678 JUMPI PUSH0 DUP1 REVERT JUMPDEST POP JUMP JUMPDEST PUSH0 DUP2 MLOAD SWAP1 POP PUSH3 0x68B DUP2 PUSH3 0x662 JUMP JUMPDEST SWAP3 SWAP2 POP POP JUMP JUMPDEST PUSH0 PUSH8 0xFFFFFFFFFFFFFFFF DUP3 GT ISZERO PUSH3 0x6AE JUMPI PUSH3 0x6AD PUSH3 0x4FD JUMP JUMPDEST JUMPDEST PUSH1 0x20 DUP3 MUL SWAP1 POP PUSH1 0x20 DUP2 ADD SWAP1 POP SWAP2 SWAP1 POP JUMP JUMPDEST PUSH0 DUP1 REVERT JUMPDEST PUSH0 PUSH3 0x6D9 PUSH3 0x6D3 DUP5 PUSH3 0x691 JUMP JUMPDEST PUSH3 0x560 JUMP JUMPDEST SWAP1 POP DUP1 DUP4 DUP3 MSTORE PUSH1 0x20 DUP3 ADD SWAP1 POP PUSH1 0x20 DUP5 MUL DUP4 ADD DUP6 DUP2 GT ISZERO PUSH3 0x6FF JUMPI PUSH3 0x6FE PUSH3 0x6BF JUMP JUMPDEST JUMPDEST DUP4 JUMPDEST DUP2 DUP2 LT ISZERO PUSH3 0x74D JUMPI DUP1 MLOAD PUSH8 0xFFFFFFFFFFFFFFFF DUP2 GT ISZERO PUSH3 0x728 JUMPI PUSH3 0x727 PUSH3 0x4E5 JUMP JUMPDEST JUMPDEST DUP1 DUP7 ADD PUSH3 0x737 DUP10 DUP3 PUSH3 0x627 JUMP JUMPDEST DUP6 MSTORE PUSH1 0x20 DUP6 ADD SWAP5 POP POP POP PUSH1 0x20 DUP2 ADD SWAP1 POP PUSH3 0x701 JUMP JUMPDEST POP POP POP SWAP4 SWAP3 POP POP POP JUMP JUMPDEST PUSH0 DUP3 PUSH1 0x1F DUP4 ADD SLT PUSH3 0x76E JUMPI PUSH3 0x76D PUSH3 0x4E5 JUMP JUMPDEST JUMPDEST DUP2 MLOAD PUSH3 0x780 DUP5 DUP3 PUSH1 0x20 DUP7 ADD PUSH3 0x6C3 JUMP JUMPDEST SWAP2 POP POP SWAP3 SWAP2 POP POP JUMP JUMPDEST PUSH0 PUSH20 0xFFFFFFFFFFFFFFFFFFFFFFFFFFFFFFFFFFFFFFFF DUP3 AND SWAP1 POP SWAP2 SWAP1 POP JUMP JUMPDEST PUSH0 PUSH3 0x7B4 DUP3 PUSH3 0x789 JUMP JUMPDEST SWAP1 POP SWAP2 SWAP1 POP JUMP JUMPDEST PUSH3 0x7C6 DUP2 PUSH3 0x7A8 JUMP JUMPDEST DUP2 EQ PUSH3 0x7D1 JUMPI PUSH0 DUP1 REVERT JUMPDEST POP JUMP JUMPDEST PUSH0 DUP2 MLOAD SWAP1 POP PUSH3 0x7E4 DUP2 PUSH3 0x7BB JUMP JUMPDEST SWAP3 SWAP2 POP POP JUMP JUMPDEST PUSH0 DUP1 PUSH0 DUP1 PUSH0 DUP1 PUSH0 DUP1 PUSH2 0x100 DUP10 DUP12 SUB SLT ISZERO PUSH3 0x80A JUMPI PUSH3 0x809 PUSH3 0x4DD JUMP JUMPDEST JUMPDEST PUSH0 DUP10 ADD MLOAD PUSH8 0xFFFFFFFFFFFFFFFF DUP2 GT ISZERO PUSH3 0x82A JUMPI PUSH3 0x829 PUSH3 0x4E1 JUMP JUMPDEST JUMPDEST PUSH3 0x838 DUP12 DUP3 DUP13 ADD PUSH3 0x627 JUMP JUMPDEST SWAP9 POP POP PUSH1 0x20 DUP10 ADD MLOAD PUSH8 0xFFFFFFFFFFFFFFFF DUP2 GT ISZERO PUSH3 0x85C JUMPI PUSH3 0x85B PUSH3 0x4E1 JUMP JUMPDEST JUMPDEST PUSH3 0x86A DUP12 DUP3 DUP13 ADD PUSH3 0x627 JUMP JUMPDEST SWAP8 POP POP PUSH1 0x40 PUSH3 0x87D DUP12 DUP3 DUP13 ADD PUSH3 0x67B JUMP JUMPDEST SWAP7 POP POP PUSH1 0x60 DUP10 ADD MLOAD PUSH8 0xFFFFFFFFFFFFFFFF DUP2 GT ISZERO PUSH3 0x8A1 JUMPI PUSH3 0x8A0 PUSH3 0x4E1 JUMP JUMPDEST JUMPDEST PUSH3 0x8AF DUP12 DUP3 DUP13 ADD PUSH3 0x627 JUMP JUMPDEST SWAP6 POP POP PUSH1 0x80 DUP10 ADD MLOAD PUSH8 0xFFFFFFFFFFFFFFFF DUP2 GT ISZERO PUSH3 0x8D3 JUMPI PUSH3 0x8D2 PUSH3 0x4E1 JUMP JUMPDEST JUMPDEST PUSH3 0x8E1 DUP12 DUP3 DUP13 ADD PUSH3 0x757 JUMP JUMPDEST SWAP5 POP POP PUSH1 0xA0 PUSH3 0x8F4 DUP12 DUP3 DUP13 ADD PUSH3 0x7D4 JUMP JUMPDEST SWAP4 POP POP PUSH1 0xC0 PUSH3 0x907 DUP12 DUP3 DUP13 ADD PUSH3 0x67B JUMP JUMPDEST SWAP3 POP POP PUSH1 0xE0 PUSH3 0x91A DUP12 DUP3 DUP13 ADD PUSH3 0x67B JUMP JUMPDEST SWAP2 POP POP SWAP3 SWAP6 SWAP9 POP SWAP3 SWAP6 SWAP9 SWAP1 SWAP4 SWAP7 POP JUMP JUMPDEST PUSH0 DUP3 DUP3 MSTORE PUSH1 0x20 DUP3 ADD SWAP1 POP SWAP3 SWAP2 POP POP JUMP JUMPDEST PUSH32 0x456D707479207469746C65000000000000000000000000000000000000000000 PUSH0 DUP3 ADD MSTORE POP JUMP JUMPDEST PUSH0 PUSH3 0x970 PUSH1 0xB DUP4 PUSH3 0x92A JUMP JUMPDEST SWAP2 POP PUSH3 0x97D DUP3 PUSH3 0x93A JUMP JUMPDEST PUSH1 0x20 DUP3 ADD SWAP1 POP SWAP2 SWAP1 POP JUMP JUMPDEST PUSH0 PUSH1 0x20 DUP3 ADD SWAP1 POP DUP2 DUP2 SUB PUSH0 DUP4 ADD MSTORE PUSH3 0x9A1 DUP2 PUSH3 0x962 JUMP JUMPDEST SWAP1 POP SWAP2 SWAP1 POP JUMP JUMPDEST PUSH32 0x456D707479206164647265737300000000000000000000000000000000000000 PUSH0 DUP3 ADD MSTORE POP JUMP JUMPDEST PUSH0 PUSH3 0x9DE PUSH1 0xD DUP4 PUSH3 0x92A JUMP JUMPDEST SWAP2 POP PUSH3 0x9EB DUP3 PUSH3 0x9A8 JUMP JUMPDEST PUSH1 0x20 DUP3 ADD SWAP1 POP SWAP2 SWAP1 POP JUMP JUMPDEST PUSH0 PUSH1 0x20 DUP3 ADD SWAP1 POP DUP2 DUP2 SUB PUSH0 DUP4 ADD MSTORE PUSH3 0xA0F DUP2 PUSH3 0x9D0 JUMP JUMPDEST SWAP1 POP SWAP2 SWAP1 POP JUMP JUMPDEST PUSH32 0x417474656E64656573206D757374206265203E20300000000000000000000000 PUSH0 DUP3 ADD MSTORE POP JUMP JUMPDEST PUSH0 PUSH3 0xA4C PUSH1 0x15 DUP4 PUSH3 0x92A JUMP JUMPDEST SWAP2 POP PUSH3 0xA59 DUP3 PUSH3 0xA16 JUMP JUMPDEST PUSH1 0x20 DUP3 ADD SWAP1 POP SWAP2 SWAP1 POP JUMP JUMPDEST PUSH0 PUSH1 0x20 DUP3 ADD SWAP1 POP DUP2 DUP2 SUB PUSH0 DUP4 ADD MSTORE PUSH3 0xA7D DUP2 PUSH3 0xA3E JUMP JUMPDEST SWAP1 POP SWAP2 SWAP1 POP JUMP JUMPDEST PUSH32 0x4F776E65722063616E6E6F747A65726F00000000000000000000000000000000 PUSH0 DUP3 ADD MSTORE POP JUMP JUMPDEST PUSH0 PUSH3 0xABA PUSH1 0x10 DUP4 PUSH3 0x92A JUMP JUMPDEST SWAP2 POP PUSH3 0xAC7 DUP3 PUSH3 0xA84 JUMP JUMPDEST PUSH1 0x20 DUP3 ADD SWAP1 POP SWAP2 SWAP1 POP JUMP JUMPDEST PUSH0 PUSH1 0x20 DUP3 ADD SWAP1 POP DUP2 DUP2 SUB PUSH0 DUP4 ADD MSTORE PUSH3 0xAEB DUP2 PUSH3 0xAAC JUMP JUMPDEST SWAP1 POP SWAP2 SWAP1 POP JUMP JUMPDEST PUSH32 0x4576656E74206D75737420626520696E20746865206675747572650000000000 PUSH0 DUP3 ADD MSTORE POP JUMP JUMPDEST PUSH0 PUSH3 0xB28 PUSH1 0x1B DUP4 PUSH3 0x92A JUMP JUMPDEST SWAP2 POP PUSH3 0xB35 DUP3 PUSH3 0xAF2 JUMP JUMPDEST PUSH1 0x20 DUP3 ADD SWAP1 POP SWAP2 SWAP1 POP JUMP JUMPDEST PUSH0 PUSH1 0x20 DUP3 ADD SWAP1 POP DUP2 DUP2 SUB PUSH0 DUP4 ADD MSTORE PUSH3 0xB59 DUP2 PUSH3 0xB1A JUMP JUMPDEST SWAP1 POP SWAP2 SWAP1 POP JUMP JUMPDEST PUSH32 0x4576656E7420656E64696E67206D757374206265206166746572206576656E74 PUSH0 DUP3 ADD MSTORE PUSH32 0x207374617274696E670000000000000000000000000000000000000000000000 PUSH1 0x20 DUP3 ADD MSTORE POP JUMP JUMPDEST PUSH0 PUSH3 0xBBC PUSH1 0x29 DUP4 PUSH3 0x92A JUMP JUMPDEST SWAP2 POP PUSH3 0xBC9 DUP3 PUSH3 0xB60 JUMP JUMPDEST PUSH1 0x40 DUP3 ADD SWAP1 POP SWAP2 SWAP1 POP JUMP JUMPDEST PUSH0 PUSH1 0x20 DUP3 ADD SWAP1 POP DUP2 DUP2 SUB PUSH0 DUP4 ADD MSTORE PUSH3 0xBED DUP2 PUSH3 0xBAE JUMP JUMPDEST SWAP1 POP SWAP2 SWAP1 POP JUMP JUMPDEST PUSH32 0x546F6F206D616E7920746167732C206D61782035000000000000000000000000 PUSH0 DUP3 ADD MSTORE POP JUMP JUMPDEST PUSH0 PUSH3 0xC2A PUSH1 0x14 DUP4 PUSH3 0x92A JUMP JUMPDEST SWAP2 POP PUSH3 0xC37 DUP3 PUSH3 0xBF4 JUMP JUMPDEST PUSH1 0x20 DUP3 ADD SWAP1 POP SWAP2 SWAP1 POP JUMP JUMPDEST PUSH0 PUSH1 0x20 DUP3 ADD SWAP1 POP DUP2 DUP2 SUB PUSH0 DUP4 ADD MSTORE PUSH3 0xC5B DUP2 PUSH3 0xC1C JUMP JUMPDEST SWAP1 POP SWAP2 SWAP1 POP JUMP JUMPDEST PUSH0 DUP2 MLOAD SWAP1 POP SWAP2 SWAP1 POP JUMP JUMPDEST PUSH32 0x4E487B7100000000000000000000000000000000000000000000000000000000 PUSH0 MSTORE PUSH1 0x22 PUSH1 0x4 MSTORE PUSH1 0x24 PUSH0 REVERT JUMPDEST PUSH0 PUSH1 0x2 DUP3 DIV SWAP1 POP PUSH1 0x1 DUP3 AND DUP1 PUSH3 0xCB1 JUMPI PUSH1 0x7F DUP3 AND SWAP2 POP JUMPDEST PUSH1 0x20 DUP3 LT DUP2 SUB PUSH3 0xCC7 JUMPI PUSH3 0xCC6 PUSH3 0xC6C JUMP JUMPDEST JUMPDEST POP SWAP2 SWAP1 POP JUMP JUMPDEST PUSH0 DUP2 SWAP1 POP DUP2 PUSH0 MSTORE PUSH1 0x20 PUSH0 KECCAK256 SWAP1 POP SWAP2 SWAP1 POP JUMP JUMPDEST PUSH0 PUSH1 0x20 PUSH1 0x1F DUP4 ADD DIV SWAP1 POP SWAP2 SWAP1 POP JUMP JUMPDEST PUSH0 DUP3 DUP3 SHL SWAP1 POP SWAP3 SWAP2 POP POP JUMP JUMPDEST PUSH0 PUSH1 0x8 DUP4 MUL PUSH3 0xD2B PUSH32 0xFFFFFFFFFFFFFFFFFFFFFFFFFFFFFFFFFFFFFFFFFFFFFFFFFFFFFFFFFFFFFFFF DUP3 PUSH3 0xCEE JUMP JUMPDEST PUSH3 0xD37 DUP7 DUP4 PUSH3 0xCEE JUMP JUMPDEST SWAP6 POP DUP1 NOT DUP5 AND SWAP4 POP DUP1 DUP7 AND DUP5 OR SWAP3 POP POP POP SWAP4 SWAP3 POP POP POP JUMP JUMPDEST PUSH0 DUP2 SWAP1 POP SWAP2 SWAP1 POP JUMP JUMPDEST PUSH0 PUSH3 0xD78 PUSH3 0xD72 PUSH3 0xD6C DUP5 PUSH3 0x659 JUMP JUMPDEST PUSH3 0xD4F JUMP JUMPDEST PUSH3 0x659 JUMP JUMPDEST SWAP1 POP SWAP2 SWAP1 POP JUMP JUMPDEST PUSH0 DUP2 SWAP1 POP SWAP2 SWAP1 POP JUMP JUMPDEST PUSH3 0xD93 DUP4 PUSH3 0xD58 JUMP JUMPDEST PUSH3 0xDAB PUSH3 0xDA2 DUP3 PUSH3 0xD7F JUMP JUMPDEST DUP5 DUP5 SLOAD PUSH3 0xCFA JUMP JUMPDEST DUP3 SSTORE POP POP POP POP JUMP JUMPDEST PUSH0 SWAP1 JUMP JUMPDEST PUSH3 0xDC1 PUSH3 0xDB3 JUMP JUMPDEST PUSH3 0xDCE DUP2 DUP5 DUP5 PUSH3 0xD88 JUMP JUMPDEST POP POP POP JUMP JUMPDEST JUMPDEST DUP2 DUP2 LT ISZERO PUSH3 0xDF5 JUMPI PUSH3 0xDE9 PUSH0 DUP3 PUSH3 0xDB7 JUMP JUMPDEST PUSH1 0x1 DUP2 ADD SWAP1 POP PUSH3 0xDD4 JUMP JUMPDEST POP POP JUMP JUMPDEST PUSH1 0x1F DUP3 GT ISZERO PUSH3 0xE44 JUMPI PUSH3 0xE0E DUP2 PUSH3 0xCCD JUMP JUMPDEST PUSH3 0xE19 DUP5 PUSH3 0xCDF JUMP JUMPDEST DUP2 ADD PUSH1 0x20 DUP6 LT ISZERO PUSH3 0xE29 JUMPI DUP2 SWAP1 POP JUMPDEST PUSH3 0xE41 PUSH3 0xE38 DUP6 PUSH3 0xCDF JUMP JUMPDEST DUP4 ADD DUP3 PUSH3 0xDD3 JUMP JUMPDEST POP POP JUMPDEST POP POP POP JUMP JUMPDEST PUSH0 DUP3 DUP3 SHR SWAP1 POP SWAP3 SWAP2 POP POP JUMP JUMPDEST PUSH0 PUSH3 0xE66 PUSH0 NOT DUP5 PUSH1 0x8 MUL PUSH3 0xE49 JUMP JUMPDEST NOT DUP1 DUP4 AND SWAP2 POP POP SWAP3 SWAP2 POP POP JUMP JUMPDEST PUSH0 PUSH3 0xE80 DUP4 DUP4 PUSH3 0xE55 JUMP JUMPDEST SWAP2 POP DUP3 PUSH1 0x2 MUL DUP3 OR SWAP1 POP SWAP3 SWAP2 POP POP JUMP JUMPDEST PUSH3 0xE9B DUP3 PUSH3 0xC62 JUMP JUMPDEST PUSH8 0xFFFFFFFFFFFFFFFF DUP2 GT ISZERO PUSH3 0xEB7 JUMPI PUSH3 0xEB6 PUSH3 0x4FD JUMP JUMPDEST JUMPDEST PUSH3 0xEC3 DUP3 SLOAD PUSH3 0xC99 JUMP JUMPDEST PUSH3 0xED0 DUP3 DUP3 DUP6 PUSH3 0xDF9 JUMP JUMPDEST PUSH0 PUSH1 0x20 SWAP1 POP PUSH1 0x1F DUP4 GT PUSH1 0x1 DUP2 EQ PUSH3 0xF06 JUMPI PUSH0 DUP5 ISZERO PUSH3 0xEF1 JUMPI DUP3 DUP8 ADD MLOAD SWAP1 POP JUMPDEST PUSH3 0xEFD DUP6 DUP3 PUSH3 0xE73 JUMP JUMPDEST DUP7 SSTORE POP PUSH3 0xF6C JUMP JUMPDEST PUSH1 0x1F NOT DUP5 AND PUSH3 0xF16 DUP7 PUSH3 0xCCD JUMP JUMPDEST PUSH0 JUMPDEST DUP3 DUP2 LT ISZERO PUSH3 0xF3F JUMPI DUP5 DUP10 ADD MLOAD DUP3 SSTORE PUSH1 0x1 DUP3 ADD SWAP2 POP PUSH1 0x20 DUP6 ADD SWAP5 POP PUSH1 0x20 DUP2 ADD SWAP1 POP PUSH3 0xF18 JUMP JUMPDEST DUP7 DUP4 LT ISZERO PUSH3 0xF5F JUMPI DUP5 DUP10 ADD MLOAD PUSH3 0xF5B PUSH1 0x1F DUP10 AND DUP3 PUSH3 0xE55 JUMP JUMPDEST DUP4 SSTORE POP JUMPDEST PUSH1 0x1 PUSH1 0x2 DUP9 MUL ADD DUP9 SSTORE POP POP POP JUMPDEST POP POP POP POP POP POP JUMP JUMPDEST PUSH32 0x4E487B7100000000000000000000000000000000000000000000000000000000 PUSH0 MSTORE PUSH1 0x32 PUSH1 0x4 MSTORE PUSH1 0x24 PUSH0 REVERT JUMPDEST PUSH2 0x1E90 DUP1 PUSH3 0xFAF PUSH0 CODECOPY PUSH0 RETURN INVALID PUSH1 0x80 PUSH1 0x40 MSTORE CALLVALUE DUP1 ISZERO PUSH2 0xF JUMPI PUSH0 DUP1 REVERT JUMPDEST POP PUSH1 0x4 CALLDATASIZE LT PUSH2 0x156 JUMPI PUSH0 CALLDATALOAD PUSH1 0xE0 SHR DUP1 PUSH4 0x7284E416 GT PUSH2 0xC1 JUMPI DUP1 PUSH4 0xCB510E97 GT PUSH2 0x7A JUMPI DUP1 PUSH4 0xCB510E97 EQ PUSH2 0x37E JUMPI DUP1 PUSH4 0xCF09E0D0 EQ PUSH2 0x3AE JUMPI DUP1 PUSH4 0xE55448FC EQ PUSH2 0x3CC JUMPI DUP1 PUSH4 0xF57E63E2 EQ PUSH2 0x3E8 JUMPI DUP1 PUSH4 0xF9010D19 EQ PUSH2 0x406 JUMPI DUP1 PUSH4 0xFB6C9537 EQ PUSH2 0x410 JUMPI PUSH2 0x156 JUMP JUMPDEST DUP1 PUSH4 0x7284E416 EQ PUSH2 0x2E0 JUMPI DUP1 PUSH4 0x86EC6177 EQ PUSH2 0x2FE JUMPI DUP1 PUSH4 0x8DA5CB5B EQ PUSH2 0x308 JUMPI DUP1 PUSH4 0x995D9AB7 EQ PUSH2 0x326 JUMPI DUP1 PUSH4 0xAF468682 EQ PUSH2 0x344 JUMPI DUP1 PUSH4 0xC4522C92 EQ PUSH2 0x362 JUMPI PUSH2 0x156 JUMP JUMPDEST DUP1 PUSH4 0x516F279E GT PUSH2 0x113 JUMPI DUP1 PUSH4 0x516F279E EQ PUSH2 0x230 JUMPI DUP1 PUSH4 0x522E4C8A EQ PUSH2 0x24E JUMPI DUP1 PUSH4 0x5631A5CB EQ PUSH2 0x26A JUMPI DUP1 PUSH4 0x5F3D7FA1 EQ PUSH2 0x274 JUMPI DUP1 PUSH4 0x61F8506D EQ PUSH2 0x292 JUMPI DUP1 PUSH4 0x6CAD2590 EQ PUSH2 0x2B0 JUMPI PUSH2 0x156 JUMP JUMPDEST DUP1 PUSH4 0xA09284A EQ PUSH2 0x15A JUMPI DUP1 PUSH4 0x10246254 EQ PUSH2 0x178 JUMPI DUP1 PUSH4 0x148B597C EQ PUSH2 0x194 JUMPI DUP1 PUSH4 0x20822ABC EQ PUSH2 0x1B2 JUMPI DUP1 PUSH4 0x405FBAB5 EQ PUSH2 0x1E2 JUMPI DUP1 PUSH4 0x4A79D50C EQ PUSH2 0x212 JUMPI JUMPDEST PUSH0 DUP1 REVERT JUMPDEST PUSH2 0x162 PUSH2 0x41A JUMP JUMPDEST PUSH1 0x40 MLOAD PUSH2 0x16F SWAP2 SWAP1 PUSH2 0x14DD JUMP JUMPDEST PUSH1 0x40 MLOAD DUP1 SWAP2 SUB SWAP1 RETURN JUMPDEST PUSH2 0x192 PUSH1 0x4 DUP1 CALLDATASIZE SUB DUP2 ADD SWAP1 PUSH2 0x18D SWAP2 SWAP1 PUSH2 0x1554 JUMP JUMPDEST PUSH2 0x420 JUMP JUMPDEST STOP JUMPDEST PUSH2 0x19C PUSH2 0x641 JUMP JUMPDEST PUSH1 0x40 MLOAD PUSH2 0x1A9 SWAP2 SWAP1 PUSH2 0x1599 JUMP JUMPDEST PUSH1 0x40 MLOAD DUP1 SWAP2 SUB SWAP1 RETURN JUMPDEST PUSH2 0x1CC PUSH1 0x4 DUP1 CALLDATASIZE SUB DUP2 ADD SWAP1 PUSH2 0x1C7 SWAP2 SWAP1 PUSH2 0x15DC JUMP JUMPDEST PUSH2 0x654 JUMP JUMPDEST PUSH1 0x40 MLOAD PUSH2 0x1D9 SWAP2 SWAP1 PUSH2 0x1691 JUMP JUMPDEST PUSH1 0x40 MLOAD DUP1 SWAP2 SUB SWAP1 RETURN JUMPDEST PUSH2 0x1FC PUSH1 0x4 DUP1 CALLDATASIZE SUB DUP2 ADD SWAP1 PUSH2 0x1F7 SWAP2 SWAP1 PUSH2 0x1554 JUMP JUMPDEST PUSH2 0x6FA JUMP JUMPDEST PUSH1 0x40 MLOAD PUSH2 0x209 SWAP2 SWAP1 PUSH2 0x1599 JUMP JUMPDEST PUSH1 0x40 MLOAD DUP1 SWAP2 SUB SWAP1 RETURN JUMPDEST PUSH2 0x21A PUSH2 0x74C JUMP JUMPDEST PUSH1 0x40 MLOAD PUSH2 0x227 SWAP2 SWAP1 PUSH2 0x1691 JUMP JUMPDEST PUSH1 0x40 MLOAD DUP1 SWAP2 SUB SWAP1 RETURN JUMPDEST PUSH2 0x238 PUSH2 0x7D7 JUMP JUMPDEST PUSH1 0x40 MLOAD PUSH2 0x245 SWAP2 SWAP1 PUSH2 0x1691 JUMP JUMPDEST PUSH1 0x40 MLOAD DUP1 SWAP2 SUB SWAP1 RETURN JUMPDEST PUSH2 0x268 PUSH1 0x4 DUP1 CALLDATASIZE SUB DUP2 ADD SWAP1 PUSH2 0x263 SWAP2 SWAP1 PUSH2 0x1554 JUMP JUMPDEST PUSH2 0x863 JUMP JUMPDEST STOP JUMPDEST PUSH2 0x272 PUSH2 0x94A JUMP JUMPDEST STOP JUMPDEST PUSH2 0x27C PUSH2 0xB1A JUMP JUMPDEST PUSH1 0x40 MLOAD PUSH2 0x289 SWAP2 SWAP1 PUSH2 0x14DD JUMP JUMPDEST PUSH1 0x40 MLOAD DUP1 SWAP2 SUB SWAP1 RETURN JUMPDEST PUSH2 0x29A PUSH2 0xB20 JUMP JUMPDEST PUSH1 0x40 MLOAD PUSH2 0x2A7 SWAP2 SWAP1 PUSH2 0x14DD JUMP JUMPDEST PUSH1 0x40 MLOAD DUP1 SWAP2 SUB SWAP1 RETURN JUMPDEST PUSH2 0x2CA PUSH1 0x4 DUP1 CALLDATASIZE SUB DUP2 ADD SWAP1 PUSH2 0x2C5 SWAP2 SWAP1 PUSH2 0x1554 JUMP JUMPDEST PUSH2 0xB26 JUMP JUMPDEST PUSH1 0x40 MLOAD PUSH2 0x2D7 SWAP2 SWAP1 PUSH2 0x1599 JUMP JUMPDEST PUSH1 0x40 MLOAD DUP1 SWAP2 SUB SWAP1 RETURN JUMPDEST PUSH2 0x2E8 PUSH2 0xB43 JUMP JUMPDEST PUSH1 0x40 MLOAD PUSH2 0x2F5 SWAP2 SWAP1 PUSH2 0x1691 JUMP JUMPDEST PUSH1 0x40 MLOAD DUP1 SWAP2 SUB SWAP1 RETURN JUMPDEST PUSH2 0x306 PUSH2 0xBCF JUMP JUMPDEST STOP JUMPDEST PUSH2 0x310 PUSH2 0xD5F JUMP JUMPDEST PUSH1 0x40 MLOAD PUSH2 0x31D SWAP2 SWAP1 PUSH2 0x16C0 JUMP JUMPDEST PUSH1 0x40 MLOAD DUP1 SWAP2 SUB SWAP1 RETURN JUMPDEST PUSH2 0x32E PUSH2 0xD84 JUMP JUMPDEST PUSH1 0x40 MLOAD PUSH2 0x33B SWAP2 SWAP1 PUSH2 0x17DC JUMP JUMPDEST PUSH1 0x40 MLOAD DUP1 SWAP2 SUB SWAP1 RETURN JUMPDEST PUSH2 0x34C PUSH2 0xE58 JUMP JUMPDEST PUSH1 0x40 MLOAD PUSH2 0x359 SWAP2 SWAP1 PUSH2 0x14DD JUMP JUMPDEST PUSH1 0x40 MLOAD DUP1 SWAP2 SUB SWAP1 RETURN JUMPDEST PUSH2 0x37C PUSH1 0x4 DUP1 CALLDATASIZE SUB DUP2 ADD SWAP1 PUSH2 0x377 SWAP2 SWAP1 PUSH2 0x1554 JUMP JUMPDEST PUSH2 0xE5E JUMP JUMPDEST STOP JUMPDEST PUSH2 0x398 PUSH1 0x4 DUP1 CALLDATASIZE SUB DUP2 ADD SWAP1 PUSH2 0x393 SWAP2 SWAP1 PUSH2 0x1554 JUMP JUMPDEST PUSH2 0xF44 JUMP JUMPDEST PUSH1 0x40 MLOAD PUSH2 0x3A5 SWAP2 SWAP1 PUSH2 0x1599 JUMP JUMPDEST PUSH1 0x40 MLOAD DUP1 SWAP2 SUB SWAP1 RETURN JUMPDEST PUSH2 0x3B6 PUSH2 0xF61 JUMP JUMPDEST PUSH1 0x40 MLOAD PUSH2 0x3C3 SWAP2 SWAP1 PUSH2 0x14DD JUMP JUMPDEST PUSH1 0x40 MLOAD DUP1 SWAP2 SUB SWAP1 RETURN JUMPDEST PUSH2 0x3E6 PUSH1 0x4 DUP1 CALLDATASIZE SUB DUP2 ADD SWAP1 PUSH2 0x3E1 SWAP2 SWAP1 PUSH2 0x1554 JUMP JUMPDEST PUSH2 0xF67 JUMP JUMPDEST STOP JUMPDEST PUSH2 0x3F0 PUSH2 0x1184 JUMP JUMPDEST PUSH1 0x40 MLOAD PUSH2 0x3FD SWAP2 SWAP1 PUSH2 0x1599 JUMP JUMPDEST PUSH1 0x40 MLOAD DUP1 SWAP2 SUB SWAP1 RETURN JUMPDEST PUSH2 0x40E PUSH2 0x1196 JUMP JUMPDEST STOP JUMPDEST PUSH2 0x418 PUSH2 0x136A JUMP JUMPDEST STOP JUMPDEST PUSH1 0x8 SLOAD DUP2 JUMP JUMPDEST PUSH1 0x3 PUSH0 SWAP1 SLOAD SWAP1 PUSH2 0x100 EXP SWAP1 DIV PUSH20 0xFFFFFFFFFFFFFFFFFFFFFFFFFFFFFFFFFFFFFFFF AND PUSH20 0xFFFFFFFFFFFFFFFFFFFFFFFFFFFFFFFFFFFFFFFF AND CALLER PUSH20 0xFFFFFFFFFFFFFFFFFFFFFFFFFFFFFFFFFFFFFFFF AND EQ DUP1 PUSH2 0x4C1 JUMPI POP PUSH1 0xC PUSH0 CALLER PUSH20 0xFFFFFFFFFFFFFFFFFFFFFFFFFFFFFFFFFFFFFFFF AND PUSH20 0xFFFFFFFFFFFFFFFFFFFFFFFFFFFFFFFFFFFFFFFF AND DUP2 MSTORE PUSH1 0x20 ADD SWAP1 DUP2 MSTORE PUSH1 0x20 ADD PUSH0 KECCAK256 PUSH0 SWAP1 SLOAD SWAP1 PUSH2 0x100 EXP SWAP1 DIV PUSH1 0xFF AND JUMPDEST PUSH2 0x500 JUMPI PUSH1 0x40 MLOAD PUSH32 0x8C379A000000000000000000000000000000000000000000000000000000000 DUP2 MSTORE PUSH1 0x4 ADD PUSH2 0x4F7 SWAP1 PUSH2 0x1846 JUMP JUMPDEST PUSH1 0x40 MLOAD DUP1 SWAP2 SUB SWAP1 REVERT JUMPDEST PUSH1 0xB PUSH0 DUP3 PUSH20 0xFFFFFFFFFFFFFFFFFFFFFFFFFFFFFFFFFFFFFFFF AND PUSH20 0xFFFFFFFFFFFFFFFFFFFFFFFFFFFFFFFFFFFFFFFF AND DUP2 MSTORE PUSH1 0x20 ADD SWAP1 DUP2 MSTORE PUSH1 0x20 ADD PUSH0 KECCAK256 PUSH0 SWAP1 SLOAD SWAP1 PUSH2 0x100 EXP SWAP1 DIV PUSH1 0xFF AND ISZERO PUSH2 0x58A JUMPI PUSH1 0x40 MLOAD PUSH32 0x8C379A000000000000000000000000000000000000000000000000000000000 DUP2 MSTORE PUSH1 0x4 ADD PUSH2 0x581 SWAP1 PUSH2 0x18AE JUMP JUMPDEST PUSH1 0x40 MLOAD DUP1 SWAP2 SUB SWAP1 REVERT JUMPDEST PUSH1 0x2 SLOAD PUSH1 0x9 SLOAD LT PUSH2 0x5D0 JUMPI PUSH1 0x40 MLOAD PUSH32 0x8C379A000000000000000000000000000000000000000000000000000000000 DUP2 MSTORE PUSH1 0x4 ADD PUSH2 0x5C7 SWAP1 PUSH2 0x1916 JUMP JUMPDEST PUSH1 0x40 MLOAD DUP1 SWAP2 SUB SWAP1 REVERT JUMPDEST PUSH1 0x1 PUSH1 0x9 PUSH0 DUP3 DUP3 SLOAD PUSH2 0x5E2 SWAP2 SWAP1 PUSH2 0x1961 JUMP JUMPDEST SWAP3 POP POP DUP2 SWAP1 SSTORE POP PUSH1 0x1 PUSH1 0xB PUSH0 DUP4 PUSH20 0xFFFFFFFFFFFFFFFFFFFFFFFFFFFFFFFFFFFFFFFF AND PUSH20 0xFFFFFFFFFFFFFFFFFFFFFFFFFFFFFFFFFFFFFFFF AND DUP2 MSTORE PUSH1 0x20 ADD SWAP1 DUP2 MSTORE PUSH1 0x20 ADD PUSH0 KECCAK256 PUSH0 PUSH2 0x100 EXP DUP2 SLOAD DUP2 PUSH1 0xFF MUL NOT AND SWAP1 DUP4 ISZERO ISZERO MUL OR SWAP1 SSTORE POP POP JUMP JUMPDEST PUSH1 0xA PUSH1 0x1 SWAP1 SLOAD SWAP1 PUSH2 0x100 EXP SWAP1 DIV PUSH1 0xFF AND DUP2 JUMP JUMPDEST PUSH1 0x5 DUP2 DUP2 SLOAD DUP2 LT PUSH2 0x663 JUMPI PUSH0 DUP1 REVERT JUMPDEST SWAP1 PUSH0 MSTORE PUSH1 0x20 PUSH0 KECCAK256 ADD PUSH0 SWAP2 POP SWAP1 POP DUP1 SLOAD PUSH2 0x67B SWAP1 PUSH2 0x19C1 JUMP JUMPDEST DUP1 PUSH1 0x1F ADD PUSH1 0x20 DUP1 SWAP2 DIV MUL PUSH1 0x20 ADD PUSH1 0x40 MLOAD SWAP1 DUP2 ADD PUSH1 0x40 MSTORE DUP1 SWAP3 SWAP2 SWAP1 DUP2 DUP2 MSTORE PUSH1 0x20 ADD DUP3 DUP1 SLOAD PUSH2 0x6A7 SWAP1 PUSH2 0x19C1 JUMP JUMPDEST DUP1 ISZERO PUSH2 0x6F2 JUMPI DUP1 PUSH1 0x1F LT PUSH2 0x6C9 JUMPI PUSH2 0x100 DUP1 DUP4 SLOAD DIV MUL DUP4 MSTORE SWAP2 PUSH1 0x20 ADD SWAP2 PUSH2 0x6F2 JUMP JUMPDEST DUP3 ADD SWAP2 SWAP1 PUSH0 MSTORE PUSH1 0x20 PUSH0 KECCAK256 SWAP1 JUMPDEST DUP2 SLOAD DUP2 MSTORE SWAP1 PUSH1 0x1 ADD SWAP1 PUSH1 0x20 ADD DUP1 DUP4 GT PUSH2 0x6D5 JUMPI DUP3 SWAP1 SUB PUSH1 0x1F AND DUP3 ADD SWAP2 JUMPDEST POP POP POP POP POP DUP2 JUMP JUMPDEST PUSH0 PUSH1 0xB PUSH0 DUP4 PUSH20 0xFFFFFFFFFFFFFFFFFFFFFFFFFFFFFFFFFFFFFFFF AND PUSH20 0xFFFFFFFFFFFFFFFFFFFFFFFFFFFFFFFFFFFFFFFF AND DUP2 MSTORE PUSH1 0x20 ADD SWAP1 DUP2 MSTORE PUSH1 0x20 ADD PUSH0 KECCAK256 PUSH0 SWAP1 SLOAD SWAP1 PUSH2 0x100 EXP SWAP1 DIV PUSH1 0xFF AND SWAP1 POP SWAP2 SWAP1 POP JUMP JUMPDEST PUSH0 DUP1 SLOAD PUSH2 0x758 SWAP1 PUSH2 0x19C1 JUMP JUMPDEST DUP1 PUSH1 0x1F ADD PUSH1 0x20 DUP1 SWAP2 DIV MUL PUSH1 0x20 ADD PUSH1 0x40 MLOAD SWAP1 DUP2 ADD PUSH1 0x40 MSTORE DUP1 SWAP3 SWAP2 SWAP1 DUP2 DUP2 MSTORE PUSH1 0x20 ADD DUP3 DUP1 SLOAD PUSH2 0x784 SWAP1 PUSH2 0x19C1 JUMP JUMPDEST DUP1 ISZERO PUSH2 0x7CF JUMPI DUP1 PUSH1 0x1F LT PUSH2 0x7A6 JUMPI PUSH2 0x100 DUP1 DUP4 SLOAD DIV MUL DUP4 MSTORE SWAP2 PUSH1 0x20 ADD SWAP2 PUSH2 0x7CF JUMP JUMPDEST DUP3 ADD SWAP2 SWAP1 PUSH0 MSTORE PUSH1 0x20 PUSH0 KECCAK256 SWAP1 JUMPDEST DUP2 SLOAD DUP2 MSTORE SWAP1 PUSH1 0x1 ADD SWAP1 PUSH1 0x20 ADD DUP1 DUP4 GT PUSH2 0x7B2 JUMPI DUP3 SWAP1 SUB PUSH1 0x1F AND DUP3 ADD SWAP2 JUMPDEST POP POP POP POP POP DUP2 JUMP JUMPDEST PUSH1 0x1 DUP1 SLOAD PUSH2 0x7E4 SWAP1 PUSH2 0x19C1 JUMP JUMPDEST DUP1 PUSH1 0x1F ADD PUSH1 0x20 DUP1 SWAP2 DIV MUL PUSH1 0x20 ADD PUSH1 0x40 MLOAD SWAP1 DUP2 ADD PUSH1 0x40 MSTORE DUP1 SWAP3 SWAP2 SWAP1 DUP2 DUP2 MSTORE PUSH1 0x20 ADD DUP3 DUP1 SLOAD PUSH2 0x810 SWAP1 PUSH2 0x19C1 JUMP JUMPDEST DUP1 ISZERO PUSH2 0x85B JUMPI DUP1 PUSH1 0x1F LT PUSH2 0x832 JUMPI PUSH2 0x100 DUP1 DUP4 SLOAD DIV MUL DUP4 MSTORE SWAP2 PUSH1 0x20 ADD SWAP2 PUSH2 0x85B JUMP JUMPDEST DUP3 ADD SWAP2 SWAP1 PUSH0 MSTORE PUSH1 0x20 PUSH0 KECCAK256 SWAP1 JUMPDEST DUP2 SLOAD DUP2 MSTORE SWAP1 PUSH1 0x1 ADD SWAP1 PUSH1 0x20 ADD DUP1 DUP4 GT PUSH2 0x83E JUMPI DUP3 SWAP1 SUB PUSH1 0x1F AND DUP3 ADD SWAP2 JUMPDEST POP POP POP POP POP DUP2 JUMP JUMPDEST PUSH1 0x3 PUSH0 SWAP1 SLOAD SWAP1 PUSH2 0x100 EXP SWAP1 DIV PUSH20 0xFFFFFFFFFFFFFFFFFFFFFFFFFFFFFFFFFFFFFFFF AND PUSH20 0xFFFFFFFFFFFFFFFFFFFFFFFFFFFFFFFFFFFFFFFF AND CALLER PUSH20 0xFFFFFFFFFFFFFFFFFFFFFFFFFFFFFFFFFFFFFFFF AND EQ PUSH2 0x8F2 JUMPI PUSH1 0x40 MLOAD PUSH32 0x8C379A000000000000000000000000000000000000000000000000000000000 DUP2 MSTORE PUSH1 0x4 ADD PUSH2 0x8E9 SWAP1 PUSH2 0x1A3B JUMP JUMPDEST PUSH1 0x40 MLOAD DUP1 SWAP2 SUB SWAP1 REVERT JUMPDEST PUSH1 0x1 PUSH1 0xC PUSH0 DUP4 PUSH20 0xFFFFFFFFFFFFFFFFFFFFFFFFFFFFFFFFFFFFFFFF AND PUSH20 0xFFFFFFFFFFFFFFFFFFFFFFFFFFFFFFFFFFFFFFFF AND DUP2 MSTORE PUSH1 0x20 ADD SWAP1 DUP2 MSTORE PUSH1 0x20 ADD PUSH0 KECCAK256 PUSH0 PUSH2 0x100 EXP DUP2 SLOAD DUP2 PUSH1 0xFF MUL NOT AND SWAP1 DUP4 ISZERO ISZERO MUL OR SWAP1 SSTORE POP POP JUMP JUMPDEST PUSH1 0x7 SLOAD TIMESTAMP LT PUSH2 0x98E JUMPI PUSH1 0x40 MLOAD PUSH32 0x8C379A000000000000000000000000000000000000000000000000000000000 DUP2 MSTORE PUSH1 0x4 ADD PUSH2 0x985 SWAP1 PUSH2 0x1AA3 JUMP JUMPDEST PUSH1 0x40 MLOAD DUP1 SWAP2 SUB SWAP1 REVERT JUMPDEST PUSH1 0xA PUSH1 0x1 SWAP1 SLOAD SWAP1 PUSH2 0x100 EXP SWAP1 DIV PUSH1 0xFF AND ISZERO PUSH2 0x9DE JUMPI PUSH1 0x40 MLOAD PUSH32 0x8C379A000000000000000000000000000000000000000000000000000000000 DUP2 MSTORE PUSH1 0x4 ADD PUSH2 0x9D5 SWAP1 PUSH2 0x1B0B JUMP JUMPDEST PUSH1 0x40 MLOAD DUP1 SWAP2 SUB SWAP1 REVERT JUMPDEST PUSH1 0xB PUSH0 CALLER PUSH20 0xFFFFFFFFFFFFFFFFFFFFFFFFFFFFFFFFFFFFFFFF AND PUSH20 0xFFFFFFFFFFFFFFFFFFFFFFFFFFFFFFFFFFFFFFFF AND DUP2 MSTORE PUSH1 0x20 ADD SWAP1 DUP2 MSTORE PUSH1 0x20 ADD PUSH0 KECCAK256 PUSH0 SWAP1 SLOAD SWAP1 PUSH2 0x100 EXP SWAP1 DIV PUSH1 0xFF AND PUSH2 0xA67 JUMPI PUSH1 0x40 MLOAD PUSH32 0x8C379A000000000000000000000000000000000000000000000000000000000 DUP2 MSTORE PUSH1 0x4 ADD PUSH2 0xA5E SWAP1 PUSH2 0x1B73 JUMP JUMPDEST PUSH1 0x40 MLOAD DUP1 SWAP2 SUB SWAP1 REVERT JUMPDEST PUSH0 PUSH1 0x9 SLOAD GT PUSH2 0xAAB JUMPI PUSH1 0x40 MLOAD PUSH32 0x8C379A000000000000000000000000000000000000000000000000000000000 DUP2 MSTORE PUSH1 0x4 ADD PUSH2 0xAA2 SWAP1 PUSH2 0x1BDB JUMP JUMPDEST PUSH1 0x40 MLOAD DUP1 SWAP2 SUB SWAP1 REVERT JUMPDEST PUSH1 0x1 PUSH1 0x9 PUSH0 DUP3 DUP3 SLOAD PUSH2 0xABD SWAP2 SWAP1 PUSH2 0x1BF9 JUMP JUMPDEST SWAP3 POP POP DUP2 SWAP1 SSTORE POP PUSH0 PUSH1 0xB PUSH0 CALLER PUSH20 0xFFFFFFFFFFFFFFFFFFFFFFFFFFFFFFFFFFFFFFFF AND PUSH20 0xFFFFFFFFFFFFFFFFFFFFFFFFFFFFFFFFFFFFFFFF AND DUP2 MSTORE PUSH1 0x20 ADD SWAP1 DUP2 MSTORE PUSH1 0x20 ADD PUSH0 KECCAK256 PUSH0 PUSH2 0x100 EXP DUP2 SLOAD DUP2 PUSH1 0xFF MUL NOT AND SWAP1 DUP4 ISZERO ISZERO MUL OR SWAP1 SSTORE POP JUMP JUMPDEST PUSH1 0x2 SLOAD DUP2 JUMP JUMPDEST PUSH1 0x9 SLOAD DUP2 JUMP JUMPDEST PUSH1 0xB PUSH1 0x20 MSTORE DUP1 PUSH0 MSTORE PUSH1 0x40 PUSH0 KECCAK256 PUSH0 SWAP2 POP SLOAD SWAP1 PUSH2 0x100 EXP SWAP1 DIV PUSH1 0xFF AND DUP2 JUMP JUMPDEST PUSH1 0x4 DUP1 SLOAD PUSH2 0xB50 SWAP1 PUSH2 0x19C1 JUMP JUMPDEST DUP1 PUSH1 0x1F ADD PUSH1 0x20 DUP1 SWAP2 DIV MUL PUSH1 0x20 ADD PUSH1 0x40 MLOAD SWAP1 DUP2 ADD PUSH1 0x40 MSTORE DUP1 SWAP3 SWAP2 SWAP1 DUP2 DUP2 MSTORE PUSH1 0x20 ADD DUP3 DUP1 SLOAD PUSH2 0xB7C SWAP1 PUSH2 0x19C1 JUMP JUMPDEST DUP1 ISZERO PUSH2 0xBC7 JUMPI DUP1 PUSH1 0x1F LT PUSH2 0xB9E JUMPI PUSH2 0x100 DUP1 DUP4 SLOAD DIV MUL DUP4 MSTORE SWAP2 PUSH1 0x20 ADD SWAP2 PUSH2 0xBC7 JUMP JUMPDEST DUP3 ADD SWAP2 SWAP1 PUSH0 MSTORE PUSH1 0x20 PUSH0 KECCAK256 SWAP1 JUMPDEST DUP2 SLOAD DUP2 MSTORE SWAP1 PUSH1 0x1 ADD SWAP1 PUSH1 0x20 ADD DUP1 DUP4 GT PUSH2 0xBAA JUMPI DUP3 SWAP1 SUB PUSH1 0x1F AND DUP3 ADD SWAP2 JUMPDEST POP POP POP POP POP DUP2 JUMP JUMPDEST PUSH1 0x3 PUSH0 SWAP1 SLOAD SWAP1 PUSH2 0x100 EXP SWAP1 DIV PUSH20 0xFFFFFFFFFFFFFFFFFFFFFFFFFFFFFFFFFFFFFFFF AND PUSH20 0xFFFFFFFFFFFFFFFFFFFFFFFFFFFFFFFFFFFFFFFF AND CALLER PUSH20 0xFFFFFFFFFFFFFFFFFFFFFFFFFFFFFFFFFFFFFFFF AND EQ DUP1 PUSH2 0xC70 JUMPI POP PUSH1 0xC PUSH0 CALLER PUSH20 0xFFFFFFFFFFFFFFFFFFFFFFFFFFFFFFFFFFFFFFFF AND PUSH20 0xFFFFFFFFFFFFFFFFFFFFFFFFFFFFFFFFFFFFFFFF AND DUP2 MSTORE PUSH1 0x20 ADD SWAP1 DUP2 MSTORE PUSH1 0x20 ADD PUSH0 KECCAK256 PUSH0 SWAP1 SLOAD SWAP1 PUSH2 0x100 EXP SWAP1 DIV PUSH1 0xFF AND JUMPDEST PUSH2 0xCAF JUMPI PUSH1 0x40 MLOAD PUSH32 0x8C379A000000000000000000000000000000000000000000000000000000000 DUP2 MSTORE PUSH1 0x4 ADD PUSH2 0xCA6 SWAP1 PUSH2 0x1846 JUMP JUMPDEST PUSH1 0x40 MLOAD DUP1 SWAP2 SUB SWAP1 REVERT JUMPDEST PUSH1 0xA PUSH0 SWAP1 SLOAD SWAP1 PUSH2 0x100 EXP SWAP1 DIV PUSH1 0xFF AND ISZERO PUSH2 0xCFE JUMPI PUSH1 0x40 MLOAD PUSH32 0x8C379A000000000000000000000000000000000000000000000000000000000 DUP2 MSTORE PUSH1 0x4 ADD PUSH2 0xCF5 SWAP1 PUSH2 0x1C76 JUMP JUMPDEST PUSH1 0x40 MLOAD DUP1 SWAP2 SUB SWAP1 REVERT JUMPDEST PUSH1 0x7 SLOAD TIMESTAMP LT ISZERO PUSH2 0xD43 JUMPI PUSH1 0x40 MLOAD PUSH32 0x8C379A000000000000000000000000000000000000000000000000000000000 DUP2 MSTORE PUSH1 0x4 ADD PUSH2 0xD3A SWAP1 PUSH2 0x1CDE JUMP JUMPDEST PUSH1 0x40 MLOAD DUP1 SWAP2 SUB SWAP1 REVERT JUMPDEST PUSH1 0x1 PUSH1 0xA PUSH0 PUSH2 0x100 EXP DUP2 SLOAD DUP2 PUSH1 0xFF MUL NOT AND SWAP1 DUP4 ISZERO ISZERO MUL OR SWAP1 SSTORE POP JUMP JUMPDEST PUSH1 0x3 PUSH0 SWAP1 SLOAD SWAP1 PUSH2 0x100 EXP SWAP1 DIV PUSH20 0xFFFFFFFFFFFFFFFFFFFFFFFFFFFFFFFFFFFFFFFF AND DUP2 JUMP JUMPDEST PUSH1 0x60 PUSH1 0x5 DUP1 SLOAD DUP1 PUSH1 0x20 MUL PUSH1 0x20 ADD PUSH1 0x40 MLOAD SWAP1 DUP2 ADD PUSH1 0x40 MSTORE DUP1 SWAP3 SWAP2 SWAP1 DUP2 DUP2 MSTORE PUSH1 0x20 ADD PUSH0 SWAP1 JUMPDEST DUP3 DUP3 LT ISZERO PUSH2 0xE4F JUMPI DUP4 DUP3 SWAP1 PUSH0 MSTORE PUSH1 0x20 PUSH0 KECCAK256 ADD DUP1 SLOAD PUSH2 0xDC4 SWAP1 PUSH2 0x19C1 JUMP JUMPDEST DUP1 PUSH1 0x1F ADD PUSH1 0x20 DUP1 SWAP2 DIV MUL PUSH1 0x20 ADD PUSH1 0x40 MLOAD SWAP1 DUP2 ADD PUSH1 0x40 MSTORE DUP1 SWAP3 SWAP2 SWAP1 DUP2 DUP2 MSTORE PUSH1 0x20 ADD DUP3 DUP1 SLOAD PUSH2 0xDF0 SWAP1 PUSH2 0x19C1 JUMP JUMPDEST DUP1 ISZERO PUSH2 0xE3B JUMPI DUP1 PUSH1 0x1F LT PUSH2 0xE12 JUMPI PUSH2 0x100 DUP1 DUP4 SLOAD DIV MUL DUP4 MSTORE SWAP2 PUSH1 0x20 ADD SWAP2 PUSH2 0xE3B JUMP JUMPDEST DUP3 ADD SWAP2 SWAP1 PUSH0 MSTORE PUSH1 0x20 PUSH0 KECCAK256 SWAP1 JUMPDEST DUP2 SLOAD DUP2 MSTORE SWAP1 PUSH1 0x1 ADD SWAP1 PUSH1 0x20 ADD DUP1 DUP4 GT PUSH2 0xE1E JUMPI DUP3 SWAP1 SUB PUSH1 0x1F AND DUP3 ADD SWAP2 JUMPDEST POP POP POP POP POP DUP2 MSTORE PUSH1 0x20 ADD SWAP1 PUSH1 0x1 ADD SWAP1 PUSH2 0xDA7 JUMP JUMPDEST POP POP POP POP SWAP1 POP SWAP1 JUMP JUMPDEST PUSH1 0x7 SLOAD DUP2 JUMP JUMPDEST PUSH1 0x3 PUSH0 SWAP1 SLOAD SWAP1 PUSH2 0x100 EXP SWAP1 DIV PUSH20 0xFFFFFFFFFFFFFFFFFFFFFFFFFFFFFFFFFFFFFFFF AND PUSH20 0xFFFFFFFFFFFFFFFFFFFFFFFFFFFFFFFFFFFFFFFF AND CALLER PUSH20 0xFFFFFFFFFFFFFFFFFFFFFFFFFFFFFFFFFFFFFFFF AND EQ PUSH2 0xEED JUMPI PUSH1 0x40 MLOAD PUSH32 0x8C379A000000000000000000000000000000000000000000000000000000000 DUP2 MSTORE PUSH1 0x4 ADD PUSH2 0xEE4 SWAP1 PUSH2 0x1A3B JUMP JUMPDEST PUSH1 0x40 MLOAD DUP1 SWAP2 SUB SWAP1 REVERT JUMPDEST PUSH0 PUSH1 0xC PUSH0 DUP4 PUSH20 0xFFFFFFFFFFFFFFFFFFFFFFFFFFFFFFFFFFFFFFFF AND PUSH20 0xFFFFFFFFFFFFFFFFFFFFFFFFFFFFFFFFFFFFFFFF AND DUP2 MSTORE PUSH1 0x20 ADD SWAP1 DUP2 MSTORE PUSH1 0x20 ADD PUSH0 KECCAK256 PUSH0 PUSH2 0x100 EXP DUP2 SLOAD DUP2 PUSH1 0xFF MUL NOT AND SWAP1 DUP4 ISZERO ISZERO MUL OR SWAP1 SSTORE POP POP JUMP JUMPDEST PUSH1 0xC PUSH1 0x20 MSTORE DUP1 PUSH0 MSTORE PUSH1 0x40 PUSH0 KECCAK256 PUSH0 SWAP2 POP SLOAD SWAP1 PUSH2 0x100 EXP SWAP1 DIV PUSH1 0xFF AND DUP2 JUMP JUMPDEST PUSH1 0x6 SLOAD DUP2 JUMP JUMPDEST PUSH1 0x3 PUSH0 SWAP1 SLOAD SWAP1 PUSH2 0x100 EXP SWAP1 DIV PUSH20 0xFFFFFFFFFFFFFFFFFFFFFFFFFFFFFFFFFFFFFFFF AND PUSH20 0xFFFFFFFFFFFFFFFFFFFFFFFFFFFFFFFFFFFFFFFF AND CALLER PUSH20 0xFFFFFFFFFFFFFFFFFFFFFFFFFFFFFFFFFFFFFFFF AND EQ DUP1 PUSH2 0x1008 JUMPI POP PUSH1 0xC PUSH0 CALLER PUSH20 0xFFFFFFFFFFFFFFFFFFFFFFFFFFFFFFFFFFFFFFFF AND PUSH20 0xFFFFFFFFFFFFFFFFFFFFFFFFFFFFFFFFFFFFFFFF AND DUP2 MSTORE PUSH1 0x20 ADD SWAP1 DUP2 MSTORE PUSH1 0x20 ADD PUSH0 KECCAK256 PUSH0 SWAP1 SLOAD SWAP1 PUSH2 0x100 EXP SWAP1 DIV PUSH1 0xFF AND JUMPDEST PUSH2 0x1047 JUMPI PUSH1 0x40 MLOAD PUSH32 0x8C379A000000000000000000000000000000000000000000000000000000000 DUP2 MSTORE PUSH1 0x4 ADD PUSH2 0x103E SWAP1 PUSH2 0x1846 JUMP JUMPDEST PUSH1 0x40 MLOAD DUP1 SWAP2 SUB SWAP1 REVERT JUMPDEST PUSH1 0xB PUSH0 DUP3 PUSH20 0xFFFFFFFFFFFFFFFFFFFFFFFFFFFFFFFFFFFFFFFF AND PUSH20 0xFFFFFFFFFFFFFFFFFFFFFFFFFFFFFFFFFFFFFFFF AND DUP2 MSTORE PUSH1 0x20 ADD SWAP1 DUP2 MSTORE PUSH1 0x20 ADD PUSH0 KECCAK256 PUSH0 SWAP1 SLOAD SWAP1 PUSH2 0x100 EXP SWAP1 DIV PUSH1 0xFF AND PUSH2 0x10D0 JUMPI PUSH1 0x40 MLOAD PUSH32 0x8C379A000000000000000000000000000000000000000000000000000000000 DUP2 MSTORE PUSH1 0x4 ADD PUSH2 0x10C7 SWAP1 PUSH2 0x1D46 JUMP JUMPDEST PUSH1 0x40 MLOAD DUP1 SWAP2 SUB SWAP1 REVERT JUMPDEST PUSH0 PUSH1 0x9 SLOAD GT PUSH2 0x1114 JUMPI PUSH1 0x40 MLOAD PUSH32 0x8C379A000000000000000000000000000000000000000000000000000000000 DUP2 MSTORE PUSH1 0x4 ADD PUSH2 0x110B SWAP1 PUSH2 0x1BDB JUMP JUMPDEST PUSH1 0x40 MLOAD DUP1 SWAP2 SUB SWAP1 REVERT JUMPDEST PUSH1 0x1 PUSH1 0x9 PUSH0 DUP3 DUP3 SLOAD PUSH2 0x1126 SWAP2 SWAP1 PUSH2 0x1BF9 JUMP JUMPDEST SWAP3 POP POP DUP2 SWAP1 SSTORE POP PUSH0 PUSH1 0xB PUSH0 DUP4 PUSH20 0xFFFFFFFFFFFFFFFFFFFFFFFFFFFFFFFFFFFFFFFF AND PUSH20 0xFFFFFFFFFFFFFFFFFFFFFFFFFFFFFFFFFFFFFFFF AND DUP2 MSTORE PUSH1 0x20 ADD SWAP1 DUP2 MSTORE PUSH1 0x20 ADD PUSH0 KECCAK256 PUSH0 PUSH2 0x100 EXP DUP2 SLOAD DUP2 PUSH1 0xFF MUL NOT AND SWAP1 DUP4 ISZERO ISZERO MUL OR SWAP1 SSTORE POP POP JUMP JUMPDEST PUSH1 0xA PUSH0 SWAP1 SLOAD SWAP1 PUSH2 0x100 EXP SWAP1 DIV PUSH1 0xFF AND DUP2 JUMP JUMPDEST PUSH1 0x7 SLOAD TIMESTAMP LT PUSH2 0x11DA JUMPI PUSH1 0x40 MLOAD PUSH32 0x8C379A000000000000000000000000000000000000000000000000000000000 DUP2 MSTORE PUSH1 0x4 ADD PUSH2 0x11D1 SWAP1 PUSH2 0x1AA3 JUMP JUMPDEST PUSH1 0x40 MLOAD DUP1 SWAP2 SUB SWAP1 REVERT JUMPDEST PUSH1 0xA PUSH1 0x1 SWAP1 SLOAD SWAP1 PUSH2 0x100 EXP SWAP1 DIV PUSH1 0xFF AND ISZERO PUSH2 0x122A JUMPI PUSH1 0x40 MLOAD PUSH32 0x8C379A000000000000000000000000000000000000000000000000000000000 DUP2 MSTORE PUSH1 0x4 ADD PUSH2 0x1221 SWAP1 PUSH2 0x1B0B JUMP JUMPDEST PUSH1 0x40 MLOAD DUP1 SWAP2 SUB SWAP1 REVERT JUMPDEST PUSH1 0x2 SLOAD PUSH1 0x9 SLOAD LT PUSH2 0x1270 JUMPI PUSH1 0x40 MLOAD PUSH32 0x8C379A000000000000000000000000000000000000000000000000000000000 DUP2 MSTORE PUSH1 0x4 ADD PUSH2 0x1267 SWAP1 PUSH2 0x1916 JUMP JUMPDEST PUSH1 0x40 MLOAD DUP1 SWAP2 SUB SWAP1 REVERT JUMPDEST PUSH1 0xB PUSH0 CALLER PUSH20 0xFFFFFFFFFFFFFFFFFFFFFFFFFFFFFFFFFFFFFFFF AND PUSH20 0xFFFFFFFFFFFFFFFFFFFFFFFFFFFFFFFFFFFFFFFF AND DUP2 MSTORE PUSH1 0x20 ADD SWAP1 DUP2 MSTORE PUSH1 0x20 ADD PUSH0 KECCAK256 PUSH0 SWAP1 SLOAD SWAP1 PUSH2 0x100 EXP SWAP1 DIV PUSH1 0xFF AND ISZERO PUSH2 0x12FA JUMPI PUSH1 0x40 MLOAD PUSH32 0x8C379A000000000000000000000000000000000000000000000000000000000 DUP2 MSTORE PUSH1 0x4 ADD PUSH2 0x12F1 SWAP1 PUSH2 0x1DAE JUMP JUMPDEST PUSH1 0x40 MLOAD DUP1 SWAP2 SUB SWAP1 REVERT JUMPDEST PUSH1 0x1 PUSH1 0x9 PUSH0 DUP3 DUP3 SLOAD PUSH2 0x130C SWAP2 SWAP1 PUSH2 0x1961 JUMP JUMPDEST SWAP3 POP POP DUP2 SWAP1 SSTORE POP PUSH1 0x1 PUSH1 0xB PUSH0 CALLER PUSH20 0xFFFFFFFFFFFFFFFFFFFFFFFFFFFFFFFFFFFFFFFF AND PUSH20 0xFFFFFFFFFFFFFFFFFFFFFFFFFFFFFFFFFFFFFFFF AND DUP2 MSTORE PUSH1 0x20 ADD SWAP1 DUP2 MSTORE PUSH1 0x20 ADD PUSH0 KECCAK256 PUSH0 PUSH2 0x100 EXP DUP2 SLOAD DUP2 PUSH1 0xFF MUL NOT AND SWAP1 DUP4 ISZERO ISZERO MUL OR SWAP1 SSTORE POP JUMP JUMPDEST PUSH1 0x3 PUSH0 SWAP1 SLOAD SWAP1 PUSH2 0x100 EXP SWAP1 DIV PUSH20 0xFFFFFFFFFFFFFFFFFFFFFFFFFFFFFFFFFFFFFFFF AND PUSH20 0xFFFFFFFFFFFFFFFFFFFFFFFFFFFFFFFFFFFFFFFF AND CALLER PUSH20 0xFFFFFFFFFFFFFFFFFFFFFFFFFFFFFFFFFFFFFFFF AND EQ DUP1 PUSH2 0x140B JUMPI POP PUSH1 0xC PUSH0 CALLER PUSH20 0xFFFFFFFFFFFFFFFFFFFFFFFFFFFFFFFFFFFFFFFF AND PUSH20 0xFFFFFFFFFFFFFFFFFFFFFFFFFFFFFFFFFFFFFFFF AND DUP2 MSTORE PUSH1 0x20 ADD SWAP1 DUP2 MSTORE PUSH1 0x20 ADD PUSH0 KECCAK256 PUSH0 SWAP1 SLOAD SWAP1 PUSH2 0x100 EXP SWAP1 DIV PUSH1 0xFF AND JUMPDEST PUSH2 0x144A JUMPI PUSH1 0x40 MLOAD PUSH32 0x8C379A000000000000000000000000000000000000000000000000000000000 DUP2 MSTORE PUSH1 0x4 ADD PUSH2 0x1441 SWAP1 PUSH2 0x1846 JUMP JUMPDEST PUSH1 0x40 MLOAD DUP1 SWAP2 SUB SWAP1 REVERT JUMPDEST PUSH1 0x7 SLOAD TIMESTAMP LT PUSH2 0x148E JUMPI PUSH1 0x40 MLOAD PUSH32 0x8C379A000000000000000000000000000000000000000000000000000000000 DUP2 MSTORE PUSH1 0x4 ADD PUSH2 0x1485 SWAP1 PUSH2 0x1E3C JUMP JUMPDEST PUSH1 0x40 MLOAD DUP1 SWAP2 SUB SWAP1 REVERT JUMPDEST PUSH1 0x1 PUSH1 0xA PUSH1 0x1 PUSH2 0x100 EXP DUP2 SLOAD DUP2 PUSH1 0xFF MUL NOT AND SWAP1 DUP4 ISZERO ISZERO MUL OR SWAP1 SSTORE POP PUSH1 0x1 PUSH1 0xA PUSH0 PUSH2 0x100 EXP DUP2 SLOAD DUP2 PUSH1 0xFF MUL NOT AND SWAP1 DUP4 ISZERO ISZERO MUL OR SWAP1 SSTORE POP JUMP JUMPDEST PUSH0 DUP2 SWAP1 POP SWAP2 SWAP1 POP JUMP JUMPDEST PUSH2 0x14D7 DUP2 PUSH2 0x14C5 JUMP JUMPDEST DUP3 MSTORE POP POP JUMP JUMPDEST PUSH0 PUSH1 0x20 DUP3 ADD SWAP1 POP PUSH2 0x14F0 PUSH0 DUP4 ADD DUP5 PUSH2 0x14CE JUMP JUMPDEST SWAP3 SWAP2 POP POP JUMP JUMPDEST PUSH0 DUP1 REVERT JUMPDEST PUSH0 PUSH20 0xFFFFFFFFFFFFFFFFFFFFFFFFFFFFFFFFFFFFFFFF DUP3 AND SWAP1 POP SWAP2 SWAP1 POP JUMP JUMPDEST PUSH0 PUSH2 0x1523 DUP3 PUSH2 0x14FA JUMP JUMPDEST SWAP1 POP SWAP2 SWAP1 POP JUMP JUMPDEST PUSH2 0x1533 DUP2 PUSH2 0x1519 JUMP JUMPDEST DUP2 EQ PUSH2 0x153D JUMPI PUSH0 DUP1 REVERT JUMPDEST POP JUMP JUMPDEST PUSH0 DUP2 CALLDATALOAD SWAP1 POP PUSH2 0x154E DUP2 PUSH2 0x152A JUMP JUMPDEST SWAP3 SWAP2 POP POP JUMP JUMPDEST PUSH0 PUSH1 0x20 DUP3 DUP5 SUB SLT ISZERO PUSH2 0x1569 JUMPI PUSH2 0x1568 PUSH2 0x14F6 JUMP JUMPDEST JUMPDEST PUSH0 PUSH2 0x1576 DUP5 DUP3 DUP6 ADD PUSH2 0x1540 JUMP JUMPDEST SWAP2 POP POP SWAP3 SWAP2 POP POP JUMP JUMPDEST PUSH0 DUP2 ISZERO ISZERO SWAP1 POP SWAP2 SWAP1 POP JUMP JUMPDEST PUSH2 0x1593 DUP2 PUSH2 0x157F JUMP JUMPDEST DUP3 MSTORE POP POP JUMP JUMPDEST PUSH0 PUSH1 0x20 DUP3 ADD SWAP1 POP PUSH2 0x15AC PUSH0 DUP4 ADD DUP5 PUSH2 0x158A JUMP JUMPDEST SWAP3 SWAP2 POP POP JUMP JUMPDEST PUSH2 0x15BB DUP2 PUSH2 0x14C5 JUMP JUMPDEST DUP2 EQ PUSH2 0x15C5 JUMPI PUSH0 DUP1 REVERT JUMPDEST POP JUMP JUMPDEST PUSH0 DUP2 CALLDATALOAD SWAP1 POP PUSH2 0x15D6 DUP2 PUSH2 0x15B2 JUMP JUMPDEST SWAP3 SWAP2 POP POP JUMP JUMPDEST PUSH0 PUSH1 0x20 DUP3 DUP5 SUB SLT ISZERO PUSH2 0x15F1 JUMPI PUSH2 0x15F0 PUSH2 0x14F6 JUMP JUMPDEST JUMPDEST PUSH0 PUSH2 0x15FE DUP5 DUP3 DUP6 ADD PUSH2 0x15C8 JUMP JUMPDEST SWAP2 POP POP SWAP3 SWAP2 POP POP JUMP JUMPDEST PUSH0 DUP2 MLOAD SWAP1 POP SWAP2 SWAP1 POP JUMP JUMPDEST PUSH0 DUP3 DUP3 MSTORE PUSH1 0x20 DUP3 ADD SWAP1 POP SWAP3 SWAP2 POP POP JUMP JUMPDEST PUSH0 JUMPDEST DUP4 DUP2 LT ISZERO PUSH2 0x163E JUMPI DUP1 DUP3 ADD MLOAD DUP2 DUP5 ADD MSTORE PUSH1 0x20 DUP2 ADD SWAP1 POP PUSH2 0x1623 JUMP JUMPDEST PUSH0 DUP5 DUP5 ADD MSTORE POP POP POP POP JUMP JUMPDEST PUSH0 PUSH1 0x1F NOT PUSH1 0x1F DUP4 ADD AND SWAP1 POP SWAP2 SWAP1 POP JUMP JUMPDEST PUSH0 PUSH2 0x1663 DUP3 PUSH2 0x1607 JUMP JUMPDEST PUSH2 0x166D DUP2 DUP6 PUSH2 0x1611 JUMP JUMPDEST SWAP4 POP PUSH2 0x167D DUP2 DUP6 PUSH1 0x20 DUP7 ADD PUSH2 0x1621 JUMP JUMPDEST PUSH2 0x1686 DUP2 PUSH2 0x1649 JUMP JUMPDEST DUP5 ADD SWAP2 POP POP SWAP3 SWAP2 POP POP JUMP JUMPDEST PUSH0 PUSH1 0x20 DUP3 ADD SWAP1 POP DUP2 DUP2 SUB PUSH0 DUP4 ADD MSTORE PUSH2 0x16A9 DUP2 DUP5 PUSH2 0x1659 JUMP JUMPDEST SWAP1 POP SWAP3 SWAP2 POP POP JUMP JUMPDEST PUSH2 0x16BA DUP2 PUSH2 0x1519 JUMP JUMPDEST DUP3 MSTORE POP POP JUMP JUMPDEST PUSH0 PUSH1 0x20 DUP3 ADD SWAP1 POP PUSH2 0x16D3 PUSH0 DUP4 ADD DUP5 PUSH2 0x16B1 JUMP JUMPDEST SWAP3 SWAP2 POP POP JUMP JUMPDEST PUSH0 DUP2 MLOAD SWAP1 POP SWAP2 SWAP1 POP JUMP JUMPDEST PUSH0 DUP3 DUP3 MSTORE PUSH1 0x20 DUP3 ADD SWAP1 POP SWAP3 SWAP2 POP POP JUMP JUMPDEST PUSH0 DUP2 SWAP1 POP PUSH1 0x20 DUP3 ADD SWAP1 POP SWAP2 SWAP1 POP JUMP JUMPDEST PUSH0 DUP3 DUP3 MSTORE PUSH1 0x20 DUP3 ADD SWAP1 POP SWAP3 SWAP2 POP POP JUMP JUMPDEST PUSH0 PUSH2 0x171C DUP3 PUSH2 0x1607 JUMP JUMPDEST PUSH2 0x1726 DUP2 DUP6 PUSH2 0x1702 JUMP JUMPDEST SWAP4 POP PUSH2 0x1736 DUP2 DUP6 PUSH1 0x20 DUP7 ADD PUSH2 0x1621 JUMP JUMPDEST PUSH2 0x173F DUP2 PUSH2 0x1649 JUMP JUMPDEST DUP5 ADD SWAP2 POP POP SWAP3 SWAP2 POP POP JUMP JUMPDEST PUSH0 PUSH2 0x1755 DUP4 DUP4 PUSH2 0x1712 JUMP JUMPDEST SWAP1 POP SWAP3 SWAP2 POP POP JUMP JUMPDEST PUSH0 PUSH1 0x20 DUP3 ADD SWAP1 POP SWAP2 SWAP1 POP JUMP JUMPDEST PUSH0 PUSH2 0x1773 DUP3 PUSH2 0x16D9 JUMP JUMPDEST PUSH2 0x177D DUP2 DUP6 PUSH2 0x16E3 JUMP JUMPDEST SWAP4 POP DUP4 PUSH1 0x20 DUP3 MUL DUP6 ADD PUSH2 0x178F DUP6 PUSH2 0x16F3 JUMP JUMPDEST DUP1 PUSH0 JUMPDEST DUP6 DUP2 LT ISZERO PUSH2 0x17CA JUMPI DUP5 DUP5 SUB DUP10 MSTORE DUP2 MLOAD PUSH2 0x17AB DUP6 DUP3 PUSH2 0x174A JUMP JUMPDEST SWAP5 POP PUSH2 0x17B6 DUP4 PUSH2 0x175D JUMP JUMPDEST SWAP3 POP PUSH1 0x20 DUP11 ADD SWAP10 POP POP PUSH1 0x1 DUP2 ADD SWAP1 POP PUSH2 0x1792 JUMP JUMPDEST POP DUP3 SWAP8 POP DUP8 SWAP6 POP POP POP POP POP POP SWAP3 SWAP2 POP POP JUMP JUMPDEST PUSH0 PUSH1 0x20 DUP3 ADD SWAP1 POP DUP2 DUP2 SUB PUSH0 DUP4 ADD MSTORE PUSH2 0x17F4 DUP2 DUP5 PUSH2 0x1769 JUMP JUMPDEST SWAP1 POP SWAP3 SWAP2 POP POP JUMP JUMPDEST PUSH32 0x596F75277265206E6F7420737461666600000000000000000000000000000000 PUSH0 DUP3 ADD MSTORE POP JUMP JUMPDEST PUSH0 PUSH2 0x1830 PUSH1 0x10 DUP4 PUSH2 0x1611 JUMP JUMPDEST SWAP2 POP PUSH2 0x183B DUP3 PUSH2 0x17FC JUMP JUMPDEST PUSH1 0x20 DUP3 ADD SWAP1 POP SWAP2 SWAP1 POP JUMP JUMPDEST PUSH0 PUSH1 0x20 DUP3 ADD SWAP1 POP DUP2 DUP2 SUB PUSH0 DUP4 ADD MSTORE PUSH2 0x185D DUP2 PUSH2 0x1824 JUMP JUMPDEST SWAP1 POP SWAP2 SWAP1 POP JUMP JUMPDEST PUSH32 0x417474656E64656520616C726561647920616464656400000000000000000000 PUSH0 DUP3 ADD MSTORE POP JUMP JUMPDEST PUSH0 PUSH2 0x1898 PUSH1 0x16 DUP4 PUSH2 0x1611 JUMP JUMPDEST SWAP2 POP PUSH2 0x18A3 DUP3 PUSH2 0x1864 JUMP JUMPDEST PUSH1 0x20 DUP3 ADD SWAP1 POP SWAP2 SWAP1 POP JUMP JUMPDEST PUSH0 PUSH1 0x20 DUP3 ADD SWAP1 POP DUP2 DUP2 SUB PUSH0 DUP4 ADD MSTORE PUSH2 0x18C5 DUP2 PUSH2 0x188C JUMP JUMPDEST SWAP1 POP SWAP2 SWAP1 POP JUMP JUMPDEST PUSH32 0x4576656E742069732066756C6C00000000000000000000000000000000000000 PUSH0 DUP3 ADD MSTORE POP JUMP JUMPDEST PUSH0 PUSH2 0x1900 PUSH1 0xD DUP4 PUSH2 0x1611 JUMP JUMPDEST SWAP2 POP PUSH2 0x190B DUP3 PUSH2 0x18CC JUMP JUMPDEST PUSH1 0x20 DUP3 ADD SWAP1 POP SWAP2 SWAP1 POP JUMP JUMPDEST PUSH0 PUSH1 0x20 DUP3 ADD SWAP1 POP DUP2 DUP2 SUB PUSH0 DUP4 ADD MSTORE PUSH2 0x192D DUP2 PUSH2 0x18F4 JUMP JUMPDEST SWAP1 POP SWAP2 SWAP1 POP JUMP JUMPDEST PUSH32 0x4E487B7100000000000000000000000000000000000000000000000000000000 PUSH0 MSTORE PUSH1 0x11 PUSH1 0x4 MSTORE PUSH1 0x24 PUSH0 REVERT JUMPDEST PUSH0 PUSH2 0x196B DUP3 PUSH2 0x14C5 JUMP JUMPDEST SWAP2 POP PUSH2 0x1976 DUP4 PUSH2 0x14C5 JUMP JUMPDEST SWAP3 POP DUP3 DUP3 ADD SWAP1 POP DUP1 DUP3 GT ISZERO PUSH2 0x198E JUMPI PUSH2 0x198D PUSH2 0x1934 JUMP JUMPDEST JUMPDEST SWAP3 SWAP2 POP POP JUMP JUMPDEST PUSH32 0x4E487B7100000000000000000000000000000000000000000000000000000000 PUSH0 MSTORE PUSH1 0x22 PUSH1 0x4 MSTORE PUSH1 0x24 PUSH0 REVERT JUMPDEST PUSH0 PUSH1 0x2 DUP3 DIV SWAP1 POP PUSH1 0x1 DUP3 AND DUP1 PUSH2 0x19D8 JUMPI PUSH1 0x7F DUP3 AND SWAP2 POP JUMPDEST PUSH1 0x20 DUP3 LT DUP2 SUB PUSH2 0x19EB JUMPI PUSH2 0x19EA PUSH2 0x1994 JUMP JUMPDEST JUMPDEST POP SWAP2 SWAP1 POP JUMP JUMPDEST PUSH32 0x4E6F74206F776E65720000000000000000000000000000000000000000000000 PUSH0 DUP3 ADD MSTORE POP JUMP JUMPDEST PUSH0 PUSH2 0x1A25 PUSH1 0x9 DUP4 PUSH2 0x1611 JUMP JUMPDEST SWAP2 POP PUSH2 0x1A30 DUP3 PUSH2 0x19F1 JUMP JUMPDEST PUSH1 0x20 DUP3 ADD SWAP1 POP SWAP2 SWAP1 POP JUMP JUMPDEST PUSH0 PUSH1 0x20 DUP3 ADD SWAP1 POP DUP2 DUP2 SUB PUSH0 DUP4 ADD MSTORE PUSH2 0x1A52 DUP2 PUSH2 0x1A19 JUMP JUMPDEST SWAP1 POP SWAP2 SWAP1 POP JUMP JUMPDEST PUSH32 0x4576656E7420616C726561647920737461727465640000000000000000000000 PUSH0 DUP3 ADD MSTORE POP JUMP JUMPDEST PUSH0 PUSH2 0x1A8D PUSH1 0x15 DUP4 PUSH2 0x1611 JUMP JUMPDEST SWAP2 POP PUSH2 0x1A98 DUP3 PUSH2 0x1A59 JUMP JUMPDEST PUSH1 0x20 DUP3 ADD SWAP1 POP SWAP2 SWAP1 POP JUMP JUMPDEST PUSH0 PUSH1 0x20 DUP3 ADD SWAP1 POP DUP2 DUP2 SUB PUSH0 DUP4 ADD MSTORE PUSH2 0x1ABA DUP2 PUSH2 0x1A81 JUMP JUMPDEST SWAP1 POP SWAP2 SWAP1 POP JUMP JUMPDEST PUSH32 0x4576656E742069732063616E63656C6C65640000000000000000000000000000 PUSH0 DUP3 ADD MSTORE POP JUMP JUMPDEST PUSH0 PUSH2 0x1AF5 PUSH1 0x12 DUP4 PUSH2 0x1611 JUMP JUMPDEST SWAP2 POP PUSH2 0x1B00 DUP3 PUSH2 0x1AC1 JUMP JUMPDEST PUSH1 0x20 DUP3 ADD SWAP1 POP SWAP2 SWAP1 POP JUMP JUMPDEST PUSH0 PUSH1 0x20 DUP3 ADD SWAP1 POP DUP2 DUP2 SUB PUSH0 DUP4 ADD MSTORE PUSH2 0x1B22 DUP2 PUSH2 0x1AE9 JUMP JUMPDEST SWAP1 POP SWAP2 SWAP1 POP JUMP JUMPDEST PUSH32 0x596F75277265206E6F7420617474656E64696E672074686973206576656E7400 PUSH0 DUP3 ADD MSTORE POP JUMP JUMPDEST PUSH0 PUSH2 0x1B5D PUSH1 0x1F DUP4 PUSH2 0x1611 JUMP JUMPDEST SWAP2 POP PUSH2 0x1B68 DUP3 PUSH2 0x1B29 JUMP JUMPDEST PUSH1 0x20 DUP3 ADD SWAP1 POP SWAP2 SWAP1 POP JUMP JUMPDEST PUSH0 PUSH1 0x20 DUP3 ADD SWAP1 POP DUP2 DUP2 SUB PUSH0 DUP4 ADD MSTORE PUSH2 0x1B8A DUP2 PUSH2 0x1B51 JUMP JUMPDEST SWAP1 POP SWAP2 SWAP1 POP JUMP JUMPDEST PUSH32 0x4E6F20617474656E646565730000000000000000000000000000000000000000 PUSH0 DUP3 ADD MSTORE POP JUMP JUMPDEST PUSH0 PUSH2 0x1BC5 PUSH1 0xC DUP4 PUSH2 0x1611 JUMP JUMPDEST SWAP2 POP PUSH2 0x1BD0 DUP3 PUSH2 0x1B91 JUMP JUMPDEST PUSH1 0x20 DUP3 ADD SWAP1 POP SWAP2 SWAP1 POP JUMP JUMPDEST PUSH0 PUSH1 0x20 DUP3 ADD SWAP1 POP DUP2 DUP2 SUB PUSH0 DUP4 ADD MSTORE PUSH2 0x1BF2 DUP2 PUSH2 0x1BB9 JUMP JUMPDEST SWAP1 POP SWAP2 SWAP1 POP JUMP JUMPDEST PUSH0 PUSH2 0x1C03 DUP3 PUSH2 0x14C5 JUMP JUMPDEST SWAP2 POP PUSH2 0x1C0E DUP4 PUSH2 0x14C5 JUMP JUMPDEST SWAP3 POP DUP3 DUP3 SUB SWAP1 POP DUP2 DUP2 GT ISZERO PUSH2 0x1C26 JUMPI PUSH2 0x1C25 PUSH2 0x1934 JUMP JUMPDEST JUMPDEST SWAP3 SWAP2 POP POP JUMP JUMPDEST PUSH32 0x4576656E7420616C72656164792066696E697368656400000000000000000000 PUSH0 DUP3 ADD MSTORE POP JUMP JUMPDEST PUSH0 PUSH2 0x1C60 PUSH1 0x16 DUP4 PUSH2 0x1611 JUMP JUMPDEST SWAP2 POP PUSH2 0x1C6B DUP3 PUSH2 0x1C2C JUMP JUMPDEST PUSH1 0x20 DUP3 ADD SWAP1 POP SWAP2 SWAP1 POP JUMP JUMPDEST PUSH0 PUSH1 0x20 DUP3 ADD SWAP1 POP DUP2 DUP2 SUB PUSH0 DUP4 ADD MSTORE PUSH2 0x1C8D DUP2 PUSH2 0x1C54 JUMP JUMPDEST SWAP1 POP SWAP2 SWAP1 POP JUMP JUMPDEST PUSH32 0x4576656E74206E6F742073746172746564207965740000000000000000000000 PUSH0 DUP3 ADD MSTORE POP JUMP JUMPDEST PUSH0 PUSH2 0x1CC8 PUSH1 0x15 DUP4 PUSH2 0x1611 JUMP JUMPDEST SWAP2 POP PUSH2 0x1CD3 DUP3 PUSH2 0x1C94 JUMP JUMPDEST PUSH1 0x20 DUP3 ADD SWAP1 POP SWAP2 SWAP1 POP JUMP JUMPDEST PUSH0 PUSH1 0x20 DUP3 ADD SWAP1 POP DUP2 DUP2 SUB PUSH0 DUP4 ADD MSTORE PUSH2 0x1CF5 DUP2 PUSH2 0x1CBC JUMP JUMPDEST SWAP1 POP SWAP2 SWAP1 POP JUMP JUMPDEST PUSH32 0x4E6F7420617474656E64696E6700000000000000000000000000000000000000 PUSH0 DUP3 ADD MSTORE POP JUMP JUMPDEST PUSH0 PUSH2 0x1D30 PUSH1 0xD DUP4 PUSH2 0x1611 JUMP JUMPDEST SWAP2 POP PUSH2 0x1D3B DUP3 PUSH2 0x1CFC JUMP JUMPDEST PUSH1 0x20 DUP3 ADD SWAP1 POP SWAP2 SWAP1 POP JUMP JUMPDEST PUSH0 PUSH1 0x20 DUP3 ADD SWAP1 POP DUP2 DUP2 SUB PUSH0 DUP4 ADD MSTORE PUSH2 0x1D5D DUP2 PUSH2 0x1D24 JUMP JUMPDEST SWAP1 POP SWAP2 SWAP1 POP JUMP JUMPDEST PUSH32 0x596F7527726520616C726561647920617474656E64696E670000000000000000 PUSH0 DUP3 ADD MSTORE POP JUMP JUMPDEST PUSH0 PUSH2 0x1D98 PUSH1 0x18 DUP4 PUSH2 0x1611 JUMP JUMPDEST SWAP2 POP PUSH2 0x1DA3 DUP3 PUSH2 0x1D64 JUMP JUMPDEST PUSH1 0x20 DUP3 ADD SWAP1 POP SWAP2 SWAP1 POP JUMP JUMPDEST PUSH0 PUSH1 0x20 DUP3 ADD SWAP1 POP DUP2 DUP2 SUB PUSH0 DUP4 ADD MSTORE PUSH2 0x1DC5 DUP2 PUSH2 0x1D8C JUMP JUMPDEST SWAP1 POP SWAP2 SWAP1 POP JUMP JUMPDEST PUSH32 0x4576656E7420616C726561647920737461727465642C207573652066696E6973 PUSH0 DUP3 ADD MSTORE PUSH32 0x684576656E7420696E7374656164000000000000000000000000000000000000 PUSH1 0x20 DUP3 ADD MSTORE POP JUMP JUMPDEST PUSH0 PUSH2 0x1E26 PUSH1 0x2E DUP4 PUSH2 0x1611 JUMP JUMPDEST SWAP2 POP PUSH2 0x1E31 DUP3 PUSH2 0x1DCC JUMP JUMPDEST PUSH1 0x40 DUP3 ADD SWAP1 POP SWAP2 SWAP1 POP JUMP JUMPDEST PUSH0 PUSH1 0x20 DUP3 ADD SWAP1 POP DUP2 DUP2 SUB PUSH0 DUP4 ADD MSTORE PUSH2 0x1E53 DUP2 PUSH2 0x1E1A JUMP JUMPDEST SWAP1 POP SWAP2 SWAP1 POP JUMP INVALID LOG2 PUSH5 0x6970667358 0x22 SLT KECCAK256 SELFDESTRUCT 0xE4 CODESIZE 0xF6 0xE8 MCOPY SWAP7 STATICCALL DUP13 PUSH9 0x85A1D04AD4573DBC42 DUP9 0xC3 SWAP12 LOG1 PUSH11 0x26682279D967D83464736F PUSH13 0x63430008180033000000000000 "
				},
				"gasEstimates": {
					"creation": {
						"codeDepositCost": "1564800",
						"executionCost": "infinite",
						"totalCost": "infinite"
					},
					"external": {
						"addAttendee(address)": "infinite",
						"addStaff(address)": "27017",
						"attendeesCount()": "2536",
						"cancelEvent()": "55393",
						"checkAttendee(address)": "2982",
						"createdAt()": "2469",
						"description()": "infinite",
						"endEvent()": "33147",
						"endsAt()": "2449",
						"eventCanceled()": "2585",
						"eventEnded()": "2554",
						"getTags()": "infinite",
						"isAttendee(address)": "2966",
						"isStaff(address)": "2855",
						"joinEvent()": "infinite",
						"leaveEvent()": "infinite",
						"location()": "infinite",
						"maxAttendees()": "2514",
						"owner()": "2575",
						"removeAttendee(address)": "infinite",
						"removeStaff(address)": "27104",
						"startsAt()": "2536",
						"tags(uint256)": "infinite",
						"title()": "infinite"
					}
				},
				"methodIdentifiers": {
					"addAttendee(address)": "10246254",
					"addStaff(address)": "522e4c8a",
					"attendeesCount()": "61f8506d",
					"cancelEvent()": "fb6c9537",
					"checkAttendee(address)": "405fbab5",
					"createdAt()": "cf09e0d0",
					"description()": "7284e416",
					"endEvent()": "86ec6177",
					"endsAt()": "0a09284a",
					"eventCanceled()": "148b597c",
					"eventEnded()": "f57e63e2",
					"getTags()": "995d9ab7",
					"isAttendee(address)": "6cad2590",
					"isStaff(address)": "cb510e97",
					"joinEvent()": "f9010d19",
					"leaveEvent()": "5631a5cb",
					"location()": "516f279e",
					"maxAttendees()": "5f3d7fa1",
					"owner()": "8da5cb5b",
					"removeAttendee(address)": "e55448fc",
					"removeStaff(address)": "c4522c92",
					"startsAt()": "af468682",
					"tags(uint256)": "20822abc",
					"title()": "4a79d50c"
				}
			},
			"storageLayout": {
				"storage": [
					{
						"astId": 3,
						"contract": "contracts/FlintPublicEvent.sol:PublicEvent",
						"label": "title",
						"offset": 0,
						"slot": "0",
						"type": "t_string_storage"
					},
					{
						"astId": 5,
						"contract": "contracts/FlintPublicEvent.sol:PublicEvent",
						"label": "location",
						"offset": 0,
						"slot": "1",
						"type": "t_string_storage"
					},
					{
						"astId": 7,
						"contract": "contracts/FlintPublicEvent.sol:PublicEvent",
						"label": "maxAttendees",
						"offset": 0,
						"slot": "2",
						"type": "t_uint256"
					},
					{
						"astId": 9,
						"contract": "contracts/FlintPublicEvent.sol:PublicEvent",
						"label": "owner",
						"offset": 0,
						"slot": "3",
						"type": "t_address"
					},
					{
						"astId": 11,
						"contract": "contracts/FlintPublicEvent.sol:PublicEvent",
						"label": "description",
						"offset": 0,
						"slot": "4",
						"type": "t_string_storage"
					},
					{
						"astId": 14,
						"contract": "contracts/FlintPublicEvent.sol:PublicEvent",
						"label": "tags",
						"offset": 0,
						"slot": "5",
						"type": "t_array(t_string_storage)dyn_storage"
					},
					{
						"astId": 16,
						"contract": "contracts/FlintPublicEvent.sol:PublicEvent",
						"label": "createdAt",
						"offset": 0,
						"slot": "6",
						"type": "t_uint256"
					},
					{
						"astId": 18,
						"contract": "contracts/FlintPublicEvent.sol:PublicEvent",
						"label": "startsAt",
						"offset": 0,
						"slot": "7",
						"type": "t_uint256"
					},
					{
						"astId": 20,
						"contract": "contracts/FlintPublicEvent.sol:PublicEvent",
						"label": "endsAt",
						"offset": 0,
						"slot": "8",
						"type": "t_uint256"
					},
					{
						"astId": 22,
						"contract": "contracts/FlintPublicEvent.sol:PublicEvent",
						"label": "attendeesCount",
						"offset": 0,
						"slot": "9",
						"type": "t_uint256"
					},
					{
						"astId": 25,
						"contract": "contracts/FlintPublicEvent.sol:PublicEvent",
						"label": "eventEnded",
						"offset": 0,
						"slot": "10",
						"type": "t_bool"
					},
					{
						"astId": 28,
						"contract": "contracts/FlintPublicEvent.sol:PublicEvent",
						"label": "eventCanceled",
						"offset": 1,
						"slot": "10",
						"type": "t_bool"
					},
					{
						"astId": 32,
						"contract": "contracts/FlintPublicEvent.sol:PublicEvent",
						"label": "isAttendee",
						"offset": 0,
						"slot": "11",
						"type": "t_mapping(t_address,t_bool)"
					},
					{
						"astId": 36,
						"contract": "contracts/FlintPublicEvent.sol:PublicEvent",
						"label": "isStaff",
						"offset": 0,
						"slot": "12",
						"type": "t_mapping(t_address,t_bool)"
					}
				],
				"types": {
					"t_address": {
						"encoding": "inplace",
						"label": "address",
						"numberOfBytes": "20"
					},
					"t_array(t_string_storage)dyn_storage": {
						"base": "t_string_storage",
						"encoding": "dynamic_array",
						"label": "string[]",
						"numberOfBytes": "32"
					},
					"t_bool": {
						"encoding": "inplace",
						"label": "bool",
						"numberOfBytes": "1"
					},
					"t_mapping(t_address,t_bool)": {
						"encoding": "mapping",
						"key": "t_address",
						"label": "mapping(address => bool)",
						"numberOfBytes": "32",
						"value": "t_bool"
					},
					"t_string_storage": {
						"encoding": "bytes",
						"label": "string",
						"numberOfBytes": "32"
					},
					"t_uint256": {
						"encoding": "inplace",
						"label": "uint256",
						"numberOfBytes": "32"
					}
				}
			},
			"userdoc": {
				"kind": "user",
				"methods": {},
				"version": 1
			}
		}
	}
}