{
	"contracts/FlintEvents.sol": {
		"FlintEvents": {
			"abi": [
				{
					"anonymous": false,
					"inputs": [
						{
							"indexed": true,
							"internalType": "uint256",
							"name": "id",
							"type": "uint256"
						},
						{
							"indexed": true,
							"internalType": "address",
							"name": "owner",
							"type": "address"
						},
						{
							"indexed": false,
							"internalType": "string",
							"name": "title",
							"type": "string"
						},
						{
							"indexed": false,
							"internalType": "string",
							"name": "location",
							"type": "string"
						}
					],
					"name": "EventCreated",
					"type": "event"
				},
				{
					"inputs": [
						{
							"internalType": "string",
							"name": "_title",
							"type": "string"
						},
						{
							"internalType": "string",
							"name": "_location",
							"type": "string"
						},
						{
							"internalType": "uint256",
							"name": "_maxAttendees",
							"type": "uint256"
						},
						{
							"internalType": "string",
							"name": "_description",
							"type": "string"
						},
						{
							"internalType": "string[]",
							"name": "_tags",
							"type": "string[]"
						},
						{
							"internalType": "uint256",
							"name": "_startTimestamp",
							"type": "uint256"
						},
						{
							"internalType": "uint256",
							"name": "_endTimestamp",
							"type": "uint256"
						}
					],
					"name": "createEvent",
					"outputs": [],
					"stateMutability": "nonpayable",
					"type": "function"
				},
				{
					"inputs": [
						{
							"internalType": "address",
							"name": "",
							"type": "address"
						},
						{
							"internalType": "uint256",
							"name": "",
							"type": "uint256"
						}
					],
					"name": "eventsByOwner",
					"outputs": [
						{
							"internalType": "uint256",
							"name": "",
							"type": "uint256"
						}
					],
					"stateMutability": "view",
					"type": "function"
				},
				{
					"inputs": [],
					"name": "getAllEvents",
					"outputs": [
						{
							"components": [
								{
									"internalType": "uint256",
									"name": "id",
									"type": "uint256"
								},
								{
									"internalType": "string",
									"name": "title",
									"type": "string"
								},
								{
									"internalType": "string",
									"name": "location",
									"type": "string"
								},
								{
									"internalType": "uint256",
									"name": "maxAttendees",
									"type": "uint256"
								},
								{
									"internalType": "address",
									"name": "owner",
									"type": "address"
								},
								{
									"internalType": "string",
									"name": "description",
									"type": "string"
								},
								{
									"internalType": "string[]",
									"name": "tags",
									"type": "string[]"
								},
								{
									"internalType": "uint256",
									"name": "creationTimestamp",
									"type": "uint256"
								},
								{
									"internalType": "uint256",
									"name": "startTimestamp",
									"type": "uint256"
								},
								{
									"internalType": "uint256",
									"name": "endTimestamp",
									"type": "uint256"
								}
							],
							"internalType": "struct FlintEvents.PublicEvent[]",
							"name": "",
							"type": "tuple[]"
						}
					],
					"stateMutability": "view",
					"type": "function"
				},
				{
					"inputs": [
						{
							"internalType": "address",
							"name": "_owner",
							"type": "address"
						}
					],
					"name": "getEventsByOwner",
					"outputs": [
						{
							"components": [
								{
									"internalType": "uint256",
									"name": "id",
									"type": "uint256"
								},
								{
									"internalType": "string",
									"name": "title",
									"type": "string"
								},
								{
									"internalType": "string",
									"name": "location",
									"type": "string"
								},
								{
									"internalType": "uint256",
									"name": "maxAttendees",
									"type": "uint256"
								},
								{
									"internalType": "address",
									"name": "owner",
									"type": "address"
								},
								{
									"internalType": "string",
									"name": "description",
									"type": "string"
								},
								{
									"internalType": "string[]",
									"name": "tags",
									"type": "string[]"
								},
								{
									"internalType": "uint256",
									"name": "creationTimestamp",
									"type": "uint256"
								},
								{
									"internalType": "uint256",
									"name": "startTimestamp",
									"type": "uint256"
								},
								{
									"internalType": "uint256",
									"name": "endTimestamp",
									"type": "uint256"
								}
							],
							"internalType": "struct FlintEvents.PublicEvent[]",
							"name": "",
							"type": "tuple[]"
						}
					],
					"stateMutability": "view",
					"type": "function"
				},
				{
					"inputs": [
						{
							"internalType": "string",
							"name": "_tag",
							"type": "string"
						}
					],
					"name": "getEventsByTag",
					"outputs": [
						{
							"components": [
								{
									"internalType": "uint256",
									"name": "id",
									"type": "uint256"
								},
								{
									"internalType": "string",
									"name": "title",
									"type": "string"
								},
								{
									"internalType": "string",
									"name": "location",
									"type": "string"
								},
								{
									"internalType": "uint256",
									"name": "maxAttendees",
									"type": "uint256"
								},
								{
									"internalType": "address",
									"name": "owner",
									"type": "address"
								},
								{
									"internalType": "string",
									"name": "description",
									"type": "string"
								},
								{
									"internalType": "string[]",
									"name": "tags",
									"type": "string[]"
								},
								{
									"internalType": "uint256",
									"name": "creationTimestamp",
									"type": "uint256"
								},
								{
									"internalType": "uint256",
									"name": "startTimestamp",
									"type": "uint256"
								},
								{
									"internalType": "uint256",
									"name": "endTimestamp",
									"type": "uint256"
								}
							],
							"internalType": "struct FlintEvents.PublicEvent[]",
							"name": "",
							"type": "tuple[]"
						}
					],
					"stateMutability": "view",
					"type": "function"
				},
				{
					"inputs": [
						{
							"internalType": "uint256",
							"name": "_id",
							"type": "uint256"
						}
					],
					"name": "getPublicEvent",
					"outputs": [
						{
							"components": [
								{
									"internalType": "uint256",
									"name": "id",
									"type": "uint256"
								},
								{
									"internalType": "string",
									"name": "title",
									"type": "string"
								},
								{
									"internalType": "string",
									"name": "location",
									"type": "string"
								},
								{
									"internalType": "uint256",
									"name": "maxAttendees",
									"type": "uint256"
								},
								{
									"internalType": "address",
									"name": "owner",
									"type": "address"
								},
								{
									"internalType": "string",
									"name": "description",
									"type": "string"
								},
								{
									"internalType": "string[]",
									"name": "tags",
									"type": "string[]"
								},
								{
									"internalType": "uint256",
									"name": "creationTimestamp",
									"type": "uint256"
								},
								{
									"internalType": "uint256",
									"name": "startTimestamp",
									"type": "uint256"
								},
								{
									"internalType": "uint256",
									"name": "endTimestamp",
									"type": "uint256"
								}
							],
							"internalType": "struct FlintEvents.PublicEvent",
							"name": "",
							"type": "tuple"
						}
					],
					"stateMutability": "view",
					"type": "function"
				},
				{
					"inputs": [],
					"name": "nextEventId",
					"outputs": [
						{
							"internalType": "uint256",
							"name": "",
							"type": "uint256"
						}
					],
					"stateMutability": "view",
					"type": "function"
				},
				{
					"inputs": [
						{
							"internalType": "uint256",
							"name": "",
							"type": "uint256"
						}
					],
					"name": "publicEvents",
					"outputs": [
						{
							"internalType": "uint256",
							"name": "id",
							"type": "uint256"
						},
						{
							"internalType": "string",
							"name": "title",
							"type": "string"
						},
						{
							"internalType": "string",
							"name": "location",
							"type": "string"
						},
						{
							"internalType": "uint256",
							"name": "maxAttendees",
							"type": "uint256"
						},
						{
							"internalType": "address",
							"name": "owner",
							"type": "address"
						},
						{
							"internalType": "string",
							"name": "description",
							"type": "string"
						},
						{
							"internalType": "uint256",
							"name": "creationTimestamp",
							"type": "uint256"
						},
						{
							"internalType": "uint256",
							"name": "startTimestamp",
							"type": "uint256"
						},
						{
							"internalType": "uint256",
							"name": "endTimestamp",
							"type": "uint256"
						}
					],
					"stateMutability": "view",
					"type": "function"
				}
			],
			"devdoc": {
				"kind": "dev",
				"methods": {},
				"version": 1
			},
			"evm": {
				"assembly": "    /* \"contracts/FlintEvents.sol\":61:3741  contract FlintEvents {... */\n  mstore(0x40, 0x80)\n  callvalue\n  dup1\n  iszero\n  tag_1\n  jumpi\n  0x00\n  dup1\n  revert\ntag_1:\n  pop\n  dataSize(sub_0)\n  dup1\n  dataOffset(sub_0)\n  0x00\n  codecopy\n  0x00\n  return\nstop\n\nsub_0: assembly {\n        /* \"contracts/FlintEvents.sol\":61:3741  contract FlintEvents {... */\n      mstore(0x40, 0x80)\n      callvalue\n      dup1\n      iszero\n      tag_1\n      jumpi\n      0x00\n      dup1\n      revert\n    tag_1:\n      pop\n      jumpi(tag_2, lt(calldatasize, 0x04))\n      shr(0xe0, calldataload(0x00))\n      dup1\n      0xa5e807a6\n      gt\n      tag_11\n      jumpi\n      dup1\n      0xa5e807a6\n      eq\n      tag_7\n      jumpi\n      dup1\n      0xb04326d6\n      eq\n      tag_8\n      jumpi\n      dup1\n      0xc27a500d\n      eq\n      tag_9\n      jumpi\n      dup1\n      0xc9e9f3cf\n      eq\n      tag_10\n      jumpi\n      jump(tag_2)\n    tag_11:\n      dup1\n      0x11ce44a0\n      eq\n      tag_3\n      jumpi\n      dup1\n      0x736f9723\n      eq\n      tag_4\n      jumpi\n      dup1\n      0x74c2ad63\n      eq\n      tag_5\n      jumpi\n      dup1\n      0x9f9d903a\n      eq\n      tag_6\n      jumpi\n    tag_2:\n      0x00\n      dup1\n      revert\n        /* \"contracts/FlintEvents.sol\":679:729  mapping(address => uint256[]) public eventsByOwner */\n    tag_3:\n      tag_12\n      0x04\n      dup1\n      calldatasize\n      sub\n      dup2\n      add\n      swap1\n      tag_13\n      swap2\n      swap1\n      tag_14\n      jump\t// in\n    tag_13:\n      tag_15\n      jump\t// in\n    tag_12:\n      mload(0x40)\n      tag_16\n      swap2\n      swap1\n      tag_17\n      jump\t// in\n    tag_16:\n      mload(0x40)\n      dup1\n      swap2\n      sub\n      swap1\n      return\n        /* \"contracts/FlintEvents.sol\":917:2472  function createEvent(... */\n    tag_4:\n      tag_18\n      0x04\n      dup1\n      calldatasize\n      sub\n      dup2\n      add\n      swap1\n      tag_19\n      swap2\n      swap1\n      tag_20\n      jump\t// in\n    tag_19:\n      tag_21\n      jump\t// in\n    tag_18:\n      stop\n        /* \"contracts/FlintEvents.sol\":3092:3461  function getEventsByOwner(address _owner) external view returns (PublicEvent[] memory) {... */\n    tag_5:\n      tag_22\n      0x04\n      dup1\n      calldatasize\n      sub\n      dup2\n      add\n      swap1\n      tag_23\n      swap2\n      swap1\n      tag_24\n      jump\t// in\n    tag_23:\n      tag_25\n      jump\t// in\n    tag_22:\n      mload(0x40)\n      tag_26\n      swap2\n      swap1\n      tag_27\n      jump\t// in\n    tag_26:\n      mload(0x40)\n      dup1\n      swap2\n      sub\n      swap1\n      return\n        /* \"contracts/FlintEvents.sol\":506:532  uint256 public nextEventId */\n    tag_6:\n      tag_28\n      tag_29\n      jump\t// in\n    tag_28:\n      mload(0x40)\n      tag_30\n      swap2\n      swap1\n      tag_17\n      jump\t// in\n    tag_30:\n      mload(0x40)\n      dup1\n      swap2\n      sub\n      swap1\n      return\n        /* \"contracts/FlintEvents.sol\":2714:3084  function getEventsByTag(string memory _tag) external view returns (PublicEvent[] memory) {... */\n    tag_7:\n      tag_31\n      0x04\n      dup1\n      calldatasize\n      sub\n      dup2\n      add\n      swap1\n      tag_32\n      swap2\n      swap1\n      tag_33\n      jump\t// in\n    tag_32:\n      tag_34\n      jump\t// in\n    tag_31:\n      mload(0x40)\n      tag_35\n      swap2\n      swap1\n      tag_27\n      jump\t// in\n    tag_35:\n      mload(0x40)\n      dup1\n      swap2\n      sub\n      swap1\n      return\n        /* \"contracts/FlintEvents.sol\":539:590  mapping(uint256 => PublicEvent) public publicEvents */\n    tag_8:\n      tag_36\n      0x04\n      dup1\n      calldatasize\n      sub\n      dup2\n      add\n      swap1\n      tag_37\n      swap2\n      swap1\n      tag_38\n      jump\t// in\n    tag_37:\n      tag_39\n      jump\t// in\n    tag_36:\n      mload(0x40)\n      tag_40\n      swap10\n      swap9\n      swap8\n      swap7\n      swap6\n      swap5\n      swap4\n      swap3\n      swap2\n      swap1\n      tag_41\n      jump\t// in\n    tag_40:\n      mload(0x40)\n      dup1\n      swap2\n      sub\n      swap1\n      return\n        /* \"contracts/FlintEvents.sol\":3469:3738  function getAllEvents() external view returns (PublicEvent[] memory) {... */\n    tag_9:\n      tag_42\n      tag_43\n      jump\t// in\n    tag_42:\n      mload(0x40)\n      tag_44\n      swap2\n      swap1\n      tag_27\n      jump\t// in\n    tag_44:\n      mload(0x40)\n      dup1\n      swap2\n      sub\n      swap1\n      return\n        /* \"contracts/FlintEvents.sol\":2583:2706  function getPublicEvent(uint256 _id) external view returns (PublicEvent memory) {... */\n    tag_10:\n      tag_45\n      0x04\n      dup1\n      calldatasize\n      sub\n      dup2\n      add\n      swap1\n      tag_46\n      swap2\n      swap1\n      tag_38\n      jump\t// in\n    tag_46:\n      tag_47\n      jump\t// in\n    tag_45:\n      mload(0x40)\n      tag_48\n      swap2\n      swap1\n      tag_49\n      jump\t// in\n    tag_48:\n      mload(0x40)\n      dup1\n      swap2\n      sub\n      swap1\n      return\n        /* \"contracts/FlintEvents.sol\":679:729  mapping(address => uint256[]) public eventsByOwner */\n    tag_15:\n      mstore(0x20, 0x03)\n      dup2\n      0x00\n      mstore\n      keccak256(0x00, 0x40)\n      dup2\n      dup2\n      sload\n      dup2\n      lt\n      tag_50\n      jumpi\n      0x00\n      dup1\n      revert\n    tag_50:\n      swap1\n      0x00\n      mstore\n      keccak256(0x00, 0x20)\n      add\n      0x00\n      swap2\n      pop\n      swap2\n      pop\n      pop\n      sload\n      dup2\n      jump\t// out\n        /* \"contracts/FlintEvents.sol\":917:2472  function createEvent(... */\n    tag_21:\n        /* \"contracts/FlintEvents.sol\":1226:1227  0 */\n      0x00\n        /* \"contracts/FlintEvents.sol\":1209:1215  _title */\n      dup8\n        /* \"contracts/FlintEvents.sol\":1203:1223  bytes(_title).length */\n      mload\n        /* \"contracts/FlintEvents.sol\":1203:1227  bytes(_title).length > 0 */\n      gt\n        /* \"contracts/FlintEvents.sol\":1195:1246  require(bytes(_title).length > 0, \"Title required\") */\n      tag_53\n      jumpi\n      mload(0x40)\n      0x08c379a000000000000000000000000000000000000000000000000000000000\n      dup2\n      mstore\n      0x04\n      add\n      tag_54\n      swap1\n      tag_55\n      jump\t// in\n    tag_54:\n      mload(0x40)\n      dup1\n      swap2\n      sub\n      swap1\n      revert\n    tag_53:\n        /* \"contracts/FlintEvents.sol\":1281:1282  0 */\n      0x00\n        /* \"contracts/FlintEvents.sol\":1265:1278  _maxAttendees */\n      dup6\n        /* \"contracts/FlintEvents.sol\":1265:1282  _maxAttendees > 0 */\n      gt\n        /* \"contracts/FlintEvents.sol\":1257:1312  require(_maxAttendees > 0, \"Max attendees must be > 0\") */\n      tag_56\n      jumpi\n      mload(0x40)\n      0x08c379a000000000000000000000000000000000000000000000000000000000\n      dup2\n      mstore\n      0x04\n      add\n      tag_57\n      swap1\n      tag_58\n      jump\t// in\n    tag_57:\n      mload(0x40)\n      dup1\n      swap2\n      sub\n      swap1\n      revert\n    tag_56:\n        /* \"contracts/FlintEvents.sol\":1347:1362  _startTimestamp */\n      dup2\n        /* \"contracts/FlintEvents.sol\":1331:1344  _endTimestamp */\n      dup2\n        /* \"contracts/FlintEvents.sol\":1331:1362  _endTimestamp > _startTimestamp */\n      gt\n        /* \"contracts/FlintEvents.sol\":1323:1410  require(_endTimestamp > _startTimestamp, \"End timestamp must be after start timestamp\") */\n      tag_59\n      jumpi\n      mload(0x40)\n      0x08c379a000000000000000000000000000000000000000000000000000000000\n      dup2\n      mstore\n      0x04\n      add\n      tag_60\n      swap1\n      tag_61\n      jump\t// in\n    tag_60:\n      mload(0x40)\n      dup1\n      swap2\n      sub\n      swap1\n      revert\n    tag_59:\n        /* \"contracts/FlintEvents.sol\":1445:1460  block.timestamp */\n      timestamp\n        /* \"contracts/FlintEvents.sol\":1429:1442  _endTimestamp */\n      dup2\n        /* \"contracts/FlintEvents.sol\":1429:1460  _endTimestamp > block.timestamp */\n      gt\n        /* \"contracts/FlintEvents.sol\":1421:1492  require(_endTimestamp > block.timestamp, \"Event must be in the future\") */\n      tag_62\n      jumpi\n      mload(0x40)\n      0x08c379a000000000000000000000000000000000000000000000000000000000\n      dup2\n      mstore\n      0x04\n      add\n      tag_63\n      swap1\n      tag_64\n      jump\t// in\n    tag_63:\n      mload(0x40)\n      dup1\n      swap2\n      sub\n      swap1\n      revert\n    tag_62:\n        /* \"contracts/FlintEvents.sol\":1527:1529  10 */\n      0x0a\n        /* \"contracts/FlintEvents.sol\":1511:1516  _tags */\n      dup4\n        /* \"contracts/FlintEvents.sol\":1511:1523  _tags.length */\n      mload\n        /* \"contracts/FlintEvents.sol\":1511:1529  _tags.length <= 10 */\n      gt\n      iszero\n        /* \"contracts/FlintEvents.sol\":1503:1547  require(_tags.length <= 10, \"Too many tags\") */\n      tag_65\n      jumpi\n      mload(0x40)\n      0x08c379a000000000000000000000000000000000000000000000000000000000\n      dup2\n      mstore\n      0x04\n      add\n      tag_66\n      swap1\n      tag_67\n      jump\t// in\n    tag_66:\n      mload(0x40)\n      dup1\n      swap2\n      sub\n      swap1\n      revert\n    tag_65:\n        /* \"contracts/FlintEvents.sol\":1581:1582  0 */\n      0x00\n        /* \"contracts/FlintEvents.sol\":1566:1571  _tags */\n      dup4\n        /* \"contracts/FlintEvents.sol\":1566:1578  _tags.length */\n      mload\n        /* \"contracts/FlintEvents.sol\":1566:1582  _tags.length > 0 */\n      gt\n        /* \"contracts/FlintEvents.sol\":1558:1612  require(_tags.length > 0, \"At least one tag required\") */\n      tag_68\n      jumpi\n      mload(0x40)\n      0x08c379a000000000000000000000000000000000000000000000000000000000\n      dup2\n      mstore\n      0x04\n      add\n      tag_69\n      swap1\n      tag_70\n      jump\t// in\n    tag_69:\n      mload(0x40)\n      dup1\n      swap2\n      sub\n      swap1\n      revert\n    tag_68:\n        /* \"contracts/FlintEvents.sol\":1657:1658  0 */\n      0x00\n        /* \"contracts/FlintEvents.sol\":1637:1646  _location */\n      dup7\n        /* \"contracts/FlintEvents.sol\":1631:1654  bytes(_location).length */\n      mload\n        /* \"contracts/FlintEvents.sol\":1631:1658  bytes(_location).length > 0 */\n      gt\n        /* \"contracts/FlintEvents.sol\":1623:1680  require(bytes(_location).length > 0, \"Location required\") */\n      tag_71\n      jumpi\n      mload(0x40)\n      0x08c379a000000000000000000000000000000000000000000000000000000000\n      dup2\n      mstore\n      0x04\n      add\n      tag_72\n      swap1\n      tag_73\n      jump\t// in\n    tag_72:\n      mload(0x40)\n      dup1\n      swap2\n      sub\n      swap1\n      revert\n    tag_71:\n        /* \"contracts/FlintEvents.sol\":1693:1721  PublicEvent storage newEvent */\n      0x00\n        /* \"contracts/FlintEvents.sol\":1724:1736  publicEvents */\n      0x01\n        /* \"contracts/FlintEvents.sol\":1724:1749  publicEvents[nextEventId] */\n      0x00\n        /* \"contracts/FlintEvents.sol\":1737:1748  nextEventId */\n      dup1\n      sload\n        /* \"contracts/FlintEvents.sol\":1724:1749  publicEvents[nextEventId] */\n      dup2\n      mstore\n      0x20\n      add\n      swap1\n      dup2\n      mstore\n      0x20\n      add\n      0x00\n      keccak256\n        /* \"contracts/FlintEvents.sol\":1693:1749  PublicEvent storage newEvent = publicEvents[nextEventId] */\n      swap1\n      pop\n        /* \"contracts/FlintEvents.sol\":1774:1785  nextEventId */\n      sload(0x00)\n        /* \"contracts/FlintEvents.sol\":1760:1768  newEvent */\n      dup2\n        /* \"contracts/FlintEvents.sol\":1760:1771  newEvent.id */\n      0x00\n      add\n        /* \"contracts/FlintEvents.sol\":1760:1785  newEvent.id = nextEventId */\n      dup2\n      swap1\n      sstore\n      pop\n        /* \"contracts/FlintEvents.sol\":1813:1819  _title */\n      dup8\n        /* \"contracts/FlintEvents.sol\":1796:1804  newEvent */\n      dup2\n        /* \"contracts/FlintEvents.sol\":1796:1810  newEvent.title */\n      0x01\n      add\n        /* \"contracts/FlintEvents.sol\":1796:1819  newEvent.title = _title */\n      swap1\n      dup2\n      tag_74\n      swap2\n      swap1\n      tag_75\n      jump\t// in\n    tag_74:\n      pop\n        /* \"contracts/FlintEvents.sol\":1850:1859  _location */\n      dup7\n        /* \"contracts/FlintEvents.sol\":1830:1838  newEvent */\n      dup2\n        /* \"contracts/FlintEvents.sol\":1830:1847  newEvent.location */\n      0x02\n      add\n        /* \"contracts/FlintEvents.sol\":1830:1859  newEvent.location = _location */\n      swap1\n      dup2\n      tag_76\n      swap2\n      swap1\n      tag_75\n      jump\t// in\n    tag_76:\n      pop\n        /* \"contracts/FlintEvents.sol\":1894:1907  _maxAttendees */\n      dup6\n        /* \"contracts/FlintEvents.sol\":1870:1878  newEvent */\n      dup2\n        /* \"contracts/FlintEvents.sol\":1870:1891  newEvent.maxAttendees */\n      0x03\n      add\n        /* \"contracts/FlintEvents.sol\":1870:1907  newEvent.maxAttendees = _maxAttendees */\n      dup2\n      swap1\n      sstore\n      pop\n        /* \"contracts/FlintEvents.sol\":1935:1945  msg.sender */\n      caller\n        /* \"contracts/FlintEvents.sol\":1918:1926  newEvent */\n      dup2\n        /* \"contracts/FlintEvents.sol\":1918:1932  newEvent.owner */\n      0x04\n      add\n      0x00\n        /* \"contracts/FlintEvents.sol\":1918:1945  newEvent.owner = msg.sender */\n      0x0100\n      exp\n      dup2\n      sload\n      dup2\n      0xffffffffffffffffffffffffffffffffffffffff\n      mul\n      not\n      and\n      swap1\n      dup4\n      0xffffffffffffffffffffffffffffffffffffffff\n      and\n      mul\n      or\n      swap1\n      sstore\n      pop\n        /* \"contracts/FlintEvents.sol\":1979:1991  _description */\n      dup5\n        /* \"contracts/FlintEvents.sol\":1956:1964  newEvent */\n      dup2\n        /* \"contracts/FlintEvents.sol\":1956:1976  newEvent.description */\n      0x05\n      add\n        /* \"contracts/FlintEvents.sol\":1956:1991  newEvent.description = _description */\n      swap1\n      dup2\n      tag_77\n      swap2\n      swap1\n      tag_75\n      jump\t// in\n    tag_77:\n      pop\n        /* \"contracts/FlintEvents.sol\":2031:2046  block.timestamp */\n      timestamp\n        /* \"contracts/FlintEvents.sol\":2002:2010  newEvent */\n      dup2\n        /* \"contracts/FlintEvents.sol\":2002:2028  newEvent.creationTimestamp */\n      0x07\n      add\n        /* \"contracts/FlintEvents.sol\":2002:2046  newEvent.creationTimestamp = block.timestamp */\n      dup2\n      swap1\n      sstore\n      pop\n        /* \"contracts/FlintEvents.sol\":2083:2098  _startTimestamp */\n      dup3\n        /* \"contracts/FlintEvents.sol\":2057:2065  newEvent */\n      dup2\n        /* \"contracts/FlintEvents.sol\":2057:2080  newEvent.startTimestamp */\n      0x08\n      add\n        /* \"contracts/FlintEvents.sol\":2057:2098  newEvent.startTimestamp = _startTimestamp */\n      dup2\n      swap1\n      sstore\n      pop\n        /* \"contracts/FlintEvents.sol\":2133:2146  _endTimestamp */\n      dup2\n        /* \"contracts/FlintEvents.sol\":2109:2117  newEvent */\n      dup2\n        /* \"contracts/FlintEvents.sol\":2109:2130  newEvent.endTimestamp */\n      0x09\n      add\n        /* \"contracts/FlintEvents.sol\":2109:2146  newEvent.endTimestamp = _endTimestamp */\n      dup2\n      swap1\n      sstore\n      pop\n        /* \"contracts/FlintEvents.sol\":2164:2173  uint256 i */\n      0x00\n        /* \"contracts/FlintEvents.sol\":2159:2311  for (uint256 i = 0; i < _tags.length; i++) {... */\n    tag_78:\n        /* \"contracts/FlintEvents.sol\":2183:2188  _tags */\n      dup5\n        /* \"contracts/FlintEvents.sol\":2183:2195  _tags.length */\n      mload\n        /* \"contracts/FlintEvents.sol\":2179:2180  i */\n      dup2\n        /* \"contracts/FlintEvents.sol\":2179:2195  i < _tags.length */\n      lt\n        /* \"contracts/FlintEvents.sol\":2159:2311  for (uint256 i = 0; i < _tags.length; i++) {... */\n      iszero\n      tag_79\n      jumpi\n        /* \"contracts/FlintEvents.sol\":2217:2225  newEvent */\n      dup2\n        /* \"contracts/FlintEvents.sol\":2217:2230  newEvent.tags */\n      0x06\n      add\n        /* \"contracts/FlintEvents.sol\":2236:2241  _tags */\n      dup6\n        /* \"contracts/FlintEvents.sol\":2242:2243  i */\n      dup3\n        /* \"contracts/FlintEvents.sol\":2236:2244  _tags[i] */\n      dup2\n      mload\n      dup2\n      lt\n      tag_81\n      jumpi\n      tag_82\n      tag_83\n      jump\t// in\n    tag_82:\n    tag_81:\n      0x20\n      mul\n      0x20\n      add\n      add\n      mload\n        /* \"contracts/FlintEvents.sol\":2217:2245  newEvent.tags.push(_tags[i]) */\n      swap1\n      dup1\n      0x01\n      dup2\n      sload\n      add\n      dup1\n      dup3\n      sstore\n      dup1\n      swap2\n      pop\n      pop\n      0x01\n      swap1\n      sub\n      swap1\n      0x00\n      mstore\n      keccak256(0x00, 0x20)\n      add\n      0x00\n      swap1\n      swap2\n      swap1\n      swap2\n      swap1\n      swap2\n      pop\n      swap1\n      dup2\n      tag_85\n      swap2\n      swap1\n      tag_75\n      jump\t// in\n    tag_85:\n      pop\n        /* \"contracts/FlintEvents.sol\":2260:2271  eventsByTag */\n      0x02\n        /* \"contracts/FlintEvents.sol\":2272:2277  _tags */\n      dup6\n        /* \"contracts/FlintEvents.sol\":2278:2279  i */\n      dup3\n        /* \"contracts/FlintEvents.sol\":2272:2280  _tags[i] */\n      dup2\n      mload\n      dup2\n      lt\n      tag_86\n      jumpi\n      tag_87\n      tag_83\n      jump\t// in\n    tag_87:\n    tag_86:\n      0x20\n      mul\n      0x20\n      add\n      add\n      mload\n        /* \"contracts/FlintEvents.sol\":2260:2281  eventsByTag[_tags[i]] */\n      mload(0x40)\n      tag_88\n      swap2\n      swap1\n      tag_89\n      jump\t// in\n    tag_88:\n      swap1\n      dup2\n      mstore\n      0x20\n      add\n      mload(0x40)\n      dup1\n      swap2\n      sub\n      swap1\n      keccak256\n        /* \"contracts/FlintEvents.sol\":2287:2298  nextEventId */\n      sload(0x00)\n        /* \"contracts/FlintEvents.sol\":2260:2299  eventsByTag[_tags[i]].push(nextEventId) */\n      swap1\n      dup1\n      0x01\n      dup2\n      sload\n      add\n      dup1\n      dup3\n      sstore\n      dup1\n      swap2\n      pop\n      pop\n      0x01\n      swap1\n      sub\n      swap1\n      0x00\n      mstore\n      keccak256(0x00, 0x20)\n      add\n      0x00\n      swap1\n      swap2\n      swap1\n      swap2\n      swap1\n      swap2\n      pop\n      sstore\n        /* \"contracts/FlintEvents.sol\":2197:2200  i++ */\n      dup1\n      dup1\n      0x01\n      add\n      swap2\n      pop\n      pop\n        /* \"contracts/FlintEvents.sol\":2159:2311  for (uint256 i = 0; i < _tags.length; i++) {... */\n      jump(tag_78)\n    tag_79:\n      pop\n        /* \"contracts/FlintEvents.sol\":2323:2336  eventsByOwner */\n      0x03\n        /* \"contracts/FlintEvents.sol\":2323:2348  eventsByOwner[msg.sender] */\n      0x00\n        /* \"contracts/FlintEvents.sol\":2337:2347  msg.sender */\n      caller\n        /* \"contracts/FlintEvents.sol\":2323:2348  eventsByOwner[msg.sender] */\n      0xffffffffffffffffffffffffffffffffffffffff\n      and\n      0xffffffffffffffffffffffffffffffffffffffff\n      and\n      dup2\n      mstore\n      0x20\n      add\n      swap1\n      dup2\n      mstore\n      0x20\n      add\n      0x00\n      keccak256\n        /* \"contracts/FlintEvents.sol\":2354:2365  nextEventId */\n      sload(0x00)\n        /* \"contracts/FlintEvents.sol\":2323:2366  eventsByOwner[msg.sender].push(nextEventId) */\n      swap1\n      dup1\n      0x01\n      dup2\n      sload\n      add\n      dup1\n      dup3\n      sstore\n      dup1\n      swap2\n      pop\n      pop\n      0x01\n      swap1\n      sub\n      swap1\n      0x00\n      mstore\n      keccak256(0x00, 0x20)\n      add\n      0x00\n      swap1\n      swap2\n      swap1\n      swap2\n      swap1\n      swap2\n      pop\n      sstore\n        /* \"contracts/FlintEvents.sol\":2410:2420  msg.sender */\n      caller\n        /* \"contracts/FlintEvents.sol\":2384:2440  EventCreated(nextEventId, msg.sender, _title, _location) */\n      0xffffffffffffffffffffffffffffffffffffffff\n      and\n        /* \"contracts/FlintEvents.sol\":2397:2408  nextEventId */\n      sload(0x00)\n        /* \"contracts/FlintEvents.sol\":2384:2440  EventCreated(nextEventId, msg.sender, _title, _location) */\n      0x74c22f9f773d1d8c02ddaa6deeeaa696cacbfea0be35360f9b2c253b13938f6f\n        /* \"contracts/FlintEvents.sol\":2422:2428  _title */\n      dup11\n        /* \"contracts/FlintEvents.sol\":2430:2439  _location */\n      dup11\n        /* \"contracts/FlintEvents.sol\":2384:2440  EventCreated(nextEventId, msg.sender, _title, _location) */\n      mload(0x40)\n      tag_92\n      swap3\n      swap2\n      swap1\n      tag_93\n      jump\t// in\n    tag_92:\n      mload(0x40)\n      dup1\n      swap2\n      sub\n      swap1\n      log3\n        /* \"contracts/FlintEvents.sol\":2451:2462  nextEventId */\n      0x00\n      dup1\n        /* \"contracts/FlintEvents.sol\":2451:2464  nextEventId++ */\n      dup2\n      sload\n      dup1\n      swap3\n      swap2\n      swap1\n      tag_94\n      swap1\n      tag_95\n      jump\t// in\n    tag_94:\n      swap2\n      swap1\n      pop\n      sstore\n      pop\n        /* \"contracts/FlintEvents.sol\":1184:2472  {... */\n      pop\n        /* \"contracts/FlintEvents.sol\":917:2472  function createEvent(... */\n      pop\n      pop\n      pop\n      pop\n      pop\n      pop\n      pop\n      jump\t// out\n        /* \"contracts/FlintEvents.sol\":3092:3461  function getEventsByOwner(address _owner) external view returns (PublicEvent[] memory) {... */\n    tag_25:\n        /* \"contracts/FlintEvents.sol\":3157:3177  PublicEvent[] memory */\n      0x60\n        /* \"contracts/FlintEvents.sol\":3190:3210  uint256[] memory ids */\n      0x00\n        /* \"contracts/FlintEvents.sol\":3213:3226  eventsByOwner */\n      0x03\n        /* \"contracts/FlintEvents.sol\":3213:3234  eventsByOwner[_owner] */\n      0x00\n        /* \"contracts/FlintEvents.sol\":3227:3233  _owner */\n      dup5\n        /* \"contracts/FlintEvents.sol\":3213:3234  eventsByOwner[_owner] */\n      0xffffffffffffffffffffffffffffffffffffffff\n      and\n      0xffffffffffffffffffffffffffffffffffffffff\n      and\n      dup2\n      mstore\n      0x20\n      add\n      swap1\n      dup2\n      mstore\n      0x20\n      add\n      0x00\n      keccak256\n        /* \"contracts/FlintEvents.sol\":3190:3234  uint256[] memory ids = eventsByOwner[_owner] */\n      dup1\n      sload\n      dup1\n      0x20\n      mul\n      0x20\n      add\n      mload(0x40)\n      swap1\n      dup2\n      add\n      0x40\n      mstore\n      dup1\n      swap3\n      swap2\n      swap1\n      dup2\n      dup2\n      mstore\n      0x20\n      add\n      dup3\n      dup1\n      sload\n      dup1\n      iszero\n      tag_97\n      jumpi\n      0x20\n      mul\n      dup3\n      add\n      swap2\n      swap1\n      0x00\n      mstore\n      keccak256(0x00, 0x20)\n      swap1\n    tag_98:\n      dup2\n      sload\n      dup2\n      mstore\n      0x20\n      add\n      swap1\n      0x01\n      add\n      swap1\n      dup1\n      dup4\n      gt\n      tag_98\n      jumpi\n    tag_97:\n      pop\n      pop\n      pop\n      pop\n      pop\n      swap1\n      pop\n        /* \"contracts/FlintEvents.sol\":3245:3277  PublicEvent[] memory ownerEvents */\n      0x00\n        /* \"contracts/FlintEvents.sol\":3298:3301  ids */\n      dup2\n        /* \"contracts/FlintEvents.sol\":3298:3308  ids.length */\n      mload\n        /* \"contracts/FlintEvents.sol\":3280:3309  new PublicEvent[](ids.length) */\n      0xffffffffffffffff\n      dup2\n      gt\n      iszero\n      tag_99\n      jumpi\n      tag_100\n      tag_101\n      jump\t// in\n    tag_100:\n    tag_99:\n      mload(0x40)\n      swap1\n      dup1\n      dup3\n      mstore\n      dup1\n      0x20\n      mul\n      0x20\n      add\n      dup3\n      add\n      0x40\n      mstore\n      dup1\n      iszero\n      tag_102\n      jumpi\n      dup2\n      0x20\n      add\n    tag_103:\n      tag_104\n      tag_105\n      jump\t// in\n    tag_104:\n      dup2\n      mstore\n      0x20\n      add\n      swap1\n      0x01\n      swap1\n      sub\n      swap1\n      dup2\n      tag_103\n      jumpi\n      swap1\n      pop\n    tag_102:\n      pop\n        /* \"contracts/FlintEvents.sol\":3245:3309  PublicEvent[] memory ownerEvents = new PublicEvent[](ids.length) */\n      swap1\n      pop\n        /* \"contracts/FlintEvents.sol\":3325:3334  uint256 i */\n      0x00\n        /* \"contracts/FlintEvents.sol\":3320:3425  for (uint256 i = 0; i < ids.length; i++) {... */\n    tag_106:\n        /* \"contracts/FlintEvents.sol\":3344:3347  ids */\n      dup3\n        /* \"contracts/FlintEvents.sol\":3344:3354  ids.length */\n      mload\n        /* \"contracts/FlintEvents.sol\":3340:3341  i */\n      dup2\n        /* \"contracts/FlintEvents.sol\":3340:3354  i < ids.length */\n      lt\n        /* \"contracts/FlintEvents.sol\":3320:3425  for (uint256 i = 0; i < ids.length; i++) {... */\n      iszero\n      tag_107\n      jumpi\n        /* \"contracts/FlintEvents.sol\":3393:3405  publicEvents */\n      0x01\n        /* \"contracts/FlintEvents.sol\":3393:3413  publicEvents[ids[i]] */\n      0x00\n        /* \"contracts/FlintEvents.sol\":3406:3409  ids */\n      dup5\n        /* \"contracts/FlintEvents.sol\":3410:3411  i */\n      dup4\n        /* \"contracts/FlintEvents.sol\":3406:3412  ids[i] */\n      dup2\n      mload\n      dup2\n      lt\n      tag_109\n      jumpi\n      tag_110\n      tag_83\n      jump\t// in\n    tag_110:\n    tag_109:\n      0x20\n      mul\n      0x20\n      add\n      add\n      mload\n        /* \"contracts/FlintEvents.sol\":3393:3413  publicEvents[ids[i]] */\n      dup2\n      mstore\n      0x20\n      add\n      swap1\n      dup2\n      mstore\n      0x20\n      add\n      0x00\n      keccak256\n        /* \"contracts/FlintEvents.sol\":3376:3413  ownerEvents[i] = publicEvents[ids[i]] */\n      mload(0x40)\n      dup1\n      0x0140\n      add\n      0x40\n      mstore\n      swap1\n      dup2\n      0x00\n      dup3\n      add\n      sload\n      dup2\n      mstore\n      0x20\n      add\n      0x01\n      dup3\n      add\n      dup1\n      sload\n      tag_111\n      swap1\n      tag_112\n      jump\t// in\n    tag_111:\n      dup1\n      0x1f\n      add\n      0x20\n      dup1\n      swap2\n      div\n      mul\n      0x20\n      add\n      mload(0x40)\n      swap1\n      dup2\n      add\n      0x40\n      mstore\n      dup1\n      swap3\n      swap2\n      swap1\n      dup2\n      dup2\n      mstore\n      0x20\n      add\n      dup3\n      dup1\n      sload\n      tag_113\n      swap1\n      tag_112\n      jump\t// in\n    tag_113:\n      dup1\n      iszero\n      tag_114\n      jumpi\n      dup1\n      0x1f\n      lt\n      tag_115\n      jumpi\n      0x0100\n      dup1\n      dup4\n      sload\n      div\n      mul\n      dup4\n      mstore\n      swap2\n      0x20\n      add\n      swap2\n      jump(tag_114)\n    tag_115:\n      dup3\n      add\n      swap2\n      swap1\n      0x00\n      mstore\n      keccak256(0x00, 0x20)\n      swap1\n    tag_116:\n      dup2\n      sload\n      dup2\n      mstore\n      swap1\n      0x01\n      add\n      swap1\n      0x20\n      add\n      dup1\n      dup4\n      gt\n      tag_116\n      jumpi\n      dup3\n      swap1\n      sub\n      0x1f\n      and\n      dup3\n      add\n      swap2\n    tag_114:\n      pop\n      pop\n      pop\n      pop\n      pop\n      dup2\n      mstore\n      0x20\n      add\n      0x02\n      dup3\n      add\n      dup1\n      sload\n      tag_117\n      swap1\n      tag_112\n      jump\t// in\n    tag_117:\n      dup1\n      0x1f\n      add\n      0x20\n      dup1\n      swap2\n      div\n      mul\n      0x20\n      add\n      mload(0x40)\n      swap1\n      dup2\n      add\n      0x40\n      mstore\n      dup1\n      swap3\n      swap2\n      swap1\n      dup2\n      dup2\n      mstore\n      0x20\n      add\n      dup3\n      dup1\n      sload\n      tag_118\n      swap1\n      tag_112\n      jump\t// in\n    tag_118:\n      dup1\n      iszero\n      tag_119\n      jumpi\n      dup1\n      0x1f\n      lt\n      tag_120\n      jumpi\n      0x0100\n      dup1\n      dup4\n      sload\n      div\n      mul\n      dup4\n      mstore\n      swap2\n      0x20\n      add\n      swap2\n      jump(tag_119)\n    tag_120:\n      dup3\n      add\n      swap2\n      swap1\n      0x00\n      mstore\n      keccak256(0x00, 0x20)\n      swap1\n    tag_121:\n      dup2\n      sload\n      dup2\n      mstore\n      swap1\n      0x01\n      add\n      swap1\n      0x20\n      add\n      dup1\n      dup4\n      gt\n      tag_121\n      jumpi\n      dup3\n      swap1\n      sub\n      0x1f\n      and\n      dup3\n      add\n      swap2\n    tag_119:\n      pop\n      pop\n      pop\n      pop\n      pop\n      dup2\n      mstore\n      0x20\n      add\n      0x03\n      dup3\n      add\n      sload\n      dup2\n      mstore\n      0x20\n      add\n      0x04\n      dup3\n      add\n      0x00\n      swap1\n      sload\n      swap1\n      0x0100\n      exp\n      swap1\n      div\n      0xffffffffffffffffffffffffffffffffffffffff\n      and\n      0xffffffffffffffffffffffffffffffffffffffff\n      and\n      0xffffffffffffffffffffffffffffffffffffffff\n      and\n      dup2\n      mstore\n      0x20\n      add\n      0x05\n      dup3\n      add\n      dup1\n      sload\n      tag_122\n      swap1\n      tag_112\n      jump\t// in\n    tag_122:\n      dup1\n      0x1f\n      add\n      0x20\n      dup1\n      swap2\n      div\n      mul\n      0x20\n      add\n      mload(0x40)\n      swap1\n      dup2\n      add\n      0x40\n      mstore\n      dup1\n      swap3\n      swap2\n      swap1\n      dup2\n      dup2\n      mstore\n      0x20\n      add\n      dup3\n      dup1\n      sload\n      tag_123\n      swap1\n      tag_112\n      jump\t// in\n    tag_123:\n      dup1\n      iszero\n      tag_124\n      jumpi\n      dup1\n      0x1f\n      lt\n      tag_125\n      jumpi\n      0x0100\n      dup1\n      dup4\n      sload\n      div\n      mul\n      dup4\n      mstore\n      swap2\n      0x20\n      add\n      swap2\n      jump(tag_124)\n    tag_125:\n      dup3\n      add\n      swap2\n      swap1\n      0x00\n      mstore\n      keccak256(0x00, 0x20)\n      swap1\n    tag_126:\n      dup2\n      sload\n      dup2\n      mstore\n      swap1\n      0x01\n      add\n      swap1\n      0x20\n      add\n      dup1\n      dup4\n      gt\n      tag_126\n      jumpi\n      dup3\n      swap1\n      sub\n      0x1f\n      and\n      dup3\n      add\n      swap2\n    tag_124:\n      pop\n      pop\n      pop\n      pop\n      pop\n      dup2\n      mstore\n      0x20\n      add\n      0x06\n      dup3\n      add\n      dup1\n      sload\n      dup1\n      0x20\n      mul\n      0x20\n      add\n      mload(0x40)\n      swap1\n      dup2\n      add\n      0x40\n      mstore\n      dup1\n      swap3\n      swap2\n      swap1\n      dup2\n      dup2\n      mstore\n      0x20\n      add\n      0x00\n      swap1\n    tag_127:\n      dup3\n      dup3\n      lt\n      iszero\n      tag_128\n      jumpi\n      dup4\n      dup3\n      swap1\n      0x00\n      mstore\n      keccak256(0x00, 0x20)\n      add\n      dup1\n      sload\n      tag_130\n      swap1\n      tag_112\n      jump\t// in\n    tag_130:\n      dup1\n      0x1f\n      add\n      0x20\n      dup1\n      swap2\n      div\n      mul\n      0x20\n      add\n      mload(0x40)\n      swap1\n      dup2\n      add\n      0x40\n      mstore\n      dup1\n      swap3\n      swap2\n      swap1\n      dup2\n      dup2\n      mstore\n      0x20\n      add\n      dup3\n      dup1\n      sload\n      tag_131\n      swap1\n      tag_112\n      jump\t// in\n    tag_131:\n      dup1\n      iszero\n      tag_132\n      jumpi\n      dup1\n      0x1f\n      lt\n      tag_133\n      jumpi\n      0x0100\n      dup1\n      dup4\n      sload\n      div\n      mul\n      dup4\n      mstore\n      swap2\n      0x20\n      add\n      swap2\n      jump(tag_132)\n    tag_133:\n      dup3\n      add\n      swap2\n      swap1\n      0x00\n      mstore\n      keccak256(0x00, 0x20)\n      swap1\n    tag_134:\n      dup2\n      sload\n      dup2\n      mstore\n      swap1\n      0x01\n      add\n      swap1\n      0x20\n      add\n      dup1\n      dup4\n      gt\n      tag_134\n      jumpi\n      dup3\n      swap1\n      sub\n      0x1f\n      and\n      dup3\n      add\n      swap2\n    tag_132:\n      pop\n      pop\n      pop\n      pop\n      pop\n      dup2\n      mstore\n      0x20\n      add\n      swap1\n      0x01\n      add\n      swap1\n      jump(tag_127)\n    tag_128:\n      pop\n      pop\n      pop\n      pop\n      dup2\n      mstore\n      0x20\n      add\n      0x07\n      dup3\n      add\n      sload\n      dup2\n      mstore\n      0x20\n      add\n      0x08\n      dup3\n      add\n      sload\n      dup2\n      mstore\n      0x20\n      add\n      0x09\n      dup3\n      add\n      sload\n      dup2\n      mstore\n      pop\n      pop\n        /* \"contracts/FlintEvents.sol\":3376:3387  ownerEvents */\n      dup3\n        /* \"contracts/FlintEvents.sol\":3388:3389  i */\n      dup3\n        /* \"contracts/FlintEvents.sol\":3376:3390  ownerEvents[i] */\n      dup2\n      mload\n      dup2\n      lt\n      tag_135\n      jumpi\n      tag_136\n      tag_83\n      jump\t// in\n    tag_136:\n    tag_135:\n      0x20\n      mul\n      0x20\n      add\n      add\n        /* \"contracts/FlintEvents.sol\":3376:3413  ownerEvents[i] = publicEvents[ids[i]] */\n      dup2\n      swap1\n      mstore\n      pop\n        /* \"contracts/FlintEvents.sol\":3356:3359  i++ */\n      dup1\n      dup1\n      0x01\n      add\n      swap2\n      pop\n      pop\n        /* \"contracts/FlintEvents.sol\":3320:3425  for (uint256 i = 0; i < ids.length; i++) {... */\n      jump(tag_106)\n    tag_107:\n      pop\n        /* \"contracts/FlintEvents.sol\":3442:3453  ownerEvents */\n      dup1\n        /* \"contracts/FlintEvents.sol\":3435:3453  return ownerEvents */\n      swap3\n      pop\n      pop\n      pop\n        /* \"contracts/FlintEvents.sol\":3092:3461  function getEventsByOwner(address _owner) external view returns (PublicEvent[] memory) {... */\n      swap2\n      swap1\n      pop\n      jump\t// out\n        /* \"contracts/FlintEvents.sol\":506:532  uint256 public nextEventId */\n    tag_29:\n      sload(0x00)\n      dup2\n      jump\t// out\n        /* \"contracts/FlintEvents.sol\":2714:3084  function getEventsByTag(string memory _tag) external view returns (PublicEvent[] memory) {... */\n    tag_34:\n        /* \"contracts/FlintEvents.sol\":2781:2801  PublicEvent[] memory */\n      0x60\n        /* \"contracts/FlintEvents.sol\":2814:2834  uint256[] memory ids */\n      0x00\n        /* \"contracts/FlintEvents.sol\":2837:2848  eventsByTag */\n      0x02\n        /* \"contracts/FlintEvents.sol\":2849:2853  _tag */\n      dup4\n        /* \"contracts/FlintEvents.sol\":2837:2854  eventsByTag[_tag] */\n      mload(0x40)\n      tag_138\n      swap2\n      swap1\n      tag_89\n      jump\t// in\n    tag_138:\n      swap1\n      dup2\n      mstore\n      0x20\n      add\n      mload(0x40)\n      dup1\n      swap2\n      sub\n      swap1\n      keccak256\n        /* \"contracts/FlintEvents.sol\":2814:2854  uint256[] memory ids = eventsByTag[_tag] */\n      dup1\n      sload\n      dup1\n      0x20\n      mul\n      0x20\n      add\n      mload(0x40)\n      swap1\n      dup2\n      add\n      0x40\n      mstore\n      dup1\n      swap3\n      swap2\n      swap1\n      dup2\n      dup2\n      mstore\n      0x20\n      add\n      dup3\n      dup1\n      sload\n      dup1\n      iszero\n      tag_139\n      jumpi\n      0x20\n      mul\n      dup3\n      add\n      swap2\n      swap1\n      0x00\n      mstore\n      keccak256(0x00, 0x20)\n      swap1\n    tag_140:\n      dup2\n      sload\n      dup2\n      mstore\n      0x20\n      add\n      swap1\n      0x01\n      add\n      swap1\n      dup1\n      dup4\n      gt\n      tag_140\n      jumpi\n    tag_139:\n      pop\n      pop\n      pop\n      pop\n      pop\n      swap1\n      pop\n        /* \"contracts/FlintEvents.sol\":2865:2898  PublicEvent[] memory taggedEvents */\n      0x00\n        /* \"contracts/FlintEvents.sol\":2919:2922  ids */\n      dup2\n        /* \"contracts/FlintEvents.sol\":2919:2929  ids.length */\n      mload\n        /* \"contracts/FlintEvents.sol\":2901:2930  new PublicEvent[](ids.length) */\n      0xffffffffffffffff\n      dup2\n      gt\n      iszero\n      tag_141\n      jumpi\n      tag_142\n      tag_101\n      jump\t// in\n    tag_142:\n    tag_141:\n      mload(0x40)\n      swap1\n      dup1\n      dup3\n      mstore\n      dup1\n      0x20\n      mul\n      0x20\n      add\n      dup3\n      add\n      0x40\n      mstore\n      dup1\n      iszero\n      tag_143\n      jumpi\n      dup2\n      0x20\n      add\n    tag_144:\n      tag_145\n      tag_105\n      jump\t// in\n    tag_145:\n      dup2\n      mstore\n      0x20\n      add\n      swap1\n      0x01\n      swap1\n      sub\n      swap1\n      dup2\n      tag_144\n      jumpi\n      swap1\n      pop\n    tag_143:\n      pop\n        /* \"contracts/FlintEvents.sol\":2865:2930  PublicEvent[] memory taggedEvents = new PublicEvent[](ids.length) */\n      swap1\n      pop\n        /* \"contracts/FlintEvents.sol\":2946:2955  uint256 i */\n      0x00\n        /* \"contracts/FlintEvents.sol\":2941:3047  for (uint256 i = 0; i < ids.length; i++) {... */\n    tag_146:\n        /* \"contracts/FlintEvents.sol\":2965:2968  ids */\n      dup3\n        /* \"contracts/FlintEvents.sol\":2965:2975  ids.length */\n      mload\n        /* \"contracts/FlintEvents.sol\":2961:2962  i */\n      dup2\n        /* \"contracts/FlintEvents.sol\":2961:2975  i < ids.length */\n      lt\n        /* \"contracts/FlintEvents.sol\":2941:3047  for (uint256 i = 0; i < ids.length; i++) {... */\n      iszero\n      tag_147\n      jumpi\n        /* \"contracts/FlintEvents.sol\":3015:3027  publicEvents */\n      0x01\n        /* \"contracts/FlintEvents.sol\":3015:3035  publicEvents[ids[i]] */\n      0x00\n        /* \"contracts/FlintEvents.sol\":3028:3031  ids */\n      dup5\n        /* \"contracts/FlintEvents.sol\":3032:3033  i */\n      dup4\n        /* \"contracts/FlintEvents.sol\":3028:3034  ids[i] */\n      dup2\n      mload\n      dup2\n      lt\n      tag_149\n      jumpi\n      tag_150\n      tag_83\n      jump\t// in\n    tag_150:\n    tag_149:\n      0x20\n      mul\n      0x20\n      add\n      add\n      mload\n        /* \"contracts/FlintEvents.sol\":3015:3035  publicEvents[ids[i]] */\n      dup2\n      mstore\n      0x20\n      add\n      swap1\n      dup2\n      mstore\n      0x20\n      add\n      0x00\n      keccak256\n        /* \"contracts/FlintEvents.sol\":2997:3035  taggedEvents[i] = publicEvents[ids[i]] */\n      mload(0x40)\n      dup1\n      0x0140\n      add\n      0x40\n      mstore\n      swap1\n      dup2\n      0x00\n      dup3\n      add\n      sload\n      dup2\n      mstore\n      0x20\n      add\n      0x01\n      dup3\n      add\n      dup1\n      sload\n      tag_151\n      swap1\n      tag_112\n      jump\t// in\n    tag_151:\n      dup1\n      0x1f\n      add\n      0x20\n      dup1\n      swap2\n      div\n      mul\n      0x20\n      add\n      mload(0x40)\n      swap1\n      dup2\n      add\n      0x40\n      mstore\n      dup1\n      swap3\n      swap2\n      swap1\n      dup2\n      dup2\n      mstore\n      0x20\n      add\n      dup3\n      dup1\n      sload\n      tag_152\n      swap1\n      tag_112\n      jump\t// in\n    tag_152:\n      dup1\n      iszero\n      tag_153\n      jumpi\n      dup1\n      0x1f\n      lt\n      tag_154\n      jumpi\n      0x0100\n      dup1\n      dup4\n      sload\n      div\n      mul\n      dup4\n      mstore\n      swap2\n      0x20\n      add\n      swap2\n      jump(tag_153)\n    tag_154:\n      dup3\n      add\n      swap2\n      swap1\n      0x00\n      mstore\n      keccak256(0x00, 0x20)\n      swap1\n    tag_155:\n      dup2\n      sload\n      dup2\n      mstore\n      swap1\n      0x01\n      add\n      swap1\n      0x20\n      add\n      dup1\n      dup4\n      gt\n      tag_155\n      jumpi\n      dup3\n      swap1\n      sub\n      0x1f\n      and\n      dup3\n      add\n      swap2\n    tag_153:\n      pop\n      pop\n      pop\n      pop\n      pop\n      dup2\n      mstore\n      0x20\n      add\n      0x02\n      dup3\n      add\n      dup1\n      sload\n      tag_156\n      swap1\n      tag_112\n      jump\t// in\n    tag_156:\n      dup1\n      0x1f\n      add\n      0x20\n      dup1\n      swap2\n      div\n      mul\n      0x20\n      add\n      mload(0x40)\n      swap1\n      dup2\n      add\n      0x40\n      mstore\n      dup1\n      swap3\n      swap2\n      swap1\n      dup2\n      dup2\n      mstore\n      0x20\n      add\n      dup3\n      dup1\n      sload\n      tag_157\n      swap1\n      tag_112\n      jump\t// in\n    tag_157:\n      dup1\n      iszero\n      tag_158\n      jumpi\n      dup1\n      0x1f\n      lt\n      tag_159\n      jumpi\n      0x0100\n      dup1\n      dup4\n      sload\n      div\n      mul\n      dup4\n      mstore\n      swap2\n      0x20\n      add\n      swap2\n      jump(tag_158)\n    tag_159:\n      dup3\n      add\n      swap2\n      swap1\n      0x00\n      mstore\n      keccak256(0x00, 0x20)\n      swap1\n    tag_160:\n      dup2\n      sload\n      dup2\n      mstore\n      swap1\n      0x01\n      add\n      swap1\n      0x20\n      add\n      dup1\n      dup4\n      gt\n      tag_160\n      jumpi\n      dup3\n      swap1\n      sub\n      0x1f\n      and\n      dup3\n      add\n      swap2\n    tag_158:\n      pop\n      pop\n      pop\n      pop\n      pop\n      dup2\n      mstore\n      0x20\n      add\n      0x03\n      dup3\n      add\n      sload\n      dup2\n      mstore\n      0x20\n      add\n      0x04\n      dup3\n      add\n      0x00\n      swap1\n      sload\n      swap1\n      0x0100\n      exp\n      swap1\n      div\n      0xffffffffffffffffffffffffffffffffffffffff\n      and\n      0xffffffffffffffffffffffffffffffffffffffff\n      and\n      0xffffffffffffffffffffffffffffffffffffffff\n      and\n      dup2\n      mstore\n      0x20\n      add\n      0x05\n      dup3\n      add\n      dup1\n      sload\n      tag_161\n      swap1\n      tag_112\n      jump\t// in\n    tag_161:\n      dup1\n      0x1f\n      add\n      0x20\n      dup1\n      swap2\n      div\n      mul\n      0x20\n      add\n      mload(0x40)\n      swap1\n      dup2\n      add\n      0x40\n      mstore\n      dup1\n      swap3\n      swap2\n      swap1\n      dup2\n      dup2\n      mstore\n      0x20\n      add\n      dup3\n      dup1\n      sload\n      tag_162\n      swap1\n      tag_112\n      jump\t// in\n    tag_162:\n      dup1\n      iszero\n      tag_163\n      jumpi\n      dup1\n      0x1f\n      lt\n      tag_164\n      jumpi\n      0x0100\n      dup1\n      dup4\n      sload\n      div\n      mul\n      dup4\n      mstore\n      swap2\n      0x20\n      add\n      swap2\n      jump(tag_163)\n    tag_164:\n      dup3\n      add\n      swap2\n      swap1\n      0x00\n      mstore\n      keccak256(0x00, 0x20)\n      swap1\n    tag_165:\n      dup2\n      sload\n      dup2\n      mstore\n      swap1\n      0x01\n      add\n      swap1\n      0x20\n      add\n      dup1\n      dup4\n      gt\n      tag_165\n      jumpi\n      dup3\n      swap1\n      sub\n      0x1f\n      and\n      dup3\n      add\n      swap2\n    tag_163:\n      pop\n      pop\n      pop\n      pop\n      pop\n      dup2\n      mstore\n      0x20\n      add\n      0x06\n      dup3\n      add\n      dup1\n      sload\n      dup1\n      0x20\n      mul\n      0x20\n      add\n      mload(0x40)\n      swap1\n      dup2\n      add\n      0x40\n      mstore\n      dup1\n      swap3\n      swap2\n      swap1\n      dup2\n      dup2\n      mstore\n      0x20\n      add\n      0x00\n      swap1\n    tag_166:\n      dup3\n      dup3\n      lt\n      iszero\n      tag_167\n      jumpi\n      dup4\n      dup3\n      swap1\n      0x00\n      mstore\n      keccak256(0x00, 0x20)\n      add\n      dup1\n      sload\n      tag_169\n      swap1\n      tag_112\n      jump\t// in\n    tag_169:\n      dup1\n      0x1f\n      add\n      0x20\n      dup1\n      swap2\n      div\n      mul\n      0x20\n      add\n      mload(0x40)\n      swap1\n      dup2\n      add\n      0x40\n      mstore\n      dup1\n      swap3\n      swap2\n      swap1\n      dup2\n      dup2\n      mstore\n      0x20\n      add\n      dup3\n      dup1\n      sload\n      tag_170\n      swap1\n      tag_112\n      jump\t// in\n    tag_170:\n      dup1\n      iszero\n      tag_171\n      jumpi\n      dup1\n      0x1f\n      lt\n      tag_172\n      jumpi\n      0x0100\n      dup1\n      dup4\n      sload\n      div\n      mul\n      dup4\n      mstore\n      swap2\n      0x20\n      add\n      swap2\n      jump(tag_171)\n    tag_172:\n      dup3\n      add\n      swap2\n      swap1\n      0x00\n      mstore\n      keccak256(0x00, 0x20)\n      swap1\n    tag_173:\n      dup2\n      sload\n      dup2\n      mstore\n      swap1\n      0x01\n      add\n      swap1\n      0x20\n      add\n      dup1\n      dup4\n      gt\n      tag_173\n      jumpi\n      dup3\n      swap1\n      sub\n      0x1f\n      and\n      dup3\n      add\n      swap2\n    tag_171:\n      pop\n      pop\n      pop\n      pop\n      pop\n      dup2\n      mstore\n      0x20\n      add\n      swap1\n      0x01\n      add\n      swap1\n      jump(tag_166)\n    tag_167:\n      pop\n      pop\n      pop\n      pop\n      dup2\n      mstore\n      0x20\n      add\n      0x07\n      dup3\n      add\n      sload\n      dup2\n      mstore\n      0x20\n      add\n      0x08\n      dup3\n      add\n      sload\n      dup2\n      mstore\n      0x20\n      add\n      0x09\n      dup3\n      add\n      sload\n      dup2\n      mstore\n      pop\n      pop\n        /* \"contracts/FlintEvents.sol\":2997:3009  taggedEvents */\n      dup3\n        /* \"contracts/FlintEvents.sol\":3010:3011  i */\n      dup3\n        /* \"contracts/FlintEvents.sol\":2997:3012  taggedEvents[i] */\n      dup2\n      mload\n      dup2\n      lt\n      tag_174\n      jumpi\n      tag_175\n      tag_83\n      jump\t// in\n    tag_175:\n    tag_174:\n      0x20\n      mul\n      0x20\n      add\n      add\n        /* \"contracts/FlintEvents.sol\":2997:3035  taggedEvents[i] = publicEvents[ids[i]] */\n      dup2\n      swap1\n      mstore\n      pop\n        /* \"contracts/FlintEvents.sol\":2977:2980  i++ */\n      dup1\n      dup1\n      0x01\n      add\n      swap2\n      pop\n      pop\n        /* \"contracts/FlintEvents.sol\":2941:3047  for (uint256 i = 0; i < ids.length; i++) {... */\n      jump(tag_146)\n    tag_147:\n      pop\n        /* \"contracts/FlintEvents.sol\":3064:3076  taggedEvents */\n      dup1\n        /* \"contracts/FlintEvents.sol\":3057:3076  return taggedEvents */\n      swap3\n      pop\n      pop\n      pop\n        /* \"contracts/FlintEvents.sol\":2714:3084  function getEventsByTag(string memory _tag) external view returns (PublicEvent[] memory) {... */\n      swap2\n      swap1\n      pop\n      jump\t// out\n        /* \"contracts/FlintEvents.sol\":539:590  mapping(uint256 => PublicEvent) public publicEvents */\n    tag_39:\n      mstore(0x20, 0x01)\n      dup1\n      0x00\n      mstore\n      keccak256(0x00, 0x40)\n      0x00\n      swap2\n      pop\n      swap1\n      pop\n      dup1\n      0x00\n      add\n      sload\n      swap1\n      dup1\n      0x01\n      add\n      dup1\n      sload\n      tag_176\n      swap1\n      tag_112\n      jump\t// in\n    tag_176:\n      dup1\n      0x1f\n      add\n      0x20\n      dup1\n      swap2\n      div\n      mul\n      0x20\n      add\n      mload(0x40)\n      swap1\n      dup2\n      add\n      0x40\n      mstore\n      dup1\n      swap3\n      swap2\n      swap1\n      dup2\n      dup2\n      mstore\n      0x20\n      add\n      dup3\n      dup1\n      sload\n      tag_177\n      swap1\n      tag_112\n      jump\t// in\n    tag_177:\n      dup1\n      iszero\n      tag_178\n      jumpi\n      dup1\n      0x1f\n      lt\n      tag_179\n      jumpi\n      0x0100\n      dup1\n      dup4\n      sload\n      div\n      mul\n      dup4\n      mstore\n      swap2\n      0x20\n      add\n      swap2\n      jump(tag_178)\n    tag_179:\n      dup3\n      add\n      swap2\n      swap1\n      0x00\n      mstore\n      keccak256(0x00, 0x20)\n      swap1\n    tag_180:\n      dup2\n      sload\n      dup2\n      mstore\n      swap1\n      0x01\n      add\n      swap1\n      0x20\n      add\n      dup1\n      dup4\n      gt\n      tag_180\n      jumpi\n      dup3\n      swap1\n      sub\n      0x1f\n      and\n      dup3\n      add\n      swap2\n    tag_178:\n      pop\n      pop\n      pop\n      pop\n      pop\n      swap1\n      dup1\n      0x02\n      add\n      dup1\n      sload\n      tag_181\n      swap1\n      tag_112\n      jump\t// in\n    tag_181:\n      dup1\n      0x1f\n      add\n      0x20\n      dup1\n      swap2\n      div\n      mul\n      0x20\n      add\n      mload(0x40)\n      swap1\n      dup2\n      add\n      0x40\n      mstore\n      dup1\n      swap3\n      swap2\n      swap1\n      dup2\n      dup2\n      mstore\n      0x20\n      add\n      dup3\n      dup1\n      sload\n      tag_182\n      swap1\n      tag_112\n      jump\t// in\n    tag_182:\n      dup1\n      iszero\n      tag_183\n      jumpi\n      dup1\n      0x1f\n      lt\n      tag_184\n      jumpi\n      0x0100\n      dup1\n      dup4\n      sload\n      div\n      mul\n      dup4\n      mstore\n      swap2\n      0x20\n      add\n      swap2\n      jump(tag_183)\n    tag_184:\n      dup3\n      add\n      swap2\n      swap1\n      0x00\n      mstore\n      keccak256(0x00, 0x20)\n      swap1\n    tag_185:\n      dup2\n      sload\n      dup2\n      mstore\n      swap1\n      0x01\n      add\n      swap1\n      0x20\n      add\n      dup1\n      dup4\n      gt\n      tag_185\n      jumpi\n      dup3\n      swap1\n      sub\n      0x1f\n      and\n      dup3\n      add\n      swap2\n    tag_183:\n      pop\n      pop\n      pop\n      pop\n      pop\n      swap1\n      dup1\n      0x03\n      add\n      sload\n      swap1\n      dup1\n      0x04\n      add\n      0x00\n      swap1\n      sload\n      swap1\n      0x0100\n      exp\n      swap1\n      div\n      0xffffffffffffffffffffffffffffffffffffffff\n      and\n      swap1\n      dup1\n      0x05\n      add\n      dup1\n      sload\n      tag_186\n      swap1\n      tag_112\n      jump\t// in\n    tag_186:\n      dup1\n      0x1f\n      add\n      0x20\n      dup1\n      swap2\n      div\n      mul\n      0x20\n      add\n      mload(0x40)\n      swap1\n      dup2\n      add\n      0x40\n      mstore\n      dup1\n      swap3\n      swap2\n      swap1\n      dup2\n      dup2\n      mstore\n      0x20\n      add\n      dup3\n      dup1\n      sload\n      tag_187\n      swap1\n      tag_112\n      jump\t// in\n    tag_187:\n      dup1\n      iszero\n      tag_188\n      jumpi\n      dup1\n      0x1f\n      lt\n      tag_189\n      jumpi\n      0x0100\n      dup1\n      dup4\n      sload\n      div\n      mul\n      dup4\n      mstore\n      swap2\n      0x20\n      add\n      swap2\n      jump(tag_188)\n    tag_189:\n      dup3\n      add\n      swap2\n      swap1\n      0x00\n      mstore\n      keccak256(0x00, 0x20)\n      swap1\n    tag_190:\n      dup2\n      sload\n      dup2\n      mstore\n      swap1\n      0x01\n      add\n      swap1\n      0x20\n      add\n      dup1\n      dup4\n      gt\n      tag_190\n      jumpi\n      dup3\n      swap1\n      sub\n      0x1f\n      and\n      dup3\n      add\n      swap2\n    tag_188:\n      pop\n      pop\n      pop\n      pop\n      pop\n      swap1\n      dup1\n      0x07\n      add\n      sload\n      swap1\n      dup1\n      0x08\n      add\n      sload\n      swap1\n      dup1\n      0x09\n      add\n      sload\n      swap1\n      pop\n      dup10\n      jump\t// out\n        /* \"contracts/FlintEvents.sol\":3469:3738  function getAllEvents() external view returns (PublicEvent[] memory) {... */\n    tag_43:\n        /* \"contracts/FlintEvents.sol\":3516:3536  PublicEvent[] memory */\n      0x60\n        /* \"contracts/FlintEvents.sol\":3549:3573  PublicEvent[] memory all */\n      0x00\n        /* \"contracts/FlintEvents.sol\":3594:3605  nextEventId */\n      dup1\n      sload\n        /* \"contracts/FlintEvents.sol\":3576:3606  new PublicEvent[](nextEventId) */\n      0xffffffffffffffff\n      dup2\n      gt\n      iszero\n      tag_192\n      jumpi\n      tag_193\n      tag_101\n      jump\t// in\n    tag_193:\n    tag_192:\n      mload(0x40)\n      swap1\n      dup1\n      dup3\n      mstore\n      dup1\n      0x20\n      mul\n      0x20\n      add\n      dup3\n      add\n      0x40\n      mstore\n      dup1\n      iszero\n      tag_194\n      jumpi\n      dup2\n      0x20\n      add\n    tag_195:\n      tag_196\n      tag_105\n      jump\t// in\n    tag_196:\n      dup2\n      mstore\n      0x20\n      add\n      swap1\n      0x01\n      swap1\n      sub\n      swap1\n      dup2\n      tag_195\n      jumpi\n      swap1\n      pop\n    tag_194:\n      pop\n        /* \"contracts/FlintEvents.sol\":3549:3606  PublicEvent[] memory all = new PublicEvent[](nextEventId) */\n      swap1\n      pop\n        /* \"contracts/FlintEvents.sol\":3622:3631  uint256 i */\n      0x00\n        /* \"contracts/FlintEvents.sol\":3617:3710  for (uint256 i = 0; i < nextEventId; i++) {... */\n    tag_197:\n        /* \"contracts/FlintEvents.sol\":3641:3652  nextEventId */\n      sload(0x00)\n        /* \"contracts/FlintEvents.sol\":3637:3638  i */\n      dup2\n        /* \"contracts/FlintEvents.sol\":3637:3652  i < nextEventId */\n      lt\n        /* \"contracts/FlintEvents.sol\":3617:3710  for (uint256 i = 0; i < nextEventId; i++) {... */\n      iszero\n      tag_198\n      jumpi\n        /* \"contracts/FlintEvents.sol\":3683:3695  publicEvents */\n      0x01\n        /* \"contracts/FlintEvents.sol\":3683:3698  publicEvents[i] */\n      0x00\n        /* \"contracts/FlintEvents.sol\":3696:3697  i */\n      dup3\n        /* \"contracts/FlintEvents.sol\":3683:3698  publicEvents[i] */\n      dup2\n      mstore\n      0x20\n      add\n      swap1\n      dup2\n      mstore\n      0x20\n      add\n      0x00\n      keccak256\n        /* \"contracts/FlintEvents.sol\":3674:3698  all[i] = publicEvents[i] */\n      mload(0x40)\n      dup1\n      0x0140\n      add\n      0x40\n      mstore\n      swap1\n      dup2\n      0x00\n      dup3\n      add\n      sload\n      dup2\n      mstore\n      0x20\n      add\n      0x01\n      dup3\n      add\n      dup1\n      sload\n      tag_200\n      swap1\n      tag_112\n      jump\t// in\n    tag_200:\n      dup1\n      0x1f\n      add\n      0x20\n      dup1\n      swap2\n      div\n      mul\n      0x20\n      add\n      mload(0x40)\n      swap1\n      dup2\n      add\n      0x40\n      mstore\n      dup1\n      swap3\n      swap2\n      swap1\n      dup2\n      dup2\n      mstore\n      0x20\n      add\n      dup3\n      dup1\n      sload\n      tag_201\n      swap1\n      tag_112\n      jump\t// in\n    tag_201:\n      dup1\n      iszero\n      tag_202\n      jumpi\n      dup1\n      0x1f\n      lt\n      tag_203\n      jumpi\n      0x0100\n      dup1\n      dup4\n      sload\n      div\n      mul\n      dup4\n      mstore\n      swap2\n      0x20\n      add\n      swap2\n      jump(tag_202)\n    tag_203:\n      dup3\n      add\n      swap2\n      swap1\n      0x00\n      mstore\n      keccak256(0x00, 0x20)\n      swap1\n    tag_204:\n      dup2\n      sload\n      dup2\n      mstore\n      swap1\n      0x01\n      add\n      swap1\n      0x20\n      add\n      dup1\n      dup4\n      gt\n      tag_204\n      jumpi\n      dup3\n      swap1\n      sub\n      0x1f\n      and\n      dup3\n      add\n      swap2\n    tag_202:\n      pop\n      pop\n      pop\n      pop\n      pop\n      dup2\n      mstore\n      0x20\n      add\n      0x02\n      dup3\n      add\n      dup1\n      sload\n      tag_205\n      swap1\n      tag_112\n      jump\t// in\n    tag_205:\n      dup1\n      0x1f\n      add\n      0x20\n      dup1\n      swap2\n      div\n      mul\n      0x20\n      add\n      mload(0x40)\n      swap1\n      dup2\n      add\n      0x40\n      mstore\n      dup1\n      swap3\n      swap2\n      swap1\n      dup2\n      dup2\n      mstore\n      0x20\n      add\n      dup3\n      dup1\n      sload\n      tag_206\n      swap1\n      tag_112\n      jump\t// in\n    tag_206:\n      dup1\n      iszero\n      tag_207\n      jumpi\n      dup1\n      0x1f\n      lt\n      tag_208\n      jumpi\n      0x0100\n      dup1\n      dup4\n      sload\n      div\n      mul\n      dup4\n      mstore\n      swap2\n      0x20\n      add\n      swap2\n      jump(tag_207)\n    tag_208:\n      dup3\n      add\n      swap2\n      swap1\n      0x00\n      mstore\n      keccak256(0x00, 0x20)\n      swap1\n    tag_209:\n      dup2\n      sload\n      dup2\n      mstore\n      swap1\n      0x01\n      add\n      swap1\n      0x20\n      add\n      dup1\n      dup4\n      gt\n      tag_209\n      jumpi\n      dup3\n      swap1\n      sub\n      0x1f\n      and\n      dup3\n      add\n      swap2\n    tag_207:\n      pop\n      pop\n      pop\n      pop\n      pop\n      dup2\n      mstore\n      0x20\n      add\n      0x03\n      dup3\n      add\n      sload\n      dup2\n      mstore\n      0x20\n      add\n      0x04\n      dup3\n      add\n      0x00\n      swap1\n      sload\n      swap1\n      0x0100\n      exp\n      swap1\n      div\n      0xffffffffffffffffffffffffffffffffffffffff\n      and\n      0xffffffffffffffffffffffffffffffffffffffff\n      and\n      0xffffffffffffffffffffffffffffffffffffffff\n      and\n      dup2\n      mstore\n      0x20\n      add\n      0x05\n      dup3\n      add\n      dup1\n      sload\n      tag_210\n      swap1\n      tag_112\n      jump\t// in\n    tag_210:\n      dup1\n      0x1f\n      add\n      0x20\n      dup1\n      swap2\n      div\n      mul\n      0x20\n      add\n      mload(0x40)\n      swap1\n      dup2\n      add\n      0x40\n      mstore\n      dup1\n      swap3\n      swap2\n      swap1\n      dup2\n      dup2\n      mstore\n      0x20\n      add\n      dup3\n      dup1\n      sload\n      tag_211\n      swap1\n      tag_112\n      jump\t// in\n    tag_211:\n      dup1\n      iszero\n      tag_212\n      jumpi\n      dup1\n      0x1f\n      lt\n      tag_213\n      jumpi\n      0x0100\n      dup1\n      dup4\n      sload\n      div\n      mul\n      dup4\n      mstore\n      swap2\n      0x20\n      add\n      swap2\n      jump(tag_212)\n    tag_213:\n      dup3\n      add\n      swap2\n      swap1\n      0x00\n      mstore\n      keccak256(0x00, 0x20)\n      swap1\n    tag_214:\n      dup2\n      sload\n      dup2\n      mstore\n      swap1\n      0x01\n      add\n      swap1\n      0x20\n      add\n      dup1\n      dup4\n      gt\n      tag_214\n      jumpi\n      dup3\n      swap1\n      sub\n      0x1f\n      and\n      dup3\n      add\n      swap2\n    tag_212:\n      pop\n      pop\n      pop\n      pop\n      pop\n      dup2\n      mstore\n      0x20\n      add\n      0x06\n      dup3\n      add\n      dup1\n      sload\n      dup1\n      0x20\n      mul\n      0x20\n      add\n      mload(0x40)\n      swap1\n      dup2\n      add\n      0x40\n      mstore\n      dup1\n      swap3\n      swap2\n      swap1\n      dup2\n      dup2\n      mstore\n      0x20\n      add\n      0x00\n      swap1\n    tag_215:\n      dup3\n      dup3\n      lt\n      iszero\n      tag_216\n      jumpi\n      dup4\n      dup3\n      swap1\n      0x00\n      mstore\n      keccak256(0x00, 0x20)\n      add\n      dup1\n      sload\n      tag_218\n      swap1\n      tag_112\n      jump\t// in\n    tag_218:\n      dup1\n      0x1f\n      add\n      0x20\n      dup1\n      swap2\n      div\n      mul\n      0x20\n      add\n      mload(0x40)\n      swap1\n      dup2\n      add\n      0x40\n      mstore\n      dup1\n      swap3\n      swap2\n      swap1\n      dup2\n      dup2\n      mstore\n      0x20\n      add\n      dup3\n      dup1\n      sload\n      tag_219\n      swap1\n      tag_112\n      jump\t// in\n    tag_219:\n      dup1\n      iszero\n      tag_220\n      jumpi\n      dup1\n      0x1f\n      lt\n      tag_221\n      jumpi\n      0x0100\n      dup1\n      dup4\n      sload\n      div\n      mul\n      dup4\n      mstore\n      swap2\n      0x20\n      add\n      swap2\n      jump(tag_220)\n    tag_221:\n      dup3\n      add\n      swap2\n      swap1\n      0x00\n      mstore\n      keccak256(0x00, 0x20)\n      swap1\n    tag_222:\n      dup2\n      sload\n      dup2\n      mstore\n      swap1\n      0x01\n      add\n      swap1\n      0x20\n      add\n      dup1\n      dup4\n      gt\n      tag_222\n      jumpi\n      dup3\n      swap1\n      sub\n      0x1f\n      and\n      dup3\n      add\n      swap2\n    tag_220:\n      pop\n      pop\n      pop\n      pop\n      pop\n      dup2\n      mstore\n      0x20\n      add\n      swap1\n      0x01\n      add\n      swap1\n      jump(tag_215)\n    tag_216:\n      pop\n      pop\n      pop\n      pop\n      dup2\n      mstore\n      0x20\n      add\n      0x07\n      dup3\n      add\n      sload\n      dup2\n      mstore\n      0x20\n      add\n      0x08\n      dup3\n      add\n      sload\n      dup2\n      mstore\n      0x20\n      add\n      0x09\n      dup3\n      add\n      sload\n      dup2\n      mstore\n      pop\n      pop\n        /* \"contracts/FlintEvents.sol\":3674:3677  all */\n      dup3\n        /* \"contracts/FlintEvents.sol\":3678:3679  i */\n      dup3\n        /* \"contracts/FlintEvents.sol\":3674:3680  all[i] */\n      dup2\n      mload\n      dup2\n      lt\n      tag_223\n      jumpi\n      tag_224\n      tag_83\n      jump\t// in\n    tag_224:\n    tag_223:\n      0x20\n      mul\n      0x20\n      add\n      add\n        /* \"contracts/FlintEvents.sol\":3674:3698  all[i] = publicEvents[i] */\n      dup2\n      swap1\n      mstore\n      pop\n        /* \"contracts/FlintEvents.sol\":3654:3657  i++ */\n      dup1\n      dup1\n      0x01\n      add\n      swap2\n      pop\n      pop\n        /* \"contracts/FlintEvents.sol\":3617:3710  for (uint256 i = 0; i < nextEventId; i++) {... */\n      jump(tag_197)\n    tag_198:\n      pop\n        /* \"contracts/FlintEvents.sol\":3727:3730  all */\n      dup1\n        /* \"contracts/FlintEvents.sol\":3720:3730  return all */\n      swap2\n      pop\n      pop\n        /* \"contracts/FlintEvents.sol\":3469:3738  function getAllEvents() external view returns (PublicEvent[] memory) {... */\n      swap1\n      jump\t// out\n        /* \"contracts/FlintEvents.sol\":2583:2706  function getPublicEvent(uint256 _id) external view returns (PublicEvent memory) {... */\n    tag_47:\n        /* \"contracts/FlintEvents.sol\":2643:2661  PublicEvent memory */\n      tag_225\n      tag_105\n      jump\t// in\n    tag_225:\n        /* \"contracts/FlintEvents.sol\":2681:2693  publicEvents */\n      0x01\n        /* \"contracts/FlintEvents.sol\":2681:2698  publicEvents[_id] */\n      0x00\n        /* \"contracts/FlintEvents.sol\":2694:2697  _id */\n      dup4\n        /* \"contracts/FlintEvents.sol\":2681:2698  publicEvents[_id] */\n      dup2\n      mstore\n      0x20\n      add\n      swap1\n      dup2\n      mstore\n      0x20\n      add\n      0x00\n      keccak256\n        /* \"contracts/FlintEvents.sol\":2674:2698  return publicEvents[_id] */\n      mload(0x40)\n      dup1\n      0x0140\n      add\n      0x40\n      mstore\n      swap1\n      dup2\n      0x00\n      dup3\n      add\n      sload\n      dup2\n      mstore\n      0x20\n      add\n      0x01\n      dup3\n      add\n      dup1\n      sload\n      tag_227\n      swap1\n      tag_112\n      jump\t// in\n    tag_227:\n      dup1\n      0x1f\n      add\n      0x20\n      dup1\n      swap2\n      div\n      mul\n      0x20\n      add\n      mload(0x40)\n      swap1\n      dup2\n      add\n      0x40\n      mstore\n      dup1\n      swap3\n      swap2\n      swap1\n      dup2\n      dup2\n      mstore\n      0x20\n      add\n      dup3\n      dup1\n      sload\n      tag_228\n      swap1\n      tag_112\n      jump\t// in\n    tag_228:\n      dup1\n      iszero\n      tag_229\n      jumpi\n      dup1\n      0x1f\n      lt\n      tag_230\n      jumpi\n      0x0100\n      dup1\n      dup4\n      sload\n      div\n      mul\n      dup4\n      mstore\n      swap2\n      0x20\n      add\n      swap2\n      jump(tag_229)\n    tag_230:\n      dup3\n      add\n      swap2\n      swap1\n      0x00\n      mstore\n      keccak256(0x00, 0x20)\n      swap1\n    tag_231:\n      dup2\n      sload\n      dup2\n      mstore\n      swap1\n      0x01\n      add\n      swap1\n      0x20\n      add\n      dup1\n      dup4\n      gt\n      tag_231\n      jumpi\n      dup3\n      swap1\n      sub\n      0x1f\n      and\n      dup3\n      add\n      swap2\n    tag_229:\n      pop\n      pop\n      pop\n      pop\n      pop\n      dup2\n      mstore\n      0x20\n      add\n      0x02\n      dup3\n      add\n      dup1\n      sload\n      tag_232\n      swap1\n      tag_112\n      jump\t// in\n    tag_232:\n      dup1\n      0x1f\n      add\n      0x20\n      dup1\n      swap2\n      div\n      mul\n      0x20\n      add\n      mload(0x40)\n      swap1\n      dup2\n      add\n      0x40\n      mstore\n      dup1\n      swap3\n      swap2\n      swap1\n      dup2\n      dup2\n      mstore\n      0x20\n      add\n      dup3\n      dup1\n      sload\n      tag_233\n      swap1\n      tag_112\n      jump\t// in\n    tag_233:\n      dup1\n      iszero\n      tag_234\n      jumpi\n      dup1\n      0x1f\n      lt\n      tag_235\n      jumpi\n      0x0100\n      dup1\n      dup4\n      sload\n      div\n      mul\n      dup4\n      mstore\n      swap2\n      0x20\n      add\n      swap2\n      jump(tag_234)\n    tag_235:\n      dup3\n      add\n      swap2\n      swap1\n      0x00\n      mstore\n      keccak256(0x00, 0x20)\n      swap1\n    tag_236:\n      dup2\n      sload\n      dup2\n      mstore\n      swap1\n      0x01\n      add\n      swap1\n      0x20\n      add\n      dup1\n      dup4\n      gt\n      tag_236\n      jumpi\n      dup3\n      swap1\n      sub\n      0x1f\n      and\n      dup3\n      add\n      swap2\n    tag_234:\n      pop\n      pop\n      pop\n      pop\n      pop\n      dup2\n      mstore\n      0x20\n      add\n      0x03\n      dup3\n      add\n      sload\n      dup2\n      mstore\n      0x20\n      add\n      0x04\n      dup3\n      add\n      0x00\n      swap1\n      sload\n      swap1\n      0x0100\n      exp\n      swap1\n      div\n      0xffffffffffffffffffffffffffffffffffffffff\n      and\n      0xffffffffffffffffffffffffffffffffffffffff\n      and\n      0xffffffffffffffffffffffffffffffffffffffff\n      and\n      dup2\n      mstore\n      0x20\n      add\n      0x05\n      dup3\n      add\n      dup1\n      sload\n      tag_237\n      swap1\n      tag_112\n      jump\t// in\n    tag_237:\n      dup1\n      0x1f\n      add\n      0x20\n      dup1\n      swap2\n      div\n      mul\n      0x20\n      add\n      mload(0x40)\n      swap1\n      dup2\n      add\n      0x40\n      mstore\n      dup1\n      swap3\n      swap2\n      swap1\n      dup2\n      dup2\n      mstore\n      0x20\n      add\n      dup3\n      dup1\n      sload\n      tag_238\n      swap1\n      tag_112\n      jump\t// in\n    tag_238:\n      dup1\n      iszero\n      tag_239\n      jumpi\n      dup1\n      0x1f\n      lt\n      tag_240\n      jumpi\n      0x0100\n      dup1\n      dup4\n      sload\n      div\n      mul\n      dup4\n      mstore\n      swap2\n      0x20\n      add\n      swap2\n      jump(tag_239)\n    tag_240:\n      dup3\n      add\n      swap2\n      swap1\n      0x00\n      mstore\n      keccak256(0x00, 0x20)\n      swap1\n    tag_241:\n      dup2\n      sload\n      dup2\n      mstore\n      swap1\n      0x01\n      add\n      swap1\n      0x20\n      add\n      dup1\n      dup4\n      gt\n      tag_241\n      jumpi\n      dup3\n      swap1\n      sub\n      0x1f\n      and\n      dup3\n      add\n      swap2\n    tag_239:\n      pop\n      pop\n      pop\n      pop\n      pop\n      dup2\n      mstore\n      0x20\n      add\n      0x06\n      dup3\n      add\n      dup1\n      sload\n      dup1\n      0x20\n      mul\n      0x20\n      add\n      mload(0x40)\n      swap1\n      dup2\n      add\n      0x40\n      mstore\n      dup1\n      swap3\n      swap2\n      swap1\n      dup2\n      dup2\n      mstore\n      0x20\n      add\n      0x00\n      swap1\n    tag_242:\n      dup3\n      dup3\n      lt\n      iszero\n      tag_243\n      jumpi\n      dup4\n      dup3\n      swap1\n      0x00\n      mstore\n      keccak256(0x00, 0x20)\n      add\n      dup1\n      sload\n      tag_245\n      swap1\n      tag_112\n      jump\t// in\n    tag_245:\n      dup1\n      0x1f\n      add\n      0x20\n      dup1\n      swap2\n      div\n      mul\n      0x20\n      add\n      mload(0x40)\n      swap1\n      dup2\n      add\n      0x40\n      mstore\n      dup1\n      swap3\n      swap2\n      swap1\n      dup2\n      dup2\n      mstore\n      0x20\n      add\n      dup3\n      dup1\n      sload\n      tag_246\n      swap1\n      tag_112\n      jump\t// in\n    tag_246:\n      dup1\n      iszero\n      tag_247\n      jumpi\n      dup1\n      0x1f\n      lt\n      tag_248\n      jumpi\n      0x0100\n      dup1\n      dup4\n      sload\n      div\n      mul\n      dup4\n      mstore\n      swap2\n      0x20\n      add\n      swap2\n      jump(tag_247)\n    tag_248:\n      dup3\n      add\n      swap2\n      swap1\n      0x00\n      mstore\n      keccak256(0x00, 0x20)\n      swap1\n    tag_249:\n      dup2\n      sload\n      dup2\n      mstore\n      swap1\n      0x01\n      add\n      swap1\n      0x20\n      add\n      dup1\n      dup4\n      gt\n      tag_249\n      jumpi\n      dup3\n      swap1\n      sub\n      0x1f\n      and\n      dup3\n      add\n      swap2\n    tag_247:\n      pop\n      pop\n      pop\n      pop\n      pop\n      dup2\n      mstore\n      0x20\n      add\n      swap1\n      0x01\n      add\n      swap1\n      jump(tag_242)\n    tag_243:\n      pop\n      pop\n      pop\n      pop\n      dup2\n      mstore\n      0x20\n      add\n      0x07\n      dup3\n      add\n      sload\n      dup2\n      mstore\n      0x20\n      add\n      0x08\n      dup3\n      add\n      sload\n      dup2\n      mstore\n      0x20\n      add\n      0x09\n      dup3\n      add\n      sload\n      dup2\n      mstore\n      pop\n      pop\n      swap1\n      pop\n        /* \"contracts/FlintEvents.sol\":2583:2706  function getPublicEvent(uint256 _id) external view returns (PublicEvent memory) {... */\n      swap2\n      swap1\n      pop\n      jump\t// out\n    tag_105:\n      mload(0x40)\n      dup1\n      0x0140\n      add\n      0x40\n      mstore\n      dup1\n      0x00\n      dup2\n      mstore\n      0x20\n      add\n      0x60\n      dup2\n      mstore\n      0x20\n      add\n      0x60\n      dup2\n      mstore\n      0x20\n      add\n      0x00\n      dup2\n      mstore\n      0x20\n      add\n      and(0xffffffffffffffffffffffffffffffffffffffff, 0x00)\n      dup2\n      mstore\n      0x20\n      add\n      0x60\n      dup2\n      mstore\n      0x20\n      add\n      0x60\n      dup2\n      mstore\n      0x20\n      add\n      0x00\n      dup2\n      mstore\n      0x20\n      add\n      0x00\n      dup2\n      mstore\n      0x20\n      add\n      0x00\n      dup2\n      mstore\n      pop\n      swap1\n      jump\t// out\n        /* \"#utility.yul\":7:82   */\n    tag_250:\n        /* \"#utility.yul\":40:46   */\n      0x00\n        /* \"#utility.yul\":73:75   */\n      0x40\n        /* \"#utility.yul\":67:76   */\n      mload\n        /* \"#utility.yul\":57:76   */\n      swap1\n      pop\n        /* \"#utility.yul\":7:82   */\n      swap1\n      jump\t// out\n        /* \"#utility.yul\":88:205   */\n    tag_251:\n        /* \"#utility.yul\":197:198   */\n      0x00\n        /* \"#utility.yul\":194:195   */\n      dup1\n        /* \"#utility.yul\":187:199   */\n      revert\n        /* \"#utility.yul\":211:328   */\n    tag_252:\n        /* \"#utility.yul\":320:321   */\n      0x00\n        /* \"#utility.yul\":317:318   */\n      dup1\n        /* \"#utility.yul\":310:322   */\n      revert\n        /* \"#utility.yul\":334:460   */\n    tag_253:\n        /* \"#utility.yul\":371:378   */\n      0x00\n        /* \"#utility.yul\":411:453   */\n      0xffffffffffffffffffffffffffffffffffffffff\n        /* \"#utility.yul\":404:409   */\n      dup3\n        /* \"#utility.yul\":400:454   */\n      and\n        /* \"#utility.yul\":389:454   */\n      swap1\n      pop\n        /* \"#utility.yul\":334:460   */\n      swap2\n      swap1\n      pop\n      jump\t// out\n        /* \"#utility.yul\":466:562   */\n    tag_254:\n        /* \"#utility.yul\":503:510   */\n      0x00\n        /* \"#utility.yul\":532:556   */\n      tag_336\n        /* \"#utility.yul\":550:555   */\n      dup3\n        /* \"#utility.yul\":532:556   */\n      tag_253\n      jump\t// in\n    tag_336:\n        /* \"#utility.yul\":521:556   */\n      swap1\n      pop\n        /* \"#utility.yul\":466:562   */\n      swap2\n      swap1\n      pop\n      jump\t// out\n        /* \"#utility.yul\":568:690   */\n    tag_255:\n        /* \"#utility.yul\":641:665   */\n      tag_338\n        /* \"#utility.yul\":659:664   */\n      dup2\n        /* \"#utility.yul\":641:665   */\n      tag_254\n      jump\t// in\n    tag_338:\n        /* \"#utility.yul\":634:639   */\n      dup2\n        /* \"#utility.yul\":631:666   */\n      eq\n        /* \"#utility.yul\":621:684   */\n      tag_339\n      jumpi\n        /* \"#utility.yul\":680:681   */\n      0x00\n        /* \"#utility.yul\":677:678   */\n      dup1\n        /* \"#utility.yul\":670:682   */\n      revert\n        /* \"#utility.yul\":621:684   */\n    tag_339:\n        /* \"#utility.yul\":568:690   */\n      pop\n      jump\t// out\n        /* \"#utility.yul\":696:835   */\n    tag_256:\n        /* \"#utility.yul\":742:747   */\n      0x00\n        /* \"#utility.yul\":780:786   */\n      dup2\n        /* \"#utility.yul\":767:787   */\n      calldataload\n        /* \"#utility.yul\":758:787   */\n      swap1\n      pop\n        /* \"#utility.yul\":796:829   */\n      tag_341\n        /* \"#utility.yul\":823:828   */\n      dup2\n        /* \"#utility.yul\":796:829   */\n      tag_255\n      jump\t// in\n    tag_341:\n        /* \"#utility.yul\":696:835   */\n      swap3\n      swap2\n      pop\n      pop\n      jump\t// out\n        /* \"#utility.yul\":841:918   */\n    tag_257:\n        /* \"#utility.yul\":878:885   */\n      0x00\n        /* \"#utility.yul\":907:912   */\n      dup2\n        /* \"#utility.yul\":896:912   */\n      swap1\n      pop\n        /* \"#utility.yul\":841:918   */\n      swap2\n      swap1\n      pop\n      jump\t// out\n        /* \"#utility.yul\":924:1046   */\n    tag_258:\n        /* \"#utility.yul\":997:1021   */\n      tag_344\n        /* \"#utility.yul\":1015:1020   */\n      dup2\n        /* \"#utility.yul\":997:1021   */\n      tag_257\n      jump\t// in\n    tag_344:\n        /* \"#utility.yul\":990:995   */\n      dup2\n        /* \"#utility.yul\":987:1022   */\n      eq\n        /* \"#utility.yul\":977:1040   */\n      tag_345\n      jumpi\n        /* \"#utility.yul\":1036:1037   */\n      0x00\n        /* \"#utility.yul\":1033:1034   */\n      dup1\n        /* \"#utility.yul\":1026:1038   */\n      revert\n        /* \"#utility.yul\":977:1040   */\n    tag_345:\n        /* \"#utility.yul\":924:1046   */\n      pop\n      jump\t// out\n        /* \"#utility.yul\":1052:1191   */\n    tag_259:\n        /* \"#utility.yul\":1098:1103   */\n      0x00\n        /* \"#utility.yul\":1136:1142   */\n      dup2\n        /* \"#utility.yul\":1123:1143   */\n      calldataload\n        /* \"#utility.yul\":1114:1143   */\n      swap1\n      pop\n        /* \"#utility.yul\":1152:1185   */\n      tag_347\n        /* \"#utility.yul\":1179:1184   */\n      dup2\n        /* \"#utility.yul\":1152:1185   */\n      tag_258\n      jump\t// in\n    tag_347:\n        /* \"#utility.yul\":1052:1191   */\n      swap3\n      swap2\n      pop\n      pop\n      jump\t// out\n        /* \"#utility.yul\":1197:1671   */\n    tag_14:\n        /* \"#utility.yul\":1265:1271   */\n      0x00\n        /* \"#utility.yul\":1273:1279   */\n      dup1\n        /* \"#utility.yul\":1322:1324   */\n      0x40\n        /* \"#utility.yul\":1310:1319   */\n      dup4\n        /* \"#utility.yul\":1301:1308   */\n      dup6\n        /* \"#utility.yul\":1297:1320   */\n      sub\n        /* \"#utility.yul\":1293:1325   */\n      slt\n        /* \"#utility.yul\":1290:1409   */\n      iszero\n      tag_349\n      jumpi\n        /* \"#utility.yul\":1328:1407   */\n      tag_350\n      tag_251\n      jump\t// in\n    tag_350:\n        /* \"#utility.yul\":1290:1409   */\n    tag_349:\n        /* \"#utility.yul\":1448:1449   */\n      0x00\n        /* \"#utility.yul\":1473:1526   */\n      tag_351\n        /* \"#utility.yul\":1518:1525   */\n      dup6\n        /* \"#utility.yul\":1509:1515   */\n      dup3\n        /* \"#utility.yul\":1498:1507   */\n      dup7\n        /* \"#utility.yul\":1494:1516   */\n      add\n        /* \"#utility.yul\":1473:1526   */\n      tag_256\n      jump\t// in\n    tag_351:\n        /* \"#utility.yul\":1463:1526   */\n      swap3\n      pop\n        /* \"#utility.yul\":1419:1536   */\n      pop\n        /* \"#utility.yul\":1575:1577   */\n      0x20\n        /* \"#utility.yul\":1601:1654   */\n      tag_352\n        /* \"#utility.yul\":1646:1653   */\n      dup6\n        /* \"#utility.yul\":1637:1643   */\n      dup3\n        /* \"#utility.yul\":1626:1635   */\n      dup7\n        /* \"#utility.yul\":1622:1644   */\n      add\n        /* \"#utility.yul\":1601:1654   */\n      tag_259\n      jump\t// in\n    tag_352:\n        /* \"#utility.yul\":1591:1654   */\n      swap2\n      pop\n        /* \"#utility.yul\":1546:1664   */\n      pop\n        /* \"#utility.yul\":1197:1671   */\n      swap3\n      pop\n      swap3\n      swap1\n      pop\n      jump\t// out\n        /* \"#utility.yul\":1677:1795   */\n    tag_260:\n        /* \"#utility.yul\":1764:1788   */\n      tag_354\n        /* \"#utility.yul\":1782:1787   */\n      dup2\n        /* \"#utility.yul\":1764:1788   */\n      tag_257\n      jump\t// in\n    tag_354:\n        /* \"#utility.yul\":1759:1762   */\n      dup3\n        /* \"#utility.yul\":1752:1789   */\n      mstore\n        /* \"#utility.yul\":1677:1795   */\n      pop\n      pop\n      jump\t// out\n        /* \"#utility.yul\":1801:2023   */\n    tag_17:\n        /* \"#utility.yul\":1894:1898   */\n      0x00\n        /* \"#utility.yul\":1932:1934   */\n      0x20\n        /* \"#utility.yul\":1921:1930   */\n      dup3\n        /* \"#utility.yul\":1917:1935   */\n      add\n        /* \"#utility.yul\":1909:1935   */\n      swap1\n      pop\n        /* \"#utility.yul\":1945:2016   */\n      tag_356\n        /* \"#utility.yul\":2013:2014   */\n      0x00\n        /* \"#utility.yul\":2002:2011   */\n      dup4\n        /* \"#utility.yul\":1998:2015   */\n      add\n        /* \"#utility.yul\":1989:1995   */\n      dup5\n        /* \"#utility.yul\":1945:2016   */\n      tag_260\n      jump\t// in\n    tag_356:\n        /* \"#utility.yul\":1801:2023   */\n      swap3\n      swap2\n      pop\n      pop\n      jump\t// out\n        /* \"#utility.yul\":2029:2146   */\n    tag_261:\n        /* \"#utility.yul\":2138:2139   */\n      0x00\n        /* \"#utility.yul\":2135:2136   */\n      dup1\n        /* \"#utility.yul\":2128:2140   */\n      revert\n        /* \"#utility.yul\":2152:2269   */\n    tag_262:\n        /* \"#utility.yul\":2261:2262   */\n      0x00\n        /* \"#utility.yul\":2258:2259   */\n      dup1\n        /* \"#utility.yul\":2251:2263   */\n      revert\n        /* \"#utility.yul\":2275:2377   */\n    tag_263:\n        /* \"#utility.yul\":2316:2322   */\n      0x00\n        /* \"#utility.yul\":2367:2369   */\n      0x1f\n        /* \"#utility.yul\":2363:2370   */\n      not\n        /* \"#utility.yul\":2358:2360   */\n      0x1f\n        /* \"#utility.yul\":2351:2356   */\n      dup4\n        /* \"#utility.yul\":2347:2361   */\n      add\n        /* \"#utility.yul\":2343:2371   */\n      and\n        /* \"#utility.yul\":2333:2371   */\n      swap1\n      pop\n        /* \"#utility.yul\":2275:2377   */\n      swap2\n      swap1\n      pop\n      jump\t// out\n        /* \"#utility.yul\":2383:2563   */\n    tag_101:\n        /* \"#utility.yul\":2431:2508   */\n      0x4e487b7100000000000000000000000000000000000000000000000000000000\n        /* \"#utility.yul\":2428:2429   */\n      0x00\n        /* \"#utility.yul\":2421:2509   */\n      mstore\n        /* \"#utility.yul\":2528:2532   */\n      0x41\n        /* \"#utility.yul\":2525:2526   */\n      0x04\n        /* \"#utility.yul\":2518:2533   */\n      mstore\n        /* \"#utility.yul\":2552:2556   */\n      0x24\n        /* \"#utility.yul\":2549:2550   */\n      0x00\n        /* \"#utility.yul\":2542:2557   */\n      revert\n        /* \"#utility.yul\":2569:2850   */\n    tag_264:\n        /* \"#utility.yul\":2652:2679   */\n      tag_362\n        /* \"#utility.yul\":2674:2678   */\n      dup3\n        /* \"#utility.yul\":2652:2679   */\n      tag_263\n      jump\t// in\n    tag_362:\n        /* \"#utility.yul\":2644:2650   */\n      dup2\n        /* \"#utility.yul\":2640:2680   */\n      add\n        /* \"#utility.yul\":2782:2788   */\n      dup2\n        /* \"#utility.yul\":2770:2780   */\n      dup2\n        /* \"#utility.yul\":2767:2789   */\n      lt\n        /* \"#utility.yul\":2746:2764   */\n      0xffffffffffffffff\n        /* \"#utility.yul\":2734:2744   */\n      dup3\n        /* \"#utility.yul\":2731:2765   */\n      gt\n        /* \"#utility.yul\":2728:2790   */\n      or\n        /* \"#utility.yul\":2725:2813   */\n      iszero\n      tag_363\n      jumpi\n        /* \"#utility.yul\":2793:2811   */\n      tag_364\n      tag_101\n      jump\t// in\n    tag_364:\n        /* \"#utility.yul\":2725:2813   */\n    tag_363:\n        /* \"#utility.yul\":2833:2843   */\n      dup1\n        /* \"#utility.yul\":2829:2831   */\n      0x40\n        /* \"#utility.yul\":2822:2844   */\n      mstore\n        /* \"#utility.yul\":2612:2850   */\n      pop\n        /* \"#utility.yul\":2569:2850   */\n      pop\n      pop\n      jump\t// out\n        /* \"#utility.yul\":2856:2985   */\n    tag_265:\n        /* \"#utility.yul\":2890:2896   */\n      0x00\n        /* \"#utility.yul\":2917:2937   */\n      tag_366\n      tag_250\n      jump\t// in\n    tag_366:\n        /* \"#utility.yul\":2907:2937   */\n      swap1\n      pop\n        /* \"#utility.yul\":2946:2979   */\n      tag_367\n        /* \"#utility.yul\":2974:2978   */\n      dup3\n        /* \"#utility.yul\":2966:2972   */\n      dup3\n        /* \"#utility.yul\":2946:2979   */\n      tag_264\n      jump\t// in\n    tag_367:\n        /* \"#utility.yul\":2856:2985   */\n      swap2\n      swap1\n      pop\n      jump\t// out\n        /* \"#utility.yul\":2991:3299   */\n    tag_266:\n        /* \"#utility.yul\":3053:3057   */\n      0x00\n        /* \"#utility.yul\":3143:3161   */\n      0xffffffffffffffff\n        /* \"#utility.yul\":3135:3141   */\n      dup3\n        /* \"#utility.yul\":3132:3162   */\n      gt\n        /* \"#utility.yul\":3129:3185   */\n      iszero\n      tag_369\n      jumpi\n        /* \"#utility.yul\":3165:3183   */\n      tag_370\n      tag_101\n      jump\t// in\n    tag_370:\n        /* \"#utility.yul\":3129:3185   */\n    tag_369:\n        /* \"#utility.yul\":3203:3232   */\n      tag_371\n        /* \"#utility.yul\":3225:3231   */\n      dup3\n        /* \"#utility.yul\":3203:3232   */\n      tag_263\n      jump\t// in\n    tag_371:\n        /* \"#utility.yul\":3195:3232   */\n      swap1\n      pop\n        /* \"#utility.yul\":3287:3291   */\n      0x20\n        /* \"#utility.yul\":3281:3285   */\n      dup2\n        /* \"#utility.yul\":3277:3292   */\n      add\n        /* \"#utility.yul\":3269:3292   */\n      swap1\n      pop\n        /* \"#utility.yul\":2991:3299   */\n      swap2\n      swap1\n      pop\n      jump\t// out\n        /* \"#utility.yul\":3305:3451   */\n    tag_267:\n        /* \"#utility.yul\":3402:3408   */\n      dup3\n        /* \"#utility.yul\":3397:3400   */\n      dup2\n        /* \"#utility.yul\":3392:3395   */\n      dup4\n        /* \"#utility.yul\":3379:3409   */\n      calldatacopy\n        /* \"#utility.yul\":3443:3444   */\n      0x00\n        /* \"#utility.yul\":3434:3440   */\n      dup4\n        /* \"#utility.yul\":3429:3432   */\n      dup4\n        /* \"#utility.yul\":3425:3441   */\n      add\n        /* \"#utility.yul\":3418:3445   */\n      mstore\n        /* \"#utility.yul\":3305:3451   */\n      pop\n      pop\n      pop\n      jump\t// out\n        /* \"#utility.yul\":3457:3882   */\n    tag_268:\n        /* \"#utility.yul\":3535:3540   */\n      0x00\n        /* \"#utility.yul\":3560:3626   */\n      tag_374\n        /* \"#utility.yul\":3576:3625   */\n      tag_375\n        /* \"#utility.yul\":3618:3624   */\n      dup5\n        /* \"#utility.yul\":3576:3625   */\n      tag_266\n      jump\t// in\n    tag_375:\n        /* \"#utility.yul\":3560:3626   */\n      tag_265\n      jump\t// in\n    tag_374:\n        /* \"#utility.yul\":3551:3626   */\n      swap1\n      pop\n        /* \"#utility.yul\":3649:3655   */\n      dup3\n        /* \"#utility.yul\":3642:3647   */\n      dup2\n        /* \"#utility.yul\":3635:3656   */\n      mstore\n        /* \"#utility.yul\":3687:3691   */\n      0x20\n        /* \"#utility.yul\":3680:3685   */\n      dup2\n        /* \"#utility.yul\":3676:3692   */\n      add\n        /* \"#utility.yul\":3725:3728   */\n      dup5\n        /* \"#utility.yul\":3716:3722   */\n      dup5\n        /* \"#utility.yul\":3711:3714   */\n      dup5\n        /* \"#utility.yul\":3707:3723   */\n      add\n        /* \"#utility.yul\":3704:3729   */\n      gt\n        /* \"#utility.yul\":3701:3813   */\n      iszero\n      tag_376\n      jumpi\n        /* \"#utility.yul\":3732:3811   */\n      tag_377\n      tag_262\n      jump\t// in\n    tag_377:\n        /* \"#utility.yul\":3701:3813   */\n    tag_376:\n        /* \"#utility.yul\":3822:3876   */\n      tag_378\n        /* \"#utility.yul\":3869:3875   */\n      dup5\n        /* \"#utility.yul\":3864:3867   */\n      dup3\n        /* \"#utility.yul\":3859:3862   */\n      dup6\n        /* \"#utility.yul\":3822:3876   */\n      tag_267\n      jump\t// in\n    tag_378:\n        /* \"#utility.yul\":3541:3882   */\n      pop\n        /* \"#utility.yul\":3457:3882   */\n      swap4\n      swap3\n      pop\n      pop\n      pop\n      jump\t// out\n        /* \"#utility.yul\":3902:4242   */\n    tag_269:\n        /* \"#utility.yul\":3958:3963   */\n      0x00\n        /* \"#utility.yul\":4007:4010   */\n      dup3\n        /* \"#utility.yul\":4000:4004   */\n      0x1f\n        /* \"#utility.yul\":3992:3998   */\n      dup4\n        /* \"#utility.yul\":3988:4005   */\n      add\n        /* \"#utility.yul\":3984:4011   */\n      slt\n        /* \"#utility.yul\":3974:4096   */\n      tag_380\n      jumpi\n        /* \"#utility.yul\":4015:4094   */\n      tag_381\n      tag_261\n      jump\t// in\n    tag_381:\n        /* \"#utility.yul\":3974:4096   */\n    tag_380:\n        /* \"#utility.yul\":4132:4138   */\n      dup2\n        /* \"#utility.yul\":4119:4139   */\n      calldataload\n        /* \"#utility.yul\":4157:4236   */\n      tag_382\n        /* \"#utility.yul\":4232:4235   */\n      dup5\n        /* \"#utility.yul\":4224:4230   */\n      dup3\n        /* \"#utility.yul\":4217:4221   */\n      0x20\n        /* \"#utility.yul\":4209:4215   */\n      dup7\n        /* \"#utility.yul\":4205:4222   */\n      add\n        /* \"#utility.yul\":4157:4236   */\n      tag_268\n      jump\t// in\n    tag_382:\n        /* \"#utility.yul\":4148:4236   */\n      swap2\n      pop\n        /* \"#utility.yul\":3964:4242   */\n      pop\n        /* \"#utility.yul\":3902:4242   */\n      swap3\n      swap2\n      pop\n      pop\n      jump\t// out\n        /* \"#utility.yul\":4248:4569   */\n    tag_270:\n        /* \"#utility.yul\":4335:4339   */\n      0x00\n        /* \"#utility.yul\":4425:4443   */\n      0xffffffffffffffff\n        /* \"#utility.yul\":4417:4423   */\n      dup3\n        /* \"#utility.yul\":4414:4444   */\n      gt\n        /* \"#utility.yul\":4411:4467   */\n      iszero\n      tag_384\n      jumpi\n        /* \"#utility.yul\":4447:4465   */\n      tag_385\n      tag_101\n      jump\t// in\n    tag_385:\n        /* \"#utility.yul\":4411:4467   */\n    tag_384:\n        /* \"#utility.yul\":4497:4501   */\n      0x20\n        /* \"#utility.yul\":4489:4495   */\n      dup3\n        /* \"#utility.yul\":4485:4502   */\n      mul\n        /* \"#utility.yul\":4477:4502   */\n      swap1\n      pop\n        /* \"#utility.yul\":4557:4561   */\n      0x20\n        /* \"#utility.yul\":4551:4555   */\n      dup2\n        /* \"#utility.yul\":4547:4562   */\n      add\n        /* \"#utility.yul\":4539:4562   */\n      swap1\n      pop\n        /* \"#utility.yul\":4248:4569   */\n      swap2\n      swap1\n      pop\n      jump\t// out\n        /* \"#utility.yul\":4575:4692   */\n    tag_271:\n        /* \"#utility.yul\":4684:4685   */\n      0x00\n        /* \"#utility.yul\":4681:4682   */\n      dup1\n        /* \"#utility.yul\":4674:4686   */\n      revert\n        /* \"#utility.yul\":4714:5659   */\n    tag_272:\n        /* \"#utility.yul\":4820:4825   */\n      0x00\n        /* \"#utility.yul\":4845:4936   */\n      tag_388\n        /* \"#utility.yul\":4861:4935   */\n      tag_389\n        /* \"#utility.yul\":4928:4934   */\n      dup5\n        /* \"#utility.yul\":4861:4935   */\n      tag_270\n      jump\t// in\n    tag_389:\n        /* \"#utility.yul\":4845:4936   */\n      tag_265\n      jump\t// in\n    tag_388:\n        /* \"#utility.yul\":4836:4936   */\n      swap1\n      pop\n        /* \"#utility.yul\":4956:4961   */\n      dup1\n        /* \"#utility.yul\":4985:4991   */\n      dup4\n        /* \"#utility.yul\":4978:4983   */\n      dup3\n        /* \"#utility.yul\":4971:4992   */\n      mstore\n        /* \"#utility.yul\":5019:5023   */\n      0x20\n        /* \"#utility.yul\":5012:5017   */\n      dup3\n        /* \"#utility.yul\":5008:5024   */\n      add\n        /* \"#utility.yul\":5001:5024   */\n      swap1\n      pop\n        /* \"#utility.yul\":5072:5076   */\n      0x20\n        /* \"#utility.yul\":5064:5070   */\n      dup5\n        /* \"#utility.yul\":5060:5077   */\n      mul\n        /* \"#utility.yul\":5052:5058   */\n      dup4\n        /* \"#utility.yul\":5048:5078   */\n      add\n        /* \"#utility.yul\":5101:5104   */\n      dup6\n        /* \"#utility.yul\":5093:5099   */\n      dup2\n        /* \"#utility.yul\":5090:5105   */\n      gt\n        /* \"#utility.yul\":5087:5209   */\n      iszero\n      tag_390\n      jumpi\n        /* \"#utility.yul\":5120:5199   */\n      tag_391\n      tag_271\n      jump\t// in\n    tag_391:\n        /* \"#utility.yul\":5087:5209   */\n    tag_390:\n        /* \"#utility.yul\":5235:5241   */\n      dup4\n        /* \"#utility.yul\":5218:5653   */\n    tag_392:\n        /* \"#utility.yul\":5252:5258   */\n      dup2\n        /* \"#utility.yul\":5247:5250   */\n      dup2\n        /* \"#utility.yul\":5244:5259   */\n      lt\n        /* \"#utility.yul\":5218:5653   */\n      iszero\n      tag_394\n      jumpi\n        /* \"#utility.yul\":5341:5344   */\n      dup1\n        /* \"#utility.yul\":5328:5345   */\n      calldataload\n        /* \"#utility.yul\":5377:5395   */\n      0xffffffffffffffff\n        /* \"#utility.yul\":5364:5375   */\n      dup2\n        /* \"#utility.yul\":5361:5396   */\n      gt\n        /* \"#utility.yul\":5358:5480   */\n      iszero\n      tag_395\n      jumpi\n        /* \"#utility.yul\":5399:5478   */\n      tag_396\n      tag_261\n      jump\t// in\n    tag_396:\n        /* \"#utility.yul\":5358:5480   */\n    tag_395:\n        /* \"#utility.yul\":5523:5534   */\n      dup1\n        /* \"#utility.yul\":5515:5521   */\n      dup7\n        /* \"#utility.yul\":5511:5535   */\n      add\n        /* \"#utility.yul\":5561:5608   */\n      tag_397\n        /* \"#utility.yul\":5604:5607   */\n      dup10\n        /* \"#utility.yul\":5592:5602   */\n      dup3\n        /* \"#utility.yul\":5561:5608   */\n      tag_269\n      jump\t// in\n    tag_397:\n        /* \"#utility.yul\":5556:5559   */\n      dup6\n        /* \"#utility.yul\":5549:5609   */\n      mstore\n        /* \"#utility.yul\":5638:5642   */\n      0x20\n        /* \"#utility.yul\":5633:5636   */\n      dup6\n        /* \"#utility.yul\":5629:5643   */\n      add\n        /* \"#utility.yul\":5622:5643   */\n      swap5\n      pop\n        /* \"#utility.yul\":5294:5653   */\n      pop\n      pop\n        /* \"#utility.yul\":5278:5282   */\n      0x20\n        /* \"#utility.yul\":5273:5276   */\n      dup2\n        /* \"#utility.yul\":5269:5283   */\n      add\n        /* \"#utility.yul\":5262:5283   */\n      swap1\n      pop\n        /* \"#utility.yul\":5218:5653   */\n      jump(tag_392)\n    tag_394:\n        /* \"#utility.yul\":5222:5243   */\n      pop\n        /* \"#utility.yul\":4826:5659   */\n      pop\n      pop\n        /* \"#utility.yul\":4714:5659   */\n      swap4\n      swap3\n      pop\n      pop\n      pop\n      jump\t// out\n        /* \"#utility.yul\":5681:6071   */\n    tag_273:\n        /* \"#utility.yul\":5762:5767   */\n      0x00\n        /* \"#utility.yul\":5811:5814   */\n      dup3\n        /* \"#utility.yul\":5804:5808   */\n      0x1f\n        /* \"#utility.yul\":5796:5802   */\n      dup4\n        /* \"#utility.yul\":5792:5809   */\n      add\n        /* \"#utility.yul\":5788:5815   */\n      slt\n        /* \"#utility.yul\":5778:5900   */\n      tag_399\n      jumpi\n        /* \"#utility.yul\":5819:5898   */\n      tag_400\n      tag_261\n      jump\t// in\n    tag_400:\n        /* \"#utility.yul\":5778:5900   */\n    tag_399:\n        /* \"#utility.yul\":5936:5942   */\n      dup2\n        /* \"#utility.yul\":5923:5943   */\n      calldataload\n        /* \"#utility.yul\":5961:6065   */\n      tag_401\n        /* \"#utility.yul\":6061:6064   */\n      dup5\n        /* \"#utility.yul\":6053:6059   */\n      dup3\n        /* \"#utility.yul\":6046:6050   */\n      0x20\n        /* \"#utility.yul\":6038:6044   */\n      dup7\n        /* \"#utility.yul\":6034:6051   */\n      add\n        /* \"#utility.yul\":5961:6065   */\n      tag_272\n      jump\t// in\n    tag_401:\n        /* \"#utility.yul\":5952:6065   */\n      swap2\n      pop\n        /* \"#utility.yul\":5768:6071   */\n      pop\n        /* \"#utility.yul\":5681:6071   */\n      swap3\n      swap2\n      pop\n      pop\n      jump\t// out\n        /* \"#utility.yul\":6077:8050   */\n    tag_20:\n        /* \"#utility.yul\":6255:6261   */\n      0x00\n        /* \"#utility.yul\":6263:6269   */\n      dup1\n        /* \"#utility.yul\":6271:6277   */\n      0x00\n        /* \"#utility.yul\":6279:6285   */\n      dup1\n        /* \"#utility.yul\":6287:6293   */\n      0x00\n        /* \"#utility.yul\":6295:6301   */\n      dup1\n        /* \"#utility.yul\":6303:6309   */\n      0x00\n        /* \"#utility.yul\":6352:6355   */\n      0xe0\n        /* \"#utility.yul\":6340:6349   */\n      dup9\n        /* \"#utility.yul\":6331:6338   */\n      dup11\n        /* \"#utility.yul\":6327:6350   */\n      sub\n        /* \"#utility.yul\":6323:6356   */\n      slt\n        /* \"#utility.yul\":6320:6440   */\n      iszero\n      tag_403\n      jumpi\n        /* \"#utility.yul\":6359:6438   */\n      tag_404\n      tag_251\n      jump\t// in\n    tag_404:\n        /* \"#utility.yul\":6320:6440   */\n    tag_403:\n        /* \"#utility.yul\":6507:6508   */\n      0x00\n        /* \"#utility.yul\":6496:6505   */\n      dup9\n        /* \"#utility.yul\":6492:6509   */\n      add\n        /* \"#utility.yul\":6479:6510   */\n      calldataload\n        /* \"#utility.yul\":6537:6555   */\n      0xffffffffffffffff\n        /* \"#utility.yul\":6529:6535   */\n      dup2\n        /* \"#utility.yul\":6526:6556   */\n      gt\n        /* \"#utility.yul\":6523:6640   */\n      iszero\n      tag_405\n      jumpi\n        /* \"#utility.yul\":6559:6638   */\n      tag_406\n      tag_252\n      jump\t// in\n    tag_406:\n        /* \"#utility.yul\":6523:6640   */\n    tag_405:\n        /* \"#utility.yul\":6664:6727   */\n      tag_407\n        /* \"#utility.yul\":6719:6726   */\n      dup11\n        /* \"#utility.yul\":6710:6716   */\n      dup3\n        /* \"#utility.yul\":6699:6708   */\n      dup12\n        /* \"#utility.yul\":6695:6717   */\n      add\n        /* \"#utility.yul\":6664:6727   */\n      tag_269\n      jump\t// in\n    tag_407:\n        /* \"#utility.yul\":6654:6727   */\n      swap8\n      pop\n        /* \"#utility.yul\":6450:6737   */\n      pop\n        /* \"#utility.yul\":6804:6806   */\n      0x20\n        /* \"#utility.yul\":6793:6802   */\n      dup9\n        /* \"#utility.yul\":6789:6807   */\n      add\n        /* \"#utility.yul\":6776:6808   */\n      calldataload\n        /* \"#utility.yul\":6835:6853   */\n      0xffffffffffffffff\n        /* \"#utility.yul\":6827:6833   */\n      dup2\n        /* \"#utility.yul\":6824:6854   */\n      gt\n        /* \"#utility.yul\":6821:6938   */\n      iszero\n      tag_408\n      jumpi\n        /* \"#utility.yul\":6857:6936   */\n      tag_409\n      tag_252\n      jump\t// in\n    tag_409:\n        /* \"#utility.yul\":6821:6938   */\n    tag_408:\n        /* \"#utility.yul\":6962:7025   */\n      tag_410\n        /* \"#utility.yul\":7017:7024   */\n      dup11\n        /* \"#utility.yul\":7008:7014   */\n      dup3\n        /* \"#utility.yul\":6997:7006   */\n      dup12\n        /* \"#utility.yul\":6993:7015   */\n      add\n        /* \"#utility.yul\":6962:7025   */\n      tag_269\n      jump\t// in\n    tag_410:\n        /* \"#utility.yul\":6952:7025   */\n      swap7\n      pop\n        /* \"#utility.yul\":6747:7035   */\n      pop\n        /* \"#utility.yul\":7074:7076   */\n      0x40\n        /* \"#utility.yul\":7100:7153   */\n      tag_411\n        /* \"#utility.yul\":7145:7152   */\n      dup11\n        /* \"#utility.yul\":7136:7142   */\n      dup3\n        /* \"#utility.yul\":7125:7134   */\n      dup12\n        /* \"#utility.yul\":7121:7143   */\n      add\n        /* \"#utility.yul\":7100:7153   */\n      tag_259\n      jump\t// in\n    tag_411:\n        /* \"#utility.yul\":7090:7153   */\n      swap6\n      pop\n        /* \"#utility.yul\":7045:7163   */\n      pop\n        /* \"#utility.yul\":7230:7232   */\n      0x60\n        /* \"#utility.yul\":7219:7228   */\n      dup9\n        /* \"#utility.yul\":7215:7233   */\n      add\n        /* \"#utility.yul\":7202:7234   */\n      calldataload\n        /* \"#utility.yul\":7261:7279   */\n      0xffffffffffffffff\n        /* \"#utility.yul\":7253:7259   */\n      dup2\n        /* \"#utility.yul\":7250:7280   */\n      gt\n        /* \"#utility.yul\":7247:7364   */\n      iszero\n      tag_412\n      jumpi\n        /* \"#utility.yul\":7283:7362   */\n      tag_413\n      tag_252\n      jump\t// in\n    tag_413:\n        /* \"#utility.yul\":7247:7364   */\n    tag_412:\n        /* \"#utility.yul\":7388:7451   */\n      tag_414\n        /* \"#utility.yul\":7443:7450   */\n      dup11\n        /* \"#utility.yul\":7434:7440   */\n      dup3\n        /* \"#utility.yul\":7423:7432   */\n      dup12\n        /* \"#utility.yul\":7419:7441   */\n      add\n        /* \"#utility.yul\":7388:7451   */\n      tag_269\n      jump\t// in\n    tag_414:\n        /* \"#utility.yul\":7378:7451   */\n      swap5\n      pop\n        /* \"#utility.yul\":7173:7461   */\n      pop\n        /* \"#utility.yul\":7528:7531   */\n      0x80\n        /* \"#utility.yul\":7517:7526   */\n      dup9\n        /* \"#utility.yul\":7513:7532   */\n      add\n        /* \"#utility.yul\":7500:7533   */\n      calldataload\n        /* \"#utility.yul\":7560:7578   */\n      0xffffffffffffffff\n        /* \"#utility.yul\":7552:7558   */\n      dup2\n        /* \"#utility.yul\":7549:7579   */\n      gt\n        /* \"#utility.yul\":7546:7663   */\n      iszero\n      tag_415\n      jumpi\n        /* \"#utility.yul\":7582:7661   */\n      tag_416\n      tag_252\n      jump\t// in\n    tag_416:\n        /* \"#utility.yul\":7546:7663   */\n    tag_415:\n        /* \"#utility.yul\":7687:7775   */\n      tag_417\n        /* \"#utility.yul\":7767:7774   */\n      dup11\n        /* \"#utility.yul\":7758:7764   */\n      dup3\n        /* \"#utility.yul\":7747:7756   */\n      dup12\n        /* \"#utility.yul\":7743:7765   */\n      add\n        /* \"#utility.yul\":7687:7775   */\n      tag_273\n      jump\t// in\n    tag_417:\n        /* \"#utility.yul\":7677:7775   */\n      swap4\n      pop\n        /* \"#utility.yul\":7471:7785   */\n      pop\n        /* \"#utility.yul\":7824:7827   */\n      0xa0\n        /* \"#utility.yul\":7851:7904   */\n      tag_418\n        /* \"#utility.yul\":7896:7903   */\n      dup11\n        /* \"#utility.yul\":7887:7893   */\n      dup3\n        /* \"#utility.yul\":7876:7885   */\n      dup12\n        /* \"#utility.yul\":7872:7894   */\n      add\n        /* \"#utility.yul\":7851:7904   */\n      tag_259\n      jump\t// in\n    tag_418:\n        /* \"#utility.yul\":7841:7904   */\n      swap3\n      pop\n        /* \"#utility.yul\":7795:7914   */\n      pop\n        /* \"#utility.yul\":7953:7956   */\n      0xc0\n        /* \"#utility.yul\":7980:8033   */\n      tag_419\n        /* \"#utility.yul\":8025:8032   */\n      dup11\n        /* \"#utility.yul\":8016:8022   */\n      dup3\n        /* \"#utility.yul\":8005:8014   */\n      dup12\n        /* \"#utility.yul\":8001:8023   */\n      add\n        /* \"#utility.yul\":7980:8033   */\n      tag_259\n      jump\t// in\n    tag_419:\n        /* \"#utility.yul\":7970:8033   */\n      swap2\n      pop\n        /* \"#utility.yul\":7924:8043   */\n      pop\n        /* \"#utility.yul\":6077:8050   */\n      swap3\n      swap6\n      swap9\n      swap2\n      swap5\n      swap8\n      pop\n      swap3\n      swap6\n      pop\n      jump\t// out\n        /* \"#utility.yul\":8056:8385   */\n    tag_24:\n        /* \"#utility.yul\":8115:8121   */\n      0x00\n        /* \"#utility.yul\":8164:8166   */\n      0x20\n        /* \"#utility.yul\":8152:8161   */\n      dup3\n        /* \"#utility.yul\":8143:8150   */\n      dup5\n        /* \"#utility.yul\":8139:8162   */\n      sub\n        /* \"#utility.yul\":8135:8167   */\n      slt\n        /* \"#utility.yul\":8132:8251   */\n      iszero\n      tag_421\n      jumpi\n        /* \"#utility.yul\":8170:8249   */\n      tag_422\n      tag_251\n      jump\t// in\n    tag_422:\n        /* \"#utility.yul\":8132:8251   */\n    tag_421:\n        /* \"#utility.yul\":8290:8291   */\n      0x00\n        /* \"#utility.yul\":8315:8368   */\n      tag_423\n        /* \"#utility.yul\":8360:8367   */\n      dup5\n        /* \"#utility.yul\":8351:8357   */\n      dup3\n        /* \"#utility.yul\":8340:8349   */\n      dup6\n        /* \"#utility.yul\":8336:8358   */\n      add\n        /* \"#utility.yul\":8315:8368   */\n      tag_256\n      jump\t// in\n    tag_423:\n        /* \"#utility.yul\":8305:8368   */\n      swap2\n      pop\n        /* \"#utility.yul\":8261:8378   */\n      pop\n        /* \"#utility.yul\":8056:8385   */\n      swap3\n      swap2\n      pop\n      pop\n      jump\t// out\n        /* \"#utility.yul\":8391:8532   */\n    tag_274:\n        /* \"#utility.yul\":8485:8491   */\n      0x00\n        /* \"#utility.yul\":8519:8524   */\n      dup2\n        /* \"#utility.yul\":8513:8525   */\n      mload\n        /* \"#utility.yul\":8503:8525   */\n      swap1\n      pop\n        /* \"#utility.yul\":8391:8532   */\n      swap2\n      swap1\n      pop\n      jump\t// out\n        /* \"#utility.yul\":8538:8749   */\n    tag_275:\n        /* \"#utility.yul\":8664:8675   */\n      0x00\n        /* \"#utility.yul\":8698:8704   */\n      dup3\n        /* \"#utility.yul\":8693:8696   */\n      dup3\n        /* \"#utility.yul\":8686:8705   */\n      mstore\n        /* \"#utility.yul\":8738:8742   */\n      0x20\n        /* \"#utility.yul\":8733:8736   */\n      dup3\n        /* \"#utility.yul\":8729:8743   */\n      add\n        /* \"#utility.yul\":8714:8743   */\n      swap1\n      pop\n        /* \"#utility.yul\":8538:8749   */\n      swap3\n      swap2\n      pop\n      pop\n      jump\t// out\n        /* \"#utility.yul\":8755:8914   */\n    tag_276:\n        /* \"#utility.yul\":8849:8853   */\n      0x00\n        /* \"#utility.yul\":8872:8875   */\n      dup2\n        /* \"#utility.yul\":8864:8875   */\n      swap1\n      pop\n        /* \"#utility.yul\":8902:8906   */\n      0x20\n        /* \"#utility.yul\":8897:8900   */\n      dup3\n        /* \"#utility.yul\":8893:8907   */\n      add\n        /* \"#utility.yul\":8885:8907   */\n      swap1\n      pop\n        /* \"#utility.yul\":8755:8914   */\n      swap2\n      swap1\n      pop\n      jump\t// out\n        /* \"#utility.yul\":8920:9028   */\n    tag_277:\n        /* \"#utility.yul\":8997:9021   */\n      tag_428\n        /* \"#utility.yul\":9015:9020   */\n      dup2\n        /* \"#utility.yul\":8997:9021   */\n      tag_257\n      jump\t// in\n    tag_428:\n        /* \"#utility.yul\":8992:8995   */\n      dup3\n        /* \"#utility.yul\":8985:9022   */\n      mstore\n        /* \"#utility.yul\":8920:9028   */\n      pop\n      pop\n      jump\t// out\n        /* \"#utility.yul\":9034:9133   */\n    tag_278:\n        /* \"#utility.yul\":9086:9092   */\n      0x00\n        /* \"#utility.yul\":9120:9125   */\n      dup2\n        /* \"#utility.yul\":9114:9126   */\n      mload\n        /* \"#utility.yul\":9104:9126   */\n      swap1\n      pop\n        /* \"#utility.yul\":9034:9133   */\n      swap2\n      swap1\n      pop\n      jump\t// out\n        /* \"#utility.yul\":9139:9298   */\n    tag_279:\n        /* \"#utility.yul\":9213:9224   */\n      0x00\n        /* \"#utility.yul\":9247:9253   */\n      dup3\n        /* \"#utility.yul\":9242:9245   */\n      dup3\n        /* \"#utility.yul\":9235:9254   */\n      mstore\n        /* \"#utility.yul\":9287:9291   */\n      0x20\n        /* \"#utility.yul\":9282:9285   */\n      dup3\n        /* \"#utility.yul\":9278:9292   */\n      add\n        /* \"#utility.yul\":9263:9292   */\n      swap1\n      pop\n        /* \"#utility.yul\":9139:9298   */\n      swap3\n      swap2\n      pop\n      pop\n      jump\t// out\n        /* \"#utility.yul\":9304:9550   */\n    tag_280:\n        /* \"#utility.yul\":9385:9386   */\n      0x00\n        /* \"#utility.yul\":9395:9508   */\n    tag_432:\n        /* \"#utility.yul\":9409:9415   */\n      dup4\n        /* \"#utility.yul\":9406:9407   */\n      dup2\n        /* \"#utility.yul\":9403:9416   */\n      lt\n        /* \"#utility.yul\":9395:9508   */\n      iszero\n      tag_434\n      jumpi\n        /* \"#utility.yul\":9494:9495   */\n      dup1\n        /* \"#utility.yul\":9489:9492   */\n      dup3\n        /* \"#utility.yul\":9485:9496   */\n      add\n        /* \"#utility.yul\":9479:9497   */\n      mload\n        /* \"#utility.yul\":9475:9476   */\n      dup2\n        /* \"#utility.yul\":9470:9473   */\n      dup5\n        /* \"#utility.yul\":9466:9477   */\n      add\n        /* \"#utility.yul\":9459:9498   */\n      mstore\n        /* \"#utility.yul\":9431:9433   */\n      0x20\n        /* \"#utility.yul\":9428:9429   */\n      dup2\n        /* \"#utility.yul\":9424:9434   */\n      add\n        /* \"#utility.yul\":9419:9434   */\n      swap1\n      pop\n        /* \"#utility.yul\":9395:9508   */\n      jump(tag_432)\n    tag_434:\n        /* \"#utility.yul\":9542:9543   */\n      0x00\n        /* \"#utility.yul\":9533:9539   */\n      dup5\n        /* \"#utility.yul\":9528:9531   */\n      dup5\n        /* \"#utility.yul\":9524:9540   */\n      add\n        /* \"#utility.yul\":9517:9544   */\n      mstore\n        /* \"#utility.yul\":9366:9550   */\n      pop\n        /* \"#utility.yul\":9304:9550   */\n      pop\n      pop\n      pop\n      jump\t// out\n        /* \"#utility.yul\":9556:9913   */\n    tag_281:\n        /* \"#utility.yul\":9634:9637   */\n      0x00\n        /* \"#utility.yul\":9662:9701   */\n      tag_436\n        /* \"#utility.yul\":9695:9700   */\n      dup3\n        /* \"#utility.yul\":9662:9701   */\n      tag_278\n      jump\t// in\n    tag_436:\n        /* \"#utility.yul\":9717:9778   */\n      tag_437\n        /* \"#utility.yul\":9771:9777   */\n      dup2\n        /* \"#utility.yul\":9766:9769   */\n      dup6\n        /* \"#utility.yul\":9717:9778   */\n      tag_279\n      jump\t// in\n    tag_437:\n        /* \"#utility.yul\":9710:9778   */\n      swap4\n      pop\n        /* \"#utility.yul\":9787:9852   */\n      tag_438\n        /* \"#utility.yul\":9845:9851   */\n      dup2\n        /* \"#utility.yul\":9840:9843   */\n      dup6\n        /* \"#utility.yul\":9833:9837   */\n      0x20\n        /* \"#utility.yul\":9826:9831   */\n      dup7\n        /* \"#utility.yul\":9822:9838   */\n      add\n        /* \"#utility.yul\":9787:9852   */\n      tag_280\n      jump\t// in\n    tag_438:\n        /* \"#utility.yul\":9877:9906   */\n      tag_439\n        /* \"#utility.yul\":9899:9905   */\n      dup2\n        /* \"#utility.yul\":9877:9906   */\n      tag_263\n      jump\t// in\n    tag_439:\n        /* \"#utility.yul\":9872:9875   */\n      dup5\n        /* \"#utility.yul\":9868:9907   */\n      add\n        /* \"#utility.yul\":9861:9907   */\n      swap2\n      pop\n        /* \"#utility.yul\":9638:9913   */\n      pop\n        /* \"#utility.yul\":9556:9913   */\n      swap3\n      swap2\n      pop\n      pop\n      jump\t// out\n        /* \"#utility.yul\":9919:10027   */\n    tag_282:\n        /* \"#utility.yul\":9996:10020   */\n      tag_441\n        /* \"#utility.yul\":10014:10019   */\n      dup2\n        /* \"#utility.yul\":9996:10020   */\n      tag_254\n      jump\t// in\n    tag_441:\n        /* \"#utility.yul\":9991:9994   */\n      dup3\n        /* \"#utility.yul\":9984:10021   */\n      mstore\n        /* \"#utility.yul\":9919:10027   */\n      pop\n      pop\n      jump\t// out\n        /* \"#utility.yul\":10033:10157   */\n    tag_283:\n        /* \"#utility.yul\":10110:10116   */\n      0x00\n        /* \"#utility.yul\":10144:10149   */\n      dup2\n        /* \"#utility.yul\":10138:10150   */\n      mload\n        /* \"#utility.yul\":10128:10150   */\n      swap1\n      pop\n        /* \"#utility.yul\":10033:10157   */\n      swap2\n      swap1\n      pop\n      jump\t// out\n        /* \"#utility.yul\":10163:10347   */\n    tag_284:\n        /* \"#utility.yul\":10262:10273   */\n      0x00\n        /* \"#utility.yul\":10296:10302   */\n      dup3\n        /* \"#utility.yul\":10291:10294   */\n      dup3\n        /* \"#utility.yul\":10284:10303   */\n      mstore\n        /* \"#utility.yul\":10336:10340   */\n      0x20\n        /* \"#utility.yul\":10331:10334   */\n      dup3\n        /* \"#utility.yul\":10327:10341   */\n      add\n        /* \"#utility.yul\":10312:10341   */\n      swap1\n      pop\n        /* \"#utility.yul\":10163:10347   */\n      swap3\n      swap2\n      pop\n      pop\n      jump\t// out\n        /* \"#utility.yul\":10353:10495   */\n    tag_285:\n        /* \"#utility.yul\":10430:10434   */\n      0x00\n        /* \"#utility.yul\":10453:10456   */\n      dup2\n        /* \"#utility.yul\":10445:10456   */\n      swap1\n      pop\n        /* \"#utility.yul\":10483:10487   */\n      0x20\n        /* \"#utility.yul\":10478:10481   */\n      dup3\n        /* \"#utility.yul\":10474:10488   */\n      add\n        /* \"#utility.yul\":10466:10488   */\n      swap1\n      pop\n        /* \"#utility.yul\":10353:10495   */\n      swap2\n      swap1\n      pop\n      jump\t// out\n        /* \"#utility.yul\":10501:10697   */\n    tag_286:\n        /* \"#utility.yul\":10590:10600   */\n      0x00\n        /* \"#utility.yul\":10625:10691   */\n      tag_446\n        /* \"#utility.yul\":10687:10690   */\n      dup4\n        /* \"#utility.yul\":10679:10685   */\n      dup4\n        /* \"#utility.yul\":10625:10691   */\n      tag_281\n      jump\t// in\n    tag_446:\n        /* \"#utility.yul\":10611:10691   */\n      swap1\n      pop\n        /* \"#utility.yul\":10501:10697   */\n      swap3\n      swap2\n      pop\n      pop\n      jump\t// out\n        /* \"#utility.yul\":10703:10826   */\n    tag_287:\n        /* \"#utility.yul\":10783:10787   */\n      0x00\n        /* \"#utility.yul\":10815:10819   */\n      0x20\n        /* \"#utility.yul\":10810:10813   */\n      dup3\n        /* \"#utility.yul\":10806:10820   */\n      add\n        /* \"#utility.yul\":10798:10820   */\n      swap1\n      pop\n        /* \"#utility.yul\":10703:10826   */\n      swap2\n      swap1\n      pop\n      jump\t// out\n        /* \"#utility.yul\":10860:11831   */\n    tag_288:\n        /* \"#utility.yul\":10989:10992   */\n      0x00\n        /* \"#utility.yul\":11018:11082   */\n      tag_449\n        /* \"#utility.yul\":11076:11081   */\n      dup3\n        /* \"#utility.yul\":11018:11082   */\n      tag_283\n      jump\t// in\n    tag_449:\n        /* \"#utility.yul\":11098:11184   */\n      tag_450\n        /* \"#utility.yul\":11177:11183   */\n      dup2\n        /* \"#utility.yul\":11172:11175   */\n      dup6\n        /* \"#utility.yul\":11098:11184   */\n      tag_284\n      jump\t// in\n    tag_450:\n        /* \"#utility.yul\":11091:11184   */\n      swap4\n      pop\n        /* \"#utility.yul\":11210:11213   */\n      dup4\n        /* \"#utility.yul\":11255:11259   */\n      0x20\n        /* \"#utility.yul\":11247:11253   */\n      dup3\n        /* \"#utility.yul\":11243:11260   */\n      mul\n        /* \"#utility.yul\":11238:11241   */\n      dup6\n        /* \"#utility.yul\":11234:11261   */\n      add\n        /* \"#utility.yul\":11285:11351   */\n      tag_451\n        /* \"#utility.yul\":11345:11350   */\n      dup6\n        /* \"#utility.yul\":11285:11351   */\n      tag_285\n      jump\t// in\n    tag_451:\n        /* \"#utility.yul\":11374:11381   */\n      dup1\n        /* \"#utility.yul\":11405:11406   */\n      0x00\n        /* \"#utility.yul\":11390:11786   */\n    tag_452:\n        /* \"#utility.yul\":11415:11421   */\n      dup6\n        /* \"#utility.yul\":11412:11413   */\n      dup2\n        /* \"#utility.yul\":11409:11422   */\n      lt\n        /* \"#utility.yul\":11390:11786   */\n      iszero\n      tag_454\n      jumpi\n        /* \"#utility.yul\":11486:11495   */\n      dup5\n        /* \"#utility.yul\":11480:11484   */\n      dup5\n        /* \"#utility.yul\":11476:11496   */\n      sub\n        /* \"#utility.yul\":11471:11474   */\n      dup10\n        /* \"#utility.yul\":11464:11497   */\n      mstore\n        /* \"#utility.yul\":11537:11543   */\n      dup2\n        /* \"#utility.yul\":11531:11544   */\n      mload\n        /* \"#utility.yul\":11565:11649   */\n      tag_455\n        /* \"#utility.yul\":11644:11648   */\n      dup6\n        /* \"#utility.yul\":11629:11642   */\n      dup3\n        /* \"#utility.yul\":11565:11649   */\n      tag_286\n      jump\t// in\n    tag_455:\n        /* \"#utility.yul\":11557:11649   */\n      swap5\n      pop\n        /* \"#utility.yul\":11672:11742   */\n      tag_456\n        /* \"#utility.yul\":11735:11741   */\n      dup4\n        /* \"#utility.yul\":11672:11742   */\n      tag_287\n      jump\t// in\n    tag_456:\n        /* \"#utility.yul\":11662:11742   */\n      swap3\n      pop\n        /* \"#utility.yul\":11771:11775   */\n      0x20\n        /* \"#utility.yul\":11766:11769   */\n      dup11\n        /* \"#utility.yul\":11762:11776   */\n      add\n        /* \"#utility.yul\":11755:11776   */\n      swap10\n      pop\n        /* \"#utility.yul\":11450:11786   */\n      pop\n        /* \"#utility.yul\":11437:11438   */\n      0x01\n        /* \"#utility.yul\":11434:11435   */\n      dup2\n        /* \"#utility.yul\":11430:11439   */\n      add\n        /* \"#utility.yul\":11425:11439   */\n      swap1\n      pop\n        /* \"#utility.yul\":11390:11786   */\n      jump(tag_452)\n    tag_454:\n        /* \"#utility.yul\":11394:11408   */\n      pop\n        /* \"#utility.yul\":11802:11806   */\n      dup3\n        /* \"#utility.yul\":11795:11806   */\n      swap8\n      pop\n        /* \"#utility.yul\":11822:11825   */\n      dup8\n        /* \"#utility.yul\":11815:11825   */\n      swap6\n      pop\n        /* \"#utility.yul\":10994:11831   */\n      pop\n      pop\n      pop\n      pop\n      pop\n        /* \"#utility.yul\":10860:11831   */\n      swap3\n      swap2\n      pop\n      pop\n      jump\t// out\n        /* \"#utility.yul\":11909:14224   */\n    tag_289:\n        /* \"#utility.yul\":12022:12025   */\n      0x00\n        /* \"#utility.yul\":12058:12064   */\n      0x0140\n        /* \"#utility.yul\":12053:12056   */\n      dup4\n        /* \"#utility.yul\":12049:12065   */\n      add\n        /* \"#utility.yul\":12145:12149   */\n      0x00\n        /* \"#utility.yul\":12138:12143   */\n      dup4\n        /* \"#utility.yul\":12134:12150   */\n      add\n        /* \"#utility.yul\":12128:12151   */\n      mload\n        /* \"#utility.yul\":12164:12227   */\n      tag_458\n        /* \"#utility.yul\":12221:12225   */\n      0x00\n        /* \"#utility.yul\":12216:12219   */\n      dup7\n        /* \"#utility.yul\":12212:12226   */\n      add\n        /* \"#utility.yul\":12198:12210   */\n      dup3\n        /* \"#utility.yul\":12164:12227   */\n      tag_277\n      jump\t// in\n    tag_458:\n        /* \"#utility.yul\":12075:12237   */\n      pop\n        /* \"#utility.yul\":12320:12324   */\n      0x20\n        /* \"#utility.yul\":12313:12318   */\n      dup4\n        /* \"#utility.yul\":12309:12325   */\n      add\n        /* \"#utility.yul\":12303:12326   */\n      mload\n        /* \"#utility.yul\":12373:12376   */\n      dup5\n        /* \"#utility.yul\":12367:12371   */\n      dup3\n        /* \"#utility.yul\":12363:12377   */\n      sub\n        /* \"#utility.yul\":12356:12360   */\n      0x20\n        /* \"#utility.yul\":12351:12354   */\n      dup7\n        /* \"#utility.yul\":12347:12361   */\n      add\n        /* \"#utility.yul\":12340:12378   */\n      mstore\n        /* \"#utility.yul\":12399:12472   */\n      tag_459\n        /* \"#utility.yul\":12467:12471   */\n      dup3\n        /* \"#utility.yul\":12453:12465   */\n      dup3\n        /* \"#utility.yul\":12399:12472   */\n      tag_281\n      jump\t// in\n    tag_459:\n        /* \"#utility.yul\":12391:12472   */\n      swap2\n      pop\n        /* \"#utility.yul\":12247:12483   */\n      pop\n        /* \"#utility.yul\":12569:12573   */\n      0x40\n        /* \"#utility.yul\":12562:12567   */\n      dup4\n        /* \"#utility.yul\":12558:12574   */\n      add\n        /* \"#utility.yul\":12552:12575   */\n      mload\n        /* \"#utility.yul\":12622:12625   */\n      dup5\n        /* \"#utility.yul\":12616:12620   */\n      dup3\n        /* \"#utility.yul\":12612:12626   */\n      sub\n        /* \"#utility.yul\":12605:12609   */\n      0x40\n        /* \"#utility.yul\":12600:12603   */\n      dup7\n        /* \"#utility.yul\":12596:12610   */\n      add\n        /* \"#utility.yul\":12589:12627   */\n      mstore\n        /* \"#utility.yul\":12648:12721   */\n      tag_460\n        /* \"#utility.yul\":12716:12720   */\n      dup3\n        /* \"#utility.yul\":12702:12714   */\n      dup3\n        /* \"#utility.yul\":12648:12721   */\n      tag_281\n      jump\t// in\n    tag_460:\n        /* \"#utility.yul\":12640:12721   */\n      swap2\n      pop\n        /* \"#utility.yul\":12493:12732   */\n      pop\n        /* \"#utility.yul\":12822:12826   */\n      0x60\n        /* \"#utility.yul\":12815:12820   */\n      dup4\n        /* \"#utility.yul\":12811:12827   */\n      add\n        /* \"#utility.yul\":12805:12828   */\n      mload\n        /* \"#utility.yul\":12841:12904   */\n      tag_461\n        /* \"#utility.yul\":12898:12902   */\n      0x60\n        /* \"#utility.yul\":12893:12896   */\n      dup7\n        /* \"#utility.yul\":12889:12903   */\n      add\n        /* \"#utility.yul\":12875:12887   */\n      dup3\n        /* \"#utility.yul\":12841:12904   */\n      tag_277\n      jump\t// in\n    tag_461:\n        /* \"#utility.yul\":12742:12914   */\n      pop\n        /* \"#utility.yul\":12997:13001   */\n      0x80\n        /* \"#utility.yul\":12990:12995   */\n      dup4\n        /* \"#utility.yul\":12986:13002   */\n      add\n        /* \"#utility.yul\":12980:13003   */\n      mload\n        /* \"#utility.yul\":13016:13079   */\n      tag_462\n        /* \"#utility.yul\":13073:13077   */\n      0x80\n        /* \"#utility.yul\":13068:13071   */\n      dup7\n        /* \"#utility.yul\":13064:13078   */\n      add\n        /* \"#utility.yul\":13050:13062   */\n      dup3\n        /* \"#utility.yul\":13016:13079   */\n      tag_282\n      jump\t// in\n    tag_462:\n        /* \"#utility.yul\":12924:13089   */\n      pop\n        /* \"#utility.yul\":13178:13182   */\n      0xa0\n        /* \"#utility.yul\":13171:13176   */\n      dup4\n        /* \"#utility.yul\":13167:13183   */\n      add\n        /* \"#utility.yul\":13161:13184   */\n      mload\n        /* \"#utility.yul\":13231:13234   */\n      dup5\n        /* \"#utility.yul\":13225:13229   */\n      dup3\n        /* \"#utility.yul\":13221:13235   */\n      sub\n        /* \"#utility.yul\":13214:13218   */\n      0xa0\n        /* \"#utility.yul\":13209:13212   */\n      dup7\n        /* \"#utility.yul\":13205:13219   */\n      add\n        /* \"#utility.yul\":13198:13236   */\n      mstore\n        /* \"#utility.yul\":13257:13330   */\n      tag_463\n        /* \"#utility.yul\":13325:13329   */\n      dup3\n        /* \"#utility.yul\":13311:13323   */\n      dup3\n        /* \"#utility.yul\":13257:13330   */\n      tag_281\n      jump\t// in\n    tag_463:\n        /* \"#utility.yul\":13249:13330   */\n      swap2\n      pop\n        /* \"#utility.yul\":13099:13341   */\n      pop\n        /* \"#utility.yul\":13423:13427   */\n      0xc0\n        /* \"#utility.yul\":13416:13421   */\n      dup4\n        /* \"#utility.yul\":13412:13428   */\n      add\n        /* \"#utility.yul\":13406:13429   */\n      mload\n        /* \"#utility.yul\":13476:13479   */\n      dup5\n        /* \"#utility.yul\":13470:13474   */\n      dup3\n        /* \"#utility.yul\":13466:13480   */\n      sub\n        /* \"#utility.yul\":13459:13463   */\n      0xc0\n        /* \"#utility.yul\":13454:13457   */\n      dup7\n        /* \"#utility.yul\":13450:13464   */\n      add\n        /* \"#utility.yul\":13443:13481   */\n      mstore\n        /* \"#utility.yul\":13502:13625   */\n      tag_464\n        /* \"#utility.yul\":13620:13624   */\n      dup3\n        /* \"#utility.yul\":13606:13618   */\n      dup3\n        /* \"#utility.yul\":13502:13625   */\n      tag_288\n      jump\t// in\n    tag_464:\n        /* \"#utility.yul\":13494:13625   */\n      swap2\n      pop\n        /* \"#utility.yul\":13351:13636   */\n      pop\n        /* \"#utility.yul\":13731:13735   */\n      0xe0\n        /* \"#utility.yul\":13724:13729   */\n      dup4\n        /* \"#utility.yul\":13720:13736   */\n      add\n        /* \"#utility.yul\":13714:13737   */\n      mload\n        /* \"#utility.yul\":13750:13813   */\n      tag_465\n        /* \"#utility.yul\":13807:13811   */\n      0xe0\n        /* \"#utility.yul\":13802:13805   */\n      dup7\n        /* \"#utility.yul\":13798:13812   */\n      add\n        /* \"#utility.yul\":13784:13796   */\n      dup3\n        /* \"#utility.yul\":13750:13813   */\n      tag_277\n      jump\t// in\n    tag_465:\n        /* \"#utility.yul\":13646:13823   */\n      pop\n        /* \"#utility.yul\":13915:13921   */\n      0x0100\n        /* \"#utility.yul\":13908:13913   */\n      dup4\n        /* \"#utility.yul\":13904:13922   */\n      add\n        /* \"#utility.yul\":13898:13923   */\n      mload\n        /* \"#utility.yul\":13936:14001   */\n      tag_466\n        /* \"#utility.yul\":13993:13999   */\n      0x0100\n        /* \"#utility.yul\":13988:13991   */\n      dup7\n        /* \"#utility.yul\":13984:14000   */\n      add\n        /* \"#utility.yul\":13970:13982   */\n      dup3\n        /* \"#utility.yul\":13936:14001   */\n      tag_277\n      jump\t// in\n    tag_466:\n        /* \"#utility.yul\":13833:14011   */\n      pop\n        /* \"#utility.yul\":14101:14107   */\n      0x0120\n        /* \"#utility.yul\":14094:14099   */\n      dup4\n        /* \"#utility.yul\":14090:14108   */\n      add\n        /* \"#utility.yul\":14084:14109   */\n      mload\n        /* \"#utility.yul\":14122:14187   */\n      tag_467\n        /* \"#utility.yul\":14179:14185   */\n      0x0120\n        /* \"#utility.yul\":14174:14177   */\n      dup7\n        /* \"#utility.yul\":14170:14186   */\n      add\n        /* \"#utility.yul\":14156:14168   */\n      dup3\n        /* \"#utility.yul\":14122:14187   */\n      tag_277\n      jump\t// in\n    tag_467:\n        /* \"#utility.yul\":14021:14197   */\n      pop\n        /* \"#utility.yul\":14214:14218   */\n      dup1\n        /* \"#utility.yul\":14207:14218   */\n      swap2\n      pop\n        /* \"#utility.yul\":12027:14224   */\n      pop\n        /* \"#utility.yul\":11909:14224   */\n      swap3\n      swap2\n      pop\n      pop\n      jump\t// out\n        /* \"#utility.yul\":14230:14494   */\n    tag_290:\n        /* \"#utility.yul\":14353:14363   */\n      0x00\n        /* \"#utility.yul\":14388:14488   */\n      tag_469\n        /* \"#utility.yul\":14484:14487   */\n      dup4\n        /* \"#utility.yul\":14476:14482   */\n      dup4\n        /* \"#utility.yul\":14388:14488   */\n      tag_289\n      jump\t// in\n    tag_469:\n        /* \"#utility.yul\":14374:14488   */\n      swap1\n      pop\n        /* \"#utility.yul\":14230:14494   */\n      swap3\n      swap2\n      pop\n      pop\n      jump\t// out\n        /* \"#utility.yul\":14500:14640   */\n    tag_291:\n        /* \"#utility.yul\":14597:14601   */\n      0x00\n        /* \"#utility.yul\":14629:14633   */\n      0x20\n        /* \"#utility.yul\":14624:14627   */\n      dup3\n        /* \"#utility.yul\":14620:14634   */\n      add\n        /* \"#utility.yul\":14612:14634   */\n      swap1\n      pop\n        /* \"#utility.yul\":14500:14640   */\n      swap2\n      swap1\n      pop\n      jump\t// out\n        /* \"#utility.yul\":14722:15849   */\n    tag_292:\n        /* \"#utility.yul\":14895:14898   */\n      0x00\n        /* \"#utility.yul\":14924:15005   */\n      tag_472\n        /* \"#utility.yul\":14999:15004   */\n      dup3\n        /* \"#utility.yul\":14924:15005   */\n      tag_274\n      jump\t// in\n    tag_472:\n        /* \"#utility.yul\":15021:15134   */\n      tag_473\n        /* \"#utility.yul\":15127:15133   */\n      dup2\n        /* \"#utility.yul\":15122:15125   */\n      dup6\n        /* \"#utility.yul\":15021:15134   */\n      tag_275\n      jump\t// in\n    tag_473:\n        /* \"#utility.yul\":15014:15134   */\n      swap4\n      pop\n        /* \"#utility.yul\":15160:15163   */\n      dup4\n        /* \"#utility.yul\":15205:15209   */\n      0x20\n        /* \"#utility.yul\":15197:15203   */\n      dup3\n        /* \"#utility.yul\":15193:15210   */\n      mul\n        /* \"#utility.yul\":15188:15191   */\n      dup6\n        /* \"#utility.yul\":15184:15211   */\n      add\n        /* \"#utility.yul\":15235:15318   */\n      tag_474\n        /* \"#utility.yul\":15312:15317   */\n      dup6\n        /* \"#utility.yul\":15235:15318   */\n      tag_276\n      jump\t// in\n    tag_474:\n        /* \"#utility.yul\":15341:15348   */\n      dup1\n        /* \"#utility.yul\":15372:15373   */\n      0x00\n        /* \"#utility.yul\":15357:15804   */\n    tag_475:\n        /* \"#utility.yul\":15382:15388   */\n      dup6\n        /* \"#utility.yul\":15379:15380   */\n      dup2\n        /* \"#utility.yul\":15376:15389   */\n      lt\n        /* \"#utility.yul\":15357:15804   */\n      iszero\n      tag_477\n      jumpi\n        /* \"#utility.yul\":15453:15462   */\n      dup5\n        /* \"#utility.yul\":15447:15451   */\n      dup5\n        /* \"#utility.yul\":15443:15463   */\n      sub\n        /* \"#utility.yul\":15438:15441   */\n      dup10\n        /* \"#utility.yul\":15431:15464   */\n      mstore\n        /* \"#utility.yul\":15504:15510   */\n      dup2\n        /* \"#utility.yul\":15498:15511   */\n      mload\n        /* \"#utility.yul\":15532:15650   */\n      tag_478\n        /* \"#utility.yul\":15645:15649   */\n      dup6\n        /* \"#utility.yul\":15630:15643   */\n      dup3\n        /* \"#utility.yul\":15532:15650   */\n      tag_290\n      jump\t// in\n    tag_478:\n        /* \"#utility.yul\":15524:15650   */\n      swap5\n      pop\n        /* \"#utility.yul\":15673:15760   */\n      tag_479\n        /* \"#utility.yul\":15753:15759   */\n      dup4\n        /* \"#utility.yul\":15673:15760   */\n      tag_291\n      jump\t// in\n    tag_479:\n        /* \"#utility.yul\":15663:15760   */\n      swap3\n      pop\n        /* \"#utility.yul\":15789:15793   */\n      0x20\n        /* \"#utility.yul\":15784:15787   */\n      dup11\n        /* \"#utility.yul\":15780:15794   */\n      add\n        /* \"#utility.yul\":15773:15794   */\n      swap10\n      pop\n        /* \"#utility.yul\":15417:15804   */\n      pop\n        /* \"#utility.yul\":15404:15405   */\n      0x01\n        /* \"#utility.yul\":15401:15402   */\n      dup2\n        /* \"#utility.yul\":15397:15406   */\n      add\n        /* \"#utility.yul\":15392:15406   */\n      swap1\n      pop\n        /* \"#utility.yul\":15357:15804   */\n      jump(tag_475)\n    tag_477:\n        /* \"#utility.yul\":15361:15375   */\n      pop\n        /* \"#utility.yul\":15820:15824   */\n      dup3\n        /* \"#utility.yul\":15813:15824   */\n      swap8\n      pop\n        /* \"#utility.yul\":15840:15843   */\n      dup8\n        /* \"#utility.yul\":15833:15843   */\n      swap6\n      pop\n        /* \"#utility.yul\":14900:15849   */\n      pop\n      pop\n      pop\n      pop\n      pop\n        /* \"#utility.yul\":14722:15849   */\n      swap3\n      swap2\n      pop\n      pop\n      jump\t// out\n        /* \"#utility.yul\":15855:16336   */\n    tag_27:\n        /* \"#utility.yul\":16052:16056   */\n      0x00\n        /* \"#utility.yul\":16090:16092   */\n      0x20\n        /* \"#utility.yul\":16079:16088   */\n      dup3\n        /* \"#utility.yul\":16075:16093   */\n      add\n        /* \"#utility.yul\":16067:16093   */\n      swap1\n      pop\n        /* \"#utility.yul\":16139:16148   */\n      dup2\n        /* \"#utility.yul\":16133:16137   */\n      dup2\n        /* \"#utility.yul\":16129:16149   */\n      sub\n        /* \"#utility.yul\":16125:16126   */\n      0x00\n        /* \"#utility.yul\":16114:16123   */\n      dup4\n        /* \"#utility.yul\":16110:16127   */\n      add\n        /* \"#utility.yul\":16103:16150   */\n      mstore\n        /* \"#utility.yul\":16167:16329   */\n      tag_481\n        /* \"#utility.yul\":16324:16328   */\n      dup2\n        /* \"#utility.yul\":16315:16321   */\n      dup5\n        /* \"#utility.yul\":16167:16329   */\n      tag_292\n      jump\t// in\n    tag_481:\n        /* \"#utility.yul\":16159:16329   */\n      swap1\n      pop\n        /* \"#utility.yul\":15855:16336   */\n      swap3\n      swap2\n      pop\n      pop\n      jump\t// out\n        /* \"#utility.yul\":16342:16851   */\n    tag_33:\n        /* \"#utility.yul\":16411:16417   */\n      0x00\n        /* \"#utility.yul\":16460:16462   */\n      0x20\n        /* \"#utility.yul\":16448:16457   */\n      dup3\n        /* \"#utility.yul\":16439:16446   */\n      dup5\n        /* \"#utility.yul\":16435:16458   */\n      sub\n        /* \"#utility.yul\":16431:16463   */\n      slt\n        /* \"#utility.yul\":16428:16547   */\n      iszero\n      tag_483\n      jumpi\n        /* \"#utility.yul\":16466:16545   */\n      tag_484\n      tag_251\n      jump\t// in\n    tag_484:\n        /* \"#utility.yul\":16428:16547   */\n    tag_483:\n        /* \"#utility.yul\":16614:16615   */\n      0x00\n        /* \"#utility.yul\":16603:16612   */\n      dup3\n        /* \"#utility.yul\":16599:16616   */\n      add\n        /* \"#utility.yul\":16586:16617   */\n      calldataload\n        /* \"#utility.yul\":16644:16662   */\n      0xffffffffffffffff\n        /* \"#utility.yul\":16636:16642   */\n      dup2\n        /* \"#utility.yul\":16633:16663   */\n      gt\n        /* \"#utility.yul\":16630:16747   */\n      iszero\n      tag_485\n      jumpi\n        /* \"#utility.yul\":16666:16745   */\n      tag_486\n      tag_252\n      jump\t// in\n    tag_486:\n        /* \"#utility.yul\":16630:16747   */\n    tag_485:\n        /* \"#utility.yul\":16771:16834   */\n      tag_487\n        /* \"#utility.yul\":16826:16833   */\n      dup5\n        /* \"#utility.yul\":16817:16823   */\n      dup3\n        /* \"#utility.yul\":16806:16815   */\n      dup6\n        /* \"#utility.yul\":16802:16824   */\n      add\n        /* \"#utility.yul\":16771:16834   */\n      tag_269\n      jump\t// in\n    tag_487:\n        /* \"#utility.yul\":16761:16834   */\n      swap2\n      pop\n        /* \"#utility.yul\":16557:16844   */\n      pop\n        /* \"#utility.yul\":16342:16851   */\n      swap3\n      swap2\n      pop\n      pop\n      jump\t// out\n        /* \"#utility.yul\":16857:17186   */\n    tag_38:\n        /* \"#utility.yul\":16916:16922   */\n      0x00\n        /* \"#utility.yul\":16965:16967   */\n      0x20\n        /* \"#utility.yul\":16953:16962   */\n      dup3\n        /* \"#utility.yul\":16944:16951   */\n      dup5\n        /* \"#utility.yul\":16940:16963   */\n      sub\n        /* \"#utility.yul\":16936:16968   */\n      slt\n        /* \"#utility.yul\":16933:17052   */\n      iszero\n      tag_489\n      jumpi\n        /* \"#utility.yul\":16971:17050   */\n      tag_490\n      tag_251\n      jump\t// in\n    tag_490:\n        /* \"#utility.yul\":16933:17052   */\n    tag_489:\n        /* \"#utility.yul\":17091:17092   */\n      0x00\n        /* \"#utility.yul\":17116:17169   */\n      tag_491\n        /* \"#utility.yul\":17161:17168   */\n      dup5\n        /* \"#utility.yul\":17152:17158   */\n      dup3\n        /* \"#utility.yul\":17141:17150   */\n      dup6\n        /* \"#utility.yul\":17137:17159   */\n      add\n        /* \"#utility.yul\":17116:17169   */\n      tag_259\n      jump\t// in\n    tag_491:\n        /* \"#utility.yul\":17106:17169   */\n      swap2\n      pop\n        /* \"#utility.yul\":17062:17179   */\n      pop\n        /* \"#utility.yul\":16857:17186   */\n      swap3\n      swap2\n      pop\n      pop\n      jump\t// out\n        /* \"#utility.yul\":17192:17361   */\n    tag_293:\n        /* \"#utility.yul\":17276:17287   */\n      0x00\n        /* \"#utility.yul\":17310:17316   */\n      dup3\n        /* \"#utility.yul\":17305:17308   */\n      dup3\n        /* \"#utility.yul\":17298:17317   */\n      mstore\n        /* \"#utility.yul\":17350:17354   */\n      0x20\n        /* \"#utility.yul\":17345:17348   */\n      dup3\n        /* \"#utility.yul\":17341:17355   */\n      add\n        /* \"#utility.yul\":17326:17355   */\n      swap1\n      pop\n        /* \"#utility.yul\":17192:17361   */\n      swap3\n      swap2\n      pop\n      pop\n      jump\t// out\n        /* \"#utility.yul\":17367:17744   */\n    tag_294:\n        /* \"#utility.yul\":17455:17458   */\n      0x00\n        /* \"#utility.yul\":17483:17522   */\n      tag_494\n        /* \"#utility.yul\":17516:17521   */\n      dup3\n        /* \"#utility.yul\":17483:17522   */\n      tag_278\n      jump\t// in\n    tag_494:\n        /* \"#utility.yul\":17538:17609   */\n      tag_495\n        /* \"#utility.yul\":17602:17608   */\n      dup2\n        /* \"#utility.yul\":17597:17600   */\n      dup6\n        /* \"#utility.yul\":17538:17609   */\n      tag_293\n      jump\t// in\n    tag_495:\n        /* \"#utility.yul\":17531:17609   */\n      swap4\n      pop\n        /* \"#utility.yul\":17618:17683   */\n      tag_496\n        /* \"#utility.yul\":17676:17682   */\n      dup2\n        /* \"#utility.yul\":17671:17674   */\n      dup6\n        /* \"#utility.yul\":17664:17668   */\n      0x20\n        /* \"#utility.yul\":17657:17662   */\n      dup7\n        /* \"#utility.yul\":17653:17669   */\n      add\n        /* \"#utility.yul\":17618:17683   */\n      tag_280\n      jump\t// in\n    tag_496:\n        /* \"#utility.yul\":17708:17737   */\n      tag_497\n        /* \"#utility.yul\":17730:17736   */\n      dup2\n        /* \"#utility.yul\":17708:17737   */\n      tag_263\n      jump\t// in\n    tag_497:\n        /* \"#utility.yul\":17703:17706   */\n      dup5\n        /* \"#utility.yul\":17699:17738   */\n      add\n        /* \"#utility.yul\":17692:17738   */\n      swap2\n      pop\n        /* \"#utility.yul\":17459:17744   */\n      pop\n        /* \"#utility.yul\":17367:17744   */\n      swap3\n      swap2\n      pop\n      pop\n      jump\t// out\n        /* \"#utility.yul\":17750:17868   */\n    tag_295:\n        /* \"#utility.yul\":17837:17861   */\n      tag_499\n        /* \"#utility.yul\":17855:17860   */\n      dup2\n        /* \"#utility.yul\":17837:17861   */\n      tag_254\n      jump\t// in\n    tag_499:\n        /* \"#utility.yul\":17832:17835   */\n      dup3\n        /* \"#utility.yul\":17825:17862   */\n      mstore\n        /* \"#utility.yul\":17750:17868   */\n      pop\n      pop\n      jump\t// out\n        /* \"#utility.yul\":17874:19255   */\n    tag_41:\n        /* \"#utility.yul\":18251:18255   */\n      0x00\n        /* \"#utility.yul\":18289:18292   */\n      0x0120\n        /* \"#utility.yul\":18278:18287   */\n      dup3\n        /* \"#utility.yul\":18274:18293   */\n      add\n        /* \"#utility.yul\":18266:18293   */\n      swap1\n      pop\n        /* \"#utility.yul\":18303:18374   */\n      tag_501\n        /* \"#utility.yul\":18371:18372   */\n      0x00\n        /* \"#utility.yul\":18360:18369   */\n      dup4\n        /* \"#utility.yul\":18356:18373   */\n      add\n        /* \"#utility.yul\":18347:18353   */\n      dup13\n        /* \"#utility.yul\":18303:18374   */\n      tag_260\n      jump\t// in\n    tag_501:\n        /* \"#utility.yul\":18421:18430   */\n      dup2\n        /* \"#utility.yul\":18415:18419   */\n      dup2\n        /* \"#utility.yul\":18411:18431   */\n      sub\n        /* \"#utility.yul\":18406:18408   */\n      0x20\n        /* \"#utility.yul\":18395:18404   */\n      dup4\n        /* \"#utility.yul\":18391:18409   */\n      add\n        /* \"#utility.yul\":18384:18432   */\n      mstore\n        /* \"#utility.yul\":18449:18527   */\n      tag_502\n        /* \"#utility.yul\":18522:18526   */\n      dup2\n        /* \"#utility.yul\":18513:18519   */\n      dup12\n        /* \"#utility.yul\":18449:18527   */\n      tag_294\n      jump\t// in\n    tag_502:\n        /* \"#utility.yul\":18441:18527   */\n      swap1\n      pop\n        /* \"#utility.yul\":18574:18583   */\n      dup2\n        /* \"#utility.yul\":18568:18572   */\n      dup2\n        /* \"#utility.yul\":18564:18584   */\n      sub\n        /* \"#utility.yul\":18559:18561   */\n      0x40\n        /* \"#utility.yul\":18548:18557   */\n      dup4\n        /* \"#utility.yul\":18544:18562   */\n      add\n        /* \"#utility.yul\":18537:18585   */\n      mstore\n        /* \"#utility.yul\":18602:18680   */\n      tag_503\n        /* \"#utility.yul\":18675:18679   */\n      dup2\n        /* \"#utility.yul\":18666:18672   */\n      dup11\n        /* \"#utility.yul\":18602:18680   */\n      tag_294\n      jump\t// in\n    tag_503:\n        /* \"#utility.yul\":18594:18680   */\n      swap1\n      pop\n        /* \"#utility.yul\":18690:18762   */\n      tag_504\n        /* \"#utility.yul\":18758:18760   */\n      0x60\n        /* \"#utility.yul\":18747:18756   */\n      dup4\n        /* \"#utility.yul\":18743:18761   */\n      add\n        /* \"#utility.yul\":18734:18740   */\n      dup10\n        /* \"#utility.yul\":18690:18762   */\n      tag_260\n      jump\t// in\n    tag_504:\n        /* \"#utility.yul\":18772:18845   */\n      tag_505\n        /* \"#utility.yul\":18840:18843   */\n      0x80\n        /* \"#utility.yul\":18829:18838   */\n      dup4\n        /* \"#utility.yul\":18825:18844   */\n      add\n        /* \"#utility.yul\":18816:18822   */\n      dup9\n        /* \"#utility.yul\":18772:18845   */\n      tag_295\n      jump\t// in\n    tag_505:\n        /* \"#utility.yul\":18893:18902   */\n      dup2\n        /* \"#utility.yul\":18887:18891   */\n      dup2\n        /* \"#utility.yul\":18883:18903   */\n      sub\n        /* \"#utility.yul\":18877:18880   */\n      0xa0\n        /* \"#utility.yul\":18866:18875   */\n      dup4\n        /* \"#utility.yul\":18862:18881   */\n      add\n        /* \"#utility.yul\":18855:18904   */\n      mstore\n        /* \"#utility.yul\":18921:18999   */\n      tag_506\n        /* \"#utility.yul\":18994:18998   */\n      dup2\n        /* \"#utility.yul\":18985:18991   */\n      dup8\n        /* \"#utility.yul\":18921:18999   */\n      tag_294\n      jump\t// in\n    tag_506:\n        /* \"#utility.yul\":18913:18999   */\n      swap1\n      pop\n        /* \"#utility.yul\":19009:19082   */\n      tag_507\n        /* \"#utility.yul\":19077:19080   */\n      0xc0\n        /* \"#utility.yul\":19066:19075   */\n      dup4\n        /* \"#utility.yul\":19062:19081   */\n      add\n        /* \"#utility.yul\":19053:19059   */\n      dup7\n        /* \"#utility.yul\":19009:19082   */\n      tag_260\n      jump\t// in\n    tag_507:\n        /* \"#utility.yul\":19092:19165   */\n      tag_508\n        /* \"#utility.yul\":19160:19163   */\n      0xe0\n        /* \"#utility.yul\":19149:19158   */\n      dup4\n        /* \"#utility.yul\":19145:19164   */\n      add\n        /* \"#utility.yul\":19136:19142   */\n      dup6\n        /* \"#utility.yul\":19092:19165   */\n      tag_260\n      jump\t// in\n    tag_508:\n        /* \"#utility.yul\":19175:19248   */\n      tag_509\n        /* \"#utility.yul\":19243:19246   */\n      0x0100\n        /* \"#utility.yul\":19232:19241   */\n      dup4\n        /* \"#utility.yul\":19228:19247   */\n      add\n        /* \"#utility.yul\":19219:19225   */\n      dup5\n        /* \"#utility.yul\":19175:19248   */\n      tag_260\n      jump\t// in\n    tag_509:\n        /* \"#utility.yul\":17874:19255   */\n      swap11\n      swap10\n      pop\n      pop\n      pop\n      pop\n      pop\n      pop\n      pop\n      pop\n      pop\n      pop\n      jump\t// out\n        /* \"#utility.yul\":19333:21658   */\n    tag_296:\n        /* \"#utility.yul\":19456:19459   */\n      0x00\n        /* \"#utility.yul\":19492:19498   */\n      0x0140\n        /* \"#utility.yul\":19487:19490   */\n      dup4\n        /* \"#utility.yul\":19483:19499   */\n      add\n        /* \"#utility.yul\":19579:19583   */\n      0x00\n        /* \"#utility.yul\":19572:19577   */\n      dup4\n        /* \"#utility.yul\":19568:19584   */\n      add\n        /* \"#utility.yul\":19562:19585   */\n      mload\n        /* \"#utility.yul\":19598:19661   */\n      tag_511\n        /* \"#utility.yul\":19655:19659   */\n      0x00\n        /* \"#utility.yul\":19650:19653   */\n      dup7\n        /* \"#utility.yul\":19646:19660   */\n      add\n        /* \"#utility.yul\":19632:19644   */\n      dup3\n        /* \"#utility.yul\":19598:19661   */\n      tag_277\n      jump\t// in\n    tag_511:\n        /* \"#utility.yul\":19509:19671   */\n      pop\n        /* \"#utility.yul\":19754:19758   */\n      0x20\n        /* \"#utility.yul\":19747:19752   */\n      dup4\n        /* \"#utility.yul\":19743:19759   */\n      add\n        /* \"#utility.yul\":19737:19760   */\n      mload\n        /* \"#utility.yul\":19807:19810   */\n      dup5\n        /* \"#utility.yul\":19801:19805   */\n      dup3\n        /* \"#utility.yul\":19797:19811   */\n      sub\n        /* \"#utility.yul\":19790:19794   */\n      0x20\n        /* \"#utility.yul\":19785:19788   */\n      dup7\n        /* \"#utility.yul\":19781:19795   */\n      add\n        /* \"#utility.yul\":19774:19812   */\n      mstore\n        /* \"#utility.yul\":19833:19906   */\n      tag_512\n        /* \"#utility.yul\":19901:19905   */\n      dup3\n        /* \"#utility.yul\":19887:19899   */\n      dup3\n        /* \"#utility.yul\":19833:19906   */\n      tag_281\n      jump\t// in\n    tag_512:\n        /* \"#utility.yul\":19825:19906   */\n      swap2\n      pop\n        /* \"#utility.yul\":19681:19917   */\n      pop\n        /* \"#utility.yul\":20003:20007   */\n      0x40\n        /* \"#utility.yul\":19996:20001   */\n      dup4\n        /* \"#utility.yul\":19992:20008   */\n      add\n        /* \"#utility.yul\":19986:20009   */\n      mload\n        /* \"#utility.yul\":20056:20059   */\n      dup5\n        /* \"#utility.yul\":20050:20054   */\n      dup3\n        /* \"#utility.yul\":20046:20060   */\n      sub\n        /* \"#utility.yul\":20039:20043   */\n      0x40\n        /* \"#utility.yul\":20034:20037   */\n      dup7\n        /* \"#utility.yul\":20030:20044   */\n      add\n        /* \"#utility.yul\":20023:20061   */\n      mstore\n        /* \"#utility.yul\":20082:20155   */\n      tag_513\n        /* \"#utility.yul\":20150:20154   */\n      dup3\n        /* \"#utility.yul\":20136:20148   */\n      dup3\n        /* \"#utility.yul\":20082:20155   */\n      tag_281\n      jump\t// in\n    tag_513:\n        /* \"#utility.yul\":20074:20155   */\n      swap2\n      pop\n        /* \"#utility.yul\":19927:20166   */\n      pop\n        /* \"#utility.yul\":20256:20260   */\n      0x60\n        /* \"#utility.yul\":20249:20254   */\n      dup4\n        /* \"#utility.yul\":20245:20261   */\n      add\n        /* \"#utility.yul\":20239:20262   */\n      mload\n        /* \"#utility.yul\":20275:20338   */\n      tag_514\n        /* \"#utility.yul\":20332:20336   */\n      0x60\n        /* \"#utility.yul\":20327:20330   */\n      dup7\n        /* \"#utility.yul\":20323:20337   */\n      add\n        /* \"#utility.yul\":20309:20321   */\n      dup3\n        /* \"#utility.yul\":20275:20338   */\n      tag_277\n      jump\t// in\n    tag_514:\n        /* \"#utility.yul\":20176:20348   */\n      pop\n        /* \"#utility.yul\":20431:20435   */\n      0x80\n        /* \"#utility.yul\":20424:20429   */\n      dup4\n        /* \"#utility.yul\":20420:20436   */\n      add\n        /* \"#utility.yul\":20414:20437   */\n      mload\n        /* \"#utility.yul\":20450:20513   */\n      tag_515\n        /* \"#utility.yul\":20507:20511   */\n      0x80\n        /* \"#utility.yul\":20502:20505   */\n      dup7\n        /* \"#utility.yul\":20498:20512   */\n      add\n        /* \"#utility.yul\":20484:20496   */\n      dup3\n        /* \"#utility.yul\":20450:20513   */\n      tag_282\n      jump\t// in\n    tag_515:\n        /* \"#utility.yul\":20358:20523   */\n      pop\n        /* \"#utility.yul\":20612:20616   */\n      0xa0\n        /* \"#utility.yul\":20605:20610   */\n      dup4\n        /* \"#utility.yul\":20601:20617   */\n      add\n        /* \"#utility.yul\":20595:20618   */\n      mload\n        /* \"#utility.yul\":20665:20668   */\n      dup5\n        /* \"#utility.yul\":20659:20663   */\n      dup3\n        /* \"#utility.yul\":20655:20669   */\n      sub\n        /* \"#utility.yul\":20648:20652   */\n      0xa0\n        /* \"#utility.yul\":20643:20646   */\n      dup7\n        /* \"#utility.yul\":20639:20653   */\n      add\n        /* \"#utility.yul\":20632:20670   */\n      mstore\n        /* \"#utility.yul\":20691:20764   */\n      tag_516\n        /* \"#utility.yul\":20759:20763   */\n      dup3\n        /* \"#utility.yul\":20745:20757   */\n      dup3\n        /* \"#utility.yul\":20691:20764   */\n      tag_281\n      jump\t// in\n    tag_516:\n        /* \"#utility.yul\":20683:20764   */\n      swap2\n      pop\n        /* \"#utility.yul\":20533:20775   */\n      pop\n        /* \"#utility.yul\":20857:20861   */\n      0xc0\n        /* \"#utility.yul\":20850:20855   */\n      dup4\n        /* \"#utility.yul\":20846:20862   */\n      add\n        /* \"#utility.yul\":20840:20863   */\n      mload\n        /* \"#utility.yul\":20910:20913   */\n      dup5\n        /* \"#utility.yul\":20904:20908   */\n      dup3\n        /* \"#utility.yul\":20900:20914   */\n      sub\n        /* \"#utility.yul\":20893:20897   */\n      0xc0\n        /* \"#utility.yul\":20888:20891   */\n      dup7\n        /* \"#utility.yul\":20884:20898   */\n      add\n        /* \"#utility.yul\":20877:20915   */\n      mstore\n        /* \"#utility.yul\":20936:21059   */\n      tag_517\n        /* \"#utility.yul\":21054:21058   */\n      dup3\n        /* \"#utility.yul\":21040:21052   */\n      dup3\n        /* \"#utility.yul\":20936:21059   */\n      tag_288\n      jump\t// in\n    tag_517:\n        /* \"#utility.yul\":20928:21059   */\n      swap2\n      pop\n        /* \"#utility.yul\":20785:21070   */\n      pop\n        /* \"#utility.yul\":21165:21169   */\n      0xe0\n        /* \"#utility.yul\":21158:21163   */\n      dup4\n        /* \"#utility.yul\":21154:21170   */\n      add\n        /* \"#utility.yul\":21148:21171   */\n      mload\n        /* \"#utility.yul\":21184:21247   */\n      tag_518\n        /* \"#utility.yul\":21241:21245   */\n      0xe0\n        /* \"#utility.yul\":21236:21239   */\n      dup7\n        /* \"#utility.yul\":21232:21246   */\n      add\n        /* \"#utility.yul\":21218:21230   */\n      dup3\n        /* \"#utility.yul\":21184:21247   */\n      tag_277\n      jump\t// in\n    tag_518:\n        /* \"#utility.yul\":21080:21257   */\n      pop\n        /* \"#utility.yul\":21349:21355   */\n      0x0100\n        /* \"#utility.yul\":21342:21347   */\n      dup4\n        /* \"#utility.yul\":21338:21356   */\n      add\n        /* \"#utility.yul\":21332:21357   */\n      mload\n        /* \"#utility.yul\":21370:21435   */\n      tag_519\n        /* \"#utility.yul\":21427:21433   */\n      0x0100\n        /* \"#utility.yul\":21422:21425   */\n      dup7\n        /* \"#utility.yul\":21418:21434   */\n      add\n        /* \"#utility.yul\":21404:21416   */\n      dup3\n        /* \"#utility.yul\":21370:21435   */\n      tag_277\n      jump\t// in\n    tag_519:\n        /* \"#utility.yul\":21267:21445   */\n      pop\n        /* \"#utility.yul\":21535:21541   */\n      0x0120\n        /* \"#utility.yul\":21528:21533   */\n      dup4\n        /* \"#utility.yul\":21524:21542   */\n      add\n        /* \"#utility.yul\":21518:21543   */\n      mload\n        /* \"#utility.yul\":21556:21621   */\n      tag_520\n        /* \"#utility.yul\":21613:21619   */\n      0x0120\n        /* \"#utility.yul\":21608:21611   */\n      dup7\n        /* \"#utility.yul\":21604:21620   */\n      add\n        /* \"#utility.yul\":21590:21602   */\n      dup3\n        /* \"#utility.yul\":21556:21621   */\n      tag_277\n      jump\t// in\n    tag_520:\n        /* \"#utility.yul\":21455:21631   */\n      pop\n        /* \"#utility.yul\":21648:21652   */\n      dup1\n        /* \"#utility.yul\":21641:21652   */\n      swap2\n      pop\n        /* \"#utility.yul\":19461:21658   */\n      pop\n        /* \"#utility.yul\":19333:21658   */\n      swap3\n      swap2\n      pop\n      pop\n      jump\t// out\n        /* \"#utility.yul\":21664:22045   */\n    tag_49:\n        /* \"#utility.yul\":21811:21815   */\n      0x00\n        /* \"#utility.yul\":21849:21851   */\n      0x20\n        /* \"#utility.yul\":21838:21847   */\n      dup3\n        /* \"#utility.yul\":21834:21852   */\n      add\n        /* \"#utility.yul\":21826:21852   */\n      swap1\n      pop\n        /* \"#utility.yul\":21898:21907   */\n      dup2\n        /* \"#utility.yul\":21892:21896   */\n      dup2\n        /* \"#utility.yul\":21888:21908   */\n      sub\n        /* \"#utility.yul\":21884:21885   */\n      0x00\n        /* \"#utility.yul\":21873:21882   */\n      dup4\n        /* \"#utility.yul\":21869:21886   */\n      add\n        /* \"#utility.yul\":21862:21909   */\n      mstore\n        /* \"#utility.yul\":21926:22038   */\n      tag_522\n        /* \"#utility.yul\":22033:22037   */\n      dup2\n        /* \"#utility.yul\":22024:22030   */\n      dup5\n        /* \"#utility.yul\":21926:22038   */\n      tag_296\n      jump\t// in\n    tag_522:\n        /* \"#utility.yul\":21918:22038   */\n      swap1\n      pop\n        /* \"#utility.yul\":21664:22045   */\n      swap3\n      swap2\n      pop\n      pop\n      jump\t// out\n        /* \"#utility.yul\":22051:22215   */\n    tag_297:\n        /* \"#utility.yul\":22191:22207   */\n      0x5469746c65207265717569726564000000000000000000000000000000000000\n        /* \"#utility.yul\":22187:22188   */\n      0x00\n        /* \"#utility.yul\":22179:22185   */\n      dup3\n        /* \"#utility.yul\":22175:22189   */\n      add\n        /* \"#utility.yul\":22168:22208   */\n      mstore\n        /* \"#utility.yul\":22051:22215   */\n      pop\n      jump\t// out\n        /* \"#utility.yul\":22221:22587   */\n    tag_298:\n        /* \"#utility.yul\":22363:22366   */\n      0x00\n        /* \"#utility.yul\":22384:22451   */\n      tag_525\n        /* \"#utility.yul\":22448:22450   */\n      0x0e\n        /* \"#utility.yul\":22443:22446   */\n      dup4\n        /* \"#utility.yul\":22384:22451   */\n      tag_293\n      jump\t// in\n    tag_525:\n        /* \"#utility.yul\":22377:22451   */\n      swap2\n      pop\n        /* \"#utility.yul\":22460:22553   */\n      tag_526\n        /* \"#utility.yul\":22549:22552   */\n      dup3\n        /* \"#utility.yul\":22460:22553   */\n      tag_297\n      jump\t// in\n    tag_526:\n        /* \"#utility.yul\":22578:22580   */\n      0x20\n        /* \"#utility.yul\":22573:22576   */\n      dup3\n        /* \"#utility.yul\":22569:22581   */\n      add\n        /* \"#utility.yul\":22562:22581   */\n      swap1\n      pop\n        /* \"#utility.yul\":22221:22587   */\n      swap2\n      swap1\n      pop\n      jump\t// out\n        /* \"#utility.yul\":22593:23012   */\n    tag_55:\n        /* \"#utility.yul\":22759:22763   */\n      0x00\n        /* \"#utility.yul\":22797:22799   */\n      0x20\n        /* \"#utility.yul\":22786:22795   */\n      dup3\n        /* \"#utility.yul\":22782:22800   */\n      add\n        /* \"#utility.yul\":22774:22800   */\n      swap1\n      pop\n        /* \"#utility.yul\":22846:22855   */\n      dup2\n        /* \"#utility.yul\":22840:22844   */\n      dup2\n        /* \"#utility.yul\":22836:22856   */\n      sub\n        /* \"#utility.yul\":22832:22833   */\n      0x00\n        /* \"#utility.yul\":22821:22830   */\n      dup4\n        /* \"#utility.yul\":22817:22834   */\n      add\n        /* \"#utility.yul\":22810:22857   */\n      mstore\n        /* \"#utility.yul\":22874:23005   */\n      tag_528\n        /* \"#utility.yul\":23000:23004   */\n      dup2\n        /* \"#utility.yul\":22874:23005   */\n      tag_298\n      jump\t// in\n    tag_528:\n        /* \"#utility.yul\":22866:23005   */\n      swap1\n      pop\n        /* \"#utility.yul\":22593:23012   */\n      swap2\n      swap1\n      pop\n      jump\t// out\n        /* \"#utility.yul\":23018:23193   */\n    tag_299:\n        /* \"#utility.yul\":23158:23185   */\n      0x4d617820617474656e64656573206d757374206265203e203000000000000000\n        /* \"#utility.yul\":23154:23155   */\n      0x00\n        /* \"#utility.yul\":23146:23152   */\n      dup3\n        /* \"#utility.yul\":23142:23156   */\n      add\n        /* \"#utility.yul\":23135:23186   */\n      mstore\n        /* \"#utility.yul\":23018:23193   */\n      pop\n      jump\t// out\n        /* \"#utility.yul\":23199:23565   */\n    tag_300:\n        /* \"#utility.yul\":23341:23344   */\n      0x00\n        /* \"#utility.yul\":23362:23429   */\n      tag_531\n        /* \"#utility.yul\":23426:23428   */\n      0x19\n        /* \"#utility.yul\":23421:23424   */\n      dup4\n        /* \"#utility.yul\":23362:23429   */\n      tag_293\n      jump\t// in\n    tag_531:\n        /* \"#utility.yul\":23355:23429   */\n      swap2\n      pop\n        /* \"#utility.yul\":23438:23531   */\n      tag_532\n        /* \"#utility.yul\":23527:23530   */\n      dup3\n        /* \"#utility.yul\":23438:23531   */\n      tag_299\n      jump\t// in\n    tag_532:\n        /* \"#utility.yul\":23556:23558   */\n      0x20\n        /* \"#utility.yul\":23551:23554   */\n      dup3\n        /* \"#utility.yul\":23547:23559   */\n      add\n        /* \"#utility.yul\":23540:23559   */\n      swap1\n      pop\n        /* \"#utility.yul\":23199:23565   */\n      swap2\n      swap1\n      pop\n      jump\t// out\n        /* \"#utility.yul\":23571:23990   */\n    tag_58:\n        /* \"#utility.yul\":23737:23741   */\n      0x00\n        /* \"#utility.yul\":23775:23777   */\n      0x20\n        /* \"#utility.yul\":23764:23773   */\n      dup3\n        /* \"#utility.yul\":23760:23778   */\n      add\n        /* \"#utility.yul\":23752:23778   */\n      swap1\n      pop\n        /* \"#utility.yul\":23824:23833   */\n      dup2\n        /* \"#utility.yul\":23818:23822   */\n      dup2\n        /* \"#utility.yul\":23814:23834   */\n      sub\n        /* \"#utility.yul\":23810:23811   */\n      0x00\n        /* \"#utility.yul\":23799:23808   */\n      dup4\n        /* \"#utility.yul\":23795:23812   */\n      add\n        /* \"#utility.yul\":23788:23835   */\n      mstore\n        /* \"#utility.yul\":23852:23983   */\n      tag_534\n        /* \"#utility.yul\":23978:23982   */\n      dup2\n        /* \"#utility.yul\":23852:23983   */\n      tag_300\n      jump\t// in\n    tag_534:\n        /* \"#utility.yul\":23844:23983   */\n      swap1\n      pop\n        /* \"#utility.yul\":23571:23990   */\n      swap2\n      swap1\n      pop\n      jump\t// out\n        /* \"#utility.yul\":23996:24226   */\n    tag_301:\n        /* \"#utility.yul\":24136:24170   */\n      0x456e642074696d657374616d70206d7573742062652061667465722073746172\n        /* \"#utility.yul\":24132:24133   */\n      0x00\n        /* \"#utility.yul\":24124:24130   */\n      dup3\n        /* \"#utility.yul\":24120:24134   */\n      add\n        /* \"#utility.yul\":24113:24171   */\n      mstore\n        /* \"#utility.yul\":24205:24218   */\n      0x742074696d657374616d70000000000000000000000000000000000000000000\n        /* \"#utility.yul\":24200:24202   */\n      0x20\n        /* \"#utility.yul\":24192:24198   */\n      dup3\n        /* \"#utility.yul\":24188:24203   */\n      add\n        /* \"#utility.yul\":24181:24219   */\n      mstore\n        /* \"#utility.yul\":23996:24226   */\n      pop\n      jump\t// out\n        /* \"#utility.yul\":24232:24598   */\n    tag_302:\n        /* \"#utility.yul\":24374:24377   */\n      0x00\n        /* \"#utility.yul\":24395:24462   */\n      tag_537\n        /* \"#utility.yul\":24459:24461   */\n      0x2b\n        /* \"#utility.yul\":24454:24457   */\n      dup4\n        /* \"#utility.yul\":24395:24462   */\n      tag_293\n      jump\t// in\n    tag_537:\n        /* \"#utility.yul\":24388:24462   */\n      swap2\n      pop\n        /* \"#utility.yul\":24471:24564   */\n      tag_538\n        /* \"#utility.yul\":24560:24563   */\n      dup3\n        /* \"#utility.yul\":24471:24564   */\n      tag_301\n      jump\t// in\n    tag_538:\n        /* \"#utility.yul\":24589:24591   */\n      0x40\n        /* \"#utility.yul\":24584:24587   */\n      dup3\n        /* \"#utility.yul\":24580:24592   */\n      add\n        /* \"#utility.yul\":24573:24592   */\n      swap1\n      pop\n        /* \"#utility.yul\":24232:24598   */\n      swap2\n      swap1\n      pop\n      jump\t// out\n        /* \"#utility.yul\":24604:25023   */\n    tag_61:\n        /* \"#utility.yul\":24770:24774   */\n      0x00\n        /* \"#utility.yul\":24808:24810   */\n      0x20\n        /* \"#utility.yul\":24797:24806   */\n      dup3\n        /* \"#utility.yul\":24793:24811   */\n      add\n        /* \"#utility.yul\":24785:24811   */\n      swap1\n      pop\n        /* \"#utility.yul\":24857:24866   */\n      dup2\n        /* \"#utility.yul\":24851:24855   */\n      dup2\n        /* \"#utility.yul\":24847:24867   */\n      sub\n        /* \"#utility.yul\":24843:24844   */\n      0x00\n        /* \"#utility.yul\":24832:24841   */\n      dup4\n        /* \"#utility.yul\":24828:24845   */\n      add\n        /* \"#utility.yul\":24821:24868   */\n      mstore\n        /* \"#utility.yul\":24885:25016   */\n      tag_540\n        /* \"#utility.yul\":25011:25015   */\n      dup2\n        /* \"#utility.yul\":24885:25016   */\n      tag_302\n      jump\t// in\n    tag_540:\n        /* \"#utility.yul\":24877:25016   */\n      swap1\n      pop\n        /* \"#utility.yul\":24604:25023   */\n      swap2\n      swap1\n      pop\n      jump\t// out\n        /* \"#utility.yul\":25029:25206   */\n    tag_303:\n        /* \"#utility.yul\":25169:25198   */\n      0x4576656e74206d75737420626520696e20746865206675747572650000000000\n        /* \"#utility.yul\":25165:25166   */\n      0x00\n        /* \"#utility.yul\":25157:25163   */\n      dup3\n        /* \"#utility.yul\":25153:25167   */\n      add\n        /* \"#utility.yul\":25146:25199   */\n      mstore\n        /* \"#utility.yul\":25029:25206   */\n      pop\n      jump\t// out\n        /* \"#utility.yul\":25212:25578   */\n    tag_304:\n        /* \"#utility.yul\":25354:25357   */\n      0x00\n        /* \"#utility.yul\":25375:25442   */\n      tag_543\n        /* \"#utility.yul\":25439:25441   */\n      0x1b\n        /* \"#utility.yul\":25434:25437   */\n      dup4\n        /* \"#utility.yul\":25375:25442   */\n      tag_293\n      jump\t// in\n    tag_543:\n        /* \"#utility.yul\":25368:25442   */\n      swap2\n      pop\n        /* \"#utility.yul\":25451:25544   */\n      tag_544\n        /* \"#utility.yul\":25540:25543   */\n      dup3\n        /* \"#utility.yul\":25451:25544   */\n      tag_303\n      jump\t// in\n    tag_544:\n        /* \"#utility.yul\":25569:25571   */\n      0x20\n        /* \"#utility.yul\":25564:25567   */\n      dup3\n        /* \"#utility.yul\":25560:25572   */\n      add\n        /* \"#utility.yul\":25553:25572   */\n      swap1\n      pop\n        /* \"#utility.yul\":25212:25578   */\n      swap2\n      swap1\n      pop\n      jump\t// out\n        /* \"#utility.yul\":25584:26003   */\n    tag_64:\n        /* \"#utility.yul\":25750:25754   */\n      0x00\n        /* \"#utility.yul\":25788:25790   */\n      0x20\n        /* \"#utility.yul\":25777:25786   */\n      dup3\n        /* \"#utility.yul\":25773:25791   */\n      add\n        /* \"#utility.yul\":25765:25791   */\n      swap1\n      pop\n        /* \"#utility.yul\":25837:25846   */\n      dup2\n        /* \"#utility.yul\":25831:25835   */\n      dup2\n        /* \"#utility.yul\":25827:25847   */\n      sub\n        /* \"#utility.yul\":25823:25824   */\n      0x00\n        /* \"#utility.yul\":25812:25821   */\n      dup4\n        /* \"#utility.yul\":25808:25825   */\n      add\n        /* \"#utility.yul\":25801:25848   */\n      mstore\n        /* \"#utility.yul\":25865:25996   */\n      tag_546\n        /* \"#utility.yul\":25991:25995   */\n      dup2\n        /* \"#utility.yul\":25865:25996   */\n      tag_304\n      jump\t// in\n    tag_546:\n        /* \"#utility.yul\":25857:25996   */\n      swap1\n      pop\n        /* \"#utility.yul\":25584:26003   */\n      swap2\n      swap1\n      pop\n      jump\t// out\n        /* \"#utility.yul\":26009:26172   */\n    tag_305:\n        /* \"#utility.yul\":26149:26164   */\n      0x546f6f206d616e79207461677300000000000000000000000000000000000000\n        /* \"#utility.yul\":26145:26146   */\n      0x00\n        /* \"#utility.yul\":26137:26143   */\n      dup3\n        /* \"#utility.yul\":26133:26147   */\n      add\n        /* \"#utility.yul\":26126:26165   */\n      mstore\n        /* \"#utility.yul\":26009:26172   */\n      pop\n      jump\t// out\n        /* \"#utility.yul\":26178:26544   */\n    tag_306:\n        /* \"#utility.yul\":26320:26323   */\n      0x00\n        /* \"#utility.yul\":26341:26408   */\n      tag_549\n        /* \"#utility.yul\":26405:26407   */\n      0x0d\n        /* \"#utility.yul\":26400:26403   */\n      dup4\n        /* \"#utility.yul\":26341:26408   */\n      tag_293\n      jump\t// in\n    tag_549:\n        /* \"#utility.yul\":26334:26408   */\n      swap2\n      pop\n        /* \"#utility.yul\":26417:26510   */\n      tag_550\n        /* \"#utility.yul\":26506:26509   */\n      dup3\n        /* \"#utility.yul\":26417:26510   */\n      tag_305\n      jump\t// in\n    tag_550:\n        /* \"#utility.yul\":26535:26537   */\n      0x20\n        /* \"#utility.yul\":26530:26533   */\n      dup3\n        /* \"#utility.yul\":26526:26538   */\n      add\n        /* \"#utility.yul\":26519:26538   */\n      swap1\n      pop\n        /* \"#utility.yul\":26178:26544   */\n      swap2\n      swap1\n      pop\n      jump\t// out\n        /* \"#utility.yul\":26550:26969   */\n    tag_67:\n        /* \"#utility.yul\":26716:26720   */\n      0x00\n        /* \"#utility.yul\":26754:26756   */\n      0x20\n        /* \"#utility.yul\":26743:26752   */\n      dup3\n        /* \"#utility.yul\":26739:26757   */\n      add\n        /* \"#utility.yul\":26731:26757   */\n      swap1\n      pop\n        /* \"#utility.yul\":26803:26812   */\n      dup2\n        /* \"#utility.yul\":26797:26801   */\n      dup2\n        /* \"#utility.yul\":26793:26813   */\n      sub\n        /* \"#utility.yul\":26789:26790   */\n      0x00\n        /* \"#utility.yul\":26778:26787   */\n      dup4\n        /* \"#utility.yul\":26774:26791   */\n      add\n        /* \"#utility.yul\":26767:26814   */\n      mstore\n        /* \"#utility.yul\":26831:26962   */\n      tag_552\n        /* \"#utility.yul\":26957:26961   */\n      dup2\n        /* \"#utility.yul\":26831:26962   */\n      tag_306\n      jump\t// in\n    tag_552:\n        /* \"#utility.yul\":26823:26962   */\n      swap1\n      pop\n        /* \"#utility.yul\":26550:26969   */\n      swap2\n      swap1\n      pop\n      jump\t// out\n        /* \"#utility.yul\":26975:27150   */\n    tag_307:\n        /* \"#utility.yul\":27115:27142   */\n      0x4174206c65617374206f6e652074616720726571756972656400000000000000\n        /* \"#utility.yul\":27111:27112   */\n      0x00\n        /* \"#utility.yul\":27103:27109   */\n      dup3\n        /* \"#utility.yul\":27099:27113   */\n      add\n        /* \"#utility.yul\":27092:27143   */\n      mstore\n        /* \"#utility.yul\":26975:27150   */\n      pop\n      jump\t// out\n        /* \"#utility.yul\":27156:27522   */\n    tag_308:\n        /* \"#utility.yul\":27298:27301   */\n      0x00\n        /* \"#utility.yul\":27319:27386   */\n      tag_555\n        /* \"#utility.yul\":27383:27385   */\n      0x19\n        /* \"#utility.yul\":27378:27381   */\n      dup4\n        /* \"#utility.yul\":27319:27386   */\n      tag_293\n      jump\t// in\n    tag_555:\n        /* \"#utility.yul\":27312:27386   */\n      swap2\n      pop\n        /* \"#utility.yul\":27395:27488   */\n      tag_556\n        /* \"#utility.yul\":27484:27487   */\n      dup3\n        /* \"#utility.yul\":27395:27488   */\n      tag_307\n      jump\t// in\n    tag_556:\n        /* \"#utility.yul\":27513:27515   */\n      0x20\n        /* \"#utility.yul\":27508:27511   */\n      dup3\n        /* \"#utility.yul\":27504:27516   */\n      add\n        /* \"#utility.yul\":27497:27516   */\n      swap1\n      pop\n        /* \"#utility.yul\":27156:27522   */\n      swap2\n      swap1\n      pop\n      jump\t// out\n        /* \"#utility.yul\":27528:27947   */\n    tag_70:\n        /* \"#utility.yul\":27694:27698   */\n      0x00\n        /* \"#utility.yul\":27732:27734   */\n      0x20\n        /* \"#utility.yul\":27721:27730   */\n      dup3\n        /* \"#utility.yul\":27717:27735   */\n      add\n        /* \"#utility.yul\":27709:27735   */\n      swap1\n      pop\n        /* \"#utility.yul\":27781:27790   */\n      dup2\n        /* \"#utility.yul\":27775:27779   */\n      dup2\n        /* \"#utility.yul\":27771:27791   */\n      sub\n        /* \"#utility.yul\":27767:27768   */\n      0x00\n        /* \"#utility.yul\":27756:27765   */\n      dup4\n        /* \"#utility.yul\":27752:27769   */\n      add\n        /* \"#utility.yul\":27745:27792   */\n      mstore\n        /* \"#utility.yul\":27809:27940   */\n      tag_558\n        /* \"#utility.yul\":27935:27939   */\n      dup2\n        /* \"#utility.yul\":27809:27940   */\n      tag_308\n      jump\t// in\n    tag_558:\n        /* \"#utility.yul\":27801:27940   */\n      swap1\n      pop\n        /* \"#utility.yul\":27528:27947   */\n      swap2\n      swap1\n      pop\n      jump\t// out\n        /* \"#utility.yul\":27953:28120   */\n    tag_309:\n        /* \"#utility.yul\":28093:28112   */\n      0x4c6f636174696f6e207265717569726564000000000000000000000000000000\n        /* \"#utility.yul\":28089:28090   */\n      0x00\n        /* \"#utility.yul\":28081:28087   */\n      dup3\n        /* \"#utility.yul\":28077:28091   */\n      add\n        /* \"#utility.yul\":28070:28113   */\n      mstore\n        /* \"#utility.yul\":27953:28120   */\n      pop\n      jump\t// out\n        /* \"#utility.yul\":28126:28492   */\n    tag_310:\n        /* \"#utility.yul\":28268:28271   */\n      0x00\n        /* \"#utility.yul\":28289:28356   */\n      tag_561\n        /* \"#utility.yul\":28353:28355   */\n      0x11\n        /* \"#utility.yul\":28348:28351   */\n      dup4\n        /* \"#utility.yul\":28289:28356   */\n      tag_293\n      jump\t// in\n    tag_561:\n        /* \"#utility.yul\":28282:28356   */\n      swap2\n      pop\n        /* \"#utility.yul\":28365:28458   */\n      tag_562\n        /* \"#utility.yul\":28454:28457   */\n      dup3\n        /* \"#utility.yul\":28365:28458   */\n      tag_309\n      jump\t// in\n    tag_562:\n        /* \"#utility.yul\":28483:28485   */\n      0x20\n        /* \"#utility.yul\":28478:28481   */\n      dup3\n        /* \"#utility.yul\":28474:28486   */\n      add\n        /* \"#utility.yul\":28467:28486   */\n      swap1\n      pop\n        /* \"#utility.yul\":28126:28492   */\n      swap2\n      swap1\n      pop\n      jump\t// out\n        /* \"#utility.yul\":28498:28917   */\n    tag_73:\n        /* \"#utility.yul\":28664:28668   */\n      0x00\n        /* \"#utility.yul\":28702:28704   */\n      0x20\n        /* \"#utility.yul\":28691:28700   */\n      dup3\n        /* \"#utility.yul\":28687:28705   */\n      add\n        /* \"#utility.yul\":28679:28705   */\n      swap1\n      pop\n        /* \"#utility.yul\":28751:28760   */\n      dup2\n        /* \"#utility.yul\":28745:28749   */\n      dup2\n        /* \"#utility.yul\":28741:28761   */\n      sub\n        /* \"#utility.yul\":28737:28738   */\n      0x00\n        /* \"#utility.yul\":28726:28735   */\n      dup4\n        /* \"#utility.yul\":28722:28739   */\n      add\n        /* \"#utility.yul\":28715:28762   */\n      mstore\n        /* \"#utility.yul\":28779:28910   */\n      tag_564\n        /* \"#utility.yul\":28905:28909   */\n      dup2\n        /* \"#utility.yul\":28779:28910   */\n      tag_310\n      jump\t// in\n    tag_564:\n        /* \"#utility.yul\":28771:28910   */\n      swap1\n      pop\n        /* \"#utility.yul\":28498:28917   */\n      swap2\n      swap1\n      pop\n      jump\t// out\n        /* \"#utility.yul\":28923:29103   */\n    tag_311:\n        /* \"#utility.yul\":28971:29048   */\n      0x4e487b7100000000000000000000000000000000000000000000000000000000\n        /* \"#utility.yul\":28968:28969   */\n      0x00\n        /* \"#utility.yul\":28961:29049   */\n      mstore\n        /* \"#utility.yul\":29068:29072   */\n      0x22\n        /* \"#utility.yul\":29065:29066   */\n      0x04\n        /* \"#utility.yul\":29058:29073   */\n      mstore\n        /* \"#utility.yul\":29092:29096   */\n      0x24\n        /* \"#utility.yul\":29089:29090   */\n      0x00\n        /* \"#utility.yul\":29082:29097   */\n      revert\n        /* \"#utility.yul\":29109:29429   */\n    tag_112:\n        /* \"#utility.yul\":29153:29159   */\n      0x00\n        /* \"#utility.yul\":29190:29191   */\n      0x02\n        /* \"#utility.yul\":29184:29188   */\n      dup3\n        /* \"#utility.yul\":29180:29192   */\n      div\n        /* \"#utility.yul\":29170:29192   */\n      swap1\n      pop\n        /* \"#utility.yul\":29237:29238   */\n      0x01\n        /* \"#utility.yul\":29231:29235   */\n      dup3\n        /* \"#utility.yul\":29227:29239   */\n      and\n        /* \"#utility.yul\":29258:29276   */\n      dup1\n        /* \"#utility.yul\":29248:29329   */\n      tag_567\n      jumpi\n        /* \"#utility.yul\":29314:29318   */\n      0x7f\n        /* \"#utility.yul\":29306:29312   */\n      dup3\n        /* \"#utility.yul\":29302:29319   */\n      and\n        /* \"#utility.yul\":29292:29319   */\n      swap2\n      pop\n        /* \"#utility.yul\":29248:29329   */\n    tag_567:\n        /* \"#utility.yul\":29376:29378   */\n      0x20\n        /* \"#utility.yul\":29368:29374   */\n      dup3\n        /* \"#utility.yul\":29365:29379   */\n      lt\n        /* \"#utility.yul\":29345:29363   */\n      dup2\n        /* \"#utility.yul\":29342:29380   */\n      sub\n        /* \"#utility.yul\":29339:29423   */\n      tag_568\n      jumpi\n        /* \"#utility.yul\":29395:29413   */\n      tag_569\n      tag_311\n      jump\t// in\n    tag_569:\n        /* \"#utility.yul\":29339:29423   */\n    tag_568:\n        /* \"#utility.yul\":29160:29429   */\n      pop\n        /* \"#utility.yul\":29109:29429   */\n      swap2\n      swap1\n      pop\n      jump\t// out\n        /* \"#utility.yul\":29435:29576   */\n    tag_312:\n        /* \"#utility.yul\":29484:29488   */\n      0x00\n        /* \"#utility.yul\":29507:29510   */\n      dup2\n        /* \"#utility.yul\":29499:29510   */\n      swap1\n      pop\n        /* \"#utility.yul\":29530:29533   */\n      dup2\n        /* \"#utility.yul\":29527:29528   */\n      0x00\n        /* \"#utility.yul\":29520:29534   */\n      mstore\n        /* \"#utility.yul\":29564:29568   */\n      0x20\n        /* \"#utility.yul\":29561:29562   */\n      0x00\n        /* \"#utility.yul\":29551:29569   */\n      keccak256\n        /* \"#utility.yul\":29543:29569   */\n      swap1\n      pop\n        /* \"#utility.yul\":29435:29576   */\n      swap2\n      swap1\n      pop\n      jump\t// out\n        /* \"#utility.yul\":29582:29675   */\n    tag_313:\n        /* \"#utility.yul\":29619:29625   */\n      0x00\n        /* \"#utility.yul\":29666:29668   */\n      0x20\n        /* \"#utility.yul\":29661:29663   */\n      0x1f\n        /* \"#utility.yul\":29654:29659   */\n      dup4\n        /* \"#utility.yul\":29650:29664   */\n      add\n        /* \"#utility.yul\":29646:29669   */\n      div\n        /* \"#utility.yul\":29636:29669   */\n      swap1\n      pop\n        /* \"#utility.yul\":29582:29675   */\n      swap2\n      swap1\n      pop\n      jump\t// out\n        /* \"#utility.yul\":29681:29788   */\n    tag_314:\n        /* \"#utility.yul\":29725:29733   */\n      0x00\n        /* \"#utility.yul\":29775:29780   */\n      dup3\n        /* \"#utility.yul\":29769:29773   */\n      dup3\n        /* \"#utility.yul\":29765:29781   */\n      shl\n        /* \"#utility.yul\":29744:29781   */\n      swap1\n      pop\n        /* \"#utility.yul\":29681:29788   */\n      swap3\n      swap2\n      pop\n      pop\n      jump\t// out\n        /* \"#utility.yul\":29794:30187   */\n    tag_315:\n        /* \"#utility.yul\":29863:29869   */\n      0x00\n        /* \"#utility.yul\":29913:29914   */\n      0x08\n        /* \"#utility.yul\":29901:29911   */\n      dup4\n        /* \"#utility.yul\":29897:29915   */\n      mul\n        /* \"#utility.yul\":29936:30033   */\n      tag_574\n        /* \"#utility.yul\":29966:30032   */\n      0xffffffffffffffffffffffffffffffffffffffffffffffffffffffffffffffff\n        /* \"#utility.yul\":29955:29964   */\n      dup3\n        /* \"#utility.yul\":29936:30033   */\n      tag_314\n      jump\t// in\n    tag_574:\n        /* \"#utility.yul\":30054:30093   */\n      tag_575\n        /* \"#utility.yul\":30084:30092   */\n      dup7\n        /* \"#utility.yul\":30073:30082   */\n      dup4\n        /* \"#utility.yul\":30054:30093   */\n      tag_314\n      jump\t// in\n    tag_575:\n        /* \"#utility.yul\":30042:30093   */\n      swap6\n      pop\n        /* \"#utility.yul\":30126:30130   */\n      dup1\n        /* \"#utility.yul\":30122:30131   */\n      not\n        /* \"#utility.yul\":30115:30120   */\n      dup5\n        /* \"#utility.yul\":30111:30132   */\n      and\n        /* \"#utility.yul\":30102:30132   */\n      swap4\n      pop\n        /* \"#utility.yul\":30175:30179   */\n      dup1\n        /* \"#utility.yul\":30165:30173   */\n      dup7\n        /* \"#utility.yul\":30161:30180   */\n      and\n        /* \"#utility.yul\":30154:30159   */\n      dup5\n        /* \"#utility.yul\":30151:30181   */\n      or\n        /* \"#utility.yul\":30141:30181   */\n      swap3\n      pop\n        /* \"#utility.yul\":29870:30187   */\n      pop\n      pop\n        /* \"#utility.yul\":29794:30187   */\n      swap4\n      swap3\n      pop\n      pop\n      pop\n      jump\t// out\n        /* \"#utility.yul\":30193:30253   */\n    tag_316:\n        /* \"#utility.yul\":30221:30224   */\n      0x00\n        /* \"#utility.yul\":30242:30247   */\n      dup2\n        /* \"#utility.yul\":30235:30247   */\n      swap1\n      pop\n        /* \"#utility.yul\":30193:30253   */\n      swap2\n      swap1\n      pop\n      jump\t// out\n        /* \"#utility.yul\":30259:30401   */\n    tag_317:\n        /* \"#utility.yul\":30309:30318   */\n      0x00\n        /* \"#utility.yul\":30342:30395   */\n      tag_578\n        /* \"#utility.yul\":30360:30394   */\n      tag_579\n        /* \"#utility.yul\":30369:30393   */\n      tag_580\n        /* \"#utility.yul\":30387:30392   */\n      dup5\n        /* \"#utility.yul\":30369:30393   */\n      tag_257\n      jump\t// in\n    tag_580:\n        /* \"#utility.yul\":30360:30394   */\n      tag_316\n      jump\t// in\n    tag_579:\n        /* \"#utility.yul\":30342:30395   */\n      tag_257\n      jump\t// in\n    tag_578:\n        /* \"#utility.yul\":30329:30395   */\n      swap1\n      pop\n        /* \"#utility.yul\":30259:30401   */\n      swap2\n      swap1\n      pop\n      jump\t// out\n        /* \"#utility.yul\":30407:30482   */\n    tag_318:\n        /* \"#utility.yul\":30450:30453   */\n      0x00\n        /* \"#utility.yul\":30471:30476   */\n      dup2\n        /* \"#utility.yul\":30464:30476   */\n      swap1\n      pop\n        /* \"#utility.yul\":30407:30482   */\n      swap2\n      swap1\n      pop\n      jump\t// out\n        /* \"#utility.yul\":30488:30757   */\n    tag_319:\n        /* \"#utility.yul\":30598:30637   */\n      tag_583\n        /* \"#utility.yul\":30629:30636   */\n      dup4\n        /* \"#utility.yul\":30598:30637   */\n      tag_317\n      jump\t// in\n    tag_583:\n        /* \"#utility.yul\":30659:30750   */\n      tag_584\n        /* \"#utility.yul\":30708:30749   */\n      tag_585\n        /* \"#utility.yul\":30732:30748   */\n      dup3\n        /* \"#utility.yul\":30708:30749   */\n      tag_318\n      jump\t// in\n    tag_585:\n        /* \"#utility.yul\":30700:30706   */\n      dup5\n        /* \"#utility.yul\":30693:30697   */\n      dup5\n        /* \"#utility.yul\":30687:30698   */\n      sload\n        /* \"#utility.yul\":30659:30750   */\n      tag_315\n      jump\t// in\n    tag_584:\n        /* \"#utility.yul\":30653:30657   */\n      dup3\n        /* \"#utility.yul\":30646:30751   */\n      sstore\n        /* \"#utility.yul\":30564:30757   */\n      pop\n        /* \"#utility.yul\":30488:30757   */\n      pop\n      pop\n      pop\n      jump\t// out\n        /* \"#utility.yul\":30763:30836   */\n    tag_320:\n        /* \"#utility.yul\":30808:30811   */\n      0x00\n        /* \"#utility.yul\":30763:30836   */\n      swap1\n      jump\t// out\n        /* \"#utility.yul\":30842:31031   */\n    tag_321:\n        /* \"#utility.yul\":30919:30951   */\n      tag_588\n      tag_320\n      jump\t// in\n    tag_588:\n        /* \"#utility.yul\":30960:31025   */\n      tag_589\n        /* \"#utility.yul\":31018:31024   */\n      dup2\n        /* \"#utility.yul\":31010:31016   */\n      dup5\n        /* \"#utility.yul\":31004:31008   */\n      dup5\n        /* \"#utility.yul\":30960:31025   */\n      tag_319\n      jump\t// in\n    tag_589:\n        /* \"#utility.yul\":30895:31031   */\n      pop\n        /* \"#utility.yul\":30842:31031   */\n      pop\n      pop\n      jump\t// out\n        /* \"#utility.yul\":31037:31223   */\n    tag_322:\n        /* \"#utility.yul\":31097:31217   */\n    tag_591:\n        /* \"#utility.yul\":31114:31117   */\n      dup2\n        /* \"#utility.yul\":31107:31112   */\n      dup2\n        /* \"#utility.yul\":31104:31118   */\n      lt\n        /* \"#utility.yul\":31097:31217   */\n      iszero\n      tag_593\n      jumpi\n        /* \"#utility.yul\":31168:31207   */\n      tag_594\n        /* \"#utility.yul\":31205:31206   */\n      0x00\n        /* \"#utility.yul\":31198:31203   */\n      dup3\n        /* \"#utility.yul\":31168:31207   */\n      tag_321\n      jump\t// in\n    tag_594:\n        /* \"#utility.yul\":31141:31142   */\n      0x01\n        /* \"#utility.yul\":31134:31139   */\n      dup2\n        /* \"#utility.yul\":31130:31143   */\n      add\n        /* \"#utility.yul\":31121:31143   */\n      swap1\n      pop\n        /* \"#utility.yul\":31097:31217   */\n      jump(tag_591)\n    tag_593:\n        /* \"#utility.yul\":31037:31223   */\n      pop\n      pop\n      jump\t// out\n        /* \"#utility.yul\":31229:31772   */\n    tag_323:\n        /* \"#utility.yul\":31330:31332   */\n      0x1f\n        /* \"#utility.yul\":31325:31328   */\n      dup3\n        /* \"#utility.yul\":31322:31333   */\n      gt\n        /* \"#utility.yul\":31319:31765   */\n      iszero\n      tag_596\n      jumpi\n        /* \"#utility.yul\":31364:31402   */\n      tag_597\n        /* \"#utility.yul\":31396:31401   */\n      dup2\n        /* \"#utility.yul\":31364:31402   */\n      tag_312\n      jump\t// in\n    tag_597:\n        /* \"#utility.yul\":31448:31477   */\n      tag_598\n        /* \"#utility.yul\":31466:31476   */\n      dup5\n        /* \"#utility.yul\":31448:31477   */\n      tag_313\n      jump\t// in\n    tag_598:\n        /* \"#utility.yul\":31438:31446   */\n      dup2\n        /* \"#utility.yul\":31434:31478   */\n      add\n        /* \"#utility.yul\":31631:31633   */\n      0x20\n        /* \"#utility.yul\":31619:31629   */\n      dup6\n        /* \"#utility.yul\":31616:31634   */\n      lt\n        /* \"#utility.yul\":31613:31662   */\n      iszero\n      tag_599\n      jumpi\n        /* \"#utility.yul\":31652:31660   */\n      dup2\n        /* \"#utility.yul\":31637:31660   */\n      swap1\n      pop\n        /* \"#utility.yul\":31613:31662   */\n    tag_599:\n        /* \"#utility.yul\":31675:31755   */\n      tag_600\n        /* \"#utility.yul\":31731:31753   */\n      tag_601\n        /* \"#utility.yul\":31749:31752   */\n      dup6\n        /* \"#utility.yul\":31731:31753   */\n      tag_313\n      jump\t// in\n    tag_601:\n        /* \"#utility.yul\":31721:31729   */\n      dup4\n        /* \"#utility.yul\":31717:31754   */\n      add\n        /* \"#utility.yul\":31704:31715   */\n      dup3\n        /* \"#utility.yul\":31675:31755   */\n      tag_322\n      jump\t// in\n    tag_600:\n        /* \"#utility.yul\":31334:31765   */\n      pop\n      pop\n        /* \"#utility.yul\":31319:31765   */\n    tag_596:\n        /* \"#utility.yul\":31229:31772   */\n      pop\n      pop\n      pop\n      jump\t// out\n        /* \"#utility.yul\":31778:31895   */\n    tag_324:\n        /* \"#utility.yul\":31832:31840   */\n      0x00\n        /* \"#utility.yul\":31882:31887   */\n      dup3\n        /* \"#utility.yul\":31876:31880   */\n      dup3\n        /* \"#utility.yul\":31872:31888   */\n      shr\n        /* \"#utility.yul\":31851:31888   */\n      swap1\n      pop\n        /* \"#utility.yul\":31778:31895   */\n      swap3\n      swap2\n      pop\n      pop\n      jump\t// out\n        /* \"#utility.yul\":31901:32070   */\n    tag_325:\n        /* \"#utility.yul\":31945:31951   */\n      0x00\n        /* \"#utility.yul\":31978:32029   */\n      tag_604\n        /* \"#utility.yul\":32026:32027   */\n      0x00\n        /* \"#utility.yul\":32022:32028   */\n      not\n        /* \"#utility.yul\":32014:32019   */\n      dup5\n        /* \"#utility.yul\":32011:32012   */\n      0x08\n        /* \"#utility.yul\":32007:32020   */\n      mul\n        /* \"#utility.yul\":31978:32029   */\n      tag_324\n      jump\t// in\n    tag_604:\n        /* \"#utility.yul\":31974:32030   */\n      not\n        /* \"#utility.yul\":32059:32063   */\n      dup1\n        /* \"#utility.yul\":32053:32057   */\n      dup4\n        /* \"#utility.yul\":32049:32064   */\n      and\n        /* \"#utility.yul\":32039:32064   */\n      swap2\n      pop\n        /* \"#utility.yul\":31952:32070   */\n      pop\n        /* \"#utility.yul\":31901:32070   */\n      swap3\n      swap2\n      pop\n      pop\n      jump\t// out\n        /* \"#utility.yul\":32075:32370   */\n    tag_326:\n        /* \"#utility.yul\":32151:32155   */\n      0x00\n        /* \"#utility.yul\":32297:32326   */\n      tag_606\n        /* \"#utility.yul\":32322:32325   */\n      dup4\n        /* \"#utility.yul\":32316:32320   */\n      dup4\n        /* \"#utility.yul\":32297:32326   */\n      tag_325\n      jump\t// in\n    tag_606:\n        /* \"#utility.yul\":32289:32326   */\n      swap2\n      pop\n        /* \"#utility.yul\":32359:32362   */\n      dup3\n        /* \"#utility.yul\":32356:32357   */\n      0x02\n        /* \"#utility.yul\":32352:32363   */\n      mul\n        /* \"#utility.yul\":32346:32350   */\n      dup3\n        /* \"#utility.yul\":32343:32364   */\n      or\n        /* \"#utility.yul\":32335:32364   */\n      swap1\n      pop\n        /* \"#utility.yul\":32075:32370   */\n      swap3\n      swap2\n      pop\n      pop\n      jump\t// out\n        /* \"#utility.yul\":32375:33770   */\n    tag_75:\n        /* \"#utility.yul\":32492:32529   */\n      tag_608\n        /* \"#utility.yul\":32525:32528   */\n      dup3\n        /* \"#utility.yul\":32492:32529   */\n      tag_278\n      jump\t// in\n    tag_608:\n        /* \"#utility.yul\":32594:32612   */\n      0xffffffffffffffff\n        /* \"#utility.yul\":32586:32592   */\n      dup2\n        /* \"#utility.yul\":32583:32613   */\n      gt\n        /* \"#utility.yul\":32580:32636   */\n      iszero\n      tag_609\n      jumpi\n        /* \"#utility.yul\":32616:32634   */\n      tag_610\n      tag_101\n      jump\t// in\n    tag_610:\n        /* \"#utility.yul\":32580:32636   */\n    tag_609:\n        /* \"#utility.yul\":32660:32698   */\n      tag_611\n        /* \"#utility.yul\":32692:32696   */\n      dup3\n        /* \"#utility.yul\":32686:32697   */\n      sload\n        /* \"#utility.yul\":32660:32698   */\n      tag_112\n      jump\t// in\n    tag_611:\n        /* \"#utility.yul\":32745:32812   */\n      tag_612\n        /* \"#utility.yul\":32805:32811   */\n      dup3\n        /* \"#utility.yul\":32797:32803   */\n      dup3\n        /* \"#utility.yul\":32791:32795   */\n      dup6\n        /* \"#utility.yul\":32745:32812   */\n      tag_323\n      jump\t// in\n    tag_612:\n        /* \"#utility.yul\":32839:32840   */\n      0x00\n        /* \"#utility.yul\":32863:32867   */\n      0x20\n        /* \"#utility.yul\":32850:32867   */\n      swap1\n      pop\n        /* \"#utility.yul\":32895:32897   */\n      0x1f\n        /* \"#utility.yul\":32887:32893   */\n      dup4\n        /* \"#utility.yul\":32884:32898   */\n      gt\n        /* \"#utility.yul\":32912:32913   */\n      0x01\n        /* \"#utility.yul\":32907:33525   */\n      dup2\n      eq\n      tag_614\n      jumpi\n        /* \"#utility.yul\":33569:33570   */\n      0x00\n        /* \"#utility.yul\":33586:33592   */\n      dup5\n        /* \"#utility.yul\":33583:33660   */\n      iszero\n      tag_615\n      jumpi\n        /* \"#utility.yul\":33635:33644   */\n      dup3\n        /* \"#utility.yul\":33630:33633   */\n      dup8\n        /* \"#utility.yul\":33626:33645   */\n      add\n        /* \"#utility.yul\":33620:33646   */\n      mload\n        /* \"#utility.yul\":33611:33646   */\n      swap1\n      pop\n        /* \"#utility.yul\":33583:33660   */\n    tag_615:\n        /* \"#utility.yul\":33686:33753   */\n      tag_616\n        /* \"#utility.yul\":33746:33752   */\n      dup6\n        /* \"#utility.yul\":33739:33744   */\n      dup3\n        /* \"#utility.yul\":33686:33753   */\n      tag_326\n      jump\t// in\n    tag_616:\n        /* \"#utility.yul\":33680:33684   */\n      dup7\n        /* \"#utility.yul\":33673:33754   */\n      sstore\n        /* \"#utility.yul\":33542:33764   */\n      pop\n        /* \"#utility.yul\":32877:33764   */\n      jump(tag_613)\n        /* \"#utility.yul\":32907:33525   */\n    tag_614:\n        /* \"#utility.yul\":32959:32963   */\n      0x1f\n        /* \"#utility.yul\":32955:32964   */\n      not\n        /* \"#utility.yul\":32947:32953   */\n      dup5\n        /* \"#utility.yul\":32943:32965   */\n      and\n        /* \"#utility.yul\":32993:33030   */\n      tag_617\n        /* \"#utility.yul\":33025:33029   */\n      dup7\n        /* \"#utility.yul\":32993:33030   */\n      tag_312\n      jump\t// in\n    tag_617:\n        /* \"#utility.yul\":33052:33053   */\n      0x00\n        /* \"#utility.yul\":33066:33274   */\n    tag_618:\n        /* \"#utility.yul\":33080:33087   */\n      dup3\n        /* \"#utility.yul\":33077:33078   */\n      dup2\n        /* \"#utility.yul\":33074:33088   */\n      lt\n        /* \"#utility.yul\":33066:33274   */\n      iszero\n      tag_620\n      jumpi\n        /* \"#utility.yul\":33159:33168   */\n      dup5\n        /* \"#utility.yul\":33154:33157   */\n      dup10\n        /* \"#utility.yul\":33150:33169   */\n      add\n        /* \"#utility.yul\":33144:33170   */\n      mload\n        /* \"#utility.yul\":33136:33142   */\n      dup3\n        /* \"#utility.yul\":33129:33171   */\n      sstore\n        /* \"#utility.yul\":33210:33211   */\n      0x01\n        /* \"#utility.yul\":33202:33208   */\n      dup3\n        /* \"#utility.yul\":33198:33212   */\n      add\n        /* \"#utility.yul\":33188:33212   */\n      swap2\n      pop\n        /* \"#utility.yul\":33257:33259   */\n      0x20\n        /* \"#utility.yul\":33246:33255   */\n      dup6\n        /* \"#utility.yul\":33242:33260   */\n      add\n        /* \"#utility.yul\":33229:33260   */\n      swap5\n      pop\n        /* \"#utility.yul\":33103:33107   */\n      0x20\n        /* \"#utility.yul\":33100:33101   */\n      dup2\n        /* \"#utility.yul\":33096:33108   */\n      add\n        /* \"#utility.yul\":33091:33108   */\n      swap1\n      pop\n        /* \"#utility.yul\":33066:33274   */\n      jump(tag_618)\n    tag_620:\n        /* \"#utility.yul\":33302:33308   */\n      dup7\n        /* \"#utility.yul\":33293:33300   */\n      dup4\n        /* \"#utility.yul\":33290:33309   */\n      lt\n        /* \"#utility.yul\":33287:33466   */\n      iszero\n      tag_621\n      jumpi\n        /* \"#utility.yul\":33360:33369   */\n      dup5\n        /* \"#utility.yul\":33355:33358   */\n      dup10\n        /* \"#utility.yul\":33351:33370   */\n      add\n        /* \"#utility.yul\":33345:33371   */\n      mload\n        /* \"#utility.yul\":33403:33451   */\n      tag_622\n        /* \"#utility.yul\":33445:33449   */\n      0x1f\n        /* \"#utility.yul\":33437:33443   */\n      dup10\n        /* \"#utility.yul\":33433:33450   */\n      and\n        /* \"#utility.yul\":33422:33431   */\n      dup3\n        /* \"#utility.yul\":33403:33451   */\n      tag_325\n      jump\t// in\n    tag_622:\n        /* \"#utility.yul\":33395:33401   */\n      dup4\n        /* \"#utility.yul\":33388:33452   */\n      sstore\n        /* \"#utility.yul\":33310:33466   */\n      pop\n        /* \"#utility.yul\":33287:33466   */\n    tag_621:\n        /* \"#utility.yul\":33512:33513   */\n      0x01\n        /* \"#utility.yul\":33508:33509   */\n      0x02\n        /* \"#utility.yul\":33500:33506   */\n      dup9\n        /* \"#utility.yul\":33496:33510   */\n      mul\n        /* \"#utility.yul\":33492:33514   */\n      add\n        /* \"#utility.yul\":33486:33490   */\n      dup9\n        /* \"#utility.yul\":33479:33515   */\n      sstore\n        /* \"#utility.yul\":32914:33525   */\n      pop\n      pop\n      pop\n        /* \"#utility.yul\":32877:33764   */\n    tag_613:\n      pop\n        /* \"#utility.yul\":32467:33770   */\n      pop\n      pop\n      pop\n        /* \"#utility.yul\":32375:33770   */\n      pop\n      pop\n      jump\t// out\n        /* \"#utility.yul\":33776:33956   */\n    tag_83:\n        /* \"#utility.yul\":33824:33901   */\n      0x4e487b7100000000000000000000000000000000000000000000000000000000\n        /* \"#utility.yul\":33821:33822   */\n      0x00\n        /* \"#utility.yul\":33814:33902   */\n      mstore\n        /* \"#utility.yul\":33921:33925   */\n      0x32\n        /* \"#utility.yul\":33918:33919   */\n      0x04\n        /* \"#utility.yul\":33911:33926   */\n      mstore\n        /* \"#utility.yul\":33945:33949   */\n      0x24\n        /* \"#utility.yul\":33942:33943   */\n      0x00\n        /* \"#utility.yul\":33935:33950   */\n      revert\n        /* \"#utility.yul\":33962:34110   */\n    tag_327:\n        /* \"#utility.yul\":34064:34075   */\n      0x00\n        /* \"#utility.yul\":34101:34104   */\n      dup2\n        /* \"#utility.yul\":34086:34104   */\n      swap1\n      pop\n        /* \"#utility.yul\":33962:34110   */\n      swap3\n      swap2\n      pop\n      pop\n      jump\t// out\n        /* \"#utility.yul\":34116:34506   */\n    tag_328:\n        /* \"#utility.yul\":34222:34225   */\n      0x00\n        /* \"#utility.yul\":34250:34289   */\n      tag_626\n        /* \"#utility.yul\":34283:34288   */\n      dup3\n        /* \"#utility.yul\":34250:34289   */\n      tag_278\n      jump\t// in\n    tag_626:\n        /* \"#utility.yul\":34305:34394   */\n      tag_627\n        /* \"#utility.yul\":34387:34393   */\n      dup2\n        /* \"#utility.yul\":34382:34385   */\n      dup6\n        /* \"#utility.yul\":34305:34394   */\n      tag_327\n      jump\t// in\n    tag_627:\n        /* \"#utility.yul\":34298:34394   */\n      swap4\n      pop\n        /* \"#utility.yul\":34403:34468   */\n      tag_628\n        /* \"#utility.yul\":34461:34467   */\n      dup2\n        /* \"#utility.yul\":34456:34459   */\n      dup6\n        /* \"#utility.yul\":34449:34453   */\n      0x20\n        /* \"#utility.yul\":34442:34447   */\n      dup7\n        /* \"#utility.yul\":34438:34454   */\n      add\n        /* \"#utility.yul\":34403:34468   */\n      tag_280\n      jump\t// in\n    tag_628:\n        /* \"#utility.yul\":34493:34499   */\n      dup1\n        /* \"#utility.yul\":34488:34491   */\n      dup5\n        /* \"#utility.yul\":34484:34500   */\n      add\n        /* \"#utility.yul\":34477:34500   */\n      swap2\n      pop\n        /* \"#utility.yul\":34226:34506   */\n      pop\n        /* \"#utility.yul\":34116:34506   */\n      swap3\n      swap2\n      pop\n      pop\n      jump\t// out\n        /* \"#utility.yul\":34512:34787   */\n    tag_89:\n        /* \"#utility.yul\":34644:34647   */\n      0x00\n        /* \"#utility.yul\":34666:34761   */\n      tag_630\n        /* \"#utility.yul\":34757:34760   */\n      dup3\n        /* \"#utility.yul\":34748:34754   */\n      dup5\n        /* \"#utility.yul\":34666:34761   */\n      tag_328\n      jump\t// in\n    tag_630:\n        /* \"#utility.yul\":34659:34761   */\n      swap2\n      pop\n        /* \"#utility.yul\":34778:34781   */\n      dup2\n        /* \"#utility.yul\":34771:34781   */\n      swap1\n      pop\n        /* \"#utility.yul\":34512:34787   */\n      swap3\n      swap2\n      pop\n      pop\n      jump\t// out\n        /* \"#utility.yul\":34793:35307   */\n    tag_93:\n        /* \"#utility.yul\":34954:34958   */\n      0x00\n        /* \"#utility.yul\":34992:34994   */\n      0x40\n        /* \"#utility.yul\":34981:34990   */\n      dup3\n        /* \"#utility.yul\":34977:34995   */\n      add\n        /* \"#utility.yul\":34969:34995   */\n      swap1\n      pop\n        /* \"#utility.yul\":35041:35050   */\n      dup2\n        /* \"#utility.yul\":35035:35039   */\n      dup2\n        /* \"#utility.yul\":35031:35051   */\n      sub\n        /* \"#utility.yul\":35027:35028   */\n      0x00\n        /* \"#utility.yul\":35016:35025   */\n      dup4\n        /* \"#utility.yul\":35012:35029   */\n      add\n        /* \"#utility.yul\":35005:35052   */\n      mstore\n        /* \"#utility.yul\":35069:35147   */\n      tag_632\n        /* \"#utility.yul\":35142:35146   */\n      dup2\n        /* \"#utility.yul\":35133:35139   */\n      dup6\n        /* \"#utility.yul\":35069:35147   */\n      tag_294\n      jump\t// in\n    tag_632:\n        /* \"#utility.yul\":35061:35147   */\n      swap1\n      pop\n        /* \"#utility.yul\":35194:35203   */\n      dup2\n        /* \"#utility.yul\":35188:35192   */\n      dup2\n        /* \"#utility.yul\":35184:35204   */\n      sub\n        /* \"#utility.yul\":35179:35181   */\n      0x20\n        /* \"#utility.yul\":35168:35177   */\n      dup4\n        /* \"#utility.yul\":35164:35182   */\n      add\n        /* \"#utility.yul\":35157:35205   */\n      mstore\n        /* \"#utility.yul\":35222:35300   */\n      tag_633\n        /* \"#utility.yul\":35295:35299   */\n      dup2\n        /* \"#utility.yul\":35286:35292   */\n      dup5\n        /* \"#utility.yul\":35222:35300   */\n      tag_294\n      jump\t// in\n    tag_633:\n        /* \"#utility.yul\":35214:35300   */\n      swap1\n      pop\n        /* \"#utility.yul\":34793:35307   */\n      swap4\n      swap3\n      pop\n      pop\n      pop\n      jump\t// out\n        /* \"#utility.yul\":35313:35493   */\n    tag_329:\n        /* \"#utility.yul\":35361:35438   */\n      0x4e487b7100000000000000000000000000000000000000000000000000000000\n        /* \"#utility.yul\":35358:35359   */\n      0x00\n        /* \"#utility.yul\":35351:35439   */\n      mstore\n        /* \"#utility.yul\":35458:35462   */\n      0x11\n        /* \"#utility.yul\":35455:35456   */\n      0x04\n        /* \"#utility.yul\":35448:35463   */\n      mstore\n        /* \"#utility.yul\":35482:35486   */\n      0x24\n        /* \"#utility.yul\":35479:35480   */\n      0x00\n        /* \"#utility.yul\":35472:35487   */\n      revert\n        /* \"#utility.yul\":35499:35732   */\n    tag_95:\n        /* \"#utility.yul\":35538:35541   */\n      0x00\n        /* \"#utility.yul\":35561:35585   */\n      tag_636\n        /* \"#utility.yul\":35579:35584   */\n      dup3\n        /* \"#utility.yul\":35561:35585   */\n      tag_257\n      jump\t// in\n    tag_636:\n        /* \"#utility.yul\":35552:35585   */\n      swap2\n      pop\n        /* \"#utility.yul\":35607:35673   */\n      0xffffffffffffffffffffffffffffffffffffffffffffffffffffffffffffffff\n        /* \"#utility.yul\":35600:35605   */\n      dup3\n        /* \"#utility.yul\":35597:35674   */\n      sub\n        /* \"#utility.yul\":35594:35697   */\n      tag_637\n      jumpi\n        /* \"#utility.yul\":35677:35695   */\n      tag_638\n      tag_329\n      jump\t// in\n    tag_638:\n        /* \"#utility.yul\":35594:35697   */\n    tag_637:\n        /* \"#utility.yul\":35724:35725   */\n      0x01\n        /* \"#utility.yul\":35717:35722   */\n      dup3\n        /* \"#utility.yul\":35713:35726   */\n      add\n        /* \"#utility.yul\":35706:35726   */\n      swap1\n      pop\n        /* \"#utility.yul\":35499:35732   */\n      swap2\n      swap1\n      pop\n      jump\t// out\n\n    auxdata: 0xa264697066735822122038aa777d373d438cf4f087fa6b4066aad635bc7ed6242a3ecf4d179d76cb08a664736f6c63430008180033\n}\n",
				"bytecode": {
					"linkReferences": {},
					"object": "608060405234801561000f575f80fd5b506129428061001d5f395ff3fe608060405234801561000f575f80fd5b5060043610610086575f3560e01c8063a5e807a611610059578063a5e807a614610124578063b04326d614610154578063c27a500d1461018c578063c9e9f3cf146101aa57610086565b806311ce44a01461008a578063736f9723146100ba57806374c2ad63146100d65780639f9d903a14610106575b5f80fd5b6100a4600480360381019061009f91906118d4565b6101da565b6040516100b19190611921565b60405180910390f35b6100d460048036038101906100cf9190611b58565b610205565b005b6100f060048036038101906100eb9190611c65565b61062b565b6040516100fd9190611f8a565b60405180910390f35b61010e610a94565b60405161011b9190611921565b60405180910390f35b61013e60048036038101906101399190611faa565b610a99565b60405161014b9190611f8a565b60405180910390f35b61016e60048036038101906101699190611ff1565b610ee3565b60405161018399989796959493929190612073565b60405180910390f35b6101946110de565b6040516101a19190611f8a565b60405180910390f35b6101c460048036038101906101bf9190611ff1565b61149d565b6040516101d191906121ff565b60405180910390f35b6003602052815f5260405f2081815481106101f3575f80fd5b905f5260205f20015f91509150505481565b5f875111610248576040517f08c379a000000000000000000000000000000000000000000000000000000000815260040161023f90612269565b60405180910390fd5b5f851161028a576040517f08c379a0000000000000000000000000000000000000000000000000000000008152600401610281906122d1565b60405180910390fd5b8181116102cc576040517f08c379a00000000000000000000000000000000000000000000000000000000081526004016102c39061235f565b60405180910390fd5b42811161030e576040517f08c379a0000000000000000000000000000000000000000000000000000000008152600401610305906123c7565b60405180910390fd5b600a83511115610353576040517f08c379a000000000000000000000000000000000000000000000000000000000815260040161034a9061242f565b60405180910390fd5b5f835111610396576040517f08c379a000000000000000000000000000000000000000000000000000000000815260040161038d90612497565b60405180910390fd5b5f8651116103d9576040517f08c379a00000000000000000000000000000000000000000000000000000000081526004016103d0906124ff565b60405180910390fd5b5f60015f805481526020019081526020015f2090505f54815f0181905550878160010190816104089190612717565b508681600201908161041a9190612717565b5085816003018190555033816004015f6101000a81548173ffffffffffffffffffffffffffffffffffffffff021916908373ffffffffffffffffffffffffffffffffffffffff160217905550848160050190816104779190612717565b504281600701819055508281600801819055508181600901819055505f5b845181101561055657816006018582815181106104b5576104b46127e6565b5b6020026020010151908060018154018082558091505060019003905f5260205f20015f9091909190915090816104eb9190612717565b506002858281518110610501576105006127e6565b5b6020026020010151604051610516919061284d565b90815260200160405180910390205f54908060018154018082558091505060019003905f5260205f20015f90919091909150558080600101915050610495565b5060035f3373ffffffffffffffffffffffffffffffffffffffff1673ffffffffffffffffffffffffffffffffffffffff1681526020019081526020015f205f54908060018154018082558091505060019003905f5260205f20015f90919091909150553373ffffffffffffffffffffffffffffffffffffffff165f547f74c22f9f773d1d8c02ddaa6deeeaa696cacbfea0be35360f9b2c253b13938f6f8a8a604051610603929190612863565b60405180910390a35f8081548092919061061c906128c5565b91905055505050505050505050565b60605f60035f8473ffffffffffffffffffffffffffffffffffffffff1673ffffffffffffffffffffffffffffffffffffffff1681526020019081526020015f208054806020026020016040519081016040528092919081815260200182805480156106b357602002820191905f5260205f20905b81548152602001906001019080831161069f575b505050505090505f815167ffffffffffffffff8111156106d6576106d5611952565b5b60405190808252806020026020018201604052801561070f57816020015b6106fc6117d3565b8152602001906001900390816106f45790505b5090505f5b8251811015610a895760015f848381518110610733576107326127e6565b5b602002602001015181526020019081526020015f20604051806101400160405290815f820154815260200160018201805461076d9061254a565b80601f01602080910402602001604051908101604052809291908181526020018280546107999061254a565b80156107e45780601f106107bb576101008083540402835291602001916107e4565b820191905f5260205f20905b8154815290600101906020018083116107c757829003601f168201915b505050505081526020016002820180546107fd9061254a565b80601f01602080910402602001604051908101604052809291908181526020018280546108299061254a565b80156108745780601f1061084b57610100808354040283529160200191610874565b820191905f5260205f20905b81548152906001019060200180831161085757829003601f168201915b5050505050815260200160038201548152602001600482015f9054906101000a900473ffffffffffffffffffffffffffffffffffffffff1673ffffffffffffffffffffffffffffffffffffffff1673ffffffffffffffffffffffffffffffffffffffff1681526020016005820180546108ec9061254a565b80601f01602080910402602001604051908101604052809291908181526020018280546109189061254a565b80156109635780601f1061093a57610100808354040283529160200191610963565b820191905f5260205f20905b81548152906001019060200180831161094657829003601f168201915b5050505050815260200160068201805480602002602001604051908101604052809291908181526020015f905b82821015610a38578382905f5260205f200180546109ad9061254a565b80601f01602080910402602001604051908101604052809291908181526020018280546109d99061254a565b8015610a245780601f106109fb57610100808354040283529160200191610a24565b820191905f5260205f20905b815481529060010190602001808311610a0757829003601f168201915b505050505081526020019060010190610990565b5050505081526020016007820154815260200160088201548152602001600982015481525050828281518110610a7157610a706127e6565b5b60200260200101819052508080600101915050610714565b508092505050919050565b5f5481565b60605f600283604051610aac919061284d565b9081526020016040518091039020805480602002602001604051908101604052809291908181526020018280548015610b0257602002820191905f5260205f20905b815481526020019060010190808311610aee575b505050505090505f815167ffffffffffffffff811115610b2557610b24611952565b5b604051908082528060200260200182016040528015610b5e57816020015b610b4b6117d3565b815260200190600190039081610b435790505b5090505f5b8251811015610ed85760015f848381518110610b8257610b816127e6565b5b602002602001015181526020019081526020015f20604051806101400160405290815f8201548152602001600182018054610bbc9061254a565b80601f0160208091040260200160405190810160405280929190818152602001828054610be89061254a565b8015610c335780601f10610c0a57610100808354040283529160200191610c33565b820191905f5260205f20905b815481529060010190602001808311610c1657829003601f168201915b50505050508152602001600282018054610c4c9061254a565b80601f0160208091040260200160405190810160405280929190818152602001828054610c789061254a565b8015610cc35780601f10610c9a57610100808354040283529160200191610cc3565b820191905f5260205f20905b815481529060010190602001808311610ca657829003601f168201915b5050505050815260200160038201548152602001600482015f9054906101000a900473ffffffffffffffffffffffffffffffffffffffff1673ffffffffffffffffffffffffffffffffffffffff1673ffffffffffffffffffffffffffffffffffffffff168152602001600582018054610d3b9061254a565b80601f0160208091040260200160405190810160405280929190818152602001828054610d679061254a565b8015610db25780601f10610d8957610100808354040283529160200191610db2565b820191905f5260205f20905b815481529060010190602001808311610d9557829003601f168201915b5050505050815260200160068201805480602002602001604051908101604052809291908181526020015f905b82821015610e87578382905f5260205f20018054610dfc9061254a565b80601f0160208091040260200160405190810160405280929190818152602001828054610e289061254a565b8015610e735780601f10610e4a57610100808354040283529160200191610e73565b820191905f5260205f20905b815481529060010190602001808311610e5657829003601f168201915b505050505081526020019060010190610ddf565b5050505081526020016007820154815260200160088201548152602001600982015481525050828281518110610ec057610ebf6127e6565b5b60200260200101819052508080600101915050610b63565b508092505050919050565b6001602052805f5260405f205f91509050805f015490806001018054610f089061254a565b80601f0160208091040260200160405190810160405280929190818152602001828054610f349061254a565b8015610f7f5780601f10610f5657610100808354040283529160200191610f7f565b820191905f5260205f20905b815481529060010190602001808311610f6257829003601f168201915b505050505090806002018054610f949061254a565b80601f0160208091040260200160405190810160405280929190818152602001828054610fc09061254a565b801561100b5780601f10610fe25761010080835404028352916020019161100b565b820191905f5260205f20905b815481529060010190602001808311610fee57829003601f168201915b505050505090806003015490806004015f9054906101000a900473ffffffffffffffffffffffffffffffffffffffff169080600501805461104b9061254a565b80601f01602080910402602001604051908101604052809291908181526020018280546110779061254a565b80156110c25780601f10611099576101008083540402835291602001916110c2565b820191905f5260205f20905b8154815290600101906020018083116110a557829003601f168201915b5050505050908060070154908060080154908060090154905089565b60605f805467ffffffffffffffff8111156110fc576110fb611952565b5b60405190808252806020026020018201604052801561113557816020015b6111226117d3565b81526020019060019003908161111a5790505b5090505f5b5f548110156114955760015f8281526020019081526020015f20604051806101400160405290815f82015481526020016001820180546111799061254a565b80601f01602080910402602001604051908101604052809291908181526020018280546111a59061254a565b80156111f05780601f106111c7576101008083540402835291602001916111f0565b820191905f5260205f20905b8154815290600101906020018083116111d357829003601f168201915b505050505081526020016002820180546112099061254a565b80601f01602080910402602001604051908101604052809291908181526020018280546112359061254a565b80156112805780601f1061125757610100808354040283529160200191611280565b820191905f5260205f20905b81548152906001019060200180831161126357829003601f168201915b5050505050815260200160038201548152602001600482015f9054906101000a900473ffffffffffffffffffffffffffffffffffffffff1673ffffffffffffffffffffffffffffffffffffffff1673ffffffffffffffffffffffffffffffffffffffff1681526020016005820180546112f89061254a565b80601f01602080910402602001604051908101604052809291908181526020018280546113249061254a565b801561136f5780601f106113465761010080835404028352916020019161136f565b820191905f5260205f20905b81548152906001019060200180831161135257829003601f168201915b5050505050815260200160068201805480602002602001604051908101604052809291908181526020015f905b82821015611444578382905f5260205f200180546113b99061254a565b80601f01602080910402602001604051908101604052809291908181526020018280546113e59061254a565b80156114305780601f1061140757610100808354040283529160200191611430565b820191905f5260205f20905b81548152906001019060200180831161141357829003601f168201915b50505050508152602001906001019061139c565b505050508152602001600782015481526020016008820154815260200160098201548152505082828151811061147d5761147c6127e6565b5b6020026020010181905250808060010191505061113a565b508091505090565b6114a56117d3565b60015f8381526020019081526020015f20604051806101400160405290815f82015481526020016001820180546114db9061254a565b80601f01602080910402602001604051908101604052809291908181526020018280546115079061254a565b80156115525780601f1061152957610100808354040283529160200191611552565b820191905f5260205f20905b81548152906001019060200180831161153557829003601f168201915b5050505050815260200160028201805461156b9061254a565b80601f01602080910402602001604051908101604052809291908181526020018280546115979061254a565b80156115e25780601f106115b9576101008083540402835291602001916115e2565b820191905f5260205f20905b8154815290600101906020018083116115c557829003601f168201915b5050505050815260200160038201548152602001600482015f9054906101000a900473ffffffffffffffffffffffffffffffffffffffff1673ffffffffffffffffffffffffffffffffffffffff1673ffffffffffffffffffffffffffffffffffffffff16815260200160058201805461165a9061254a565b80601f01602080910402602001604051908101604052809291908181526020018280546116869061254a565b80156116d15780601f106116a8576101008083540402835291602001916116d1565b820191905f5260205f20905b8154815290600101906020018083116116b457829003601f168201915b5050505050815260200160068201805480602002602001604051908101604052809291908181526020015f905b828210156117a6578382905f5260205f2001805461171b9061254a565b80601f01602080910402602001604051908101604052809291908181526020018280546117479061254a565b80156117925780601f1061176957610100808354040283529160200191611792565b820191905f5260205f20905b81548152906001019060200180831161177557829003601f168201915b5050505050815260200190600101906116fe565b50505050815260200160078201548152602001600882015481526020016009820154815250509050919050565b6040518061014001604052805f815260200160608152602001606081526020015f81526020015f73ffffffffffffffffffffffffffffffffffffffff16815260200160608152602001606081526020015f81526020015f81526020015f81525090565b5f604051905090565b5f80fd5b5f80fd5b5f73ffffffffffffffffffffffffffffffffffffffff82169050919050565b5f61187082611847565b9050919050565b61188081611866565b811461188a575f80fd5b50565b5f8135905061189b81611877565b92915050565b5f819050919050565b6118b3816118a1565b81146118bd575f80fd5b50565b5f813590506118ce816118aa565b92915050565b5f80604083850312156118ea576118e961183f565b5b5f6118f78582860161188d565b9250506020611908858286016118c0565b9150509250929050565b61191b816118a1565b82525050565b5f6020820190506119345f830184611912565b92915050565b5f80fd5b5f80fd5b5f601f19601f8301169050919050565b7f4e487b71000000000000000000000000000000000000000000000000000000005f52604160045260245ffd5b61198882611942565b810181811067ffffffffffffffff821117156119a7576119a6611952565b5b80604052505050565b5f6119b9611836565b90506119c5828261197f565b919050565b5f67ffffffffffffffff8211156119e4576119e3611952565b5b6119ed82611942565b9050602081019050919050565b828183375f83830152505050565b5f611a1a611a15846119ca565b6119b0565b905082815260208101848484011115611a3657611a3561193e565b5b611a418482856119fa565b509392505050565b5f82601f830112611a5d57611a5c61193a565b5b8135611a6d848260208601611a08565b91505092915050565b5f67ffffffffffffffff821115611a9057611a8f611952565b5b602082029050602081019050919050565b5f80fd5b5f611ab7611ab284611a76565b6119b0565b90508083825260208201905060208402830185811115611ada57611ad9611aa1565b5b835b81811015611b2157803567ffffffffffffffff811115611aff57611afe61193a565b5b808601611b0c8982611a49565b85526020850194505050602081019050611adc565b5050509392505050565b5f82601f830112611b3f57611b3e61193a565b5b8135611b4f848260208601611aa5565b91505092915050565b5f805f805f805f60e0888a031215611b7357611b7261183f565b5b5f88013567ffffffffffffffff811115611b9057611b8f611843565b5b611b9c8a828b01611a49565b975050602088013567ffffffffffffffff811115611bbd57611bbc611843565b5b611bc98a828b01611a49565b9650506040611bda8a828b016118c0565b955050606088013567ffffffffffffffff811115611bfb57611bfa611843565b5b611c078a828b01611a49565b945050608088013567ffffffffffffffff811115611c2857611c27611843565b5b611c348a828b01611b2b565b93505060a0611c458a828b016118c0565b92505060c0611c568a828b016118c0565b91505092959891949750929550565b5f60208284031215611c7a57611c7961183f565b5b5f611c878482850161188d565b91505092915050565b5f81519050919050565b5f82825260208201905092915050565b5f819050602082019050919050565b611cc2816118a1565b82525050565b5f81519050919050565b5f82825260208201905092915050565b5f5b83811015611cff578082015181840152602081019050611ce4565b5f8484015250505050565b5f611d1482611cc8565b611d1e8185611cd2565b9350611d2e818560208601611ce2565b611d3781611942565b840191505092915050565b611d4b81611866565b82525050565b5f81519050919050565b5f82825260208201905092915050565b5f819050602082019050919050565b5f611d858383611d0a565b905092915050565b5f602082019050919050565b5f611da382611d51565b611dad8185611d5b565b935083602082028501611dbf85611d6b565b805f5b85811015611dfa5784840389528151611ddb8582611d7a565b9450611de683611d8d565b925060208a01995050600181019050611dc2565b50829750879550505050505092915050565b5f61014083015f830151611e225f860182611cb9565b5060208301518482036020860152611e3a8282611d0a565b91505060408301518482036040860152611e548282611d0a565b9150506060830151611e696060860182611cb9565b506080830151611e7c6080860182611d42565b5060a083015184820360a0860152611e948282611d0a565b91505060c083015184820360c0860152611eae8282611d99565b91505060e0830151611ec360e0860182611cb9565b50610100830151611ed8610100860182611cb9565b50610120830151611eed610120860182611cb9565b508091505092915050565b5f611f038383611e0c565b905092915050565b5f602082019050919050565b5f611f2182611c90565b611f2b8185611c9a565b935083602082028501611f3d85611caa565b805f5b85811015611f785784840389528151611f598582611ef8565b9450611f6483611f0b565b925060208a01995050600181019050611f40565b50829750879550505050505092915050565b5f6020820190508181035f830152611fa28184611f17565b905092915050565b5f60208284031215611fbf57611fbe61183f565b5b5f82013567ffffffffffffffff811115611fdc57611fdb611843565b5b611fe884828501611a49565b91505092915050565b5f602082840312156120065761200561183f565b5b5f612013848285016118c0565b91505092915050565b5f82825260208201905092915050565b5f61203682611cc8565b612040818561201c565b9350612050818560208601611ce2565b61205981611942565b840191505092915050565b61206d81611866565b82525050565b5f610120820190506120875f83018c611912565b8181036020830152612099818b61202c565b905081810360408301526120ad818a61202c565b90506120bc6060830189611912565b6120c96080830188612064565b81810360a08301526120db818761202c565b90506120ea60c0830186611912565b6120f760e0830185611912565b612105610100830184611912565b9a9950505050505050505050565b5f61014083015f8301516121295f860182611cb9565b50602083015184820360208601526121418282611d0a565b9150506040830151848203604086015261215b8282611d0a565b91505060608301516121706060860182611cb9565b5060808301516121836080860182611d42565b5060a083015184820360a086015261219b8282611d0a565b91505060c083015184820360c08601526121b58282611d99565b91505060e08301516121ca60e0860182611cb9565b506101008301516121df610100860182611cb9565b506101208301516121f4610120860182611cb9565b508091505092915050565b5f6020820190508181035f8301526122178184612113565b905092915050565b7f5469746c652072657175697265640000000000000000000000000000000000005f82015250565b5f612253600e8361201c565b915061225e8261221f565b602082019050919050565b5f6020820190508181035f83015261228081612247565b9050919050565b7f4d617820617474656e64656573206d757374206265203e2030000000000000005f82015250565b5f6122bb60198361201c565b91506122c682612287565b602082019050919050565b5f6020820190508181035f8301526122e8816122af565b9050919050565b7f456e642074696d657374616d70206d75737420626520616674657220737461725f8201527f742074696d657374616d70000000000000000000000000000000000000000000602082015250565b5f612349602b8361201c565b9150612354826122ef565b604082019050919050565b5f6020820190508181035f8301526123768161233d565b9050919050565b7f4576656e74206d75737420626520696e207468652066757475726500000000005f82015250565b5f6123b1601b8361201c565b91506123bc8261237d565b602082019050919050565b5f6020820190508181035f8301526123de816123a5565b9050919050565b7f546f6f206d616e792074616773000000000000000000000000000000000000005f82015250565b5f612419600d8361201c565b9150612424826123e5565b602082019050919050565b5f6020820190508181035f8301526124468161240d565b9050919050565b7f4174206c65617374206f6e6520746167207265717569726564000000000000005f82015250565b5f61248160198361201c565b915061248c8261244d565b602082019050919050565b5f6020820190508181035f8301526124ae81612475565b9050919050565b7f4c6f636174696f6e2072657175697265640000000000000000000000000000005f82015250565b5f6124e960118361201c565b91506124f4826124b5565b602082019050919050565b5f6020820190508181035f830152612516816124dd565b9050919050565b7f4e487b71000000000000000000000000000000000000000000000000000000005f52602260045260245ffd5b5f600282049050600182168061256157607f821691505b6020821081036125745761257361251d565b5b50919050565b5f819050815f5260205f209050919050565b5f6020601f8301049050919050565b5f82821b905092915050565b5f600883026125d67fffffffffffffffffffffffffffffffffffffffffffffffffffffffffffffffff8261259b565b6125e0868361259b565b95508019841693508086168417925050509392505050565b5f819050919050565b5f61261b612616612611846118a1565b6125f8565b6118a1565b9050919050565b5f819050919050565b61263483612601565b61264861264082612622565b8484546125a7565b825550505050565b5f90565b61265c612650565b61266781848461262b565b505050565b5b8181101561268a5761267f5f82612654565b60018101905061266d565b5050565b601f8211156126cf576126a08161257a565b6126a98461258c565b810160208510156126b8578190505b6126cc6126c48561258c565b83018261266c565b50505b505050565b5f82821c905092915050565b5f6126ef5f19846008026126d4565b1980831691505092915050565b5f61270783836126e0565b9150826002028217905092915050565b61272082611cc8565b67ffffffffffffffff81111561273957612738611952565b5b612743825461254a565b61274e82828561268e565b5f60209050601f83116001811461277f575f841561276d578287015190505b61277785826126fc565b8655506127de565b601f19841661278d8661257a565b5f5b828110156127b45784890151825560018201915060208501945060208101905061278f565b868310156127d157848901516127cd601f8916826126e0565b8355505b6001600288020188555050505b505050505050565b7f4e487b71000000000000000000000000000000000000000000000000000000005f52603260045260245ffd5b5f81905092915050565b5f61282782611cc8565b6128318185612813565b9350612841818560208601611ce2565b80840191505092915050565b5f612858828461281d565b915081905092915050565b5f6040820190508181035f83015261287b818561202c565b9050818103602083015261288f818461202c565b90509392505050565b7f4e487b71000000000000000000000000000000000000000000000000000000005f52601160045260245ffd5b5f6128cf826118a1565b91507fffffffffffffffffffffffffffffffffffffffffffffffffffffffffffffffff820361290157612900612898565b5b60018201905091905056fea264697066735822122038aa777d373d438cf4f087fa6b4066aad635bc7ed6242a3ecf4d179d76cb08a664736f6c63430008180033",
					"opcodes": "PUSH1 0x80 PUSH1 0x40 MSTORE CALLVALUE DUP1 ISZERO PUSH2 0xF JUMPI PUSH0 DUP1 REVERT JUMPDEST POP PUSH2 0x2942 DUP1 PUSH2 0x1D PUSH0 CODECOPY PUSH0 RETURN INVALID PUSH1 0x80 PUSH1 0x40 MSTORE CALLVALUE DUP1 ISZERO PUSH2 0xF JUMPI PUSH0 DUP1 REVERT JUMPDEST POP PUSH1 0x4 CALLDATASIZE LT PUSH2 0x86 JUMPI PUSH0 CALLDATALOAD PUSH1 0xE0 SHR DUP1 PUSH4 0xA5E807A6 GT PUSH2 0x59 JUMPI DUP1 PUSH4 0xA5E807A6 EQ PUSH2 0x124 JUMPI DUP1 PUSH4 0xB04326D6 EQ PUSH2 0x154 JUMPI DUP1 PUSH4 0xC27A500D EQ PUSH2 0x18C JUMPI DUP1 PUSH4 0xC9E9F3CF EQ PUSH2 0x1AA JUMPI PUSH2 0x86 JUMP JUMPDEST DUP1 PUSH4 0x11CE44A0 EQ PUSH2 0x8A JUMPI DUP1 PUSH4 0x736F9723 EQ PUSH2 0xBA JUMPI DUP1 PUSH4 0x74C2AD63 EQ PUSH2 0xD6 JUMPI DUP1 PUSH4 0x9F9D903A EQ PUSH2 0x106 JUMPI JUMPDEST PUSH0 DUP1 REVERT JUMPDEST PUSH2 0xA4 PUSH1 0x4 DUP1 CALLDATASIZE SUB DUP2 ADD SWAP1 PUSH2 0x9F SWAP2 SWAP1 PUSH2 0x18D4 JUMP JUMPDEST PUSH2 0x1DA JUMP JUMPDEST PUSH1 0x40 MLOAD PUSH2 0xB1 SWAP2 SWAP1 PUSH2 0x1921 JUMP JUMPDEST PUSH1 0x40 MLOAD DUP1 SWAP2 SUB SWAP1 RETURN JUMPDEST PUSH2 0xD4 PUSH1 0x4 DUP1 CALLDATASIZE SUB DUP2 ADD SWAP1 PUSH2 0xCF SWAP2 SWAP1 PUSH2 0x1B58 JUMP JUMPDEST PUSH2 0x205 JUMP JUMPDEST STOP JUMPDEST PUSH2 0xF0 PUSH1 0x4 DUP1 CALLDATASIZE SUB DUP2 ADD SWAP1 PUSH2 0xEB SWAP2 SWAP1 PUSH2 0x1C65 JUMP JUMPDEST PUSH2 0x62B JUMP JUMPDEST PUSH1 0x40 MLOAD PUSH2 0xFD SWAP2 SWAP1 PUSH2 0x1F8A JUMP JUMPDEST PUSH1 0x40 MLOAD DUP1 SWAP2 SUB SWAP1 RETURN JUMPDEST PUSH2 0x10E PUSH2 0xA94 JUMP JUMPDEST PUSH1 0x40 MLOAD PUSH2 0x11B SWAP2 SWAP1 PUSH2 0x1921 JUMP JUMPDEST PUSH1 0x40 MLOAD DUP1 SWAP2 SUB SWAP1 RETURN JUMPDEST PUSH2 0x13E PUSH1 0x4 DUP1 CALLDATASIZE SUB DUP2 ADD SWAP1 PUSH2 0x139 SWAP2 SWAP1 PUSH2 0x1FAA JUMP JUMPDEST PUSH2 0xA99 JUMP JUMPDEST PUSH1 0x40 MLOAD PUSH2 0x14B SWAP2 SWAP1 PUSH2 0x1F8A JUMP JUMPDEST PUSH1 0x40 MLOAD DUP1 SWAP2 SUB SWAP1 RETURN JUMPDEST PUSH2 0x16E PUSH1 0x4 DUP1 CALLDATASIZE SUB DUP2 ADD SWAP1 PUSH2 0x169 SWAP2 SWAP1 PUSH2 0x1FF1 JUMP JUMPDEST PUSH2 0xEE3 JUMP JUMPDEST PUSH1 0x40 MLOAD PUSH2 0x183 SWAP10 SWAP9 SWAP8 SWAP7 SWAP6 SWAP5 SWAP4 SWAP3 SWAP2 SWAP1 PUSH2 0x2073 JUMP JUMPDEST PUSH1 0x40 MLOAD DUP1 SWAP2 SUB SWAP1 RETURN JUMPDEST PUSH2 0x194 PUSH2 0x10DE JUMP JUMPDEST PUSH1 0x40 MLOAD PUSH2 0x1A1 SWAP2 SWAP1 PUSH2 0x1F8A JUMP JUMPDEST PUSH1 0x40 MLOAD DUP1 SWAP2 SUB SWAP1 RETURN JUMPDEST PUSH2 0x1C4 PUSH1 0x4 DUP1 CALLDATASIZE SUB DUP2 ADD SWAP1 PUSH2 0x1BF SWAP2 SWAP1 PUSH2 0x1FF1 JUMP JUMPDEST PUSH2 0x149D JUMP JUMPDEST PUSH1 0x40 MLOAD PUSH2 0x1D1 SWAP2 SWAP1 PUSH2 0x21FF JUMP JUMPDEST PUSH1 0x40 MLOAD DUP1 SWAP2 SUB SWAP1 RETURN JUMPDEST PUSH1 0x3 PUSH1 0x20 MSTORE DUP2 PUSH0 MSTORE PUSH1 0x40 PUSH0 KECCAK256 DUP2 DUP2 SLOAD DUP2 LT PUSH2 0x1F3 JUMPI PUSH0 DUP1 REVERT JUMPDEST SWAP1 PUSH0 MSTORE PUSH1 0x20 PUSH0 KECCAK256 ADD PUSH0 SWAP2 POP SWAP2 POP POP SLOAD DUP2 JUMP JUMPDEST PUSH0 DUP8 MLOAD GT PUSH2 0x248 JUMPI PUSH1 0x40 MLOAD PUSH32 0x8C379A000000000000000000000000000000000000000000000000000000000 DUP2 MSTORE PUSH1 0x4 ADD PUSH2 0x23F SWAP1 PUSH2 0x2269 JUMP JUMPDEST PUSH1 0x40 MLOAD DUP1 SWAP2 SUB SWAP1 REVERT JUMPDEST PUSH0 DUP6 GT PUSH2 0x28A JUMPI PUSH1 0x40 MLOAD PUSH32 0x8C379A000000000000000000000000000000000000000000000000000000000 DUP2 MSTORE PUSH1 0x4 ADD PUSH2 0x281 SWAP1 PUSH2 0x22D1 JUMP JUMPDEST PUSH1 0x40 MLOAD DUP1 SWAP2 SUB SWAP1 REVERT JUMPDEST DUP2 DUP2 GT PUSH2 0x2CC JUMPI PUSH1 0x40 MLOAD PUSH32 0x8C379A000000000000000000000000000000000000000000000000000000000 DUP2 MSTORE PUSH1 0x4 ADD PUSH2 0x2C3 SWAP1 PUSH2 0x235F JUMP JUMPDEST PUSH1 0x40 MLOAD DUP1 SWAP2 SUB SWAP1 REVERT JUMPDEST TIMESTAMP DUP2 GT PUSH2 0x30E JUMPI PUSH1 0x40 MLOAD PUSH32 0x8C379A000000000000000000000000000000000000000000000000000000000 DUP2 MSTORE PUSH1 0x4 ADD PUSH2 0x305 SWAP1 PUSH2 0x23C7 JUMP JUMPDEST PUSH1 0x40 MLOAD DUP1 SWAP2 SUB SWAP1 REVERT JUMPDEST PUSH1 0xA DUP4 MLOAD GT ISZERO PUSH2 0x353 JUMPI PUSH1 0x40 MLOAD PUSH32 0x8C379A000000000000000000000000000000000000000000000000000000000 DUP2 MSTORE PUSH1 0x4 ADD PUSH2 0x34A SWAP1 PUSH2 0x242F JUMP JUMPDEST PUSH1 0x40 MLOAD DUP1 SWAP2 SUB SWAP1 REVERT JUMPDEST PUSH0 DUP4 MLOAD GT PUSH2 0x396 JUMPI PUSH1 0x40 MLOAD PUSH32 0x8C379A000000000000000000000000000000000000000000000000000000000 DUP2 MSTORE PUSH1 0x4 ADD PUSH2 0x38D SWAP1 PUSH2 0x2497 JUMP JUMPDEST PUSH1 0x40 MLOAD DUP1 SWAP2 SUB SWAP1 REVERT JUMPDEST PUSH0 DUP7 MLOAD GT PUSH2 0x3D9 JUMPI PUSH1 0x40 MLOAD PUSH32 0x8C379A000000000000000000000000000000000000000000000000000000000 DUP2 MSTORE PUSH1 0x4 ADD PUSH2 0x3D0 SWAP1 PUSH2 0x24FF JUMP JUMPDEST PUSH1 0x40 MLOAD DUP1 SWAP2 SUB SWAP1 REVERT JUMPDEST PUSH0 PUSH1 0x1 PUSH0 DUP1 SLOAD DUP2 MSTORE PUSH1 0x20 ADD SWAP1 DUP2 MSTORE PUSH1 0x20 ADD PUSH0 KECCAK256 SWAP1 POP PUSH0 SLOAD DUP2 PUSH0 ADD DUP2 SWAP1 SSTORE POP DUP8 DUP2 PUSH1 0x1 ADD SWAP1 DUP2 PUSH2 0x408 SWAP2 SWAP1 PUSH2 0x2717 JUMP JUMPDEST POP DUP7 DUP2 PUSH1 0x2 ADD SWAP1 DUP2 PUSH2 0x41A SWAP2 SWAP1 PUSH2 0x2717 JUMP JUMPDEST POP DUP6 DUP2 PUSH1 0x3 ADD DUP2 SWAP1 SSTORE POP CALLER DUP2 PUSH1 0x4 ADD PUSH0 PUSH2 0x100 EXP DUP2 SLOAD DUP2 PUSH20 0xFFFFFFFFFFFFFFFFFFFFFFFFFFFFFFFFFFFFFFFF MUL NOT AND SWAP1 DUP4 PUSH20 0xFFFFFFFFFFFFFFFFFFFFFFFFFFFFFFFFFFFFFFFF AND MUL OR SWAP1 SSTORE POP DUP5 DUP2 PUSH1 0x5 ADD SWAP1 DUP2 PUSH2 0x477 SWAP2 SWAP1 PUSH2 0x2717 JUMP JUMPDEST POP TIMESTAMP DUP2 PUSH1 0x7 ADD DUP2 SWAP1 SSTORE POP DUP3 DUP2 PUSH1 0x8 ADD DUP2 SWAP1 SSTORE POP DUP2 DUP2 PUSH1 0x9 ADD DUP2 SWAP1 SSTORE POP PUSH0 JUMPDEST DUP5 MLOAD DUP2 LT ISZERO PUSH2 0x556 JUMPI DUP2 PUSH1 0x6 ADD DUP6 DUP3 DUP2 MLOAD DUP2 LT PUSH2 0x4B5 JUMPI PUSH2 0x4B4 PUSH2 0x27E6 JUMP JUMPDEST JUMPDEST PUSH1 0x20 MUL PUSH1 0x20 ADD ADD MLOAD SWAP1 DUP1 PUSH1 0x1 DUP2 SLOAD ADD DUP1 DUP3 SSTORE DUP1 SWAP2 POP POP PUSH1 0x1 SWAP1 SUB SWAP1 PUSH0 MSTORE PUSH1 0x20 PUSH0 KECCAK256 ADD PUSH0 SWAP1 SWAP2 SWAP1 SWAP2 SWAP1 SWAP2 POP SWAP1 DUP2 PUSH2 0x4EB SWAP2 SWAP1 PUSH2 0x2717 JUMP JUMPDEST POP PUSH1 0x2 DUP6 DUP3 DUP2 MLOAD DUP2 LT PUSH2 0x501 JUMPI PUSH2 0x500 PUSH2 0x27E6 JUMP JUMPDEST JUMPDEST PUSH1 0x20 MUL PUSH1 0x20 ADD ADD MLOAD PUSH1 0x40 MLOAD PUSH2 0x516 SWAP2 SWAP1 PUSH2 0x284D JUMP JUMPDEST SWAP1 DUP2 MSTORE PUSH1 0x20 ADD PUSH1 0x40 MLOAD DUP1 SWAP2 SUB SWAP1 KECCAK256 PUSH0 SLOAD SWAP1 DUP1 PUSH1 0x1 DUP2 SLOAD ADD DUP1 DUP3 SSTORE DUP1 SWAP2 POP POP PUSH1 0x1 SWAP1 SUB SWAP1 PUSH0 MSTORE PUSH1 0x20 PUSH0 KECCAK256 ADD PUSH0 SWAP1 SWAP2 SWAP1 SWAP2 SWAP1 SWAP2 POP SSTORE DUP1 DUP1 PUSH1 0x1 ADD SWAP2 POP POP PUSH2 0x495 JUMP JUMPDEST POP PUSH1 0x3 PUSH0 CALLER PUSH20 0xFFFFFFFFFFFFFFFFFFFFFFFFFFFFFFFFFFFFFFFF AND PUSH20 0xFFFFFFFFFFFFFFFFFFFFFFFFFFFFFFFFFFFFFFFF AND DUP2 MSTORE PUSH1 0x20 ADD SWAP1 DUP2 MSTORE PUSH1 0x20 ADD PUSH0 KECCAK256 PUSH0 SLOAD SWAP1 DUP1 PUSH1 0x1 DUP2 SLOAD ADD DUP1 DUP3 SSTORE DUP1 SWAP2 POP POP PUSH1 0x1 SWAP1 SUB SWAP1 PUSH0 MSTORE PUSH1 0x20 PUSH0 KECCAK256 ADD PUSH0 SWAP1 SWAP2 SWAP1 SWAP2 SWAP1 SWAP2 POP SSTORE CALLER PUSH20 0xFFFFFFFFFFFFFFFFFFFFFFFFFFFFFFFFFFFFFFFF AND PUSH0 SLOAD PUSH32 0x74C22F9F773D1D8C02DDAA6DEEEAA696CACBFEA0BE35360F9B2C253B13938F6F DUP11 DUP11 PUSH1 0x40 MLOAD PUSH2 0x603 SWAP3 SWAP2 SWAP1 PUSH2 0x2863 JUMP JUMPDEST PUSH1 0x40 MLOAD DUP1 SWAP2 SUB SWAP1 LOG3 PUSH0 DUP1 DUP2 SLOAD DUP1 SWAP3 SWAP2 SWAP1 PUSH2 0x61C SWAP1 PUSH2 0x28C5 JUMP JUMPDEST SWAP2 SWAP1 POP SSTORE POP POP POP POP POP POP POP POP POP JUMP JUMPDEST PUSH1 0x60 PUSH0 PUSH1 0x3 PUSH0 DUP5 PUSH20 0xFFFFFFFFFFFFFFFFFFFFFFFFFFFFFFFFFFFFFFFF AND PUSH20 0xFFFFFFFFFFFFFFFFFFFFFFFFFFFFFFFFFFFFFFFF AND DUP2 MSTORE PUSH1 0x20 ADD SWAP1 DUP2 MSTORE PUSH1 0x20 ADD PUSH0 KECCAK256 DUP1 SLOAD DUP1 PUSH1 0x20 MUL PUSH1 0x20 ADD PUSH1 0x40 MLOAD SWAP1 DUP2 ADD PUSH1 0x40 MSTORE DUP1 SWAP3 SWAP2 SWAP1 DUP2 DUP2 MSTORE PUSH1 0x20 ADD DUP3 DUP1 SLOAD DUP1 ISZERO PUSH2 0x6B3 JUMPI PUSH1 0x20 MUL DUP3 ADD SWAP2 SWAP1 PUSH0 MSTORE PUSH1 0x20 PUSH0 KECCAK256 SWAP1 JUMPDEST DUP2 SLOAD DUP2 MSTORE PUSH1 0x20 ADD SWAP1 PUSH1 0x1 ADD SWAP1 DUP1 DUP4 GT PUSH2 0x69F JUMPI JUMPDEST POP POP POP POP POP SWAP1 POP PUSH0 DUP2 MLOAD PUSH8 0xFFFFFFFFFFFFFFFF DUP2 GT ISZERO PUSH2 0x6D6 JUMPI PUSH2 0x6D5 PUSH2 0x1952 JUMP JUMPDEST JUMPDEST PUSH1 0x40 MLOAD SWAP1 DUP1 DUP3 MSTORE DUP1 PUSH1 0x20 MUL PUSH1 0x20 ADD DUP3 ADD PUSH1 0x40 MSTORE DUP1 ISZERO PUSH2 0x70F JUMPI DUP2 PUSH1 0x20 ADD JUMPDEST PUSH2 0x6FC PUSH2 0x17D3 JUMP JUMPDEST DUP2 MSTORE PUSH1 0x20 ADD SWAP1 PUSH1 0x1 SWAP1 SUB SWAP1 DUP2 PUSH2 0x6F4 JUMPI SWAP1 POP JUMPDEST POP SWAP1 POP PUSH0 JUMPDEST DUP3 MLOAD DUP2 LT ISZERO PUSH2 0xA89 JUMPI PUSH1 0x1 PUSH0 DUP5 DUP4 DUP2 MLOAD DUP2 LT PUSH2 0x733 JUMPI PUSH2 0x732 PUSH2 0x27E6 JUMP JUMPDEST JUMPDEST PUSH1 0x20 MUL PUSH1 0x20 ADD ADD MLOAD DUP2 MSTORE PUSH1 0x20 ADD SWAP1 DUP2 MSTORE PUSH1 0x20 ADD PUSH0 KECCAK256 PUSH1 0x40 MLOAD DUP1 PUSH2 0x140 ADD PUSH1 0x40 MSTORE SWAP1 DUP2 PUSH0 DUP3 ADD SLOAD DUP2 MSTORE PUSH1 0x20 ADD PUSH1 0x1 DUP3 ADD DUP1 SLOAD PUSH2 0x76D SWAP1 PUSH2 0x254A JUMP JUMPDEST DUP1 PUSH1 0x1F ADD PUSH1 0x20 DUP1 SWAP2 DIV MUL PUSH1 0x20 ADD PUSH1 0x40 MLOAD SWAP1 DUP2 ADD PUSH1 0x40 MSTORE DUP1 SWAP3 SWAP2 SWAP1 DUP2 DUP2 MSTORE PUSH1 0x20 ADD DUP3 DUP1 SLOAD PUSH2 0x799 SWAP1 PUSH2 0x254A JUMP JUMPDEST DUP1 ISZERO PUSH2 0x7E4 JUMPI DUP1 PUSH1 0x1F LT PUSH2 0x7BB JUMPI PUSH2 0x100 DUP1 DUP4 SLOAD DIV MUL DUP4 MSTORE SWAP2 PUSH1 0x20 ADD SWAP2 PUSH2 0x7E4 JUMP JUMPDEST DUP3 ADD SWAP2 SWAP1 PUSH0 MSTORE PUSH1 0x20 PUSH0 KECCAK256 SWAP1 JUMPDEST DUP2 SLOAD DUP2 MSTORE SWAP1 PUSH1 0x1 ADD SWAP1 PUSH1 0x20 ADD DUP1 DUP4 GT PUSH2 0x7C7 JUMPI DUP3 SWAP1 SUB PUSH1 0x1F AND DUP3 ADD SWAP2 JUMPDEST POP POP POP POP POP DUP2 MSTORE PUSH1 0x20 ADD PUSH1 0x2 DUP3 ADD DUP1 SLOAD PUSH2 0x7FD SWAP1 PUSH2 0x254A JUMP JUMPDEST DUP1 PUSH1 0x1F ADD PUSH1 0x20 DUP1 SWAP2 DIV MUL PUSH1 0x20 ADD PUSH1 0x40 MLOAD SWAP1 DUP2 ADD PUSH1 0x40 MSTORE DUP1 SWAP3 SWAP2 SWAP1 DUP2 DUP2 MSTORE PUSH1 0x20 ADD DUP3 DUP1 SLOAD PUSH2 0x829 SWAP1 PUSH2 0x254A JUMP JUMPDEST DUP1 ISZERO PUSH2 0x874 JUMPI DUP1 PUSH1 0x1F LT PUSH2 0x84B JUMPI PUSH2 0x100 DUP1 DUP4 SLOAD DIV MUL DUP4 MSTORE SWAP2 PUSH1 0x20 ADD SWAP2 PUSH2 0x874 JUMP JUMPDEST DUP3 ADD SWAP2 SWAP1 PUSH0 MSTORE PUSH1 0x20 PUSH0 KECCAK256 SWAP1 JUMPDEST DUP2 SLOAD DUP2 MSTORE SWAP1 PUSH1 0x1 ADD SWAP1 PUSH1 0x20 ADD DUP1 DUP4 GT PUSH2 0x857 JUMPI DUP3 SWAP1 SUB PUSH1 0x1F AND DUP3 ADD SWAP2 JUMPDEST POP POP POP POP POP DUP2 MSTORE PUSH1 0x20 ADD PUSH1 0x3 DUP3 ADD SLOAD DUP2 MSTORE PUSH1 0x20 ADD PUSH1 0x4 DUP3 ADD PUSH0 SWAP1 SLOAD SWAP1 PUSH2 0x100 EXP SWAP1 DIV PUSH20 0xFFFFFFFFFFFFFFFFFFFFFFFFFFFFFFFFFFFFFFFF AND PUSH20 0xFFFFFFFFFFFFFFFFFFFFFFFFFFFFFFFFFFFFFFFF AND PUSH20 0xFFFFFFFFFFFFFFFFFFFFFFFFFFFFFFFFFFFFFFFF AND DUP2 MSTORE PUSH1 0x20 ADD PUSH1 0x5 DUP3 ADD DUP1 SLOAD PUSH2 0x8EC SWAP1 PUSH2 0x254A JUMP JUMPDEST DUP1 PUSH1 0x1F ADD PUSH1 0x20 DUP1 SWAP2 DIV MUL PUSH1 0x20 ADD PUSH1 0x40 MLOAD SWAP1 DUP2 ADD PUSH1 0x40 MSTORE DUP1 SWAP3 SWAP2 SWAP1 DUP2 DUP2 MSTORE PUSH1 0x20 ADD DUP3 DUP1 SLOAD PUSH2 0x918 SWAP1 PUSH2 0x254A JUMP JUMPDEST DUP1 ISZERO PUSH2 0x963 JUMPI DUP1 PUSH1 0x1F LT PUSH2 0x93A JUMPI PUSH2 0x100 DUP1 DUP4 SLOAD DIV MUL DUP4 MSTORE SWAP2 PUSH1 0x20 ADD SWAP2 PUSH2 0x963 JUMP JUMPDEST DUP3 ADD SWAP2 SWAP1 PUSH0 MSTORE PUSH1 0x20 PUSH0 KECCAK256 SWAP1 JUMPDEST DUP2 SLOAD DUP2 MSTORE SWAP1 PUSH1 0x1 ADD SWAP1 PUSH1 0x20 ADD DUP1 DUP4 GT PUSH2 0x946 JUMPI DUP3 SWAP1 SUB PUSH1 0x1F AND DUP3 ADD SWAP2 JUMPDEST POP POP POP POP POP DUP2 MSTORE PUSH1 0x20 ADD PUSH1 0x6 DUP3 ADD DUP1 SLOAD DUP1 PUSH1 0x20 MUL PUSH1 0x20 ADD PUSH1 0x40 MLOAD SWAP1 DUP2 ADD PUSH1 0x40 MSTORE DUP1 SWAP3 SWAP2 SWAP1 DUP2 DUP2 MSTORE PUSH1 0x20 ADD PUSH0 SWAP1 JUMPDEST DUP3 DUP3 LT ISZERO PUSH2 0xA38 JUMPI DUP4 DUP3 SWAP1 PUSH0 MSTORE PUSH1 0x20 PUSH0 KECCAK256 ADD DUP1 SLOAD PUSH2 0x9AD SWAP1 PUSH2 0x254A JUMP JUMPDEST DUP1 PUSH1 0x1F ADD PUSH1 0x20 DUP1 SWAP2 DIV MUL PUSH1 0x20 ADD PUSH1 0x40 MLOAD SWAP1 DUP2 ADD PUSH1 0x40 MSTORE DUP1 SWAP3 SWAP2 SWAP1 DUP2 DUP2 MSTORE PUSH1 0x20 ADD DUP3 DUP1 SLOAD PUSH2 0x9D9 SWAP1 PUSH2 0x254A JUMP JUMPDEST DUP1 ISZERO PUSH2 0xA24 JUMPI DUP1 PUSH1 0x1F LT PUSH2 0x9FB JUMPI PUSH2 0x100 DUP1 DUP4 SLOAD DIV MUL DUP4 MSTORE SWAP2 PUSH1 0x20 ADD SWAP2 PUSH2 0xA24 JUMP JUMPDEST DUP3 ADD SWAP2 SWAP1 PUSH0 MSTORE PUSH1 0x20 PUSH0 KECCAK256 SWAP1 JUMPDEST DUP2 SLOAD DUP2 MSTORE SWAP1 PUSH1 0x1 ADD SWAP1 PUSH1 0x20 ADD DUP1 DUP4 GT PUSH2 0xA07 JUMPI DUP3 SWAP1 SUB PUSH1 0x1F AND DUP3 ADD SWAP2 JUMPDEST POP POP POP POP POP DUP2 MSTORE PUSH1 0x20 ADD SWAP1 PUSH1 0x1 ADD SWAP1 PUSH2 0x990 JUMP JUMPDEST POP POP POP POP DUP2 MSTORE PUSH1 0x20 ADD PUSH1 0x7 DUP3 ADD SLOAD DUP2 MSTORE PUSH1 0x20 ADD PUSH1 0x8 DUP3 ADD SLOAD DUP2 MSTORE PUSH1 0x20 ADD PUSH1 0x9 DUP3 ADD SLOAD DUP2 MSTORE POP POP DUP3 DUP3 DUP2 MLOAD DUP2 LT PUSH2 0xA71 JUMPI PUSH2 0xA70 PUSH2 0x27E6 JUMP JUMPDEST JUMPDEST PUSH1 0x20 MUL PUSH1 0x20 ADD ADD DUP2 SWAP1 MSTORE POP DUP1 DUP1 PUSH1 0x1 ADD SWAP2 POP POP PUSH2 0x714 JUMP JUMPDEST POP DUP1 SWAP3 POP POP POP SWAP2 SWAP1 POP JUMP JUMPDEST PUSH0 SLOAD DUP2 JUMP JUMPDEST PUSH1 0x60 PUSH0 PUSH1 0x2 DUP4 PUSH1 0x40 MLOAD PUSH2 0xAAC SWAP2 SWAP1 PUSH2 0x284D JUMP JUMPDEST SWAP1 DUP2 MSTORE PUSH1 0x20 ADD PUSH1 0x40 MLOAD DUP1 SWAP2 SUB SWAP1 KECCAK256 DUP1 SLOAD DUP1 PUSH1 0x20 MUL PUSH1 0x20 ADD PUSH1 0x40 MLOAD SWAP1 DUP2 ADD PUSH1 0x40 MSTORE DUP1 SWAP3 SWAP2 SWAP1 DUP2 DUP2 MSTORE PUSH1 0x20 ADD DUP3 DUP1 SLOAD DUP1 ISZERO PUSH2 0xB02 JUMPI PUSH1 0x20 MUL DUP3 ADD SWAP2 SWAP1 PUSH0 MSTORE PUSH1 0x20 PUSH0 KECCAK256 SWAP1 JUMPDEST DUP2 SLOAD DUP2 MSTORE PUSH1 0x20 ADD SWAP1 PUSH1 0x1 ADD SWAP1 DUP1 DUP4 GT PUSH2 0xAEE JUMPI JUMPDEST POP POP POP POP POP SWAP1 POP PUSH0 DUP2 MLOAD PUSH8 0xFFFFFFFFFFFFFFFF DUP2 GT ISZERO PUSH2 0xB25 JUMPI PUSH2 0xB24 PUSH2 0x1952 JUMP JUMPDEST JUMPDEST PUSH1 0x40 MLOAD SWAP1 DUP1 DUP3 MSTORE DUP1 PUSH1 0x20 MUL PUSH1 0x20 ADD DUP3 ADD PUSH1 0x40 MSTORE DUP1 ISZERO PUSH2 0xB5E JUMPI DUP2 PUSH1 0x20 ADD JUMPDEST PUSH2 0xB4B PUSH2 0x17D3 JUMP JUMPDEST DUP2 MSTORE PUSH1 0x20 ADD SWAP1 PUSH1 0x1 SWAP1 SUB SWAP1 DUP2 PUSH2 0xB43 JUMPI SWAP1 POP JUMPDEST POP SWAP1 POP PUSH0 JUMPDEST DUP3 MLOAD DUP2 LT ISZERO PUSH2 0xED8 JUMPI PUSH1 0x1 PUSH0 DUP5 DUP4 DUP2 MLOAD DUP2 LT PUSH2 0xB82 JUMPI PUSH2 0xB81 PUSH2 0x27E6 JUMP JUMPDEST JUMPDEST PUSH1 0x20 MUL PUSH1 0x20 ADD ADD MLOAD DUP2 MSTORE PUSH1 0x20 ADD SWAP1 DUP2 MSTORE PUSH1 0x20 ADD PUSH0 KECCAK256 PUSH1 0x40 MLOAD DUP1 PUSH2 0x140 ADD PUSH1 0x40 MSTORE SWAP1 DUP2 PUSH0 DUP3 ADD SLOAD DUP2 MSTORE PUSH1 0x20 ADD PUSH1 0x1 DUP3 ADD DUP1 SLOAD PUSH2 0xBBC SWAP1 PUSH2 0x254A JUMP JUMPDEST DUP1 PUSH1 0x1F ADD PUSH1 0x20 DUP1 SWAP2 DIV MUL PUSH1 0x20 ADD PUSH1 0x40 MLOAD SWAP1 DUP2 ADD PUSH1 0x40 MSTORE DUP1 SWAP3 SWAP2 SWAP1 DUP2 DUP2 MSTORE PUSH1 0x20 ADD DUP3 DUP1 SLOAD PUSH2 0xBE8 SWAP1 PUSH2 0x254A JUMP JUMPDEST DUP1 ISZERO PUSH2 0xC33 JUMPI DUP1 PUSH1 0x1F LT PUSH2 0xC0A JUMPI PUSH2 0x100 DUP1 DUP4 SLOAD DIV MUL DUP4 MSTORE SWAP2 PUSH1 0x20 ADD SWAP2 PUSH2 0xC33 JUMP JUMPDEST DUP3 ADD SWAP2 SWAP1 PUSH0 MSTORE PUSH1 0x20 PUSH0 KECCAK256 SWAP1 JUMPDEST DUP2 SLOAD DUP2 MSTORE SWAP1 PUSH1 0x1 ADD SWAP1 PUSH1 0x20 ADD DUP1 DUP4 GT PUSH2 0xC16 JUMPI DUP3 SWAP1 SUB PUSH1 0x1F AND DUP3 ADD SWAP2 JUMPDEST POP POP POP POP POP DUP2 MSTORE PUSH1 0x20 ADD PUSH1 0x2 DUP3 ADD DUP1 SLOAD PUSH2 0xC4C SWAP1 PUSH2 0x254A JUMP JUMPDEST DUP1 PUSH1 0x1F ADD PUSH1 0x20 DUP1 SWAP2 DIV MUL PUSH1 0x20 ADD PUSH1 0x40 MLOAD SWAP1 DUP2 ADD PUSH1 0x40 MSTORE DUP1 SWAP3 SWAP2 SWAP1 DUP2 DUP2 MSTORE PUSH1 0x20 ADD DUP3 DUP1 SLOAD PUSH2 0xC78 SWAP1 PUSH2 0x254A JUMP JUMPDEST DUP1 ISZERO PUSH2 0xCC3 JUMPI DUP1 PUSH1 0x1F LT PUSH2 0xC9A JUMPI PUSH2 0x100 DUP1 DUP4 SLOAD DIV MUL DUP4 MSTORE SWAP2 PUSH1 0x20 ADD SWAP2 PUSH2 0xCC3 JUMP JUMPDEST DUP3 ADD SWAP2 SWAP1 PUSH0 MSTORE PUSH1 0x20 PUSH0 KECCAK256 SWAP1 JUMPDEST DUP2 SLOAD DUP2 MSTORE SWAP1 PUSH1 0x1 ADD SWAP1 PUSH1 0x20 ADD DUP1 DUP4 GT PUSH2 0xCA6 JUMPI DUP3 SWAP1 SUB PUSH1 0x1F AND DUP3 ADD SWAP2 JUMPDEST POP POP POP POP POP DUP2 MSTORE PUSH1 0x20 ADD PUSH1 0x3 DUP3 ADD SLOAD DUP2 MSTORE PUSH1 0x20 ADD PUSH1 0x4 DUP3 ADD PUSH0 SWAP1 SLOAD SWAP1 PUSH2 0x100 EXP SWAP1 DIV PUSH20 0xFFFFFFFFFFFFFFFFFFFFFFFFFFFFFFFFFFFFFFFF AND PUSH20 0xFFFFFFFFFFFFFFFFFFFFFFFFFFFFFFFFFFFFFFFF AND PUSH20 0xFFFFFFFFFFFFFFFFFFFFFFFFFFFFFFFFFFFFFFFF AND DUP2 MSTORE PUSH1 0x20 ADD PUSH1 0x5 DUP3 ADD DUP1 SLOAD PUSH2 0xD3B SWAP1 PUSH2 0x254A JUMP JUMPDEST DUP1 PUSH1 0x1F ADD PUSH1 0x20 DUP1 SWAP2 DIV MUL PUSH1 0x20 ADD PUSH1 0x40 MLOAD SWAP1 DUP2 ADD PUSH1 0x40 MSTORE DUP1 SWAP3 SWAP2 SWAP1 DUP2 DUP2 MSTORE PUSH1 0x20 ADD DUP3 DUP1 SLOAD PUSH2 0xD67 SWAP1 PUSH2 0x254A JUMP JUMPDEST DUP1 ISZERO PUSH2 0xDB2 JUMPI DUP1 PUSH1 0x1F LT PUSH2 0xD89 JUMPI PUSH2 0x100 DUP1 DUP4 SLOAD DIV MUL DUP4 MSTORE SWAP2 PUSH1 0x20 ADD SWAP2 PUSH2 0xDB2 JUMP JUMPDEST DUP3 ADD SWAP2 SWAP1 PUSH0 MSTORE PUSH1 0x20 PUSH0 KECCAK256 SWAP1 JUMPDEST DUP2 SLOAD DUP2 MSTORE SWAP1 PUSH1 0x1 ADD SWAP1 PUSH1 0x20 ADD DUP1 DUP4 GT PUSH2 0xD95 JUMPI DUP3 SWAP1 SUB PUSH1 0x1F AND DUP3 ADD SWAP2 JUMPDEST POP POP POP POP POP DUP2 MSTORE PUSH1 0x20 ADD PUSH1 0x6 DUP3 ADD DUP1 SLOAD DUP1 PUSH1 0x20 MUL PUSH1 0x20 ADD PUSH1 0x40 MLOAD SWAP1 DUP2 ADD PUSH1 0x40 MSTORE DUP1 SWAP3 SWAP2 SWAP1 DUP2 DUP2 MSTORE PUSH1 0x20 ADD PUSH0 SWAP1 JUMPDEST DUP3 DUP3 LT ISZERO PUSH2 0xE87 JUMPI DUP4 DUP3 SWAP1 PUSH0 MSTORE PUSH1 0x20 PUSH0 KECCAK256 ADD DUP1 SLOAD PUSH2 0xDFC SWAP1 PUSH2 0x254A JUMP JUMPDEST DUP1 PUSH1 0x1F ADD PUSH1 0x20 DUP1 SWAP2 DIV MUL PUSH1 0x20 ADD PUSH1 0x40 MLOAD SWAP1 DUP2 ADD PUSH1 0x40 MSTORE DUP1 SWAP3 SWAP2 SWAP1 DUP2 DUP2 MSTORE PUSH1 0x20 ADD DUP3 DUP1 SLOAD PUSH2 0xE28 SWAP1 PUSH2 0x254A JUMP JUMPDEST DUP1 ISZERO PUSH2 0xE73 JUMPI DUP1 PUSH1 0x1F LT PUSH2 0xE4A JUMPI PUSH2 0x100 DUP1 DUP4 SLOAD DIV MUL DUP4 MSTORE SWAP2 PUSH1 0x20 ADD SWAP2 PUSH2 0xE73 JUMP JUMPDEST DUP3 ADD SWAP2 SWAP1 PUSH0 MSTORE PUSH1 0x20 PUSH0 KECCAK256 SWAP1 JUMPDEST DUP2 SLOAD DUP2 MSTORE SWAP1 PUSH1 0x1 ADD SWAP1 PUSH1 0x20 ADD DUP1 DUP4 GT PUSH2 0xE56 JUMPI DUP3 SWAP1 SUB PUSH1 0x1F AND DUP3 ADD SWAP2 JUMPDEST POP POP POP POP POP DUP2 MSTORE PUSH1 0x20 ADD SWAP1 PUSH1 0x1 ADD SWAP1 PUSH2 0xDDF JUMP JUMPDEST POP POP POP POP DUP2 MSTORE PUSH1 0x20 ADD PUSH1 0x7 DUP3 ADD SLOAD DUP2 MSTORE PUSH1 0x20 ADD PUSH1 0x8 DUP3 ADD SLOAD DUP2 MSTORE PUSH1 0x20 ADD PUSH1 0x9 DUP3 ADD SLOAD DUP2 MSTORE POP POP DUP3 DUP3 DUP2 MLOAD DUP2 LT PUSH2 0xEC0 JUMPI PUSH2 0xEBF PUSH2 0x27E6 JUMP JUMPDEST JUMPDEST PUSH1 0x20 MUL PUSH1 0x20 ADD ADD DUP2 SWAP1 MSTORE POP DUP1 DUP1 PUSH1 0x1 ADD SWAP2 POP POP PUSH2 0xB63 JUMP JUMPDEST POP DUP1 SWAP3 POP POP POP SWAP2 SWAP1 POP JUMP JUMPDEST PUSH1 0x1 PUSH1 0x20 MSTORE DUP1 PUSH0 MSTORE PUSH1 0x40 PUSH0 KECCAK256 PUSH0 SWAP2 POP SWAP1 POP DUP1 PUSH0 ADD SLOAD SWAP1 DUP1 PUSH1 0x1 ADD DUP1 SLOAD PUSH2 0xF08 SWAP1 PUSH2 0x254A JUMP JUMPDEST DUP1 PUSH1 0x1F ADD PUSH1 0x20 DUP1 SWAP2 DIV MUL PUSH1 0x20 ADD PUSH1 0x40 MLOAD SWAP1 DUP2 ADD PUSH1 0x40 MSTORE DUP1 SWAP3 SWAP2 SWAP1 DUP2 DUP2 MSTORE PUSH1 0x20 ADD DUP3 DUP1 SLOAD PUSH2 0xF34 SWAP1 PUSH2 0x254A JUMP JUMPDEST DUP1 ISZERO PUSH2 0xF7F JUMPI DUP1 PUSH1 0x1F LT PUSH2 0xF56 JUMPI PUSH2 0x100 DUP1 DUP4 SLOAD DIV MUL DUP4 MSTORE SWAP2 PUSH1 0x20 ADD SWAP2 PUSH2 0xF7F JUMP JUMPDEST DUP3 ADD SWAP2 SWAP1 PUSH0 MSTORE PUSH1 0x20 PUSH0 KECCAK256 SWAP1 JUMPDEST DUP2 SLOAD DUP2 MSTORE SWAP1 PUSH1 0x1 ADD SWAP1 PUSH1 0x20 ADD DUP1 DUP4 GT PUSH2 0xF62 JUMPI DUP3 SWAP1 SUB PUSH1 0x1F AND DUP3 ADD SWAP2 JUMPDEST POP POP POP POP POP SWAP1 DUP1 PUSH1 0x2 ADD DUP1 SLOAD PUSH2 0xF94 SWAP1 PUSH2 0x254A JUMP JUMPDEST DUP1 PUSH1 0x1F ADD PUSH1 0x20 DUP1 SWAP2 DIV MUL PUSH1 0x20 ADD PUSH1 0x40 MLOAD SWAP1 DUP2 ADD PUSH1 0x40 MSTORE DUP1 SWAP3 SWAP2 SWAP1 DUP2 DUP2 MSTORE PUSH1 0x20 ADD DUP3 DUP1 SLOAD PUSH2 0xFC0 SWAP1 PUSH2 0x254A JUMP JUMPDEST DUP1 ISZERO PUSH2 0x100B JUMPI DUP1 PUSH1 0x1F LT PUSH2 0xFE2 JUMPI PUSH2 0x100 DUP1 DUP4 SLOAD DIV MUL DUP4 MSTORE SWAP2 PUSH1 0x20 ADD SWAP2 PUSH2 0x100B JUMP JUMPDEST DUP3 ADD SWAP2 SWAP1 PUSH0 MSTORE PUSH1 0x20 PUSH0 KECCAK256 SWAP1 JUMPDEST DUP2 SLOAD DUP2 MSTORE SWAP1 PUSH1 0x1 ADD SWAP1 PUSH1 0x20 ADD DUP1 DUP4 GT PUSH2 0xFEE JUMPI DUP3 SWAP1 SUB PUSH1 0x1F AND DUP3 ADD SWAP2 JUMPDEST POP POP POP POP POP SWAP1 DUP1 PUSH1 0x3 ADD SLOAD SWAP1 DUP1 PUSH1 0x4 ADD PUSH0 SWAP1 SLOAD SWAP1 PUSH2 0x100 EXP SWAP1 DIV PUSH20 0xFFFFFFFFFFFFFFFFFFFFFFFFFFFFFFFFFFFFFFFF AND SWAP1 DUP1 PUSH1 0x5 ADD DUP1 SLOAD PUSH2 0x104B SWAP1 PUSH2 0x254A JUMP JUMPDEST DUP1 PUSH1 0x1F ADD PUSH1 0x20 DUP1 SWAP2 DIV MUL PUSH1 0x20 ADD PUSH1 0x40 MLOAD SWAP1 DUP2 ADD PUSH1 0x40 MSTORE DUP1 SWAP3 SWAP2 SWAP1 DUP2 DUP2 MSTORE PUSH1 0x20 ADD DUP3 DUP1 SLOAD PUSH2 0x1077 SWAP1 PUSH2 0x254A JUMP JUMPDEST DUP1 ISZERO PUSH2 0x10C2 JUMPI DUP1 PUSH1 0x1F LT PUSH2 0x1099 JUMPI PUSH2 0x100 DUP1 DUP4 SLOAD DIV MUL DUP4 MSTORE SWAP2 PUSH1 0x20 ADD SWAP2 PUSH2 0x10C2 JUMP JUMPDEST DUP3 ADD SWAP2 SWAP1 PUSH0 MSTORE PUSH1 0x20 PUSH0 KECCAK256 SWAP1 JUMPDEST DUP2 SLOAD DUP2 MSTORE SWAP1 PUSH1 0x1 ADD SWAP1 PUSH1 0x20 ADD DUP1 DUP4 GT PUSH2 0x10A5 JUMPI DUP3 SWAP1 SUB PUSH1 0x1F AND DUP3 ADD SWAP2 JUMPDEST POP POP POP POP POP SWAP1 DUP1 PUSH1 0x7 ADD SLOAD SWAP1 DUP1 PUSH1 0x8 ADD SLOAD SWAP1 DUP1 PUSH1 0x9 ADD SLOAD SWAP1 POP DUP10 JUMP JUMPDEST PUSH1 0x60 PUSH0 DUP1 SLOAD PUSH8 0xFFFFFFFFFFFFFFFF DUP2 GT ISZERO PUSH2 0x10FC JUMPI PUSH2 0x10FB PUSH2 0x1952 JUMP JUMPDEST JUMPDEST PUSH1 0x40 MLOAD SWAP1 DUP1 DUP3 MSTORE DUP1 PUSH1 0x20 MUL PUSH1 0x20 ADD DUP3 ADD PUSH1 0x40 MSTORE DUP1 ISZERO PUSH2 0x1135 JUMPI DUP2 PUSH1 0x20 ADD JUMPDEST PUSH2 0x1122 PUSH2 0x17D3 JUMP JUMPDEST DUP2 MSTORE PUSH1 0x20 ADD SWAP1 PUSH1 0x1 SWAP1 SUB SWAP1 DUP2 PUSH2 0x111A JUMPI SWAP1 POP JUMPDEST POP SWAP1 POP PUSH0 JUMPDEST PUSH0 SLOAD DUP2 LT ISZERO PUSH2 0x1495 JUMPI PUSH1 0x1 PUSH0 DUP3 DUP2 MSTORE PUSH1 0x20 ADD SWAP1 DUP2 MSTORE PUSH1 0x20 ADD PUSH0 KECCAK256 PUSH1 0x40 MLOAD DUP1 PUSH2 0x140 ADD PUSH1 0x40 MSTORE SWAP1 DUP2 PUSH0 DUP3 ADD SLOAD DUP2 MSTORE PUSH1 0x20 ADD PUSH1 0x1 DUP3 ADD DUP1 SLOAD PUSH2 0x1179 SWAP1 PUSH2 0x254A JUMP JUMPDEST DUP1 PUSH1 0x1F ADD PUSH1 0x20 DUP1 SWAP2 DIV MUL PUSH1 0x20 ADD PUSH1 0x40 MLOAD SWAP1 DUP2 ADD PUSH1 0x40 MSTORE DUP1 SWAP3 SWAP2 SWAP1 DUP2 DUP2 MSTORE PUSH1 0x20 ADD DUP3 DUP1 SLOAD PUSH2 0x11A5 SWAP1 PUSH2 0x254A JUMP JUMPDEST DUP1 ISZERO PUSH2 0x11F0 JUMPI DUP1 PUSH1 0x1F LT PUSH2 0x11C7 JUMPI PUSH2 0x100 DUP1 DUP4 SLOAD DIV MUL DUP4 MSTORE SWAP2 PUSH1 0x20 ADD SWAP2 PUSH2 0x11F0 JUMP JUMPDEST DUP3 ADD SWAP2 SWAP1 PUSH0 MSTORE PUSH1 0x20 PUSH0 KECCAK256 SWAP1 JUMPDEST DUP2 SLOAD DUP2 MSTORE SWAP1 PUSH1 0x1 ADD SWAP1 PUSH1 0x20 ADD DUP1 DUP4 GT PUSH2 0x11D3 JUMPI DUP3 SWAP1 SUB PUSH1 0x1F AND DUP3 ADD SWAP2 JUMPDEST POP POP POP POP POP DUP2 MSTORE PUSH1 0x20 ADD PUSH1 0x2 DUP3 ADD DUP1 SLOAD PUSH2 0x1209 SWAP1 PUSH2 0x254A JUMP JUMPDEST DUP1 PUSH1 0x1F ADD PUSH1 0x20 DUP1 SWAP2 DIV MUL PUSH1 0x20 ADD PUSH1 0x40 MLOAD SWAP1 DUP2 ADD PUSH1 0x40 MSTORE DUP1 SWAP3 SWAP2 SWAP1 DUP2 DUP2 MSTORE PUSH1 0x20 ADD DUP3 DUP1 SLOAD PUSH2 0x1235 SWAP1 PUSH2 0x254A JUMP JUMPDEST DUP1 ISZERO PUSH2 0x1280 JUMPI DUP1 PUSH1 0x1F LT PUSH2 0x1257 JUMPI PUSH2 0x100 DUP1 DUP4 SLOAD DIV MUL DUP4 MSTORE SWAP2 PUSH1 0x20 ADD SWAP2 PUSH2 0x1280 JUMP JUMPDEST DUP3 ADD SWAP2 SWAP1 PUSH0 MSTORE PUSH1 0x20 PUSH0 KECCAK256 SWAP1 JUMPDEST DUP2 SLOAD DUP2 MSTORE SWAP1 PUSH1 0x1 ADD SWAP1 PUSH1 0x20 ADD DUP1 DUP4 GT PUSH2 0x1263 JUMPI DUP3 SWAP1 SUB PUSH1 0x1F AND DUP3 ADD SWAP2 JUMPDEST POP POP POP POP POP DUP2 MSTORE PUSH1 0x20 ADD PUSH1 0x3 DUP3 ADD SLOAD DUP2 MSTORE PUSH1 0x20 ADD PUSH1 0x4 DUP3 ADD PUSH0 SWAP1 SLOAD SWAP1 PUSH2 0x100 EXP SWAP1 DIV PUSH20 0xFFFFFFFFFFFFFFFFFFFFFFFFFFFFFFFFFFFFFFFF AND PUSH20 0xFFFFFFFFFFFFFFFFFFFFFFFFFFFFFFFFFFFFFFFF AND PUSH20 0xFFFFFFFFFFFFFFFFFFFFFFFFFFFFFFFFFFFFFFFF AND DUP2 MSTORE PUSH1 0x20 ADD PUSH1 0x5 DUP3 ADD DUP1 SLOAD PUSH2 0x12F8 SWAP1 PUSH2 0x254A JUMP JUMPDEST DUP1 PUSH1 0x1F ADD PUSH1 0x20 DUP1 SWAP2 DIV MUL PUSH1 0x20 ADD PUSH1 0x40 MLOAD SWAP1 DUP2 ADD PUSH1 0x40 MSTORE DUP1 SWAP3 SWAP2 SWAP1 DUP2 DUP2 MSTORE PUSH1 0x20 ADD DUP3 DUP1 SLOAD PUSH2 0x1324 SWAP1 PUSH2 0x254A JUMP JUMPDEST DUP1 ISZERO PUSH2 0x136F JUMPI DUP1 PUSH1 0x1F LT PUSH2 0x1346 JUMPI PUSH2 0x100 DUP1 DUP4 SLOAD DIV MUL DUP4 MSTORE SWAP2 PUSH1 0x20 ADD SWAP2 PUSH2 0x136F JUMP JUMPDEST DUP3 ADD SWAP2 SWAP1 PUSH0 MSTORE PUSH1 0x20 PUSH0 KECCAK256 SWAP1 JUMPDEST DUP2 SLOAD DUP2 MSTORE SWAP1 PUSH1 0x1 ADD SWAP1 PUSH1 0x20 ADD DUP1 DUP4 GT PUSH2 0x1352 JUMPI DUP3 SWAP1 SUB PUSH1 0x1F AND DUP3 ADD SWAP2 JUMPDEST POP POP POP POP POP DUP2 MSTORE PUSH1 0x20 ADD PUSH1 0x6 DUP3 ADD DUP1 SLOAD DUP1 PUSH1 0x20 MUL PUSH1 0x20 ADD PUSH1 0x40 MLOAD SWAP1 DUP2 ADD PUSH1 0x40 MSTORE DUP1 SWAP3 SWAP2 SWAP1 DUP2 DUP2 MSTORE PUSH1 0x20 ADD PUSH0 SWAP1 JUMPDEST DUP3 DUP3 LT ISZERO PUSH2 0x1444 JUMPI DUP4 DUP3 SWAP1 PUSH0 MSTORE PUSH1 0x20 PUSH0 KECCAK256 ADD DUP1 SLOAD PUSH2 0x13B9 SWAP1 PUSH2 0x254A JUMP JUMPDEST DUP1 PUSH1 0x1F ADD PUSH1 0x20 DUP1 SWAP2 DIV MUL PUSH1 0x20 ADD PUSH1 0x40 MLOAD SWAP1 DUP2 ADD PUSH1 0x40 MSTORE DUP1 SWAP3 SWAP2 SWAP1 DUP2 DUP2 MSTORE PUSH1 0x20 ADD DUP3 DUP1 SLOAD PUSH2 0x13E5 SWAP1 PUSH2 0x254A JUMP JUMPDEST DUP1 ISZERO PUSH2 0x1430 JUMPI DUP1 PUSH1 0x1F LT PUSH2 0x1407 JUMPI PUSH2 0x100 DUP1 DUP4 SLOAD DIV MUL DUP4 MSTORE SWAP2 PUSH1 0x20 ADD SWAP2 PUSH2 0x1430 JUMP JUMPDEST DUP3 ADD SWAP2 SWAP1 PUSH0 MSTORE PUSH1 0x20 PUSH0 KECCAK256 SWAP1 JUMPDEST DUP2 SLOAD DUP2 MSTORE SWAP1 PUSH1 0x1 ADD SWAP1 PUSH1 0x20 ADD DUP1 DUP4 GT PUSH2 0x1413 JUMPI DUP3 SWAP1 SUB PUSH1 0x1F AND DUP3 ADD SWAP2 JUMPDEST POP POP POP POP POP DUP2 MSTORE PUSH1 0x20 ADD SWAP1 PUSH1 0x1 ADD SWAP1 PUSH2 0x139C JUMP JUMPDEST POP POP POP POP DUP2 MSTORE PUSH1 0x20 ADD PUSH1 0x7 DUP3 ADD SLOAD DUP2 MSTORE PUSH1 0x20 ADD PUSH1 0x8 DUP3 ADD SLOAD DUP2 MSTORE PUSH1 0x20 ADD PUSH1 0x9 DUP3 ADD SLOAD DUP2 MSTORE POP POP DUP3 DUP3 DUP2 MLOAD DUP2 LT PUSH2 0x147D JUMPI PUSH2 0x147C PUSH2 0x27E6 JUMP JUMPDEST JUMPDEST PUSH1 0x20 MUL PUSH1 0x20 ADD ADD DUP2 SWAP1 MSTORE POP DUP1 DUP1 PUSH1 0x1 ADD SWAP2 POP POP PUSH2 0x113A JUMP JUMPDEST POP DUP1 SWAP2 POP POP SWAP1 JUMP JUMPDEST PUSH2 0x14A5 PUSH2 0x17D3 JUMP JUMPDEST PUSH1 0x1 PUSH0 DUP4 DUP2 MSTORE PUSH1 0x20 ADD SWAP1 DUP2 MSTORE PUSH1 0x20 ADD PUSH0 KECCAK256 PUSH1 0x40 MLOAD DUP1 PUSH2 0x140 ADD PUSH1 0x40 MSTORE SWAP1 DUP2 PUSH0 DUP3 ADD SLOAD DUP2 MSTORE PUSH1 0x20 ADD PUSH1 0x1 DUP3 ADD DUP1 SLOAD PUSH2 0x14DB SWAP1 PUSH2 0x254A JUMP JUMPDEST DUP1 PUSH1 0x1F ADD PUSH1 0x20 DUP1 SWAP2 DIV MUL PUSH1 0x20 ADD PUSH1 0x40 MLOAD SWAP1 DUP2 ADD PUSH1 0x40 MSTORE DUP1 SWAP3 SWAP2 SWAP1 DUP2 DUP2 MSTORE PUSH1 0x20 ADD DUP3 DUP1 SLOAD PUSH2 0x1507 SWAP1 PUSH2 0x254A JUMP JUMPDEST DUP1 ISZERO PUSH2 0x1552 JUMPI DUP1 PUSH1 0x1F LT PUSH2 0x1529 JUMPI PUSH2 0x100 DUP1 DUP4 SLOAD DIV MUL DUP4 MSTORE SWAP2 PUSH1 0x20 ADD SWAP2 PUSH2 0x1552 JUMP JUMPDEST DUP3 ADD SWAP2 SWAP1 PUSH0 MSTORE PUSH1 0x20 PUSH0 KECCAK256 SWAP1 JUMPDEST DUP2 SLOAD DUP2 MSTORE SWAP1 PUSH1 0x1 ADD SWAP1 PUSH1 0x20 ADD DUP1 DUP4 GT PUSH2 0x1535 JUMPI DUP3 SWAP1 SUB PUSH1 0x1F AND DUP3 ADD SWAP2 JUMPDEST POP POP POP POP POP DUP2 MSTORE PUSH1 0x20 ADD PUSH1 0x2 DUP3 ADD DUP1 SLOAD PUSH2 0x156B SWAP1 PUSH2 0x254A JUMP JUMPDEST DUP1 PUSH1 0x1F ADD PUSH1 0x20 DUP1 SWAP2 DIV MUL PUSH1 0x20 ADD PUSH1 0x40 MLOAD SWAP1 DUP2 ADD PUSH1 0x40 MSTORE DUP1 SWAP3 SWAP2 SWAP1 DUP2 DUP2 MSTORE PUSH1 0x20 ADD DUP3 DUP1 SLOAD PUSH2 0x1597 SWAP1 PUSH2 0x254A JUMP JUMPDEST DUP1 ISZERO PUSH2 0x15E2 JUMPI DUP1 PUSH1 0x1F LT PUSH2 0x15B9 JUMPI PUSH2 0x100 DUP1 DUP4 SLOAD DIV MUL DUP4 MSTORE SWAP2 PUSH1 0x20 ADD SWAP2 PUSH2 0x15E2 JUMP JUMPDEST DUP3 ADD SWAP2 SWAP1 PUSH0 MSTORE PUSH1 0x20 PUSH0 KECCAK256 SWAP1 JUMPDEST DUP2 SLOAD DUP2 MSTORE SWAP1 PUSH1 0x1 ADD SWAP1 PUSH1 0x20 ADD DUP1 DUP4 GT PUSH2 0x15C5 JUMPI DUP3 SWAP1 SUB PUSH1 0x1F AND DUP3 ADD SWAP2 JUMPDEST POP POP POP POP POP DUP2 MSTORE PUSH1 0x20 ADD PUSH1 0x3 DUP3 ADD SLOAD DUP2 MSTORE PUSH1 0x20 ADD PUSH1 0x4 DUP3 ADD PUSH0 SWAP1 SLOAD SWAP1 PUSH2 0x100 EXP SWAP1 DIV PUSH20 0xFFFFFFFFFFFFFFFFFFFFFFFFFFFFFFFFFFFFFFFF AND PUSH20 0xFFFFFFFFFFFFFFFFFFFFFFFFFFFFFFFFFFFFFFFF AND PUSH20 0xFFFFFFFFFFFFFFFFFFFFFFFFFFFFFFFFFFFFFFFF AND DUP2 MSTORE PUSH1 0x20 ADD PUSH1 0x5 DUP3 ADD DUP1 SLOAD PUSH2 0x165A SWAP1 PUSH2 0x254A JUMP JUMPDEST DUP1 PUSH1 0x1F ADD PUSH1 0x20 DUP1 SWAP2 DIV MUL PUSH1 0x20 ADD PUSH1 0x40 MLOAD SWAP1 DUP2 ADD PUSH1 0x40 MSTORE DUP1 SWAP3 SWAP2 SWAP1 DUP2 DUP2 MSTORE PUSH1 0x20 ADD DUP3 DUP1 SLOAD PUSH2 0x1686 SWAP1 PUSH2 0x254A JUMP JUMPDEST DUP1 ISZERO PUSH2 0x16D1 JUMPI DUP1 PUSH1 0x1F LT PUSH2 0x16A8 JUMPI PUSH2 0x100 DUP1 DUP4 SLOAD DIV MUL DUP4 MSTORE SWAP2 PUSH1 0x20 ADD SWAP2 PUSH2 0x16D1 JUMP JUMPDEST DUP3 ADD SWAP2 SWAP1 PUSH0 MSTORE PUSH1 0x20 PUSH0 KECCAK256 SWAP1 JUMPDEST DUP2 SLOAD DUP2 MSTORE SWAP1 PUSH1 0x1 ADD SWAP1 PUSH1 0x20 ADD DUP1 DUP4 GT PUSH2 0x16B4 JUMPI DUP3 SWAP1 SUB PUSH1 0x1F AND DUP3 ADD SWAP2 JUMPDEST POP POP POP POP POP DUP2 MSTORE PUSH1 0x20 ADD PUSH1 0x6 DUP3 ADD DUP1 SLOAD DUP1 PUSH1 0x20 MUL PUSH1 0x20 ADD PUSH1 0x40 MLOAD SWAP1 DUP2 ADD PUSH1 0x40 MSTORE DUP1 SWAP3 SWAP2 SWAP1 DUP2 DUP2 MSTORE PUSH1 0x20 ADD PUSH0 SWAP1 JUMPDEST DUP3 DUP3 LT ISZERO PUSH2 0x17A6 JUMPI DUP4 DUP3 SWAP1 PUSH0 MSTORE PUSH1 0x20 PUSH0 KECCAK256 ADD DUP1 SLOAD PUSH2 0x171B SWAP1 PUSH2 0x254A JUMP JUMPDEST DUP1 PUSH1 0x1F ADD PUSH1 0x20 DUP1 SWAP2 DIV MUL PUSH1 0x20 ADD PUSH1 0x40 MLOAD SWAP1 DUP2 ADD PUSH1 0x40 MSTORE DUP1 SWAP3 SWAP2 SWAP1 DUP2 DUP2 MSTORE PUSH1 0x20 ADD DUP3 DUP1 SLOAD PUSH2 0x1747 SWAP1 PUSH2 0x254A JUMP JUMPDEST DUP1 ISZERO PUSH2 0x1792 JUMPI DUP1 PUSH1 0x1F LT PUSH2 0x1769 JUMPI PUSH2 0x100 DUP1 DUP4 SLOAD DIV MUL DUP4 MSTORE SWAP2 PUSH1 0x20 ADD SWAP2 PUSH2 0x1792 JUMP JUMPDEST DUP3 ADD SWAP2 SWAP1 PUSH0 MSTORE PUSH1 0x20 PUSH0 KECCAK256 SWAP1 JUMPDEST DUP2 SLOAD DUP2 MSTORE SWAP1 PUSH1 0x1 ADD SWAP1 PUSH1 0x20 ADD DUP1 DUP4 GT PUSH2 0x1775 JUMPI DUP3 SWAP1 SUB PUSH1 0x1F AND DUP3 ADD SWAP2 JUMPDEST POP POP POP POP POP DUP2 MSTORE PUSH1 0x20 ADD SWAP1 PUSH1 0x1 ADD SWAP1 PUSH2 0x16FE JUMP JUMPDEST POP POP POP POP DUP2 MSTORE PUSH1 0x20 ADD PUSH1 0x7 DUP3 ADD SLOAD DUP2 MSTORE PUSH1 0x20 ADD PUSH1 0x8 DUP3 ADD SLOAD DUP2 MSTORE PUSH1 0x20 ADD PUSH1 0x9 DUP3 ADD SLOAD DUP2 MSTORE POP POP SWAP1 POP SWAP2 SWAP1 POP JUMP JUMPDEST PUSH1 0x40 MLOAD DUP1 PUSH2 0x140 ADD PUSH1 0x40 MSTORE DUP1 PUSH0 DUP2 MSTORE PUSH1 0x20 ADD PUSH1 0x60 DUP2 MSTORE PUSH1 0x20 ADD PUSH1 0x60 DUP2 MSTORE PUSH1 0x20 ADD PUSH0 DUP2 MSTORE PUSH1 0x20 ADD PUSH0 PUSH20 0xFFFFFFFFFFFFFFFFFFFFFFFFFFFFFFFFFFFFFFFF AND DUP2 MSTORE PUSH1 0x20 ADD PUSH1 0x60 DUP2 MSTORE PUSH1 0x20 ADD PUSH1 0x60 DUP2 MSTORE PUSH1 0x20 ADD PUSH0 DUP2 MSTORE PUSH1 0x20 ADD PUSH0 DUP2 MSTORE PUSH1 0x20 ADD PUSH0 DUP2 MSTORE POP SWAP1 JUMP JUMPDEST PUSH0 PUSH1 0x40 MLOAD SWAP1 POP SWAP1 JUMP JUMPDEST PUSH0 DUP1 REVERT JUMPDEST PUSH0 DUP1 REVERT JUMPDEST PUSH0 PUSH20 0xFFFFFFFFFFFFFFFFFFFFFFFFFFFFFFFFFFFFFFFF DUP3 AND SWAP1 POP SWAP2 SWAP1 POP JUMP JUMPDEST PUSH0 PUSH2 0x1870 DUP3 PUSH2 0x1847 JUMP JUMPDEST SWAP1 POP SWAP2 SWAP1 POP JUMP JUMPDEST PUSH2 0x1880 DUP2 PUSH2 0x1866 JUMP JUMPDEST DUP2 EQ PUSH2 0x188A JUMPI PUSH0 DUP1 REVERT JUMPDEST POP JUMP JUMPDEST PUSH0 DUP2 CALLDATALOAD SWAP1 POP PUSH2 0x189B DUP2 PUSH2 0x1877 JUMP JUMPDEST SWAP3 SWAP2 POP POP JUMP JUMPDEST PUSH0 DUP2 SWAP1 POP SWAP2 SWAP1 POP JUMP JUMPDEST PUSH2 0x18B3 DUP2 PUSH2 0x18A1 JUMP JUMPDEST DUP2 EQ PUSH2 0x18BD JUMPI PUSH0 DUP1 REVERT JUMPDEST POP JUMP JUMPDEST PUSH0 DUP2 CALLDATALOAD SWAP1 POP PUSH2 0x18CE DUP2 PUSH2 0x18AA JUMP JUMPDEST SWAP3 SWAP2 POP POP JUMP JUMPDEST PUSH0 DUP1 PUSH1 0x40 DUP4 DUP6 SUB SLT ISZERO PUSH2 0x18EA JUMPI PUSH2 0x18E9 PUSH2 0x183F JUMP JUMPDEST JUMPDEST PUSH0 PUSH2 0x18F7 DUP6 DUP3 DUP7 ADD PUSH2 0x188D JUMP JUMPDEST SWAP3 POP POP PUSH1 0x20 PUSH2 0x1908 DUP6 DUP3 DUP7 ADD PUSH2 0x18C0 JUMP JUMPDEST SWAP2 POP POP SWAP3 POP SWAP3 SWAP1 POP JUMP JUMPDEST PUSH2 0x191B DUP2 PUSH2 0x18A1 JUMP JUMPDEST DUP3 MSTORE POP POP JUMP JUMPDEST PUSH0 PUSH1 0x20 DUP3 ADD SWAP1 POP PUSH2 0x1934 PUSH0 DUP4 ADD DUP5 PUSH2 0x1912 JUMP JUMPDEST SWAP3 SWAP2 POP POP JUMP JUMPDEST PUSH0 DUP1 REVERT JUMPDEST PUSH0 DUP1 REVERT JUMPDEST PUSH0 PUSH1 0x1F NOT PUSH1 0x1F DUP4 ADD AND SWAP1 POP SWAP2 SWAP1 POP JUMP JUMPDEST PUSH32 0x4E487B7100000000000000000000000000000000000000000000000000000000 PUSH0 MSTORE PUSH1 0x41 PUSH1 0x4 MSTORE PUSH1 0x24 PUSH0 REVERT JUMPDEST PUSH2 0x1988 DUP3 PUSH2 0x1942 JUMP JUMPDEST DUP2 ADD DUP2 DUP2 LT PUSH8 0xFFFFFFFFFFFFFFFF DUP3 GT OR ISZERO PUSH2 0x19A7 JUMPI PUSH2 0x19A6 PUSH2 0x1952 JUMP JUMPDEST JUMPDEST DUP1 PUSH1 0x40 MSTORE POP POP POP JUMP JUMPDEST PUSH0 PUSH2 0x19B9 PUSH2 0x1836 JUMP JUMPDEST SWAP1 POP PUSH2 0x19C5 DUP3 DUP3 PUSH2 0x197F JUMP JUMPDEST SWAP2 SWAP1 POP JUMP JUMPDEST PUSH0 PUSH8 0xFFFFFFFFFFFFFFFF DUP3 GT ISZERO PUSH2 0x19E4 JUMPI PUSH2 0x19E3 PUSH2 0x1952 JUMP JUMPDEST JUMPDEST PUSH2 0x19ED DUP3 PUSH2 0x1942 JUMP JUMPDEST SWAP1 POP PUSH1 0x20 DUP2 ADD SWAP1 POP SWAP2 SWAP1 POP JUMP JUMPDEST DUP3 DUP2 DUP4 CALLDATACOPY PUSH0 DUP4 DUP4 ADD MSTORE POP POP POP JUMP JUMPDEST PUSH0 PUSH2 0x1A1A PUSH2 0x1A15 DUP5 PUSH2 0x19CA JUMP JUMPDEST PUSH2 0x19B0 JUMP JUMPDEST SWAP1 POP DUP3 DUP2 MSTORE PUSH1 0x20 DUP2 ADD DUP5 DUP5 DUP5 ADD GT ISZERO PUSH2 0x1A36 JUMPI PUSH2 0x1A35 PUSH2 0x193E JUMP JUMPDEST JUMPDEST PUSH2 0x1A41 DUP5 DUP3 DUP6 PUSH2 0x19FA JUMP JUMPDEST POP SWAP4 SWAP3 POP POP POP JUMP JUMPDEST PUSH0 DUP3 PUSH1 0x1F DUP4 ADD SLT PUSH2 0x1A5D JUMPI PUSH2 0x1A5C PUSH2 0x193A JUMP JUMPDEST JUMPDEST DUP2 CALLDATALOAD PUSH2 0x1A6D DUP5 DUP3 PUSH1 0x20 DUP7 ADD PUSH2 0x1A08 JUMP JUMPDEST SWAP2 POP POP SWAP3 SWAP2 POP POP JUMP JUMPDEST PUSH0 PUSH8 0xFFFFFFFFFFFFFFFF DUP3 GT ISZERO PUSH2 0x1A90 JUMPI PUSH2 0x1A8F PUSH2 0x1952 JUMP JUMPDEST JUMPDEST PUSH1 0x20 DUP3 MUL SWAP1 POP PUSH1 0x20 DUP2 ADD SWAP1 POP SWAP2 SWAP1 POP JUMP JUMPDEST PUSH0 DUP1 REVERT JUMPDEST PUSH0 PUSH2 0x1AB7 PUSH2 0x1AB2 DUP5 PUSH2 0x1A76 JUMP JUMPDEST PUSH2 0x19B0 JUMP JUMPDEST SWAP1 POP DUP1 DUP4 DUP3 MSTORE PUSH1 0x20 DUP3 ADD SWAP1 POP PUSH1 0x20 DUP5 MUL DUP4 ADD DUP6 DUP2 GT ISZERO PUSH2 0x1ADA JUMPI PUSH2 0x1AD9 PUSH2 0x1AA1 JUMP JUMPDEST JUMPDEST DUP4 JUMPDEST DUP2 DUP2 LT ISZERO PUSH2 0x1B21 JUMPI DUP1 CALLDATALOAD PUSH8 0xFFFFFFFFFFFFFFFF DUP2 GT ISZERO PUSH2 0x1AFF JUMPI PUSH2 0x1AFE PUSH2 0x193A JUMP JUMPDEST JUMPDEST DUP1 DUP7 ADD PUSH2 0x1B0C DUP10 DUP3 PUSH2 0x1A49 JUMP JUMPDEST DUP6 MSTORE PUSH1 0x20 DUP6 ADD SWAP5 POP POP POP PUSH1 0x20 DUP2 ADD SWAP1 POP PUSH2 0x1ADC JUMP JUMPDEST POP POP POP SWAP4 SWAP3 POP POP POP JUMP JUMPDEST PUSH0 DUP3 PUSH1 0x1F DUP4 ADD SLT PUSH2 0x1B3F JUMPI PUSH2 0x1B3E PUSH2 0x193A JUMP JUMPDEST JUMPDEST DUP2 CALLDATALOAD PUSH2 0x1B4F DUP5 DUP3 PUSH1 0x20 DUP7 ADD PUSH2 0x1AA5 JUMP JUMPDEST SWAP2 POP POP SWAP3 SWAP2 POP POP JUMP JUMPDEST PUSH0 DUP1 PUSH0 DUP1 PUSH0 DUP1 PUSH0 PUSH1 0xE0 DUP9 DUP11 SUB SLT ISZERO PUSH2 0x1B73 JUMPI PUSH2 0x1B72 PUSH2 0x183F JUMP JUMPDEST JUMPDEST PUSH0 DUP9 ADD CALLDATALOAD PUSH8 0xFFFFFFFFFFFFFFFF DUP2 GT ISZERO PUSH2 0x1B90 JUMPI PUSH2 0x1B8F PUSH2 0x1843 JUMP JUMPDEST JUMPDEST PUSH2 0x1B9C DUP11 DUP3 DUP12 ADD PUSH2 0x1A49 JUMP JUMPDEST SWAP8 POP POP PUSH1 0x20 DUP9 ADD CALLDATALOAD PUSH8 0xFFFFFFFFFFFFFFFF DUP2 GT ISZERO PUSH2 0x1BBD JUMPI PUSH2 0x1BBC PUSH2 0x1843 JUMP JUMPDEST JUMPDEST PUSH2 0x1BC9 DUP11 DUP3 DUP12 ADD PUSH2 0x1A49 JUMP JUMPDEST SWAP7 POP POP PUSH1 0x40 PUSH2 0x1BDA DUP11 DUP3 DUP12 ADD PUSH2 0x18C0 JUMP JUMPDEST SWAP6 POP POP PUSH1 0x60 DUP9 ADD CALLDATALOAD PUSH8 0xFFFFFFFFFFFFFFFF DUP2 GT ISZERO PUSH2 0x1BFB JUMPI PUSH2 0x1BFA PUSH2 0x1843 JUMP JUMPDEST JUMPDEST PUSH2 0x1C07 DUP11 DUP3 DUP12 ADD PUSH2 0x1A49 JUMP JUMPDEST SWAP5 POP POP PUSH1 0x80 DUP9 ADD CALLDATALOAD PUSH8 0xFFFFFFFFFFFFFFFF DUP2 GT ISZERO PUSH2 0x1C28 JUMPI PUSH2 0x1C27 PUSH2 0x1843 JUMP JUMPDEST JUMPDEST PUSH2 0x1C34 DUP11 DUP3 DUP12 ADD PUSH2 0x1B2B JUMP JUMPDEST SWAP4 POP POP PUSH1 0xA0 PUSH2 0x1C45 DUP11 DUP3 DUP12 ADD PUSH2 0x18C0 JUMP JUMPDEST SWAP3 POP POP PUSH1 0xC0 PUSH2 0x1C56 DUP11 DUP3 DUP12 ADD PUSH2 0x18C0 JUMP JUMPDEST SWAP2 POP POP SWAP3 SWAP6 SWAP9 SWAP2 SWAP5 SWAP8 POP SWAP3 SWAP6 POP JUMP JUMPDEST PUSH0 PUSH1 0x20 DUP3 DUP5 SUB SLT ISZERO PUSH2 0x1C7A JUMPI PUSH2 0x1C79 PUSH2 0x183F JUMP JUMPDEST JUMPDEST PUSH0 PUSH2 0x1C87 DUP5 DUP3 DUP6 ADD PUSH2 0x188D JUMP JUMPDEST SWAP2 POP POP SWAP3 SWAP2 POP POP JUMP JUMPDEST PUSH0 DUP2 MLOAD SWAP1 POP SWAP2 SWAP1 POP JUMP JUMPDEST PUSH0 DUP3 DUP3 MSTORE PUSH1 0x20 DUP3 ADD SWAP1 POP SWAP3 SWAP2 POP POP JUMP JUMPDEST PUSH0 DUP2 SWAP1 POP PUSH1 0x20 DUP3 ADD SWAP1 POP SWAP2 SWAP1 POP JUMP JUMPDEST PUSH2 0x1CC2 DUP2 PUSH2 0x18A1 JUMP JUMPDEST DUP3 MSTORE POP POP JUMP JUMPDEST PUSH0 DUP2 MLOAD SWAP1 POP SWAP2 SWAP1 POP JUMP JUMPDEST PUSH0 DUP3 DUP3 MSTORE PUSH1 0x20 DUP3 ADD SWAP1 POP SWAP3 SWAP2 POP POP JUMP JUMPDEST PUSH0 JUMPDEST DUP4 DUP2 LT ISZERO PUSH2 0x1CFF JUMPI DUP1 DUP3 ADD MLOAD DUP2 DUP5 ADD MSTORE PUSH1 0x20 DUP2 ADD SWAP1 POP PUSH2 0x1CE4 JUMP JUMPDEST PUSH0 DUP5 DUP5 ADD MSTORE POP POP POP POP JUMP JUMPDEST PUSH0 PUSH2 0x1D14 DUP3 PUSH2 0x1CC8 JUMP JUMPDEST PUSH2 0x1D1E DUP2 DUP6 PUSH2 0x1CD2 JUMP JUMPDEST SWAP4 POP PUSH2 0x1D2E DUP2 DUP6 PUSH1 0x20 DUP7 ADD PUSH2 0x1CE2 JUMP JUMPDEST PUSH2 0x1D37 DUP2 PUSH2 0x1942 JUMP JUMPDEST DUP5 ADD SWAP2 POP POP SWAP3 SWAP2 POP POP JUMP JUMPDEST PUSH2 0x1D4B DUP2 PUSH2 0x1866 JUMP JUMPDEST DUP3 MSTORE POP POP JUMP JUMPDEST PUSH0 DUP2 MLOAD SWAP1 POP SWAP2 SWAP1 POP JUMP JUMPDEST PUSH0 DUP3 DUP3 MSTORE PUSH1 0x20 DUP3 ADD SWAP1 POP SWAP3 SWAP2 POP POP JUMP JUMPDEST PUSH0 DUP2 SWAP1 POP PUSH1 0x20 DUP3 ADD SWAP1 POP SWAP2 SWAP1 POP JUMP JUMPDEST PUSH0 PUSH2 0x1D85 DUP4 DUP4 PUSH2 0x1D0A JUMP JUMPDEST SWAP1 POP SWAP3 SWAP2 POP POP JUMP JUMPDEST PUSH0 PUSH1 0x20 DUP3 ADD SWAP1 POP SWAP2 SWAP1 POP JUMP JUMPDEST PUSH0 PUSH2 0x1DA3 DUP3 PUSH2 0x1D51 JUMP JUMPDEST PUSH2 0x1DAD DUP2 DUP6 PUSH2 0x1D5B JUMP JUMPDEST SWAP4 POP DUP4 PUSH1 0x20 DUP3 MUL DUP6 ADD PUSH2 0x1DBF DUP6 PUSH2 0x1D6B JUMP JUMPDEST DUP1 PUSH0 JUMPDEST DUP6 DUP2 LT ISZERO PUSH2 0x1DFA JUMPI DUP5 DUP5 SUB DUP10 MSTORE DUP2 MLOAD PUSH2 0x1DDB DUP6 DUP3 PUSH2 0x1D7A JUMP JUMPDEST SWAP5 POP PUSH2 0x1DE6 DUP4 PUSH2 0x1D8D JUMP JUMPDEST SWAP3 POP PUSH1 0x20 DUP11 ADD SWAP10 POP POP PUSH1 0x1 DUP2 ADD SWAP1 POP PUSH2 0x1DC2 JUMP JUMPDEST POP DUP3 SWAP8 POP DUP8 SWAP6 POP POP POP POP POP POP SWAP3 SWAP2 POP POP JUMP JUMPDEST PUSH0 PUSH2 0x140 DUP4 ADD PUSH0 DUP4 ADD MLOAD PUSH2 0x1E22 PUSH0 DUP7 ADD DUP3 PUSH2 0x1CB9 JUMP JUMPDEST POP PUSH1 0x20 DUP4 ADD MLOAD DUP5 DUP3 SUB PUSH1 0x20 DUP7 ADD MSTORE PUSH2 0x1E3A DUP3 DUP3 PUSH2 0x1D0A JUMP JUMPDEST SWAP2 POP POP PUSH1 0x40 DUP4 ADD MLOAD DUP5 DUP3 SUB PUSH1 0x40 DUP7 ADD MSTORE PUSH2 0x1E54 DUP3 DUP3 PUSH2 0x1D0A JUMP JUMPDEST SWAP2 POP POP PUSH1 0x60 DUP4 ADD MLOAD PUSH2 0x1E69 PUSH1 0x60 DUP7 ADD DUP3 PUSH2 0x1CB9 JUMP JUMPDEST POP PUSH1 0x80 DUP4 ADD MLOAD PUSH2 0x1E7C PUSH1 0x80 DUP7 ADD DUP3 PUSH2 0x1D42 JUMP JUMPDEST POP PUSH1 0xA0 DUP4 ADD MLOAD DUP5 DUP3 SUB PUSH1 0xA0 DUP7 ADD MSTORE PUSH2 0x1E94 DUP3 DUP3 PUSH2 0x1D0A JUMP JUMPDEST SWAP2 POP POP PUSH1 0xC0 DUP4 ADD MLOAD DUP5 DUP3 SUB PUSH1 0xC0 DUP7 ADD MSTORE PUSH2 0x1EAE DUP3 DUP3 PUSH2 0x1D99 JUMP JUMPDEST SWAP2 POP POP PUSH1 0xE0 DUP4 ADD MLOAD PUSH2 0x1EC3 PUSH1 0xE0 DUP7 ADD DUP3 PUSH2 0x1CB9 JUMP JUMPDEST POP PUSH2 0x100 DUP4 ADD MLOAD PUSH2 0x1ED8 PUSH2 0x100 DUP7 ADD DUP3 PUSH2 0x1CB9 JUMP JUMPDEST POP PUSH2 0x120 DUP4 ADD MLOAD PUSH2 0x1EED PUSH2 0x120 DUP7 ADD DUP3 PUSH2 0x1CB9 JUMP JUMPDEST POP DUP1 SWAP2 POP POP SWAP3 SWAP2 POP POP JUMP JUMPDEST PUSH0 PUSH2 0x1F03 DUP4 DUP4 PUSH2 0x1E0C JUMP JUMPDEST SWAP1 POP SWAP3 SWAP2 POP POP JUMP JUMPDEST PUSH0 PUSH1 0x20 DUP3 ADD SWAP1 POP SWAP2 SWAP1 POP JUMP JUMPDEST PUSH0 PUSH2 0x1F21 DUP3 PUSH2 0x1C90 JUMP JUMPDEST PUSH2 0x1F2B DUP2 DUP6 PUSH2 0x1C9A JUMP JUMPDEST SWAP4 POP DUP4 PUSH1 0x20 DUP3 MUL DUP6 ADD PUSH2 0x1F3D DUP6 PUSH2 0x1CAA JUMP JUMPDEST DUP1 PUSH0 JUMPDEST DUP6 DUP2 LT ISZERO PUSH2 0x1F78 JUMPI DUP5 DUP5 SUB DUP10 MSTORE DUP2 MLOAD PUSH2 0x1F59 DUP6 DUP3 PUSH2 0x1EF8 JUMP JUMPDEST SWAP5 POP PUSH2 0x1F64 DUP4 PUSH2 0x1F0B JUMP JUMPDEST SWAP3 POP PUSH1 0x20 DUP11 ADD SWAP10 POP POP PUSH1 0x1 DUP2 ADD SWAP1 POP PUSH2 0x1F40 JUMP JUMPDEST POP DUP3 SWAP8 POP DUP8 SWAP6 POP POP POP POP POP POP SWAP3 SWAP2 POP POP JUMP JUMPDEST PUSH0 PUSH1 0x20 DUP3 ADD SWAP1 POP DUP2 DUP2 SUB PUSH0 DUP4 ADD MSTORE PUSH2 0x1FA2 DUP2 DUP5 PUSH2 0x1F17 JUMP JUMPDEST SWAP1 POP SWAP3 SWAP2 POP POP JUMP JUMPDEST PUSH0 PUSH1 0x20 DUP3 DUP5 SUB SLT ISZERO PUSH2 0x1FBF JUMPI PUSH2 0x1FBE PUSH2 0x183F JUMP JUMPDEST JUMPDEST PUSH0 DUP3 ADD CALLDATALOAD PUSH8 0xFFFFFFFFFFFFFFFF DUP2 GT ISZERO PUSH2 0x1FDC JUMPI PUSH2 0x1FDB PUSH2 0x1843 JUMP JUMPDEST JUMPDEST PUSH2 0x1FE8 DUP5 DUP3 DUP6 ADD PUSH2 0x1A49 JUMP JUMPDEST SWAP2 POP POP SWAP3 SWAP2 POP POP JUMP JUMPDEST PUSH0 PUSH1 0x20 DUP3 DUP5 SUB SLT ISZERO PUSH2 0x2006 JUMPI PUSH2 0x2005 PUSH2 0x183F JUMP JUMPDEST JUMPDEST PUSH0 PUSH2 0x2013 DUP5 DUP3 DUP6 ADD PUSH2 0x18C0 JUMP JUMPDEST SWAP2 POP POP SWAP3 SWAP2 POP POP JUMP JUMPDEST PUSH0 DUP3 DUP3 MSTORE PUSH1 0x20 DUP3 ADD SWAP1 POP SWAP3 SWAP2 POP POP JUMP JUMPDEST PUSH0 PUSH2 0x2036 DUP3 PUSH2 0x1CC8 JUMP JUMPDEST PUSH2 0x2040 DUP2 DUP6 PUSH2 0x201C JUMP JUMPDEST SWAP4 POP PUSH2 0x2050 DUP2 DUP6 PUSH1 0x20 DUP7 ADD PUSH2 0x1CE2 JUMP JUMPDEST PUSH2 0x2059 DUP2 PUSH2 0x1942 JUMP JUMPDEST DUP5 ADD SWAP2 POP POP SWAP3 SWAP2 POP POP JUMP JUMPDEST PUSH2 0x206D DUP2 PUSH2 0x1866 JUMP JUMPDEST DUP3 MSTORE POP POP JUMP JUMPDEST PUSH0 PUSH2 0x120 DUP3 ADD SWAP1 POP PUSH2 0x2087 PUSH0 DUP4 ADD DUP13 PUSH2 0x1912 JUMP JUMPDEST DUP2 DUP2 SUB PUSH1 0x20 DUP4 ADD MSTORE PUSH2 0x2099 DUP2 DUP12 PUSH2 0x202C JUMP JUMPDEST SWAP1 POP DUP2 DUP2 SUB PUSH1 0x40 DUP4 ADD MSTORE PUSH2 0x20AD DUP2 DUP11 PUSH2 0x202C JUMP JUMPDEST SWAP1 POP PUSH2 0x20BC PUSH1 0x60 DUP4 ADD DUP10 PUSH2 0x1912 JUMP JUMPDEST PUSH2 0x20C9 PUSH1 0x80 DUP4 ADD DUP9 PUSH2 0x2064 JUMP JUMPDEST DUP2 DUP2 SUB PUSH1 0xA0 DUP4 ADD MSTORE PUSH2 0x20DB DUP2 DUP8 PUSH2 0x202C JUMP JUMPDEST SWAP1 POP PUSH2 0x20EA PUSH1 0xC0 DUP4 ADD DUP7 PUSH2 0x1912 JUMP JUMPDEST PUSH2 0x20F7 PUSH1 0xE0 DUP4 ADD DUP6 PUSH2 0x1912 JUMP JUMPDEST PUSH2 0x2105 PUSH2 0x100 DUP4 ADD DUP5 PUSH2 0x1912 JUMP JUMPDEST SWAP11 SWAP10 POP POP POP POP POP POP POP POP POP POP JUMP JUMPDEST PUSH0 PUSH2 0x140 DUP4 ADD PUSH0 DUP4 ADD MLOAD PUSH2 0x2129 PUSH0 DUP7 ADD DUP3 PUSH2 0x1CB9 JUMP JUMPDEST POP PUSH1 0x20 DUP4 ADD MLOAD DUP5 DUP3 SUB PUSH1 0x20 DUP7 ADD MSTORE PUSH2 0x2141 DUP3 DUP3 PUSH2 0x1D0A JUMP JUMPDEST SWAP2 POP POP PUSH1 0x40 DUP4 ADD MLOAD DUP5 DUP3 SUB PUSH1 0x40 DUP7 ADD MSTORE PUSH2 0x215B DUP3 DUP3 PUSH2 0x1D0A JUMP JUMPDEST SWAP2 POP POP PUSH1 0x60 DUP4 ADD MLOAD PUSH2 0x2170 PUSH1 0x60 DUP7 ADD DUP3 PUSH2 0x1CB9 JUMP JUMPDEST POP PUSH1 0x80 DUP4 ADD MLOAD PUSH2 0x2183 PUSH1 0x80 DUP7 ADD DUP3 PUSH2 0x1D42 JUMP JUMPDEST POP PUSH1 0xA0 DUP4 ADD MLOAD DUP5 DUP3 SUB PUSH1 0xA0 DUP7 ADD MSTORE PUSH2 0x219B DUP3 DUP3 PUSH2 0x1D0A JUMP JUMPDEST SWAP2 POP POP PUSH1 0xC0 DUP4 ADD MLOAD DUP5 DUP3 SUB PUSH1 0xC0 DUP7 ADD MSTORE PUSH2 0x21B5 DUP3 DUP3 PUSH2 0x1D99 JUMP JUMPDEST SWAP2 POP POP PUSH1 0xE0 DUP4 ADD MLOAD PUSH2 0x21CA PUSH1 0xE0 DUP7 ADD DUP3 PUSH2 0x1CB9 JUMP JUMPDEST POP PUSH2 0x100 DUP4 ADD MLOAD PUSH2 0x21DF PUSH2 0x100 DUP7 ADD DUP3 PUSH2 0x1CB9 JUMP JUMPDEST POP PUSH2 0x120 DUP4 ADD MLOAD PUSH2 0x21F4 PUSH2 0x120 DUP7 ADD DUP3 PUSH2 0x1CB9 JUMP JUMPDEST POP DUP1 SWAP2 POP POP SWAP3 SWAP2 POP POP JUMP JUMPDEST PUSH0 PUSH1 0x20 DUP3 ADD SWAP1 POP DUP2 DUP2 SUB PUSH0 DUP4 ADD MSTORE PUSH2 0x2217 DUP2 DUP5 PUSH2 0x2113 JUMP JUMPDEST SWAP1 POP SWAP3 SWAP2 POP POP JUMP JUMPDEST PUSH32 0x5469746C65207265717569726564000000000000000000000000000000000000 PUSH0 DUP3 ADD MSTORE POP JUMP JUMPDEST PUSH0 PUSH2 0x2253 PUSH1 0xE DUP4 PUSH2 0x201C JUMP JUMPDEST SWAP2 POP PUSH2 0x225E DUP3 PUSH2 0x221F JUMP JUMPDEST PUSH1 0x20 DUP3 ADD SWAP1 POP SWAP2 SWAP1 POP JUMP JUMPDEST PUSH0 PUSH1 0x20 DUP3 ADD SWAP1 POP DUP2 DUP2 SUB PUSH0 DUP4 ADD MSTORE PUSH2 0x2280 DUP2 PUSH2 0x2247 JUMP JUMPDEST SWAP1 POP SWAP2 SWAP1 POP JUMP JUMPDEST PUSH32 0x4D617820617474656E64656573206D757374206265203E203000000000000000 PUSH0 DUP3 ADD MSTORE POP JUMP JUMPDEST PUSH0 PUSH2 0x22BB PUSH1 0x19 DUP4 PUSH2 0x201C JUMP JUMPDEST SWAP2 POP PUSH2 0x22C6 DUP3 PUSH2 0x2287 JUMP JUMPDEST PUSH1 0x20 DUP3 ADD SWAP1 POP SWAP2 SWAP1 POP JUMP JUMPDEST PUSH0 PUSH1 0x20 DUP3 ADD SWAP1 POP DUP2 DUP2 SUB PUSH0 DUP4 ADD MSTORE PUSH2 0x22E8 DUP2 PUSH2 0x22AF JUMP JUMPDEST SWAP1 POP SWAP2 SWAP1 POP JUMP JUMPDEST PUSH32 0x456E642074696D657374616D70206D7573742062652061667465722073746172 PUSH0 DUP3 ADD MSTORE PUSH32 0x742074696D657374616D70000000000000000000000000000000000000000000 PUSH1 0x20 DUP3 ADD MSTORE POP JUMP JUMPDEST PUSH0 PUSH2 0x2349 PUSH1 0x2B DUP4 PUSH2 0x201C JUMP JUMPDEST SWAP2 POP PUSH2 0x2354 DUP3 PUSH2 0x22EF JUMP JUMPDEST PUSH1 0x40 DUP3 ADD SWAP1 POP SWAP2 SWAP1 POP JUMP JUMPDEST PUSH0 PUSH1 0x20 DUP3 ADD SWAP1 POP DUP2 DUP2 SUB PUSH0 DUP4 ADD MSTORE PUSH2 0x2376 DUP2 PUSH2 0x233D JUMP JUMPDEST SWAP1 POP SWAP2 SWAP1 POP JUMP JUMPDEST PUSH32 0x4576656E74206D75737420626520696E20746865206675747572650000000000 PUSH0 DUP3 ADD MSTORE POP JUMP JUMPDEST PUSH0 PUSH2 0x23B1 PUSH1 0x1B DUP4 PUSH2 0x201C JUMP JUMPDEST SWAP2 POP PUSH2 0x23BC DUP3 PUSH2 0x237D JUMP JUMPDEST PUSH1 0x20 DUP3 ADD SWAP1 POP SWAP2 SWAP1 POP JUMP JUMPDEST PUSH0 PUSH1 0x20 DUP3 ADD SWAP1 POP DUP2 DUP2 SUB PUSH0 DUP4 ADD MSTORE PUSH2 0x23DE DUP2 PUSH2 0x23A5 JUMP JUMPDEST SWAP1 POP SWAP2 SWAP1 POP JUMP JUMPDEST PUSH32 0x546F6F206D616E79207461677300000000000000000000000000000000000000 PUSH0 DUP3 ADD MSTORE POP JUMP JUMPDEST PUSH0 PUSH2 0x2419 PUSH1 0xD DUP4 PUSH2 0x201C JUMP JUMPDEST SWAP2 POP PUSH2 0x2424 DUP3 PUSH2 0x23E5 JUMP JUMPDEST PUSH1 0x20 DUP3 ADD SWAP1 POP SWAP2 SWAP1 POP JUMP JUMPDEST PUSH0 PUSH1 0x20 DUP3 ADD SWAP1 POP DUP2 DUP2 SUB PUSH0 DUP4 ADD MSTORE PUSH2 0x2446 DUP2 PUSH2 0x240D JUMP JUMPDEST SWAP1 POP SWAP2 SWAP1 POP JUMP JUMPDEST PUSH32 0x4174206C65617374206F6E652074616720726571756972656400000000000000 PUSH0 DUP3 ADD MSTORE POP JUMP JUMPDEST PUSH0 PUSH2 0x2481 PUSH1 0x19 DUP4 PUSH2 0x201C JUMP JUMPDEST SWAP2 POP PUSH2 0x248C DUP3 PUSH2 0x244D JUMP JUMPDEST PUSH1 0x20 DUP3 ADD SWAP1 POP SWAP2 SWAP1 POP JUMP JUMPDEST PUSH0 PUSH1 0x20 DUP3 ADD SWAP1 POP DUP2 DUP2 SUB PUSH0 DUP4 ADD MSTORE PUSH2 0x24AE DUP2 PUSH2 0x2475 JUMP JUMPDEST SWAP1 POP SWAP2 SWAP1 POP JUMP JUMPDEST PUSH32 0x4C6F636174696F6E207265717569726564000000000000000000000000000000 PUSH0 DUP3 ADD MSTORE POP JUMP JUMPDEST PUSH0 PUSH2 0x24E9 PUSH1 0x11 DUP4 PUSH2 0x201C JUMP JUMPDEST SWAP2 POP PUSH2 0x24F4 DUP3 PUSH2 0x24B5 JUMP JUMPDEST PUSH1 0x20 DUP3 ADD SWAP1 POP SWAP2 SWAP1 POP JUMP JUMPDEST PUSH0 PUSH1 0x20 DUP3 ADD SWAP1 POP DUP2 DUP2 SUB PUSH0 DUP4 ADD MSTORE PUSH2 0x2516 DUP2 PUSH2 0x24DD JUMP JUMPDEST SWAP1 POP SWAP2 SWAP1 POP JUMP JUMPDEST PUSH32 0x4E487B7100000000000000000000000000000000000000000000000000000000 PUSH0 MSTORE PUSH1 0x22 PUSH1 0x4 MSTORE PUSH1 0x24 PUSH0 REVERT JUMPDEST PUSH0 PUSH1 0x2 DUP3 DIV SWAP1 POP PUSH1 0x1 DUP3 AND DUP1 PUSH2 0x2561 JUMPI PUSH1 0x7F DUP3 AND SWAP2 POP JUMPDEST PUSH1 0x20 DUP3 LT DUP2 SUB PUSH2 0x2574 JUMPI PUSH2 0x2573 PUSH2 0x251D JUMP JUMPDEST JUMPDEST POP SWAP2 SWAP1 POP JUMP JUMPDEST PUSH0 DUP2 SWAP1 POP DUP2 PUSH0 MSTORE PUSH1 0x20 PUSH0 KECCAK256 SWAP1 POP SWAP2 SWAP1 POP JUMP JUMPDEST PUSH0 PUSH1 0x20 PUSH1 0x1F DUP4 ADD DIV SWAP1 POP SWAP2 SWAP1 POP JUMP JUMPDEST PUSH0 DUP3 DUP3 SHL SWAP1 POP SWAP3 SWAP2 POP POP JUMP JUMPDEST PUSH0 PUSH1 0x8 DUP4 MUL PUSH2 0x25D6 PUSH32 0xFFFFFFFFFFFFFFFFFFFFFFFFFFFFFFFFFFFFFFFFFFFFFFFFFFFFFFFFFFFFFFFF DUP3 PUSH2 0x259B JUMP JUMPDEST PUSH2 0x25E0 DUP7 DUP4 PUSH2 0x259B JUMP JUMPDEST SWAP6 POP DUP1 NOT DUP5 AND SWAP4 POP DUP1 DUP7 AND DUP5 OR SWAP3 POP POP POP SWAP4 SWAP3 POP POP POP JUMP JUMPDEST PUSH0 DUP2 SWAP1 POP SWAP2 SWAP1 POP JUMP JUMPDEST PUSH0 PUSH2 0x261B PUSH2 0x2616 PUSH2 0x2611 DUP5 PUSH2 0x18A1 JUMP JUMPDEST PUSH2 0x25F8 JUMP JUMPDEST PUSH2 0x18A1 JUMP JUMPDEST SWAP1 POP SWAP2 SWAP1 POP JUMP JUMPDEST PUSH0 DUP2 SWAP1 POP SWAP2 SWAP1 POP JUMP JUMPDEST PUSH2 0x2634 DUP4 PUSH2 0x2601 JUMP JUMPDEST PUSH2 0x2648 PUSH2 0x2640 DUP3 PUSH2 0x2622 JUMP JUMPDEST DUP5 DUP5 SLOAD PUSH2 0x25A7 JUMP JUMPDEST DUP3 SSTORE POP POP POP POP JUMP JUMPDEST PUSH0 SWAP1 JUMP JUMPDEST PUSH2 0x265C PUSH2 0x2650 JUMP JUMPDEST PUSH2 0x2667 DUP2 DUP5 DUP5 PUSH2 0x262B JUMP JUMPDEST POP POP POP JUMP JUMPDEST JUMPDEST DUP2 DUP2 LT ISZERO PUSH2 0x268A JUMPI PUSH2 0x267F PUSH0 DUP3 PUSH2 0x2654 JUMP JUMPDEST PUSH1 0x1 DUP2 ADD SWAP1 POP PUSH2 0x266D JUMP JUMPDEST POP POP JUMP JUMPDEST PUSH1 0x1F DUP3 GT ISZERO PUSH2 0x26CF JUMPI PUSH2 0x26A0 DUP2 PUSH2 0x257A JUMP JUMPDEST PUSH2 0x26A9 DUP5 PUSH2 0x258C JUMP JUMPDEST DUP2 ADD PUSH1 0x20 DUP6 LT ISZERO PUSH2 0x26B8 JUMPI DUP2 SWAP1 POP JUMPDEST PUSH2 0x26CC PUSH2 0x26C4 DUP6 PUSH2 0x258C JUMP JUMPDEST DUP4 ADD DUP3 PUSH2 0x266C JUMP JUMPDEST POP POP JUMPDEST POP POP POP JUMP JUMPDEST PUSH0 DUP3 DUP3 SHR SWAP1 POP SWAP3 SWAP2 POP POP JUMP JUMPDEST PUSH0 PUSH2 0x26EF PUSH0 NOT DUP5 PUSH1 0x8 MUL PUSH2 0x26D4 JUMP JUMPDEST NOT DUP1 DUP4 AND SWAP2 POP POP SWAP3 SWAP2 POP POP JUMP JUMPDEST PUSH0 PUSH2 0x2707 DUP4 DUP4 PUSH2 0x26E0 JUMP JUMPDEST SWAP2 POP DUP3 PUSH1 0x2 MUL DUP3 OR SWAP1 POP SWAP3 SWAP2 POP POP JUMP JUMPDEST PUSH2 0x2720 DUP3 PUSH2 0x1CC8 JUMP JUMPDEST PUSH8 0xFFFFFFFFFFFFFFFF DUP2 GT ISZERO PUSH2 0x2739 JUMPI PUSH2 0x2738 PUSH2 0x1952 JUMP JUMPDEST JUMPDEST PUSH2 0x2743 DUP3 SLOAD PUSH2 0x254A JUMP JUMPDEST PUSH2 0x274E DUP3 DUP3 DUP6 PUSH2 0x268E JUMP JUMPDEST PUSH0 PUSH1 0x20 SWAP1 POP PUSH1 0x1F DUP4 GT PUSH1 0x1 DUP2 EQ PUSH2 0x277F JUMPI PUSH0 DUP5 ISZERO PUSH2 0x276D JUMPI DUP3 DUP8 ADD MLOAD SWAP1 POP JUMPDEST PUSH2 0x2777 DUP6 DUP3 PUSH2 0x26FC JUMP JUMPDEST DUP7 SSTORE POP PUSH2 0x27DE JUMP JUMPDEST PUSH1 0x1F NOT DUP5 AND PUSH2 0x278D DUP7 PUSH2 0x257A JUMP JUMPDEST PUSH0 JUMPDEST DUP3 DUP2 LT ISZERO PUSH2 0x27B4 JUMPI DUP5 DUP10 ADD MLOAD DUP3 SSTORE PUSH1 0x1 DUP3 ADD SWAP2 POP PUSH1 0x20 DUP6 ADD SWAP5 POP PUSH1 0x20 DUP2 ADD SWAP1 POP PUSH2 0x278F JUMP JUMPDEST DUP7 DUP4 LT ISZERO PUSH2 0x27D1 JUMPI DUP5 DUP10 ADD MLOAD PUSH2 0x27CD PUSH1 0x1F DUP10 AND DUP3 PUSH2 0x26E0 JUMP JUMPDEST DUP4 SSTORE POP JUMPDEST PUSH1 0x1 PUSH1 0x2 DUP9 MUL ADD DUP9 SSTORE POP POP POP JUMPDEST POP POP POP POP POP POP JUMP JUMPDEST PUSH32 0x4E487B7100000000000000000000000000000000000000000000000000000000 PUSH0 MSTORE PUSH1 0x32 PUSH1 0x4 MSTORE PUSH1 0x24 PUSH0 REVERT JUMPDEST PUSH0 DUP2 SWAP1 POP SWAP3 SWAP2 POP POP JUMP JUMPDEST PUSH0 PUSH2 0x2827 DUP3 PUSH2 0x1CC8 JUMP JUMPDEST PUSH2 0x2831 DUP2 DUP6 PUSH2 0x2813 JUMP JUMPDEST SWAP4 POP PUSH2 0x2841 DUP2 DUP6 PUSH1 0x20 DUP7 ADD PUSH2 0x1CE2 JUMP JUMPDEST DUP1 DUP5 ADD SWAP2 POP POP SWAP3 SWAP2 POP POP JUMP JUMPDEST PUSH0 PUSH2 0x2858 DUP3 DUP5 PUSH2 0x281D JUMP JUMPDEST SWAP2 POP DUP2 SWAP1 POP SWAP3 SWAP2 POP POP JUMP JUMPDEST PUSH0 PUSH1 0x40 DUP3 ADD SWAP1 POP DUP2 DUP2 SUB PUSH0 DUP4 ADD MSTORE PUSH2 0x287B DUP2 DUP6 PUSH2 0x202C JUMP JUMPDEST SWAP1 POP DUP2 DUP2 SUB PUSH1 0x20 DUP4 ADD MSTORE PUSH2 0x288F DUP2 DUP5 PUSH2 0x202C JUMP JUMPDEST SWAP1 POP SWAP4 SWAP3 POP POP POP JUMP JUMPDEST PUSH32 0x4E487B7100000000000000000000000000000000000000000000000000000000 PUSH0 MSTORE PUSH1 0x11 PUSH1 0x4 MSTORE PUSH1 0x24 PUSH0 REVERT JUMPDEST PUSH0 PUSH2 0x28CF DUP3 PUSH2 0x18A1 JUMP JUMPDEST SWAP2 POP PUSH32 0xFFFFFFFFFFFFFFFFFFFFFFFFFFFFFFFFFFFFFFFFFFFFFFFFFFFFFFFFFFFFFFFF DUP3 SUB PUSH2 0x2901 JUMPI PUSH2 0x2900 PUSH2 0x2898 JUMP JUMPDEST JUMPDEST PUSH1 0x1 DUP3 ADD SWAP1 POP SWAP2 SWAP1 POP JUMP INVALID LOG2 PUSH5 0x6970667358 0x22 SLT KECCAK256 CODESIZE 0xAA PUSH24 0x7D373D438CF4F087FA6B4066AAD635BC7ED6242A3ECF4D17 SWAP14 PUSH23 0xCB08A664736F6C63430008180033000000000000000000 "
				},
				"gasEstimates": {
					"creation": {
						"codeDepositCost": "2112400",
						"executionCost": "2248",
						"totalCost": "2114648"
					},
					"external": {
						"createEvent(string,string,uint256,string,string[],uint256,uint256)": "infinite",
						"eventsByOwner(address,uint256)": "infinite",
						"getAllEvents()": "infinite",
						"getEventsByOwner(address)": "infinite",
						"getEventsByTag(string)": "infinite",
						"getPublicEvent(uint256)": "infinite",
						"nextEventId()": "2491",
						"publicEvents(uint256)": "infinite"
					}
				},
				"methodIdentifiers": {
					"createEvent(string,string,uint256,string,string[],uint256,uint256)": "736f9723",
					"eventsByOwner(address,uint256)": "11ce44a0",
					"getAllEvents()": "c27a500d",
					"getEventsByOwner(address)": "74c2ad63",
					"getEventsByTag(string)": "a5e807a6",
					"getPublicEvent(uint256)": "c9e9f3cf",
					"nextEventId()": "9f9d903a",
					"publicEvents(uint256)": "b04326d6"
				}
			},
			"storageLayout": {
				"storage": [
					{
						"astId": 25,
						"contract": "contracts/FlintEvents.sol:FlintEvents",
						"label": "nextEventId",
						"offset": 0,
						"slot": "0",
						"type": "t_uint256"
					},
					{
						"astId": 30,
						"contract": "contracts/FlintEvents.sol:FlintEvents",
						"label": "publicEvents",
						"offset": 0,
						"slot": "1",
						"type": "t_mapping(t_uint256,t_struct(PublicEvent)23_storage)"
					},
					{
						"astId": 35,
						"contract": "contracts/FlintEvents.sol:FlintEvents",
						"label": "eventsByTag",
						"offset": 0,
						"slot": "2",
						"type": "t_mapping(t_string_memory_ptr,t_array(t_uint256)dyn_storage)"
					},
					{
						"astId": 40,
						"contract": "contracts/FlintEvents.sol:FlintEvents",
						"label": "eventsByOwner",
						"offset": 0,
						"slot": "3",
						"type": "t_mapping(t_address,t_array(t_uint256)dyn_storage)"
					}
				],
				"types": {
					"t_address": {
						"encoding": "inplace",
						"label": "address",
						"numberOfBytes": "20"
					},
					"t_array(t_string_storage)dyn_storage": {
						"base": "t_string_storage",
						"encoding": "dynamic_array",
						"label": "string[]",
						"numberOfBytes": "32"
					},
					"t_array(t_uint256)dyn_storage": {
						"base": "t_uint256",
						"encoding": "dynamic_array",
						"label": "uint256[]",
						"numberOfBytes": "32"
					},
					"t_mapping(t_address,t_array(t_uint256)dyn_storage)": {
						"encoding": "mapping",
						"key": "t_address",
						"label": "mapping(address => uint256[])",
						"numberOfBytes": "32",
						"value": "t_array(t_uint256)dyn_storage"
					},
					"t_mapping(t_string_memory_ptr,t_array(t_uint256)dyn_storage)": {
						"encoding": "mapping",
						"key": "t_string_memory_ptr",
						"label": "mapping(string => uint256[])",
						"numberOfBytes": "32",
						"value": "t_array(t_uint256)dyn_storage"
					},
					"t_mapping(t_uint256,t_struct(PublicEvent)23_storage)": {
						"encoding": "mapping",
						"key": "t_uint256",
						"label": "mapping(uint256 => struct FlintEvents.PublicEvent)",
						"numberOfBytes": "32",
						"value": "t_struct(PublicEvent)23_storage"
					},
					"t_string_memory_ptr": {
						"encoding": "bytes",
						"label": "string",
						"numberOfBytes": "32"
					},
					"t_string_storage": {
						"encoding": "bytes",
						"label": "string",
						"numberOfBytes": "32"
					},
					"t_struct(PublicEvent)23_storage": {
						"encoding": "inplace",
						"label": "struct FlintEvents.PublicEvent",
						"members": [
							{
								"astId": 3,
								"contract": "contracts/FlintEvents.sol:FlintEvents",
								"label": "id",
								"offset": 0,
								"slot": "0",
								"type": "t_uint256"
							},
							{
								"astId": 5,
								"contract": "contracts/FlintEvents.sol:FlintEvents",
								"label": "title",
								"offset": 0,
								"slot": "1",
								"type": "t_string_storage"
							},
							{
								"astId": 7,
								"contract": "contracts/FlintEvents.sol:FlintEvents",
								"label": "location",
								"offset": 0,
								"slot": "2",
								"type": "t_string_storage"
							},
							{
								"astId": 9,
								"contract": "contracts/FlintEvents.sol:FlintEvents",
								"label": "maxAttendees",
								"offset": 0,
								"slot": "3",
								"type": "t_uint256"
							},
							{
								"astId": 11,
								"contract": "contracts/FlintEvents.sol:FlintEvents",
								"label": "owner",
								"offset": 0,
								"slot": "4",
								"type": "t_address"
							},
							{
								"astId": 13,
								"contract": "contracts/FlintEvents.sol:FlintEvents",
								"label": "description",
								"offset": 0,
								"slot": "5",
								"type": "t_string_storage"
							},
							{
								"astId": 16,
								"contract": "contracts/FlintEvents.sol:FlintEvents",
								"label": "tags",
								"offset": 0,
								"slot": "6",
								"type": "t_array(t_string_storage)dyn_storage"
							},
							{
								"astId": 18,
								"contract": "contracts/FlintEvents.sol:FlintEvents",
								"label": "creationTimestamp",
								"offset": 0,
								"slot": "7",
								"type": "t_uint256"
							},
							{
								"astId": 20,
								"contract": "contracts/FlintEvents.sol:FlintEvents",
								"label": "startTimestamp",
								"offset": 0,
								"slot": "8",
								"type": "t_uint256"
							},
							{
								"astId": 22,
								"contract": "contracts/FlintEvents.sol:FlintEvents",
								"label": "endTimestamp",
								"offset": 0,
								"slot": "9",
								"type": "t_uint256"
							}
						],
						"numberOfBytes": "320"
					},
					"t_uint256": {
						"encoding": "inplace",
						"label": "uint256",
						"numberOfBytes": "32"
					}
				}
			},
			"userdoc": {
				"kind": "user",
				"methods": {},
				"version": 1
			}
		}
	}
}