{
	"contracts/FlintPaidPublicEvent.sol": {
		"PaidPublicEvent": {
			"abi": [
				{
					"inputs": [
						{
							"internalType": "string",
							"name": "_title",
							"type": "string"
						},
						{
							"internalType": "string",
							"name": "_location",
							"type": "string"
						},
						{
							"internalType": "uint256",
							"name": "_maxAttendees",
							"type": "uint256"
						},
						{
							"internalType": "string",
							"name": "_description",
							"type": "string"
						},
						{
							"internalType": "string[]",
							"name": "_tags",
							"type": "string[]"
						},
						{
							"internalType": "address",
							"name": "_owner",
							"type": "address"
						},
						{
							"internalType": "uint256",
							"name": "_startsAt",
							"type": "uint256"
						},
						{
							"internalType": "uint256",
							"name": "_endsAt",
							"type": "uint256"
						},
						{
							"internalType": "address",
							"name": "_usdc",
							"type": "address"
						},
						{
							"internalType": "address",
							"name": "_usdt",
							"type": "address"
						},
						{
							"internalType": "address",
							"name": "_ethUsdPriceFeed",
							"type": "address"
						},
						{
							"internalType": "uint256",
							"name": "_ticketPriceUSD",
							"type": "uint256"
						}
					],
					"stateMutability": "nonpayable",
					"type": "constructor"
				},
				{
					"anonymous": false,
					"inputs": [
						{
							"indexed": true,
							"internalType": "address",
							"name": "user",
							"type": "address"
						},
						{
							"indexed": false,
							"internalType": "string",
							"name": "title",
							"type": "string"
						}
					],
					"name": "Joined",
					"type": "event"
				},
				{
					"anonymous": false,
					"inputs": [
						{
							"indexed": true,
							"internalType": "address",
							"name": "owner",
							"type": "address"
						},
						{
							"indexed": false,
							"internalType": "uint256",
							"name": "amount",
							"type": "uint256"
						}
					],
					"name": "Withdraw",
					"type": "event"
				},
				{
					"inputs": [
						{
							"internalType": "address",
							"name": "_attendee",
							"type": "address"
						}
					],
					"name": "addAttendee",
					"outputs": [],
					"stateMutability": "nonpayable",
					"type": "function"
				},
				{
					"inputs": [
						{
							"internalType": "address",
							"name": "_newStaff",
							"type": "address"
						}
					],
					"name": "addStaff",
					"outputs": [],
					"stateMutability": "nonpayable",
					"type": "function"
				},
				{
					"inputs": [],
					"name": "attendeeCount",
					"outputs": [
						{
							"internalType": "uint256",
							"name": "",
							"type": "uint256"
						}
					],
					"stateMutability": "view",
					"type": "function"
				},
				{
					"inputs": [],
					"name": "cancelEvent",
					"outputs": [],
					"stateMutability": "nonpayable",
					"type": "function"
				},
				{
					"inputs": [],
					"name": "description",
					"outputs": [
						{
							"internalType": "string",
							"name": "",
							"type": "string"
						}
					],
					"stateMutability": "view",
					"type": "function"
				},
				{
					"inputs": [],
					"name": "endEvent",
					"outputs": [],
					"stateMutability": "nonpayable",
					"type": "function"
				},
				{
					"inputs": [],
					"name": "endsAt",
					"outputs": [
						{
							"internalType": "uint256",
							"name": "",
							"type": "uint256"
						}
					],
					"stateMutability": "view",
					"type": "function"
				},
				{
					"inputs": [],
					"name": "ethUsdPriceFeed",
					"outputs": [
						{
							"internalType": "contract MockV3Aggregator",
							"name": "",
							"type": "address"
						}
					],
					"stateMutability": "view",
					"type": "function"
				},
				{
					"inputs": [],
					"name": "eventCanceled",
					"outputs": [
						{
							"internalType": "bool",
							"name": "",
							"type": "bool"
						}
					],
					"stateMutability": "view",
					"type": "function"
				},
				{
					"inputs": [],
					"name": "eventEnded",
					"outputs": [
						{
							"internalType": "bool",
							"name": "",
							"type": "bool"
						}
					],
					"stateMutability": "view",
					"type": "function"
				},
				{
					"inputs": [],
					"name": "getAllTags",
					"outputs": [
						{
							"internalType": "string[]",
							"name": "",
							"type": "string[]"
						}
					],
					"stateMutability": "view",
					"type": "function"
				},
				{
					"inputs": [
						{
							"internalType": "uint256",
							"name": "usdAmount",
							"type": "uint256"
						}
					],
					"name": "getETHAmountForUSD",
					"outputs": [
						{
							"internalType": "uint256",
							"name": "",
							"type": "uint256"
						}
					],
					"stateMutability": "view",
					"type": "function"
				},
				{
					"inputs": [
						{
							"internalType": "address",
							"name": "",
							"type": "address"
						}
					],
					"name": "isAttendee",
					"outputs": [
						{
							"internalType": "bool",
							"name": "",
							"type": "bool"
						}
					],
					"stateMutability": "view",
					"type": "function"
				},
				{
					"inputs": [
						{
							"internalType": "address",
							"name": "",
							"type": "address"
						}
					],
					"name": "isStaff",
					"outputs": [
						{
							"internalType": "bool",
							"name": "",
							"type": "bool"
						}
					],
					"stateMutability": "view",
					"type": "function"
				},
				{
					"inputs": [],
					"name": "joinWithETH",
					"outputs": [],
					"stateMutability": "payable",
					"type": "function"
				},
				{
					"inputs": [],
					"name": "joinWithUSDC",
					"outputs": [],
					"stateMutability": "nonpayable",
					"type": "function"
				},
				{
					"inputs": [],
					"name": "joinWithUSDT",
					"outputs": [],
					"stateMutability": "nonpayable",
					"type": "function"
				},
				{
					"inputs": [],
					"name": "location",
					"outputs": [
						{
							"internalType": "string",
							"name": "",
							"type": "string"
						}
					],
					"stateMutability": "view",
					"type": "function"
				},
				{
					"inputs": [],
					"name": "maxAttendees",
					"outputs": [
						{
							"internalType": "uint256",
							"name": "",
							"type": "uint256"
						}
					],
					"stateMutability": "view",
					"type": "function"
				},
				{
					"inputs": [],
					"name": "owner",
					"outputs": [
						{
							"internalType": "address",
							"name": "",
							"type": "address"
						}
					],
					"stateMutability": "view",
					"type": "function"
				},
				{
					"inputs": [
						{
							"internalType": "address",
							"name": "_attendee",
							"type": "address"
						}
					],
					"name": "removeAttendee",
					"outputs": [],
					"stateMutability": "nonpayable",
					"type": "function"
				},
				{
					"inputs": [
						{
							"internalType": "address",
							"name": "_staff",
							"type": "address"
						}
					],
					"name": "removeStaff",
					"outputs": [],
					"stateMutability": "nonpayable",
					"type": "function"
				},
				{
					"inputs": [],
					"name": "startsAt",
					"outputs": [
						{
							"internalType": "uint256",
							"name": "",
							"type": "uint256"
						}
					],
					"stateMutability": "view",
					"type": "function"
				},
				{
					"inputs": [
						{
							"internalType": "uint256",
							"name": "",
							"type": "uint256"
						}
					],
					"name": "tags",
					"outputs": [
						{
							"internalType": "string",
							"name": "",
							"type": "string"
						}
					],
					"stateMutability": "view",
					"type": "function"
				},
				{
					"inputs": [],
					"name": "ticketPriceUSD",
					"outputs": [
						{
							"internalType": "uint256",
							"name": "",
							"type": "uint256"
						}
					],
					"stateMutability": "view",
					"type": "function"
				},
				{
					"inputs": [],
					"name": "title",
					"outputs": [
						{
							"internalType": "string",
							"name": "",
							"type": "string"
						}
					],
					"stateMutability": "view",
					"type": "function"
				},
				{
					"inputs": [],
					"name": "usdc",
					"outputs": [
						{
							"internalType": "contract IERC20",
							"name": "",
							"type": "address"
						}
					],
					"stateMutability": "view",
					"type": "function"
				},
				{
					"inputs": [],
					"name": "usdt",
					"outputs": [
						{
							"internalType": "contract IERC20",
							"name": "",
							"type": "address"
						}
					],
					"stateMutability": "view",
					"type": "function"
				},
				{
					"inputs": [],
					"name": "withdraw",
					"outputs": [],
					"stateMutability": "nonpayable",
					"type": "function"
				}
			],
			"devdoc": {
				"kind": "dev",
				"methods": {},
				"version": 1
			},
			"evm": {
				"assembly": "    /* \"contracts/FlintPaidPublicEvent.sol\":271:5830  contract PaidPublicEvent {... */\n  mstore(0x40, 0x80)\n  jumpi(tag_132, callvalue)\n  bytecodeSize\n  dup1\n  codesize\n  sub\n  dup1\n  tag_9\n  dup2\n  tag_1\n  jump\t// in\ntag_9:\n  swap3\n  dup4\n  codecopy\n  dup2\n  add\n  0x0180\n  dup3\n  dup3\n  sub\n  slt\n  tag_132\n  jumpi\n  dup2\n  mload\n  sub(shl(0x40, 0x01), 0x01)\n  swap1\n  dup2\n  dup2\n  gt\n  tag_132\n  jumpi\n  dup3\n  tag_14\n  swap2\n  dup6\n  add\n  tag_2\n  jump\t// in\ntag_14:\n  swap3\n  0x20\n  swap3\n  dup4\n  dup3\n  add\n  mload\n  dup4\n  dup2\n  gt\n  tag_132\n  jumpi\n  dup2\n  tag_17\n  swap2\n  dup5\n  add\n  tag_2\n  jump\t// in\ntag_17:\n  0x40\n  dup4\n  add\n  mload\n  swap4\n  0x60\n  dup5\n  add\n  mload\n  dup2\n  dup2\n  gt\n  tag_132\n  jumpi\n  dup4\n  tag_20\n  swap2\n  dup7\n  add\n  tag_2\n  jump\t// in\ntag_20:\n  swap2\n  0x80\n  dup6\n  add\n  mload\n  dup3\n  dup2\n  gt\n  tag_132\n  jumpi\n  dup6\n  add\n  swap2\n  0x1f\n  swap2\n  dup6\n  dup4\n  dup6\n  add\n  slt\n  iszero\n  tag_132\n  jumpi\n  dup4\n  mload\n  swap3\n  dup3\n  dup5\n  gt\n  tag_70\n  jumpi\n  dup10\n  swap7\n  0x05\n  swap6\n  dup9\n  tag_27\n  dup8\n  dup10\n  shl\n  swap14\n  dup15\n  add\n  tag_1\n  jump\t// in\ntag_27:\n  dup1\n  swap8\n  dup2\n  mstore\n  add\n  dup10\n  dup2\n  swap14\n  dup4\n  add\n  add\n  swap3\n  dup1\n  dup5\n  gt\n  tag_132\n  jumpi\n  dup11\n  dup4\n  add\n  swap2\ntag_30:\n  dup5\n  dup4\n  lt\n  tag_31\n  jumpi\n  pop\n  pop\n  pop\n  pop\n  pop\n  0xa0\n  dup9\n  add\n  tag_33\n  swap1\n  tag_3\n  jump\t// in\ntag_33:\n  swap10\n  0xc0\n  dup10\n  add\n  mload\n  swap8\n  0xe0\n  dup11\n  add\n  mload\n  swap11\n  0x0100\n  dup12\n  add\n  tag_34\n  swap1\n  tag_3\n  jump\t// in\ntag_34:\n  swap7\n  tag_35\n  0x0120\n  dup14\n  add\n  tag_3\n  jump\t// in\ntag_35:\n  swap10\n  tag_36\n  0x0140\n  dup15\n  add\n  tag_3\n  jump\t// in\ntag_36:\n  swap13\n  0x0160\n  add\n  mload\n  swap16\n  not(0xffff)\n    /* \"contracts/FlintPaidPublicEvent.sol\":662:667  false */\n  0x0a\n    /* \"contracts/FlintPaidPublicEvent.sol\":271:5830  contract PaidPublicEvent {... */\n  sload\n  and\n    /* \"contracts/FlintPaidPublicEvent.sol\":662:667  false */\n  0x0a\n    /* \"contracts/FlintPaidPublicEvent.sol\":271:5830  contract PaidPublicEvent {... */\n  sstore\n  dup1\n  mload\n  swap1\n  dup10\n  dup3\n  gt\n  tag_70\n  jumpi\n  tag_39\n  sload(0x00)\n  tag_4\n  jump\t// in\ntag_39:\n  dup9\n  dup2\n  gt\n  tag_40\n  jumpi\ntag_41:\n  pop\n  dup6\n  swap1\n  dup9\n  dup4\n  gt\n  0x01\n  eq\n  tag_42\n  jumpi\n  tag_44\n  swap3\n  swap2\n  0x00\n  swap2\n  dup4\n  tag_87\n  jumpi\ntag_46:\n  pop\n  pop\n  dup2\n  0x01\n  shl\n  swap2\n  not(0x00)\n  swap1\n  0x03\n  shl\n  shr\n  not\n  and\n  or\n  swap1\n  jump\ntag_44:\n  0x00\n  sstore\ntag_47:\n  dup7\n  mload\n  dup9\n  dup2\n  gt\n  tag_70\n  jumpi\n  0x01\n  swap8\n  tag_50\n  dup10\n  sload\n  tag_4\n  jump\t// in\ntag_50:\n  dup9\n  dup2\n  gt\n  tag_51\n  jumpi\ntag_52:\n  pop\n  dup6\n  swap1\n  dup9\n  dup4\n  gt\n  0x01\n  eq\n  tag_53\n  jumpi\n  tag_55\n  swap3\n  swap2\n  0x00\n  swap2\n  dup4\n  tag_87\n  jumpi\n  pop\n  pop\n  dup2\n  0x01\n  shl\n  swap2\n  not(0x00)\n  swap1\n  0x03\n  shl\n  shr\n  not\n  and\n  or\n  swap1\n  jump\ntag_55:\n  dup8\n  sstore\ntag_58:\n    /* \"contracts/FlintPaidPublicEvent.sol\":1900:1928  maxAttendees = _maxAttendees */\n  0x04\n    /* \"contracts/FlintPaidPublicEvent.sol\":271:5830  contract PaidPublicEvent {... */\n  swap3\n    /* \"contracts/FlintPaidPublicEvent.sol\":1900:1928  maxAttendees = _maxAttendees */\n  0x04\n    /* \"contracts/FlintPaidPublicEvent.sol\":271:5830  contract PaidPublicEvent {... */\n  sstore\n  dup1\n  mload\n  swap1\n  dup9\n  dup3\n  gt\n  tag_70\n  jumpi\n  tag_61\n    /* \"contracts/FlintPaidPublicEvent.sol\":1939:1965  description = _description */\n  0x02\n    /* \"contracts/FlintPaidPublicEvent.sol\":271:5830  contract PaidPublicEvent {... */\n  sload\n  tag_4\n  jump\t// in\ntag_61:\n  dup8\n  dup2\n  gt\n  tag_62\n  jumpi\ntag_63:\n  pop\n  dup5\n  swap1\n  dup8\n  dup4\n  gt\n  0x01\n  eq\n  tag_64\n  jumpi\n  tag_66\n  swap3\n  swap2\n  0x00\n  swap2\n  dup4\n  tag_87\n  jumpi\n  pop\n  pop\n  dup2\n  0x01\n  shl\n  swap2\n  not(0x00)\n  swap1\n  0x03\n  shl\n  shr\n  not\n  and\n  or\n  swap1\n  jump\ntag_66:\n    /* \"contracts/FlintPaidPublicEvent.sol\":1939:1965  description = _description */\n  0x02\n    /* \"contracts/FlintPaidPublicEvent.sol\":271:5830  contract PaidPublicEvent {... */\n  sstore\ntag_69:\n  mload\n  swap4\n  0x010000000000000000\n  dup6\n  gt\n  tag_70\n  jumpi\n    /* \"contracts/FlintPaidPublicEvent.sol\":1976:1988  tags = _tags */\n  0x03\n    /* \"contracts/FlintPaidPublicEvent.sol\":271:5830  contract PaidPublicEvent {... */\n  swap4\n    /* \"contracts/FlintPaidPublicEvent.sol\":1976:1988  tags = _tags */\n  0x03\n    /* \"contracts/FlintPaidPublicEvent.sol\":271:5830  contract PaidPublicEvent {... */\n  sload\n  dup7\n    /* \"contracts/FlintPaidPublicEvent.sol\":1976:1988  tags = _tags */\n  0x03\n    /* \"contracts/FlintPaidPublicEvent.sol\":271:5830  contract PaidPublicEvent {... */\n  sstore\n  dup1\n  dup8\n  lt\n  tag_72\n  jumpi\ntag_73:\n  pop\n  swap4\n  swap2\n    /* \"contracts/FlintPaidPublicEvent.sol\":1976:1988  tags = _tags */\n  0x03\n  0x00\n    /* \"contracts/FlintPaidPublicEvent.sol\":271:5830  contract PaidPublicEvent {... */\n  mstore\n  dup4\n  0x00\n  keccak256\n  swap3\n  0x00\n  swap6\ntag_74:\n  dup8\n  dup8\n  lt\n  tag_75\n  jumpi\n  pop\n  pop\n  pop\n  pop\n  pop\n  pop\n  pop\n  pop\n  pop\n  pop\n  0x01\n  dup1\n  0xa0\n  shl\n  sub\n  swap6\n  dup7\n  swap5\n  dup6\n  swap4\n  dup5\n  0x01\n  dup1\n  0xa0\n  shl\n  sub\n  not\n  swap11\n  and\n  dup11\n  dup3\n  sload\n  and\n  or\n  swap1\n  sstore\n    /* \"contracts/FlintPaidPublicEvent.sol\":2024:2044  startsAt = _startsAt */\n  0x06\n    /* \"contracts/FlintPaidPublicEvent.sol\":271:5830  contract PaidPublicEvent {... */\n  sstore\n    /* \"contracts/FlintPaidPublicEvent.sol\":2055:2071  endsAt = _endsAt */\n  0x07\n    /* \"contracts/FlintPaidPublicEvent.sol\":271:5830  contract PaidPublicEvent {... */\n  sstore\n  and\n  dup6\n    /* \"contracts/FlintPaidPublicEvent.sol\":2084:2104  usdc = IERC20(_usdc) */\n  0x0d\n    /* \"contracts/FlintPaidPublicEvent.sol\":271:5830  contract PaidPublicEvent {... */\n  sload\n  and\n  or\n    /* \"contracts/FlintPaidPublicEvent.sol\":2084:2104  usdc = IERC20(_usdc) */\n  0x0d\n    /* \"contracts/FlintPaidPublicEvent.sol\":271:5830  contract PaidPublicEvent {... */\n  sstore\n  and\n  dup4\n    /* \"contracts/FlintPaidPublicEvent.sol\":2115:2135  usdt = IERC20(_usdt) */\n  0x0e\n    /* \"contracts/FlintPaidPublicEvent.sol\":271:5830  contract PaidPublicEvent {... */\n  sload\n  and\n  or\n    /* \"contracts/FlintPaidPublicEvent.sol\":2115:2135  usdt = IERC20(_usdt) */\n  0x0e\n    /* \"contracts/FlintPaidPublicEvent.sol\":271:5830  contract PaidPublicEvent {... */\n  sstore\n  and\n  swap1\n    /* \"contracts/FlintPaidPublicEvent.sol\":2146:2198  ethUsdPriceFeed = MockV3Aggregator(_ethUsdPriceFeed) */\n  0x0f\n    /* \"contracts/FlintPaidPublicEvent.sol\":271:5830  contract PaidPublicEvent {... */\n  sload\n  and\n  or\n    /* \"contracts/FlintPaidPublicEvent.sol\":2146:2198  ethUsdPriceFeed = MockV3Aggregator(_ethUsdPriceFeed) */\n  0x0f\n    /* \"contracts/FlintPaidPublicEvent.sol\":271:5830  contract PaidPublicEvent {... */\n  sstore\n    /* \"contracts/FlintPaidPublicEvent.sol\":2244:2248  1e18 */\n  0x0de0b6b3a7640000\n    /* \"contracts/FlintPaidPublicEvent.sol\":271:5830  contract PaidPublicEvent {... */\n  swap1\n  dup2\n  dup2\n  mul\n  swap2\n  dup2\n  dup4\n  div\n  eq\n  swap1\n  iszero\n  or\n  iszero\n  tag_77\n  jumpi\n  0x08\n  sstore\n  mload(0x40)\n  dataSize(sub_0)\n  swap1\n  dup2\n  dataOffset(sub_0)\n  dup3\n  codecopy\n  return\ntag_77:\n  mstore(0x00, shl(0xe0, 0x4e487b71))\n  0x11\n    /* \"contracts/FlintPaidPublicEvent.sol\":1900:1928  maxAttendees = _maxAttendees */\n  0x04\n    /* \"contracts/FlintPaidPublicEvent.sol\":271:5830  contract PaidPublicEvent {... */\n  mstore\n  revert(0x00, 0x24)\ntag_75:\n  dup1\n  mload\n  swap1\n  dup2\n  mload\n  dup12\n  dup2\n  gt\n  tag_79\n  jumpi\n  dup11\n  swap2\n  dup9\n  swap2\n  dup16\n  tag_81\n  dup11\n  sload\n  tag_4\n  jump\t// in\ntag_81:\n  dup10\n  dup2\n  gt\n  tag_82\n  jumpi\ntag_83:\n  pop\n  pop\n  dup3\n  swap5\n  dup9\n  dup3\n  gt\n  0x01\n  eq\n  tag_84\n  jumpi\n  swap1\n  dup1\n  dup6\n  swap7\n  tag_86\n  swap4\n  0x00\n  swap3\n  tag_87\n  jumpi\n  pop\n  pop\n  dup2\n  0x01\n  shl\n  swap2\n  not(0x00)\n  swap1\n  0x03\n  shl\n  shr\n  not\n  and\n  or\n  swap1\n  jump\ntag_86:\n  dup9\n  sstore\ntag_89:\n  add\n  swap6\n  add\n  swap7\n  add\n  swap6\n  swap4\n  jump(tag_74)\ntag_87:\n  add\n  mload\n  swap1\n  pop\n  0x00\n  dup1\n  jump(tag_46)\ntag_84:\n  swap5\n  not(0x1f)\n  dup3\n  and\n  swap1\n  dup11\n  0x00\n  mstore\n  dup5\n  0x00\n  keccak256\n  swap2\n  0x00\ntag_90:\n  dup2\n  dup2\n  lt\n  tag_91\n  jumpi\n  pop\n  swap1\n  dup7\n  swap8\n  dup5\n  dup9\n  swap6\n  swap5\n  swap4\n  lt\n  tag_93\n  jumpi\ntag_94:\n  pop\n  pop\n  pop\n  dup2\n  shl\n  add\n  dup9\n  sstore\n  jump(tag_89)\ntag_93:\n  add\n  mload\n  not(0x00)\n  dup4\n  dup11\n  shl\n  0xf8\n  and\n  shr\n  not\n  and\n  swap1\n  sstore\n  0x00\n  dup1\n  dup1\n  jump(tag_94)\ntag_91:\n  swap5\n  swap8\n  swap4\n  swap7\n  dup7\n  swap3\n  swap7\n  swap2\n  swap4\n  dup8\n  dup7\n  add\n  mload\n  dup2\n  sstore\n  add\n  swap6\n  add\n  swap4\n  add\n  swap3\n  dup12\n  swap5\n  swap2\n  dup16\n  swap7\n  swap4\n  swap8\n  swap5\n  jump(tag_90)\ntag_82:\n  tag_95\n  swap2\n  dup12\n  0x00\n  mstore\n  dup6\n  0x00\n  keccak256\n  swap1\n  dup12\n  dup1\n  dup7\n  add\n  dup3\n  shr\n  dup4\n  add\n  swap4\n  dup9\n  dup8\n  lt\n  tag_96\n  jumpi\ntag_97:\n  add\n  swap1\n  shr\n  add\n  swap1\n  tag_5\n  jump\t// in\ntag_95:\n  dup16\n  0x00\n  jump(tag_83)\ntag_96:\n  swap4\n  pop\n  dup3\n  swap4\n  jump(tag_97)\ntag_79:\n  0x41\n  dup6\n  mstore(0x00, shl(0xe0, 0x4e487b71))\n  mstore\n  revert(0x00, 0x24)\ntag_72:\n    /* \"contracts/FlintPaidPublicEvent.sol\":1976:1988  tags = _tags */\n  0x03\n  0x00\n    /* \"contracts/FlintPaidPublicEvent.sol\":271:5830  contract PaidPublicEvent {... */\n  mstore\n  dup8\n  dup8\n  dup7\n  0x00\n  keccak256\n  swap3\n  dup4\n  add\n  swap3\n  add\ntag_98:\n  dup3\n  dup2\n  lt\n  tag_99\n  jumpi\n  pop\n  pop\n  jump(tag_73)\ntag_99:\n  dup13\n  tag_101\n  dup3\n  sload\n  tag_4\n  jump\t// in\ntag_101:\n  dup1\n  tag_102\n  jumpi\ntag_103:\n  pop\n  pop\n  add\n  dup9\n  swap1\n  jump(tag_98)\ntag_102:\n  dup7\n  dup2\n  gt\n  0x01\n  eq\n  tag_104\n  jumpi\n  pop\n  pop\n  0x00\n  dup2\n  sstore\ntag_106:\n  dup13\n  0x00\n  jump(tag_103)\ntag_104:\n  tag_107\n  0x00\n  swap3\n  dup5\n  dup5\n  mstore\n  dup9\n  dup12\n  dup6\n  keccak256\n  swap4\n  add\n  swap1\n  shr\n  dup3\n  add\n  dup6\n  dup4\n  add\n  tag_5\n  jump\t// in\ntag_107:\n  dup2\n  dup4\n  sstore\n  sstore\n  jump(tag_106)\ntag_70:\n  mstore(0x00, shl(0xe0, 0x4e487b71))\n  0x41\n    /* \"contracts/FlintPaidPublicEvent.sol\":1900:1928  maxAttendees = _maxAttendees */\n  0x04\n    /* \"contracts/FlintPaidPublicEvent.sol\":271:5830  contract PaidPublicEvent {... */\n  mstore\n  revert(0x00, 0x24)\ntag_64:\n  dup9\n  swap3\n  swap2\n  not(0x1f)\n  dup4\n  and\n  swap2\n    /* \"contracts/FlintPaidPublicEvent.sol\":1939:1965  description = _description */\n  0x02\n  0x00\n    /* \"contracts/FlintPaidPublicEvent.sol\":271:5830  contract PaidPublicEvent {... */\n  mstore\n  dup8\n  0x00\n  keccak256\n  swap3\n  0x00\ntag_108:\n  dup10\n  dup3\n  dup3\n  lt\n  tag_109\n  jumpi\n  pop\n  pop\n  dup5\n  gt\n  tag_111\n  jumpi\ntag_112:\n  pop\n  pop\n  pop\n  dup2\n  shl\n  add\n    /* \"contracts/FlintPaidPublicEvent.sol\":1939:1965  description = _description */\n  0x02\n    /* \"contracts/FlintPaidPublicEvent.sol\":271:5830  contract PaidPublicEvent {... */\n  sstore\n  jump(tag_69)\ntag_111:\n  add\n  mload\n  not(0x00)\n  0xf8\n  dup5\n  0x03\n  shl\n  and\n  shr\n  not\n  and\n  swap1\n  sstore\n  0x00\n  dup1\n  dup1\n  jump(tag_112)\ntag_109:\n  dup4\n  dup6\n  add\n  mload\n  dup7\n  sstore\n  dup14\n  swap8\n  swap1\n  swap6\n  add\n  swap5\n  swap4\n  dup5\n  add\n  swap4\n  add\n  jump(tag_108)\ntag_62:\n  tag_113\n  swap1\n    /* \"contracts/FlintPaidPublicEvent.sol\":1939:1965  description = _description */\n  0x02\n  0x00\n    /* \"contracts/FlintPaidPublicEvent.sol\":271:5830  contract PaidPublicEvent {... */\n  mstore\n  dup7\n  0x00\n  keccak256\n  dup14\n  dup11\n  dup1\n  dup8\n  add\n  dup3\n  shr\n  dup4\n  add\n  swap4\n  dup11\n  dup9\n  lt\n  tag_96\n  jumpi\n  add\n  swap1\n  shr\n  add\n  swap1\n  tag_5\n  jump\t// in\ntag_113:\n  0x00\n  jump(tag_63)\ntag_53:\n  dup10\n  swap3\n  swap2\n  not(0x1f)\n  dup4\n  and\n  swap2\n  dup5\n  0x00\n  mstore\n  dup9\n  0x00\n  keccak256\n  swap3\n  0x00\ntag_116:\n  dup11\n  dup3\n  dup3\n  lt\n  tag_117\n  jumpi\n  pop\n  pop\n  dup5\n  gt\n  tag_119\n  jumpi\ntag_120:\n  pop\n  pop\n  pop\n  dup2\n  shl\n  add\n  dup8\n  sstore\n  jump(tag_58)\ntag_119:\n  add\n  mload\n  not(0x00)\n  0xf8\n  dup5\n  0x03\n  shl\n  and\n  shr\n  not\n  and\n  swap1\n  sstore\n  0x00\n  dup1\n  dup1\n  jump(tag_120)\ntag_117:\n  dup4\n  dup6\n  add\n  mload\n  dup7\n  sstore\n  dup15\n  swap8\n  swap1\n  swap6\n  add\n  swap5\n  swap4\n  dup5\n  add\n  swap4\n  add\n  jump(tag_116)\ntag_51:\n  tag_121\n  swap1\n  dup11\n  0x00\n  mstore\n  dup14\n  dup9\n  0x00\n  keccak256\n  swap1\n  dup12\n  dup1\n  dup8\n  add\n  dup3\n  shr\n  dup4\n  add\n  swap4\n  dup12\n  dup9\n  lt\n  tag_96\n  jumpi\n  add\n  swap1\n  shr\n  add\n  swap1\n  tag_5\n  jump\t// in\ntag_121:\n  0x00\n  jump(tag_52)\ntag_42:\n  swap1\n  not(0x1f)\n  dup4\n  and\n  swap2\n  0x00\n  dup1\n  mstore\n  dup8\n  0x00\n  keccak256\n  swap3\n  0x00\ntag_124:\n  dup10\n  dup3\n  dup3\n  lt\n  tag_125\n  jumpi\n  pop\n  pop\n  swap1\n  dup5\n  0x01\n  swap6\n  swap5\n  swap4\n  swap3\n  lt\n  tag_127\n  jumpi\ntag_128:\n  pop\n  pop\n  pop\n  dup2\n  shl\n  add\n  0x00\n  sstore\n  jump(tag_47)\ntag_127:\n  add\n  mload\n  not(0x00)\n  0xf8\n  dup5\n  0x03\n  shl\n  and\n  shr\n  not\n  and\n  swap1\n  sstore\n  0x00\n  dup1\n  dup1\n  jump(tag_128)\ntag_125:\n  0x01\n  dup6\n  swap7\n  dup3\n  swap4\n  swap7\n  dup7\n  add\n  mload\n  dup2\n  sstore\n  add\n  swap6\n  add\n  swap4\n  add\n  jump(tag_124)\ntag_40:\n  tag_129\n  swap1\n  0x00\n  dup1\n  mstore\n  dup14\n  dup9\n  0x00\n  keccak256\n  swap1\n  dup12\n  dup1\n  dup8\n  add\n  dup3\n  shr\n  dup4\n  add\n  swap4\n  dup12\n  dup9\n  lt\n  tag_96\n  jumpi\n  add\n  swap1\n  shr\n  add\n  swap1\n  tag_5\n  jump\t// in\ntag_129:\n  0x00\n  jump(tag_41)\ntag_31:\n  dup3\n  mload\n  dup9\n  dup2\n  gt\n  tag_132\n  jumpi\n  dup13\n  swap2\n  tag_134\n  dup5\n  dup5\n  dup1\n  swap5\n  dup10\n  add\n  add\n  tag_2\n  jump\t// in\ntag_134:\n  dup2\n  mstore\n  add\n  swap3\n  add\n  swap2\n  jump(tag_30)\ntag_132:\n  0x00\n  dup1\n  revert\ntag_1:\n  mload(0x40)\n  swap2\n  swap1\n  0x1f\n  add\n  not(0x1f)\n  and\n  dup3\n  add\n  sub(shl(0x40, 0x01), 0x01)\n  dup2\n  gt\n  dup4\n  dup3\n  lt\n  or\n  tag_70\n  jumpi\n  0x40\n  mstore\n  jump\t// out\ntag_2:\n  swap2\n  swap1\n  dup1\n  0x1f\n  dup5\n  add\n  slt\n  iszero\n  tag_132\n  jumpi\n  dup3\n  mload\n  sub(shl(0x40, 0x01), 0x01)\n  dup2\n  gt\n  tag_70\n  jumpi\n  0x20\n  swap1\n  tag_141\n  0x1f\n  dup3\n  add\n  not(0x1f)\n  and\n  dup4\n  add\n  tag_1\n  jump\t// in\ntag_141:\n  swap3\n  dup2\n  dup5\n  mstore\n  dup3\n  dup3\n  dup8\n  add\n  add\n  gt\n  tag_132\n  jumpi\n  0x00\ntag_144:\n  dup2\n  dup2\n  lt\n  tag_145\n  jumpi\n  pop\n  dup3\n  0x00\n  swap4\n  swap5\n  swap6\n  pop\n  add\n  add\n  mstore\n  swap1\n  jump\t// out\ntag_145:\n  dup6\n  dup2\n  add\n  dup4\n  add\n  mload\n  dup5\n  dup3\n  add\n  dup5\n  add\n  mstore\n  dup3\n  add\n  jump(tag_144)\ntag_3:\n  mload\n  swap1\n  sub(shl(0xa0, 0x01), 0x01)\n  dup3\n  and\n  dup3\n  sub\n  tag_132\n  jumpi\n  jump\t// out\ntag_4:\n  swap1\n  0x01\n  dup3\n  dup2\n  shr\n  swap3\n  and\n  dup1\n  iszero\n  tag_149\n  jumpi\ntag_150:\n  0x20\n  dup4\n  lt\n  eq\n  tag_151\n  jumpi\n  jump\t// out\ntag_151:\n  mstore(0x00, shl(0xe0, 0x4e487b71))\n  mstore(0x04, 0x22)\n  revert(0x00, 0x24)\ntag_149:\n  swap2\n  0x7f\n  and\n  swap2\n  jump(tag_150)\ntag_5:\n  dup2\n  dup2\n  lt\n  tag_154\n  jumpi\n  pop\n  pop\n  jump\t// out\ntag_154:\n  0x00\n  dup2\n  sstore\n  0x01\n  add\n  jump(tag_5)\nstop\n\nsub_0: assembly {\n        /* \"contracts/FlintPaidPublicEvent.sol\":271:5830  contract PaidPublicEvent {... */\n      0x80\n      0x40\n      swap1\n      dup1\n      dup3\n      mstore\n      0x04\n      swap1\n      dup2\n      calldatasize\n      lt\n      iszero\n      tag_18\n      jumpi\n      0x00\n      dup1\n      revert\n    tag_18:\n      shr(0xe0, calldataload(0x00))\n      swap1\n      dup2\n      0x0a09284a\n      eq\n      tag_20\n      jumpi\n      pop\n      dup1\n      0x10246254\n      eq\n      tag_22\n      jumpi\n      dup1\n      0x1030c51e\n      eq\n      tag_24\n      jumpi\n      dup1\n      0x148b597c\n      eq\n      tag_26\n      jumpi\n      dup1\n      0x20822abc\n      eq\n      tag_28\n      jumpi\n      dup1\n      0x2f48ab7d\n      eq\n      tag_30\n      jumpi\n      dup1\n      0x3ccfd60b\n      eq\n      tag_32\n      jumpi\n      dup1\n      0x3e413bee\n      eq\n      tag_34\n      jumpi\n      dup1\n      0x42f6fb29\n      eq\n      tag_36\n      jumpi\n      dup1\n      0x4a79d50c\n      eq\n      tag_38\n      jumpi\n      dup1\n      0x516f279e\n      eq\n      tag_40\n      jumpi\n      dup1\n      0x522e4c8a\n      eq\n      tag_42\n      jumpi\n      dup1\n      0x5f3d7fa1\n      eq\n      tag_44\n      jumpi\n      dup1\n      0x6cad2590\n      eq\n      tag_46\n      jumpi\n      dup1\n      0x7038f157\n      eq\n      tag_48\n      jumpi\n      dup1\n      0x7284e416\n      eq\n      tag_50\n      jumpi\n      dup1\n      0x74bdc4bf\n      eq\n      tag_52\n      jumpi\n      dup1\n      0x86ec6177\n      eq\n      tag_54\n      jumpi\n      dup1\n      0x8da5cb5b\n      eq\n      tag_56\n      jumpi\n      dup1\n      0x99c5296e\n      eq\n      tag_58\n      jumpi\n      dup1\n      0xab42300d\n      eq\n      tag_60\n      jumpi\n      dup1\n      0xaf468682\n      eq\n      tag_62\n      jumpi\n      dup1\n      0xb8f34d9e\n      eq\n      tag_64\n      jumpi\n      dup1\n      0xc4522c92\n      eq\n      tag_66\n      jumpi\n      dup1\n      0xcb510e97\n      eq\n      tag_68\n      jumpi\n      dup1\n      0xe55448fc\n      eq\n      tag_70\n      jumpi\n      dup1\n      0xf1adda47\n      eq\n      tag_72\n      jumpi\n      dup1\n      0xf57e63e2\n      eq\n      tag_74\n      jumpi\n      0xfb6c9537\n      eq\n      tag_76\n      jumpi\n      0x00\n      dup1\n      revert\n    tag_76:\n      jumpi(tag_80, callvalue)\n      jumpi(tag_80, slt(add(not(0x03), calldatasize), 0x00))\n        /* \"contracts/FlintPaidPublicEvent.sol\":1059:1064  owner */\n      0x05\n        /* \"contracts/FlintPaidPublicEvent.sol\":271:5830  contract PaidPublicEvent {... */\n      sload\n      sub(shl(0xa0, 0x01), 0x01)\n      and\n        /* \"contracts/FlintPaidPublicEvent.sol\":1045:1055  msg.sender */\n      caller\n        /* \"contracts/FlintPaidPublicEvent.sol\":1045:1064  msg.sender == owner */\n      eq\n        /* \"contracts/FlintPaidPublicEvent.sol\":1045:1087  msg.sender == owner || isStaff[msg.sender] */\n      dup1\n      iszero\n      tag_82\n      jumpi\n        /* \"contracts/FlintPaidPublicEvent.sol\":271:5830  contract PaidPublicEvent {... */\n    tag_83:\n        /* \"contracts/FlintPaidPublicEvent.sol\":1037:1108  require(msg.sender == owner || isStaff[msg.sender], \"You're not staff\") */\n      tag_84\n      swap1\n      tag_5\n      jump\t// in\n    tag_84:\n        /* \"contracts/FlintPaidPublicEvent.sol\":5385:5393  startsAt */\n      0x06\n        /* \"contracts/FlintPaidPublicEvent.sol\":271:5830  contract PaidPublicEvent {... */\n      sload\n        /* \"contracts/FlintPaidPublicEvent.sol\":5367:5382  block.timestamp */\n      timestamp\n        /* \"contracts/FlintPaidPublicEvent.sol\":5367:5393  block.timestamp < startsAt */\n      lt\n        /* \"contracts/FlintPaidPublicEvent.sol\":271:5830  contract PaidPublicEvent {... */\n      iszero\n      tag_85\n      jumpi\n        /* \"contracts/FlintPaidPublicEvent.sol\":5465:5485  eventCanceled = true */\n      0x0a\n        /* \"contracts/FlintPaidPublicEvent.sol\":271:5830  contract PaidPublicEvent {... */\n      dup1\n      sload\n      not(0xffff)\n      and\n      0x0101\n      or\n      swap1\n      sstore\n      stop\n    tag_85:\n      0x20\n      0x84\n      swap3\n      mload\n      swap2\n      shl(0xe5, 0x461bcd)\n      dup4\n      mstore\n      dup3\n      add\n      mstore\n      0x2e\n      0x24\n      dup3\n      add\n      mstore\n      0x4576656e7420616c726561647920737461727465642c207573652066696e6973\n      0x44\n      dup3\n      add\n      mstore\n      shl(0x92, 0x1a115d995b9d081a5b9cdd195859)\n      0x64\n      dup3\n      add\n      mstore\n      revert\n        /* \"contracts/FlintPaidPublicEvent.sol\":1045:1087  msg.sender == owner || isStaff[msg.sender] */\n    tag_82:\n      pop\n        /* \"contracts/FlintPaidPublicEvent.sol\":1045:1055  msg.sender */\n      caller\n        /* \"contracts/FlintPaidPublicEvent.sol\":271:5830  contract PaidPublicEvent {... */\n      0x00\n      swap1\n      dup2\n      mstore\n        /* \"contracts/FlintPaidPublicEvent.sol\":1068:1075  isStaff */\n      0x0c\n        /* \"contracts/FlintPaidPublicEvent.sol\":271:5830  contract PaidPublicEvent {... */\n      0x20\n      mstore\n      dup3\n      swap1\n      keccak256\n      sload\n      0xff\n      and\n        /* \"contracts/FlintPaidPublicEvent.sol\":1045:1087  msg.sender == owner || isStaff[msg.sender] */\n      jump(tag_83)\n        /* \"contracts/FlintPaidPublicEvent.sol\":271:5830  contract PaidPublicEvent {... */\n    tag_80:\n      0x00\n      dup1\n      revert\n    tag_74:\n      dup3\n      jumpi(tag_80, callvalue)\n      jumpi(tag_80, slt(add(not(0x03), calldatasize), 0x00))\n      0x20\n      swap1\n      0xff\n        /* \"contracts/FlintPaidPublicEvent.sol\":637:667  bool public eventEnded = false */\n      0x0a\n        /* \"contracts/FlintPaidPublicEvent.sol\":271:5830  contract PaidPublicEvent {... */\n      sload\n      and\n      swap1\n      mload\n      swap1\n      iszero\n      iszero\n      dup2\n      mstore\n      return\n    tag_72:\n      dup3\n      jumpi(tag_80, callvalue)\n      jumpi(tag_80, slt(add(not(0x03), calldatasize), 0x00))\n      0x20\n      swap1\n        /* \"contracts/FlintPaidPublicEvent.sol\":602:630  uint256 public attendeeCount */\n      0x09\n        /* \"contracts/FlintPaidPublicEvent.sol\":271:5830  contract PaidPublicEvent {... */\n      sload\n      swap1\n      mload\n      swap1\n      dup2\n      mstore\n      return\n    tag_70:\n      pop\n      swap1\n      jumpi(tag_80, callvalue)\n      0x20\n      dup1\n      add(calldatasize, not(0x03))\n      slt\n      tag_80\n      jumpi\n      dup3\n      calldataload\n      sub(shl(0xa0, 0x01), 0x01)\n      dup2\n      dup2\n      and\n      swap2\n      dup3\n      swap1\n      sub\n      tag_80\n      jumpi\n        /* \"contracts/FlintPaidPublicEvent.sol\":1059:1064  owner */\n      0x05\n        /* \"contracts/FlintPaidPublicEvent.sol\":271:5830  contract PaidPublicEvent {... */\n      sload\n      and\n        /* \"contracts/FlintPaidPublicEvent.sol\":1045:1055  msg.sender */\n      caller\n        /* \"contracts/FlintPaidPublicEvent.sol\":1045:1064  msg.sender == owner */\n      eq\n        /* \"contracts/FlintPaidPublicEvent.sol\":1045:1087  msg.sender == owner || isStaff[msg.sender] */\n      dup1\n      iszero\n      tag_101\n      jumpi\n        /* \"contracts/FlintPaidPublicEvent.sol\":271:5830  contract PaidPublicEvent {... */\n    tag_102:\n        /* \"contracts/FlintPaidPublicEvent.sol\":1037:1108  require(msg.sender == owner || isStaff[msg.sender], \"You're not staff\") */\n      tag_103\n      swap1\n      tag_5\n      jump\t// in\n    tag_103:\n        /* \"contracts/FlintPaidPublicEvent.sol\":271:5830  contract PaidPublicEvent {... */\n      dup1\n      0x00\n      mstore\n        /* \"contracts/FlintPaidPublicEvent.sol\":4905:4915  isAttendee */\n      0x0b\n        /* \"contracts/FlintPaidPublicEvent.sol\":271:5830  contract PaidPublicEvent {... */\n      dup3\n      mstore\n      0xff\n      dup4\n      0x00\n      keccak256\n      sload\n      and\n      iszero\n      tag_104\n      jumpi\n        /* \"contracts/FlintPaidPublicEvent.sol\":4963:4976  attendeeCount */\n      0x09\n        /* \"contracts/FlintPaidPublicEvent.sol\":271:5830  contract PaidPublicEvent {... */\n      sload\n        /* \"contracts/FlintPaidPublicEvent.sol\":4963:4980  attendeeCount > 0 */\n      dup1\n      iszero\n        /* \"contracts/FlintPaidPublicEvent.sol\":271:5830  contract PaidPublicEvent {... */\n      tag_106\n      jumpi\n      not(0x00)\n      dup2\n      add\n      swap1\n      dup2\n      gt\n      tag_108\n      jumpi\n        /* \"contracts/FlintPaidPublicEvent.sol\":4963:4976  attendeeCount */\n      0x09\n        /* \"contracts/FlintPaidPublicEvent.sol\":271:5830  contract PaidPublicEvent {... */\n      sstore\n      0x00\n      swap1\n      dup2\n      mstore\n        /* \"contracts/FlintPaidPublicEvent.sol\":4905:4915  isAttendee */\n      0x0b\n        /* \"contracts/FlintPaidPublicEvent.sol\":271:5830  contract PaidPublicEvent {... */\n      swap1\n      swap2\n      mstore\n      keccak256\n      dup1\n      sload\n      not(0xff)\n      and\n      swap1\n      sstore\n      stop\n    tag_108:\n      0x11\n      dup6\n      mstore(0x00, shl(0xe0, 0x4e487b71))\n      mstore\n      revert(0x00, 0x24)\n    tag_106:\n      dup4\n      mload\n      shl(0xe5, 0x461bcd)\n      dup2\n      mstore\n      dup1\n      dup7\n      add\n      dup5\n      swap1\n      mstore\n      0x0c\n      0x24\n      dup3\n      add\n      mstore\n      shl(0xa0, 0x4e6f20617474656e64656573)\n      0x44\n      dup3\n      add\n      mstore\n      0x64\n      swap1\n      revert\n    tag_104:\n      pop\n      swap1\n      mload\n      shl(0xe5, 0x461bcd)\n      dup2\n      mstore\n      swap2\n      dup3\n      add\n      mstore\n      0x0d\n      0x24\n      dup3\n      add\n      mstore\n      shl(0x98, 0x4e6f7420617474656e64696e67)\n      0x44\n      dup3\n      add\n      mstore\n      0x64\n      swap1\n      revert\n        /* \"contracts/FlintPaidPublicEvent.sol\":1045:1087  msg.sender == owner || isStaff[msg.sender] */\n    tag_101:\n      pop\n        /* \"contracts/FlintPaidPublicEvent.sol\":1045:1055  msg.sender */\n      caller\n        /* \"contracts/FlintPaidPublicEvent.sol\":271:5830  contract PaidPublicEvent {... */\n      0x00\n      swap1\n      dup2\n      mstore\n        /* \"contracts/FlintPaidPublicEvent.sol\":1068:1075  isStaff */\n      0x0c\n        /* \"contracts/FlintPaidPublicEvent.sol\":271:5830  contract PaidPublicEvent {... */\n      dup4\n      mstore\n      dup4\n      swap1\n      keccak256\n      sload\n      0xff\n      and\n        /* \"contracts/FlintPaidPublicEvent.sol\":1045:1087  msg.sender == owner || isStaff[msg.sender] */\n      jump(tag_102)\n        /* \"contracts/FlintPaidPublicEvent.sol\":271:5830  contract PaidPublicEvent {... */\n    tag_68:\n      pop\n      jumpi(tag_80, callvalue)\n      jumpi(tag_80, slt(add(not(0x03), calldatasize), 0x20))\n      calldataload\n      sub(shl(0xa0, 0x01), 0x01)\n      dup2\n      and\n      swap2\n      swap1\n      dup3\n      swap1\n      sub\n      tag_80\n      jumpi\n      0x20\n      swap2\n      0x00\n      mstore\n        /* \"contracts/FlintPaidPublicEvent.sol\":765:804  mapping(address => bool) public isStaff */\n      0x0c\n        /* \"contracts/FlintPaidPublicEvent.sol\":271:5830  contract PaidPublicEvent {... */\n      dup3\n      mstore\n      0xff\n      dup2\n      0x00\n      keccak256\n      sload\n      and\n      swap1\n      mload\n      swap1\n      iszero\n      iszero\n      dup2\n      mstore\n      return\n    tag_66:\n      pop\n      jumpi(tag_80, callvalue)\n      jumpi(tag_80, slt(add(not(0x03), calldatasize), 0x20))\n      calldataload\n      sub(shl(0xa0, 0x01), 0x01)\n      dup2\n      dup2\n      and\n      swap2\n      dup3\n      swap1\n      sub\n      tag_80\n      jumpi\n        /* \"contracts/FlintPaidPublicEvent.sol\":1168:1209  require(msg.sender == owner, \"Not owner\") */\n      tag_122\n        /* \"contracts/FlintPaidPublicEvent.sol\":271:5830  contract PaidPublicEvent {... */\n      swap1\n        /* \"contracts/FlintPaidPublicEvent.sol\":1190:1195  owner */\n      0x05\n        /* \"contracts/FlintPaidPublicEvent.sol\":271:5830  contract PaidPublicEvent {... */\n      sload\n      and\n        /* \"contracts/FlintPaidPublicEvent.sol\":1176:1186  msg.sender */\n      caller\n        /* \"contracts/FlintPaidPublicEvent.sol\":1176:1195  msg.sender == owner */\n      eq\n        /* \"contracts/FlintPaidPublicEvent.sol\":1168:1209  require(msg.sender == owner, \"Not owner\") */\n      tag_7\n      jump\t// in\n    tag_122:\n        /* \"contracts/FlintPaidPublicEvent.sol\":271:5830  contract PaidPublicEvent {... */\n      0x00\n      swap1\n      dup2\n      mstore\n        /* \"contracts/FlintPaidPublicEvent.sol\":5796:5803  isStaff */\n      0x0c\n        /* \"contracts/FlintPaidPublicEvent.sol\":271:5830  contract PaidPublicEvent {... */\n      0x20\n      mstore\n      keccak256\n      dup1\n      sload\n      not(0xff)\n      and\n      swap1\n      sstore\n      stop\n    tag_64:\n      pop\n      swap1\n      jumpi(tag_80, callvalue)\n      jumpi(tag_80, slt(add(not(0x03), calldatasize), 0x20))\n      tag_127\n      0x20\n      swap3\n      calldataload\n      tag_17\n      jump\t// in\n    tag_127:\n      swap1\n      mload\n      swap1\n      dup2\n      mstore\n      return\n    tag_62:\n      dup3\n      jumpi(tag_80, callvalue)\n      jumpi(tag_80, slt(add(not(0x03), calldatasize), 0x00))\n      0x20\n      swap1\n        /* \"contracts/FlintPaidPublicEvent.sol\":478:501  uint256 public startsAt */\n      0x06\n        /* \"contracts/FlintPaidPublicEvent.sol\":271:5830  contract PaidPublicEvent {... */\n      sload\n      swap1\n      mload\n      swap1\n      dup2\n      mstore\n      return\n    tag_60:\n      pop\n      jumpi(tag_80, slt(add(not(0x03), calldatasize), 0x00))\n        /* \"contracts/FlintPaidPublicEvent.sol\":2363:2373  msg.sender */\n      caller\n        /* \"contracts/FlintPaidPublicEvent.sol\":271:5830  contract PaidPublicEvent {... */\n      0x00\n      mstore\n        /* \"contracts/FlintPaidPublicEvent.sol\":2352:2362  isAttendee */\n      0x0b\n        /* \"contracts/FlintPaidPublicEvent.sol\":271:5830  contract PaidPublicEvent {... */\n      0x20\n      mstore\n        /* \"contracts/FlintPaidPublicEvent.sol\":2343:2393  require(!isAttendee[msg.sender], \"Already joined\") */\n      tag_134\n        /* \"contracts/FlintPaidPublicEvent.sol\":271:5830  contract PaidPublicEvent {... */\n      0xff\n      dup4\n      0x00\n      keccak256\n      sload\n      and\n        /* \"contracts/FlintPaidPublicEvent.sol\":2351:2374  !isAttendee[msg.sender] */\n      iszero\n        /* \"contracts/FlintPaidPublicEvent.sol\":2343:2393  require(!isAttendee[msg.sender], \"Already joined\") */\n      tag_10\n      jump\t// in\n    tag_134:\n        /* \"contracts/FlintPaidPublicEvent.sol\":2404:2449  require(attendeeCount < maxAttendees, \"Full\") */\n      tag_135\n        /* \"contracts/FlintPaidPublicEvent.sol\":2412:2425  attendeeCount */\n      0x09\n        /* \"contracts/FlintPaidPublicEvent.sol\":271:5830  contract PaidPublicEvent {... */\n      sload\n      dup3\n      sload\n      gt\n        /* \"contracts/FlintPaidPublicEvent.sol\":2404:2449  require(attendeeCount < maxAttendees, \"Full\") */\n      tag_11\n      jump\t// in\n    tag_135:\n        /* \"contracts/FlintPaidPublicEvent.sol\":2484:2518  getETHAmountForUSD(ticketPriceUSD) */\n      tag_136\n        /* \"contracts/FlintPaidPublicEvent.sol\":2503:2517  ticketPriceUSD */\n      0x08\n        /* \"contracts/FlintPaidPublicEvent.sol\":271:5830  contract PaidPublicEvent {... */\n      sload\n        /* \"contracts/FlintPaidPublicEvent.sol\":2484:2518  getETHAmountForUSD(ticketPriceUSD) */\n      tag_17\n      jump\t// in\n    tag_136:\n        /* \"contracts/FlintPaidPublicEvent.sol\":2537:2546  msg.value */\n      callvalue\n        /* \"contracts/FlintPaidPublicEvent.sol\":2537:2561  msg.value >= requiredETH */\n      lt\n        /* \"contracts/FlintPaidPublicEvent.sol\":271:5830  contract PaidPublicEvent {... */\n      tag_137\n      jumpi\n        /* \"contracts/FlintPaidPublicEvent.sol\":2363:2373  msg.sender */\n      pop\n      caller\n        /* \"contracts/FlintPaidPublicEvent.sol\":271:5830  contract PaidPublicEvent {... */\n      0x00\n      mstore\n        /* \"contracts/FlintPaidPublicEvent.sol\":2352:2362  isAttendee */\n      0x0b\n        /* \"contracts/FlintPaidPublicEvent.sol\":271:5830  contract PaidPublicEvent {... */\n      0x20\n      mstore\n      dup1\n      0x00\n      keccak256\n        /* \"contracts/FlintPaidPublicEvent.sol\":2620:2624  true */\n      0x01\n        /* \"contracts/FlintPaidPublicEvent.sol\":271:5830  contract PaidPublicEvent {... */\n      not(0xff)\n      dup3\n      sload\n      and\n      or\n      swap1\n      sstore\n        /* \"contracts/FlintPaidPublicEvent.sol\":2635:2650  attendeeCount++ */\n      tag_139\n        /* \"contracts/FlintPaidPublicEvent.sol\":2412:2425  attendeeCount */\n      0x09\n        /* \"contracts/FlintPaidPublicEvent.sol\":271:5830  contract PaidPublicEvent {... */\n      sload\n        /* \"contracts/FlintPaidPublicEvent.sol\":2635:2650  attendeeCount++ */\n      tag_14\n      jump\t// in\n    tag_139:\n        /* \"contracts/FlintPaidPublicEvent.sol\":2412:2425  attendeeCount */\n      0x09\n        /* \"contracts/FlintPaidPublicEvent.sol\":271:5830  contract PaidPublicEvent {... */\n      sstore\n      mload\n        /* \"contracts/FlintPaidPublicEvent.sol\":2666:2691  Joined(msg.sender, title) */\n      0x099b41ef7710e47b6754d8ef11fe3ba8a88a70832b121b27d49884654df95d5e\n        /* \"contracts/FlintPaidPublicEvent.sol\":2363:2373  msg.sender */\n      caller\n        /* \"contracts/FlintPaidPublicEvent.sol\":2666:2691  Joined(msg.sender, title) */\n      swap2\n      dup1\n      tag_140\n      dup2\n      tag_15\n      jump\t// in\n    tag_140:\n      sub\n      swap1\n      log2\n        /* \"contracts/FlintPaidPublicEvent.sol\":271:5830  contract PaidPublicEvent {... */\n      stop\n    tag_137:\n      0x20\n      0x64\n      swap3\n      mload\n      swap2\n      shl(0xe5, 0x461bcd)\n      dup4\n      mstore\n      dup3\n      add\n      mstore\n      0x10\n      0x24\n      dup3\n      add\n      mstore\n      shl(0x83, 0x092dce6eaccccd2c6d2cadce8408aa89)\n      0x44\n      dup3\n      add\n      mstore\n      revert\n    tag_58:\n      pop\n      jumpi(tag_80, callvalue)\n      jumpi(tag_80, slt(add(not(0x03), calldatasize), 0x00))\n      0x20\n        /* \"contracts/FlintPaidPublicEvent.sol\":2946:2998  usdc.transferFrom(msg.sender, address(this), amount) */\n      tag_145\n        /* \"contracts/FlintPaidPublicEvent.sol\":2771:2781  msg.sender */\n      swap2\n      caller\n        /* \"contracts/FlintPaidPublicEvent.sol\":271:5830  contract PaidPublicEvent {... */\n      0x00\n      mstore\n        /* \"contracts/FlintPaidPublicEvent.sol\":2760:2770  isAttendee */\n      0x0b\n        /* \"contracts/FlintPaidPublicEvent.sol\":271:5830  contract PaidPublicEvent {... */\n      dup3\n      mstore\n        /* \"contracts/FlintPaidPublicEvent.sol\":2751:2801  require(!isAttendee[msg.sender], \"Already joined\") */\n      tag_146\n        /* \"contracts/FlintPaidPublicEvent.sol\":271:5830  contract PaidPublicEvent {... */\n      0xff\n      dup6\n      0x00\n      keccak256\n      sload\n      and\n        /* \"contracts/FlintPaidPublicEvent.sol\":2759:2782  !isAttendee[msg.sender] */\n      iszero\n        /* \"contracts/FlintPaidPublicEvent.sol\":2751:2801  require(!isAttendee[msg.sender], \"Already joined\") */\n      tag_10\n      jump\t// in\n    tag_146:\n        /* \"contracts/FlintPaidPublicEvent.sol\":2812:2857  require(attendeeCount < maxAttendees, \"Full\") */\n      tag_147\n        /* \"contracts/FlintPaidPublicEvent.sol\":2820:2833  attendeeCount */\n      0x09\n        /* \"contracts/FlintPaidPublicEvent.sol\":271:5830  contract PaidPublicEvent {... */\n      sload\n      dup3\n      sload\n      gt\n        /* \"contracts/FlintPaidPublicEvent.sol\":2812:2857  require(attendeeCount < maxAttendees, \"Full\") */\n      tag_11\n      jump\t// in\n    tag_147:\n        /* \"contracts/FlintPaidPublicEvent.sol\":2887:2901  ticketPriceUSD */\n      0x08\n        /* \"contracts/FlintPaidPublicEvent.sol\":271:5830  contract PaidPublicEvent {... */\n      sload\n        /* \"contracts/FlintPaidPublicEvent.sol\":2946:2950  usdc */\n      0x0d\n        /* \"contracts/FlintPaidPublicEvent.sol\":271:5830  contract PaidPublicEvent {... */\n      sload\n      dup6\n      mload\n      shl(0xe0, 0x23b872dd)\n        /* \"contracts/FlintPaidPublicEvent.sol\":2946:2998  usdc.transferFrom(msg.sender, address(this), amount) */\n      dup2\n      mstore\n        /* \"contracts/FlintPaidPublicEvent.sol\":2771:2781  msg.sender */\n      caller\n        /* \"contracts/FlintPaidPublicEvent.sol\":2946:2998  usdc.transferFrom(msg.sender, address(this), amount) */\n      swap4\n      dup2\n      add\n        /* \"contracts/FlintPaidPublicEvent.sol\":271:5830  contract PaidPublicEvent {... */\n      swap4\n      dup5\n      mstore\n        /* \"contracts/FlintPaidPublicEvent.sol\":2984:2988  this */\n      address\n        /* \"contracts/FlintPaidPublicEvent.sol\":271:5830  contract PaidPublicEvent {... */\n      0x20\n      dup6\n      add\n      mstore\n        /* \"contracts/FlintPaidPublicEvent.sol\":2904:2908  1e12 */\n      0xe8d4a51000\n        /* \"contracts/FlintPaidPublicEvent.sol\":271:5830  contract PaidPublicEvent {... */\n      swap1\n      swap3\n      div\n      0x40\n      dup5\n      add\n      mstore\n      swap1\n      swap4\n      dup5\n      swap3\n      sub(shl(0xa0, 0x01), 0x01)\n      swap1\n      swap3\n      and\n      swap2\n      dup4\n      swap2\n      0x00\n      swap2\n      dup4\n      swap2\n      0x60\n      swap1\n      swap2\n      add\n      swap1\n      jump\n        /* \"contracts/FlintPaidPublicEvent.sol\":2946:2998  usdc.transferFrom(msg.sender, address(this), amount) */\n    tag_145:\n      sub\n      swap3\n      gas\n      call\n      dup1\n      iszero\n      tag_148\n      jumpi\n        /* \"contracts/FlintPaidPublicEvent.sol\":2938:3018  require(usdc.transferFrom(msg.sender, address(this), amount), \"Transfer failed\") */\n      tag_150\n        /* \"contracts/FlintPaidPublicEvent.sol\":2946:2998  usdc.transferFrom(msg.sender, address(this), amount) */\n      swap2\n        /* \"contracts/FlintPaidPublicEvent.sol\":271:5830  contract PaidPublicEvent {... */\n      0x00\n        /* \"contracts/FlintPaidPublicEvent.sol\":2946:2998  usdc.transferFrom(msg.sender, address(this), amount) */\n      swap2\n      tag_151\n      jumpi\n        /* \"contracts/FlintPaidPublicEvent.sol\":271:5830  contract PaidPublicEvent {... */\n    tag_152:\n        /* \"contracts/FlintPaidPublicEvent.sol\":2938:3018  require(usdc.transferFrom(msg.sender, address(this), amount), \"Transfer failed\") */\n      pop\n      tag_13\n      jump\t// in\n    tag_150:\n        /* \"contracts/FlintPaidPublicEvent.sol\":2771:2781  msg.sender */\n      caller\n        /* \"contracts/FlintPaidPublicEvent.sol\":271:5830  contract PaidPublicEvent {... */\n      0x00\n      mstore\n        /* \"contracts/FlintPaidPublicEvent.sol\":2760:2770  isAttendee */\n      0x0b\n        /* \"contracts/FlintPaidPublicEvent.sol\":271:5830  contract PaidPublicEvent {... */\n      0x20\n      mstore\n      dup1\n      0x00\n      keccak256\n        /* \"contracts/FlintPaidPublicEvent.sol\":3056:3060  true */\n      0x01\n        /* \"contracts/FlintPaidPublicEvent.sol\":271:5830  contract PaidPublicEvent {... */\n      not(0xff)\n      dup3\n      sload\n      and\n      or\n      swap1\n      sstore\n        /* \"contracts/FlintPaidPublicEvent.sol\":3071:3086  attendeeCount++ */\n      tag_139\n        /* \"contracts/FlintPaidPublicEvent.sol\":2820:2833  attendeeCount */\n      0x09\n        /* \"contracts/FlintPaidPublicEvent.sol\":271:5830  contract PaidPublicEvent {... */\n      sload\n        /* \"contracts/FlintPaidPublicEvent.sol\":3071:3086  attendeeCount++ */\n      tag_14\n      jump\t// in\n        /* \"contracts/FlintPaidPublicEvent.sol\":2946:2998  usdc.transferFrom(msg.sender, address(this), amount) */\n    tag_151:\n      tag_155\n      swap2\n      pop\n        /* \"contracts/FlintPaidPublicEvent.sol\":271:5830  contract PaidPublicEvent {... */\n      0x20\n        /* \"contracts/FlintPaidPublicEvent.sol\":2946:2998  usdc.transferFrom(msg.sender, address(this), amount) */\n      returndatasize\n        /* \"contracts/FlintPaidPublicEvent.sol\":271:5830  contract PaidPublicEvent {... */\n      0x20\n        /* \"contracts/FlintPaidPublicEvent.sol\":2946:2998  usdc.transferFrom(msg.sender, address(this), amount) */\n      gt\n      tag_156\n      jumpi\n    tag_157:\n      tag_158\n      dup2\n      dup4\n      tag_2\n      jump\t// in\n    tag_158:\n      dup2\n      add\n      swap1\n      tag_8\n      jump\t// in\n    tag_155:\n      0x00\n      jump(tag_152)\n    tag_156:\n      pop\n      returndatasize\n      jump(tag_157)\n    tag_148:\n        /* \"contracts/FlintPaidPublicEvent.sol\":271:5830  contract PaidPublicEvent {... */\n      dup3\n      mload\n      returndatasize\n      0x00\n      dup3\n      returndatacopy\n      returndatasize\n      swap1\n      revert\n    tag_56:\n      dup3\n      jumpi(tag_80, callvalue)\n      jumpi(tag_80, slt(add(not(0x03), calldatasize), 0x00))\n        /* \"contracts/FlintPaidPublicEvent.sol\":451:471  address public owner */\n      0x05\n        /* \"contracts/FlintPaidPublicEvent.sol\":271:5830  contract PaidPublicEvent {... */\n      sload\n      swap1\n      mload\n      sub(shl(0xa0, 0x01), 0x01)\n      swap1\n      swap2\n      and\n      dup2\n      mstore\n      0x20\n      swap1\n      return\n    tag_54:\n      pop\n      jumpi(tag_80, callvalue)\n      jumpi(tag_80, slt(add(not(0x03), calldatasize), 0x00))\n        /* \"contracts/FlintPaidPublicEvent.sol\":1059:1064  owner */\n      0x05\n        /* \"contracts/FlintPaidPublicEvent.sol\":271:5830  contract PaidPublicEvent {... */\n      sload\n      sub(shl(0xa0, 0x01), 0x01)\n      and\n        /* \"contracts/FlintPaidPublicEvent.sol\":1045:1055  msg.sender */\n      caller\n        /* \"contracts/FlintPaidPublicEvent.sol\":1045:1064  msg.sender == owner */\n      eq\n        /* \"contracts/FlintPaidPublicEvent.sol\":1045:1087  msg.sender == owner || isStaff[msg.sender] */\n      dup1\n      iszero\n      tag_167\n      jumpi\n        /* \"contracts/FlintPaidPublicEvent.sol\":271:5830  contract PaidPublicEvent {... */\n    tag_168:\n        /* \"contracts/FlintPaidPublicEvent.sol\":1037:1108  require(msg.sender == owner || isStaff[msg.sender], \"You're not staff\") */\n      tag_169\n      swap1\n      tag_5\n      jump\t// in\n    tag_169:\n        /* \"contracts/FlintPaidPublicEvent.sol\":5151:5161  eventEnded */\n      0x0a\n        /* \"contracts/FlintPaidPublicEvent.sol\":271:5830  contract PaidPublicEvent {... */\n      sload\n      swap2\n      0xff\n      dup4\n      and\n      tag_170\n      jumpi\n        /* \"contracts/FlintPaidPublicEvent.sol\":5226:5234  startsAt */\n      0x06\n        /* \"contracts/FlintPaidPublicEvent.sol\":271:5830  contract PaidPublicEvent {... */\n      sload\n        /* \"contracts/FlintPaidPublicEvent.sol\":5207:5222  block.timestamp */\n      timestamp\n        /* \"contracts/FlintPaidPublicEvent.sol\":5207:5234  block.timestamp >= startsAt */\n      lt\n        /* \"contracts/FlintPaidPublicEvent.sol\":271:5830  contract PaidPublicEvent {... */\n      tag_172\n      jumpi\n      not(0xff)\n      dup4\n      and\n        /* \"contracts/FlintPaidPublicEvent.sol\":5286:5290  true */\n      0x01\n        /* \"contracts/FlintPaidPublicEvent.sol\":271:5830  contract PaidPublicEvent {... */\n      or\n        /* \"contracts/FlintPaidPublicEvent.sol\":5151:5161  eventEnded */\n      0x0a\n        /* \"contracts/FlintPaidPublicEvent.sol\":271:5830  contract PaidPublicEvent {... */\n      sstore\n      stop\n    tag_172:\n      swap1\n      0x20\n      0x64\n      swap3\n      mload\n      swap2\n      shl(0xe5, 0x461bcd)\n      dup4\n      mstore\n      dup3\n      add\n      mstore\n      0x15\n      0x24\n      dup3\n      add\n      mstore\n      shl(0x5a, 0x115d995b9d081b9bdd081cdd185c9d1959081e595d)\n      0x44\n      dup3\n      add\n      mstore\n      revert\n    tag_170:\n      swap1\n      0x20\n      0x64\n      swap3\n      mload\n      swap2\n      shl(0xe5, 0x461bcd)\n      dup4\n      mstore\n      dup3\n      add\n      mstore\n      0x16\n      0x24\n      dup3\n      add\n      mstore\n      shl(0x52, 0x115d995b9d08185b1c9958591e48199a5b9a5cda1959)\n      0x44\n      dup3\n      add\n      mstore\n      revert\n        /* \"contracts/FlintPaidPublicEvent.sol\":1045:1087  msg.sender == owner || isStaff[msg.sender] */\n    tag_167:\n      pop\n        /* \"contracts/FlintPaidPublicEvent.sol\":1045:1055  msg.sender */\n      caller\n        /* \"contracts/FlintPaidPublicEvent.sol\":271:5830  contract PaidPublicEvent {... */\n      0x00\n      swap1\n      dup2\n      mstore\n        /* \"contracts/FlintPaidPublicEvent.sol\":1068:1075  isStaff */\n      0x0c\n        /* \"contracts/FlintPaidPublicEvent.sol\":271:5830  contract PaidPublicEvent {... */\n      0x20\n      mstore\n      dup3\n      swap1\n      keccak256\n      sload\n      0xff\n      and\n        /* \"contracts/FlintPaidPublicEvent.sol\":1045:1087  msg.sender == owner || isStaff[msg.sender] */\n      jump(tag_168)\n        /* \"contracts/FlintPaidPublicEvent.sol\":271:5830  contract PaidPublicEvent {... */\n    tag_52:\n      pop\n      jumpi(tag_80, callvalue)\n      jumpi(tag_80, slt(add(not(0x03), calldatasize), 0x00))\n      0x20\n        /* \"contracts/FlintPaidPublicEvent.sol\":3382:3434  usdt.transferFrom(msg.sender, address(this), amount) */\n      tag_145\n        /* \"contracts/FlintPaidPublicEvent.sol\":3207:3217  msg.sender */\n      swap2\n      caller\n        /* \"contracts/FlintPaidPublicEvent.sol\":271:5830  contract PaidPublicEvent {... */\n      0x00\n      mstore\n        /* \"contracts/FlintPaidPublicEvent.sol\":3196:3206  isAttendee */\n      0x0b\n        /* \"contracts/FlintPaidPublicEvent.sol\":271:5830  contract PaidPublicEvent {... */\n      dup3\n      mstore\n        /* \"contracts/FlintPaidPublicEvent.sol\":3187:3237  require(!isAttendee[msg.sender], \"Already joined\") */\n      tag_179\n        /* \"contracts/FlintPaidPublicEvent.sol\":271:5830  contract PaidPublicEvent {... */\n      0xff\n      dup6\n      0x00\n      keccak256\n      sload\n      and\n        /* \"contracts/FlintPaidPublicEvent.sol\":3195:3218  !isAttendee[msg.sender] */\n      iszero\n        /* \"contracts/FlintPaidPublicEvent.sol\":3187:3237  require(!isAttendee[msg.sender], \"Already joined\") */\n      tag_10\n      jump\t// in\n    tag_179:\n        /* \"contracts/FlintPaidPublicEvent.sol\":3248:3293  require(attendeeCount < maxAttendees, \"Full\") */\n      tag_180\n        /* \"contracts/FlintPaidPublicEvent.sol\":3256:3269  attendeeCount */\n      0x09\n        /* \"contracts/FlintPaidPublicEvent.sol\":271:5830  contract PaidPublicEvent {... */\n      sload\n      dup3\n      sload\n      gt\n        /* \"contracts/FlintPaidPublicEvent.sol\":3248:3293  require(attendeeCount < maxAttendees, \"Full\") */\n      tag_11\n      jump\t// in\n    tag_180:\n        /* \"contracts/FlintPaidPublicEvent.sol\":3323:3337  ticketPriceUSD */\n      0x08\n        /* \"contracts/FlintPaidPublicEvent.sol\":271:5830  contract PaidPublicEvent {... */\n      sload\n        /* \"contracts/FlintPaidPublicEvent.sol\":3382:3386  usdt */\n      0x0e\n        /* \"contracts/FlintPaidPublicEvent.sol\":271:5830  contract PaidPublicEvent {... */\n      sload\n      dup6\n      mload\n      shl(0xe0, 0x23b872dd)\n        /* \"contracts/FlintPaidPublicEvent.sol\":3382:3434  usdt.transferFrom(msg.sender, address(this), amount) */\n      dup2\n      mstore\n        /* \"contracts/FlintPaidPublicEvent.sol\":3207:3217  msg.sender */\n      caller\n        /* \"contracts/FlintPaidPublicEvent.sol\":3382:3434  usdt.transferFrom(msg.sender, address(this), amount) */\n      swap4\n      dup2\n      add\n        /* \"contracts/FlintPaidPublicEvent.sol\":271:5830  contract PaidPublicEvent {... */\n      swap4\n      dup5\n      mstore\n        /* \"contracts/FlintPaidPublicEvent.sol\":3420:3424  this */\n      address\n        /* \"contracts/FlintPaidPublicEvent.sol\":271:5830  contract PaidPublicEvent {... */\n      0x20\n      dup6\n      add\n      mstore\n        /* \"contracts/FlintPaidPublicEvent.sol\":3340:3344  1e12 */\n      0xe8d4a51000\n        /* \"contracts/FlintPaidPublicEvent.sol\":271:5830  contract PaidPublicEvent {... */\n      swap1\n      swap3\n      div\n      0x40\n      dup5\n      add\n      mstore\n      swap1\n      swap4\n      dup5\n      swap3\n      sub(shl(0xa0, 0x01), 0x01)\n      swap1\n      swap3\n      and\n      swap2\n      dup4\n      swap2\n      0x00\n      swap2\n      dup4\n      swap2\n      0x60\n      swap1\n      swap2\n      add\n      swap1\n      jump\n    tag_50:\n      dup3\n      jumpi(tag_80, callvalue)\n      jumpi(tag_80, slt(add(not(0x03), calldatasize), 0x00))\n      dup1\n      mload\n        /* \"contracts/FlintPaidPublicEvent.sol\":358:383  string public description */\n      0x02\n        /* \"contracts/FlintPaidPublicEvent.sol\":271:5830  contract PaidPublicEvent {... */\n      sload\n      swap1\n      swap2\n      dup3\n      0x00\n      tag_196\n      dup5\n      tag_1\n      jump\t// in\n    tag_196:\n      dup1\n      dup4\n      mstore\n      0x20\n      swap5\n      0x01\n      swap1\n      dup7\n      0x01\n      dup3\n      and\n      swap2\n      dup3\n      0x00\n      eq\n      tag_197\n      jumpi\n      pop\n      pop\n      0x01\n      eq\n      tag_199\n      jumpi\n    tag_200:\n      pop\n      pop\n      tag_201\n      swap3\n      swap2\n      tag_202\n      swap2\n      sub\n      dup6\n      tag_2\n      jump\t// in\n    tag_202:\n      mload\n      swap3\n      dup3\n      dup5\n      swap4\n      dup5\n      mstore\n      dup4\n      add\n      swap1\n      tag_4\n      jump\t// in\n    tag_201:\n      sub\n      swap1\n      return\n    tag_199:\n      swap1\n      dup6\n      swap3\n      pop\n        /* \"contracts/FlintPaidPublicEvent.sol\":358:383  string public description */\n      0x02\n        /* \"contracts/FlintPaidPublicEvent.sol\":271:5830  contract PaidPublicEvent {... */\n      0x00\n      mstore\n      0x405787fa12a823e0f2b7631cc41b3ba8828b3321ca811111fa75cd3aa3bb5ace\n      swap2\n      0x00\n      swap3\n    tag_203:\n      dup3\n      dup5\n      lt\n      tag_204\n      jumpi\n      pop\n      pop\n      pop\n      dup3\n      add\n      add\n      dup2\n      tag_202\n      jump(tag_200)\n    tag_204:\n      dup1\n      sload\n      dup5\n      dup11\n      add\n      dup7\n      add\n      mstore\n      dup9\n      swap6\n      pop\n      dup8\n      swap5\n      swap1\n      swap4\n      add\n      swap3\n      dup2\n      add\n      jump(tag_203)\n    tag_197:\n      not(0xff)\n      and\n      dup7\n      dup3\n      add\n      mstore\n      swap3\n      iszero\n      iszero\n      0x05\n      shl\n      dup6\n      add\n      swap1\n      swap3\n      add\n      swap3\n      pop\n      dup4\n      swap2\n      pop\n      tag_202\n      swap1\n      pop\n      jump(tag_200)\n    tag_48:\n      pop\n      jumpi(tag_80, callvalue)\n      jumpi(tag_80, slt(add(not(0x03), calldatasize), 0x00))\n        /* \"contracts/FlintPaidPublicEvent.sol\":4494:4498  tags */\n      0x03\n        /* \"contracts/FlintPaidPublicEvent.sol\":271:5830  contract PaidPublicEvent {... */\n      sload\n      swap1\n      0xffffffffffffffff\n      dup3\n      gt\n      tag_210\n      jumpi\n      pop\n      0x20\n      swap1\n      dup3\n      mload\n      swap2\n      tag_212\n      dup2\n      dup4\n      0x05\n      shl\n      add\n      dup5\n      tag_2\n      jump\t// in\n    tag_212:\n      dup2\n      dup4\n      mstore\n      dup1\n      dup4\n      add\n      swap2\n      dup3\n        /* \"contracts/FlintPaidPublicEvent.sol\":4494:4498  tags */\n      0x03\n        /* \"contracts/FlintPaidPublicEvent.sol\":271:5830  contract PaidPublicEvent {... */\n      0x00\n      mstore\n      0xc2575a0e9e593c00f959f8c92f12db2869c3395a3b0502d05e2516446f71f85b\n      0x00\n      swap2\n    tag_213:\n      dup4\n      dup4\n      lt\n      tag_214\n      jumpi\n      pop\n      pop\n      pop\n      pop\n      dup4\n      mload\n      swap3\n      dup2\n      dup5\n      add\n      swap1\n      dup3\n      dup6\n      mstore\n      mload\n      dup1\n      swap2\n      mstore\n      dup5\n      dup5\n      add\n      swap5\n      dup2\n      0x05\n      shl\n      dup6\n      add\n      add\n      swap3\n      swap2\n      0x00\n      swap6\n    tag_216:\n      dup3\n      dup8\n      lt\n      tag_217\n      jumpi\n      dup6\n      dup6\n      sub\n      dup7\n      return\n    tag_217:\n      swap1\n      swap2\n      swap3\n      swap4\n      dup3\n      dup1\n      tag_219\n      0x01\n      swap4\n      not(0x3f)\n      dup11\n      dup3\n      sub\n      add\n      dup7\n      mstore\n      dup9\n      mload\n      tag_4\n      jump\t// in\n    tag_219:\n      swap7\n      add\n      swap3\n      add\n      swap7\n      add\n      swap6\n      swap3\n      swap2\n      swap1\n      swap3\n      jump(tag_216)\n    tag_214:\n      0x01\n      dup6\n      dup2\n      swap3\n      tag_220\n      dup6\n      swap11\n      swap9\n      swap11\n      tag_3\n      jump\t// in\n    tag_220:\n      dup2\n      mstore\n      add\n      swap3\n      add\n      swap3\n      add\n      swap2\n      swap1\n      swap6\n      swap4\n      swap6\n      jump(tag_213)\n    tag_210:\n      0x41\n      swap1\n      mstore(0x00, shl(0xe0, 0x4e487b71))\n      mstore\n      revert(0x00, 0x24)\n    tag_46:\n      pop\n      jumpi(tag_80, callvalue)\n      jumpi(tag_80, slt(add(not(0x03), calldatasize), 0x20))\n      calldataload\n      sub(shl(0xa0, 0x01), 0x01)\n      dup2\n      and\n      swap2\n      swap1\n      dup3\n      swap1\n      sub\n      tag_80\n      jumpi\n      0x20\n      swap2\n      0x00\n      mstore\n        /* \"contracts/FlintPaidPublicEvent.sol\":716:758  mapping(address => bool) public isAttendee */\n      0x0b\n        /* \"contracts/FlintPaidPublicEvent.sol\":271:5830  contract PaidPublicEvent {... */\n      dup3\n      mstore\n      0xff\n      dup2\n      0x00\n      keccak256\n      sload\n      and\n      swap1\n      mload\n      swap1\n      iszero\n      iszero\n      dup2\n      mstore\n      return\n    tag_44:\n      pop\n      swap1\n      jumpi(tag_80, callvalue)\n      jumpi(tag_80, slt(add(not(0x03), calldatasize), 0x00))\n      0x20\n      swap2\n      sload\n      swap1\n      mload\n      swap1\n      dup2\n      mstore\n      return\n    tag_42:\n      pop\n      jumpi(tag_80, callvalue)\n      jumpi(tag_80, slt(add(not(0x03), calldatasize), 0x20))\n      calldataload\n      sub(shl(0xa0, 0x01), 0x01)\n      dup2\n      dup2\n      and\n      swap2\n      dup3\n      swap1\n      sub\n      tag_80\n      jumpi\n        /* \"contracts/FlintPaidPublicEvent.sol\":1168:1209  require(msg.sender == owner, \"Not owner\") */\n      tag_237\n        /* \"contracts/FlintPaidPublicEvent.sol\":271:5830  contract PaidPublicEvent {... */\n      swap1\n        /* \"contracts/FlintPaidPublicEvent.sol\":1190:1195  owner */\n      0x05\n        /* \"contracts/FlintPaidPublicEvent.sol\":271:5830  contract PaidPublicEvent {... */\n      sload\n      and\n        /* \"contracts/FlintPaidPublicEvent.sol\":1176:1186  msg.sender */\n      caller\n        /* \"contracts/FlintPaidPublicEvent.sol\":1176:1195  msg.sender == owner */\n      eq\n        /* \"contracts/FlintPaidPublicEvent.sol\":1168:1209  require(msg.sender == owner, \"Not owner\") */\n      tag_7\n      jump\t// in\n    tag_237:\n        /* \"contracts/FlintPaidPublicEvent.sol\":271:5830  contract PaidPublicEvent {... */\n      0x00\n      swap1\n      dup2\n      mstore\n        /* \"contracts/FlintPaidPublicEvent.sol\":5688:5695  isStaff */\n      0x0c\n        /* \"contracts/FlintPaidPublicEvent.sol\":271:5830  contract PaidPublicEvent {... */\n      0x20\n      mstore\n      keccak256\n      dup1\n      sload\n      not(0xff)\n      and\n        /* \"contracts/FlintPaidPublicEvent.sol\":5709:5713  true */\n      0x01\n        /* \"contracts/FlintPaidPublicEvent.sol\":271:5830  contract PaidPublicEvent {... */\n      or\n      swap1\n      sstore\n      stop\n    tag_40:\n      dup3\n      jumpi(tag_80, callvalue)\n      jumpi(tag_80, slt(add(not(0x03), calldatasize), 0x00))\n      dup1\n      mload\n      swap1\n      0x00\n        /* \"contracts/FlintPaidPublicEvent.sol\":329:351  string public location */\n      swap1\n      dup3\n      0x01\n        /* \"contracts/FlintPaidPublicEvent.sol\":271:5830  contract PaidPublicEvent {... */\n      swap3\n        /* \"contracts/FlintPaidPublicEvent.sol\":329:351  string public location */\n      0x01\n        /* \"contracts/FlintPaidPublicEvent.sol\":271:5830  contract PaidPublicEvent {... */\n      sload\n      swap4\n      tag_242\n      dup6\n      tag_1\n      jump\t// in\n    tag_242:\n      swap1\n      dup2\n      dup5\n      mstore\n      0x20\n      swap6\n      dup7\n        /* \"contracts/FlintPaidPublicEvent.sol\":329:351  string public location */\n      0x01\n        /* \"contracts/FlintPaidPublicEvent.sol\":271:5830  contract PaidPublicEvent {... */\n      dup3\n      and\n        /* \"contracts/FlintPaidPublicEvent.sol\":329:351  string public location */\n      swap2\n      dup3\n        /* \"contracts/FlintPaidPublicEvent.sol\":271:5830  contract PaidPublicEvent {... */\n      0x00\n        /* \"contracts/FlintPaidPublicEvent.sol\":329:351  string public location */\n      eq\n      tag_197\n      jumpi\n        /* \"contracts/FlintPaidPublicEvent.sol\":271:5830  contract PaidPublicEvent {... */\n      pop\n      pop\n      0x01\n      eq\n      tag_245\n      jumpi\n      pop\n      pop\n      tag_201\n      swap3\n      swap2\n      tag_202\n      swap2\n      sub\n      dup6\n      tag_2\n      jump\t// in\n    tag_245:\n      swap1\n      dup6\n      swap3\n      pop\n        /* \"contracts/FlintPaidPublicEvent.sol\":329:351  string public location */\n      0x01\n        /* \"contracts/FlintPaidPublicEvent.sol\":271:5830  contract PaidPublicEvent {... */\n      0x00\n      mstore\n      0xb10e2d527612073b26eecdfd717e6a320cf44b4afac2b0732d9fcbe2b7fa0cf6\n      swap2\n      0x00\n      swap3\n    tag_249:\n      dup3\n      dup5\n      lt\n      tag_250\n      jumpi\n      pop\n      pop\n      pop\n      dup3\n      add\n      add\n      dup2\n      tag_202\n      jump(tag_200)\n    tag_250:\n      dup1\n      sload\n      dup5\n      dup11\n      add\n      dup7\n      add\n      mstore\n      dup9\n      swap6\n      pop\n      dup8\n      swap5\n      swap1\n      swap4\n      add\n      swap3\n      dup2\n      add\n      jump(tag_249)\n    tag_38:\n      dup3\n      jumpi(tag_80, callvalue)\n      jumpi(tag_80, slt(add(not(0x03), calldatasize), 0x00))\n      dup1\n      mload\n      swap1\n      0x00\n      swap1\n      dup3\n      sload(0x00)\n      swap3\n      tag_256\n      dup5\n      tag_1\n      jump\t// in\n    tag_256:\n      dup1\n      dup4\n      mstore\n      0x20\n      swap5\n      0x01\n      swap1\n      dup7\n      0x01\n      dup3\n      and\n      swap2\n      dup3\n      0x00\n      eq\n      tag_197\n      jumpi\n      pop\n      pop\n      0x01\n      eq\n      tag_259\n      jumpi\n      pop\n      pop\n      tag_201\n      swap3\n      swap2\n      tag_202\n      swap2\n      sub\n      dup6\n      tag_2\n      jump\t// in\n    tag_259:\n      0x00\n      dup1\n      dup1\n      mstore\n      dup7\n      swap4\n      pop\n      swap2\n      swap1\n      0x290decd9548b62a8d60345a988386fc84ba6bc95484008f6362f93160ef3e563\n    tag_263:\n      dup3\n      dup5\n      lt\n      tag_264\n      jumpi\n      pop\n      pop\n      pop\n      dup3\n      add\n      add\n      dup2\n      tag_202\n      jump(tag_200)\n    tag_264:\n      dup1\n      sload\n      dup5\n      dup11\n      add\n      dup7\n      add\n      mstore\n      dup9\n      swap6\n      pop\n      dup8\n      swap5\n      swap1\n      swap4\n      add\n      swap3\n      dup2\n      add\n      jump(tag_263)\n    tag_36:\n      dup3\n      jumpi(tag_80, callvalue)\n      jumpi(tag_80, slt(add(not(0x03), calldatasize), 0x00))\n        /* \"contracts/FlintPaidPublicEvent.sol\":1287:1326  MockV3Aggregator public ethUsdPriceFeed */\n      0x0f\n        /* \"contracts/FlintPaidPublicEvent.sol\":271:5830  contract PaidPublicEvent {... */\n      sload\n      swap1\n      mload\n      sub(shl(0xa0, 0x01), 0x01)\n      swap1\n      swap2\n      and\n      dup2\n      mstore\n      0x20\n      swap1\n      return\n    tag_34:\n      dup3\n      jumpi(tag_80, callvalue)\n      jumpi(tag_80, slt(add(not(0x03), calldatasize), 0x00))\n        /* \"contracts/FlintPaidPublicEvent.sol\":1237:1255  IERC20 public usdc */\n      0x0d\n        /* \"contracts/FlintPaidPublicEvent.sol\":271:5830  contract PaidPublicEvent {... */\n      sload\n      swap1\n      mload\n      sub(shl(0xa0, 0x01), 0x01)\n      swap1\n      swap2\n      and\n      dup2\n      mstore\n      0x20\n      swap1\n      return\n    tag_32:\n      pop\n      jumpi(tag_80, callvalue)\n      jumpi(tag_80, slt(add(not(0x03), calldatasize), 0x00))\n        /* \"contracts/FlintPaidPublicEvent.sol\":1190:1195  owner */\n      0x05\n        /* \"contracts/FlintPaidPublicEvent.sol\":271:5830  contract PaidPublicEvent {... */\n      sload\n      sub(shl(0xa0, 0x01), 0x01)\n      swap1\n      dup2\n      and\n      swap2\n      swap1\n        /* \"contracts/FlintPaidPublicEvent.sol\":1168:1209  require(msg.sender == owner, \"Not owner\") */\n      tag_278\n        /* \"contracts/FlintPaidPublicEvent.sol\":1176:1186  msg.sender */\n      caller\n        /* \"contracts/FlintPaidPublicEvent.sol\":1176:1195  msg.sender == owner */\n      dup5\n      eq\n        /* \"contracts/FlintPaidPublicEvent.sol\":1168:1209  require(msg.sender == owner, \"Not owner\") */\n      tag_7\n      jump\t// in\n    tag_278:\n        /* \"contracts/FlintPaidPublicEvent.sol\":3650:3671  address(this).balance */\n      selfbalance\n        /* \"contracts/FlintPaidPublicEvent.sol\":271:5830  contract PaidPublicEvent {... */\n      swap3\n      dup2\n        /* \"contracts/FlintPaidPublicEvent.sol\":3704:3708  usdc */\n      0x0d\n        /* \"contracts/FlintPaidPublicEvent.sol\":271:5830  contract PaidPublicEvent {... */\n      sload\n      and\n      swap2\n      dup6\n      mload\n      swap4\n      dup5\n      swap3\n      shl(0xe0, 0x70a08231)\n        /* \"contracts/FlintPaidPublicEvent.sol\":3704:3733  usdc.balanceOf(address(this)) */\n      swap5\n      dup6\n      dup6\n      mstore\n        /* \"contracts/FlintPaidPublicEvent.sol\":3658:3662  this */\n      address\n        /* \"contracts/FlintPaidPublicEvent.sol\":3704:3733  usdc.balanceOf(address(this)) */\n      dup4\n      dup7\n      add\n        /* \"contracts/FlintPaidPublicEvent.sol\":271:5830  contract PaidPublicEvent {... */\n      mstore\n        /* \"contracts/FlintPaidPublicEvent.sol\":3704:3733  usdc.balanceOf(address(this)) */\n      dup5\n        /* \"contracts/FlintPaidPublicEvent.sol\":271:5830  contract PaidPublicEvent {... */\n      0x24\n        /* \"contracts/FlintPaidPublicEvent.sol\":3704:3733  usdc.balanceOf(address(this)) */\n      0x20\n      swap9\n      dup10\n      swap4\n      gas\n      staticcall\n      swap4\n      dup5\n      iszero\n      tag_305\n      jumpi\n        /* \"contracts/FlintPaidPublicEvent.sol\":271:5830  contract PaidPublicEvent {... */\n      0x00\n        /* \"contracts/FlintPaidPublicEvent.sol\":3704:3733  usdc.balanceOf(address(this)) */\n      swap5\n      tag_281\n      jumpi\n        /* \"contracts/FlintPaidPublicEvent.sol\":271:5830  contract PaidPublicEvent {... */\n    tag_282:\n      pop\n      dup6\n      dup4\n        /* \"contracts/FlintPaidPublicEvent.sol\":3766:3770  usdt */\n      0x0e\n        /* \"contracts/FlintPaidPublicEvent.sol\":271:5830  contract PaidPublicEvent {... */\n      sload\n      and\n      swap6\n      0x24\n      dup11\n      mload\n        /* \"contracts/FlintPaidPublicEvent.sol\":3766:3795  usdt.balanceOf(address(this)) */\n      dup1\n      swap9\n      dup2\n      swap4\n      dup3\n      mstore\n        /* \"contracts/FlintPaidPublicEvent.sol\":3658:3662  this */\n      address\n        /* \"contracts/FlintPaidPublicEvent.sol\":3766:3795  usdt.balanceOf(address(this)) */\n      dup8\n      dup4\n      add\n        /* \"contracts/FlintPaidPublicEvent.sol\":271:5830  contract PaidPublicEvent {... */\n      mstore\n        /* \"contracts/FlintPaidPublicEvent.sol\":3766:3795  usdt.balanceOf(address(this)) */\n      gas\n      staticcall\n      swap5\n      dup6\n      iszero\n      tag_305\n      jumpi\n        /* \"contracts/FlintPaidPublicEvent.sol\":271:5830  contract PaidPublicEvent {... */\n      0x00\n        /* \"contracts/FlintPaidPublicEvent.sol\":3766:3795  usdt.balanceOf(address(this)) */\n      swap6\n      tag_285\n      jumpi\n        /* \"contracts/FlintPaidPublicEvent.sol\":271:5830  contract PaidPublicEvent {... */\n    tag_286:\n        /* \"contracts/FlintPaidPublicEvent.sol\":3812:3826  ethBalance > 0 */\n      pop\n      dup7\n      dup1\n      iszero\n      swap2\n      dup3\n      iszero\n        /* \"contracts/FlintPaidPublicEvent.sol\":3808:3863  if (ethBalance > 0) payable(owner).transfer(ethBalance) */\n      tag_287\n      jumpi\n        /* \"contracts/FlintPaidPublicEvent.sol\":271:5830  contract PaidPublicEvent {... */\n    tag_288:\n        /* \"contracts/FlintPaidPublicEvent.sol\":3878:3893  usdcBalance > 0 */\n      pop\n      pop\n      pop\n      dup3\n        /* \"contracts/FlintPaidPublicEvent.sol\":3874:3928  if (usdcBalance > 0) usdc.transfer(owner, usdcBalance) */\n      tag_289\n      jumpi\n        /* \"contracts/FlintPaidPublicEvent.sol\":271:5830  contract PaidPublicEvent {... */\n    tag_290:\n        /* \"contracts/FlintPaidPublicEvent.sol\":3943:3958  usdtBalance > 0 */\n      dup4\n        /* \"contracts/FlintPaidPublicEvent.sol\":3939:3993  if (usdtBalance > 0) usdt.transfer(owner, usdtBalance) */\n      tag_291\n      jumpi\n        /* \"contracts/FlintPaidPublicEvent.sol\":271:5830  contract PaidPublicEvent {... */\n    tag_292:\n      pop\n      swap2\n        /* \"contracts/FlintPaidPublicEvent.sol\":4027:4051  ethBalance + usdcBalance */\n      tag_293\n        /* \"contracts/FlintPaidPublicEvent.sol\":4027:4065  ethBalance + usdcBalance + usdtBalance */\n      tag_294\n        /* \"contracts/FlintPaidPublicEvent.sol\":271:5830  contract PaidPublicEvent {... */\n      swap3\n        /* \"contracts/FlintPaidPublicEvent.sol\":4011:4066  Withdraw(owner, ethBalance + usdcBalance + usdtBalance) */\n      0x884edad9ce6fa2440d8a54cc123490eb96d2768479d49ff9c7366125a9424364\n        /* \"contracts/FlintPaidPublicEvent.sol\":271:5830  contract PaidPublicEvent {... */\n      swap7\n      swap8\n      swap5\n        /* \"contracts/FlintPaidPublicEvent.sol\":1190:1195  owner */\n      0x05\n        /* \"contracts/FlintPaidPublicEvent.sol\":271:5830  contract PaidPublicEvent {... */\n      sload\n      and\n        /* \"contracts/FlintPaidPublicEvent.sol\":4027:4051  ethBalance + usdcBalance */\n      swap8\n      tag_6\n      jump\t// in\n    tag_293:\n        /* \"contracts/FlintPaidPublicEvent.sol\":4027:4065  ethBalance + usdcBalance + usdtBalance */\n      tag_6\n      jump\t// in\n    tag_294:\n        /* \"contracts/FlintPaidPublicEvent.sol\":271:5830  contract PaidPublicEvent {... */\n      swap1\n      mload\n      swap1\n      dup2\n      mstore\n        /* \"contracts/FlintPaidPublicEvent.sol\":4011:4066  Withdraw(owner, ethBalance + usdcBalance + usdtBalance) */\n      log2\n        /* \"contracts/FlintPaidPublicEvent.sol\":271:5830  contract PaidPublicEvent {... */\n      stop\n        /* \"contracts/FlintPaidPublicEvent.sol\":3939:3993  if (usdtBalance > 0) usdt.transfer(owner, usdtBalance) */\n    tag_291:\n        /* \"contracts/FlintPaidPublicEvent.sol\":3766:3770  usdt */\n      0x0e\n        /* \"contracts/FlintPaidPublicEvent.sol\":271:5830  contract PaidPublicEvent {... */\n      sload\n        /* \"contracts/FlintPaidPublicEvent.sol\":1190:1195  owner */\n      0x05\n        /* \"contracts/FlintPaidPublicEvent.sol\":271:5830  contract PaidPublicEvent {... */\n      sload\n      dup9\n      mload\n      shl(0xe0, 0xa9059cbb)\n        /* \"contracts/FlintPaidPublicEvent.sol\":3960:3993  usdt.transfer(owner, usdtBalance) */\n      dup2\n      mstore\n        /* \"contracts/FlintPaidPublicEvent.sol\":271:5830  contract PaidPublicEvent {... */\n      swap1\n      dup5\n      and\n      sub(shl(0xa0, 0x01), 0x01)\n      and\n        /* \"contracts/FlintPaidPublicEvent.sol\":3960:3993  usdt.transfer(owner, usdtBalance) */\n      swap3\n      dup2\n      add\n        /* \"contracts/FlintPaidPublicEvent.sol\":271:5830  contract PaidPublicEvent {... */\n      swap3\n      dup4\n      mstore\n      0x20\n      dup4\n      add\n      dup7\n      swap1\n      mstore\n      swap2\n      dup7\n      swap2\n      dup4\n      swap2\n      swap1\n      dup6\n      and\n      swap1\n      dup3\n      swap1\n      0x00\n      swap1\n      dup3\n      swap1\n      0x40\n      add\n        /* \"contracts/FlintPaidPublicEvent.sol\":3960:3993  usdt.transfer(owner, usdtBalance) */\n      sub\n      swap3\n      gas\n      call\n      dup1\n      iszero\n      tag_296\n      jumpi\n      swap3\n        /* \"contracts/FlintPaidPublicEvent.sol\":4011:4066  Withdraw(owner, ethBalance + usdcBalance + usdtBalance) */\n      0x884edad9ce6fa2440d8a54cc123490eb96d2768479d49ff9c7366125a9424364\n        /* \"contracts/FlintPaidPublicEvent.sol\":3960:3993  usdt.transfer(owner, usdtBalance) */\n      swap7\n      swap8\n      swap5\n      swap3\n        /* \"contracts/FlintPaidPublicEvent.sol\":4027:4051  ethBalance + usdcBalance */\n      tag_293\n        /* \"contracts/FlintPaidPublicEvent.sol\":3960:3993  usdt.transfer(owner, usdtBalance) */\n      swap3\n        /* \"contracts/FlintPaidPublicEvent.sol\":4027:4065  ethBalance + usdcBalance + usdtBalance */\n      tag_294\n        /* \"contracts/FlintPaidPublicEvent.sol\":3960:3993  usdt.transfer(owner, usdtBalance) */\n      swap6\n      tag_298\n      jumpi\n        /* \"contracts/FlintPaidPublicEvent.sol\":3939:3993  if (usdtBalance > 0) usdt.transfer(owner, usdtBalance) */\n    tag_299:\n      pop\n      swap3\n      swap5\n      swap8\n      swap7\n      pop\n      swap3\n      pop\n      jump(tag_292)\n        /* \"contracts/FlintPaidPublicEvent.sol\":3960:3993  usdt.transfer(owner, usdtBalance) */\n    tag_298:\n      tag_300\n      swap1\n      dup9\n      returndatasize\n      dup11\n      gt\n      tag_156\n      jumpi\n      tag_158\n      dup2\n      dup4\n      tag_2\n      jump\t// in\n    tag_300:\n      pop\n      0x00\n      jump(tag_299)\n    tag_296:\n        /* \"contracts/FlintPaidPublicEvent.sol\":271:5830  contract PaidPublicEvent {... */\n      dup8\n      mload\n      returndatasize\n      0x00\n      dup3\n      returndatacopy\n      returndatasize\n      swap1\n      revert\n        /* \"contracts/FlintPaidPublicEvent.sol\":3874:3928  if (usdcBalance > 0) usdc.transfer(owner, usdcBalance) */\n    tag_289:\n        /* \"contracts/FlintPaidPublicEvent.sol\":3704:3708  usdc */\n      0x0d\n        /* \"contracts/FlintPaidPublicEvent.sol\":271:5830  contract PaidPublicEvent {... */\n      sload\n        /* \"contracts/FlintPaidPublicEvent.sol\":1190:1195  owner */\n      0x05\n        /* \"contracts/FlintPaidPublicEvent.sol\":271:5830  contract PaidPublicEvent {... */\n      sload\n      dup9\n      mload\n      shl(0xe0, 0xa9059cbb)\n        /* \"contracts/FlintPaidPublicEvent.sol\":3895:3928  usdc.transfer(owner, usdcBalance) */\n      dup2\n      mstore\n        /* \"contracts/FlintPaidPublicEvent.sol\":271:5830  contract PaidPublicEvent {... */\n      swap1\n      dup5\n      and\n      sub(shl(0xa0, 0x01), 0x01)\n      and\n        /* \"contracts/FlintPaidPublicEvent.sol\":3895:3928  usdc.transfer(owner, usdcBalance) */\n      dup4\n      dup3\n      add\n        /* \"contracts/FlintPaidPublicEvent.sol\":271:5830  contract PaidPublicEvent {... */\n      swap1\n      dup2\n      mstore\n      0x20\n      dup2\n      add\n      dup7\n      swap1\n      mstore\n      swap1\n      swap2\n      dup8\n      swap2\n      dup4\n      swap2\n      dup7\n      and\n      swap1\n      dup3\n      swap1\n      0x00\n      swap1\n      dup3\n      swap1\n      0x40\n      add\n        /* \"contracts/FlintPaidPublicEvent.sol\":3895:3928  usdc.transfer(owner, usdcBalance) */\n      sub\n      swap3\n      gas\n      call\n      dup1\n      iszero\n      tag_305\n      jumpi\n      tag_307\n      jumpi\n        /* \"contracts/FlintPaidPublicEvent.sol\":3874:3928  if (usdcBalance > 0) usdc.transfer(owner, usdcBalance) */\n    tag_308:\n      pop\n      jump(tag_290)\n        /* \"contracts/FlintPaidPublicEvent.sol\":3895:3928  usdc.transfer(owner, usdcBalance) */\n    tag_307:\n      tag_309\n      swap1\n      dup7\n      returndatasize\n      dup9\n      gt\n      tag_156\n      jumpi\n      tag_158\n      dup2\n      dup4\n      tag_2\n      jump\t// in\n    tag_309:\n      pop\n      0x00\n      jump(tag_308)\n    tag_305:\n        /* \"contracts/FlintPaidPublicEvent.sol\":271:5830  contract PaidPublicEvent {... */\n      dup9\n      mload\n      returndatasize\n      0x00\n      dup3\n      returndatacopy\n      returndatasize\n      swap1\n      revert\n        /* \"contracts/FlintPaidPublicEvent.sol\":3808:3863  if (ethBalance > 0) payable(owner).transfer(ethBalance) */\n    tag_287:\n        /* \"contracts/FlintPaidPublicEvent.sol\":271:5830  contract PaidPublicEvent {... */\n      0x00\n      swap3\n      dup4\n      swap3\n      dup4\n      swap3\n      dup4\n      swap3\n      dup4\n      swap1\n        /* \"contracts/FlintPaidPublicEvent.sol\":3828:3863  payable(owner).transfer(ethBalance) */\n      tag_313\n      jumpi\n        /* \"contracts/FlintPaidPublicEvent.sol\":3808:3863  if (ethBalance > 0) payable(owner).transfer(ethBalance) */\n    tag_314:\n        /* \"contracts/FlintPaidPublicEvent.sol\":3828:3863  payable(owner).transfer(ethBalance) */\n      call\n      iszero\n      tag_315\n      jumpi\n        /* \"contracts/FlintPaidPublicEvent.sol\":3808:3863  if (ethBalance > 0) payable(owner).transfer(ethBalance) */\n      0x00\n      dup7\n      dup2\n      jump(tag_288)\n        /* \"contracts/FlintPaidPublicEvent.sol\":3828:3863  payable(owner).transfer(ethBalance) */\n    tag_315:\n        /* \"contracts/FlintPaidPublicEvent.sol\":271:5830  contract PaidPublicEvent {... */\n      dup7\n      mload\n      returndatasize\n      0x00\n      dup3\n      returndatacopy\n      returndatasize\n      swap1\n      revert\n        /* \"contracts/FlintPaidPublicEvent.sol\":3828:3863  payable(owner).transfer(ethBalance) */\n    tag_313:\n      pop\n      0x08fc\n      jump(tag_314)\n        /* \"contracts/FlintPaidPublicEvent.sol\":3766:3795  usdt.balanceOf(address(this)) */\n    tag_285:\n      swap1\n      swap5\n      pop\n      dup6\n      dup2\n      dup2\n      returndatasize\n      dup4\n      gt\n      tag_317\n      jumpi\n    tag_318:\n      tag_319\n      dup2\n      dup4\n      tag_2\n      jump\t// in\n    tag_319:\n      dup2\n      add\n        /* \"contracts/FlintPaidPublicEvent.sol\":271:5830  contract PaidPublicEvent {... */\n      sub\n      slt\n      tag_80\n      jumpi\n      mload\n        /* \"contracts/FlintPaidPublicEvent.sol\":3766:3795  usdt.balanceOf(address(this)) */\n      swap4\n      0x00\n      jump(tag_286)\n    tag_317:\n      pop\n      returndatasize\n      jump(tag_318)\n        /* \"contracts/FlintPaidPublicEvent.sol\":3704:3733  usdc.balanceOf(address(this)) */\n    tag_281:\n      swap1\n      swap4\n      pop\n      dup6\n      dup2\n      dup2\n      returndatasize\n      dup4\n      gt\n      tag_322\n      jumpi\n    tag_323:\n      tag_324\n      dup2\n      dup4\n      tag_2\n      jump\t// in\n    tag_324:\n      dup2\n      add\n        /* \"contracts/FlintPaidPublicEvent.sol\":271:5830  contract PaidPublicEvent {... */\n      sub\n      slt\n      tag_80\n      jumpi\n      mload\n        /* \"contracts/FlintPaidPublicEvent.sol\":3704:3733  usdc.balanceOf(address(this)) */\n      swap3\n      0x00\n      jump(tag_282)\n    tag_322:\n      pop\n      returndatasize\n      jump(tag_323)\n        /* \"contracts/FlintPaidPublicEvent.sol\":271:5830  contract PaidPublicEvent {... */\n    tag_30:\n      dup3\n      jumpi(tag_80, callvalue)\n      jumpi(tag_80, slt(add(not(0x03), calldatasize), 0x00))\n        /* \"contracts/FlintPaidPublicEvent.sol\":1262:1280  IERC20 public usdt */\n      0x0e\n        /* \"contracts/FlintPaidPublicEvent.sol\":271:5830  contract PaidPublicEvent {... */\n      sload\n      swap1\n      mload\n      sub(shl(0xa0, 0x01), 0x01)\n      swap1\n      swap2\n      and\n      dup2\n      mstore\n      0x20\n      swap1\n      return\n    tag_28:\n      pop\n      jumpi(tag_80, callvalue)\n      jumpi(tag_80, slt(add(not(0x03), calldatasize), 0x20))\n      calldataload\n      swap1\n        /* \"contracts/FlintPaidPublicEvent.sol\":390:410  string[] public tags */\n      0x03\n        /* \"contracts/FlintPaidPublicEvent.sol\":271:5830  contract PaidPublicEvent {... */\n      sload\n        /* \"contracts/FlintPaidPublicEvent.sol\":390:410  string[] public tags */\n      dup3\n      lt\n      iszero\n      tag_80\n      jumpi\n        /* \"contracts/FlintPaidPublicEvent.sol\":271:5830  contract PaidPublicEvent {... */\n      tag_337\n      tag_201\n      swap3\n        /* \"contracts/FlintPaidPublicEvent.sol\":390:410  string[] public tags */\n      0x03\n        /* \"contracts/FlintPaidPublicEvent.sol\":271:5830  contract PaidPublicEvent {... */\n      0x00\n      mstore\n      0xc2575a0e9e593c00f959f8c92f12db2869c3395a3b0502d05e2516446f71f85b\n      add\n      tag_3\n      jump\t// in\n    tag_337:\n      swap1\n      mload\n      swap2\n      dup3\n      swap2\n      0x20\n      dup4\n      mstore\n      0x20\n      dup4\n      add\n      swap1\n      tag_4\n      jump\t// in\n    tag_26:\n      dup3\n      jumpi(tag_80, callvalue)\n      jumpi(tag_80, slt(add(not(0x03), calldatasize), 0x00))\n      0x20\n      swap1\n      0xff\n        /* \"contracts/FlintPaidPublicEvent.sol\":674:707  bool public eventCanceled = false */\n      0x0a\n        /* \"contracts/FlintPaidPublicEvent.sol\":271:5830  contract PaidPublicEvent {... */\n      sload\n      0x08\n      shr\n      and\n      swap1\n      mload\n      swap1\n      iszero\n      iszero\n      dup2\n      mstore\n      return\n    tag_24:\n      dup3\n      jumpi(tag_80, callvalue)\n      jumpi(tag_80, slt(add(not(0x03), calldatasize), 0x00))\n      0x20\n      swap1\n        /* \"contracts/FlintPaidPublicEvent.sol\":536:565  uint256 public ticketPriceUSD */\n      0x08\n        /* \"contracts/FlintPaidPublicEvent.sol\":271:5830  contract PaidPublicEvent {... */\n      sload\n      swap1\n      mload\n      swap1\n      dup2\n      mstore\n      return\n    tag_22:\n      pop\n      swap1\n      jumpi(tag_80, callvalue)\n      0x20\n      dup1\n      add(calldatasize, not(0x03))\n      slt\n      tag_80\n      jumpi\n      dup3\n      calldataload\n      sub(shl(0xa0, 0x01), 0x01)\n      dup2\n      dup2\n      and\n      swap2\n      dup3\n      swap1\n      sub\n      tag_80\n      jumpi\n        /* \"contracts/FlintPaidPublicEvent.sol\":1059:1064  owner */\n      0x05\n        /* \"contracts/FlintPaidPublicEvent.sol\":271:5830  contract PaidPublicEvent {... */\n      sload\n      and\n        /* \"contracts/FlintPaidPublicEvent.sol\":1045:1055  msg.sender */\n      caller\n        /* \"contracts/FlintPaidPublicEvent.sol\":1045:1064  msg.sender == owner */\n      eq\n        /* \"contracts/FlintPaidPublicEvent.sol\":1045:1087  msg.sender == owner || isStaff[msg.sender] */\n      dup1\n      iszero\n      tag_353\n      jumpi\n        /* \"contracts/FlintPaidPublicEvent.sol\":271:5830  contract PaidPublicEvent {... */\n    tag_354:\n        /* \"contracts/FlintPaidPublicEvent.sol\":1037:1108  require(msg.sender == owner || isStaff[msg.sender], \"You're not staff\") */\n      tag_355\n      swap1\n      tag_5\n      jump\t// in\n    tag_355:\n        /* \"contracts/FlintPaidPublicEvent.sol\":271:5830  contract PaidPublicEvent {... */\n      dup1\n      0x00\n      mstore\n        /* \"contracts/FlintPaidPublicEvent.sol\":4617:4627  isAttendee */\n      0x0b\n        /* \"contracts/FlintPaidPublicEvent.sol\":271:5830  contract PaidPublicEvent {... */\n      dup3\n      mstore\n      0xff\n      dup4\n      0x00\n      keccak256\n      sload\n      and\n      tag_356\n      jumpi\n        /* \"contracts/FlintPaidPublicEvent.sol\":4684:4697  attendeeCount */\n      0x09\n        /* \"contracts/FlintPaidPublicEvent.sol\":271:5830  contract PaidPublicEvent {... */\n      sload\n      dup5\n      sload\n        /* \"contracts/FlintPaidPublicEvent.sol\":4684:4712  attendeeCount < maxAttendees */\n      dup2\n      lt\n        /* \"contracts/FlintPaidPublicEvent.sol\":271:5830  contract PaidPublicEvent {... */\n      iszero\n      tag_358\n      jumpi\n        /* \"contracts/FlintPaidPublicEvent.sol\":4768:4769  1 */\n      0x01\n        /* \"contracts/FlintPaidPublicEvent.sol\":271:5830  contract PaidPublicEvent {... */\n      dup2\n      add\n      dup1\n      swap2\n      gt\n      tag_108\n      jumpi\n        /* \"contracts/FlintPaidPublicEvent.sol\":4684:4697  attendeeCount */\n      0x09\n        /* \"contracts/FlintPaidPublicEvent.sol\":271:5830  contract PaidPublicEvent {... */\n      sstore\n      0x00\n      swap1\n      dup2\n      mstore\n        /* \"contracts/FlintPaidPublicEvent.sol\":4617:4627  isAttendee */\n      0x0b\n        /* \"contracts/FlintPaidPublicEvent.sol\":271:5830  contract PaidPublicEvent {... */\n      swap1\n      swap2\n      mstore\n      keccak256\n      dup1\n      sload\n      not(0xff)\n      and\n        /* \"contracts/FlintPaidPublicEvent.sol\":4768:4769  1 */\n      0x01\n        /* \"contracts/FlintPaidPublicEvent.sol\":271:5830  contract PaidPublicEvent {... */\n      or\n      swap1\n      sstore\n      stop\n    tag_358:\n      dup4\n      mload\n      shl(0xe5, 0x461bcd)\n      dup2\n      mstore\n      dup1\n      dup7\n      add\n      dup5\n      swap1\n      mstore\n      0x0d\n      0x24\n      dup3\n      add\n      mstore\n      shl(0x9a, 0x115d995b9d081a5cc8199d5b1b)\n      0x44\n      dup3\n      add\n      mstore\n      0x64\n      swap1\n      revert\n    tag_356:\n      pop\n      swap1\n      mload\n      shl(0xe5, 0x461bcd)\n      dup2\n      mstore\n      swap2\n      dup3\n      add\n      mstore\n      0x16\n      0x24\n      dup3\n      add\n      mstore\n      shl(0x52, 0x105d1d195b99195948185b1c9958591e481859191959)\n      0x44\n      dup3\n      add\n      mstore\n      0x64\n      swap1\n      revert\n        /* \"contracts/FlintPaidPublicEvent.sol\":1045:1087  msg.sender == owner || isStaff[msg.sender] */\n    tag_353:\n      pop\n        /* \"contracts/FlintPaidPublicEvent.sol\":1045:1055  msg.sender */\n      caller\n        /* \"contracts/FlintPaidPublicEvent.sol\":271:5830  contract PaidPublicEvent {... */\n      0x00\n      swap1\n      dup2\n      mstore\n        /* \"contracts/FlintPaidPublicEvent.sol\":1068:1075  isStaff */\n      0x0c\n        /* \"contracts/FlintPaidPublicEvent.sol\":271:5830  contract PaidPublicEvent {... */\n      dup4\n      mstore\n      dup4\n      swap1\n      keccak256\n      sload\n      0xff\n      and\n        /* \"contracts/FlintPaidPublicEvent.sol\":1045:1087  msg.sender == owner || isStaff[msg.sender] */\n      jump(tag_354)\n        /* \"contracts/FlintPaidPublicEvent.sol\":271:5830  contract PaidPublicEvent {... */\n    tag_20:\n      jumpi(tag_80, callvalue)\n      jumpi(tag_80, slt(add(not(0x03), calldatasize), 0x00))\n      0x20\n      swap1\n        /* \"contracts/FlintPaidPublicEvent.sol\":508:529  uint256 public endsAt */\n      0x07\n        /* \"contracts/FlintPaidPublicEvent.sol\":271:5830  contract PaidPublicEvent {... */\n      sload\n      dup2\n      mstore\n      return\n    tag_1:\n      swap1\n      0x01\n      dup3\n      dup2\n      shr\n      swap3\n      and\n      dup1\n      iszero\n      tag_366\n      jumpi\n    tag_367:\n      0x20\n      dup4\n      lt\n      eq\n      tag_368\n      jumpi\n      jump\t// out\n    tag_368:\n      mstore(0x00, shl(0xe0, 0x4e487b71))\n      mstore(0x04, 0x22)\n      revert(0x00, 0x24)\n    tag_366:\n      swap2\n      0x7f\n      and\n      swap2\n      jump(tag_367)\n    tag_2:\n      swap1\n      0x1f\n      dup1\n      not\n      swap2\n      add\n      and\n      dup2\n      add\n      swap1\n      dup2\n      lt\n      0xffffffffffffffff\n      dup3\n      gt\n      or\n      tag_370\n      jumpi\n      0x40\n      mstore\n      jump\t// out\n    tag_370:\n      mstore(0x00, shl(0xe0, 0x4e487b71))\n      mstore(0x04, 0x41)\n      revert(0x00, 0x24)\n    tag_3:\n      swap1\n      mload(0x40)\n      swap2\n      dup3\n      0x00\n      dup3\n      sload\n      tag_372\n      dup2\n      tag_1\n      jump\t// in\n    tag_372:\n      swap1\n      dup2\n      dup5\n      mstore\n      0x20\n      swap5\n      0x01\n      swap2\n      0x01\n      dup2\n      and\n      swap1\n      dup2\n      0x00\n      eq\n      tag_373\n      jumpi\n      pop\n      0x01\n      eq\n      tag_375\n      jumpi\n    tag_376:\n      pop\n      pop\n      pop\n      tag_377\n      swap3\n      pop\n      sub\n      dup4\n      tag_2\n      jump\t// in\n    tag_377:\n      jump\t// out\n    tag_375:\n      0x00\n      swap1\n      dup2\n      mstore\n      dup6\n      dup2\n      keccak256\n      swap6\n      swap4\n      pop\n      swap2\n      swap1\n    tag_378:\n      dup2\n      dup4\n      lt\n      tag_379\n      jumpi\n      pop\n      pop\n      tag_377\n      swap4\n      pop\n      dup3\n      add\n      add\n      0x00\n      dup1\n      dup1\n      jump(tag_376)\n    tag_379:\n      dup6\n      sload\n      dup9\n      dup5\n      add\n      dup6\n      add\n      mstore\n      swap5\n      dup6\n      add\n      swap5\n      dup8\n      swap5\n      pop\n      swap2\n      dup4\n      add\n      swap2\n      jump(tag_378)\n    tag_373:\n      swap3\n      pop\n      pop\n      pop\n      tag_377\n      swap5\n      swap3\n      pop\n      not(0xff)\n      and\n      dup3\n      dup5\n      add\n      mstore\n      iszero\n      iszero\n      0x05\n      shl\n      dup3\n      add\n      add\n      0x00\n      dup1\n      dup1\n      jump(tag_376)\n    tag_4:\n      swap2\n      swap1\n      dup3\n      mload\n      swap3\n      dup4\n      dup3\n      mstore\n      0x00\n    tag_381:\n      dup5\n      dup2\n      lt\n      tag_382\n      jumpi\n      pop\n      pop\n      dup3\n      0x00\n      0x20\n      dup1\n      swap5\n      swap6\n      dup5\n      add\n      add\n      mstore\n      0x1f\n      dup1\n      not\n      swap2\n      add\n      and\n      add\n      add\n      swap1\n      jump\t// out\n    tag_382:\n      0x20\n      dup2\n      dup4\n      add\n      dup2\n      add\n      mload\n      dup5\n      dup4\n      add\n      dup3\n      add\n      mstore\n      add\n      jump(tag_381)\n    tag_5:\n      iszero\n      tag_384\n      jumpi\n      jump\t// out\n    tag_384:\n      mload(0x40)\n      shl(0xe5, 0x461bcd)\n      dup2\n      mstore\n      0x20\n      0x04\n      dup3\n      add\n      mstore\n      0x10\n      0x24\n      dup3\n      add\n      mstore\n      shl(0x81, 0x2cb7ba93b932903737ba1039ba30b333)\n      0x44\n      dup3\n      add\n      mstore\n      0x64\n      swap1\n      revert\n    tag_6:\n      swap2\n      swap1\n      dup3\n      add\n      dup1\n      swap3\n      gt\n      tag_386\n      jumpi\n      jump\t// out\n    tag_386:\n      mstore(0x00, shl(0xe0, 0x4e487b71))\n      mstore(0x04, 0x11)\n      revert(0x00, 0x24)\n    tag_7:\n      iszero\n      tag_388\n      jumpi\n      jump\t// out\n    tag_388:\n      mload(0x40)\n      shl(0xe5, 0x461bcd)\n      dup2\n      mstore\n      0x20\n      0x04\n      dup3\n      add\n      mstore\n      0x09\n      0x24\n      dup3\n      add\n      mstore\n      shl(0xb9, 0x2737ba1037bbb732b9)\n      0x44\n      dup3\n      add\n      mstore\n      0x64\n      swap1\n      revert\n    tag_8:\n      swap1\n      dup2\n      0x20\n      swap2\n      sub\n      slt\n      tag_80\n      jumpi\n      mload\n      dup1\n      iszero\n      iszero\n      dup2\n      sub\n      tag_80\n      jumpi\n      swap1\n      jump\t// out\n    tag_10:\n      iszero\n      tag_394\n      jumpi\n      jump\t// out\n    tag_394:\n      mload(0x40)\n      shl(0xe5, 0x461bcd)\n      dup2\n      mstore\n      0x20\n      0x04\n      dup3\n      add\n      mstore\n      0x0e\n      0x24\n      dup3\n      add\n      mstore\n      shl(0x92, 0x105b1c9958591e481a9bda5b9959)\n      0x44\n      dup3\n      add\n      mstore\n      0x64\n      swap1\n      revert\n    tag_11:\n      iszero\n      tag_396\n      jumpi\n      jump\t// out\n    tag_396:\n      0x64\n      mload(0x40)\n      shl(0xe5, 0x461bcd)\n      dup2\n      mstore\n      0x20\n      0x04\n      dup3\n      add\n      mstore\n      0x04\n      0x24\n      dup3\n      add\n      mstore\n      shl(0xe2, 0x119d5b1b)\n      0x44\n      dup3\n      add\n      mstore\n      revert\n    tag_13:\n      iszero\n      tag_398\n      jumpi\n      jump\t// out\n    tag_398:\n      mload(0x40)\n      shl(0xe5, 0x461bcd)\n      dup2\n      mstore\n      0x20\n      0x04\n      dup3\n      add\n      mstore\n      0x0f\n      0x24\n      dup3\n      add\n      mstore\n      shl(0x8a, 0x151c985b9cd9995c8819985a5b1959)\n      0x44\n      dup3\n      add\n      mstore\n      0x64\n      swap1\n      revert\n    tag_14:\n      not(0x00)\n      dup2\n      eq\n      tag_386\n      jumpi\n      0x01\n      add\n      swap1\n      jump\t// out\n    tag_15:\n      0x20\n      dup1\n      dup3\n      mstore\n      0x00\n      swap2\n      sload(0x00)\n      swap1\n      tag_402\n      dup3\n      tag_1\n      jump\t// in\n    tag_402:\n      swap2\n      dup3\n      0x20\n      dup4\n      add\n      mstore\n      0x40\n      0x01\n      swap2\n      0x01\n      dup2\n      and\n      swap1\n      dup2\n      0x00\n      eq\n      tag_403\n      jumpi\n      pop\n      0x01\n      eq\n      tag_405\n      jumpi\n    tag_406:\n      pop\n      pop\n      pop\n      pop\n      pop\n      swap1\n      jump\t// out\n    tag_405:\n      0x00\n      dup1\n      dup1\n      mstore\n      swap5\n      swap7\n      swap6\n      pop\n      swap2\n      swap3\n      swap2\n      0x290decd9548b62a8d60345a988386fc84ba6bc95484008f6362f93160ef3e563\n    tag_407:\n      dup4\n      dup7\n      lt\n      tag_408\n      jumpi\n      pop\n      pop\n      pop\n      pop\n      0x40\n      swap3\n      swap4\n      pop\n      add\n      add\n      0x00\n      dup1\n      dup1\n      dup1\n      dup1\n      jump(tag_406)\n    tag_408:\n      dup1\n      sload\n      dup6\n      dup8\n      add\n      dup4\n      add\n      mstore\n      swap5\n      dup8\n      add\n      swap5\n      dup3\n      add\n      jump(tag_407)\n    tag_403:\n      swap4\n      swap6\n      pop\n      pop\n      pop\n      pop\n      0x40\n      swap4\n      pop\n      not(0xff)\n      and\n      dup4\n      dup4\n      add\n      mstore\n      iszero\n      iszero\n      0x05\n      shl\n      add\n      add\n      0x00\n      dup1\n      dup1\n      dup1\n      dup1\n      jump(tag_406)\n    tag_16:\n      mload\n      swap1\n      0xffffffffffffffffffff\n      dup3\n      and\n      dup3\n      sub\n      tag_80\n      jumpi\n      jump\t// out\n        /* \"contracts/FlintPaidPublicEvent.sol\":4082:4406  function getETHAmountForUSD(uint256 usdAmount) public view returns (uint256) {... */\n    tag_17:\n        /* \"contracts/FlintPaidPublicEvent.sol\":4192:4207  ethUsdPriceFeed */\n      0x0f\n        /* \"contracts/FlintPaidPublicEvent.sol\":271:5830  contract PaidPublicEvent {... */\n      sload\n      mload(0x40)\n      shl(0xe2, 0x3fabe5a3)\n        /* \"contracts/FlintPaidPublicEvent.sol\":4192:4225  ethUsdPriceFeed.latestRoundData() */\n      dup2\n      mstore\n        /* \"contracts/FlintPaidPublicEvent.sol\":271:5830  contract PaidPublicEvent {... */\n      swap2\n        /* \"contracts/FlintPaidPublicEvent.sol\":4082:4406  function getETHAmountForUSD(uint256 usdAmount) public view returns (uint256) {... */\n      swap1\n        /* \"contracts/FlintPaidPublicEvent.sol\":4192:4225  ethUsdPriceFeed.latestRoundData() */\n      0xa0\n      swap1\n        /* \"contracts/FlintPaidPublicEvent.sol\":271:5830  contract PaidPublicEvent {... */\n      dup4\n      swap1\n        /* \"contracts/FlintPaidPublicEvent.sol\":4192:4225  ethUsdPriceFeed.latestRoundData() */\n      0x04\n      swap1\n        /* \"contracts/FlintPaidPublicEvent.sol\":271:5830  contract PaidPublicEvent {... */\n      dup3\n      swap1\n      sub(shl(0xa0, 0x01), 0x01)\n      and\n        /* \"contracts/FlintPaidPublicEvent.sol\":4192:4225  ethUsdPriceFeed.latestRoundData() */\n      gas\n      staticcall\n      swap2\n      dup3\n      iszero\n      tag_412\n      jumpi\n      0x00\n      swap3\n      tag_414\n      jumpi\n        /* \"contracts/FlintPaidPublicEvent.sol\":4082:4406  function getETHAmountForUSD(uint256 usdAmount) public view returns (uint256) {... */\n    tag_415:\n        /* \"contracts/FlintPaidPublicEvent.sol\":4266:4275  price > 0 */\n      pop\n      0x00\n      dup3\n      sgt\n        /* \"contracts/FlintPaidPublicEvent.sol\":271:5830  contract PaidPublicEvent {... */\n      iszero\n      tag_416\n      jumpi\n        /* \"contracts/FlintPaidPublicEvent.sol\":4337:4340  1e8 */\n      0x05f5e100\n        /* \"contracts/FlintPaidPublicEvent.sol\":271:5830  contract PaidPublicEvent {... */\n      swap1\n      dup2\n      dup2\n      mul\n      swap2\n      dup2\n      dup4\n      div\n      eq\n      swap1\n      iszero\n      or\n      iszero\n      tag_386\n      jumpi\n      dup2\n      iszero\n      tag_420\n      jumpi\n      div\n        /* \"contracts/FlintPaidPublicEvent.sol\":4082:4406  function getETHAmountForUSD(uint256 usdAmount) public view returns (uint256) {... */\n      swap1\n      jump\t// out\n        /* \"contracts/FlintPaidPublicEvent.sol\":271:5830  contract PaidPublicEvent {... */\n    tag_420:\n      mstore(0x00, shl(0xe0, 0x4e487b71))\n      0x12\n        /* \"contracts/FlintPaidPublicEvent.sol\":4192:4225  ethUsdPriceFeed.latestRoundData() */\n      0x04\n        /* \"contracts/FlintPaidPublicEvent.sol\":271:5830  contract PaidPublicEvent {... */\n      mstore\n      revert(0x00, 0x24)\n    tag_416:\n      mload(0x40)\n      shl(0xe5, 0x461bcd)\n      dup2\n      mstore\n      0x20\n        /* \"contracts/FlintPaidPublicEvent.sol\":4192:4225  ethUsdPriceFeed.latestRoundData() */\n      0x04\n        /* \"contracts/FlintPaidPublicEvent.sol\":271:5830  contract PaidPublicEvent {... */\n      dup3\n      add\n      mstore\n      0x0d\n      0x24\n      dup3\n      add\n      mstore\n      shl(0x98, 0x496e76616c6964207072696365)\n      0x44\n      dup3\n      add\n      mstore\n      0x64\n      swap1\n      revert\n        /* \"contracts/FlintPaidPublicEvent.sol\":4192:4225  ethUsdPriceFeed.latestRoundData() */\n    tag_414:\n      swap1\n      swap2\n      pop\n      0xa0\n      dup2\n      jumpi(tag_422, gt(0xa0, returndatasize))\n    tag_423:\n      dup2\n      tag_424\n      0xa0\n      swap4\n      dup4\n      tag_2\n      jump\t// in\n    tag_424:\n      dup2\n      add\n        /* \"contracts/FlintPaidPublicEvent.sol\":271:5830  contract PaidPublicEvent {... */\n      sub\n      slt\n      tag_80\n      jumpi\n      tag_427\n      dup2\n      tag_16\n      jump\t// in\n    tag_427:\n      pop\n      tag_428\n      0x80\n      0x20\n      dup4\n      add\n      mload\n      swap3\n      add\n      tag_16\n      jump\t// in\n    tag_428:\n      pop\n        /* \"contracts/FlintPaidPublicEvent.sol\":4192:4225  ethUsdPriceFeed.latestRoundData() */\n      swap1\n      0x00\n      jump(tag_415)\n    tag_422:\n      returndatasize\n      swap2\n      pop\n      jump(tag_423)\n    tag_412:\n        /* \"contracts/FlintPaidPublicEvent.sol\":271:5830  contract PaidPublicEvent {... */\n      mload(0x40)\n      returndatasize\n      0x00\n      dup3\n      returndatacopy\n      returndatasize\n      swap1\n      revert\n\n    auxdata: 0xa264697066735822122011d9e3ba043644f9aa44b7854bcf34036ce1841fc29830cdcc3e7ccdbb47226a64736f6c63430008180033\n}\n",
				"bytecode": {
					"linkReferences": {},
					"object": "608060405234620006cf5762001ce9803803806200001d81620006d3565b928339810161018082820312620006cf5781516001600160401b0390818111620006cf57826200004f918501620006f9565b9260209283820151838111620006cf57816200006d918401620006f9565b6040830151936060840151818111620006cf57836200008e918601620006f9565b916080850151828111620006cf57850191601f91858385011215620006cf57835192828411620004d257899660059588620000ce87891b9d8e01620006d3565b809781520189819d83010192808411620006cf578a8301915b848310620006a657505050505060a08801620001039062000769565b9960c08901519760e08a01519a6101008b01620001209062000769565b96620001306101208d0162000769565b99620001406101408e0162000769565b9c61016001519f61ffff19600a5416600a55805190898211620004d257620001695f546200077e565b88811162000676575b5085908883116001146200060e57620001a392915f91836200038a575b50508160011b915f199060031b1c19161790565b5f555b8651888111620004d257600197620001bf89546200077e565b888111620005de575b5085908883116001146200057b57620001f892915f91836200038a5750508160011b915f199060031b1c19161790565b87555b600492600455805190888211620004d257620002196002546200077e565b8781116200054b575b508490878311600114620004e6576200025292915f91836200038a5750508160011b915f199060031b1c19161790565b6002555b5193680100000000000000008511620004d2576003936003548660035580871062000455575b50939160035f52835f20925f955b87871062000320575050505050505050505060018060a01b0395869485938460018060a01b03199a168a8254161790556006556007551685600d541617600d551683600e541617600e551690600f541617600f55670de0b6b3a7640000908181029181830414901517156200030c576008556040516115179081620007d28239f35b634e487b7160e01b5f52601160045260245ffd5b80519081518b811162000442578a9188918f6200033e8a546200077e565b89811162000407575b505082948882116001146200039657908085966200037a935f926200038a5750508160011b915f199060031b1c19161790565b88555b019501960195936200028a565b015190505f806200018f565b94601f198216908a5f52845f20915f5b818110620003e45750908697848895949310620003cc575b505050811b0188556200037d565b01515f19838a1b60f8161c191690555f8080620003be565b9497939686929691938786015181550195019301928b94918f96939794620003a6565b62000430918b5f52855f20908b808601821c83019388871062000438575b01901c0190620007b9565b8f5f62000347565b9350829362000425565b604185634e487b7160e01b5f525260245ffd5b60035f528787865f2092830192015b828110620004745750506200027c565b8c6200048182546200077e565b8062000493575b505001889062000464565b868111600114620004ac5750505f81555b8c5f62000488565b620004c85f92848452888b85209301901c8201858301620007b9565b81835555620004a4565b634e487b7160e01b5f52604160045260245ffd5b889291601f1983169160025f52875f20925f5b898282106200053457505084116200051b575b505050811b0160025562000256565b01515f1960f88460031b161c191690555f80806200050c565b8385015186558d97909501949384019301620004f9565b620005749060025f52865f208d8a808701821c8301938a8810620004385701901c0190620007b9565b5f62000222565b899291601f19831691845f52885f20925f5b8a828210620005c75750508411620005ae575b505050811b018755620001fb565b01515f1960f88460031b161c191690555f8080620005a0565b8385015186558e979095019493840193016200058d565b62000607908a5f528d885f20908b808701821c8301938b8810620004385701901c0190620007b9565b5f620001c8565b90601f198316915f8052875f20925f5b898282106200065f57505090846001959493921062000646575b505050811b015f55620001a6565b01515f1960f88460031b161c191690555f808062000638565b60018596829396860151815501950193016200061e565b6200069f905f80528d885f20908b808701821c8301938b8810620004385701901c0190620007b9565b5f62000172565b8251888111620006cf578c91620006c384848094890101620006f9565b815201920191620000e7565b5f80fd5b6040519190601f01601f191682016001600160401b03811183821017620004d257604052565b919080601f84011215620006cf5782516001600160401b038111620004d2576020906200072f601f8201601f19168301620006d3565b92818452828287010111620006cf575f5b818110620007555750825f9394955001015290565b858101830151848201840152820162000740565b51906001600160a01b0382168203620006cf57565b90600182811c92168015620007ae575b60208310146200079a57565b634e487b7160e01b5f52602260045260245ffd5b91607f16916200078e565b818110620007c5575050565b5f8155600101620007b956fe608060409080825260049081361015610016575f80fd5b5f3560e01c9081630a09284a1461103b575080631024625414610f355780631030c51e14610f17578063148b597c14610ef157806320822abc14610e8e5780632f48ab7d14610e665780633ccfd60b14610bc95780633e413bee14610ba157806342f6fb2914610b795780634a79d50c14610acc578063516f279e14610a1b578063522e4c8a146109cf5780635f3d7fa1146109b25780636cad2590146109735780637038f157146108725780637284e4161461078d57806374bdc4bf1461070657806386ec6177146106275780638da5cb5b146105ff57806399c5296e14610503578063ab42300d14610433578063af46868214610415578063b8f34d9e146103ef578063c4522c92146103a6578063cb510e9714610367578063e55448fc1461025d578063f1adda471461023f578063f57e63e21461021c5763fb6c95371461015f575f80fd5b34610218575f366003190112610218576005546001600160a01b031633148015610201575b61018d906111a3565b6006544210156101a857600a805461ffff1916610101179055005b6020608492519162461bcd60e51b8352820152602e60248201527f4576656e7420616c726561647920737461727465642c207573652066696e697360448201526d1a115d995b9d081a5b9cdd19585960921b6064820152fd5b50335f908152600c6020528290205460ff16610184565b5f80fd5b8234610218575f3660031901126102185760209060ff600a541690519015158152f35b8234610218575f366003190112610218576020906009549051908152f35b509034610218576020806003193601126102185782356001600160a01b0381811691829003610218576005541633148015610351575b61029c906111a3565b805f52600b825260ff835f2054161561031f5760095480156102ed575f1981019081116102da576009555f908152600b90915220805460ff19169055005b601185634e487b7160e01b5f525260245ffd5b835162461bcd60e51b8152808601849052600c60248201526b4e6f20617474656e6465657360a01b6044820152606490fd5b50905162461bcd60e51b815291820152600d60248201526c4e6f7420617474656e64696e6760981b6044820152606490fd5b50335f908152600c83528390205460ff16610293565b503461021857602036600319011261021857356001600160a01b0381169190829003610218576020915f52600c825260ff815f20541690519015158152f35b503461021857602036600319011261021857356001600160a01b0381811691829003610218576103db90600554163314611203565b5f908152600c60205220805460ff19169055005b5090346102185760203660031901126102185761040e602092356113e0565b9051908152f35b8234610218575f366003190112610218576020906006549051908152f35b505f36600319011261021857335f52600b60205261045760ff835f20541615611253565b610465600954825411611290565b6104706008546113e0565b34106104ce5750335f52600b602052805f20600160ff19825416179055610498600954611300565b600955517f099b41ef7710e47b6754d8ef11fe3ba8a88a70832b121b27d49884654df95d5e3391806104c98161130e565b0390a2005b6020606492519162461bcd60e51b8352820152601060248201526f092dce6eaccccd2c6d2cadce8408aa8960831b6044820152fd5b5034610218575f36600319011261021857602061058a91335f52600b825261053160ff855f20541615611253565b61053f600954825411611290565b600854600d5485516323b872dd60e01b81523393810193845230602085015264e8d4a510009092046040840152909384926001600160a01b039092169183915f918391606090910190565b03925af180156105f5576105a5915f916105c6575b506112c2565b335f52600b602052805f20600160ff19825416179055610498600954611300565b6105e8915060203d6020116105ee575b6105e0818361108d565b81019061123b565b5f61059f565b503d6105d6565b82513d5f823e3d90fd5b8234610218575f3660031901126102185760055490516001600160a01b039091168152602090f35b5034610218575f366003190112610218576005546001600160a01b0316331480156106ef575b610656906111a3565b600a549160ff83166106b35760065442106106785760ff198316600117600a55005b906020606492519162461bcd60e51b83528201526015602482015274115d995b9d081b9bdd081cdd185c9d1959081e595d605a1b6044820152fd5b906020606492519162461bcd60e51b83528201526016602482015275115d995b9d08185b1c9958591e48199a5b9a5cda195960521b6044820152fd5b50335f908152600c6020528290205460ff1661064d565b5034610218575f36600319011261021857602061058a91335f52600b825261073460ff855f20541615611253565b610742600954825411611290565b600854600e5485516323b872dd60e01b81523393810193845230602085015264e8d4a510009092046040840152909384926001600160a01b039092169183915f918391606090910190565b8234610218575f3660031901126102185780516002549091825f6107b084611055565b808352602094600190866001821691825f146108505750506001146107f5575b50506107f192916107e291038561108d565b51928284938452830190611165565b0390f35b9085925060025f527f405787fa12a823e0f2b7631cc41b3ba8828b3321ca811111fa75cd3aa3bb5ace915f925b82841061083857505050820101816107e26107d0565b8054848a018601528895508794909301928101610822565b60ff19168682015292151560051b850190920192508391506107e290506107d0565b5034610218575f366003190112610218576003549067ffffffffffffffff821161096057506020908251916108ac818360051b018461108d565b818352808301918260035f527fc2575a0e9e593c00f959f8c92f12db2869c3395a3b0502d05e2516446f71f85b5f915b83831061093e57505050508351928184019082855251809152848401948160051b85010192915f955b8287106109125785850386f35b90919293828061092e600193603f198a82030186528851611165565b9601920196019592919092610905565b600185819261094f859a989a6110c3565b8152019201920191909593956108dc565b604190634e487b7160e01b5f525260245ffd5b503461021857602036600319011261021857356001600160a01b0381169190829003610218576020915f52600b825260ff815f20541690519015158152f35b509034610218575f36600319011261021857602091549051908152f35b503461021857602036600319011261021857356001600160a01b038181169182900361021857610a0490600554163314611203565b5f908152600c60205220805460ff19166001179055005b8234610218575f366003190112610218578051905f908260019260015493610a4285611055565b90818452602095866001821691825f14610850575050600114610a715750506107f192916107e291038561108d565b9085925060015f527fb10e2d527612073b26eecdfd717e6a320cf44b4afac2b0732d9fcbe2b7fa0cf6915f925b828410610ab457505050820101816107e26107d0565b8054848a018601528895508794909301928101610a9e565b8234610218575f366003190112610218578051905f90825f5492610aef84611055565b808352602094600190866001821691825f14610850575050600114610b205750506107f192916107e291038561108d565b5f80805286935091907f290decd9548b62a8d60345a988386fc84ba6bc95484008f6362f93160ef3e5635b828410610b6157505050820101816107e26107d0565b8054848a018601528895508794909301928101610b4b565b8234610218575f36600319011261021857600f5490516001600160a01b039091168152602090f35b8234610218575f36600319011261021857600d5490516001600160a01b039091168152602090f35b5034610218575f366003190112610218576005546001600160a01b039081169190610bf5338414611203565b479281600d54169185519384926370a0823160e01b94858552308386015284602460209889935afa938415610dce575f94610e37575b508583600e54169560248a5180988193825230878301525afa948515610dce575f95610e08575b50868015918215610dd8575b50505082610d5f575b83610cb1575b5091610ca4610ca9927f884edad9ce6fa2440d8a54cc123490eb96d2768479d49ff9c7366125a942436496979460055416976111e2565b6111e2565b9051908152a2005b600e54600554885163a9059cbb60e01b81529084166001600160a01b03169281019283526020830186905291869183919085169082905f90829060400103925af18015610d5557927f884edad9ce6fa2440d8a54cc123490eb96d2768479d49ff9c7366125a942436496979492610ca492610ca995610d38575b5092949796509250610c6d565b610d4e90883d8a116105ee576105e0818361108d565b505f610d2b565b87513d5f823e3d90fd5b600d54600554885163a9059cbb60e01b81529084166001600160a01b03168382019081526020810186905290918791839186169082905f90829060400103925af18015610dce57610db1575b50610c67565b610dc790863d88116105ee576105e0818361108d565b505f610dab565b88513d5f823e3d90fd5b5f928392839283928390610dff575bf115610df5575f8681610c5e565b86513d5f823e3d90fd5b506108fc610de7565b9094508581813d8311610e30575b610e20818361108d565b810103126102185751935f610c52565b503d610e16565b9093508581813d8311610e5f575b610e4f818361108d565b810103126102185751925f610c2b565b503d610e45565b8234610218575f36600319011261021857600e5490516001600160a01b039091168152602090f35b503461021857602036600319011261021857359060035482101561021857610ede6107f19260035f527fc2575a0e9e593c00f959f8c92f12db2869c3395a3b0502d05e2516446f71f85b016110c3565b9051918291602083526020830190611165565b8234610218575f3660031901126102185760209060ff600a5460081c1690519015158152f35b8234610218575f366003190112610218576020906008549051908152f35b509034610218576020806003193601126102185782356001600160a01b0381811691829003610218576005541633148015611025575b610f74906111a3565b805f52600b825260ff835f205416610fea576009548454811015610fb757600181018091116102da576009555f908152600b90915220805460ff19166001179055005b835162461bcd60e51b8152808601849052600d60248201526c115d995b9d081a5cc8199d5b1b609a1b6044820152606490fd5b50905162461bcd60e51b8152918201526016602482015275105d1d195b99195948185b1c9958591e48185919195960521b6044820152606490fd5b50335f908152600c83528390205460ff16610f6b565b34610218575f366003190112610218576020906007548152f35b90600182811c92168015611083575b602083101461106f57565b634e487b7160e01b5f52602260045260245ffd5b91607f1691611064565b90601f8019910116810190811067ffffffffffffffff8211176110af57604052565b634e487b7160e01b5f52604160045260245ffd5b9060405191825f82546110d581611055565b908184526020946001916001811690815f146111435750600114611105575b5050506111039250038361108d565b565b5f90815285812095935091905b81831061112b57505061110393508201015f80806110f4565b85548884018501529485019487945091830191611112565b9250505061110394925060ff191682840152151560051b8201015f80806110f4565b91908251928382525f5b84811061118f575050825f602080949584010152601f8019910116010190565b60208183018101518483018201520161116f565b156111aa57565b60405162461bcd60e51b815260206004820152601060248201526f2cb7ba93b932903737ba1039ba30b33360811b6044820152606490fd5b919082018092116111ef57565b634e487b7160e01b5f52601160045260245ffd5b1561120a57565b60405162461bcd60e51b81526020600482015260096024820152682737ba1037bbb732b960b91b6044820152606490fd5b90816020910312610218575180151581036102185790565b1561125a57565b60405162461bcd60e51b815260206004820152600e60248201526d105b1c9958591e481a9bda5b995960921b6044820152606490fd5b1561129757565b606460405162461bcd60e51b8152602060048201526004602482015263119d5b1b60e21b6044820152fd5b156112c957565b60405162461bcd60e51b815260206004820152600f60248201526e151c985b9cd9995c8819985a5b1959608a1b6044820152606490fd5b5f1981146111ef5760010190565b60208082525f915f549061132182611055565b9182602083015260406001916001811690815f146113a6575060011461134a575b505050505090565b5f808052949695509192917f290decd9548b62a8d60345a988386fc84ba6bc95484008f6362f93160ef3e5635b8386106113935750505050604092935001015f80808080611342565b8054858701830152948701948201611377565b9395505050506040935060ff191683830152151560051b01015f80808080611342565b519069ffffffffffffffffffff8216820361021857565b600f54604051633fabe5a360e21b8152919060a090839060049082906001600160a01b03165afa9182156114d6575f92611487575b505f821315611452576305f5e100908181029181830414901517156111ef57811561143e570490565b634e487b7160e01b5f52601260045260245ffd5b60405162461bcd60e51b815260206004820152600d60248201526c496e76616c696420707269636560981b6044820152606490fd5b90915060a0813d60a0116114ce575b816114a360a0938361108d565b81010312610218576114b4816113c9565b506114c66080602083015192016113c9565b50905f611415565b3d9150611496565b6040513d5f823e3d90fdfea264697066735822122011d9e3ba043644f9aa44b7854bcf34036ce1841fc29830cdcc3e7ccdbb47226a64736f6c63430008180033",
					"opcodes": "PUSH1 0x80 PUSH1 0x40 MSTORE CALLVALUE PUSH3 0x6CF JUMPI PUSH3 0x1CE9 DUP1 CODESIZE SUB DUP1 PUSH3 0x1D DUP2 PUSH3 0x6D3 JUMP JUMPDEST SWAP3 DUP4 CODECOPY DUP2 ADD PUSH2 0x180 DUP3 DUP3 SUB SLT PUSH3 0x6CF JUMPI DUP2 MLOAD PUSH1 0x1 PUSH1 0x1 PUSH1 0x40 SHL SUB SWAP1 DUP2 DUP2 GT PUSH3 0x6CF JUMPI DUP3 PUSH3 0x4F SWAP2 DUP6 ADD PUSH3 0x6F9 JUMP JUMPDEST SWAP3 PUSH1 0x20 SWAP3 DUP4 DUP3 ADD MLOAD DUP4 DUP2 GT PUSH3 0x6CF JUMPI DUP2 PUSH3 0x6D SWAP2 DUP5 ADD PUSH3 0x6F9 JUMP JUMPDEST PUSH1 0x40 DUP4 ADD MLOAD SWAP4 PUSH1 0x60 DUP5 ADD MLOAD DUP2 DUP2 GT PUSH3 0x6CF JUMPI DUP4 PUSH3 0x8E SWAP2 DUP7 ADD PUSH3 0x6F9 JUMP JUMPDEST SWAP2 PUSH1 0x80 DUP6 ADD MLOAD DUP3 DUP2 GT PUSH3 0x6CF JUMPI DUP6 ADD SWAP2 PUSH1 0x1F SWAP2 DUP6 DUP4 DUP6 ADD SLT ISZERO PUSH3 0x6CF JUMPI DUP4 MLOAD SWAP3 DUP3 DUP5 GT PUSH3 0x4D2 JUMPI DUP10 SWAP7 PUSH1 0x5 SWAP6 DUP9 PUSH3 0xCE DUP8 DUP10 SHL SWAP14 DUP15 ADD PUSH3 0x6D3 JUMP JUMPDEST DUP1 SWAP8 DUP2 MSTORE ADD DUP10 DUP2 SWAP14 DUP4 ADD ADD SWAP3 DUP1 DUP5 GT PUSH3 0x6CF JUMPI DUP11 DUP4 ADD SWAP2 JUMPDEST DUP5 DUP4 LT PUSH3 0x6A6 JUMPI POP POP POP POP POP PUSH1 0xA0 DUP9 ADD PUSH3 0x103 SWAP1 PUSH3 0x769 JUMP JUMPDEST SWAP10 PUSH1 0xC0 DUP10 ADD MLOAD SWAP8 PUSH1 0xE0 DUP11 ADD MLOAD SWAP11 PUSH2 0x100 DUP12 ADD PUSH3 0x120 SWAP1 PUSH3 0x769 JUMP JUMPDEST SWAP7 PUSH3 0x130 PUSH2 0x120 DUP14 ADD PUSH3 0x769 JUMP JUMPDEST SWAP10 PUSH3 0x140 PUSH2 0x140 DUP15 ADD PUSH3 0x769 JUMP JUMPDEST SWAP13 PUSH2 0x160 ADD MLOAD SWAP16 PUSH2 0xFFFF NOT PUSH1 0xA SLOAD AND PUSH1 0xA SSTORE DUP1 MLOAD SWAP1 DUP10 DUP3 GT PUSH3 0x4D2 JUMPI PUSH3 0x169 PUSH0 SLOAD PUSH3 0x77E JUMP JUMPDEST DUP9 DUP2 GT PUSH3 0x676 JUMPI JUMPDEST POP DUP6 SWAP1 DUP9 DUP4 GT PUSH1 0x1 EQ PUSH3 0x60E JUMPI PUSH3 0x1A3 SWAP3 SWAP2 PUSH0 SWAP2 DUP4 PUSH3 0x38A JUMPI JUMPDEST POP POP DUP2 PUSH1 0x1 SHL SWAP2 PUSH0 NOT SWAP1 PUSH1 0x3 SHL SHR NOT AND OR SWAP1 JUMP JUMPDEST PUSH0 SSTORE JUMPDEST DUP7 MLOAD DUP9 DUP2 GT PUSH3 0x4D2 JUMPI PUSH1 0x1 SWAP8 PUSH3 0x1BF DUP10 SLOAD PUSH3 0x77E JUMP JUMPDEST DUP9 DUP2 GT PUSH3 0x5DE JUMPI JUMPDEST POP DUP6 SWAP1 DUP9 DUP4 GT PUSH1 0x1 EQ PUSH3 0x57B JUMPI PUSH3 0x1F8 SWAP3 SWAP2 PUSH0 SWAP2 DUP4 PUSH3 0x38A JUMPI POP POP DUP2 PUSH1 0x1 SHL SWAP2 PUSH0 NOT SWAP1 PUSH1 0x3 SHL SHR NOT AND OR SWAP1 JUMP JUMPDEST DUP8 SSTORE JUMPDEST PUSH1 0x4 SWAP3 PUSH1 0x4 SSTORE DUP1 MLOAD SWAP1 DUP9 DUP3 GT PUSH3 0x4D2 JUMPI PUSH3 0x219 PUSH1 0x2 SLOAD PUSH3 0x77E JUMP JUMPDEST DUP8 DUP2 GT PUSH3 0x54B JUMPI JUMPDEST POP DUP5 SWAP1 DUP8 DUP4 GT PUSH1 0x1 EQ PUSH3 0x4E6 JUMPI PUSH3 0x252 SWAP3 SWAP2 PUSH0 SWAP2 DUP4 PUSH3 0x38A JUMPI POP POP DUP2 PUSH1 0x1 SHL SWAP2 PUSH0 NOT SWAP1 PUSH1 0x3 SHL SHR NOT AND OR SWAP1 JUMP JUMPDEST PUSH1 0x2 SSTORE JUMPDEST MLOAD SWAP4 PUSH9 0x10000000000000000 DUP6 GT PUSH3 0x4D2 JUMPI PUSH1 0x3 SWAP4 PUSH1 0x3 SLOAD DUP7 PUSH1 0x3 SSTORE DUP1 DUP8 LT PUSH3 0x455 JUMPI JUMPDEST POP SWAP4 SWAP2 PUSH1 0x3 PUSH0 MSTORE DUP4 PUSH0 KECCAK256 SWAP3 PUSH0 SWAP6 JUMPDEST DUP8 DUP8 LT PUSH3 0x320 JUMPI POP POP POP POP POP POP POP POP POP POP PUSH1 0x1 DUP1 PUSH1 0xA0 SHL SUB SWAP6 DUP7 SWAP5 DUP6 SWAP4 DUP5 PUSH1 0x1 DUP1 PUSH1 0xA0 SHL SUB NOT SWAP11 AND DUP11 DUP3 SLOAD AND OR SWAP1 SSTORE PUSH1 0x6 SSTORE PUSH1 0x7 SSTORE AND DUP6 PUSH1 0xD SLOAD AND OR PUSH1 0xD SSTORE AND DUP4 PUSH1 0xE SLOAD AND OR PUSH1 0xE SSTORE AND SWAP1 PUSH1 0xF SLOAD AND OR PUSH1 0xF SSTORE PUSH8 0xDE0B6B3A7640000 SWAP1 DUP2 DUP2 MUL SWAP2 DUP2 DUP4 DIV EQ SWAP1 ISZERO OR ISZERO PUSH3 0x30C JUMPI PUSH1 0x8 SSTORE PUSH1 0x40 MLOAD PUSH2 0x1517 SWAP1 DUP2 PUSH3 0x7D2 DUP3 CODECOPY RETURN JUMPDEST PUSH4 0x4E487B71 PUSH1 0xE0 SHL PUSH0 MSTORE PUSH1 0x11 PUSH1 0x4 MSTORE PUSH1 0x24 PUSH0 REVERT JUMPDEST DUP1 MLOAD SWAP1 DUP2 MLOAD DUP12 DUP2 GT PUSH3 0x442 JUMPI DUP11 SWAP2 DUP9 SWAP2 DUP16 PUSH3 0x33E DUP11 SLOAD PUSH3 0x77E JUMP JUMPDEST DUP10 DUP2 GT PUSH3 0x407 JUMPI JUMPDEST POP POP DUP3 SWAP5 DUP9 DUP3 GT PUSH1 0x1 EQ PUSH3 0x396 JUMPI SWAP1 DUP1 DUP6 SWAP7 PUSH3 0x37A SWAP4 PUSH0 SWAP3 PUSH3 0x38A JUMPI POP POP DUP2 PUSH1 0x1 SHL SWAP2 PUSH0 NOT SWAP1 PUSH1 0x3 SHL SHR NOT AND OR SWAP1 JUMP JUMPDEST DUP9 SSTORE JUMPDEST ADD SWAP6 ADD SWAP7 ADD SWAP6 SWAP4 PUSH3 0x28A JUMP JUMPDEST ADD MLOAD SWAP1 POP PUSH0 DUP1 PUSH3 0x18F JUMP JUMPDEST SWAP5 PUSH1 0x1F NOT DUP3 AND SWAP1 DUP11 PUSH0 MSTORE DUP5 PUSH0 KECCAK256 SWAP2 PUSH0 JUMPDEST DUP2 DUP2 LT PUSH3 0x3E4 JUMPI POP SWAP1 DUP7 SWAP8 DUP5 DUP9 SWAP6 SWAP5 SWAP4 LT PUSH3 0x3CC JUMPI JUMPDEST POP POP POP DUP2 SHL ADD DUP9 SSTORE PUSH3 0x37D JUMP JUMPDEST ADD MLOAD PUSH0 NOT DUP4 DUP11 SHL PUSH1 0xF8 AND SHR NOT AND SWAP1 SSTORE PUSH0 DUP1 DUP1 PUSH3 0x3BE JUMP JUMPDEST SWAP5 SWAP8 SWAP4 SWAP7 DUP7 SWAP3 SWAP7 SWAP2 SWAP4 DUP8 DUP7 ADD MLOAD DUP2 SSTORE ADD SWAP6 ADD SWAP4 ADD SWAP3 DUP12 SWAP5 SWAP2 DUP16 SWAP7 SWAP4 SWAP8 SWAP5 PUSH3 0x3A6 JUMP JUMPDEST PUSH3 0x430 SWAP2 DUP12 PUSH0 MSTORE DUP6 PUSH0 KECCAK256 SWAP1 DUP12 DUP1 DUP7 ADD DUP3 SHR DUP4 ADD SWAP4 DUP9 DUP8 LT PUSH3 0x438 JUMPI JUMPDEST ADD SWAP1 SHR ADD SWAP1 PUSH3 0x7B9 JUMP JUMPDEST DUP16 PUSH0 PUSH3 0x347 JUMP JUMPDEST SWAP4 POP DUP3 SWAP4 PUSH3 0x425 JUMP JUMPDEST PUSH1 0x41 DUP6 PUSH4 0x4E487B71 PUSH1 0xE0 SHL PUSH0 MSTORE MSTORE PUSH1 0x24 PUSH0 REVERT JUMPDEST PUSH1 0x3 PUSH0 MSTORE DUP8 DUP8 DUP7 PUSH0 KECCAK256 SWAP3 DUP4 ADD SWAP3 ADD JUMPDEST DUP3 DUP2 LT PUSH3 0x474 JUMPI POP POP PUSH3 0x27C JUMP JUMPDEST DUP13 PUSH3 0x481 DUP3 SLOAD PUSH3 0x77E JUMP JUMPDEST DUP1 PUSH3 0x493 JUMPI JUMPDEST POP POP ADD DUP9 SWAP1 PUSH3 0x464 JUMP JUMPDEST DUP7 DUP2 GT PUSH1 0x1 EQ PUSH3 0x4AC JUMPI POP POP PUSH0 DUP2 SSTORE JUMPDEST DUP13 PUSH0 PUSH3 0x488 JUMP JUMPDEST PUSH3 0x4C8 PUSH0 SWAP3 DUP5 DUP5 MSTORE DUP9 DUP12 DUP6 KECCAK256 SWAP4 ADD SWAP1 SHR DUP3 ADD DUP6 DUP4 ADD PUSH3 0x7B9 JUMP JUMPDEST DUP2 DUP4 SSTORE SSTORE PUSH3 0x4A4 JUMP JUMPDEST PUSH4 0x4E487B71 PUSH1 0xE0 SHL PUSH0 MSTORE PUSH1 0x41 PUSH1 0x4 MSTORE PUSH1 0x24 PUSH0 REVERT JUMPDEST DUP9 SWAP3 SWAP2 PUSH1 0x1F NOT DUP4 AND SWAP2 PUSH1 0x2 PUSH0 MSTORE DUP8 PUSH0 KECCAK256 SWAP3 PUSH0 JUMPDEST DUP10 DUP3 DUP3 LT PUSH3 0x534 JUMPI POP POP DUP5 GT PUSH3 0x51B JUMPI JUMPDEST POP POP POP DUP2 SHL ADD PUSH1 0x2 SSTORE PUSH3 0x256 JUMP JUMPDEST ADD MLOAD PUSH0 NOT PUSH1 0xF8 DUP5 PUSH1 0x3 SHL AND SHR NOT AND SWAP1 SSTORE PUSH0 DUP1 DUP1 PUSH3 0x50C JUMP JUMPDEST DUP4 DUP6 ADD MLOAD DUP7 SSTORE DUP14 SWAP8 SWAP1 SWAP6 ADD SWAP5 SWAP4 DUP5 ADD SWAP4 ADD PUSH3 0x4F9 JUMP JUMPDEST PUSH3 0x574 SWAP1 PUSH1 0x2 PUSH0 MSTORE DUP7 PUSH0 KECCAK256 DUP14 DUP11 DUP1 DUP8 ADD DUP3 SHR DUP4 ADD SWAP4 DUP11 DUP9 LT PUSH3 0x438 JUMPI ADD SWAP1 SHR ADD SWAP1 PUSH3 0x7B9 JUMP JUMPDEST PUSH0 PUSH3 0x222 JUMP JUMPDEST DUP10 SWAP3 SWAP2 PUSH1 0x1F NOT DUP4 AND SWAP2 DUP5 PUSH0 MSTORE DUP9 PUSH0 KECCAK256 SWAP3 PUSH0 JUMPDEST DUP11 DUP3 DUP3 LT PUSH3 0x5C7 JUMPI POP POP DUP5 GT PUSH3 0x5AE JUMPI JUMPDEST POP POP POP DUP2 SHL ADD DUP8 SSTORE PUSH3 0x1FB JUMP JUMPDEST ADD MLOAD PUSH0 NOT PUSH1 0xF8 DUP5 PUSH1 0x3 SHL AND SHR NOT AND SWAP1 SSTORE PUSH0 DUP1 DUP1 PUSH3 0x5A0 JUMP JUMPDEST DUP4 DUP6 ADD MLOAD DUP7 SSTORE DUP15 SWAP8 SWAP1 SWAP6 ADD SWAP5 SWAP4 DUP5 ADD SWAP4 ADD PUSH3 0x58D JUMP JUMPDEST PUSH3 0x607 SWAP1 DUP11 PUSH0 MSTORE DUP14 DUP9 PUSH0 KECCAK256 SWAP1 DUP12 DUP1 DUP8 ADD DUP3 SHR DUP4 ADD SWAP4 DUP12 DUP9 LT PUSH3 0x438 JUMPI ADD SWAP1 SHR ADD SWAP1 PUSH3 0x7B9 JUMP JUMPDEST PUSH0 PUSH3 0x1C8 JUMP JUMPDEST SWAP1 PUSH1 0x1F NOT DUP4 AND SWAP2 PUSH0 DUP1 MSTORE DUP8 PUSH0 KECCAK256 SWAP3 PUSH0 JUMPDEST DUP10 DUP3 DUP3 LT PUSH3 0x65F JUMPI POP POP SWAP1 DUP5 PUSH1 0x1 SWAP6 SWAP5 SWAP4 SWAP3 LT PUSH3 0x646 JUMPI JUMPDEST POP POP POP DUP2 SHL ADD PUSH0 SSTORE PUSH3 0x1A6 JUMP JUMPDEST ADD MLOAD PUSH0 NOT PUSH1 0xF8 DUP5 PUSH1 0x3 SHL AND SHR NOT AND SWAP1 SSTORE PUSH0 DUP1 DUP1 PUSH3 0x638 JUMP JUMPDEST PUSH1 0x1 DUP6 SWAP7 DUP3 SWAP4 SWAP7 DUP7 ADD MLOAD DUP2 SSTORE ADD SWAP6 ADD SWAP4 ADD PUSH3 0x61E JUMP JUMPDEST PUSH3 0x69F SWAP1 PUSH0 DUP1 MSTORE DUP14 DUP9 PUSH0 KECCAK256 SWAP1 DUP12 DUP1 DUP8 ADD DUP3 SHR DUP4 ADD SWAP4 DUP12 DUP9 LT PUSH3 0x438 JUMPI ADD SWAP1 SHR ADD SWAP1 PUSH3 0x7B9 JUMP JUMPDEST PUSH0 PUSH3 0x172 JUMP JUMPDEST DUP3 MLOAD DUP9 DUP2 GT PUSH3 0x6CF JUMPI DUP13 SWAP2 PUSH3 0x6C3 DUP5 DUP5 DUP1 SWAP5 DUP10 ADD ADD PUSH3 0x6F9 JUMP JUMPDEST DUP2 MSTORE ADD SWAP3 ADD SWAP2 PUSH3 0xE7 JUMP JUMPDEST PUSH0 DUP1 REVERT JUMPDEST PUSH1 0x40 MLOAD SWAP2 SWAP1 PUSH1 0x1F ADD PUSH1 0x1F NOT AND DUP3 ADD PUSH1 0x1 PUSH1 0x1 PUSH1 0x40 SHL SUB DUP2 GT DUP4 DUP3 LT OR PUSH3 0x4D2 JUMPI PUSH1 0x40 MSTORE JUMP JUMPDEST SWAP2 SWAP1 DUP1 PUSH1 0x1F DUP5 ADD SLT ISZERO PUSH3 0x6CF JUMPI DUP3 MLOAD PUSH1 0x1 PUSH1 0x1 PUSH1 0x40 SHL SUB DUP2 GT PUSH3 0x4D2 JUMPI PUSH1 0x20 SWAP1 PUSH3 0x72F PUSH1 0x1F DUP3 ADD PUSH1 0x1F NOT AND DUP4 ADD PUSH3 0x6D3 JUMP JUMPDEST SWAP3 DUP2 DUP5 MSTORE DUP3 DUP3 DUP8 ADD ADD GT PUSH3 0x6CF JUMPI PUSH0 JUMPDEST DUP2 DUP2 LT PUSH3 0x755 JUMPI POP DUP3 PUSH0 SWAP4 SWAP5 SWAP6 POP ADD ADD MSTORE SWAP1 JUMP JUMPDEST DUP6 DUP2 ADD DUP4 ADD MLOAD DUP5 DUP3 ADD DUP5 ADD MSTORE DUP3 ADD PUSH3 0x740 JUMP JUMPDEST MLOAD SWAP1 PUSH1 0x1 PUSH1 0x1 PUSH1 0xA0 SHL SUB DUP3 AND DUP3 SUB PUSH3 0x6CF JUMPI JUMP JUMPDEST SWAP1 PUSH1 0x1 DUP3 DUP2 SHR SWAP3 AND DUP1 ISZERO PUSH3 0x7AE JUMPI JUMPDEST PUSH1 0x20 DUP4 LT EQ PUSH3 0x79A JUMPI JUMP JUMPDEST PUSH4 0x4E487B71 PUSH1 0xE0 SHL PUSH0 MSTORE PUSH1 0x22 PUSH1 0x4 MSTORE PUSH1 0x24 PUSH0 REVERT JUMPDEST SWAP2 PUSH1 0x7F AND SWAP2 PUSH3 0x78E JUMP JUMPDEST DUP2 DUP2 LT PUSH3 0x7C5 JUMPI POP POP JUMP JUMPDEST PUSH0 DUP2 SSTORE PUSH1 0x1 ADD PUSH3 0x7B9 JUMP INVALID PUSH1 0x80 PUSH1 0x40 SWAP1 DUP1 DUP3 MSTORE PUSH1 0x4 SWAP1 DUP2 CALLDATASIZE LT ISZERO PUSH2 0x16 JUMPI PUSH0 DUP1 REVERT JUMPDEST PUSH0 CALLDATALOAD PUSH1 0xE0 SHR SWAP1 DUP2 PUSH4 0xA09284A EQ PUSH2 0x103B JUMPI POP DUP1 PUSH4 0x10246254 EQ PUSH2 0xF35 JUMPI DUP1 PUSH4 0x1030C51E EQ PUSH2 0xF17 JUMPI DUP1 PUSH4 0x148B597C EQ PUSH2 0xEF1 JUMPI DUP1 PUSH4 0x20822ABC EQ PUSH2 0xE8E JUMPI DUP1 PUSH4 0x2F48AB7D EQ PUSH2 0xE66 JUMPI DUP1 PUSH4 0x3CCFD60B EQ PUSH2 0xBC9 JUMPI DUP1 PUSH4 0x3E413BEE EQ PUSH2 0xBA1 JUMPI DUP1 PUSH4 0x42F6FB29 EQ PUSH2 0xB79 JUMPI DUP1 PUSH4 0x4A79D50C EQ PUSH2 0xACC JUMPI DUP1 PUSH4 0x516F279E EQ PUSH2 0xA1B JUMPI DUP1 PUSH4 0x522E4C8A EQ PUSH2 0x9CF JUMPI DUP1 PUSH4 0x5F3D7FA1 EQ PUSH2 0x9B2 JUMPI DUP1 PUSH4 0x6CAD2590 EQ PUSH2 0x973 JUMPI DUP1 PUSH4 0x7038F157 EQ PUSH2 0x872 JUMPI DUP1 PUSH4 0x7284E416 EQ PUSH2 0x78D JUMPI DUP1 PUSH4 0x74BDC4BF EQ PUSH2 0x706 JUMPI DUP1 PUSH4 0x86EC6177 EQ PUSH2 0x627 JUMPI DUP1 PUSH4 0x8DA5CB5B EQ PUSH2 0x5FF JUMPI DUP1 PUSH4 0x99C5296E EQ PUSH2 0x503 JUMPI DUP1 PUSH4 0xAB42300D EQ PUSH2 0x433 JUMPI DUP1 PUSH4 0xAF468682 EQ PUSH2 0x415 JUMPI DUP1 PUSH4 0xB8F34D9E EQ PUSH2 0x3EF JUMPI DUP1 PUSH4 0xC4522C92 EQ PUSH2 0x3A6 JUMPI DUP1 PUSH4 0xCB510E97 EQ PUSH2 0x367 JUMPI DUP1 PUSH4 0xE55448FC EQ PUSH2 0x25D JUMPI DUP1 PUSH4 0xF1ADDA47 EQ PUSH2 0x23F JUMPI DUP1 PUSH4 0xF57E63E2 EQ PUSH2 0x21C JUMPI PUSH4 0xFB6C9537 EQ PUSH2 0x15F JUMPI PUSH0 DUP1 REVERT JUMPDEST CALLVALUE PUSH2 0x218 JUMPI PUSH0 CALLDATASIZE PUSH1 0x3 NOT ADD SLT PUSH2 0x218 JUMPI PUSH1 0x5 SLOAD PUSH1 0x1 PUSH1 0x1 PUSH1 0xA0 SHL SUB AND CALLER EQ DUP1 ISZERO PUSH2 0x201 JUMPI JUMPDEST PUSH2 0x18D SWAP1 PUSH2 0x11A3 JUMP JUMPDEST PUSH1 0x6 SLOAD TIMESTAMP LT ISZERO PUSH2 0x1A8 JUMPI PUSH1 0xA DUP1 SLOAD PUSH2 0xFFFF NOT AND PUSH2 0x101 OR SWAP1 SSTORE STOP JUMPDEST PUSH1 0x20 PUSH1 0x84 SWAP3 MLOAD SWAP2 PUSH3 0x461BCD PUSH1 0xE5 SHL DUP4 MSTORE DUP3 ADD MSTORE PUSH1 0x2E PUSH1 0x24 DUP3 ADD MSTORE PUSH32 0x4576656E7420616C726561647920737461727465642C207573652066696E6973 PUSH1 0x44 DUP3 ADD MSTORE PUSH14 0x1A115D995B9D081A5B9CDD195859 PUSH1 0x92 SHL PUSH1 0x64 DUP3 ADD MSTORE REVERT JUMPDEST POP CALLER PUSH0 SWAP1 DUP2 MSTORE PUSH1 0xC PUSH1 0x20 MSTORE DUP3 SWAP1 KECCAK256 SLOAD PUSH1 0xFF AND PUSH2 0x184 JUMP JUMPDEST PUSH0 DUP1 REVERT JUMPDEST DUP3 CALLVALUE PUSH2 0x218 JUMPI PUSH0 CALLDATASIZE PUSH1 0x3 NOT ADD SLT PUSH2 0x218 JUMPI PUSH1 0x20 SWAP1 PUSH1 0xFF PUSH1 0xA SLOAD AND SWAP1 MLOAD SWAP1 ISZERO ISZERO DUP2 MSTORE RETURN JUMPDEST DUP3 CALLVALUE PUSH2 0x218 JUMPI PUSH0 CALLDATASIZE PUSH1 0x3 NOT ADD SLT PUSH2 0x218 JUMPI PUSH1 0x20 SWAP1 PUSH1 0x9 SLOAD SWAP1 MLOAD SWAP1 DUP2 MSTORE RETURN JUMPDEST POP SWAP1 CALLVALUE PUSH2 0x218 JUMPI PUSH1 0x20 DUP1 PUSH1 0x3 NOT CALLDATASIZE ADD SLT PUSH2 0x218 JUMPI DUP3 CALLDATALOAD PUSH1 0x1 PUSH1 0x1 PUSH1 0xA0 SHL SUB DUP2 DUP2 AND SWAP2 DUP3 SWAP1 SUB PUSH2 0x218 JUMPI PUSH1 0x5 SLOAD AND CALLER EQ DUP1 ISZERO PUSH2 0x351 JUMPI JUMPDEST PUSH2 0x29C SWAP1 PUSH2 0x11A3 JUMP JUMPDEST DUP1 PUSH0 MSTORE PUSH1 0xB DUP3 MSTORE PUSH1 0xFF DUP4 PUSH0 KECCAK256 SLOAD AND ISZERO PUSH2 0x31F JUMPI PUSH1 0x9 SLOAD DUP1 ISZERO PUSH2 0x2ED JUMPI PUSH0 NOT DUP2 ADD SWAP1 DUP2 GT PUSH2 0x2DA JUMPI PUSH1 0x9 SSTORE PUSH0 SWAP1 DUP2 MSTORE PUSH1 0xB SWAP1 SWAP2 MSTORE KECCAK256 DUP1 SLOAD PUSH1 0xFF NOT AND SWAP1 SSTORE STOP JUMPDEST PUSH1 0x11 DUP6 PUSH4 0x4E487B71 PUSH1 0xE0 SHL PUSH0 MSTORE MSTORE PUSH1 0x24 PUSH0 REVERT JUMPDEST DUP4 MLOAD PUSH3 0x461BCD PUSH1 0xE5 SHL DUP2 MSTORE DUP1 DUP7 ADD DUP5 SWAP1 MSTORE PUSH1 0xC PUSH1 0x24 DUP3 ADD MSTORE PUSH12 0x4E6F20617474656E64656573 PUSH1 0xA0 SHL PUSH1 0x44 DUP3 ADD MSTORE PUSH1 0x64 SWAP1 REVERT JUMPDEST POP SWAP1 MLOAD PUSH3 0x461BCD PUSH1 0xE5 SHL DUP2 MSTORE SWAP2 DUP3 ADD MSTORE PUSH1 0xD PUSH1 0x24 DUP3 ADD MSTORE PUSH13 0x4E6F7420617474656E64696E67 PUSH1 0x98 SHL PUSH1 0x44 DUP3 ADD MSTORE PUSH1 0x64 SWAP1 REVERT JUMPDEST POP CALLER PUSH0 SWAP1 DUP2 MSTORE PUSH1 0xC DUP4 MSTORE DUP4 SWAP1 KECCAK256 SLOAD PUSH1 0xFF AND PUSH2 0x293 JUMP JUMPDEST POP CALLVALUE PUSH2 0x218 JUMPI PUSH1 0x20 CALLDATASIZE PUSH1 0x3 NOT ADD SLT PUSH2 0x218 JUMPI CALLDATALOAD PUSH1 0x1 PUSH1 0x1 PUSH1 0xA0 SHL SUB DUP2 AND SWAP2 SWAP1 DUP3 SWAP1 SUB PUSH2 0x218 JUMPI PUSH1 0x20 SWAP2 PUSH0 MSTORE PUSH1 0xC DUP3 MSTORE PUSH1 0xFF DUP2 PUSH0 KECCAK256 SLOAD AND SWAP1 MLOAD SWAP1 ISZERO ISZERO DUP2 MSTORE RETURN JUMPDEST POP CALLVALUE PUSH2 0x218 JUMPI PUSH1 0x20 CALLDATASIZE PUSH1 0x3 NOT ADD SLT PUSH2 0x218 JUMPI CALLDATALOAD PUSH1 0x1 PUSH1 0x1 PUSH1 0xA0 SHL SUB DUP2 DUP2 AND SWAP2 DUP3 SWAP1 SUB PUSH2 0x218 JUMPI PUSH2 0x3DB SWAP1 PUSH1 0x5 SLOAD AND CALLER EQ PUSH2 0x1203 JUMP JUMPDEST PUSH0 SWAP1 DUP2 MSTORE PUSH1 0xC PUSH1 0x20 MSTORE KECCAK256 DUP1 SLOAD PUSH1 0xFF NOT AND SWAP1 SSTORE STOP JUMPDEST POP SWAP1 CALLVALUE PUSH2 0x218 JUMPI PUSH1 0x20 CALLDATASIZE PUSH1 0x3 NOT ADD SLT PUSH2 0x218 JUMPI PUSH2 0x40E PUSH1 0x20 SWAP3 CALLDATALOAD PUSH2 0x13E0 JUMP JUMPDEST SWAP1 MLOAD SWAP1 DUP2 MSTORE RETURN JUMPDEST DUP3 CALLVALUE PUSH2 0x218 JUMPI PUSH0 CALLDATASIZE PUSH1 0x3 NOT ADD SLT PUSH2 0x218 JUMPI PUSH1 0x20 SWAP1 PUSH1 0x6 SLOAD SWAP1 MLOAD SWAP1 DUP2 MSTORE RETURN JUMPDEST POP PUSH0 CALLDATASIZE PUSH1 0x3 NOT ADD SLT PUSH2 0x218 JUMPI CALLER PUSH0 MSTORE PUSH1 0xB PUSH1 0x20 MSTORE PUSH2 0x457 PUSH1 0xFF DUP4 PUSH0 KECCAK256 SLOAD AND ISZERO PUSH2 0x1253 JUMP JUMPDEST PUSH2 0x465 PUSH1 0x9 SLOAD DUP3 SLOAD GT PUSH2 0x1290 JUMP JUMPDEST PUSH2 0x470 PUSH1 0x8 SLOAD PUSH2 0x13E0 JUMP JUMPDEST CALLVALUE LT PUSH2 0x4CE JUMPI POP CALLER PUSH0 MSTORE PUSH1 0xB PUSH1 0x20 MSTORE DUP1 PUSH0 KECCAK256 PUSH1 0x1 PUSH1 0xFF NOT DUP3 SLOAD AND OR SWAP1 SSTORE PUSH2 0x498 PUSH1 0x9 SLOAD PUSH2 0x1300 JUMP JUMPDEST PUSH1 0x9 SSTORE MLOAD PUSH32 0x99B41EF7710E47B6754D8EF11FE3BA8A88A70832B121B27D49884654DF95D5E CALLER SWAP2 DUP1 PUSH2 0x4C9 DUP2 PUSH2 0x130E JUMP JUMPDEST SUB SWAP1 LOG2 STOP JUMPDEST PUSH1 0x20 PUSH1 0x64 SWAP3 MLOAD SWAP2 PUSH3 0x461BCD PUSH1 0xE5 SHL DUP4 MSTORE DUP3 ADD MSTORE PUSH1 0x10 PUSH1 0x24 DUP3 ADD MSTORE PUSH16 0x92DCE6EACCCCD2C6D2CADCE8408AA89 PUSH1 0x83 SHL PUSH1 0x44 DUP3 ADD MSTORE REVERT JUMPDEST POP CALLVALUE PUSH2 0x218 JUMPI PUSH0 CALLDATASIZE PUSH1 0x3 NOT ADD SLT PUSH2 0x218 JUMPI PUSH1 0x20 PUSH2 0x58A SWAP2 CALLER PUSH0 MSTORE PUSH1 0xB DUP3 MSTORE PUSH2 0x531 PUSH1 0xFF DUP6 PUSH0 KECCAK256 SLOAD AND ISZERO PUSH2 0x1253 JUMP JUMPDEST PUSH2 0x53F PUSH1 0x9 SLOAD DUP3 SLOAD GT PUSH2 0x1290 JUMP JUMPDEST PUSH1 0x8 SLOAD PUSH1 0xD SLOAD DUP6 MLOAD PUSH4 0x23B872DD PUSH1 0xE0 SHL DUP2 MSTORE CALLER SWAP4 DUP2 ADD SWAP4 DUP5 MSTORE ADDRESS PUSH1 0x20 DUP6 ADD MSTORE PUSH5 0xE8D4A51000 SWAP1 SWAP3 DIV PUSH1 0x40 DUP5 ADD MSTORE SWAP1 SWAP4 DUP5 SWAP3 PUSH1 0x1 PUSH1 0x1 PUSH1 0xA0 SHL SUB SWAP1 SWAP3 AND SWAP2 DUP4 SWAP2 PUSH0 SWAP2 DUP4 SWAP2 PUSH1 0x60 SWAP1 SWAP2 ADD SWAP1 JUMP JUMPDEST SUB SWAP3 GAS CALL DUP1 ISZERO PUSH2 0x5F5 JUMPI PUSH2 0x5A5 SWAP2 PUSH0 SWAP2 PUSH2 0x5C6 JUMPI JUMPDEST POP PUSH2 0x12C2 JUMP JUMPDEST CALLER PUSH0 MSTORE PUSH1 0xB PUSH1 0x20 MSTORE DUP1 PUSH0 KECCAK256 PUSH1 0x1 PUSH1 0xFF NOT DUP3 SLOAD AND OR SWAP1 SSTORE PUSH2 0x498 PUSH1 0x9 SLOAD PUSH2 0x1300 JUMP JUMPDEST PUSH2 0x5E8 SWAP2 POP PUSH1 0x20 RETURNDATASIZE PUSH1 0x20 GT PUSH2 0x5EE JUMPI JUMPDEST PUSH2 0x5E0 DUP2 DUP4 PUSH2 0x108D JUMP JUMPDEST DUP2 ADD SWAP1 PUSH2 0x123B JUMP JUMPDEST PUSH0 PUSH2 0x59F JUMP JUMPDEST POP RETURNDATASIZE PUSH2 0x5D6 JUMP JUMPDEST DUP3 MLOAD RETURNDATASIZE PUSH0 DUP3 RETURNDATACOPY RETURNDATASIZE SWAP1 REVERT JUMPDEST DUP3 CALLVALUE PUSH2 0x218 JUMPI PUSH0 CALLDATASIZE PUSH1 0x3 NOT ADD SLT PUSH2 0x218 JUMPI PUSH1 0x5 SLOAD SWAP1 MLOAD PUSH1 0x1 PUSH1 0x1 PUSH1 0xA0 SHL SUB SWAP1 SWAP2 AND DUP2 MSTORE PUSH1 0x20 SWAP1 RETURN JUMPDEST POP CALLVALUE PUSH2 0x218 JUMPI PUSH0 CALLDATASIZE PUSH1 0x3 NOT ADD SLT PUSH2 0x218 JUMPI PUSH1 0x5 SLOAD PUSH1 0x1 PUSH1 0x1 PUSH1 0xA0 SHL SUB AND CALLER EQ DUP1 ISZERO PUSH2 0x6EF JUMPI JUMPDEST PUSH2 0x656 SWAP1 PUSH2 0x11A3 JUMP JUMPDEST PUSH1 0xA SLOAD SWAP2 PUSH1 0xFF DUP4 AND PUSH2 0x6B3 JUMPI PUSH1 0x6 SLOAD TIMESTAMP LT PUSH2 0x678 JUMPI PUSH1 0xFF NOT DUP4 AND PUSH1 0x1 OR PUSH1 0xA SSTORE STOP JUMPDEST SWAP1 PUSH1 0x20 PUSH1 0x64 SWAP3 MLOAD SWAP2 PUSH3 0x461BCD PUSH1 0xE5 SHL DUP4 MSTORE DUP3 ADD MSTORE PUSH1 0x15 PUSH1 0x24 DUP3 ADD MSTORE PUSH21 0x115D995B9D081B9BDD081CDD185C9D1959081E595D PUSH1 0x5A SHL PUSH1 0x44 DUP3 ADD MSTORE REVERT JUMPDEST SWAP1 PUSH1 0x20 PUSH1 0x64 SWAP3 MLOAD SWAP2 PUSH3 0x461BCD PUSH1 0xE5 SHL DUP4 MSTORE DUP3 ADD MSTORE PUSH1 0x16 PUSH1 0x24 DUP3 ADD MSTORE PUSH22 0x115D995B9D08185B1C9958591E48199A5B9A5CDA1959 PUSH1 0x52 SHL PUSH1 0x44 DUP3 ADD MSTORE REVERT JUMPDEST POP CALLER PUSH0 SWAP1 DUP2 MSTORE PUSH1 0xC PUSH1 0x20 MSTORE DUP3 SWAP1 KECCAK256 SLOAD PUSH1 0xFF AND PUSH2 0x64D JUMP JUMPDEST POP CALLVALUE PUSH2 0x218 JUMPI PUSH0 CALLDATASIZE PUSH1 0x3 NOT ADD SLT PUSH2 0x218 JUMPI PUSH1 0x20 PUSH2 0x58A SWAP2 CALLER PUSH0 MSTORE PUSH1 0xB DUP3 MSTORE PUSH2 0x734 PUSH1 0xFF DUP6 PUSH0 KECCAK256 SLOAD AND ISZERO PUSH2 0x1253 JUMP JUMPDEST PUSH2 0x742 PUSH1 0x9 SLOAD DUP3 SLOAD GT PUSH2 0x1290 JUMP JUMPDEST PUSH1 0x8 SLOAD PUSH1 0xE SLOAD DUP6 MLOAD PUSH4 0x23B872DD PUSH1 0xE0 SHL DUP2 MSTORE CALLER SWAP4 DUP2 ADD SWAP4 DUP5 MSTORE ADDRESS PUSH1 0x20 DUP6 ADD MSTORE PUSH5 0xE8D4A51000 SWAP1 SWAP3 DIV PUSH1 0x40 DUP5 ADD MSTORE SWAP1 SWAP4 DUP5 SWAP3 PUSH1 0x1 PUSH1 0x1 PUSH1 0xA0 SHL SUB SWAP1 SWAP3 AND SWAP2 DUP4 SWAP2 PUSH0 SWAP2 DUP4 SWAP2 PUSH1 0x60 SWAP1 SWAP2 ADD SWAP1 JUMP JUMPDEST DUP3 CALLVALUE PUSH2 0x218 JUMPI PUSH0 CALLDATASIZE PUSH1 0x3 NOT ADD SLT PUSH2 0x218 JUMPI DUP1 MLOAD PUSH1 0x2 SLOAD SWAP1 SWAP2 DUP3 PUSH0 PUSH2 0x7B0 DUP5 PUSH2 0x1055 JUMP JUMPDEST DUP1 DUP4 MSTORE PUSH1 0x20 SWAP5 PUSH1 0x1 SWAP1 DUP7 PUSH1 0x1 DUP3 AND SWAP2 DUP3 PUSH0 EQ PUSH2 0x850 JUMPI POP POP PUSH1 0x1 EQ PUSH2 0x7F5 JUMPI JUMPDEST POP POP PUSH2 0x7F1 SWAP3 SWAP2 PUSH2 0x7E2 SWAP2 SUB DUP6 PUSH2 0x108D JUMP JUMPDEST MLOAD SWAP3 DUP3 DUP5 SWAP4 DUP5 MSTORE DUP4 ADD SWAP1 PUSH2 0x1165 JUMP JUMPDEST SUB SWAP1 RETURN JUMPDEST SWAP1 DUP6 SWAP3 POP PUSH1 0x2 PUSH0 MSTORE PUSH32 0x405787FA12A823E0F2B7631CC41B3BA8828B3321CA811111FA75CD3AA3BB5ACE SWAP2 PUSH0 SWAP3 JUMPDEST DUP3 DUP5 LT PUSH2 0x838 JUMPI POP POP POP DUP3 ADD ADD DUP2 PUSH2 0x7E2 PUSH2 0x7D0 JUMP JUMPDEST DUP1 SLOAD DUP5 DUP11 ADD DUP7 ADD MSTORE DUP9 SWAP6 POP DUP8 SWAP5 SWAP1 SWAP4 ADD SWAP3 DUP2 ADD PUSH2 0x822 JUMP JUMPDEST PUSH1 0xFF NOT AND DUP7 DUP3 ADD MSTORE SWAP3 ISZERO ISZERO PUSH1 0x5 SHL DUP6 ADD SWAP1 SWAP3 ADD SWAP3 POP DUP4 SWAP2 POP PUSH2 0x7E2 SWAP1 POP PUSH2 0x7D0 JUMP JUMPDEST POP CALLVALUE PUSH2 0x218 JUMPI PUSH0 CALLDATASIZE PUSH1 0x3 NOT ADD SLT PUSH2 0x218 JUMPI PUSH1 0x3 SLOAD SWAP1 PUSH8 0xFFFFFFFFFFFFFFFF DUP3 GT PUSH2 0x960 JUMPI POP PUSH1 0x20 SWAP1 DUP3 MLOAD SWAP2 PUSH2 0x8AC DUP2 DUP4 PUSH1 0x5 SHL ADD DUP5 PUSH2 0x108D JUMP JUMPDEST DUP2 DUP4 MSTORE DUP1 DUP4 ADD SWAP2 DUP3 PUSH1 0x3 PUSH0 MSTORE PUSH32 0xC2575A0E9E593C00F959F8C92F12DB2869C3395A3B0502D05E2516446F71F85B PUSH0 SWAP2 JUMPDEST DUP4 DUP4 LT PUSH2 0x93E JUMPI POP POP POP POP DUP4 MLOAD SWAP3 DUP2 DUP5 ADD SWAP1 DUP3 DUP6 MSTORE MLOAD DUP1 SWAP2 MSTORE DUP5 DUP5 ADD SWAP5 DUP2 PUSH1 0x5 SHL DUP6 ADD ADD SWAP3 SWAP2 PUSH0 SWAP6 JUMPDEST DUP3 DUP8 LT PUSH2 0x912 JUMPI DUP6 DUP6 SUB DUP7 RETURN JUMPDEST SWAP1 SWAP2 SWAP3 SWAP4 DUP3 DUP1 PUSH2 0x92E PUSH1 0x1 SWAP4 PUSH1 0x3F NOT DUP11 DUP3 SUB ADD DUP7 MSTORE DUP9 MLOAD PUSH2 0x1165 JUMP JUMPDEST SWAP7 ADD SWAP3 ADD SWAP7 ADD SWAP6 SWAP3 SWAP2 SWAP1 SWAP3 PUSH2 0x905 JUMP JUMPDEST PUSH1 0x1 DUP6 DUP2 SWAP3 PUSH2 0x94F DUP6 SWAP11 SWAP9 SWAP11 PUSH2 0x10C3 JUMP JUMPDEST DUP2 MSTORE ADD SWAP3 ADD SWAP3 ADD SWAP2 SWAP1 SWAP6 SWAP4 SWAP6 PUSH2 0x8DC JUMP JUMPDEST PUSH1 0x41 SWAP1 PUSH4 0x4E487B71 PUSH1 0xE0 SHL PUSH0 MSTORE MSTORE PUSH1 0x24 PUSH0 REVERT JUMPDEST POP CALLVALUE PUSH2 0x218 JUMPI PUSH1 0x20 CALLDATASIZE PUSH1 0x3 NOT ADD SLT PUSH2 0x218 JUMPI CALLDATALOAD PUSH1 0x1 PUSH1 0x1 PUSH1 0xA0 SHL SUB DUP2 AND SWAP2 SWAP1 DUP3 SWAP1 SUB PUSH2 0x218 JUMPI PUSH1 0x20 SWAP2 PUSH0 MSTORE PUSH1 0xB DUP3 MSTORE PUSH1 0xFF DUP2 PUSH0 KECCAK256 SLOAD AND SWAP1 MLOAD SWAP1 ISZERO ISZERO DUP2 MSTORE RETURN JUMPDEST POP SWAP1 CALLVALUE PUSH2 0x218 JUMPI PUSH0 CALLDATASIZE PUSH1 0x3 NOT ADD SLT PUSH2 0x218 JUMPI PUSH1 0x20 SWAP2 SLOAD SWAP1 MLOAD SWAP1 DUP2 MSTORE RETURN JUMPDEST POP CALLVALUE PUSH2 0x218 JUMPI PUSH1 0x20 CALLDATASIZE PUSH1 0x3 NOT ADD SLT PUSH2 0x218 JUMPI CALLDATALOAD PUSH1 0x1 PUSH1 0x1 PUSH1 0xA0 SHL SUB DUP2 DUP2 AND SWAP2 DUP3 SWAP1 SUB PUSH2 0x218 JUMPI PUSH2 0xA04 SWAP1 PUSH1 0x5 SLOAD AND CALLER EQ PUSH2 0x1203 JUMP JUMPDEST PUSH0 SWAP1 DUP2 MSTORE PUSH1 0xC PUSH1 0x20 MSTORE KECCAK256 DUP1 SLOAD PUSH1 0xFF NOT AND PUSH1 0x1 OR SWAP1 SSTORE STOP JUMPDEST DUP3 CALLVALUE PUSH2 0x218 JUMPI PUSH0 CALLDATASIZE PUSH1 0x3 NOT ADD SLT PUSH2 0x218 JUMPI DUP1 MLOAD SWAP1 PUSH0 SWAP1 DUP3 PUSH1 0x1 SWAP3 PUSH1 0x1 SLOAD SWAP4 PUSH2 0xA42 DUP6 PUSH2 0x1055 JUMP JUMPDEST SWAP1 DUP2 DUP5 MSTORE PUSH1 0x20 SWAP6 DUP7 PUSH1 0x1 DUP3 AND SWAP2 DUP3 PUSH0 EQ PUSH2 0x850 JUMPI POP POP PUSH1 0x1 EQ PUSH2 0xA71 JUMPI POP POP PUSH2 0x7F1 SWAP3 SWAP2 PUSH2 0x7E2 SWAP2 SUB DUP6 PUSH2 0x108D JUMP JUMPDEST SWAP1 DUP6 SWAP3 POP PUSH1 0x1 PUSH0 MSTORE PUSH32 0xB10E2D527612073B26EECDFD717E6A320CF44B4AFAC2B0732D9FCBE2B7FA0CF6 SWAP2 PUSH0 SWAP3 JUMPDEST DUP3 DUP5 LT PUSH2 0xAB4 JUMPI POP POP POP DUP3 ADD ADD DUP2 PUSH2 0x7E2 PUSH2 0x7D0 JUMP JUMPDEST DUP1 SLOAD DUP5 DUP11 ADD DUP7 ADD MSTORE DUP9 SWAP6 POP DUP8 SWAP5 SWAP1 SWAP4 ADD SWAP3 DUP2 ADD PUSH2 0xA9E JUMP JUMPDEST DUP3 CALLVALUE PUSH2 0x218 JUMPI PUSH0 CALLDATASIZE PUSH1 0x3 NOT ADD SLT PUSH2 0x218 JUMPI DUP1 MLOAD SWAP1 PUSH0 SWAP1 DUP3 PUSH0 SLOAD SWAP3 PUSH2 0xAEF DUP5 PUSH2 0x1055 JUMP JUMPDEST DUP1 DUP4 MSTORE PUSH1 0x20 SWAP5 PUSH1 0x1 SWAP1 DUP7 PUSH1 0x1 DUP3 AND SWAP2 DUP3 PUSH0 EQ PUSH2 0x850 JUMPI POP POP PUSH1 0x1 EQ PUSH2 0xB20 JUMPI POP POP PUSH2 0x7F1 SWAP3 SWAP2 PUSH2 0x7E2 SWAP2 SUB DUP6 PUSH2 0x108D JUMP JUMPDEST PUSH0 DUP1 DUP1 MSTORE DUP7 SWAP4 POP SWAP2 SWAP1 PUSH32 0x290DECD9548B62A8D60345A988386FC84BA6BC95484008F6362F93160EF3E563 JUMPDEST DUP3 DUP5 LT PUSH2 0xB61 JUMPI POP POP POP DUP3 ADD ADD DUP2 PUSH2 0x7E2 PUSH2 0x7D0 JUMP JUMPDEST DUP1 SLOAD DUP5 DUP11 ADD DUP7 ADD MSTORE DUP9 SWAP6 POP DUP8 SWAP5 SWAP1 SWAP4 ADD SWAP3 DUP2 ADD PUSH2 0xB4B JUMP JUMPDEST DUP3 CALLVALUE PUSH2 0x218 JUMPI PUSH0 CALLDATASIZE PUSH1 0x3 NOT ADD SLT PUSH2 0x218 JUMPI PUSH1 0xF SLOAD SWAP1 MLOAD PUSH1 0x1 PUSH1 0x1 PUSH1 0xA0 SHL SUB SWAP1 SWAP2 AND DUP2 MSTORE PUSH1 0x20 SWAP1 RETURN JUMPDEST DUP3 CALLVALUE PUSH2 0x218 JUMPI PUSH0 CALLDATASIZE PUSH1 0x3 NOT ADD SLT PUSH2 0x218 JUMPI PUSH1 0xD SLOAD SWAP1 MLOAD PUSH1 0x1 PUSH1 0x1 PUSH1 0xA0 SHL SUB SWAP1 SWAP2 AND DUP2 MSTORE PUSH1 0x20 SWAP1 RETURN JUMPDEST POP CALLVALUE PUSH2 0x218 JUMPI PUSH0 CALLDATASIZE PUSH1 0x3 NOT ADD SLT PUSH2 0x218 JUMPI PUSH1 0x5 SLOAD PUSH1 0x1 PUSH1 0x1 PUSH1 0xA0 SHL SUB SWAP1 DUP2 AND SWAP2 SWAP1 PUSH2 0xBF5 CALLER DUP5 EQ PUSH2 0x1203 JUMP JUMPDEST SELFBALANCE SWAP3 DUP2 PUSH1 0xD SLOAD AND SWAP2 DUP6 MLOAD SWAP4 DUP5 SWAP3 PUSH4 0x70A08231 PUSH1 0xE0 SHL SWAP5 DUP6 DUP6 MSTORE ADDRESS DUP4 DUP7 ADD MSTORE DUP5 PUSH1 0x24 PUSH1 0x20 SWAP9 DUP10 SWAP4 GAS STATICCALL SWAP4 DUP5 ISZERO PUSH2 0xDCE JUMPI PUSH0 SWAP5 PUSH2 0xE37 JUMPI JUMPDEST POP DUP6 DUP4 PUSH1 0xE SLOAD AND SWAP6 PUSH1 0x24 DUP11 MLOAD DUP1 SWAP9 DUP2 SWAP4 DUP3 MSTORE ADDRESS DUP8 DUP4 ADD MSTORE GAS STATICCALL SWAP5 DUP6 ISZERO PUSH2 0xDCE JUMPI PUSH0 SWAP6 PUSH2 0xE08 JUMPI JUMPDEST POP DUP7 DUP1 ISZERO SWAP2 DUP3 ISZERO PUSH2 0xDD8 JUMPI JUMPDEST POP POP POP DUP3 PUSH2 0xD5F JUMPI JUMPDEST DUP4 PUSH2 0xCB1 JUMPI JUMPDEST POP SWAP2 PUSH2 0xCA4 PUSH2 0xCA9 SWAP3 PUSH32 0x884EDAD9CE6FA2440D8A54CC123490EB96D2768479D49FF9C7366125A9424364 SWAP7 SWAP8 SWAP5 PUSH1 0x5 SLOAD AND SWAP8 PUSH2 0x11E2 JUMP JUMPDEST PUSH2 0x11E2 JUMP JUMPDEST SWAP1 MLOAD SWAP1 DUP2 MSTORE LOG2 STOP JUMPDEST PUSH1 0xE SLOAD PUSH1 0x5 SLOAD DUP9 MLOAD PUSH4 0xA9059CBB PUSH1 0xE0 SHL DUP2 MSTORE SWAP1 DUP5 AND PUSH1 0x1 PUSH1 0x1 PUSH1 0xA0 SHL SUB AND SWAP3 DUP2 ADD SWAP3 DUP4 MSTORE PUSH1 0x20 DUP4 ADD DUP7 SWAP1 MSTORE SWAP2 DUP7 SWAP2 DUP4 SWAP2 SWAP1 DUP6 AND SWAP1 DUP3 SWAP1 PUSH0 SWAP1 DUP3 SWAP1 PUSH1 0x40 ADD SUB SWAP3 GAS CALL DUP1 ISZERO PUSH2 0xD55 JUMPI SWAP3 PUSH32 0x884EDAD9CE6FA2440D8A54CC123490EB96D2768479D49FF9C7366125A9424364 SWAP7 SWAP8 SWAP5 SWAP3 PUSH2 0xCA4 SWAP3 PUSH2 0xCA9 SWAP6 PUSH2 0xD38 JUMPI JUMPDEST POP SWAP3 SWAP5 SWAP8 SWAP7 POP SWAP3 POP PUSH2 0xC6D JUMP JUMPDEST PUSH2 0xD4E SWAP1 DUP9 RETURNDATASIZE DUP11 GT PUSH2 0x5EE JUMPI PUSH2 0x5E0 DUP2 DUP4 PUSH2 0x108D JUMP JUMPDEST POP PUSH0 PUSH2 0xD2B JUMP JUMPDEST DUP8 MLOAD RETURNDATASIZE PUSH0 DUP3 RETURNDATACOPY RETURNDATASIZE SWAP1 REVERT JUMPDEST PUSH1 0xD SLOAD PUSH1 0x5 SLOAD DUP9 MLOAD PUSH4 0xA9059CBB PUSH1 0xE0 SHL DUP2 MSTORE SWAP1 DUP5 AND PUSH1 0x1 PUSH1 0x1 PUSH1 0xA0 SHL SUB AND DUP4 DUP3 ADD SWAP1 DUP2 MSTORE PUSH1 0x20 DUP2 ADD DUP7 SWAP1 MSTORE SWAP1 SWAP2 DUP8 SWAP2 DUP4 SWAP2 DUP7 AND SWAP1 DUP3 SWAP1 PUSH0 SWAP1 DUP3 SWAP1 PUSH1 0x40 ADD SUB SWAP3 GAS CALL DUP1 ISZERO PUSH2 0xDCE JUMPI PUSH2 0xDB1 JUMPI JUMPDEST POP PUSH2 0xC67 JUMP JUMPDEST PUSH2 0xDC7 SWAP1 DUP7 RETURNDATASIZE DUP9 GT PUSH2 0x5EE JUMPI PUSH2 0x5E0 DUP2 DUP4 PUSH2 0x108D JUMP JUMPDEST POP PUSH0 PUSH2 0xDAB JUMP JUMPDEST DUP9 MLOAD RETURNDATASIZE PUSH0 DUP3 RETURNDATACOPY RETURNDATASIZE SWAP1 REVERT JUMPDEST PUSH0 SWAP3 DUP4 SWAP3 DUP4 SWAP3 DUP4 SWAP3 DUP4 SWAP1 PUSH2 0xDFF JUMPI JUMPDEST CALL ISZERO PUSH2 0xDF5 JUMPI PUSH0 DUP7 DUP2 PUSH2 0xC5E JUMP JUMPDEST DUP7 MLOAD RETURNDATASIZE PUSH0 DUP3 RETURNDATACOPY RETURNDATASIZE SWAP1 REVERT JUMPDEST POP PUSH2 0x8FC PUSH2 0xDE7 JUMP JUMPDEST SWAP1 SWAP5 POP DUP6 DUP2 DUP2 RETURNDATASIZE DUP4 GT PUSH2 0xE30 JUMPI JUMPDEST PUSH2 0xE20 DUP2 DUP4 PUSH2 0x108D JUMP JUMPDEST DUP2 ADD SUB SLT PUSH2 0x218 JUMPI MLOAD SWAP4 PUSH0 PUSH2 0xC52 JUMP JUMPDEST POP RETURNDATASIZE PUSH2 0xE16 JUMP JUMPDEST SWAP1 SWAP4 POP DUP6 DUP2 DUP2 RETURNDATASIZE DUP4 GT PUSH2 0xE5F JUMPI JUMPDEST PUSH2 0xE4F DUP2 DUP4 PUSH2 0x108D JUMP JUMPDEST DUP2 ADD SUB SLT PUSH2 0x218 JUMPI MLOAD SWAP3 PUSH0 PUSH2 0xC2B JUMP JUMPDEST POP RETURNDATASIZE PUSH2 0xE45 JUMP JUMPDEST DUP3 CALLVALUE PUSH2 0x218 JUMPI PUSH0 CALLDATASIZE PUSH1 0x3 NOT ADD SLT PUSH2 0x218 JUMPI PUSH1 0xE SLOAD SWAP1 MLOAD PUSH1 0x1 PUSH1 0x1 PUSH1 0xA0 SHL SUB SWAP1 SWAP2 AND DUP2 MSTORE PUSH1 0x20 SWAP1 RETURN JUMPDEST POP CALLVALUE PUSH2 0x218 JUMPI PUSH1 0x20 CALLDATASIZE PUSH1 0x3 NOT ADD SLT PUSH2 0x218 JUMPI CALLDATALOAD SWAP1 PUSH1 0x3 SLOAD DUP3 LT ISZERO PUSH2 0x218 JUMPI PUSH2 0xEDE PUSH2 0x7F1 SWAP3 PUSH1 0x3 PUSH0 MSTORE PUSH32 0xC2575A0E9E593C00F959F8C92F12DB2869C3395A3B0502D05E2516446F71F85B ADD PUSH2 0x10C3 JUMP JUMPDEST SWAP1 MLOAD SWAP2 DUP3 SWAP2 PUSH1 0x20 DUP4 MSTORE PUSH1 0x20 DUP4 ADD SWAP1 PUSH2 0x1165 JUMP JUMPDEST DUP3 CALLVALUE PUSH2 0x218 JUMPI PUSH0 CALLDATASIZE PUSH1 0x3 NOT ADD SLT PUSH2 0x218 JUMPI PUSH1 0x20 SWAP1 PUSH1 0xFF PUSH1 0xA SLOAD PUSH1 0x8 SHR AND SWAP1 MLOAD SWAP1 ISZERO ISZERO DUP2 MSTORE RETURN JUMPDEST DUP3 CALLVALUE PUSH2 0x218 JUMPI PUSH0 CALLDATASIZE PUSH1 0x3 NOT ADD SLT PUSH2 0x218 JUMPI PUSH1 0x20 SWAP1 PUSH1 0x8 SLOAD SWAP1 MLOAD SWAP1 DUP2 MSTORE RETURN JUMPDEST POP SWAP1 CALLVALUE PUSH2 0x218 JUMPI PUSH1 0x20 DUP1 PUSH1 0x3 NOT CALLDATASIZE ADD SLT PUSH2 0x218 JUMPI DUP3 CALLDATALOAD PUSH1 0x1 PUSH1 0x1 PUSH1 0xA0 SHL SUB DUP2 DUP2 AND SWAP2 DUP3 SWAP1 SUB PUSH2 0x218 JUMPI PUSH1 0x5 SLOAD AND CALLER EQ DUP1 ISZERO PUSH2 0x1025 JUMPI JUMPDEST PUSH2 0xF74 SWAP1 PUSH2 0x11A3 JUMP JUMPDEST DUP1 PUSH0 MSTORE PUSH1 0xB DUP3 MSTORE PUSH1 0xFF DUP4 PUSH0 KECCAK256 SLOAD AND PUSH2 0xFEA JUMPI PUSH1 0x9 SLOAD DUP5 SLOAD DUP2 LT ISZERO PUSH2 0xFB7 JUMPI PUSH1 0x1 DUP2 ADD DUP1 SWAP2 GT PUSH2 0x2DA JUMPI PUSH1 0x9 SSTORE PUSH0 SWAP1 DUP2 MSTORE PUSH1 0xB SWAP1 SWAP2 MSTORE KECCAK256 DUP1 SLOAD PUSH1 0xFF NOT AND PUSH1 0x1 OR SWAP1 SSTORE STOP JUMPDEST DUP4 MLOAD PUSH3 0x461BCD PUSH1 0xE5 SHL DUP2 MSTORE DUP1 DUP7 ADD DUP5 SWAP1 MSTORE PUSH1 0xD PUSH1 0x24 DUP3 ADD MSTORE PUSH13 0x115D995B9D081A5CC8199D5B1B PUSH1 0x9A SHL PUSH1 0x44 DUP3 ADD MSTORE PUSH1 0x64 SWAP1 REVERT JUMPDEST POP SWAP1 MLOAD PUSH3 0x461BCD PUSH1 0xE5 SHL DUP2 MSTORE SWAP2 DUP3 ADD MSTORE PUSH1 0x16 PUSH1 0x24 DUP3 ADD MSTORE PUSH22 0x105D1D195B99195948185B1C9958591E481859191959 PUSH1 0x52 SHL PUSH1 0x44 DUP3 ADD MSTORE PUSH1 0x64 SWAP1 REVERT JUMPDEST POP CALLER PUSH0 SWAP1 DUP2 MSTORE PUSH1 0xC DUP4 MSTORE DUP4 SWAP1 KECCAK256 SLOAD PUSH1 0xFF AND PUSH2 0xF6B JUMP JUMPDEST CALLVALUE PUSH2 0x218 JUMPI PUSH0 CALLDATASIZE PUSH1 0x3 NOT ADD SLT PUSH2 0x218 JUMPI PUSH1 0x20 SWAP1 PUSH1 0x7 SLOAD DUP2 MSTORE RETURN JUMPDEST SWAP1 PUSH1 0x1 DUP3 DUP2 SHR SWAP3 AND DUP1 ISZERO PUSH2 0x1083 JUMPI JUMPDEST PUSH1 0x20 DUP4 LT EQ PUSH2 0x106F JUMPI JUMP JUMPDEST PUSH4 0x4E487B71 PUSH1 0xE0 SHL PUSH0 MSTORE PUSH1 0x22 PUSH1 0x4 MSTORE PUSH1 0x24 PUSH0 REVERT JUMPDEST SWAP2 PUSH1 0x7F AND SWAP2 PUSH2 0x1064 JUMP JUMPDEST SWAP1 PUSH1 0x1F DUP1 NOT SWAP2 ADD AND DUP2 ADD SWAP1 DUP2 LT PUSH8 0xFFFFFFFFFFFFFFFF DUP3 GT OR PUSH2 0x10AF JUMPI PUSH1 0x40 MSTORE JUMP JUMPDEST PUSH4 0x4E487B71 PUSH1 0xE0 SHL PUSH0 MSTORE PUSH1 0x41 PUSH1 0x4 MSTORE PUSH1 0x24 PUSH0 REVERT JUMPDEST SWAP1 PUSH1 0x40 MLOAD SWAP2 DUP3 PUSH0 DUP3 SLOAD PUSH2 0x10D5 DUP2 PUSH2 0x1055 JUMP JUMPDEST SWAP1 DUP2 DUP5 MSTORE PUSH1 0x20 SWAP5 PUSH1 0x1 SWAP2 PUSH1 0x1 DUP2 AND SWAP1 DUP2 PUSH0 EQ PUSH2 0x1143 JUMPI POP PUSH1 0x1 EQ PUSH2 0x1105 JUMPI JUMPDEST POP POP POP PUSH2 0x1103 SWAP3 POP SUB DUP4 PUSH2 0x108D JUMP JUMPDEST JUMP JUMPDEST PUSH0 SWAP1 DUP2 MSTORE DUP6 DUP2 KECCAK256 SWAP6 SWAP4 POP SWAP2 SWAP1 JUMPDEST DUP2 DUP4 LT PUSH2 0x112B JUMPI POP POP PUSH2 0x1103 SWAP4 POP DUP3 ADD ADD PUSH0 DUP1 DUP1 PUSH2 0x10F4 JUMP JUMPDEST DUP6 SLOAD DUP9 DUP5 ADD DUP6 ADD MSTORE SWAP5 DUP6 ADD SWAP5 DUP8 SWAP5 POP SWAP2 DUP4 ADD SWAP2 PUSH2 0x1112 JUMP JUMPDEST SWAP3 POP POP POP PUSH2 0x1103 SWAP5 SWAP3 POP PUSH1 0xFF NOT AND DUP3 DUP5 ADD MSTORE ISZERO ISZERO PUSH1 0x5 SHL DUP3 ADD ADD PUSH0 DUP1 DUP1 PUSH2 0x10F4 JUMP JUMPDEST SWAP2 SWAP1 DUP3 MLOAD SWAP3 DUP4 DUP3 MSTORE PUSH0 JUMPDEST DUP5 DUP2 LT PUSH2 0x118F JUMPI POP POP DUP3 PUSH0 PUSH1 0x20 DUP1 SWAP5 SWAP6 DUP5 ADD ADD MSTORE PUSH1 0x1F DUP1 NOT SWAP2 ADD AND ADD ADD SWAP1 JUMP JUMPDEST PUSH1 0x20 DUP2 DUP4 ADD DUP2 ADD MLOAD DUP5 DUP4 ADD DUP3 ADD MSTORE ADD PUSH2 0x116F JUMP JUMPDEST ISZERO PUSH2 0x11AA JUMPI JUMP JUMPDEST PUSH1 0x40 MLOAD PUSH3 0x461BCD PUSH1 0xE5 SHL DUP2 MSTORE PUSH1 0x20 PUSH1 0x4 DUP3 ADD MSTORE PUSH1 0x10 PUSH1 0x24 DUP3 ADD MSTORE PUSH16 0x2CB7BA93B932903737BA1039BA30B333 PUSH1 0x81 SHL PUSH1 0x44 DUP3 ADD MSTORE PUSH1 0x64 SWAP1 REVERT JUMPDEST SWAP2 SWAP1 DUP3 ADD DUP1 SWAP3 GT PUSH2 0x11EF JUMPI JUMP JUMPDEST PUSH4 0x4E487B71 PUSH1 0xE0 SHL PUSH0 MSTORE PUSH1 0x11 PUSH1 0x4 MSTORE PUSH1 0x24 PUSH0 REVERT JUMPDEST ISZERO PUSH2 0x120A JUMPI JUMP JUMPDEST PUSH1 0x40 MLOAD PUSH3 0x461BCD PUSH1 0xE5 SHL DUP2 MSTORE PUSH1 0x20 PUSH1 0x4 DUP3 ADD MSTORE PUSH1 0x9 PUSH1 0x24 DUP3 ADD MSTORE PUSH9 0x2737BA1037BBB732B9 PUSH1 0xB9 SHL PUSH1 0x44 DUP3 ADD MSTORE PUSH1 0x64 SWAP1 REVERT JUMPDEST SWAP1 DUP2 PUSH1 0x20 SWAP2 SUB SLT PUSH2 0x218 JUMPI MLOAD DUP1 ISZERO ISZERO DUP2 SUB PUSH2 0x218 JUMPI SWAP1 JUMP JUMPDEST ISZERO PUSH2 0x125A JUMPI JUMP JUMPDEST PUSH1 0x40 MLOAD PUSH3 0x461BCD PUSH1 0xE5 SHL DUP2 MSTORE PUSH1 0x20 PUSH1 0x4 DUP3 ADD MSTORE PUSH1 0xE PUSH1 0x24 DUP3 ADD MSTORE PUSH14 0x105B1C9958591E481A9BDA5B9959 PUSH1 0x92 SHL PUSH1 0x44 DUP3 ADD MSTORE PUSH1 0x64 SWAP1 REVERT JUMPDEST ISZERO PUSH2 0x1297 JUMPI JUMP JUMPDEST PUSH1 0x64 PUSH1 0x40 MLOAD PUSH3 0x461BCD PUSH1 0xE5 SHL DUP2 MSTORE PUSH1 0x20 PUSH1 0x4 DUP3 ADD MSTORE PUSH1 0x4 PUSH1 0x24 DUP3 ADD MSTORE PUSH4 0x119D5B1B PUSH1 0xE2 SHL PUSH1 0x44 DUP3 ADD MSTORE REVERT JUMPDEST ISZERO PUSH2 0x12C9 JUMPI JUMP JUMPDEST PUSH1 0x40 MLOAD PUSH3 0x461BCD PUSH1 0xE5 SHL DUP2 MSTORE PUSH1 0x20 PUSH1 0x4 DUP3 ADD MSTORE PUSH1 0xF PUSH1 0x24 DUP3 ADD MSTORE PUSH15 0x151C985B9CD9995C8819985A5B1959 PUSH1 0x8A SHL PUSH1 0x44 DUP3 ADD MSTORE PUSH1 0x64 SWAP1 REVERT JUMPDEST PUSH0 NOT DUP2 EQ PUSH2 0x11EF JUMPI PUSH1 0x1 ADD SWAP1 JUMP JUMPDEST PUSH1 0x20 DUP1 DUP3 MSTORE PUSH0 SWAP2 PUSH0 SLOAD SWAP1 PUSH2 0x1321 DUP3 PUSH2 0x1055 JUMP JUMPDEST SWAP2 DUP3 PUSH1 0x20 DUP4 ADD MSTORE PUSH1 0x40 PUSH1 0x1 SWAP2 PUSH1 0x1 DUP2 AND SWAP1 DUP2 PUSH0 EQ PUSH2 0x13A6 JUMPI POP PUSH1 0x1 EQ PUSH2 0x134A JUMPI JUMPDEST POP POP POP POP POP SWAP1 JUMP JUMPDEST PUSH0 DUP1 DUP1 MSTORE SWAP5 SWAP7 SWAP6 POP SWAP2 SWAP3 SWAP2 PUSH32 0x290DECD9548B62A8D60345A988386FC84BA6BC95484008F6362F93160EF3E563 JUMPDEST DUP4 DUP7 LT PUSH2 0x1393 JUMPI POP POP POP POP PUSH1 0x40 SWAP3 SWAP4 POP ADD ADD PUSH0 DUP1 DUP1 DUP1 DUP1 PUSH2 0x1342 JUMP JUMPDEST DUP1 SLOAD DUP6 DUP8 ADD DUP4 ADD MSTORE SWAP5 DUP8 ADD SWAP5 DUP3 ADD PUSH2 0x1377 JUMP JUMPDEST SWAP4 SWAP6 POP POP POP POP PUSH1 0x40 SWAP4 POP PUSH1 0xFF NOT AND DUP4 DUP4 ADD MSTORE ISZERO ISZERO PUSH1 0x5 SHL ADD ADD PUSH0 DUP1 DUP1 DUP1 DUP1 PUSH2 0x1342 JUMP JUMPDEST MLOAD SWAP1 PUSH10 0xFFFFFFFFFFFFFFFFFFFF DUP3 AND DUP3 SUB PUSH2 0x218 JUMPI JUMP JUMPDEST PUSH1 0xF SLOAD PUSH1 0x40 MLOAD PUSH4 0x3FABE5A3 PUSH1 0xE2 SHL DUP2 MSTORE SWAP2 SWAP1 PUSH1 0xA0 SWAP1 DUP4 SWAP1 PUSH1 0x4 SWAP1 DUP3 SWAP1 PUSH1 0x1 PUSH1 0x1 PUSH1 0xA0 SHL SUB AND GAS STATICCALL SWAP2 DUP3 ISZERO PUSH2 0x14D6 JUMPI PUSH0 SWAP3 PUSH2 0x1487 JUMPI JUMPDEST POP PUSH0 DUP3 SGT ISZERO PUSH2 0x1452 JUMPI PUSH4 0x5F5E100 SWAP1 DUP2 DUP2 MUL SWAP2 DUP2 DUP4 DIV EQ SWAP1 ISZERO OR ISZERO PUSH2 0x11EF JUMPI DUP2 ISZERO PUSH2 0x143E JUMPI DIV SWAP1 JUMP JUMPDEST PUSH4 0x4E487B71 PUSH1 0xE0 SHL PUSH0 MSTORE PUSH1 0x12 PUSH1 0x4 MSTORE PUSH1 0x24 PUSH0 REVERT JUMPDEST PUSH1 0x40 MLOAD PUSH3 0x461BCD PUSH1 0xE5 SHL DUP2 MSTORE PUSH1 0x20 PUSH1 0x4 DUP3 ADD MSTORE PUSH1 0xD PUSH1 0x24 DUP3 ADD MSTORE PUSH13 0x496E76616C6964207072696365 PUSH1 0x98 SHL PUSH1 0x44 DUP3 ADD MSTORE PUSH1 0x64 SWAP1 REVERT JUMPDEST SWAP1 SWAP2 POP PUSH1 0xA0 DUP2 RETURNDATASIZE PUSH1 0xA0 GT PUSH2 0x14CE JUMPI JUMPDEST DUP2 PUSH2 0x14A3 PUSH1 0xA0 SWAP4 DUP4 PUSH2 0x108D JUMP JUMPDEST DUP2 ADD SUB SLT PUSH2 0x218 JUMPI PUSH2 0x14B4 DUP2 PUSH2 0x13C9 JUMP JUMPDEST POP PUSH2 0x14C6 PUSH1 0x80 PUSH1 0x20 DUP4 ADD MLOAD SWAP3 ADD PUSH2 0x13C9 JUMP JUMPDEST POP SWAP1 PUSH0 PUSH2 0x1415 JUMP JUMPDEST RETURNDATASIZE SWAP2 POP PUSH2 0x1496 JUMP JUMPDEST PUSH1 0x40 MLOAD RETURNDATASIZE PUSH0 DUP3 RETURNDATACOPY RETURNDATASIZE SWAP1 REVERT INVALID LOG2 PUSH5 0x6970667358 0x22 SLT KECCAK256 GT 0xD9 0xE3 0xBA DIV CALLDATASIZE PREVRANDAO 0xF9 0xAA PREVRANDAO 0xB7 DUP6 0x4B 0xCF CALLVALUE SUB PUSH13 0xE1841FC29830CDCC3E7CCDBB47 0x22 PUSH11 0x64736F6C63430008180033 "
				},
				"gasEstimates": {
					"creation": {
						"codeDepositCost": "1079800",
						"executionCost": "infinite",
						"totalCost": "infinite"
					},
					"external": {
						"addAttendee(address)": "57422",
						"addStaff(address)": "26875",
						"attendeeCount()": "2846",
						"cancelEvent()": "31481",
						"description()": "infinite",
						"endEvent()": "31266",
						"endsAt()": "2260",
						"ethUsdPriceFeed()": "2471",
						"eventCanceled()": "2358",
						"eventEnded()": "2880",
						"getAllTags()": "infinite",
						"getETHAmountForUSD(uint256)": "infinite",
						"isAttendee(address)": "2682",
						"isStaff(address)": "2924",
						"joinWithETH()": "infinite",
						"joinWithUSDC()": "infinite",
						"joinWithUSDT()": "infinite",
						"location()": "infinite",
						"maxAttendees()": "2537",
						"owner()": "2691",
						"removeAttendee(address)": "55843",
						"removeStaff(address)": "27133",
						"startsAt()": "2736",
						"tags(uint256)": "infinite",
						"ticketPriceUSD()": "2318",
						"title()": "infinite",
						"usdc()": "2449",
						"usdt()": "2405",
						"withdraw()": "infinite"
					}
				},
				"methodIdentifiers": {
					"addAttendee(address)": "10246254",
					"addStaff(address)": "522e4c8a",
					"attendeeCount()": "f1adda47",
					"cancelEvent()": "fb6c9537",
					"description()": "7284e416",
					"endEvent()": "86ec6177",
					"endsAt()": "0a09284a",
					"ethUsdPriceFeed()": "42f6fb29",
					"eventCanceled()": "148b597c",
					"eventEnded()": "f57e63e2",
					"getAllTags()": "7038f157",
					"getETHAmountForUSD(uint256)": "b8f34d9e",
					"isAttendee(address)": "6cad2590",
					"isStaff(address)": "cb510e97",
					"joinWithETH()": "ab42300d",
					"joinWithUSDC()": "99c5296e",
					"joinWithUSDT()": "74bdc4bf",
					"location()": "516f279e",
					"maxAttendees()": "5f3d7fa1",
					"owner()": "8da5cb5b",
					"removeAttendee(address)": "e55448fc",
					"removeStaff(address)": "c4522c92",
					"startsAt()": "af468682",
					"tags(uint256)": "20822abc",
					"ticketPriceUSD()": "1030c51e",
					"title()": "4a79d50c",
					"usdc()": "3e413bee",
					"usdt()": "2f48ab7d",
					"withdraw()": "3ccfd60b"
				}
			},
			"storageLayout": {
				"storage": [
					{
						"astId": 338,
						"contract": "contracts/FlintPaidPublicEvent.sol:PaidPublicEvent",
						"label": "title",
						"offset": 0,
						"slot": "0",
						"type": "t_string_storage"
					},
					{
						"astId": 340,
						"contract": "contracts/FlintPaidPublicEvent.sol:PaidPublicEvent",
						"label": "location",
						"offset": 0,
						"slot": "1",
						"type": "t_string_storage"
					},
					{
						"astId": 342,
						"contract": "contracts/FlintPaidPublicEvent.sol:PaidPublicEvent",
						"label": "description",
						"offset": 0,
						"slot": "2",
						"type": "t_string_storage"
					},
					{
						"astId": 345,
						"contract": "contracts/FlintPaidPublicEvent.sol:PaidPublicEvent",
						"label": "tags",
						"offset": 0,
						"slot": "3",
						"type": "t_array(t_string_storage)dyn_storage"
					},
					{
						"astId": 347,
						"contract": "contracts/FlintPaidPublicEvent.sol:PaidPublicEvent",
						"label": "maxAttendees",
						"offset": 0,
						"slot": "4",
						"type": "t_uint256"
					},
					{
						"astId": 349,
						"contract": "contracts/FlintPaidPublicEvent.sol:PaidPublicEvent",
						"label": "owner",
						"offset": 0,
						"slot": "5",
						"type": "t_address"
					},
					{
						"astId": 351,
						"contract": "contracts/FlintPaidPublicEvent.sol:PaidPublicEvent",
						"label": "startsAt",
						"offset": 0,
						"slot": "6",
						"type": "t_uint256"
					},
					{
						"astId": 353,
						"contract": "contracts/FlintPaidPublicEvent.sol:PaidPublicEvent",
						"label": "endsAt",
						"offset": 0,
						"slot": "7",
						"type": "t_uint256"
					},
					{
						"astId": 355,
						"contract": "contracts/FlintPaidPublicEvent.sol:PaidPublicEvent",
						"label": "ticketPriceUSD",
						"offset": 0,
						"slot": "8",
						"type": "t_uint256"
					},
					{
						"astId": 357,
						"contract": "contracts/FlintPaidPublicEvent.sol:PaidPublicEvent",
						"label": "attendeeCount",
						"offset": 0,
						"slot": "9",
						"type": "t_uint256"
					},
					{
						"astId": 360,
						"contract": "contracts/FlintPaidPublicEvent.sol:PaidPublicEvent",
						"label": "eventEnded",
						"offset": 0,
						"slot": "10",
						"type": "t_bool"
					},
					{
						"astId": 363,
						"contract": "contracts/FlintPaidPublicEvent.sol:PaidPublicEvent",
						"label": "eventCanceled",
						"offset": 1,
						"slot": "10",
						"type": "t_bool"
					},
					{
						"astId": 367,
						"contract": "contracts/FlintPaidPublicEvent.sol:PaidPublicEvent",
						"label": "isAttendee",
						"offset": 0,
						"slot": "11",
						"type": "t_mapping(t_address,t_bool)"
					},
					{
						"astId": 371,
						"contract": "contracts/FlintPaidPublicEvent.sol:PaidPublicEvent",
						"label": "isStaff",
						"offset": 0,
						"slot": "12",
						"type": "t_mapping(t_address,t_bool)"
					},
					{
						"astId": 421,
						"contract": "contracts/FlintPaidPublicEvent.sol:PaidPublicEvent",
						"label": "usdc",
						"offset": 0,
						"slot": "13",
						"type": "t_contract(IERC20)77"
					},
					{
						"astId": 424,
						"contract": "contracts/FlintPaidPublicEvent.sol:PaidPublicEvent",
						"label": "usdt",
						"offset": 0,
						"slot": "14",
						"type": "t_contract(IERC20)77"
					},
					{
						"astId": 427,
						"contract": "contracts/FlintPaidPublicEvent.sol:PaidPublicEvent",
						"label": "ethUsdPriceFeed",
						"offset": 0,
						"slot": "15",
						"type": "t_contract(MockV3Aggregator)1033"
					}
				],
				"types": {
					"t_address": {
						"encoding": "inplace",
						"label": "address",
						"numberOfBytes": "20"
					},
					"t_array(t_string_storage)dyn_storage": {
						"base": "t_string_storage",
						"encoding": "dynamic_array",
						"label": "string[]",
						"numberOfBytes": "32"
					},
					"t_bool": {
						"encoding": "inplace",
						"label": "bool",
						"numberOfBytes": "1"
					},
					"t_contract(IERC20)77": {
						"encoding": "inplace",
						"label": "contract IERC20",
						"numberOfBytes": "20"
					},
					"t_contract(MockV3Aggregator)1033": {
						"encoding": "inplace",
						"label": "contract MockV3Aggregator",
						"numberOfBytes": "20"
					},
					"t_mapping(t_address,t_bool)": {
						"encoding": "mapping",
						"key": "t_address",
						"label": "mapping(address => bool)",
						"numberOfBytes": "32",
						"value": "t_bool"
					},
					"t_string_storage": {
						"encoding": "bytes",
						"label": "string",
						"numberOfBytes": "32"
					},
					"t_uint256": {
						"encoding": "inplace",
						"label": "uint256",
						"numberOfBytes": "32"
					}
				}
			},
			"userdoc": {
				"kind": "user",
				"methods": {},
				"version": 1
			}
		}
	}
}