{
	"contracts/FlintEventHub.sol": {
		"EventHub": {
			"abi": [
				{
					"anonymous": false,
					"inputs": [
						{
							"indexed": true,
							"internalType": "uint256",
							"name": "id",
							"type": "uint256"
						},
						{
							"indexed": true,
							"internalType": "address",
							"name": "eventAddress",
							"type": "address"
						},
						{
							"indexed": true,
							"internalType": "address",
							"name": "owner",
							"type": "address"
						},
						{
							"indexed": false,
							"internalType": "string",
							"name": "title",
							"type": "string"
						}
					],
					"name": "EventRegistered",
					"type": "event"
				},
				{
					"inputs": [
						{
							"internalType": "uint256",
							"name": "",
							"type": "uint256"
						}
					],
					"name": "events",
					"outputs": [
						{
							"internalType": "uint256",
							"name": "id",
							"type": "uint256"
						},
						{
							"internalType": "address",
							"name": "eventAddress",
							"type": "address"
						},
						{
							"internalType": "address",
							"name": "owner",
							"type": "address"
						},
						{
							"internalType": "string",
							"name": "title",
							"type": "string"
						},
						{
							"internalType": "uint256",
							"name": "timestamp",
							"type": "uint256"
						}
					],
					"stateMutability": "view",
					"type": "function"
				},
				{
					"inputs": [],
					"name": "getAllEvents",
					"outputs": [
						{
							"components": [
								{
									"internalType": "uint256",
									"name": "id",
									"type": "uint256"
								},
								{
									"internalType": "address",
									"name": "eventAddress",
									"type": "address"
								},
								{
									"internalType": "address",
									"name": "owner",
									"type": "address"
								},
								{
									"internalType": "string",
									"name": "title",
									"type": "string"
								},
								{
									"internalType": "string[]",
									"name": "tags",
									"type": "string[]"
								},
								{
									"internalType": "uint256",
									"name": "timestamp",
									"type": "uint256"
								}
							],
							"internalType": "struct EventHub.EventInfo[]",
							"name": "",
							"type": "tuple[]"
						}
					],
					"stateMutability": "view",
					"type": "function"
				},
				{
					"inputs": [
						{
							"internalType": "uint256",
							"name": "_id",
							"type": "uint256"
						}
					],
					"name": "getEvent",
					"outputs": [
						{
							"components": [
								{
									"internalType": "uint256",
									"name": "id",
									"type": "uint256"
								},
								{
									"internalType": "address",
									"name": "eventAddress",
									"type": "address"
								},
								{
									"internalType": "address",
									"name": "owner",
									"type": "address"
								},
								{
									"internalType": "string",
									"name": "title",
									"type": "string"
								},
								{
									"internalType": "string[]",
									"name": "tags",
									"type": "string[]"
								},
								{
									"internalType": "uint256",
									"name": "timestamp",
									"type": "uint256"
								}
							],
							"internalType": "struct EventHub.EventInfo",
							"name": "",
							"type": "tuple"
						}
					],
					"stateMutability": "view",
					"type": "function"
				},
				{
					"inputs": [
						{
							"internalType": "string",
							"name": "_tag",
							"type": "string"
						}
					],
					"name": "getEventsByTag",
					"outputs": [
						{
							"components": [
								{
									"internalType": "uint256",
									"name": "id",
									"type": "uint256"
								},
								{
									"internalType": "address",
									"name": "eventAddress",
									"type": "address"
								},
								{
									"internalType": "address",
									"name": "owner",
									"type": "address"
								},
								{
									"internalType": "string",
									"name": "title",
									"type": "string"
								},
								{
									"internalType": "string[]",
									"name": "tags",
									"type": "string[]"
								},
								{
									"internalType": "uint256",
									"name": "timestamp",
									"type": "uint256"
								}
							],
							"internalType": "struct EventHub.EventInfo[]",
							"name": "",
							"type": "tuple[]"
						}
					],
					"stateMutability": "view",
					"type": "function"
				},
				{
					"inputs": [],
					"name": "nextEventId",
					"outputs": [
						{
							"internalType": "uint256",
							"name": "",
							"type": "uint256"
						}
					],
					"stateMutability": "view",
					"type": "function"
				},
				{
					"inputs": [
						{
							"internalType": "address",
							"name": "_eventAddress",
							"type": "address"
						},
						{
							"internalType": "address",
							"name": "_owner",
							"type": "address"
						},
						{
							"internalType": "string",
							"name": "_title",
							"type": "string"
						},
						{
							"internalType": "string[]",
							"name": "_tags",
							"type": "string[]"
						}
					],
					"name": "registerEvent",
					"outputs": [],
					"stateMutability": "nonpayable",
					"type": "function"
				}
			],
			"devdoc": {
				"kind": "dev",
				"methods": {},
				"version": 1
			},
			"evm": {
				"assembly": "    /* \"contracts/FlintEventHub.sol\":61:2071  contract EventHub {... */\n  0x80\n  dup1\n  0x40\n  mstore\n  jumpi(tag_1, callvalue)\n  dataSize(sub_0)\n  swap1\n  dup2\n  dataOffset(sub_0)\n  dup3\n  codecopy\n  return\ntag_1:\n  0x00\n  dup1\n  revert\nstop\n\nsub_0: assembly {\n        /* \"contracts/FlintEventHub.sol\":61:2071  contract EventHub {... */\n      0x40\n      0x80\n      dup2\n      mstore\n      0x04\n      swap1\n      dup2\n      calldatasize\n      lt\n      iszero\n      tag_16\n      jumpi\n      0x00\n      dup1\n      revert\n    tag_16:\n      shr(0xe0, calldataload(0x00))\n      dup1\n      0x0b791430\n      eq\n      tag_18\n      jumpi\n      dup1\n      0x6d1884e0\n      eq\n      tag_20\n      jumpi\n      dup1\n      0x9f9d903a\n      eq\n      tag_22\n      jumpi\n      dup1\n      0xa5e807a6\n      eq\n      tag_24\n      jumpi\n      dup1\n      0xb50d9184\n      eq\n      tag_26\n      jumpi\n      0xc27a500d\n      eq\n      tag_28\n      jumpi\n      0x00\n      dup1\n      revert\n    tag_28:\n      jumpi(tag_32, callvalue)\n      jumpi(tag_32, slt(add(not(0x03), calldatasize), 0x00))\n      sload(0x00)\n        /* \"contracts/FlintEventHub.sol\":1914:1942  new EventInfo[](nextEventId) */\n      tag_34\n      dup2\n      tag_12\n      jump\t// in\n    tag_34:\n        /* \"contracts/FlintEventHub.sol\":1958:1971  uint256 i = 0 */\n      swap3\n        /* \"contracts/FlintEventHub.sol\":61:2071  contract EventHub {... */\n      0x00\n        /* \"contracts/FlintEventHub.sol\":1973:1988  i < nextEventId */\n    tag_35:\n      dup3\n      dup2\n      lt\n      tag_36\n      jumpi\n        /* \"contracts/FlintEventHub.sol\":61:2071  contract EventHub {... */\n      dup4\n      mload\n      dup1\n      tag_38\n      dup8\n      dup3\n      tag_9\n      jump\t// in\n    tag_38:\n      sub\n      swap1\n      return\n        /* \"contracts/FlintEventHub.sol\":1990:1993  i++ */\n    tag_36:\n        /* \"contracts/FlintEventHub.sol\":61:2071  contract EventHub {... */\n      dup1\n      0x00\n      mstore\n      0x01\n      0x20\n      dup2\n      dup2\n      mstore\n      dup6\n      0x00\n      keccak256\n      swap1\n      dup7\n      mload\n      swap3\n      tag_39\n      dup5\n      tag_2\n      jump\t// in\n    tag_39:\n      dup3\n      sload\n      dup5\n      mstore\n      dup1\n      dup4\n      add\n      sload\n      sub(shl(0xa0, 0x01), 0x01)\n      swap1\n      dup2\n      and\n      dup4\n      dup7\n      add\n      mstore\n      0x02\n      dup5\n      add\n      sload\n      and\n      dup9\n      dup6\n      add\n      mstore\n      tag_40\n      0x03\n      dup5\n      add\n      tag_4\n      jump\t// in\n    tag_40:\n      0x60\n      dup6\n      add\n      mstore\n      dup6\n      dup4\n      add\n      dup1\n      sload\n      swap1\n      tag_41\n      dup3\n      tag_10\n      jump\t// in\n    tag_41:\n      swap4\n      tag_42\n      dup12\n      mload\n      swap6\n      dup7\n      tag_3\n      jump\t// in\n    tag_42:\n      dup3\n      dup6\n      mstore\n      0x00\n      swap2\n      dup3\n      mstore\n      dup1\n      dup3\n      keccak256\n      swap2\n      dup2\n      dup7\n      add\n    tag_43:\n      dup5\n      dup3\n      lt\n      tag_44\n      jumpi\n      pop\n      pop\n      pop\n      pop\n      pop\n      pop\n      dup3\n      swap2\n      0x05\n      swap2\n      0x80\n      0x01\n      swap7\n      swap6\n      add\n      mstore\n      add\n      sload\n      0xa0\n      dup3\n      add\n      mstore\n        /* \"contracts/FlintEventHub.sol\":2010:2028  all[i] = events[i] */\n      tag_46\n      dup3\n      dup9\n      tag_13\n      jump\t// in\n    tag_46:\n      mstore\n      tag_47\n      dup2\n      dup8\n      tag_13\n      jump\t// in\n    tag_47:\n      pop\n        /* \"contracts/FlintEventHub.sol\":61:2071  contract EventHub {... */\n      add\n        /* \"contracts/FlintEventHub.sol\":1958:1971  uint256 i = 0 */\n      jump(tag_35)\n        /* \"contracts/FlintEventHub.sol\":61:2071  contract EventHub {... */\n    tag_44:\n      dup6\n      dup4\n      dup2\n      swap3\n      tag_48\n      dup8\n      tag_4\n      jump\t// in\n    tag_48:\n      dup2\n      mstore\n      add\n      swap5\n      add\n      swap2\n      add\n      swap1\n      swap3\n      jump(tag_43)\n    tag_32:\n      0x00\n      dup1\n      revert\n    tag_26:\n      pop\n      swap1\n      jumpi(tag_32, callvalue)\n      jumpi(tag_32, slt(add(not(0x03), calldatasize), 0x80))\n      sub(shl(0xa0, 0x01), 0x01)\n      dup2\n      calldataload\n      dup2\n      dup2\n      and\n      swap3\n      swap1\n      dup4\n      swap1\n      sub\n      tag_32\n      jumpi\n      0x24\n      swap2\n      dup3\n      calldataload\n      swap1\n      dup2\n      and\n      dup1\n      swap2\n      sub\n      tag_32\n      jumpi\n      0xffffffffffffffff\n      swap4\n      calldataload(0x44)\n      dup6\n      dup2\n      gt\n      tag_32\n      jumpi\n      tag_59\n      swap1\n      calldatasize\n      swap1\n      dup6\n      add\n      tag_8\n      jump\t// in\n    tag_59:\n      swap6\n      calldataload(0x64)\n      swap7\n      dup7\n      dup9\n      gt\n      tag_32\n      jumpi\n      calldatasize\n      0x23\n      dup10\n      add\n      slt\n      iszero\n      tag_32\n      jumpi\n      dup8\n      dup6\n      add\n      calldataload\n      swap8\n      tag_64\n      dup10\n      tag_10\n      jump\t// in\n    tag_64:\n      swap9\n      tag_65\n      dup5\n      mload\n      swap11\n      dup12\n      tag_3\n      jump\t// in\n    tag_65:\n      dup1\n      dup11\n      mstore\n      0x20\n      swap9\n      dup9\n      dup11\n      dup13\n      add\n      swap3\n      0x05\n      shl\n      dup5\n      add\n      add\n      swap3\n      calldatasize\n      dup5\n      gt\n      tag_32\n      jumpi\n      dup10\n      dup2\n      add\n      swap3\n    tag_68:\n      dup5\n      dup5\n      lt\n      tag_69\n      jumpi\n        /* \"contracts/FlintEventHub.sol\":748:775  _eventAddress != address(0) */\n      pop\n      pop\n      pop\n      pop\n      pop\n      dup3\n      iszero\n        /* \"contracts/FlintEventHub.sol\":61:2071  contract EventHub {... */\n      tag_71\n      jumpi\n      sload(0x00)\n      dup1\n      0x00\n      mstore\n        /* \"contracts/FlintEventHub.sol\":839:845  events */\n      0x01\n        /* \"contracts/FlintEventHub.sol\":61:2071  contract EventHub {... */\n      dup1\n      swap10\n      dup2\n      dup11\n      mstore\n      dup5\n      0x00\n      keccak256\n      swap3\n      dup4\n      sstore\n        /* \"contracts/FlintEventHub.sol\":901:918  info.eventAddress */\n      dup2\n      dup4\n      add\n        /* \"contracts/FlintEventHub.sol\":61:2071  contract EventHub {... */\n      swap1\n      shl(0xa0, 0xffffffffffffffffffffffff)\n      swap2\n      dup8\n      dup4\n      dup3\n      sload\n      and\n      or\n      swap1\n      sstore\n        /* \"contracts/FlintEventHub.sol\":945:955  info.owner */\n      0x02\n      swap2\n      dup9\n      0x02\n      dup7\n      add\n        /* \"contracts/FlintEventHub.sol\":61:2071  contract EventHub {... */\n      swap2\n      dup3\n      sload\n      and\n      or\n      swap1\n      sstore\n        /* \"contracts/FlintEventHub.sol\":975:985  info.title */\n      0x03\n      swap4\n        /* \"contracts/FlintEventHub.sol\":61:2071  contract EventHub {... */\n      tag_73\n        /* \"contracts/FlintEventHub.sol\":975:985  info.title */\n      dup7\n      0x03\n      dup4\n      add\n        /* \"contracts/FlintEventHub.sol\":61:2071  contract EventHub {... */\n      tag_14\n      jump\t// in\n    tag_73:\n        /* \"contracts/FlintEventHub.sol\":1022:1037  block.timestamp */\n      timestamp\n        /* \"contracts/FlintEventHub.sol\":61:2071  contract EventHub {... */\n      0x05\n        /* \"contracts/FlintEventHub.sol\":1005:1019  info.timestamp */\n      dup3\n      add\n        /* \"contracts/FlintEventHub.sol\":61:2071  contract EventHub {... */\n      sstore\n        /* \"contracts/FlintEventHub.sol\":1055:1068  uint256 i = 0 */\n      dup10\n        /* \"contracts/FlintEventHub.sol\":61:2071  contract EventHub {... */\n      0x00\n        /* \"contracts/FlintEventHub.sol\":1108:1117  info.tags */\n      swap2\n      add\n        /* \"contracts/FlintEventHub.sol\":1050:1198  for (uint256 i = 0; i < _tags.length; i++) {... */\n      swap4\n        /* \"contracts/FlintEventHub.sol\":839:845  events */\n    tag_74:\n      tag_75\n      jumpi\n        /* \"contracts/FlintEventHub.sol\":1050:1198  for (uint256 i = 0; i < _tags.length; i++) {... */\n    tag_76:\n        /* \"contracts/FlintEventHub.sol\":61:2071  contract EventHub {... */\n      pop\n      pop\n      pop\n      pop\n      pop\n        /* \"contracts/FlintEventHub.sol\":1215:1274  EventRegistered(nextEventId, _eventAddress, _owner, _title) */\n      0xe91d63c801a439b4f71e0c8a8ad2b529b48e22db4383e976e2c0e4615628e404\n        /* \"contracts/FlintEventHub.sol\":61:2071  contract EventHub {... */\n      swap1\n      tag_77\n      swap8\n      sload(0x00)\n      swap9\n      dup10\n      swap5\n      mload\n      swap3\n      dup3\n      dup5\n      swap4\n      dup5\n      mstore\n      dup4\n      add\n      swap1\n      tag_6\n      jump\t// in\n    tag_77:\n        /* \"contracts/FlintEventHub.sol\":1215:1274  EventRegistered(nextEventId, _eventAddress, _owner, _title) */\n      sub\n      swap1\n      log4\n      not(0x00)\n        /* \"contracts/FlintEventHub.sol\":61:2071  contract EventHub {... */\n      dup4\n      eq\n      tag_78\n      jumpi\n      pop\n      pop\n      add\n      0x00\n      sstore\n      stop\n    tag_78:\n      0x11\n      swap1\n      mstore(0x00, shl(0xe0, 0x4e487b71))\n      mstore\n      0x00\n      revert\n        /* \"contracts/FlintEventHub.sol\":1088:1091  i++ */\n    tag_75:\n        /* \"contracts/FlintEventHub.sol\":61:2071  contract EventHub {... */\n      dup2\n      mload\n        /* \"contracts/FlintEventHub.sol\":1070:1086  i < _tags.length */\n      dup2\n      lt\n      iszero\n      tag_80\n      jumpi\n        /* \"contracts/FlintEventHub.sol\":1123:1131  _tags[i] */\n      tag_82\n      dup2\n      dup4\n      tag_13\n      jump\t// in\n    tag_82:\n      mload\n        /* \"contracts/FlintEventHub.sol\":61:2071  contract EventHub {... */\n      dup5\n      sload\n      swap1\n      0x010000000000000000\n      swap2\n      dup3\n      dup2\n      lt\n      iszero\n      tag_91\n      jumpi\n      dup16\n      swap1\n      tag_85\n      swap2\n      dup2\n      add\n      dup9\n      sstore\n      dup8\n      tag_15\n      jump\t// in\n    tag_85:\n      tag_86\n      jumpi\n      swap1\n      tag_88\n      swap2\n      tag_14\n      jump\t// in\n    tag_88:\n      tag_89\n        /* \"contracts/FlintEventHub.sol\":1159:1167  _tags[i] */\n      dup14\n      tag_90\n      dup5\n      dup7\n      tag_13\n      jump\t// in\n    tag_90:\n      mload\n        /* \"contracts/FlintEventHub.sol\":61:2071  contract EventHub {... */\n      dup2\n      dup12\n      mload\n      swap4\n      dup3\n      dup6\n      dup1\n      swap5\n      mload\n      swap4\n      dup5\n      swap3\n      add\n      tag_5\n      jump\t// in\n    tag_89:\n      dup2\n      add\n      dup8\n      dup2\n      mstore\n      sub\n      add\n      swap1\n      keccak256\n      swap1\n      sload(0x00)\n      swap2\n      dup1\n      sload\n      swap2\n      dup3\n      lt\n      iszero\n      tag_91\n      jumpi\n      swap2\n      dup16\n      swap8\n      swap7\n      swap6\n      swap5\n      swap4\n      swap2\n      dup1\n      dup10\n      swap5\n      dup6\n      tag_93\n      swap4\n      add\n      dup2\n      sstore\n      tag_15\n      jump\t// in\n    tag_93:\n      dup2\n      swap3\n      swap2\n      sload\n      swap1\n      dup10\n      shl\n      swap2\n      dup3\n      shl\n      swap2\n      not(0x00)\n      swap1\n      shl\n      not\n      and\n      or\n      swap1\n      sstore\n      add\n        /* \"contracts/FlintEventHub.sol\":1055:1068  uint256 i = 0 */\n      swap1\n      swap2\n      swap3\n      swap4\n      swap5\n      jump(tag_74)\n        /* \"contracts/FlintEventHub.sol\":61:2071  contract EventHub {... */\n    tag_91:\n      dup14\n      0x41\n      dup15\n      mstore(0x00, shl(0xe0, 0x4e487b71))\n      mstore\n      0x00\n      revert\n    tag_86:\n      dup14\n      0x00\n      dup15\n      shl(0xe0, 0x4e487b71)\n      dup3\n      mstore\n      mstore\n      0x00\n      revert\n        /* \"contracts/FlintEventHub.sol\":1070:1086  i < _tags.length */\n    tag_80:\n      jump(tag_76)\n        /* \"contracts/FlintEventHub.sol\":61:2071  contract EventHub {... */\n    tag_71:\n      dup2\n      mload\n      shl(0xe5, 0x461bcd)\n      dup2\n      mstore\n      dup1\n      dup7\n      add\n      dup9\n      swap1\n      mstore\n      0x15\n      dup2\n      dup9\n      add\n      mstore\n      shl(0x58, 0x496e76616c6964206576656e742061646472657373)\n      0x44\n      dup3\n      add\n      mstore\n      0x64\n      swap1\n      revert\n    tag_69:\n      dup4\n      calldataload\n      dup4\n      dup2\n      gt\n      tag_32\n      jumpi\n      dup13\n      swap2\n      tag_96\n      dup4\n      swap3\n      dup15\n      calldatasize\n      swap2\n      dup8\n      add\n      add\n      tag_8\n      jump\t// in\n    tag_96:\n      dup2\n      mstore\n      add\n      swap4\n      add\n      swap3\n      jump(tag_68)\n    tag_24:\n      pop\n      jumpi(tag_32, callvalue)\n      0x20\n      swap2\n      dup3\n      add(calldatasize, not(0x03))\n      slt\n      tag_32\n      jumpi\n      dup1\n      calldataload\n      0xffffffffffffffff\n      dup2\n      gt\n      tag_32\n      jumpi\n      tag_103\n      swap1\n      calldatasize\n      swap1\n      dup4\n      add\n      tag_8\n      jump\t// in\n    tag_103:\n      swap1\n      dup4\n      tag_104\n      dup5\n      mload\n      swap4\n      dup5\n      dup2\n      mload\n      swap4\n      dup5\n      swap3\n      add\n      tag_5\n      jump\t// in\n    tag_104:\n      dup3\n      add\n        /* \"contracts/FlintEventHub.sol\":1584:1595  eventsByTag */\n      swap2\n      dup5\n      dup2\n      0x02\n        /* \"contracts/FlintEventHub.sol\":61:2071  contract EventHub {... */\n      swap5\n        /* \"contracts/FlintEventHub.sol\":1584:1595  eventsByTag */\n      0x02\n        /* \"contracts/FlintEventHub.sol\":61:2071  contract EventHub {... */\n      dup2\n      mstore\n      sub\n      add\n      swap1\n      keccak256\n      swap3\n      dup1\n      mload\n      dup1\n      dup6\n      dup8\n      dup3\n      swap8\n      sload\n      swap4\n      dup5\n      dup2\n      mstore\n      add\n      swap1\n      0x00\n      mstore\n      dup8\n      0x00\n      keccak256\n      swap3\n      0x00\n    tag_105:\n      dup10\n      dup3\n      dup3\n      lt\n      tag_106\n      jumpi\n      pop\n      pop\n      pop\n      tag_108\n      swap3\n      pop\n      sub\n      dup6\n      tag_3\n      jump\t// in\n    tag_108:\n        /* \"contracts/FlintEventHub.sol\":1640:1667  new EventInfo[](ids.length) */\n      tag_109\n        /* \"contracts/FlintEventHub.sol\":61:2071  contract EventHub {... */\n      dup5\n      mload\n        /* \"contracts/FlintEventHub.sol\":1640:1667  new EventInfo[](ids.length) */\n      tag_12\n      jump\t// in\n    tag_109:\n        /* \"contracts/FlintEventHub.sol\":1683:1696  uint256 i = 0 */\n      swap5\n        /* \"contracts/FlintEventHub.sol\":61:2071  contract EventHub {... */\n      0x00\n        /* \"contracts/FlintEventHub.sol\":1714:1717  i++ */\n    tag_110:\n        /* \"contracts/FlintEventHub.sol\":61:2071  contract EventHub {... */\n      dup6\n      mload\n        /* \"contracts/FlintEventHub.sol\":1698:1712  i < ids.length */\n      dup2\n      lt\n      iszero\n      tag_111\n      jumpi\n        /* \"contracts/FlintEventHub.sol\":1753:1759  ids[i] */\n      tag_113\n      dup2\n      dup8\n      tag_13\n      jump\t// in\n    tag_113:\n        /* \"contracts/FlintEventHub.sol\":61:2071  contract EventHub {... */\n      mload\n      0x00\n      mstore\n      0x01\n      dup1\n      dup4\n      mstore\n      dup4\n      0x00\n      keccak256\n      dup5\n      mload\n      swap2\n      tag_114\n      dup4\n      tag_2\n      jump\t// in\n    tag_114:\n      dup2\n      sload\n      dup4\n      mstore\n      dup1\n      dup3\n      add\n      sload\n      sub(shl(0xa0, 0x01), 0x01)\n      swap1\n      dup2\n      and\n      dup7\n      dup6\n      add\n      mstore\n      dup9\n      dup4\n      add\n      sload\n      and\n      dup7\n      dup5\n      add\n      mstore\n      tag_115\n      0x03\n      dup4\n      add\n      tag_4\n      jump\t// in\n    tag_115:\n      0x60\n      dup5\n      add\n      mstore\n      dup7\n      dup3\n      add\n      swap1\n      dup2\n      sload\n      tag_116\n      dup2\n      tag_10\n      jump\t// in\n    tag_116:\n      swap3\n      tag_117\n      dup10\n      mload\n      swap5\n      dup6\n      tag_3\n      jump\t// in\n    tag_117:\n      dup2\n      dup5\n      mstore\n      0x00\n      swap1\n      dup2\n      mstore\n      dup8\n      dup2\n      keccak256\n      swap1\n      dup9\n      dup1\n      dup7\n      add\n    tag_118:\n      dup5\n      dup4\n      lt\n      tag_119\n      jumpi\n      pop\n      pop\n      pop\n      pop\n      pop\n      pop\n      dup3\n      swap2\n      0x05\n      swap2\n      0x80\n      0x01\n      swap7\n      swap6\n      add\n      mstore\n      add\n      sload\n      0xa0\n      dup3\n      add\n      mstore\n        /* \"contracts/FlintEventHub.sol\":1734:1760  result[i] = events[ids[i]] */\n      tag_121\n      dup3\n      dup11\n      tag_13\n      jump\t// in\n    tag_121:\n      mstore\n      tag_122\n      dup2\n      dup10\n      tag_13\n      jump\t// in\n    tag_122:\n      pop\n        /* \"contracts/FlintEventHub.sol\":61:2071  contract EventHub {... */\n      add\n        /* \"contracts/FlintEventHub.sol\":1683:1696  uint256 i = 0 */\n      jump(tag_110)\n        /* \"contracts/FlintEventHub.sol\":61:2071  contract EventHub {... */\n    tag_119:\n      dup6\n      swap2\n      dup3\n      swap2\n      tag_123\n      dup7\n      tag_4\n      jump\t// in\n    tag_123:\n      dup2\n      mstore\n      add\n      swap4\n      add\n      swap2\n      add\n      swap1\n      swap2\n      dup10\n      swap1\n      jump(tag_118)\n        /* \"contracts/FlintEventHub.sol\":1698:1712  i < ids.length */\n    tag_111:\n        /* \"contracts/FlintEventHub.sol\":61:2071  contract EventHub {... */\n      dup3\n      mload\n      dup1\n      tag_38\n        /* \"contracts/FlintEventHub.sol\":1698:1712  i < ids.length */\n      dup10\n        /* \"contracts/FlintEventHub.sol\":61:2071  contract EventHub {... */\n      dup3\n      tag_9\n      jump\t// in\n    tag_106:\n      dup6\n      sload\n      dup5\n      mstore\n      0x01\n      swap6\n      dup7\n      add\n      swap6\n      dup11\n      swap6\n      pop\n      swap4\n      add\n      swap3\n      add\n      jump(tag_105)\n    tag_22:\n      pop\n      jumpi(tag_32, callvalue)\n      jumpi(tag_32, slt(add(not(0x03), calldatasize), 0x00))\n      0x20\n      swap1\n      sload(0x00)\n      swap1\n      mload\n      swap1\n      dup2\n      mstore\n      return\n    tag_20:\n      pop\n      jumpi(tag_32, callvalue)\n      0x20\n      swap1\n      dup2\n      add(calldatasize, not(0x03))\n      slt\n      tag_32\n      jumpi\n      tag_133\n      tag_11\n      jump\t// in\n    tag_133:\n      pop\n      dup3\n      calldataload\n      0x00\n      mstore\n      0x01\n      dup1\n      dup4\n      mstore\n      dup2\n      0x00\n      keccak256\n      swap1\n      dup3\n      mload\n      swap5\n      tag_134\n      dup7\n      tag_2\n      jump\t// in\n    tag_134:\n      dup3\n      sload\n      dup7\n      mstore\n      0x01\n      dup4\n      add\n      sload\n      sub(shl(0xa0, 0x01), 0x01)\n      swap1\n      dup2\n      and\n      dup7\n      dup9\n      add\n      mstore\n      0x02\n      dup5\n      add\n      sload\n      and\n      dup5\n      dup8\n      add\n      mstore\n      tag_135\n      0x03\n      dup5\n      add\n      tag_4\n      jump\t// in\n    tag_135:\n      0x60\n      dup8\n      add\n      mstore\n      dup3\n      add\n      swap1\n      dup2\n      sload\n      tag_136\n      dup2\n      tag_10\n      jump\t// in\n    tag_136:\n      swap3\n      tag_137\n      dup7\n      mload\n      swap5\n      dup6\n      tag_3\n      jump\t// in\n    tag_137:\n      dup2\n      dup5\n      mstore\n      0x00\n      swap1\n      dup2\n      mstore\n      dup7\n      dup2\n      keccak256\n      dup8\n      dup1\n      dup7\n      add\n    tag_138:\n      dup5\n      dup5\n      lt\n      tag_139\n      jumpi\n      0x80\n      dup12\n      add\n      dup8\n      swap1\n      mstore\n      0x05\n      dup9\n      add\n      sload\n      0xa0\n      dup13\n      add\n      mstore\n      dup9\n      mload\n      dup3\n      dup2\n      mstore\n      dup1\n      tag_38\n      dup2\n      dup6\n      add\n      dup15\n      tag_7\n      jump\t// in\n    tag_139:\n      dup6\n      swap2\n      dup3\n      swap2\n      tag_142\n      dup6\n      tag_4\n      jump\t// in\n    tag_142:\n      dup2\n      mstore\n      add\n      swap3\n      add\n      swap3\n      add\n      swap2\n      swap1\n      dup9\n      swap1\n      jump(tag_138)\n    tag_18:\n      pop\n      swap1\n      jumpi(tag_32, callvalue)\n      jumpi(tag_32, slt(add(not(0x03), calldatasize), 0x20))\n      calldataload\n      0x00\n      mstore\n      mstore(0x20, 0x01)\n      dup1\n      0x00\n      keccak256\n      swap1\n      dup2\n      sload\n      swap1\n      tag_147\n      0x01\n      dup1\n      0xa0\n      shl\n      sub\n        /* \"contracts/FlintEventHub.sol\":303:346  mapping(uint256 => EventInfo) public events */\n      swap4\n      dup5\n        /* \"contracts/FlintEventHub.sol\":61:2071  contract EventHub {... */\n      0x01\n        /* \"contracts/FlintEventHub.sol\":303:346  mapping(uint256 => EventInfo) public events */\n      dup3\n      add\n        /* \"contracts/FlintEventHub.sol\":61:2071  contract EventHub {... */\n      sload\n      and\n        /* \"contracts/FlintEventHub.sol\":303:346  mapping(uint256 => EventInfo) public events */\n      swap5\n      0x02\n      dup3\n      add\n        /* \"contracts/FlintEventHub.sol\":61:2071  contract EventHub {... */\n      sload\n      and\n        /* \"contracts/FlintEventHub.sol\":303:346  mapping(uint256 => EventInfo) public events */\n      0x05\n      tag_148\n      0x03\n      dup5\n      add\n      tag_4\n      jump\t// in\n    tag_148:\n      swap3\n      add\n        /* \"contracts/FlintEventHub.sol\":61:2071  contract EventHub {... */\n      sload\n      swap4\n      dup1\n      mload\n      swap7\n      dup8\n      swap7\n      dup8\n      mstore\n      0x20\n      dup8\n      add\n      mstore\n      dup6\n      add\n      mstore\n      0xa0\n      0x60\n      dup6\n      add\n      mstore\n      0xa0\n      dup5\n      add\n      swap1\n      tag_6\n      jump\t// in\n    tag_147:\n      swap1\n      0x80\n      dup4\n      add\n      mstore\n      sub\n      swap1\n      return\n    tag_1:\n      swap1\n      0x01\n      dup3\n      dup2\n      shr\n      swap3\n      and\n      dup1\n      iszero\n      tag_149\n      jumpi\n    tag_150:\n      0x20\n      dup4\n      lt\n      eq\n      tag_151\n      jumpi\n      jump\t// out\n    tag_151:\n      mstore(0x00, shl(0xe0, 0x4e487b71))\n      mstore(0x04, 0x22)\n      revert(0x00, 0x24)\n    tag_149:\n      swap2\n      0x7f\n      and\n      swap2\n      jump(tag_150)\n    tag_2:\n      0xc0\n      dup2\n      add\n      swap1\n      dup2\n      lt\n      0xffffffffffffffff\n      dup3\n      gt\n      or\n      tag_153\n      jumpi\n      0x40\n      mstore\n      jump\t// out\n    tag_153:\n      mstore(0x00, shl(0xe0, 0x4e487b71))\n      mstore(0x04, 0x41)\n      revert(0x00, 0x24)\n    tag_3:\n      swap1\n      0x1f\n      dup1\n      not\n      swap2\n      add\n      and\n      dup2\n      add\n      swap1\n      dup2\n      lt\n      0xffffffffffffffff\n      dup3\n      gt\n      or\n      tag_153\n      jumpi\n      0x40\n      mstore\n      jump\t// out\n    tag_4:\n      swap1\n      mload(0x40)\n      swap2\n      dup3\n      0x00\n      dup3\n      sload\n      tag_157\n      dup2\n      tag_1\n      jump\t// in\n    tag_157:\n      swap1\n      dup2\n      dup5\n      mstore\n      0x20\n      swap5\n      0x01\n      swap2\n      0x01\n      dup2\n      and\n      swap1\n      dup2\n      0x00\n      eq\n      tag_158\n      jumpi\n      pop\n      0x01\n      eq\n      tag_160\n      jumpi\n    tag_161:\n      pop\n      pop\n      pop\n      tag_162\n      swap3\n      pop\n      sub\n      dup4\n      tag_3\n      jump\t// in\n    tag_162:\n      jump\t// out\n    tag_160:\n      0x00\n      swap1\n      dup2\n      mstore\n      dup6\n      dup2\n      keccak256\n      swap6\n      swap4\n      pop\n      swap2\n      swap1\n    tag_163:\n      dup2\n      dup4\n      lt\n      tag_164\n      jumpi\n      pop\n      pop\n      tag_162\n      swap4\n      pop\n      dup3\n      add\n      add\n      0x00\n      dup1\n      dup1\n      jump(tag_161)\n    tag_164:\n      dup6\n      sload\n      dup9\n      dup5\n      add\n      dup6\n      add\n      mstore\n      swap5\n      dup6\n      add\n      swap5\n      dup8\n      swap5\n      pop\n      swap2\n      dup4\n      add\n      swap2\n      jump(tag_163)\n    tag_158:\n      swap3\n      pop\n      pop\n      pop\n      tag_162\n      swap5\n      swap3\n      pop\n      not(0xff)\n      and\n      dup3\n      dup5\n      add\n      mstore\n      iszero\n      iszero\n      0x05\n      shl\n      dup3\n      add\n      add\n      0x00\n      dup1\n      dup1\n      jump(tag_161)\n    tag_5:\n      0x00\n    tag_166:\n      dup4\n      dup2\n      lt\n      tag_167\n      jumpi\n      pop\n      pop\n      0x00\n      swap2\n      add\n      mstore\n      jump\t// out\n    tag_167:\n      dup2\n      dup2\n      add\n      mload\n      dup4\n      dup3\n      add\n      mstore\n      0x20\n      add\n      jump(tag_166)\n    tag_6:\n      swap1\n      0x20\n      swap2\n      tag_169\n      dup2\n      mload\n      dup1\n      swap3\n      dup2\n      dup6\n      mstore\n      dup6\n      dup1\n      dup7\n      add\n      swap2\n      add\n      tag_5\n      jump\t// in\n    tag_169:\n      0x1f\n      add\n      not(0x1f)\n      and\n      add\n      add\n      swap1\n      jump\t// out\n    tag_7:\n      swap1\n      dup2\n      mload\n      dup2\n      mstore\n      0x20\n      swap2\n      dup3\n      dup2\n      add\n      mload\n      0x01\n      dup1\n      0xa0\n      shl\n      sub\n      dup1\n      swap2\n      and\n      dup5\n      dup5\n      add\n      mstore\n      0x40\n      dup3\n      add\n      mload\n      and\n      0x40\n      dup4\n      add\n      mstore\n      tag_170\n      0x60\n      dup3\n      add\n      mload\n      0xc0\n      0x60\n      dup6\n      add\n      mstore\n      0xc0\n      dup5\n      add\n      swap1\n      tag_6\n      jump\t// in\n    tag_170:\n      0x80\n      dup3\n      add\n      mload\n      swap4\n      dup4\n      dup3\n      sub\n      0x80\n      dup6\n      add\n      mstore\n      dup5\n      mload\n      swap1\n      dup2\n      dup4\n      mstore\n      dup1\n      dup4\n      add\n      swap3\n      dup2\n      dup1\n      dup5\n      0x05\n      shl\n      dup4\n      add\n      add\n      swap8\n      add\n      swap4\n      0x00\n      swap2\n    tag_171:\n      dup5\n      dup4\n      lt\n      tag_172\n      jumpi\n      pop\n      pop\n      pop\n      pop\n      pop\n      pop\n      0xa0\n      dup1\n      swap2\n      add\n      mload\n      swap2\n      add\n      mstore\n      swap1\n      jump\t// out\n    tag_172:\n      swap1\n      swap2\n      swap3\n      swap4\n      swap5\n      swap8\n      dup5\n      dup1\n      tag_174\n      0x01\n      swap4\n      not(0x1f)\n      dup7\n      dup3\n      sub\n      add\n      dup8\n      mstore\n      dup13\n      mload\n      tag_6\n      jump\t// in\n    tag_174:\n      swap11\n      add\n      swap4\n      add\n      swap4\n      add\n      swap2\n      swap5\n      swap4\n      swap3\n      swap1\n      jump(tag_171)\n    tag_8:\n      dup2\n      0x1f\n      dup3\n      add\n      slt\n      iszero\n      tag_32\n      jumpi\n      dup1\n      calldataload\n      swap1\n      0xffffffffffffffff\n      dup3\n      gt\n      tag_153\n      jumpi\n      mload(0x40)\n      swap3\n      tag_179\n      0x1f\n      dup5\n      add\n      not(0x1f)\n      and\n      0x20\n      add\n      dup6\n      tag_3\n      jump\t// in\n    tag_179:\n      dup3\n      dup5\n      mstore\n      0x20\n      dup4\n      dup4\n      add\n      add\n      gt\n      tag_32\n      jumpi\n      dup2\n      0x00\n      swap3\n      0x20\n      dup1\n      swap4\n      add\n      dup4\n      dup7\n      add\n      calldatacopy\n      dup4\n      add\n      add\n      mstore\n      swap1\n      jump\t// out\n    tag_9:\n      0x20\n      dup1\n      dup3\n      add\n      swap1\n      0x20\n      dup4\n      mstore\n      dup4\n      mload\n      dup1\n      swap3\n      mstore\n      0x40\n      dup4\n      add\n      swap3\n      0x20\n      0x40\n      dup5\n      0x05\n      shl\n      dup4\n      add\n      add\n      swap6\n      add\n      swap4\n      0x00\n      swap2\n    tag_182:\n      dup5\n      dup4\n      lt\n      tag_183\n      jumpi\n      pop\n      pop\n      pop\n      pop\n      pop\n      pop\n      swap1\n      jump\t// out\n    tag_183:\n      swap1\n      swap2\n      swap3\n      swap4\n      swap5\n      swap6\n      dup5\n      dup1\n      tag_185\n      0x01\n      swap4\n      not(0x3f)\n      dup7\n      dup3\n      sub\n      add\n      dup8\n      mstore\n      dup11\n      mload\n      tag_7\n      jump\t// in\n    tag_185:\n      swap9\n      add\n      swap4\n      add\n      swap4\n      add\n      swap2\n      swap5\n      swap4\n      swap3\n      swap1\n      jump(tag_182)\n    tag_10:\n      0xffffffffffffffff\n      dup2\n      gt\n      tag_153\n      jumpi\n      0x05\n      shl\n      0x20\n      add\n      swap1\n      jump\t// out\n    tag_11:\n      mload(0x40)\n      swap1\n      tag_188\n      dup3\n      tag_2\n      jump\t// in\n    tag_188:\n      0x00\n      0xa0\n      dup4\n      dup3\n      dup2\n      mstore\n      dup3\n      0x20\n      dup3\n      add\n      mstore\n      dup3\n      0x40\n      dup3\n      add\n      mstore\n      0x60\n      dup1\n      dup3\n      add\n      mstore\n      0x60\n      0x80\n      dup3\n      add\n      mstore\n      add\n      mstore\n      jump\t// out\n    tag_12:\n      swap1\n      tag_189\n      dup3\n      tag_10\n      jump\t// in\n    tag_189:\n      tag_190\n      mload(0x40)\n      swap2\n      dup3\n      tag_3\n      jump\t// in\n    tag_190:\n      dup3\n      dup2\n      mstore\n      dup1\n      swap3\n      tag_191\n      not(0x1f)\n      swap2\n      tag_10\n      jump\t// in\n    tag_191:\n      add\n      swap1\n      0x00\n    tag_192:\n      dup3\n      dup2\n      lt\n      tag_193\n      jumpi\n      pop\n      pop\n      pop\n      jump\t// out\n    tag_193:\n      0x20\n      swap1\n      tag_195\n      tag_11\n      jump\t// in\n    tag_195:\n      dup3\n      dup3\n      dup6\n      add\n      add\n      mstore\n      add\n      jump(tag_192)\n    tag_13:\n      dup1\n      mload\n      dup3\n      lt\n      iszero\n      tag_196\n      jumpi\n      0x20\n      swap2\n      0x05\n      shl\n      add\n      add\n      swap1\n      jump\t// out\n    tag_196:\n      mstore(0x00, shl(0xe0, 0x4e487b71))\n      mstore(0x04, 0x32)\n      revert(0x00, 0x24)\n    tag_14:\n      swap2\n      swap1\n      swap2\n      dup3\n      mload\n      0xffffffffffffffff\n      dup2\n      gt\n      tag_153\n      jumpi\n      tag_200\n      dup3\n      sload\n      tag_1\n      jump\t// in\n    tag_200:\n      0x1f\n      dup2\n      gt\n      tag_201\n      jumpi\n    tag_202:\n      pop\n      0x20\n      dup1\n      0x1f\n      dup4\n      gt\n      0x01\n      eq\n      tag_203\n      jumpi\n      pop\n      dup2\n      swap3\n      swap4\n      swap5\n      0x00\n      swap3\n      tag_205\n      jumpi\n    tag_206:\n      pop\n      pop\n      dup2\n      0x01\n      shl\n      swap2\n      not(0x00)\n      swap1\n      0x03\n      shl\n      shr\n      not\n      and\n      or\n      swap1\n      sstore\n      jump\t// out\n    tag_205:\n      add\n      mload\n      swap1\n      pop\n      0x00\n      dup1\n      jump(tag_206)\n    tag_203:\n      swap1\n      not(0x1f)\n      dup4\n      and\n      swap6\n      dup5\n      0x00\n      mstore\n      keccak256(0x00, 0x20)\n      swap3\n      0x00\n      swap1\n    tag_208:\n      dup9\n      dup3\n      lt\n      tag_209\n      jumpi\n      pop\n      pop\n      dup4\n      0x01\n      swap6\n      swap7\n      swap8\n      lt\n      tag_211\n      jumpi\n    tag_212:\n      pop\n      pop\n      pop\n      dup2\n      shl\n      add\n      swap1\n      sstore\n      jump\t// out\n    tag_211:\n      add\n      mload\n      not(0x00)\n      0xf8\n      dup5\n      0x03\n      shl\n      and\n      shr\n      not\n      and\n      swap1\n      sstore\n      0x00\n      dup1\n      dup1\n      jump(tag_212)\n    tag_209:\n      dup1\n      0x01\n      dup6\n      swap7\n      dup3\n      swap5\n      swap7\n      dup7\n      add\n      mload\n      dup2\n      sstore\n      add\n      swap6\n      add\n      swap4\n      add\n      swap1\n      jump(tag_208)\n    tag_201:\n      dup3\n      0x00\n      mstore\n      keccak256(0x00, 0x20)\n      0x1f\n      dup4\n      add\n      0x05\n      shr\n      dup2\n      add\n      swap2\n      0x20\n      dup5\n      lt\n      tag_213\n      jumpi\n    tag_214:\n      0x1f\n      add\n      0x05\n      shr\n      add\n      swap1\n    tag_215:\n      dup2\n      dup2\n      lt\n      tag_216\n      jumpi\n      pop\n      jump(tag_202)\n    tag_216:\n      0x00\n      dup2\n      sstore\n      0x01\n      add\n      jump(tag_215)\n    tag_213:\n      swap1\n      swap2\n      pop\n      dup2\n      swap1\n      jump(tag_214)\n    tag_15:\n      dup1\n      sload\n      dup3\n      lt\n      iszero\n      tag_196\n      jumpi\n      0x00\n      mstore\n      keccak256(0x00, 0x20)\n      add\n      swap1\n      0x00\n      swap1\n      jump\t// out\n\n    auxdata: 0xa26469706673582212209c38f0e14b76e1027b5122c6a97df051bb11c8e99631971a17fa9c3af7b8927d64736f6c63430008180033\n}\n",
				"bytecode": {
					"linkReferences": {},
					"object": "6080806040523461001657610c0f908161001b8239f35b5f80fdfe60406080815260049081361015610014575f80fd5b5f3560e01c80630b791430146106ae5780636d1884e0146105d45780639f9d903a146105b7578063a5e807a614610422578063b50d9184146101675763c27a500d1461005e575f80fd5b34610163575f366003190112610163575f5461007981610a45565b925f5b828110610094578351806100908782610999565b0390f35b805f5260016020818152855f20908651926100ae8461075d565b82548452808301546001600160a01b0390811683860152600284015416888501526100db600384016107af565b60608501528583018054906100ef826109fc565b936100fc8b51958661078d565b8285525f918252808220918186015b8482106101485750505050505082916005916080600196950152015460a08201526101368288610a94565b526101418187610a94565b500161007c565b85838192610155876107af565b81520194019101909261010b565b5f80fd5b509034610163576080366003190112610163576001600160a01b03813581811692908390036101635760249182359081168091036101635767ffffffffffffffff93604435858111610163576101c09036908501610943565b956064359686881161016357366023890112156101635787850135976101e5896109fc565b986101f284519a8b61078d565b808a52602098888a8c019260051b8401019236841161016357898101925b8484106103fc57505050505082156103c2575f54805f5260018099818a52845f20928355818301906bffffffffffffffffffffffff60a01b9187838254161790556002918860028601918254161790556003936102708660038301610abc565b426005820155895f9101935b6102e3575b50505050507fe91d63c801a439b4f71e0c8a8ad2b529b48e22db4383e976e2c0e4615628e404906102c0975f5498899451928284938452830190610872565b0390a45f1983146102d2575050015f55005b601190634e487b7160e01b5f52525ffd5b81518110156103bd576102f68183610a94565b5184549068010000000000000000918281101561039a578f9061031d918101885587610bc4565b6103ac579061032b91610abc565b61034c8d6103398486610a94565b51818b5193828580945193849201610851565b810187815203019020905f549180549182101561039a57918f9796959493918089948561037b93018155610bc4565b8192915490891b91821b915f19901b191617905501909192939461027c565b8d60418e634e487b7160e01b5f52525ffd5b8d5f8e634e487b7160e01b8252525ffd5b610281565b815162461bcd60e51b815280860188905260158188015274496e76616c6964206576656e74206164647265737360581b6044820152606490fd5b8335838111610163578c9161041783928e3691870101610943565b815201930192610210565b5034610163576020918260031936011261016357803567ffffffffffffffff8111610163576104549036908301610943565b908361046884519384815193849201610851565b820191848160029460028152030190209280518085878297549384815201905f52875f20925f5b898282106105a1575050506104a69250038561078d565b6104b08451610a45565b945f5b8551811015610594576104c68187610a94565b515f526001808352835f208451916104dd8361075d565b81548352808201546001600160a01b0390811686850152888301541686840152610509600383016107af565b606084015286820190815461051d816109fc565b9261052a8951948561078d565b8184525f90815287812090888086015b8483106105775750505050505082916005916080600196950152015460a0820152610565828a610a94565b526105708189610a94565b50016104b3565b85918291610584866107af565b815201930191019091899061053a565b8251806100908982610999565b855484526001958601958a95509301920161048f565b5034610163575f366003190112610163576020905f549051908152f35b50346101635760209081600319360112610163576105f0610a14565b5082355f526001808352815f209082519461060a8661075d565b8254865260018301546001600160a01b039081168688015260028401541684870152610638600384016107af565b6060870152820190815461064b816109fc565b926106588651948561078d565b8184525f908152868120878086015b8484106106915760808b01879052600588015460a08c01528851828152806100908185018e610897565b8591829161069e856107af565b8152019201920191908890610667565b50903461016357602036600319011261016357355f526001602052805f209081549061071b60018060a01b0393846001820154169460028201541660056106f7600384016107af565b9201549380519687968752602087015285015260a0606085015260a0840190610872565b9060808301520390f35b90600182811c92168015610753575b602083101461073f57565b634e487b7160e01b5f52602260045260245ffd5b91607f1691610734565b60c0810190811067ffffffffffffffff82111761077957604052565b634e487b7160e01b5f52604160045260245ffd5b90601f8019910116810190811067ffffffffffffffff82111761077957604052565b9060405191825f82546107c181610725565b908184526020946001916001811690815f1461082f57506001146107f1575b5050506107ef9250038361078d565b565b5f90815285812095935091905b8183106108175750506107ef93508201015f80806107e0565b855488840185015294850194879450918301916107fe565b925050506107ef94925060ff191682840152151560051b8201015f80806107e0565b5f5b8381106108625750505f910152565b8181015183820152602001610853565b9060209161088b81518092818552858086019101610851565b601f01601f1916010190565b90815181526020918281015160018060a01b038091168484015260408201511660408301526108d5606082015160c0606085015260c0840190610872565b60808201519383820360808501528451908183528083019281808460051b8301019701935f915b8483106109155750505050505060a08091015191015290565b9091929394978480610933600193601f198682030187528c51610872565b9a019301930191949392906108fc565b81601f820112156101635780359067ffffffffffffffff82116107795760405192610978601f8401601f19166020018561078d565b8284526020838301011161016357815f926020809301838601378301015290565b6020808201906020835283518092526040830192602060408460051b8301019501935f915b8483106109ce5750505050505090565b90919293949584806109ec600193603f198682030187528a51610897565b98019301930191949392906109be565b67ffffffffffffffff81116107795760051b60200190565b60405190610a218261075d565b5f60a083828152826020820152826040820152606080820152606060808201520152565b90610a4f826109fc565b610a5c604051918261078d565b8281528092610a6d601f19916109fc565b01905f5b828110610a7d57505050565b602090610a88610a14565b82828501015201610a71565b8051821015610aa85760209160051b010190565b634e487b7160e01b5f52603260045260245ffd5b919091825167ffffffffffffffff811161077957610ada8254610725565b601f8111610b7f575b50602080601f8311600114610b1e5750819293945f92610b13575b50508160011b915f199060031b1c1916179055565b015190505f80610afe565b90601f19831695845f5260205f20925f905b888210610b6757505083600195969710610b4f575b505050811b019055565b01515f1960f88460031b161c191690555f8080610b45565b80600185968294968601518155019501930190610b30565b825f5260205f20601f830160051c81019160208410610bba575b601f0160051c01905b818110610baf5750610ae3565b5f8155600101610ba2565b9091508190610b99565b8054821015610aa8575f5260205f2001905f9056fea26469706673582212209c38f0e14b76e1027b5122c6a97df051bb11c8e99631971a17fa9c3af7b8927d64736f6c63430008180033",
					"opcodes": "PUSH1 0x80 DUP1 PUSH1 0x40 MSTORE CALLVALUE PUSH2 0x16 JUMPI PUSH2 0xC0F SWAP1 DUP2 PUSH2 0x1B DUP3 CODECOPY RETURN JUMPDEST PUSH0 DUP1 REVERT INVALID PUSH1 0x40 PUSH1 0x80 DUP2 MSTORE PUSH1 0x4 SWAP1 DUP2 CALLDATASIZE LT ISZERO PUSH2 0x14 JUMPI PUSH0 DUP1 REVERT JUMPDEST PUSH0 CALLDATALOAD PUSH1 0xE0 SHR DUP1 PUSH4 0xB791430 EQ PUSH2 0x6AE JUMPI DUP1 PUSH4 0x6D1884E0 EQ PUSH2 0x5D4 JUMPI DUP1 PUSH4 0x9F9D903A EQ PUSH2 0x5B7 JUMPI DUP1 PUSH4 0xA5E807A6 EQ PUSH2 0x422 JUMPI DUP1 PUSH4 0xB50D9184 EQ PUSH2 0x167 JUMPI PUSH4 0xC27A500D EQ PUSH2 0x5E JUMPI PUSH0 DUP1 REVERT JUMPDEST CALLVALUE PUSH2 0x163 JUMPI PUSH0 CALLDATASIZE PUSH1 0x3 NOT ADD SLT PUSH2 0x163 JUMPI PUSH0 SLOAD PUSH2 0x79 DUP2 PUSH2 0xA45 JUMP JUMPDEST SWAP3 PUSH0 JUMPDEST DUP3 DUP2 LT PUSH2 0x94 JUMPI DUP4 MLOAD DUP1 PUSH2 0x90 DUP8 DUP3 PUSH2 0x999 JUMP JUMPDEST SUB SWAP1 RETURN JUMPDEST DUP1 PUSH0 MSTORE PUSH1 0x1 PUSH1 0x20 DUP2 DUP2 MSTORE DUP6 PUSH0 KECCAK256 SWAP1 DUP7 MLOAD SWAP3 PUSH2 0xAE DUP5 PUSH2 0x75D JUMP JUMPDEST DUP3 SLOAD DUP5 MSTORE DUP1 DUP4 ADD SLOAD PUSH1 0x1 PUSH1 0x1 PUSH1 0xA0 SHL SUB SWAP1 DUP2 AND DUP4 DUP7 ADD MSTORE PUSH1 0x2 DUP5 ADD SLOAD AND DUP9 DUP6 ADD MSTORE PUSH2 0xDB PUSH1 0x3 DUP5 ADD PUSH2 0x7AF JUMP JUMPDEST PUSH1 0x60 DUP6 ADD MSTORE DUP6 DUP4 ADD DUP1 SLOAD SWAP1 PUSH2 0xEF DUP3 PUSH2 0x9FC JUMP JUMPDEST SWAP4 PUSH2 0xFC DUP12 MLOAD SWAP6 DUP7 PUSH2 0x78D JUMP JUMPDEST DUP3 DUP6 MSTORE PUSH0 SWAP2 DUP3 MSTORE DUP1 DUP3 KECCAK256 SWAP2 DUP2 DUP7 ADD JUMPDEST DUP5 DUP3 LT PUSH2 0x148 JUMPI POP POP POP POP POP POP DUP3 SWAP2 PUSH1 0x5 SWAP2 PUSH1 0x80 PUSH1 0x1 SWAP7 SWAP6 ADD MSTORE ADD SLOAD PUSH1 0xA0 DUP3 ADD MSTORE PUSH2 0x136 DUP3 DUP9 PUSH2 0xA94 JUMP JUMPDEST MSTORE PUSH2 0x141 DUP2 DUP8 PUSH2 0xA94 JUMP JUMPDEST POP ADD PUSH2 0x7C JUMP JUMPDEST DUP6 DUP4 DUP2 SWAP3 PUSH2 0x155 DUP8 PUSH2 0x7AF JUMP JUMPDEST DUP2 MSTORE ADD SWAP5 ADD SWAP2 ADD SWAP1 SWAP3 PUSH2 0x10B JUMP JUMPDEST PUSH0 DUP1 REVERT JUMPDEST POP SWAP1 CALLVALUE PUSH2 0x163 JUMPI PUSH1 0x80 CALLDATASIZE PUSH1 0x3 NOT ADD SLT PUSH2 0x163 JUMPI PUSH1 0x1 PUSH1 0x1 PUSH1 0xA0 SHL SUB DUP2 CALLDATALOAD DUP2 DUP2 AND SWAP3 SWAP1 DUP4 SWAP1 SUB PUSH2 0x163 JUMPI PUSH1 0x24 SWAP2 DUP3 CALLDATALOAD SWAP1 DUP2 AND DUP1 SWAP2 SUB PUSH2 0x163 JUMPI PUSH8 0xFFFFFFFFFFFFFFFF SWAP4 PUSH1 0x44 CALLDATALOAD DUP6 DUP2 GT PUSH2 0x163 JUMPI PUSH2 0x1C0 SWAP1 CALLDATASIZE SWAP1 DUP6 ADD PUSH2 0x943 JUMP JUMPDEST SWAP6 PUSH1 0x64 CALLDATALOAD SWAP7 DUP7 DUP9 GT PUSH2 0x163 JUMPI CALLDATASIZE PUSH1 0x23 DUP10 ADD SLT ISZERO PUSH2 0x163 JUMPI DUP8 DUP6 ADD CALLDATALOAD SWAP8 PUSH2 0x1E5 DUP10 PUSH2 0x9FC JUMP JUMPDEST SWAP9 PUSH2 0x1F2 DUP5 MLOAD SWAP11 DUP12 PUSH2 0x78D JUMP JUMPDEST DUP1 DUP11 MSTORE PUSH1 0x20 SWAP9 DUP9 DUP11 DUP13 ADD SWAP3 PUSH1 0x5 SHL DUP5 ADD ADD SWAP3 CALLDATASIZE DUP5 GT PUSH2 0x163 JUMPI DUP10 DUP2 ADD SWAP3 JUMPDEST DUP5 DUP5 LT PUSH2 0x3FC JUMPI POP POP POP POP POP DUP3 ISZERO PUSH2 0x3C2 JUMPI PUSH0 SLOAD DUP1 PUSH0 MSTORE PUSH1 0x1 DUP1 SWAP10 DUP2 DUP11 MSTORE DUP5 PUSH0 KECCAK256 SWAP3 DUP4 SSTORE DUP2 DUP4 ADD SWAP1 PUSH12 0xFFFFFFFFFFFFFFFFFFFFFFFF PUSH1 0xA0 SHL SWAP2 DUP8 DUP4 DUP3 SLOAD AND OR SWAP1 SSTORE PUSH1 0x2 SWAP2 DUP9 PUSH1 0x2 DUP7 ADD SWAP2 DUP3 SLOAD AND OR SWAP1 SSTORE PUSH1 0x3 SWAP4 PUSH2 0x270 DUP7 PUSH1 0x3 DUP4 ADD PUSH2 0xABC JUMP JUMPDEST TIMESTAMP PUSH1 0x5 DUP3 ADD SSTORE DUP10 PUSH0 SWAP2 ADD SWAP4 JUMPDEST PUSH2 0x2E3 JUMPI JUMPDEST POP POP POP POP POP PUSH32 0xE91D63C801A439B4F71E0C8A8AD2B529B48E22DB4383E976E2C0E4615628E404 SWAP1 PUSH2 0x2C0 SWAP8 PUSH0 SLOAD SWAP9 DUP10 SWAP5 MLOAD SWAP3 DUP3 DUP5 SWAP4 DUP5 MSTORE DUP4 ADD SWAP1 PUSH2 0x872 JUMP JUMPDEST SUB SWAP1 LOG4 PUSH0 NOT DUP4 EQ PUSH2 0x2D2 JUMPI POP POP ADD PUSH0 SSTORE STOP JUMPDEST PUSH1 0x11 SWAP1 PUSH4 0x4E487B71 PUSH1 0xE0 SHL PUSH0 MSTORE MSTORE PUSH0 REVERT JUMPDEST DUP2 MLOAD DUP2 LT ISZERO PUSH2 0x3BD JUMPI PUSH2 0x2F6 DUP2 DUP4 PUSH2 0xA94 JUMP JUMPDEST MLOAD DUP5 SLOAD SWAP1 PUSH9 0x10000000000000000 SWAP2 DUP3 DUP2 LT ISZERO PUSH2 0x39A JUMPI DUP16 SWAP1 PUSH2 0x31D SWAP2 DUP2 ADD DUP9 SSTORE DUP8 PUSH2 0xBC4 JUMP JUMPDEST PUSH2 0x3AC JUMPI SWAP1 PUSH2 0x32B SWAP2 PUSH2 0xABC JUMP JUMPDEST PUSH2 0x34C DUP14 PUSH2 0x339 DUP5 DUP7 PUSH2 0xA94 JUMP JUMPDEST MLOAD DUP2 DUP12 MLOAD SWAP4 DUP3 DUP6 DUP1 SWAP5 MLOAD SWAP4 DUP5 SWAP3 ADD PUSH2 0x851 JUMP JUMPDEST DUP2 ADD DUP8 DUP2 MSTORE SUB ADD SWAP1 KECCAK256 SWAP1 PUSH0 SLOAD SWAP2 DUP1 SLOAD SWAP2 DUP3 LT ISZERO PUSH2 0x39A JUMPI SWAP2 DUP16 SWAP8 SWAP7 SWAP6 SWAP5 SWAP4 SWAP2 DUP1 DUP10 SWAP5 DUP6 PUSH2 0x37B SWAP4 ADD DUP2 SSTORE PUSH2 0xBC4 JUMP JUMPDEST DUP2 SWAP3 SWAP2 SLOAD SWAP1 DUP10 SHL SWAP2 DUP3 SHL SWAP2 PUSH0 NOT SWAP1 SHL NOT AND OR SWAP1 SSTORE ADD SWAP1 SWAP2 SWAP3 SWAP4 SWAP5 PUSH2 0x27C JUMP JUMPDEST DUP14 PUSH1 0x41 DUP15 PUSH4 0x4E487B71 PUSH1 0xE0 SHL PUSH0 MSTORE MSTORE PUSH0 REVERT JUMPDEST DUP14 PUSH0 DUP15 PUSH4 0x4E487B71 PUSH1 0xE0 SHL DUP3 MSTORE MSTORE PUSH0 REVERT JUMPDEST PUSH2 0x281 JUMP JUMPDEST DUP2 MLOAD PUSH3 0x461BCD PUSH1 0xE5 SHL DUP2 MSTORE DUP1 DUP7 ADD DUP9 SWAP1 MSTORE PUSH1 0x15 DUP2 DUP9 ADD MSTORE PUSH21 0x496E76616C6964206576656E742061646472657373 PUSH1 0x58 SHL PUSH1 0x44 DUP3 ADD MSTORE PUSH1 0x64 SWAP1 REVERT JUMPDEST DUP4 CALLDATALOAD DUP4 DUP2 GT PUSH2 0x163 JUMPI DUP13 SWAP2 PUSH2 0x417 DUP4 SWAP3 DUP15 CALLDATASIZE SWAP2 DUP8 ADD ADD PUSH2 0x943 JUMP JUMPDEST DUP2 MSTORE ADD SWAP4 ADD SWAP3 PUSH2 0x210 JUMP JUMPDEST POP CALLVALUE PUSH2 0x163 JUMPI PUSH1 0x20 SWAP2 DUP3 PUSH1 0x3 NOT CALLDATASIZE ADD SLT PUSH2 0x163 JUMPI DUP1 CALLDATALOAD PUSH8 0xFFFFFFFFFFFFFFFF DUP2 GT PUSH2 0x163 JUMPI PUSH2 0x454 SWAP1 CALLDATASIZE SWAP1 DUP4 ADD PUSH2 0x943 JUMP JUMPDEST SWAP1 DUP4 PUSH2 0x468 DUP5 MLOAD SWAP4 DUP5 DUP2 MLOAD SWAP4 DUP5 SWAP3 ADD PUSH2 0x851 JUMP JUMPDEST DUP3 ADD SWAP2 DUP5 DUP2 PUSH1 0x2 SWAP5 PUSH1 0x2 DUP2 MSTORE SUB ADD SWAP1 KECCAK256 SWAP3 DUP1 MLOAD DUP1 DUP6 DUP8 DUP3 SWAP8 SLOAD SWAP4 DUP5 DUP2 MSTORE ADD SWAP1 PUSH0 MSTORE DUP8 PUSH0 KECCAK256 SWAP3 PUSH0 JUMPDEST DUP10 DUP3 DUP3 LT PUSH2 0x5A1 JUMPI POP POP POP PUSH2 0x4A6 SWAP3 POP SUB DUP6 PUSH2 0x78D JUMP JUMPDEST PUSH2 0x4B0 DUP5 MLOAD PUSH2 0xA45 JUMP JUMPDEST SWAP5 PUSH0 JUMPDEST DUP6 MLOAD DUP2 LT ISZERO PUSH2 0x594 JUMPI PUSH2 0x4C6 DUP2 DUP8 PUSH2 0xA94 JUMP JUMPDEST MLOAD PUSH0 MSTORE PUSH1 0x1 DUP1 DUP4 MSTORE DUP4 PUSH0 KECCAK256 DUP5 MLOAD SWAP2 PUSH2 0x4DD DUP4 PUSH2 0x75D JUMP JUMPDEST DUP2 SLOAD DUP4 MSTORE DUP1 DUP3 ADD SLOAD PUSH1 0x1 PUSH1 0x1 PUSH1 0xA0 SHL SUB SWAP1 DUP2 AND DUP7 DUP6 ADD MSTORE DUP9 DUP4 ADD SLOAD AND DUP7 DUP5 ADD MSTORE PUSH2 0x509 PUSH1 0x3 DUP4 ADD PUSH2 0x7AF JUMP JUMPDEST PUSH1 0x60 DUP5 ADD MSTORE DUP7 DUP3 ADD SWAP1 DUP2 SLOAD PUSH2 0x51D DUP2 PUSH2 0x9FC JUMP JUMPDEST SWAP3 PUSH2 0x52A DUP10 MLOAD SWAP5 DUP6 PUSH2 0x78D JUMP JUMPDEST DUP2 DUP5 MSTORE PUSH0 SWAP1 DUP2 MSTORE DUP8 DUP2 KECCAK256 SWAP1 DUP9 DUP1 DUP7 ADD JUMPDEST DUP5 DUP4 LT PUSH2 0x577 JUMPI POP POP POP POP POP POP DUP3 SWAP2 PUSH1 0x5 SWAP2 PUSH1 0x80 PUSH1 0x1 SWAP7 SWAP6 ADD MSTORE ADD SLOAD PUSH1 0xA0 DUP3 ADD MSTORE PUSH2 0x565 DUP3 DUP11 PUSH2 0xA94 JUMP JUMPDEST MSTORE PUSH2 0x570 DUP2 DUP10 PUSH2 0xA94 JUMP JUMPDEST POP ADD PUSH2 0x4B3 JUMP JUMPDEST DUP6 SWAP2 DUP3 SWAP2 PUSH2 0x584 DUP7 PUSH2 0x7AF JUMP JUMPDEST DUP2 MSTORE ADD SWAP4 ADD SWAP2 ADD SWAP1 SWAP2 DUP10 SWAP1 PUSH2 0x53A JUMP JUMPDEST DUP3 MLOAD DUP1 PUSH2 0x90 DUP10 DUP3 PUSH2 0x999 JUMP JUMPDEST DUP6 SLOAD DUP5 MSTORE PUSH1 0x1 SWAP6 DUP7 ADD SWAP6 DUP11 SWAP6 POP SWAP4 ADD SWAP3 ADD PUSH2 0x48F JUMP JUMPDEST POP CALLVALUE PUSH2 0x163 JUMPI PUSH0 CALLDATASIZE PUSH1 0x3 NOT ADD SLT PUSH2 0x163 JUMPI PUSH1 0x20 SWAP1 PUSH0 SLOAD SWAP1 MLOAD SWAP1 DUP2 MSTORE RETURN JUMPDEST POP CALLVALUE PUSH2 0x163 JUMPI PUSH1 0x20 SWAP1 DUP2 PUSH1 0x3 NOT CALLDATASIZE ADD SLT PUSH2 0x163 JUMPI PUSH2 0x5F0 PUSH2 0xA14 JUMP JUMPDEST POP DUP3 CALLDATALOAD PUSH0 MSTORE PUSH1 0x1 DUP1 DUP4 MSTORE DUP2 PUSH0 KECCAK256 SWAP1 DUP3 MLOAD SWAP5 PUSH2 0x60A DUP7 PUSH2 0x75D JUMP JUMPDEST DUP3 SLOAD DUP7 MSTORE PUSH1 0x1 DUP4 ADD SLOAD PUSH1 0x1 PUSH1 0x1 PUSH1 0xA0 SHL SUB SWAP1 DUP2 AND DUP7 DUP9 ADD MSTORE PUSH1 0x2 DUP5 ADD SLOAD AND DUP5 DUP8 ADD MSTORE PUSH2 0x638 PUSH1 0x3 DUP5 ADD PUSH2 0x7AF JUMP JUMPDEST PUSH1 0x60 DUP8 ADD MSTORE DUP3 ADD SWAP1 DUP2 SLOAD PUSH2 0x64B DUP2 PUSH2 0x9FC JUMP JUMPDEST SWAP3 PUSH2 0x658 DUP7 MLOAD SWAP5 DUP6 PUSH2 0x78D JUMP JUMPDEST DUP2 DUP5 MSTORE PUSH0 SWAP1 DUP2 MSTORE DUP7 DUP2 KECCAK256 DUP8 DUP1 DUP7 ADD JUMPDEST DUP5 DUP5 LT PUSH2 0x691 JUMPI PUSH1 0x80 DUP12 ADD DUP8 SWAP1 MSTORE PUSH1 0x5 DUP9 ADD SLOAD PUSH1 0xA0 DUP13 ADD MSTORE DUP9 MLOAD DUP3 DUP2 MSTORE DUP1 PUSH2 0x90 DUP2 DUP6 ADD DUP15 PUSH2 0x897 JUMP JUMPDEST DUP6 SWAP2 DUP3 SWAP2 PUSH2 0x69E DUP6 PUSH2 0x7AF JUMP JUMPDEST DUP2 MSTORE ADD SWAP3 ADD SWAP3 ADD SWAP2 SWAP1 DUP9 SWAP1 PUSH2 0x667 JUMP JUMPDEST POP SWAP1 CALLVALUE PUSH2 0x163 JUMPI PUSH1 0x20 CALLDATASIZE PUSH1 0x3 NOT ADD SLT PUSH2 0x163 JUMPI CALLDATALOAD PUSH0 MSTORE PUSH1 0x1 PUSH1 0x20 MSTORE DUP1 PUSH0 KECCAK256 SWAP1 DUP2 SLOAD SWAP1 PUSH2 0x71B PUSH1 0x1 DUP1 PUSH1 0xA0 SHL SUB SWAP4 DUP5 PUSH1 0x1 DUP3 ADD SLOAD AND SWAP5 PUSH1 0x2 DUP3 ADD SLOAD AND PUSH1 0x5 PUSH2 0x6F7 PUSH1 0x3 DUP5 ADD PUSH2 0x7AF JUMP JUMPDEST SWAP3 ADD SLOAD SWAP4 DUP1 MLOAD SWAP7 DUP8 SWAP7 DUP8 MSTORE PUSH1 0x20 DUP8 ADD MSTORE DUP6 ADD MSTORE PUSH1 0xA0 PUSH1 0x60 DUP6 ADD MSTORE PUSH1 0xA0 DUP5 ADD SWAP1 PUSH2 0x872 JUMP JUMPDEST SWAP1 PUSH1 0x80 DUP4 ADD MSTORE SUB SWAP1 RETURN JUMPDEST SWAP1 PUSH1 0x1 DUP3 DUP2 SHR SWAP3 AND DUP1 ISZERO PUSH2 0x753 JUMPI JUMPDEST PUSH1 0x20 DUP4 LT EQ PUSH2 0x73F JUMPI JUMP JUMPDEST PUSH4 0x4E487B71 PUSH1 0xE0 SHL PUSH0 MSTORE PUSH1 0x22 PUSH1 0x4 MSTORE PUSH1 0x24 PUSH0 REVERT JUMPDEST SWAP2 PUSH1 0x7F AND SWAP2 PUSH2 0x734 JUMP JUMPDEST PUSH1 0xC0 DUP2 ADD SWAP1 DUP2 LT PUSH8 0xFFFFFFFFFFFFFFFF DUP3 GT OR PUSH2 0x779 JUMPI PUSH1 0x40 MSTORE JUMP JUMPDEST PUSH4 0x4E487B71 PUSH1 0xE0 SHL PUSH0 MSTORE PUSH1 0x41 PUSH1 0x4 MSTORE PUSH1 0x24 PUSH0 REVERT JUMPDEST SWAP1 PUSH1 0x1F DUP1 NOT SWAP2 ADD AND DUP2 ADD SWAP1 DUP2 LT PUSH8 0xFFFFFFFFFFFFFFFF DUP3 GT OR PUSH2 0x779 JUMPI PUSH1 0x40 MSTORE JUMP JUMPDEST SWAP1 PUSH1 0x40 MLOAD SWAP2 DUP3 PUSH0 DUP3 SLOAD PUSH2 0x7C1 DUP2 PUSH2 0x725 JUMP JUMPDEST SWAP1 DUP2 DUP5 MSTORE PUSH1 0x20 SWAP5 PUSH1 0x1 SWAP2 PUSH1 0x1 DUP2 AND SWAP1 DUP2 PUSH0 EQ PUSH2 0x82F JUMPI POP PUSH1 0x1 EQ PUSH2 0x7F1 JUMPI JUMPDEST POP POP POP PUSH2 0x7EF SWAP3 POP SUB DUP4 PUSH2 0x78D JUMP JUMPDEST JUMP JUMPDEST PUSH0 SWAP1 DUP2 MSTORE DUP6 DUP2 KECCAK256 SWAP6 SWAP4 POP SWAP2 SWAP1 JUMPDEST DUP2 DUP4 LT PUSH2 0x817 JUMPI POP POP PUSH2 0x7EF SWAP4 POP DUP3 ADD ADD PUSH0 DUP1 DUP1 PUSH2 0x7E0 JUMP JUMPDEST DUP6 SLOAD DUP9 DUP5 ADD DUP6 ADD MSTORE SWAP5 DUP6 ADD SWAP5 DUP8 SWAP5 POP SWAP2 DUP4 ADD SWAP2 PUSH2 0x7FE JUMP JUMPDEST SWAP3 POP POP POP PUSH2 0x7EF SWAP5 SWAP3 POP PUSH1 0xFF NOT AND DUP3 DUP5 ADD MSTORE ISZERO ISZERO PUSH1 0x5 SHL DUP3 ADD ADD PUSH0 DUP1 DUP1 PUSH2 0x7E0 JUMP JUMPDEST PUSH0 JUMPDEST DUP4 DUP2 LT PUSH2 0x862 JUMPI POP POP PUSH0 SWAP2 ADD MSTORE JUMP JUMPDEST DUP2 DUP2 ADD MLOAD DUP4 DUP3 ADD MSTORE PUSH1 0x20 ADD PUSH2 0x853 JUMP JUMPDEST SWAP1 PUSH1 0x20 SWAP2 PUSH2 0x88B DUP2 MLOAD DUP1 SWAP3 DUP2 DUP6 MSTORE DUP6 DUP1 DUP7 ADD SWAP2 ADD PUSH2 0x851 JUMP JUMPDEST PUSH1 0x1F ADD PUSH1 0x1F NOT AND ADD ADD SWAP1 JUMP JUMPDEST SWAP1 DUP2 MLOAD DUP2 MSTORE PUSH1 0x20 SWAP2 DUP3 DUP2 ADD MLOAD PUSH1 0x1 DUP1 PUSH1 0xA0 SHL SUB DUP1 SWAP2 AND DUP5 DUP5 ADD MSTORE PUSH1 0x40 DUP3 ADD MLOAD AND PUSH1 0x40 DUP4 ADD MSTORE PUSH2 0x8D5 PUSH1 0x60 DUP3 ADD MLOAD PUSH1 0xC0 PUSH1 0x60 DUP6 ADD MSTORE PUSH1 0xC0 DUP5 ADD SWAP1 PUSH2 0x872 JUMP JUMPDEST PUSH1 0x80 DUP3 ADD MLOAD SWAP4 DUP4 DUP3 SUB PUSH1 0x80 DUP6 ADD MSTORE DUP5 MLOAD SWAP1 DUP2 DUP4 MSTORE DUP1 DUP4 ADD SWAP3 DUP2 DUP1 DUP5 PUSH1 0x5 SHL DUP4 ADD ADD SWAP8 ADD SWAP4 PUSH0 SWAP2 JUMPDEST DUP5 DUP4 LT PUSH2 0x915 JUMPI POP POP POP POP POP POP PUSH1 0xA0 DUP1 SWAP2 ADD MLOAD SWAP2 ADD MSTORE SWAP1 JUMP JUMPDEST SWAP1 SWAP2 SWAP3 SWAP4 SWAP5 SWAP8 DUP5 DUP1 PUSH2 0x933 PUSH1 0x1 SWAP4 PUSH1 0x1F NOT DUP7 DUP3 SUB ADD DUP8 MSTORE DUP13 MLOAD PUSH2 0x872 JUMP JUMPDEST SWAP11 ADD SWAP4 ADD SWAP4 ADD SWAP2 SWAP5 SWAP4 SWAP3 SWAP1 PUSH2 0x8FC JUMP JUMPDEST DUP2 PUSH1 0x1F DUP3 ADD SLT ISZERO PUSH2 0x163 JUMPI DUP1 CALLDATALOAD SWAP1 PUSH8 0xFFFFFFFFFFFFFFFF DUP3 GT PUSH2 0x779 JUMPI PUSH1 0x40 MLOAD SWAP3 PUSH2 0x978 PUSH1 0x1F DUP5 ADD PUSH1 0x1F NOT AND PUSH1 0x20 ADD DUP6 PUSH2 0x78D JUMP JUMPDEST DUP3 DUP5 MSTORE PUSH1 0x20 DUP4 DUP4 ADD ADD GT PUSH2 0x163 JUMPI DUP2 PUSH0 SWAP3 PUSH1 0x20 DUP1 SWAP4 ADD DUP4 DUP7 ADD CALLDATACOPY DUP4 ADD ADD MSTORE SWAP1 JUMP JUMPDEST PUSH1 0x20 DUP1 DUP3 ADD SWAP1 PUSH1 0x20 DUP4 MSTORE DUP4 MLOAD DUP1 SWAP3 MSTORE PUSH1 0x40 DUP4 ADD SWAP3 PUSH1 0x20 PUSH1 0x40 DUP5 PUSH1 0x5 SHL DUP4 ADD ADD SWAP6 ADD SWAP4 PUSH0 SWAP2 JUMPDEST DUP5 DUP4 LT PUSH2 0x9CE JUMPI POP POP POP POP POP POP SWAP1 JUMP JUMPDEST SWAP1 SWAP2 SWAP3 SWAP4 SWAP5 SWAP6 DUP5 DUP1 PUSH2 0x9EC PUSH1 0x1 SWAP4 PUSH1 0x3F NOT DUP7 DUP3 SUB ADD DUP8 MSTORE DUP11 MLOAD PUSH2 0x897 JUMP JUMPDEST SWAP9 ADD SWAP4 ADD SWAP4 ADD SWAP2 SWAP5 SWAP4 SWAP3 SWAP1 PUSH2 0x9BE JUMP JUMPDEST PUSH8 0xFFFFFFFFFFFFFFFF DUP2 GT PUSH2 0x779 JUMPI PUSH1 0x5 SHL PUSH1 0x20 ADD SWAP1 JUMP JUMPDEST PUSH1 0x40 MLOAD SWAP1 PUSH2 0xA21 DUP3 PUSH2 0x75D JUMP JUMPDEST PUSH0 PUSH1 0xA0 DUP4 DUP3 DUP2 MSTORE DUP3 PUSH1 0x20 DUP3 ADD MSTORE DUP3 PUSH1 0x40 DUP3 ADD MSTORE PUSH1 0x60 DUP1 DUP3 ADD MSTORE PUSH1 0x60 PUSH1 0x80 DUP3 ADD MSTORE ADD MSTORE JUMP JUMPDEST SWAP1 PUSH2 0xA4F DUP3 PUSH2 0x9FC JUMP JUMPDEST PUSH2 0xA5C PUSH1 0x40 MLOAD SWAP2 DUP3 PUSH2 0x78D JUMP JUMPDEST DUP3 DUP2 MSTORE DUP1 SWAP3 PUSH2 0xA6D PUSH1 0x1F NOT SWAP2 PUSH2 0x9FC JUMP JUMPDEST ADD SWAP1 PUSH0 JUMPDEST DUP3 DUP2 LT PUSH2 0xA7D JUMPI POP POP POP JUMP JUMPDEST PUSH1 0x20 SWAP1 PUSH2 0xA88 PUSH2 0xA14 JUMP JUMPDEST DUP3 DUP3 DUP6 ADD ADD MSTORE ADD PUSH2 0xA71 JUMP JUMPDEST DUP1 MLOAD DUP3 LT ISZERO PUSH2 0xAA8 JUMPI PUSH1 0x20 SWAP2 PUSH1 0x5 SHL ADD ADD SWAP1 JUMP JUMPDEST PUSH4 0x4E487B71 PUSH1 0xE0 SHL PUSH0 MSTORE PUSH1 0x32 PUSH1 0x4 MSTORE PUSH1 0x24 PUSH0 REVERT JUMPDEST SWAP2 SWAP1 SWAP2 DUP3 MLOAD PUSH8 0xFFFFFFFFFFFFFFFF DUP2 GT PUSH2 0x779 JUMPI PUSH2 0xADA DUP3 SLOAD PUSH2 0x725 JUMP JUMPDEST PUSH1 0x1F DUP2 GT PUSH2 0xB7F JUMPI JUMPDEST POP PUSH1 0x20 DUP1 PUSH1 0x1F DUP4 GT PUSH1 0x1 EQ PUSH2 0xB1E JUMPI POP DUP2 SWAP3 SWAP4 SWAP5 PUSH0 SWAP3 PUSH2 0xB13 JUMPI JUMPDEST POP POP DUP2 PUSH1 0x1 SHL SWAP2 PUSH0 NOT SWAP1 PUSH1 0x3 SHL SHR NOT AND OR SWAP1 SSTORE JUMP JUMPDEST ADD MLOAD SWAP1 POP PUSH0 DUP1 PUSH2 0xAFE JUMP JUMPDEST SWAP1 PUSH1 0x1F NOT DUP4 AND SWAP6 DUP5 PUSH0 MSTORE PUSH1 0x20 PUSH0 KECCAK256 SWAP3 PUSH0 SWAP1 JUMPDEST DUP9 DUP3 LT PUSH2 0xB67 JUMPI POP POP DUP4 PUSH1 0x1 SWAP6 SWAP7 SWAP8 LT PUSH2 0xB4F JUMPI JUMPDEST POP POP POP DUP2 SHL ADD SWAP1 SSTORE JUMP JUMPDEST ADD MLOAD PUSH0 NOT PUSH1 0xF8 DUP5 PUSH1 0x3 SHL AND SHR NOT AND SWAP1 SSTORE PUSH0 DUP1 DUP1 PUSH2 0xB45 JUMP JUMPDEST DUP1 PUSH1 0x1 DUP6 SWAP7 DUP3 SWAP5 SWAP7 DUP7 ADD MLOAD DUP2 SSTORE ADD SWAP6 ADD SWAP4 ADD SWAP1 PUSH2 0xB30 JUMP JUMPDEST DUP3 PUSH0 MSTORE PUSH1 0x20 PUSH0 KECCAK256 PUSH1 0x1F DUP4 ADD PUSH1 0x5 SHR DUP2 ADD SWAP2 PUSH1 0x20 DUP5 LT PUSH2 0xBBA JUMPI JUMPDEST PUSH1 0x1F ADD PUSH1 0x5 SHR ADD SWAP1 JUMPDEST DUP2 DUP2 LT PUSH2 0xBAF JUMPI POP PUSH2 0xAE3 JUMP JUMPDEST PUSH0 DUP2 SSTORE PUSH1 0x1 ADD PUSH2 0xBA2 JUMP JUMPDEST SWAP1 SWAP2 POP DUP2 SWAP1 PUSH2 0xB99 JUMP JUMPDEST DUP1 SLOAD DUP3 LT ISZERO PUSH2 0xAA8 JUMPI PUSH0 MSTORE PUSH1 0x20 PUSH0 KECCAK256 ADD SWAP1 PUSH0 SWAP1 JUMP INVALID LOG2 PUSH5 0x6970667358 0x22 SLT KECCAK256 SWAP13 CODESIZE CREATE 0xE1 0x4B PUSH23 0xE1027B5122C6A97DF051BB11C8E99631971A17FA9C3AF7 0xB8 SWAP3 PUSH30 0x64736F6C6343000818003300000000000000000000000000000000000000 "
				},
				"gasEstimates": {
					"creation": {
						"codeDepositCost": "617400",
						"executionCost": "658",
						"totalCost": "618058"
					},
					"external": {
						"events(uint256)": "infinite",
						"getAllEvents()": "infinite",
						"getEvent(uint256)": "infinite",
						"getEventsByTag(string)": "infinite",
						"nextEventId()": "2305",
						"registerEvent(address,address,string,string[])": "infinite"
					}
				},
				"methodIdentifiers": {
					"events(uint256)": "0b791430",
					"getAllEvents()": "c27a500d",
					"getEvent(uint256)": "6d1884e0",
					"getEventsByTag(string)": "a5e807a6",
					"nextEventId()": "9f9d903a",
					"registerEvent(address,address,string,string[])": "b50d9184"
				}
			},
			"storageLayout": {
				"storage": [
					{
						"astId": 95,
						"contract": "contracts/FlintEventHub.sol:EventHub",
						"label": "nextEventId",
						"offset": 0,
						"slot": "0",
						"type": "t_uint256"
					},
					{
						"astId": 100,
						"contract": "contracts/FlintEventHub.sol:EventHub",
						"label": "events",
						"offset": 0,
						"slot": "1",
						"type": "t_mapping(t_uint256,t_struct(EventInfo)93_storage)"
					},
					{
						"astId": 105,
						"contract": "contracts/FlintEventHub.sol:EventHub",
						"label": "eventsByTag",
						"offset": 0,
						"slot": "2",
						"type": "t_mapping(t_string_memory_ptr,t_array(t_uint256)dyn_storage)"
					}
				],
				"types": {
					"t_address": {
						"encoding": "inplace",
						"label": "address",
						"numberOfBytes": "20"
					},
					"t_array(t_string_storage)dyn_storage": {
						"base": "t_string_storage",
						"encoding": "dynamic_array",
						"label": "string[]",
						"numberOfBytes": "32"
					},
					"t_array(t_uint256)dyn_storage": {
						"base": "t_uint256",
						"encoding": "dynamic_array",
						"label": "uint256[]",
						"numberOfBytes": "32"
					},
					"t_mapping(t_string_memory_ptr,t_array(t_uint256)dyn_storage)": {
						"encoding": "mapping",
						"key": "t_string_memory_ptr",
						"label": "mapping(string => uint256[])",
						"numberOfBytes": "32",
						"value": "t_array(t_uint256)dyn_storage"
					},
					"t_mapping(t_uint256,t_struct(EventInfo)93_storage)": {
						"encoding": "mapping",
						"key": "t_uint256",
						"label": "mapping(uint256 => struct EventHub.EventInfo)",
						"numberOfBytes": "32",
						"value": "t_struct(EventInfo)93_storage"
					},
					"t_string_memory_ptr": {
						"encoding": "bytes",
						"label": "string",
						"numberOfBytes": "32"
					},
					"t_string_storage": {
						"encoding": "bytes",
						"label": "string",
						"numberOfBytes": "32"
					},
					"t_struct(EventInfo)93_storage": {
						"encoding": "inplace",
						"label": "struct EventHub.EventInfo",
						"members": [
							{
								"astId": 81,
								"contract": "contracts/FlintEventHub.sol:EventHub",
								"label": "id",
								"offset": 0,
								"slot": "0",
								"type": "t_uint256"
							},
							{
								"astId": 83,
								"contract": "contracts/FlintEventHub.sol:EventHub",
								"label": "eventAddress",
								"offset": 0,
								"slot": "1",
								"type": "t_address"
							},
							{
								"astId": 85,
								"contract": "contracts/FlintEventHub.sol:EventHub",
								"label": "owner",
								"offset": 0,
								"slot": "2",
								"type": "t_address"
							},
							{
								"astId": 87,
								"contract": "contracts/FlintEventHub.sol:EventHub",
								"label": "title",
								"offset": 0,
								"slot": "3",
								"type": "t_string_storage"
							},
							{
								"astId": 90,
								"contract": "contracts/FlintEventHub.sol:EventHub",
								"label": "tags",
								"offset": 0,
								"slot": "4",
								"type": "t_array(t_string_storage)dyn_storage"
							},
							{
								"astId": 92,
								"contract": "contracts/FlintEventHub.sol:EventHub",
								"label": "timestamp",
								"offset": 0,
								"slot": "5",
								"type": "t_uint256"
							}
						],
						"numberOfBytes": "192"
					},
					"t_uint256": {
						"encoding": "inplace",
						"label": "uint256",
						"numberOfBytes": "32"
					}
				}
			},
			"userdoc": {
				"kind": "user",
				"methods": {},
				"version": 1
			}
		}
	}
}