{
	"data": {
		"bytecode": {
			"linkReferences": {},
			"object": "60a03461006c57601f61026d38819003918201601f19168301916001600160401b0383118484101761007057808492604094855283398101031261006c5780519060ff8216820361006c5760200151906080525f556040516101e8908161008582396080518161018e0152f35b5f80fd5b634e487b7160e01b5f52604160045260245ffdfe60806040908082526004361015610014575f80fd5b5f3560e01c908163313ce56714610177575080637284e416146100c25780638e15f473146100a5578063a87a20ce1461008d5763feaf968c14610055575f80fd5b34610089575f3660031901126100895760a0905f54908051915f8352602083015242908201524260608201525f6080820152f35b5f80fd5b34610089576020366003190112610089576004355f55005b5034610089575f366003190112610089576020905f549051908152f35b5034610089575f3660031901126100895780519080820182811067ffffffffffffffff8211176101635781526017825260207f4d6f636b204554482f555344205072696365204665656400000000000000000060208401528151928391602083528151918260208501525f5b83811061014d5750505f83830185015250601f01601f19168101030190f35b818101830151878201870152869450820161012e565b634e487b7160e01b5f52604160045260245ffd5b34610089575f3660031901126100895760209060ff7f0000000000000000000000000000000000000000000000000000000000000000168152f3fea264697066735822122076729a6301f74870d302490d1b16b7f0dc6bbd4f3943f8bc172f1c451ecedd6664736f6c63430008180033",
			"opcodes": "PUSH1 0xA0 CALLVALUE PUSH2 0x6C JUMPI PUSH1 0x1F PUSH2 0x26D CODESIZE DUP2 SWAP1 SUB SWAP2 DUP3 ADD PUSH1 0x1F NOT AND DUP4 ADD SWAP2 PUSH1 0x1 PUSH1 0x1 PUSH1 0x40 SHL SUB DUP4 GT DUP5 DUP5 LT OR PUSH2 0x70 JUMPI DUP1 DUP5 SWAP3 PUSH1 0x40 SWAP5 DUP6 MSTORE DUP4 CODECOPY DUP2 ADD SUB SLT PUSH2 0x6C JUMPI DUP1 MLOAD SWAP1 PUSH1 0xFF DUP3 AND DUP3 SUB PUSH2 0x6C JUMPI PUSH1 0x20 ADD MLOAD SWAP1 PUSH1 0x80 MSTORE PUSH0 SSTORE PUSH1 0x40 MLOAD PUSH2 0x1E8 SWAP1 DUP2 PUSH2 0x85 DUP3 CODECOPY PUSH1 0x80 MLOAD DUP2 PUSH2 0x18E ADD MSTORE RETURN JUMPDEST PUSH0 DUP1 REVERT JUMPDEST PUSH4 0x4E487B71 PUSH1 0xE0 SHL PUSH0 MSTORE PUSH1 0x41 PUSH1 0x4 MSTORE PUSH1 0x24 PUSH0 REVERT INVALID PUSH1 0x80 PUSH1 0x40 SWAP1 DUP1 DUP3 MSTORE PUSH1 0x4 CALLDATASIZE LT ISZERO PUSH2 0x14 JUMPI PUSH0 DUP1 REVERT JUMPDEST PUSH0 CALLDATALOAD PUSH1 0xE0 SHR SWAP1 DUP2 PUSH4 0x313CE567 EQ PUSH2 0x177 JUMPI POP DUP1 PUSH4 0x7284E416 EQ PUSH2 0xC2 JUMPI DUP1 PUSH4 0x8E15F473 EQ PUSH2 0xA5 JUMPI DUP1 PUSH4 0xA87A20CE EQ PUSH2 0x8D JUMPI PUSH4 0xFEAF968C EQ PUSH2 0x55 JUMPI PUSH0 DUP1 REVERT JUMPDEST CALLVALUE PUSH2 0x89 JUMPI PUSH0 CALLDATASIZE PUSH1 0x3 NOT ADD SLT PUSH2 0x89 JUMPI PUSH1 0xA0 SWAP1 PUSH0 SLOAD SWAP1 DUP1 MLOAD SWAP2 PUSH0 DUP4 MSTORE PUSH1 0x20 DUP4 ADD MSTORE TIMESTAMP SWAP1 DUP3 ADD MSTORE TIMESTAMP PUSH1 0x60 DUP3 ADD MSTORE PUSH0 PUSH1 0x80 DUP3 ADD MSTORE RETURN JUMPDEST PUSH0 DUP1 REVERT JUMPDEST CALLVALUE PUSH2 0x89 JUMPI PUSH1 0x20 CALLDATASIZE PUSH1 0x3 NOT ADD SLT PUSH2 0x89 JUMPI PUSH1 0x4 CALLDATALOAD PUSH0 SSTORE STOP JUMPDEST POP CALLVALUE PUSH2 0x89 JUMPI PUSH0 CALLDATASIZE PUSH1 0x3 NOT ADD SLT PUSH2 0x89 JUMPI PUSH1 0x20 SWAP1 PUSH0 SLOAD SWAP1 MLOAD SWAP1 DUP2 MSTORE RETURN JUMPDEST POP CALLVALUE PUSH2 0x89 JUMPI PUSH0 CALLDATASIZE PUSH1 0x3 NOT ADD SLT PUSH2 0x89 JUMPI DUP1 MLOAD SWAP1 DUP1 DUP3 ADD DUP3 DUP2 LT PUSH8 0xFFFFFFFFFFFFFFFF DUP3 GT OR PUSH2 0x163 JUMPI DUP2 MSTORE PUSH1 0x17 DUP3 MSTORE PUSH1 0x20 PUSH32 0x4D6F636B204554482F5553442050726963652046656564000000000000000000 PUSH1 0x20 DUP5 ADD MSTORE DUP2 MLOAD SWAP3 DUP4 SWAP2 PUSH1 0x20 DUP4 MSTORE DUP2 MLOAD SWAP2 DUP3 PUSH1 0x20 DUP6 ADD MSTORE PUSH0 JUMPDEST DUP4 DUP2 LT PUSH2 0x14D JUMPI POP POP PUSH0 DUP4 DUP4 ADD DUP6 ADD MSTORE POP PUSH1 0x1F ADD PUSH1 0x1F NOT AND DUP2 ADD SUB ADD SWAP1 RETURN JUMPDEST DUP2 DUP2 ADD DUP4 ADD MLOAD DUP8 DUP3 ADD DUP8 ADD MSTORE DUP7 SWAP5 POP DUP3 ADD PUSH2 0x12E JUMP JUMPDEST PUSH4 0x4E487B71 PUSH1 0xE0 SHL PUSH0 MSTORE PUSH1 0x41 PUSH1 0x4 MSTORE PUSH1 0x24 PUSH0 REVERT JUMPDEST CALLVALUE PUSH2 0x89 JUMPI PUSH0 CALLDATASIZE PUSH1 0x3 NOT ADD SLT PUSH2 0x89 JUMPI PUSH1 0x20 SWAP1 PUSH1 0xFF PUSH32 0x0 AND DUP2 MSTORE RETURN INVALID LOG2 PUSH5 0x6970667358 0x22 SLT KECCAK256 PUSH23 0x729A6301F74870D302490D1B16B7F0DC6BBD4F3943F8BC OR 0x2F SHR GASLIMIT 0x1E 0xCE 0xDD PUSH7 0x64736F6C634300 ADDMOD XOR STOP CALLER "
		},
		"gasEstimates": {
			"creation": {
				"codeDepositCost": "97600",
				"executionCost": "infinite",
				"totalCost": "infinite"
			},
			"external": {
				"decimals()": "infinite",
				"description()": "infinite",
				"getLatestPrice()": "2310",
				"latestRoundData()": "2420",
				"updateAnswer(int256)": "22310"
			}
		},
		"methodIdentifiers": {
			"decimals()": "313ce567",
			"description()": "7284e416",
			"getLatestPrice()": "8e15f473",
			"latestRoundData()": "feaf968c",
			"updateAnswer(int256)": "a87a20ce"
		}
	},
	"abi": [
		{
			"inputs": [
				{
					"internalType": "uint8",
					"name": "decimals_",
					"type": "uint8"
				},
				{
					"internalType": "int256",
					"name": "initialPrice",
					"type": "int256"
				}
			],
			"stateMutability": "nonpayable",
			"type": "constructor"
		},
		{
			"inputs": [],
			"name": "decimals",
			"outputs": [
				{
					"internalType": "uint8",
					"name": "",
					"type": "uint8"
				}
			],
			"stateMutability": "view",
			"type": "function"
		},
		{
			"inputs": [],
			"name": "description",
			"outputs": [
				{
					"internalType": "string",
					"name": "",
					"type": "string"
				}
			],
			"stateMutability": "pure",
			"type": "function"
		},
		{
			"inputs": [],
			"name": "getLatestPrice",
			"outputs": [
				{
					"internalType": "int256",
					"name": "",
					"type": "int256"
				}
			],
			"stateMutability": "view",
			"type": "function"
		},
		{
			"inputs": [],
			"name": "latestRoundData",
			"outputs": [
				{
					"internalType": "uint80",
					"name": "roundId",
					"type": "uint80"
				},
				{
					"internalType": "int256",
					"name": "answer",
					"type": "int256"
				},
				{
					"internalType": "uint256",
					"name": "startedAt",
					"type": "uint256"
				},
				{
					"internalType": "uint256",
					"name": "updatedAt",
					"type": "uint256"
				},
				{
					"internalType": "uint80",
					"name": "answeredInRound",
					"type": "uint80"
				}
			],
			"stateMutability": "view",
			"type": "function"
		},
		{
			"inputs": [
				{
					"internalType": "int256",
					"name": "newPrice",
					"type": "int256"
				}
			],
			"name": "updateAnswer",
			"outputs": [],
			"stateMutability": "nonpayable",
			"type": "function"
		}
	]
}