{
	"data": {
		"bytecode": {
			"linkReferences": {},
			"object": "60803461011857601f6121e238819003918201601f19168301916001600160401b0383118484101761011c5780849260a0946040528339810103126101185761004781610130565b9061005460208201610130565b9161006160408301610130565b91608061007060608301610130565b910151936001600160a01b039283169384156100d35783809260018060a01b031996875f5416175f553387600154161760015516856003541617600355168360045416176004551690600554161760055560025560405161209d90816101458239f35b60405162461bcd60e51b815260206004820152601360248201527f496e76616c6964206875622061646472657373000000000000000000000000006044820152606490fd5b5f80fd5b634e487b7160e01b5f52604160045260245ffd5b51906001600160a01b03821682036101185756fe608080604052600436101562000013575f80fd5b5f905f3560e01c9081632f48ab7d146200068a57508063365a86fc14620006615780633e413bee146200063757806342f6fb29146200060d57806375c99b3714620005b05780638da5cb5b1462000586578063b4583b8714620004c0578063c5bb09201462000172578063e2f2777b14620001525763f2fde38b1462000097575f80fd5b346200014f5760203660031901126200014f576004356001600160a01b03818116918290036200014b5760015490811690620000d58233146200072d565b821562000112576001600160a01b03191682176001557f8be0079c531659141344cd1fd0a4f28419497f9722a3daafe3b4186f6b6457e08380a380f35b60405162461bcd60e51b815260206004820152601160248201527024b73b30b634b2103732bb9037bbb732b960791b6044820152606490fd5b8280fd5b80fd5b50346200014f57806003193601126200014f576020600254604051908152f35b50346200048257610100366003190112620004825760043567ffffffffffffffff81116200048257620001aa903690600401620006d2565b60243567ffffffffffffffff81116200048257620001cd903690600401620006d2565b60643567ffffffffffffffff81116200048257620001f0903690600401620006d2565b6084359167ffffffffffffffff8311620004825736602384011215620004825782600401359267ffffffffffffffff841162000463578360051b90604051946200023e6020840187620006af565b85526024602086019282010190368211620004825760248101925b8284106200048c575050505060e43580155f146200048657506002545b600354600454600554604051956001600160a01b039384169493918216929091169067ffffffffffffffff61185d88019081119088111762000463576200031c6200033391620002f9899861185d6200080b8b3961018061185d8b01818152620002e291018e6200076a565b9061185d8b018203602061185d8d0101526200076a565b90604435604061185d8b01015261185d89018203606061185d8b0101526200076a565b61185d87018103608061185d8901015288620007aa565b933360a061185d8801015260a43560c061185d8801015260c43560e061185d8801015261010061185d8701015261012061185d8601015261014061185d8501015261016061185d8401015203905ff090811562000477575f546001600160a01b039283169216803b156200048257620003f25f92918392604051948580948193632d43646160e21b835289600484015233602484015260806044840152620003df608484018c6200076a565b83810360031901606485015290620007aa565b03925af18015620004775762000444575b507f0b7f785aa55ca4cc6ab9642527c7591314548602cd3f0034158e574b94bae42960405160208152806200043e339560208301906200076a565b0390a380f35b90925067ffffffffffffffff811162000463576040525f915f62000403565b634e487b7160e01b5f52604160045260245ffd5b6040513d5f823e3d90fd5b5f80fd5b62000276565b833567ffffffffffffffff81116200048257602091620004b4839260243691870101620006d2565b81520193019262000259565b346200048257602036600319011262000482576004356001600160a01b03818116918290036200048257620004fb816001541633146200072d565b811562000541575f54826bffffffffffffffffffffffff60a01b8216175f55167f9323d6a449fea8cc8c4a87f0ca2fd108a62f719afa87d0ab0aa5c50933742d305f80a3005b60405162461bcd60e51b815260206004820152601760248201527f496e76616c6964206e65772068756220616464726573730000000000000000006044820152606490fd5b3462000482575f36600319011262000482576001546040516001600160a01b039091168152602090f35b346200048257602036600319011262000482577fa1b7fe14aabd5aa4c4fe325670188552c5684c9d5d72a0f50dd696332da525ab60206004356200060060018060a01b036001541633146200072d565b80600255604051908152a1005b3462000482575f36600319011262000482576005546040516001600160a01b039091168152602090f35b3462000482575f36600319011262000482576003546040516001600160a01b039091168152602090f35b3462000482575f36600319011262000482575f546040516001600160a01b039091168152602090f35b3462000482575f36600319011262000482576004546001600160a01b03168152602090f35b90601f8019910116810190811067ffffffffffffffff8211176200046357604052565b81601f82011215620004825780359067ffffffffffffffff82116200046357604051926200070b601f8401601f191660200185620006af565b828452602083830101116200048257815f926020809301838601378301015290565b156200073557565b60405162461bcd60e51b815260206004820152600d60248201526c2737ba103a34329037bbb732b960991b6044820152606490fd5b91908251928382525f5b84811062000795575050825f602080949584010152601f8019910116010190565b60208183018101518483018201520162000774565b90808251908181526020809101926020808460051b8301019501935f915b848310620007d95750505050505090565b9091929394958480620007f9600193601f198682030187528a516200076a565b9801930193019194939290620007c856fe608060405234620006c4576200185d803803806200001d81620006c8565b928339810161018082820312620006c45781516001600160401b0390818111620006c457826200004f918501620006ee565b9260209283820151838111620006c457816200006d918401620006ee565b6040830151936060840151818111620006c457836200008e918601620006ee565b916080850151828111620006c457850191601f91858385011215620006c457835192828411620004c757899660059588620000ce87891b9d8e01620006c8565b809781520189819d83010192808411620006c4578a8301915b8483106200069b57505050505060a0880162000103906200075e565b9960c08901519760e08a01519a6101008b0162000120906200075e565b96620001306101208d016200075e565b99620001406101408e016200075e565b9c61016001519f805190898211620004c7576200015e5f5462000773565b8881116200066b575b50859088831160011462000603576200019892915f91836200037f575b50508160011b915f199060031b1c19161790565b5f555b8651888111620004c757600197620001b4895462000773565b888111620005d3575b5085908883116001146200057057620001ed92915f91836200037f5750508160011b915f199060031b1c19161790565b87555b600492600455805190888211620004c7576200020e60025462000773565b87811162000540575b508490878311600114620004db576200024792915f91836200037f5750508160011b915f199060031b1c19161790565b6002555b5193680100000000000000008511620004c757600393600354866003558087106200044a575b50939160035f52835f20925f955b87871062000315575050505050505050505060018060a01b0395869485938460018060a01b03199a168a8254161790556006556007551685600b541617600b551683600c541617600c551690600d541617600d55670de0b6b3a76400009081810291818304149015171562000301576008556040516110969081620007c78239f35b634e487b7160e01b5f52601160045260245ffd5b80519081518b811162000437578a9188918f620003338a5462000773565b898111620003fc575b505082948882116001146200038b57908085966200036f935f926200037f5750508160011b915f199060031b1c19161790565b88555b019501960195936200027f565b015190505f8062000184565b94601f198216908a5f52845f20915f5b818110620003d95750908697848895949310620003c1575b505050811b01885562000372565b01515f19838a1b60f8161c191690555f8080620003b3565b9497939686929691938786015181550195019301928b94918f969397946200039b565b62000425918b5f52855f20908b808601821c8301938887106200042d575b01901c0190620007ae565b8f5f6200033c565b935082936200041a565b604185634e487b7160e01b5f525260245ffd5b60035f528787865f2092830192015b8281106200046957505062000271565b8c62000476825462000773565b8062000488575b505001889062000459565b868111600114620004a15750505f81555b8c5f6200047d565b620004bd5f92848452888b85209301901c8201858301620007ae565b8183555562000499565b634e487b7160e01b5f52604160045260245ffd5b889291601f1983169160025f52875f20925f5b8982821062000529575050841162000510575b505050811b016002556200024b565b01515f1960f88460031b161c191690555f808062000501565b8385015186558d97909501949384019301620004ee565b620005699060025f52865f208d8a808701821c8301938a88106200042d5701901c0190620007ae565b5f62000217565b899291601f19831691845f52885f20925f5b8a828210620005bc5750508411620005a3575b505050811b018755620001f0565b01515f1960f88460031b161c191690555f808062000595565b8385015186558e9790950194938401930162000582565b620005fc908a5f528d885f20908b808701821c8301938b88106200042d5701901c0190620007ae565b5f620001bd565b90601f198316915f8052875f20925f5b89828210620006545750509084600195949392106200063b575b505050811b015f556200019b565b01515f1960f88460031b161c191690555f80806200062d565b600185968293968601518155019501930162000613565b62000694905f80528d885f20908b808701821c8301938b88106200042d5701901c0190620007ae565b5f62000167565b8251888111620006c4578c91620006b884848094890101620006ee565b815201920191620000e7565b5f80fd5b6040519190601f01601f191682016001600160401b03811183821017620004c757604052565b919080601f84011215620006c45782516001600160401b038111620004c75760209062000724601f8201601f19168301620006c8565b92818452828287010111620006c4575f5b8181106200074a5750825f9394955001015290565b858101830151848201840152820162000735565b51906001600160a01b0382168203620006c457565b90600182811c92168015620007a3575b60208310146200078f57565b634e487b7160e01b5f52602260045260245ffd5b91607f169162000783565b818110620007ba575050565b5f8155600101620007ae56fe6080604090808252600480361015610015575f80fd5b5f3560e01c9182630a09284a14610c11575081631030c51e14610bf357816320822abc14610b8f5781632f48ab7d14610b675781633ccfd60b146108995781633e413bee1461087157816342f6fb29146108495781634a79d50c1461079c578163516f279e146106eb5781635f3d7fa1146106cf5781636cad25901461068f5781637038f1571461058d5781637284e416146104a857816374bdc4bf146104205781638da5cb5b146103f857816399c5296e146102d8578163ab42300d14610160578163af46868214610142578163b8f34d9e1461011d575063f1adda47146100fc575f80fd5b34610119575f366003190112610119576020906009549051908152f35b5f80fd5b82346101195760203660031901126101195761013b60209235610f3f565b9051908152f35b8234610119575f366003190112610119576020906006549051908152f35b90505f36600319011261011957335f52602090600a825261018760ff845f20541615610db2565b610195600954825411610def565b6101a0600854610f3f565b34106102a45750335f52600a8152815f209060019260ff19926001848254161790556101cd600954610e5f565b6009558051928284525f945f546101e381610c2b565b9283868801526001821691825f1461027b575050600114610215575b335f8051602061104183398151915286880387a2005b5f80805295509192917f290decd9548b62a8d60345a988386fc84ba6bc95484008f6362f93160ef3e5635b828710610268575050505081925f8051602061104183398151915292010191905f80806101ff565b8054868801860152958301958101610240565b16868501525050151560051b83010192505f8051602061104183398151915290505f80806101ff565b915162461bcd60e51b815291820152601060248201526f092dce6eaccccd2c6d2cadce8408aa8960831b6044820152606490fd5b905034610119575f36600319011261011957602061036091335f52600a825261030760ff855f20541615610db2565b610315600954825411610def565b600854600b5485516323b872dd60e01b81523393810193845230602085015264e8d4a510009092046040840152909384926001600160a01b039092169183915f918391606090910190565b03925af180156103ee5761037b915f916103bf575b50610e21565b335f52600a602052805f20600160ff1982541617905561039c600954610e5f565b600955515f805160206110418339815191523391806103ba81610e6d565b0390a2005b6103e1915060203d6020116103e7575b6103d98183610c63565b810190610d79565b5f610375565b503d6103cf565b82513d5f823e3d90fd5b8234610119575f3660031901126101195760055490516001600160a01b039091168152602090f35b905034610119575f36600319011261011957602061036091335f52600a825261044f60ff855f20541615610db2565b61045d600954825411610def565b600854600c5485516323b872dd60e01b81523393810193845230602085015264e8d4a510009092046040840152909384926001600160a01b039092169183915f918391606090910190565b8234610119575f3660031901126101195780516002549091825f6104cb84610c2b565b808352602094600190866001821691825f1461056b575050600114610510575b505061050c92916104fd910385610c63565b51928284938452830190610d3b565b0390f35b9085925060025f527f405787fa12a823e0f2b7631cc41b3ba8828b3321ca811111fa75cd3aa3bb5ace915f925b82841061055357505050820101816104fd6104eb565b8054848a01860152889550879490930192810161053d565b60ff19168682015292151560051b850190920192508391506104fd90506104eb565b905034610119575f366003190112610119576003549067ffffffffffffffff821161067c57506020908251916105c8818360051b0184610c63565b818352808301918260035f527fc2575a0e9e593c00f959f8c92f12db2869c3395a3b0502d05e2516446f71f85b5f915b83831061065a57505050508351928184019082855251809152848401948160051b85010192915f955b82871061062e5785850386f35b90919293828061064a600193603f198a82030186528851610d3b565b9601920196019592919092610621565b600185819261066b859a989a610c99565b8152019201920191909593956105f8565b604190634e487b7160e01b5f525260245ffd5b90503461011957602036600319011261011957356001600160a01b0381169190829003610119576020915f52600a825260ff815f20541690519015158152f35b8234610119575f36600319011261011957602091549051908152f35b8234610119575f366003190112610119578051905f90826001926001549361071285610c2b565b90818452602095866001821691825f1461056b57505060011461074157505061050c92916104fd910385610c63565b9085925060015f527fb10e2d527612073b26eecdfd717e6a320cf44b4afac2b0732d9fcbe2b7fa0cf6915f925b82841061078457505050820101816104fd6104eb565b8054848a01860152889550879490930192810161076e565b8234610119575f366003190112610119578051905f90825f54926107bf84610c2b565b808352602094600190866001821691825f1461056b5750506001146107f057505061050c92916104fd910385610c63565b5f80805286935091907f290decd9548b62a8d60345a988386fc84ba6bc95484008f6362f93160ef3e5635b82841061083157505050820101816104fd6104eb565b8054848a01860152889550879490930192810161081b565b8234610119575f36600319011261011957600d5490516001600160a01b039091168152602090f35b8234610119575f36600319011261011957600b5490516001600160a01b039091168152602090f35b905034610119575f366003190112610119576005546001600160a01b03908116919033839003610b3457479281600b54169185519384926370a0823160e01b94858552308386015284602460209889935afa938415610a9c575f94610b05575b508583600c54169560248a5180988193825230878301525afa948515610a9c575f95610ad6575b50868015918215610aa6575b50505082610a2d575b8361097f575b5091610972610977927f884edad9ce6fa2440d8a54cc123490eb96d2768479d49ff9c7366125a94243649697946005541697610d91565b610d91565b9051908152a2005b600c54600554885163a9059cbb60e01b81529084166001600160a01b03169281019283526020830186905291869183919085169082905f90829060400103925af18015610a2357927f884edad9ce6fa2440d8a54cc123490eb96d2768479d49ff9c7366125a9424364969794926109729261097795610a06575b509294979650925061093b565b610a1c90883d8a116103e7576103d98183610c63565b505f6109f9565b87513d5f823e3d90fd5b600b54600554885163a9059cbb60e01b81529084166001600160a01b03168382019081526020810186905290918791839186169082905f90829060400103925af18015610a9c57610a7f575b50610935565b610a9590863d88116103e7576103d98183610c63565b505f610a79565b88513d5f823e3d90fd5b5f928392839283928390610acd575bf115610ac3575f868161092c565b86513d5f823e3d90fd5b506108fc610ab5565b9094508581813d8311610afe575b610aee8183610c63565b810103126101195751935f610920565b503d610ae4565b9093508581813d8311610b2d575b610b1d8183610c63565b810103126101195751925f6108f9565b503d610b13565b835162461bcd60e51b8152602081840152600d60248201526c2737ba103a34329037bbb732b960991b6044820152606490fd5b8234610119575f36600319011261011957600c5490516001600160a01b039091168152602090f35b90503461011957602036600319011261011957359060035482101561011957610be061050c9260035f527fc2575a0e9e593c00f959f8c92f12db2869c3395a3b0502d05e2516446f71f85b01610c99565b9051918291602083526020830190610d3b565b8234610119575f366003190112610119576020906008549051908152f35b34610119575f366003190112610119576020906007548152f35b90600182811c92168015610c59575b6020831014610c4557565b634e487b7160e01b5f52602260045260245ffd5b91607f1691610c3a565b90601f8019910116810190811067ffffffffffffffff821117610c8557604052565b634e487b7160e01b5f52604160045260245ffd5b9060405191825f8254610cab81610c2b565b908184526020946001916001811690815f14610d195750600114610cdb575b505050610cd992500383610c63565b565b5f90815285812095935091905b818310610d01575050610cd993508201015f8080610cca565b85548884018501529485019487945091830191610ce8565b92505050610cd994925060ff191682840152151560051b8201015f8080610cca565b91908251928382525f5b848110610d65575050825f602080949584010152601f8019910116010190565b602081830181015184830182015201610d45565b90816020910312610119575180151581036101195790565b91908201809211610d9e57565b634e487b7160e01b5f52601160045260245ffd5b15610db957565b60405162461bcd60e51b815260206004820152600e60248201526d105b1c9958591e481a9bda5b995960921b6044820152606490fd5b15610df657565b606460405162461bcd60e51b8152602060048201526004602482015263119d5b1b60e21b6044820152fd5b15610e2857565b60405162461bcd60e51b815260206004820152600f60248201526e151c985b9cd9995c8819985a5b1959608a1b6044820152606490fd5b5f198114610d9e5760010190565b60208082525f915f5490610e8082610c2b565b9182602083015260406001916001811690815f14610f055750600114610ea9575b505050505090565b5f808052949695509192917f290decd9548b62a8d60345a988386fc84ba6bc95484008f6362f93160ef3e5635b838610610ef25750505050604092935001015f80808080610ea1565b8054858701830152948701948201610ed6565b9395505050506040935060ff191683830152151560051b01015f80808080610ea1565b519069ffffffffffffffffffff8216820361011957565b600d54604051633fabe5a360e21b8152919060a090839060049082906001600160a01b03165afa918215611035575f92610fe6575b505f821315610fb1576305f5e10090818102918183041490151715610d9e578115610f9d570490565b634e487b7160e01b5f52601260045260245ffd5b60405162461bcd60e51b815260206004820152600d60248201526c496e76616c696420707269636560981b6044820152606490fd5b90915060a0813d60a01161102d575b8161100260a09383610c63565b810103126101195761101381610f28565b50611025608060208301519201610f28565b50905f610f74565b3d9150610ff5565b6040513d5f823e3d90fdfe099b41ef7710e47b6754d8ef11fe3ba8a88a70832b121b27d49884654df95d5ea264697066735822122014d79a5c752ed0150d41edb2a46dad4afbed9381c9bcd3269469f8997b23ada764736f6c63430008180033a264697066735822122068c63394392af0cd70725b9b906a1eda5ea125226f25ab087700386717d3339c64736f6c63430008180033",
			"opcodes": "PUSH1 0x80 CALLVALUE PUSH2 0x118 JUMPI PUSH1 0x1F PUSH2 0x21E2 CODESIZE DUP2 SWAP1 SUB SWAP2 DUP3 ADD PUSH1 0x1F NOT AND DUP4 ADD SWAP2 PUSH1 0x1 PUSH1 0x1 PUSH1 0x40 SHL SUB DUP4 GT DUP5 DUP5 LT OR PUSH2 0x11C JUMPI DUP1 DUP5 SWAP3 PUSH1 0xA0 SWAP5 PUSH1 0x40 MSTORE DUP4 CODECOPY DUP2 ADD SUB SLT PUSH2 0x118 JUMPI PUSH2 0x47 DUP2 PUSH2 0x130 JUMP JUMPDEST SWAP1 PUSH2 0x54 PUSH1 0x20 DUP3 ADD PUSH2 0x130 JUMP JUMPDEST SWAP2 PUSH2 0x61 PUSH1 0x40 DUP4 ADD PUSH2 0x130 JUMP JUMPDEST SWAP2 PUSH1 0x80 PUSH2 0x70 PUSH1 0x60 DUP4 ADD PUSH2 0x130 JUMP JUMPDEST SWAP2 ADD MLOAD SWAP4 PUSH1 0x1 PUSH1 0x1 PUSH1 0xA0 SHL SUB SWAP3 DUP4 AND SWAP4 DUP5 ISZERO PUSH2 0xD3 JUMPI DUP4 DUP1 SWAP3 PUSH1 0x1 DUP1 PUSH1 0xA0 SHL SUB NOT SWAP7 DUP8 PUSH0 SLOAD AND OR PUSH0 SSTORE CALLER DUP8 PUSH1 0x1 SLOAD AND OR PUSH1 0x1 SSTORE AND DUP6 PUSH1 0x3 SLOAD AND OR PUSH1 0x3 SSTORE AND DUP4 PUSH1 0x4 SLOAD AND OR PUSH1 0x4 SSTORE AND SWAP1 PUSH1 0x5 SLOAD AND OR PUSH1 0x5 SSTORE PUSH1 0x2 SSTORE PUSH1 0x40 MLOAD PUSH2 0x209D SWAP1 DUP2 PUSH2 0x145 DUP3 CODECOPY RETURN JUMPDEST PUSH1 0x40 MLOAD PUSH3 0x461BCD PUSH1 0xE5 SHL DUP2 MSTORE PUSH1 0x20 PUSH1 0x4 DUP3 ADD MSTORE PUSH1 0x13 PUSH1 0x24 DUP3 ADD MSTORE PUSH32 0x496E76616C696420687562206164647265737300000000000000000000000000 PUSH1 0x44 DUP3 ADD MSTORE PUSH1 0x64 SWAP1 REVERT JUMPDEST PUSH0 DUP1 REVERT JUMPDEST PUSH4 0x4E487B71 PUSH1 0xE0 SHL PUSH0 MSTORE PUSH1 0x41 PUSH1 0x4 MSTORE PUSH1 0x24 PUSH0 REVERT JUMPDEST MLOAD SWAP1 PUSH1 0x1 PUSH1 0x1 PUSH1 0xA0 SHL SUB DUP3 AND DUP3 SUB PUSH2 0x118 JUMPI JUMP INVALID PUSH1 0x80 DUP1 PUSH1 0x40 MSTORE PUSH1 0x4 CALLDATASIZE LT ISZERO PUSH3 0x13 JUMPI PUSH0 DUP1 REVERT JUMPDEST PUSH0 SWAP1 PUSH0 CALLDATALOAD PUSH1 0xE0 SHR SWAP1 DUP2 PUSH4 0x2F48AB7D EQ PUSH3 0x68A JUMPI POP DUP1 PUSH4 0x365A86FC EQ PUSH3 0x661 JUMPI DUP1 PUSH4 0x3E413BEE EQ PUSH3 0x637 JUMPI DUP1 PUSH4 0x42F6FB29 EQ PUSH3 0x60D JUMPI DUP1 PUSH4 0x75C99B37 EQ PUSH3 0x5B0 JUMPI DUP1 PUSH4 0x8DA5CB5B EQ PUSH3 0x586 JUMPI DUP1 PUSH4 0xB4583B87 EQ PUSH3 0x4C0 JUMPI DUP1 PUSH4 0xC5BB0920 EQ PUSH3 0x172 JUMPI DUP1 PUSH4 0xE2F2777B EQ PUSH3 0x152 JUMPI PUSH4 0xF2FDE38B EQ PUSH3 0x97 JUMPI PUSH0 DUP1 REVERT JUMPDEST CALLVALUE PUSH3 0x14F JUMPI PUSH1 0x20 CALLDATASIZE PUSH1 0x3 NOT ADD SLT PUSH3 0x14F JUMPI PUSH1 0x4 CALLDATALOAD PUSH1 0x1 PUSH1 0x1 PUSH1 0xA0 SHL SUB DUP2 DUP2 AND SWAP2 DUP3 SWAP1 SUB PUSH3 0x14B JUMPI PUSH1 0x1 SLOAD SWAP1 DUP2 AND SWAP1 PUSH3 0xD5 DUP3 CALLER EQ PUSH3 0x72D JUMP JUMPDEST DUP3 ISZERO PUSH3 0x112 JUMPI PUSH1 0x1 PUSH1 0x1 PUSH1 0xA0 SHL SUB NOT AND DUP3 OR PUSH1 0x1 SSTORE PUSH32 0x8BE0079C531659141344CD1FD0A4F28419497F9722A3DAAFE3B4186F6B6457E0 DUP4 DUP1 LOG3 DUP1 RETURN JUMPDEST PUSH1 0x40 MLOAD PUSH3 0x461BCD PUSH1 0xE5 SHL DUP2 MSTORE PUSH1 0x20 PUSH1 0x4 DUP3 ADD MSTORE PUSH1 0x11 PUSH1 0x24 DUP3 ADD MSTORE PUSH17 0x24B73B30B634B2103732BB9037BBB732B9 PUSH1 0x79 SHL PUSH1 0x44 DUP3 ADD MSTORE PUSH1 0x64 SWAP1 REVERT JUMPDEST DUP3 DUP1 REVERT JUMPDEST DUP1 REVERT JUMPDEST POP CALLVALUE PUSH3 0x14F JUMPI DUP1 PUSH1 0x3 NOT CALLDATASIZE ADD SLT PUSH3 0x14F JUMPI PUSH1 0x20 PUSH1 0x2 SLOAD PUSH1 0x40 MLOAD SWAP1 DUP2 MSTORE RETURN JUMPDEST POP CALLVALUE PUSH3 0x482 JUMPI PUSH2 0x100 CALLDATASIZE PUSH1 0x3 NOT ADD SLT PUSH3 0x482 JUMPI PUSH1 0x4 CALLDATALOAD PUSH8 0xFFFFFFFFFFFFFFFF DUP2 GT PUSH3 0x482 JUMPI PUSH3 0x1AA SWAP1 CALLDATASIZE SWAP1 PUSH1 0x4 ADD PUSH3 0x6D2 JUMP JUMPDEST PUSH1 0x24 CALLDATALOAD PUSH8 0xFFFFFFFFFFFFFFFF DUP2 GT PUSH3 0x482 JUMPI PUSH3 0x1CD SWAP1 CALLDATASIZE SWAP1 PUSH1 0x4 ADD PUSH3 0x6D2 JUMP JUMPDEST PUSH1 0x64 CALLDATALOAD PUSH8 0xFFFFFFFFFFFFFFFF DUP2 GT PUSH3 0x482 JUMPI PUSH3 0x1F0 SWAP1 CALLDATASIZE SWAP1 PUSH1 0x4 ADD PUSH3 0x6D2 JUMP JUMPDEST PUSH1 0x84 CALLDATALOAD SWAP2 PUSH8 0xFFFFFFFFFFFFFFFF DUP4 GT PUSH3 0x482 JUMPI CALLDATASIZE PUSH1 0x23 DUP5 ADD SLT ISZERO PUSH3 0x482 JUMPI DUP3 PUSH1 0x4 ADD CALLDATALOAD SWAP3 PUSH8 0xFFFFFFFFFFFFFFFF DUP5 GT PUSH3 0x463 JUMPI DUP4 PUSH1 0x5 SHL SWAP1 PUSH1 0x40 MLOAD SWAP5 PUSH3 0x23E PUSH1 0x20 DUP5 ADD DUP8 PUSH3 0x6AF JUMP JUMPDEST DUP6 MSTORE PUSH1 0x24 PUSH1 0x20 DUP7 ADD SWAP3 DUP3 ADD ADD SWAP1 CALLDATASIZE DUP3 GT PUSH3 0x482 JUMPI PUSH1 0x24 DUP2 ADD SWAP3 JUMPDEST DUP3 DUP5 LT PUSH3 0x48C JUMPI POP POP POP POP PUSH1 0xE4 CALLDATALOAD DUP1 ISZERO PUSH0 EQ PUSH3 0x486 JUMPI POP PUSH1 0x2 SLOAD JUMPDEST PUSH1 0x3 SLOAD PUSH1 0x4 SLOAD PUSH1 0x5 SLOAD PUSH1 0x40 MLOAD SWAP6 PUSH1 0x1 PUSH1 0x1 PUSH1 0xA0 SHL SUB SWAP4 DUP5 AND SWAP5 SWAP4 SWAP2 DUP3 AND SWAP3 SWAP1 SWAP2 AND SWAP1 PUSH8 0xFFFFFFFFFFFFFFFF PUSH2 0x185D DUP9 ADD SWAP1 DUP2 GT SWAP1 DUP9 GT OR PUSH3 0x463 JUMPI PUSH3 0x31C PUSH3 0x333 SWAP2 PUSH3 0x2F9 DUP10 SWAP9 PUSH2 0x185D PUSH3 0x80B DUP12 CODECOPY PUSH2 0x180 PUSH2 0x185D DUP12 ADD DUP2 DUP2 MSTORE PUSH3 0x2E2 SWAP2 ADD DUP15 PUSH3 0x76A JUMP JUMPDEST SWAP1 PUSH2 0x185D DUP12 ADD DUP3 SUB PUSH1 0x20 PUSH2 0x185D DUP14 ADD ADD MSTORE PUSH3 0x76A JUMP JUMPDEST SWAP1 PUSH1 0x44 CALLDATALOAD PUSH1 0x40 PUSH2 0x185D DUP12 ADD ADD MSTORE PUSH2 0x185D DUP10 ADD DUP3 SUB PUSH1 0x60 PUSH2 0x185D DUP12 ADD ADD MSTORE PUSH3 0x76A JUMP JUMPDEST PUSH2 0x185D DUP8 ADD DUP2 SUB PUSH1 0x80 PUSH2 0x185D DUP10 ADD ADD MSTORE DUP9 PUSH3 0x7AA JUMP JUMPDEST SWAP4 CALLER PUSH1 0xA0 PUSH2 0x185D DUP9 ADD ADD MSTORE PUSH1 0xA4 CALLDATALOAD PUSH1 0xC0 PUSH2 0x185D DUP9 ADD ADD MSTORE PUSH1 0xC4 CALLDATALOAD PUSH1 0xE0 PUSH2 0x185D DUP9 ADD ADD MSTORE PUSH2 0x100 PUSH2 0x185D DUP8 ADD ADD MSTORE PUSH2 0x120 PUSH2 0x185D DUP7 ADD ADD MSTORE PUSH2 0x140 PUSH2 0x185D DUP6 ADD ADD MSTORE PUSH2 0x160 PUSH2 0x185D DUP5 ADD ADD MSTORE SUB SWAP1 PUSH0 CREATE SWAP1 DUP2 ISZERO PUSH3 0x477 JUMPI PUSH0 SLOAD PUSH1 0x1 PUSH1 0x1 PUSH1 0xA0 SHL SUB SWAP3 DUP4 AND SWAP3 AND DUP1 EXTCODESIZE ISZERO PUSH3 0x482 JUMPI PUSH3 0x3F2 PUSH0 SWAP3 SWAP2 DUP4 SWAP3 PUSH1 0x40 MLOAD SWAP5 DUP6 DUP1 SWAP5 DUP2 SWAP4 PUSH4 0x2D436461 PUSH1 0xE2 SHL DUP4 MSTORE DUP10 PUSH1 0x4 DUP5 ADD MSTORE CALLER PUSH1 0x24 DUP5 ADD MSTORE PUSH1 0x80 PUSH1 0x44 DUP5 ADD MSTORE PUSH3 0x3DF PUSH1 0x84 DUP5 ADD DUP13 PUSH3 0x76A JUMP JUMPDEST DUP4 DUP2 SUB PUSH1 0x3 NOT ADD PUSH1 0x64 DUP6 ADD MSTORE SWAP1 PUSH3 0x7AA JUMP JUMPDEST SUB SWAP3 GAS CALL DUP1 ISZERO PUSH3 0x477 JUMPI PUSH3 0x444 JUMPI JUMPDEST POP PUSH32 0xB7F785AA55CA4CC6AB9642527C7591314548602CD3F0034158E574B94BAE429 PUSH1 0x40 MLOAD PUSH1 0x20 DUP2 MSTORE DUP1 PUSH3 0x43E CALLER SWAP6 PUSH1 0x20 DUP4 ADD SWAP1 PUSH3 0x76A JUMP JUMPDEST SUB SWAP1 LOG3 DUP1 RETURN JUMPDEST SWAP1 SWAP3 POP PUSH8 0xFFFFFFFFFFFFFFFF DUP2 GT PUSH3 0x463 JUMPI PUSH1 0x40 MSTORE PUSH0 SWAP2 PUSH0 PUSH3 0x403 JUMP JUMPDEST PUSH4 0x4E487B71 PUSH1 0xE0 SHL PUSH0 MSTORE PUSH1 0x41 PUSH1 0x4 MSTORE PUSH1 0x24 PUSH0 REVERT JUMPDEST PUSH1 0x40 MLOAD RETURNDATASIZE PUSH0 DUP3 RETURNDATACOPY RETURNDATASIZE SWAP1 REVERT JUMPDEST PUSH0 DUP1 REVERT JUMPDEST PUSH3 0x276 JUMP JUMPDEST DUP4 CALLDATALOAD PUSH8 0xFFFFFFFFFFFFFFFF DUP2 GT PUSH3 0x482 JUMPI PUSH1 0x20 SWAP2 PUSH3 0x4B4 DUP4 SWAP3 PUSH1 0x24 CALLDATASIZE SWAP2 DUP8 ADD ADD PUSH3 0x6D2 JUMP JUMPDEST DUP2 MSTORE ADD SWAP4 ADD SWAP3 PUSH3 0x259 JUMP JUMPDEST CALLVALUE PUSH3 0x482 JUMPI PUSH1 0x20 CALLDATASIZE PUSH1 0x3 NOT ADD SLT PUSH3 0x482 JUMPI PUSH1 0x4 CALLDATALOAD PUSH1 0x1 PUSH1 0x1 PUSH1 0xA0 SHL SUB DUP2 DUP2 AND SWAP2 DUP3 SWAP1 SUB PUSH3 0x482 JUMPI PUSH3 0x4FB DUP2 PUSH1 0x1 SLOAD AND CALLER EQ PUSH3 0x72D JUMP JUMPDEST DUP2 ISZERO PUSH3 0x541 JUMPI PUSH0 SLOAD DUP3 PUSH12 0xFFFFFFFFFFFFFFFFFFFFFFFF PUSH1 0xA0 SHL DUP3 AND OR PUSH0 SSTORE AND PUSH32 0x9323D6A449FEA8CC8C4A87F0CA2FD108A62F719AFA87D0AB0AA5C50933742D30 PUSH0 DUP1 LOG3 STOP JUMPDEST PUSH1 0x40 MLOAD PUSH3 0x461BCD PUSH1 0xE5 SHL DUP2 MSTORE PUSH1 0x20 PUSH1 0x4 DUP3 ADD MSTORE PUSH1 0x17 PUSH1 0x24 DUP3 ADD MSTORE PUSH32 0x496E76616C6964206E6577206875622061646472657373000000000000000000 PUSH1 0x44 DUP3 ADD MSTORE PUSH1 0x64 SWAP1 REVERT JUMPDEST CALLVALUE PUSH3 0x482 JUMPI PUSH0 CALLDATASIZE PUSH1 0x3 NOT ADD SLT PUSH3 0x482 JUMPI PUSH1 0x1 SLOAD PUSH1 0x40 MLOAD PUSH1 0x1 PUSH1 0x1 PUSH1 0xA0 SHL SUB SWAP1 SWAP2 AND DUP2 MSTORE PUSH1 0x20 SWAP1 RETURN JUMPDEST CALLVALUE PUSH3 0x482 JUMPI PUSH1 0x20 CALLDATASIZE PUSH1 0x3 NOT ADD SLT PUSH3 0x482 JUMPI PUSH32 0xA1B7FE14AABD5AA4C4FE325670188552C5684C9D5D72A0F50DD696332DA525AB PUSH1 0x20 PUSH1 0x4 CALLDATALOAD PUSH3 0x600 PUSH1 0x1 DUP1 PUSH1 0xA0 SHL SUB PUSH1 0x1 SLOAD AND CALLER EQ PUSH3 0x72D JUMP JUMPDEST DUP1 PUSH1 0x2 SSTORE PUSH1 0x40 MLOAD SWAP1 DUP2 MSTORE LOG1 STOP JUMPDEST CALLVALUE PUSH3 0x482 JUMPI PUSH0 CALLDATASIZE PUSH1 0x3 NOT ADD SLT PUSH3 0x482 JUMPI PUSH1 0x5 SLOAD PUSH1 0x40 MLOAD PUSH1 0x1 PUSH1 0x1 PUSH1 0xA0 SHL SUB SWAP1 SWAP2 AND DUP2 MSTORE PUSH1 0x20 SWAP1 RETURN JUMPDEST CALLVALUE PUSH3 0x482 JUMPI PUSH0 CALLDATASIZE PUSH1 0x3 NOT ADD SLT PUSH3 0x482 JUMPI PUSH1 0x3 SLOAD PUSH1 0x40 MLOAD PUSH1 0x1 PUSH1 0x1 PUSH1 0xA0 SHL SUB SWAP1 SWAP2 AND DUP2 MSTORE PUSH1 0x20 SWAP1 RETURN JUMPDEST CALLVALUE PUSH3 0x482 JUMPI PUSH0 CALLDATASIZE PUSH1 0x3 NOT ADD SLT PUSH3 0x482 JUMPI PUSH0 SLOAD PUSH1 0x40 MLOAD PUSH1 0x1 PUSH1 0x1 PUSH1 0xA0 SHL SUB SWAP1 SWAP2 AND DUP2 MSTORE PUSH1 0x20 SWAP1 RETURN JUMPDEST CALLVALUE PUSH3 0x482 JUMPI PUSH0 CALLDATASIZE PUSH1 0x3 NOT ADD SLT PUSH3 0x482 JUMPI PUSH1 0x4 SLOAD PUSH1 0x1 PUSH1 0x1 PUSH1 0xA0 SHL SUB AND DUP2 MSTORE PUSH1 0x20 SWAP1 RETURN JUMPDEST SWAP1 PUSH1 0x1F DUP1 NOT SWAP2 ADD AND DUP2 ADD SWAP1 DUP2 LT PUSH8 0xFFFFFFFFFFFFFFFF DUP3 GT OR PUSH3 0x463 JUMPI PUSH1 0x40 MSTORE JUMP JUMPDEST DUP2 PUSH1 0x1F DUP3 ADD SLT ISZERO PUSH3 0x482 JUMPI DUP1 CALLDATALOAD SWAP1 PUSH8 0xFFFFFFFFFFFFFFFF DUP3 GT PUSH3 0x463 JUMPI PUSH1 0x40 MLOAD SWAP3 PUSH3 0x70B PUSH1 0x1F DUP5 ADD PUSH1 0x1F NOT AND PUSH1 0x20 ADD DUP6 PUSH3 0x6AF JUMP JUMPDEST DUP3 DUP5 MSTORE PUSH1 0x20 DUP4 DUP4 ADD ADD GT PUSH3 0x482 JUMPI DUP2 PUSH0 SWAP3 PUSH1 0x20 DUP1 SWAP4 ADD DUP4 DUP7 ADD CALLDATACOPY DUP4 ADD ADD MSTORE SWAP1 JUMP JUMPDEST ISZERO PUSH3 0x735 JUMPI JUMP JUMPDEST PUSH1 0x40 MLOAD PUSH3 0x461BCD PUSH1 0xE5 SHL DUP2 MSTORE PUSH1 0x20 PUSH1 0x4 DUP3 ADD MSTORE PUSH1 0xD PUSH1 0x24 DUP3 ADD MSTORE PUSH13 0x2737BA103A34329037BBB732B9 PUSH1 0x99 SHL PUSH1 0x44 DUP3 ADD MSTORE PUSH1 0x64 SWAP1 REVERT JUMPDEST SWAP2 SWAP1 DUP3 MLOAD SWAP3 DUP4 DUP3 MSTORE PUSH0 JUMPDEST DUP5 DUP2 LT PUSH3 0x795 JUMPI POP POP DUP3 PUSH0 PUSH1 0x20 DUP1 SWAP5 SWAP6 DUP5 ADD ADD MSTORE PUSH1 0x1F DUP1 NOT SWAP2 ADD AND ADD ADD SWAP1 JUMP JUMPDEST PUSH1 0x20 DUP2 DUP4 ADD DUP2 ADD MLOAD DUP5 DUP4 ADD DUP3 ADD MSTORE ADD PUSH3 0x774 JUMP JUMPDEST SWAP1 DUP1 DUP3 MLOAD SWAP1 DUP2 DUP2 MSTORE PUSH1 0x20 DUP1 SWAP2 ADD SWAP3 PUSH1 0x20 DUP1 DUP5 PUSH1 0x5 SHL DUP4 ADD ADD SWAP6 ADD SWAP4 PUSH0 SWAP2 JUMPDEST DUP5 DUP4 LT PUSH3 0x7D9 JUMPI POP POP POP POP POP POP SWAP1 JUMP JUMPDEST SWAP1 SWAP2 SWAP3 SWAP4 SWAP5 SWAP6 DUP5 DUP1 PUSH3 0x7F9 PUSH1 0x1 SWAP4 PUSH1 0x1F NOT DUP7 DUP3 SUB ADD DUP8 MSTORE DUP11 MLOAD PUSH3 0x76A JUMP JUMPDEST SWAP9 ADD SWAP4 ADD SWAP4 ADD SWAP2 SWAP5 SWAP4 SWAP3 SWAP1 PUSH3 0x7C8 JUMP INVALID PUSH1 0x80 PUSH1 0x40 MSTORE CALLVALUE PUSH3 0x6C4 JUMPI PUSH3 0x185D DUP1 CODESIZE SUB DUP1 PUSH3 0x1D DUP2 PUSH3 0x6C8 JUMP JUMPDEST SWAP3 DUP4 CODECOPY DUP2 ADD PUSH2 0x180 DUP3 DUP3 SUB SLT PUSH3 0x6C4 JUMPI DUP2 MLOAD PUSH1 0x1 PUSH1 0x1 PUSH1 0x40 SHL SUB SWAP1 DUP2 DUP2 GT PUSH3 0x6C4 JUMPI DUP3 PUSH3 0x4F SWAP2 DUP6 ADD PUSH3 0x6EE JUMP JUMPDEST SWAP3 PUSH1 0x20 SWAP3 DUP4 DUP3 ADD MLOAD DUP4 DUP2 GT PUSH3 0x6C4 JUMPI DUP2 PUSH3 0x6D SWAP2 DUP5 ADD PUSH3 0x6EE JUMP JUMPDEST PUSH1 0x40 DUP4 ADD MLOAD SWAP4 PUSH1 0x60 DUP5 ADD MLOAD DUP2 DUP2 GT PUSH3 0x6C4 JUMPI DUP4 PUSH3 0x8E SWAP2 DUP7 ADD PUSH3 0x6EE JUMP JUMPDEST SWAP2 PUSH1 0x80 DUP6 ADD MLOAD DUP3 DUP2 GT PUSH3 0x6C4 JUMPI DUP6 ADD SWAP2 PUSH1 0x1F SWAP2 DUP6 DUP4 DUP6 ADD SLT ISZERO PUSH3 0x6C4 JUMPI DUP4 MLOAD SWAP3 DUP3 DUP5 GT PUSH3 0x4C7 JUMPI DUP10 SWAP7 PUSH1 0x5 SWAP6 DUP9 PUSH3 0xCE DUP8 DUP10 SHL SWAP14 DUP15 ADD PUSH3 0x6C8 JUMP JUMPDEST DUP1 SWAP8 DUP2 MSTORE ADD DUP10 DUP2 SWAP14 DUP4 ADD ADD SWAP3 DUP1 DUP5 GT PUSH3 0x6C4 JUMPI DUP11 DUP4 ADD SWAP2 JUMPDEST DUP5 DUP4 LT PUSH3 0x69B JUMPI POP POP POP POP POP PUSH1 0xA0 DUP9 ADD PUSH3 0x103 SWAP1 PUSH3 0x75E JUMP JUMPDEST SWAP10 PUSH1 0xC0 DUP10 ADD MLOAD SWAP8 PUSH1 0xE0 DUP11 ADD MLOAD SWAP11 PUSH2 0x100 DUP12 ADD PUSH3 0x120 SWAP1 PUSH3 0x75E JUMP JUMPDEST SWAP7 PUSH3 0x130 PUSH2 0x120 DUP14 ADD PUSH3 0x75E JUMP JUMPDEST SWAP10 PUSH3 0x140 PUSH2 0x140 DUP15 ADD PUSH3 0x75E JUMP JUMPDEST SWAP13 PUSH2 0x160 ADD MLOAD SWAP16 DUP1 MLOAD SWAP1 DUP10 DUP3 GT PUSH3 0x4C7 JUMPI PUSH3 0x15E PUSH0 SLOAD PUSH3 0x773 JUMP JUMPDEST DUP9 DUP2 GT PUSH3 0x66B JUMPI JUMPDEST POP DUP6 SWAP1 DUP9 DUP4 GT PUSH1 0x1 EQ PUSH3 0x603 JUMPI PUSH3 0x198 SWAP3 SWAP2 PUSH0 SWAP2 DUP4 PUSH3 0x37F JUMPI JUMPDEST POP POP DUP2 PUSH1 0x1 SHL SWAP2 PUSH0 NOT SWAP1 PUSH1 0x3 SHL SHR NOT AND OR SWAP1 JUMP JUMPDEST PUSH0 SSTORE JUMPDEST DUP7 MLOAD DUP9 DUP2 GT PUSH3 0x4C7 JUMPI PUSH1 0x1 SWAP8 PUSH3 0x1B4 DUP10 SLOAD PUSH3 0x773 JUMP JUMPDEST DUP9 DUP2 GT PUSH3 0x5D3 JUMPI JUMPDEST POP DUP6 SWAP1 DUP9 DUP4 GT PUSH1 0x1 EQ PUSH3 0x570 JUMPI PUSH3 0x1ED SWAP3 SWAP2 PUSH0 SWAP2 DUP4 PUSH3 0x37F JUMPI POP POP DUP2 PUSH1 0x1 SHL SWAP2 PUSH0 NOT SWAP1 PUSH1 0x3 SHL SHR NOT AND OR SWAP1 JUMP JUMPDEST DUP8 SSTORE JUMPDEST PUSH1 0x4 SWAP3 PUSH1 0x4 SSTORE DUP1 MLOAD SWAP1 DUP9 DUP3 GT PUSH3 0x4C7 JUMPI PUSH3 0x20E PUSH1 0x2 SLOAD PUSH3 0x773 JUMP JUMPDEST DUP8 DUP2 GT PUSH3 0x540 JUMPI JUMPDEST POP DUP5 SWAP1 DUP8 DUP4 GT PUSH1 0x1 EQ PUSH3 0x4DB JUMPI PUSH3 0x247 SWAP3 SWAP2 PUSH0 SWAP2 DUP4 PUSH3 0x37F JUMPI POP POP DUP2 PUSH1 0x1 SHL SWAP2 PUSH0 NOT SWAP1 PUSH1 0x3 SHL SHR NOT AND OR SWAP1 JUMP JUMPDEST PUSH1 0x2 SSTORE JUMPDEST MLOAD SWAP4 PUSH9 0x10000000000000000 DUP6 GT PUSH3 0x4C7 JUMPI PUSH1 0x3 SWAP4 PUSH1 0x3 SLOAD DUP7 PUSH1 0x3 SSTORE DUP1 DUP8 LT PUSH3 0x44A JUMPI JUMPDEST POP SWAP4 SWAP2 PUSH1 0x3 PUSH0 MSTORE DUP4 PUSH0 KECCAK256 SWAP3 PUSH0 SWAP6 JUMPDEST DUP8 DUP8 LT PUSH3 0x315 JUMPI POP POP POP POP POP POP POP POP POP POP PUSH1 0x1 DUP1 PUSH1 0xA0 SHL SUB SWAP6 DUP7 SWAP5 DUP6 SWAP4 DUP5 PUSH1 0x1 DUP1 PUSH1 0xA0 SHL SUB NOT SWAP11 AND DUP11 DUP3 SLOAD AND OR SWAP1 SSTORE PUSH1 0x6 SSTORE PUSH1 0x7 SSTORE AND DUP6 PUSH1 0xB SLOAD AND OR PUSH1 0xB SSTORE AND DUP4 PUSH1 0xC SLOAD AND OR PUSH1 0xC SSTORE AND SWAP1 PUSH1 0xD SLOAD AND OR PUSH1 0xD SSTORE PUSH8 0xDE0B6B3A7640000 SWAP1 DUP2 DUP2 MUL SWAP2 DUP2 DUP4 DIV EQ SWAP1 ISZERO OR ISZERO PUSH3 0x301 JUMPI PUSH1 0x8 SSTORE PUSH1 0x40 MLOAD PUSH2 0x1096 SWAP1 DUP2 PUSH3 0x7C7 DUP3 CODECOPY RETURN JUMPDEST PUSH4 0x4E487B71 PUSH1 0xE0 SHL PUSH0 MSTORE PUSH1 0x11 PUSH1 0x4 MSTORE PUSH1 0x24 PUSH0 REVERT JUMPDEST DUP1 MLOAD SWAP1 DUP2 MLOAD DUP12 DUP2 GT PUSH3 0x437 JUMPI DUP11 SWAP2 DUP9 SWAP2 DUP16 PUSH3 0x333 DUP11 SLOAD PUSH3 0x773 JUMP JUMPDEST DUP10 DUP2 GT PUSH3 0x3FC JUMPI JUMPDEST POP POP DUP3 SWAP5 DUP9 DUP3 GT PUSH1 0x1 EQ PUSH3 0x38B JUMPI SWAP1 DUP1 DUP6 SWAP7 PUSH3 0x36F SWAP4 PUSH0 SWAP3 PUSH3 0x37F JUMPI POP POP DUP2 PUSH1 0x1 SHL SWAP2 PUSH0 NOT SWAP1 PUSH1 0x3 SHL SHR NOT AND OR SWAP1 JUMP JUMPDEST DUP9 SSTORE JUMPDEST ADD SWAP6 ADD SWAP7 ADD SWAP6 SWAP4 PUSH3 0x27F JUMP JUMPDEST ADD MLOAD SWAP1 POP PUSH0 DUP1 PUSH3 0x184 JUMP JUMPDEST SWAP5 PUSH1 0x1F NOT DUP3 AND SWAP1 DUP11 PUSH0 MSTORE DUP5 PUSH0 KECCAK256 SWAP2 PUSH0 JUMPDEST DUP2 DUP2 LT PUSH3 0x3D9 JUMPI POP SWAP1 DUP7 SWAP8 DUP5 DUP9 SWAP6 SWAP5 SWAP4 LT PUSH3 0x3C1 JUMPI JUMPDEST POP POP POP DUP2 SHL ADD DUP9 SSTORE PUSH3 0x372 JUMP JUMPDEST ADD MLOAD PUSH0 NOT DUP4 DUP11 SHL PUSH1 0xF8 AND SHR NOT AND SWAP1 SSTORE PUSH0 DUP1 DUP1 PUSH3 0x3B3 JUMP JUMPDEST SWAP5 SWAP8 SWAP4 SWAP7 DUP7 SWAP3 SWAP7 SWAP2 SWAP4 DUP8 DUP7 ADD MLOAD DUP2 SSTORE ADD SWAP6 ADD SWAP4 ADD SWAP3 DUP12 SWAP5 SWAP2 DUP16 SWAP7 SWAP4 SWAP8 SWAP5 PUSH3 0x39B JUMP JUMPDEST PUSH3 0x425 SWAP2 DUP12 PUSH0 MSTORE DUP6 PUSH0 KECCAK256 SWAP1 DUP12 DUP1 DUP7 ADD DUP3 SHR DUP4 ADD SWAP4 DUP9 DUP8 LT PUSH3 0x42D JUMPI JUMPDEST ADD SWAP1 SHR ADD SWAP1 PUSH3 0x7AE JUMP JUMPDEST DUP16 PUSH0 PUSH3 0x33C JUMP JUMPDEST SWAP4 POP DUP3 SWAP4 PUSH3 0x41A JUMP JUMPDEST PUSH1 0x41 DUP6 PUSH4 0x4E487B71 PUSH1 0xE0 SHL PUSH0 MSTORE MSTORE PUSH1 0x24 PUSH0 REVERT JUMPDEST PUSH1 0x3 PUSH0 MSTORE DUP8 DUP8 DUP7 PUSH0 KECCAK256 SWAP3 DUP4 ADD SWAP3 ADD JUMPDEST DUP3 DUP2 LT PUSH3 0x469 JUMPI POP POP PUSH3 0x271 JUMP JUMPDEST DUP13 PUSH3 0x476 DUP3 SLOAD PUSH3 0x773 JUMP JUMPDEST DUP1 PUSH3 0x488 JUMPI JUMPDEST POP POP ADD DUP9 SWAP1 PUSH3 0x459 JUMP JUMPDEST DUP7 DUP2 GT PUSH1 0x1 EQ PUSH3 0x4A1 JUMPI POP POP PUSH0 DUP2 SSTORE JUMPDEST DUP13 PUSH0 PUSH3 0x47D JUMP JUMPDEST PUSH3 0x4BD PUSH0 SWAP3 DUP5 DUP5 MSTORE DUP9 DUP12 DUP6 KECCAK256 SWAP4 ADD SWAP1 SHR DUP3 ADD DUP6 DUP4 ADD PUSH3 0x7AE JUMP JUMPDEST DUP2 DUP4 SSTORE SSTORE PUSH3 0x499 JUMP JUMPDEST PUSH4 0x4E487B71 PUSH1 0xE0 SHL PUSH0 MSTORE PUSH1 0x41 PUSH1 0x4 MSTORE PUSH1 0x24 PUSH0 REVERT JUMPDEST DUP9 SWAP3 SWAP2 PUSH1 0x1F NOT DUP4 AND SWAP2 PUSH1 0x2 PUSH0 MSTORE DUP8 PUSH0 KECCAK256 SWAP3 PUSH0 JUMPDEST DUP10 DUP3 DUP3 LT PUSH3 0x529 JUMPI POP POP DUP5 GT PUSH3 0x510 JUMPI JUMPDEST POP POP POP DUP2 SHL ADD PUSH1 0x2 SSTORE PUSH3 0x24B JUMP JUMPDEST ADD MLOAD PUSH0 NOT PUSH1 0xF8 DUP5 PUSH1 0x3 SHL AND SHR NOT AND SWAP1 SSTORE PUSH0 DUP1 DUP1 PUSH3 0x501 JUMP JUMPDEST DUP4 DUP6 ADD MLOAD DUP7 SSTORE DUP14 SWAP8 SWAP1 SWAP6 ADD SWAP5 SWAP4 DUP5 ADD SWAP4 ADD PUSH3 0x4EE JUMP JUMPDEST PUSH3 0x569 SWAP1 PUSH1 0x2 PUSH0 MSTORE DUP7 PUSH0 KECCAK256 DUP14 DUP11 DUP1 DUP8 ADD DUP3 SHR DUP4 ADD SWAP4 DUP11 DUP9 LT PUSH3 0x42D JUMPI ADD SWAP1 SHR ADD SWAP1 PUSH3 0x7AE JUMP JUMPDEST PUSH0 PUSH3 0x217 JUMP JUMPDEST DUP10 SWAP3 SWAP2 PUSH1 0x1F NOT DUP4 AND SWAP2 DUP5 PUSH0 MSTORE DUP9 PUSH0 KECCAK256 SWAP3 PUSH0 JUMPDEST DUP11 DUP3 DUP3 LT PUSH3 0x5BC JUMPI POP POP DUP5 GT PUSH3 0x5A3 JUMPI JUMPDEST POP POP POP DUP2 SHL ADD DUP8 SSTORE PUSH3 0x1F0 JUMP JUMPDEST ADD MLOAD PUSH0 NOT PUSH1 0xF8 DUP5 PUSH1 0x3 SHL AND SHR NOT AND SWAP1 SSTORE PUSH0 DUP1 DUP1 PUSH3 0x595 JUMP JUMPDEST DUP4 DUP6 ADD MLOAD DUP7 SSTORE DUP15 SWAP8 SWAP1 SWAP6 ADD SWAP5 SWAP4 DUP5 ADD SWAP4 ADD PUSH3 0x582 JUMP JUMPDEST PUSH3 0x5FC SWAP1 DUP11 PUSH0 MSTORE DUP14 DUP9 PUSH0 KECCAK256 SWAP1 DUP12 DUP1 DUP8 ADD DUP3 SHR DUP4 ADD SWAP4 DUP12 DUP9 LT PUSH3 0x42D JUMPI ADD SWAP1 SHR ADD SWAP1 PUSH3 0x7AE JUMP JUMPDEST PUSH0 PUSH3 0x1BD JUMP JUMPDEST SWAP1 PUSH1 0x1F NOT DUP4 AND SWAP2 PUSH0 DUP1 MSTORE DUP8 PUSH0 KECCAK256 SWAP3 PUSH0 JUMPDEST DUP10 DUP3 DUP3 LT PUSH3 0x654 JUMPI POP POP SWAP1 DUP5 PUSH1 0x1 SWAP6 SWAP5 SWAP4 SWAP3 LT PUSH3 0x63B JUMPI JUMPDEST POP POP POP DUP2 SHL ADD PUSH0 SSTORE PUSH3 0x19B JUMP JUMPDEST ADD MLOAD PUSH0 NOT PUSH1 0xF8 DUP5 PUSH1 0x3 SHL AND SHR NOT AND SWAP1 SSTORE PUSH0 DUP1 DUP1 PUSH3 0x62D JUMP JUMPDEST PUSH1 0x1 DUP6 SWAP7 DUP3 SWAP4 SWAP7 DUP7 ADD MLOAD DUP2 SSTORE ADD SWAP6 ADD SWAP4 ADD PUSH3 0x613 JUMP JUMPDEST PUSH3 0x694 SWAP1 PUSH0 DUP1 MSTORE DUP14 DUP9 PUSH0 KECCAK256 SWAP1 DUP12 DUP1 DUP8 ADD DUP3 SHR DUP4 ADD SWAP4 DUP12 DUP9 LT PUSH3 0x42D JUMPI ADD SWAP1 SHR ADD SWAP1 PUSH3 0x7AE JUMP JUMPDEST PUSH0 PUSH3 0x167 JUMP JUMPDEST DUP3 MLOAD DUP9 DUP2 GT PUSH3 0x6C4 JUMPI DUP13 SWAP2 PUSH3 0x6B8 DUP5 DUP5 DUP1 SWAP5 DUP10 ADD ADD PUSH3 0x6EE JUMP JUMPDEST DUP2 MSTORE ADD SWAP3 ADD SWAP2 PUSH3 0xE7 JUMP JUMPDEST PUSH0 DUP1 REVERT JUMPDEST PUSH1 0x40 MLOAD SWAP2 SWAP1 PUSH1 0x1F ADD PUSH1 0x1F NOT AND DUP3 ADD PUSH1 0x1 PUSH1 0x1 PUSH1 0x40 SHL SUB DUP2 GT DUP4 DUP3 LT OR PUSH3 0x4C7 JUMPI PUSH1 0x40 MSTORE JUMP JUMPDEST SWAP2 SWAP1 DUP1 PUSH1 0x1F DUP5 ADD SLT ISZERO PUSH3 0x6C4 JUMPI DUP3 MLOAD PUSH1 0x1 PUSH1 0x1 PUSH1 0x40 SHL SUB DUP2 GT PUSH3 0x4C7 JUMPI PUSH1 0x20 SWAP1 PUSH3 0x724 PUSH1 0x1F DUP3 ADD PUSH1 0x1F NOT AND DUP4 ADD PUSH3 0x6C8 JUMP JUMPDEST SWAP3 DUP2 DUP5 MSTORE DUP3 DUP3 DUP8 ADD ADD GT PUSH3 0x6C4 JUMPI PUSH0 JUMPDEST DUP2 DUP2 LT PUSH3 0x74A JUMPI POP DUP3 PUSH0 SWAP4 SWAP5 SWAP6 POP ADD ADD MSTORE SWAP1 JUMP JUMPDEST DUP6 DUP2 ADD DUP4 ADD MLOAD DUP5 DUP3 ADD DUP5 ADD MSTORE DUP3 ADD PUSH3 0x735 JUMP JUMPDEST MLOAD SWAP1 PUSH1 0x1 PUSH1 0x1 PUSH1 0xA0 SHL SUB DUP3 AND DUP3 SUB PUSH3 0x6C4 JUMPI JUMP JUMPDEST SWAP1 PUSH1 0x1 DUP3 DUP2 SHR SWAP3 AND DUP1 ISZERO PUSH3 0x7A3 JUMPI JUMPDEST PUSH1 0x20 DUP4 LT EQ PUSH3 0x78F JUMPI JUMP JUMPDEST PUSH4 0x4E487B71 PUSH1 0xE0 SHL PUSH0 MSTORE PUSH1 0x22 PUSH1 0x4 MSTORE PUSH1 0x24 PUSH0 REVERT JUMPDEST SWAP2 PUSH1 0x7F AND SWAP2 PUSH3 0x783 JUMP JUMPDEST DUP2 DUP2 LT PUSH3 0x7BA JUMPI POP POP JUMP JUMPDEST PUSH0 DUP2 SSTORE PUSH1 0x1 ADD PUSH3 0x7AE JUMP INVALID PUSH1 0x80 PUSH1 0x40 SWAP1 DUP1 DUP3 MSTORE PUSH1 0x4 DUP1 CALLDATASIZE LT ISZERO PUSH2 0x15 JUMPI PUSH0 DUP1 REVERT JUMPDEST PUSH0 CALLDATALOAD PUSH1 0xE0 SHR SWAP2 DUP3 PUSH4 0xA09284A EQ PUSH2 0xC11 JUMPI POP DUP2 PUSH4 0x1030C51E EQ PUSH2 0xBF3 JUMPI DUP2 PUSH4 0x20822ABC EQ PUSH2 0xB8F JUMPI DUP2 PUSH4 0x2F48AB7D EQ PUSH2 0xB67 JUMPI DUP2 PUSH4 0x3CCFD60B EQ PUSH2 0x899 JUMPI DUP2 PUSH4 0x3E413BEE EQ PUSH2 0x871 JUMPI DUP2 PUSH4 0x42F6FB29 EQ PUSH2 0x849 JUMPI DUP2 PUSH4 0x4A79D50C EQ PUSH2 0x79C JUMPI DUP2 PUSH4 0x516F279E EQ PUSH2 0x6EB JUMPI DUP2 PUSH4 0x5F3D7FA1 EQ PUSH2 0x6CF JUMPI DUP2 PUSH4 0x6CAD2590 EQ PUSH2 0x68F JUMPI DUP2 PUSH4 0x7038F157 EQ PUSH2 0x58D JUMPI DUP2 PUSH4 0x7284E416 EQ PUSH2 0x4A8 JUMPI DUP2 PUSH4 0x74BDC4BF EQ PUSH2 0x420 JUMPI DUP2 PUSH4 0x8DA5CB5B EQ PUSH2 0x3F8 JUMPI DUP2 PUSH4 0x99C5296E EQ PUSH2 0x2D8 JUMPI DUP2 PUSH4 0xAB42300D EQ PUSH2 0x160 JUMPI DUP2 PUSH4 0xAF468682 EQ PUSH2 0x142 JUMPI DUP2 PUSH4 0xB8F34D9E EQ PUSH2 0x11D JUMPI POP PUSH4 0xF1ADDA47 EQ PUSH2 0xFC JUMPI PUSH0 DUP1 REVERT JUMPDEST CALLVALUE PUSH2 0x119 JUMPI PUSH0 CALLDATASIZE PUSH1 0x3 NOT ADD SLT PUSH2 0x119 JUMPI PUSH1 0x20 SWAP1 PUSH1 0x9 SLOAD SWAP1 MLOAD SWAP1 DUP2 MSTORE RETURN JUMPDEST PUSH0 DUP1 REVERT JUMPDEST DUP3 CALLVALUE PUSH2 0x119 JUMPI PUSH1 0x20 CALLDATASIZE PUSH1 0x3 NOT ADD SLT PUSH2 0x119 JUMPI PUSH2 0x13B PUSH1 0x20 SWAP3 CALLDATALOAD PUSH2 0xF3F JUMP JUMPDEST SWAP1 MLOAD SWAP1 DUP2 MSTORE RETURN JUMPDEST DUP3 CALLVALUE PUSH2 0x119 JUMPI PUSH0 CALLDATASIZE PUSH1 0x3 NOT ADD SLT PUSH2 0x119 JUMPI PUSH1 0x20 SWAP1 PUSH1 0x6 SLOAD SWAP1 MLOAD SWAP1 DUP2 MSTORE RETURN JUMPDEST SWAP1 POP PUSH0 CALLDATASIZE PUSH1 0x3 NOT ADD SLT PUSH2 0x119 JUMPI CALLER PUSH0 MSTORE PUSH1 0x20 SWAP1 PUSH1 0xA DUP3 MSTORE PUSH2 0x187 PUSH1 0xFF DUP5 PUSH0 KECCAK256 SLOAD AND ISZERO PUSH2 0xDB2 JUMP JUMPDEST PUSH2 0x195 PUSH1 0x9 SLOAD DUP3 SLOAD GT PUSH2 0xDEF JUMP JUMPDEST PUSH2 0x1A0 PUSH1 0x8 SLOAD PUSH2 0xF3F JUMP JUMPDEST CALLVALUE LT PUSH2 0x2A4 JUMPI POP CALLER PUSH0 MSTORE PUSH1 0xA DUP2 MSTORE DUP2 PUSH0 KECCAK256 SWAP1 PUSH1 0x1 SWAP3 PUSH1 0xFF NOT SWAP3 PUSH1 0x1 DUP5 DUP3 SLOAD AND OR SWAP1 SSTORE PUSH2 0x1CD PUSH1 0x9 SLOAD PUSH2 0xE5F JUMP JUMPDEST PUSH1 0x9 SSTORE DUP1 MLOAD SWAP3 DUP3 DUP5 MSTORE PUSH0 SWAP5 PUSH0 SLOAD PUSH2 0x1E3 DUP2 PUSH2 0xC2B JUMP JUMPDEST SWAP3 DUP4 DUP7 DUP9 ADD MSTORE PUSH1 0x1 DUP3 AND SWAP2 DUP3 PUSH0 EQ PUSH2 0x27B JUMPI POP POP PUSH1 0x1 EQ PUSH2 0x215 JUMPI JUMPDEST CALLER PUSH0 DUP1 MLOAD PUSH1 0x20 PUSH2 0x1041 DUP4 CODECOPY DUP2 MLOAD SWAP2 MSTORE DUP7 DUP9 SUB DUP8 LOG2 STOP JUMPDEST PUSH0 DUP1 DUP1 MSTORE SWAP6 POP SWAP2 SWAP3 SWAP2 PUSH32 0x290DECD9548B62A8D60345A988386FC84BA6BC95484008F6362F93160EF3E563 JUMPDEST DUP3 DUP8 LT PUSH2 0x268 JUMPI POP POP POP POP DUP2 SWAP3 PUSH0 DUP1 MLOAD PUSH1 0x20 PUSH2 0x1041 DUP4 CODECOPY DUP2 MLOAD SWAP2 MSTORE SWAP3 ADD ADD SWAP2 SWAP1 PUSH0 DUP1 DUP1 PUSH2 0x1FF JUMP JUMPDEST DUP1 SLOAD DUP7 DUP9 ADD DUP7 ADD MSTORE SWAP6 DUP4 ADD SWAP6 DUP2 ADD PUSH2 0x240 JUMP JUMPDEST AND DUP7 DUP6 ADD MSTORE POP POP ISZERO ISZERO PUSH1 0x5 SHL DUP4 ADD ADD SWAP3 POP PUSH0 DUP1 MLOAD PUSH1 0x20 PUSH2 0x1041 DUP4 CODECOPY DUP2 MLOAD SWAP2 MSTORE SWAP1 POP PUSH0 DUP1 DUP1 PUSH2 0x1FF JUMP JUMPDEST SWAP2 MLOAD PUSH3 0x461BCD PUSH1 0xE5 SHL DUP2 MSTORE SWAP2 DUP3 ADD MSTORE PUSH1 0x10 PUSH1 0x24 DUP3 ADD MSTORE PUSH16 0x92DCE6EACCCCD2C6D2CADCE8408AA89 PUSH1 0x83 SHL PUSH1 0x44 DUP3 ADD MSTORE PUSH1 0x64 SWAP1 REVERT JUMPDEST SWAP1 POP CALLVALUE PUSH2 0x119 JUMPI PUSH0 CALLDATASIZE PUSH1 0x3 NOT ADD SLT PUSH2 0x119 JUMPI PUSH1 0x20 PUSH2 0x360 SWAP2 CALLER PUSH0 MSTORE PUSH1 0xA DUP3 MSTORE PUSH2 0x307 PUSH1 0xFF DUP6 PUSH0 KECCAK256 SLOAD AND ISZERO PUSH2 0xDB2 JUMP JUMPDEST PUSH2 0x315 PUSH1 0x9 SLOAD DUP3 SLOAD GT PUSH2 0xDEF JUMP JUMPDEST PUSH1 0x8 SLOAD PUSH1 0xB SLOAD DUP6 MLOAD PUSH4 0x23B872DD PUSH1 0xE0 SHL DUP2 MSTORE CALLER SWAP4 DUP2 ADD SWAP4 DUP5 MSTORE ADDRESS PUSH1 0x20 DUP6 ADD MSTORE PUSH5 0xE8D4A51000 SWAP1 SWAP3 DIV PUSH1 0x40 DUP5 ADD MSTORE SWAP1 SWAP4 DUP5 SWAP3 PUSH1 0x1 PUSH1 0x1 PUSH1 0xA0 SHL SUB SWAP1 SWAP3 AND SWAP2 DUP4 SWAP2 PUSH0 SWAP2 DUP4 SWAP2 PUSH1 0x60 SWAP1 SWAP2 ADD SWAP1 JUMP JUMPDEST SUB SWAP3 GAS CALL DUP1 ISZERO PUSH2 0x3EE JUMPI PUSH2 0x37B SWAP2 PUSH0 SWAP2 PUSH2 0x3BF JUMPI JUMPDEST POP PUSH2 0xE21 JUMP JUMPDEST CALLER PUSH0 MSTORE PUSH1 0xA PUSH1 0x20 MSTORE DUP1 PUSH0 KECCAK256 PUSH1 0x1 PUSH1 0xFF NOT DUP3 SLOAD AND OR SWAP1 SSTORE PUSH2 0x39C PUSH1 0x9 SLOAD PUSH2 0xE5F JUMP JUMPDEST PUSH1 0x9 SSTORE MLOAD PUSH0 DUP1 MLOAD PUSH1 0x20 PUSH2 0x1041 DUP4 CODECOPY DUP2 MLOAD SWAP2 MSTORE CALLER SWAP2 DUP1 PUSH2 0x3BA DUP2 PUSH2 0xE6D JUMP JUMPDEST SUB SWAP1 LOG2 STOP JUMPDEST PUSH2 0x3E1 SWAP2 POP PUSH1 0x20 RETURNDATASIZE PUSH1 0x20 GT PUSH2 0x3E7 JUMPI JUMPDEST PUSH2 0x3D9 DUP2 DUP4 PUSH2 0xC63 JUMP JUMPDEST DUP2 ADD SWAP1 PUSH2 0xD79 JUMP JUMPDEST PUSH0 PUSH2 0x375 JUMP JUMPDEST POP RETURNDATASIZE PUSH2 0x3CF JUMP JUMPDEST DUP3 MLOAD RETURNDATASIZE PUSH0 DUP3 RETURNDATACOPY RETURNDATASIZE SWAP1 REVERT JUMPDEST DUP3 CALLVALUE PUSH2 0x119 JUMPI PUSH0 CALLDATASIZE PUSH1 0x3 NOT ADD SLT PUSH2 0x119 JUMPI PUSH1 0x5 SLOAD SWAP1 MLOAD PUSH1 0x1 PUSH1 0x1 PUSH1 0xA0 SHL SUB SWAP1 SWAP2 AND DUP2 MSTORE PUSH1 0x20 SWAP1 RETURN JUMPDEST SWAP1 POP CALLVALUE PUSH2 0x119 JUMPI PUSH0 CALLDATASIZE PUSH1 0x3 NOT ADD SLT PUSH2 0x119 JUMPI PUSH1 0x20 PUSH2 0x360 SWAP2 CALLER PUSH0 MSTORE PUSH1 0xA DUP3 MSTORE PUSH2 0x44F PUSH1 0xFF DUP6 PUSH0 KECCAK256 SLOAD AND ISZERO PUSH2 0xDB2 JUMP JUMPDEST PUSH2 0x45D PUSH1 0x9 SLOAD DUP3 SLOAD GT PUSH2 0xDEF JUMP JUMPDEST PUSH1 0x8 SLOAD PUSH1 0xC SLOAD DUP6 MLOAD PUSH4 0x23B872DD PUSH1 0xE0 SHL DUP2 MSTORE CALLER SWAP4 DUP2 ADD SWAP4 DUP5 MSTORE ADDRESS PUSH1 0x20 DUP6 ADD MSTORE PUSH5 0xE8D4A51000 SWAP1 SWAP3 DIV PUSH1 0x40 DUP5 ADD MSTORE SWAP1 SWAP4 DUP5 SWAP3 PUSH1 0x1 PUSH1 0x1 PUSH1 0xA0 SHL SUB SWAP1 SWAP3 AND SWAP2 DUP4 SWAP2 PUSH0 SWAP2 DUP4 SWAP2 PUSH1 0x60 SWAP1 SWAP2 ADD SWAP1 JUMP JUMPDEST DUP3 CALLVALUE PUSH2 0x119 JUMPI PUSH0 CALLDATASIZE PUSH1 0x3 NOT ADD SLT PUSH2 0x119 JUMPI DUP1 MLOAD PUSH1 0x2 SLOAD SWAP1 SWAP2 DUP3 PUSH0 PUSH2 0x4CB DUP5 PUSH2 0xC2B JUMP JUMPDEST DUP1 DUP4 MSTORE PUSH1 0x20 SWAP5 PUSH1 0x1 SWAP1 DUP7 PUSH1 0x1 DUP3 AND SWAP2 DUP3 PUSH0 EQ PUSH2 0x56B JUMPI POP POP PUSH1 0x1 EQ PUSH2 0x510 JUMPI JUMPDEST POP POP PUSH2 0x50C SWAP3 SWAP2 PUSH2 0x4FD SWAP2 SUB DUP6 PUSH2 0xC63 JUMP JUMPDEST MLOAD SWAP3 DUP3 DUP5 SWAP4 DUP5 MSTORE DUP4 ADD SWAP1 PUSH2 0xD3B JUMP JUMPDEST SUB SWAP1 RETURN JUMPDEST SWAP1 DUP6 SWAP3 POP PUSH1 0x2 PUSH0 MSTORE PUSH32 0x405787FA12A823E0F2B7631CC41B3BA8828B3321CA811111FA75CD3AA3BB5ACE SWAP2 PUSH0 SWAP3 JUMPDEST DUP3 DUP5 LT PUSH2 0x553 JUMPI POP POP POP DUP3 ADD ADD DUP2 PUSH2 0x4FD PUSH2 0x4EB JUMP JUMPDEST DUP1 SLOAD DUP5 DUP11 ADD DUP7 ADD MSTORE DUP9 SWAP6 POP DUP8 SWAP5 SWAP1 SWAP4 ADD SWAP3 DUP2 ADD PUSH2 0x53D JUMP JUMPDEST PUSH1 0xFF NOT AND DUP7 DUP3 ADD MSTORE SWAP3 ISZERO ISZERO PUSH1 0x5 SHL DUP6 ADD SWAP1 SWAP3 ADD SWAP3 POP DUP4 SWAP2 POP PUSH2 0x4FD SWAP1 POP PUSH2 0x4EB JUMP JUMPDEST SWAP1 POP CALLVALUE PUSH2 0x119 JUMPI PUSH0 CALLDATASIZE PUSH1 0x3 NOT ADD SLT PUSH2 0x119 JUMPI PUSH1 0x3 SLOAD SWAP1 PUSH8 0xFFFFFFFFFFFFFFFF DUP3 GT PUSH2 0x67C JUMPI POP PUSH1 0x20 SWAP1 DUP3 MLOAD SWAP2 PUSH2 0x5C8 DUP2 DUP4 PUSH1 0x5 SHL ADD DUP5 PUSH2 0xC63 JUMP JUMPDEST DUP2 DUP4 MSTORE DUP1 DUP4 ADD SWAP2 DUP3 PUSH1 0x3 PUSH0 MSTORE PUSH32 0xC2575A0E9E593C00F959F8C92F12DB2869C3395A3B0502D05E2516446F71F85B PUSH0 SWAP2 JUMPDEST DUP4 DUP4 LT PUSH2 0x65A JUMPI POP POP POP POP DUP4 MLOAD SWAP3 DUP2 DUP5 ADD SWAP1 DUP3 DUP6 MSTORE MLOAD DUP1 SWAP2 MSTORE DUP5 DUP5 ADD SWAP5 DUP2 PUSH1 0x5 SHL DUP6 ADD ADD SWAP3 SWAP2 PUSH0 SWAP6 JUMPDEST DUP3 DUP8 LT PUSH2 0x62E JUMPI DUP6 DUP6 SUB DUP7 RETURN JUMPDEST SWAP1 SWAP2 SWAP3 SWAP4 DUP3 DUP1 PUSH2 0x64A PUSH1 0x1 SWAP4 PUSH1 0x3F NOT DUP11 DUP3 SUB ADD DUP7 MSTORE DUP9 MLOAD PUSH2 0xD3B JUMP JUMPDEST SWAP7 ADD SWAP3 ADD SWAP7 ADD SWAP6 SWAP3 SWAP2 SWAP1 SWAP3 PUSH2 0x621 JUMP JUMPDEST PUSH1 0x1 DUP6 DUP2 SWAP3 PUSH2 0x66B DUP6 SWAP11 SWAP9 SWAP11 PUSH2 0xC99 JUMP JUMPDEST DUP2 MSTORE ADD SWAP3 ADD SWAP3 ADD SWAP2 SWAP1 SWAP6 SWAP4 SWAP6 PUSH2 0x5F8 JUMP JUMPDEST PUSH1 0x41 SWAP1 PUSH4 0x4E487B71 PUSH1 0xE0 SHL PUSH0 MSTORE MSTORE PUSH1 0x24 PUSH0 REVERT JUMPDEST SWAP1 POP CALLVALUE PUSH2 0x119 JUMPI PUSH1 0x20 CALLDATASIZE PUSH1 0x3 NOT ADD SLT PUSH2 0x119 JUMPI CALLDATALOAD PUSH1 0x1 PUSH1 0x1 PUSH1 0xA0 SHL SUB DUP2 AND SWAP2 SWAP1 DUP3 SWAP1 SUB PUSH2 0x119 JUMPI PUSH1 0x20 SWAP2 PUSH0 MSTORE PUSH1 0xA DUP3 MSTORE PUSH1 0xFF DUP2 PUSH0 KECCAK256 SLOAD AND SWAP1 MLOAD SWAP1 ISZERO ISZERO DUP2 MSTORE RETURN JUMPDEST DUP3 CALLVALUE PUSH2 0x119 JUMPI PUSH0 CALLDATASIZE PUSH1 0x3 NOT ADD SLT PUSH2 0x119 JUMPI PUSH1 0x20 SWAP2 SLOAD SWAP1 MLOAD SWAP1 DUP2 MSTORE RETURN JUMPDEST DUP3 CALLVALUE PUSH2 0x119 JUMPI PUSH0 CALLDATASIZE PUSH1 0x3 NOT ADD SLT PUSH2 0x119 JUMPI DUP1 MLOAD SWAP1 PUSH0 SWAP1 DUP3 PUSH1 0x1 SWAP3 PUSH1 0x1 SLOAD SWAP4 PUSH2 0x712 DUP6 PUSH2 0xC2B JUMP JUMPDEST SWAP1 DUP2 DUP5 MSTORE PUSH1 0x20 SWAP6 DUP7 PUSH1 0x1 DUP3 AND SWAP2 DUP3 PUSH0 EQ PUSH2 0x56B JUMPI POP POP PUSH1 0x1 EQ PUSH2 0x741 JUMPI POP POP PUSH2 0x50C SWAP3 SWAP2 PUSH2 0x4FD SWAP2 SUB DUP6 PUSH2 0xC63 JUMP JUMPDEST SWAP1 DUP6 SWAP3 POP PUSH1 0x1 PUSH0 MSTORE PUSH32 0xB10E2D527612073B26EECDFD717E6A320CF44B4AFAC2B0732D9FCBE2B7FA0CF6 SWAP2 PUSH0 SWAP3 JUMPDEST DUP3 DUP5 LT PUSH2 0x784 JUMPI POP POP POP DUP3 ADD ADD DUP2 PUSH2 0x4FD PUSH2 0x4EB JUMP JUMPDEST DUP1 SLOAD DUP5 DUP11 ADD DUP7 ADD MSTORE DUP9 SWAP6 POP DUP8 SWAP5 SWAP1 SWAP4 ADD SWAP3 DUP2 ADD PUSH2 0x76E JUMP JUMPDEST DUP3 CALLVALUE PUSH2 0x119 JUMPI PUSH0 CALLDATASIZE PUSH1 0x3 NOT ADD SLT PUSH2 0x119 JUMPI DUP1 MLOAD SWAP1 PUSH0 SWAP1 DUP3 PUSH0 SLOAD SWAP3 PUSH2 0x7BF DUP5 PUSH2 0xC2B JUMP JUMPDEST DUP1 DUP4 MSTORE PUSH1 0x20 SWAP5 PUSH1 0x1 SWAP1 DUP7 PUSH1 0x1 DUP3 AND SWAP2 DUP3 PUSH0 EQ PUSH2 0x56B JUMPI POP POP PUSH1 0x1 EQ PUSH2 0x7F0 JUMPI POP POP PUSH2 0x50C SWAP3 SWAP2 PUSH2 0x4FD SWAP2 SUB DUP6 PUSH2 0xC63 JUMP JUMPDEST PUSH0 DUP1 DUP1 MSTORE DUP7 SWAP4 POP SWAP2 SWAP1 PUSH32 0x290DECD9548B62A8D60345A988386FC84BA6BC95484008F6362F93160EF3E563 JUMPDEST DUP3 DUP5 LT PUSH2 0x831 JUMPI POP POP POP DUP3 ADD ADD DUP2 PUSH2 0x4FD PUSH2 0x4EB JUMP JUMPDEST DUP1 SLOAD DUP5 DUP11 ADD DUP7 ADD MSTORE DUP9 SWAP6 POP DUP8 SWAP5 SWAP1 SWAP4 ADD SWAP3 DUP2 ADD PUSH2 0x81B JUMP JUMPDEST DUP3 CALLVALUE PUSH2 0x119 JUMPI PUSH0 CALLDATASIZE PUSH1 0x3 NOT ADD SLT PUSH2 0x119 JUMPI PUSH1 0xD SLOAD SWAP1 MLOAD PUSH1 0x1 PUSH1 0x1 PUSH1 0xA0 SHL SUB SWAP1 SWAP2 AND DUP2 MSTORE PUSH1 0x20 SWAP1 RETURN JUMPDEST DUP3 CALLVALUE PUSH2 0x119 JUMPI PUSH0 CALLDATASIZE PUSH1 0x3 NOT ADD SLT PUSH2 0x119 JUMPI PUSH1 0xB SLOAD SWAP1 MLOAD PUSH1 0x1 PUSH1 0x1 PUSH1 0xA0 SHL SUB SWAP1 SWAP2 AND DUP2 MSTORE PUSH1 0x20 SWAP1 RETURN JUMPDEST SWAP1 POP CALLVALUE PUSH2 0x119 JUMPI PUSH0 CALLDATASIZE PUSH1 0x3 NOT ADD SLT PUSH2 0x119 JUMPI PUSH1 0x5 SLOAD PUSH1 0x1 PUSH1 0x1 PUSH1 0xA0 SHL SUB SWAP1 DUP2 AND SWAP2 SWAP1 CALLER DUP4 SWAP1 SUB PUSH2 0xB34 JUMPI SELFBALANCE SWAP3 DUP2 PUSH1 0xB SLOAD AND SWAP2 DUP6 MLOAD SWAP4 DUP5 SWAP3 PUSH4 0x70A08231 PUSH1 0xE0 SHL SWAP5 DUP6 DUP6 MSTORE ADDRESS DUP4 DUP7 ADD MSTORE DUP5 PUSH1 0x24 PUSH1 0x20 SWAP9 DUP10 SWAP4 GAS STATICCALL SWAP4 DUP5 ISZERO PUSH2 0xA9C JUMPI PUSH0 SWAP5 PUSH2 0xB05 JUMPI JUMPDEST POP DUP6 DUP4 PUSH1 0xC SLOAD AND SWAP6 PUSH1 0x24 DUP11 MLOAD DUP1 SWAP9 DUP2 SWAP4 DUP3 MSTORE ADDRESS DUP8 DUP4 ADD MSTORE GAS STATICCALL SWAP5 DUP6 ISZERO PUSH2 0xA9C JUMPI PUSH0 SWAP6 PUSH2 0xAD6 JUMPI JUMPDEST POP DUP7 DUP1 ISZERO SWAP2 DUP3 ISZERO PUSH2 0xAA6 JUMPI JUMPDEST POP POP POP DUP3 PUSH2 0xA2D JUMPI JUMPDEST DUP4 PUSH2 0x97F JUMPI JUMPDEST POP SWAP2 PUSH2 0x972 PUSH2 0x977 SWAP3 PUSH32 0x884EDAD9CE6FA2440D8A54CC123490EB96D2768479D49FF9C7366125A9424364 SWAP7 SWAP8 SWAP5 PUSH1 0x5 SLOAD AND SWAP8 PUSH2 0xD91 JUMP JUMPDEST PUSH2 0xD91 JUMP JUMPDEST SWAP1 MLOAD SWAP1 DUP2 MSTORE LOG2 STOP JUMPDEST PUSH1 0xC SLOAD PUSH1 0x5 SLOAD DUP9 MLOAD PUSH4 0xA9059CBB PUSH1 0xE0 SHL DUP2 MSTORE SWAP1 DUP5 AND PUSH1 0x1 PUSH1 0x1 PUSH1 0xA0 SHL SUB AND SWAP3 DUP2 ADD SWAP3 DUP4 MSTORE PUSH1 0x20 DUP4 ADD DUP7 SWAP1 MSTORE SWAP2 DUP7 SWAP2 DUP4 SWAP2 SWAP1 DUP6 AND SWAP1 DUP3 SWAP1 PUSH0 SWAP1 DUP3 SWAP1 PUSH1 0x40 ADD SUB SWAP3 GAS CALL DUP1 ISZERO PUSH2 0xA23 JUMPI SWAP3 PUSH32 0x884EDAD9CE6FA2440D8A54CC123490EB96D2768479D49FF9C7366125A9424364 SWAP7 SWAP8 SWAP5 SWAP3 PUSH2 0x972 SWAP3 PUSH2 0x977 SWAP6 PUSH2 0xA06 JUMPI JUMPDEST POP SWAP3 SWAP5 SWAP8 SWAP7 POP SWAP3 POP PUSH2 0x93B JUMP JUMPDEST PUSH2 0xA1C SWAP1 DUP9 RETURNDATASIZE DUP11 GT PUSH2 0x3E7 JUMPI PUSH2 0x3D9 DUP2 DUP4 PUSH2 0xC63 JUMP JUMPDEST POP PUSH0 PUSH2 0x9F9 JUMP JUMPDEST DUP8 MLOAD RETURNDATASIZE PUSH0 DUP3 RETURNDATACOPY RETURNDATASIZE SWAP1 REVERT JUMPDEST PUSH1 0xB SLOAD PUSH1 0x5 SLOAD DUP9 MLOAD PUSH4 0xA9059CBB PUSH1 0xE0 SHL DUP2 MSTORE SWAP1 DUP5 AND PUSH1 0x1 PUSH1 0x1 PUSH1 0xA0 SHL SUB AND DUP4 DUP3 ADD SWAP1 DUP2 MSTORE PUSH1 0x20 DUP2 ADD DUP7 SWAP1 MSTORE SWAP1 SWAP2 DUP8 SWAP2 DUP4 SWAP2 DUP7 AND SWAP1 DUP3 SWAP1 PUSH0 SWAP1 DUP3 SWAP1 PUSH1 0x40 ADD SUB SWAP3 GAS CALL DUP1 ISZERO PUSH2 0xA9C JUMPI PUSH2 0xA7F JUMPI JUMPDEST POP PUSH2 0x935 JUMP JUMPDEST PUSH2 0xA95 SWAP1 DUP7 RETURNDATASIZE DUP9 GT PUSH2 0x3E7 JUMPI PUSH2 0x3D9 DUP2 DUP4 PUSH2 0xC63 JUMP JUMPDEST POP PUSH0 PUSH2 0xA79 JUMP JUMPDEST DUP9 MLOAD RETURNDATASIZE PUSH0 DUP3 RETURNDATACOPY RETURNDATASIZE SWAP1 REVERT JUMPDEST PUSH0 SWAP3 DUP4 SWAP3 DUP4 SWAP3 DUP4 SWAP3 DUP4 SWAP1 PUSH2 0xACD JUMPI JUMPDEST CALL ISZERO PUSH2 0xAC3 JUMPI PUSH0 DUP7 DUP2 PUSH2 0x92C JUMP JUMPDEST DUP7 MLOAD RETURNDATASIZE PUSH0 DUP3 RETURNDATACOPY RETURNDATASIZE SWAP1 REVERT JUMPDEST POP PUSH2 0x8FC PUSH2 0xAB5 JUMP JUMPDEST SWAP1 SWAP5 POP DUP6 DUP2 DUP2 RETURNDATASIZE DUP4 GT PUSH2 0xAFE JUMPI JUMPDEST PUSH2 0xAEE DUP2 DUP4 PUSH2 0xC63 JUMP JUMPDEST DUP2 ADD SUB SLT PUSH2 0x119 JUMPI MLOAD SWAP4 PUSH0 PUSH2 0x920 JUMP JUMPDEST POP RETURNDATASIZE PUSH2 0xAE4 JUMP JUMPDEST SWAP1 SWAP4 POP DUP6 DUP2 DUP2 RETURNDATASIZE DUP4 GT PUSH2 0xB2D JUMPI JUMPDEST PUSH2 0xB1D DUP2 DUP4 PUSH2 0xC63 JUMP JUMPDEST DUP2 ADD SUB SLT PUSH2 0x119 JUMPI MLOAD SWAP3 PUSH0 PUSH2 0x8F9 JUMP JUMPDEST POP RETURNDATASIZE PUSH2 0xB13 JUMP JUMPDEST DUP4 MLOAD PUSH3 0x461BCD PUSH1 0xE5 SHL DUP2 MSTORE PUSH1 0x20 DUP2 DUP5 ADD MSTORE PUSH1 0xD PUSH1 0x24 DUP3 ADD MSTORE PUSH13 0x2737BA103A34329037BBB732B9 PUSH1 0x99 SHL PUSH1 0x44 DUP3 ADD MSTORE PUSH1 0x64 SWAP1 REVERT JUMPDEST DUP3 CALLVALUE PUSH2 0x119 JUMPI PUSH0 CALLDATASIZE PUSH1 0x3 NOT ADD SLT PUSH2 0x119 JUMPI PUSH1 0xC SLOAD SWAP1 MLOAD PUSH1 0x1 PUSH1 0x1 PUSH1 0xA0 SHL SUB SWAP1 SWAP2 AND DUP2 MSTORE PUSH1 0x20 SWAP1 RETURN JUMPDEST SWAP1 POP CALLVALUE PUSH2 0x119 JUMPI PUSH1 0x20 CALLDATASIZE PUSH1 0x3 NOT ADD SLT PUSH2 0x119 JUMPI CALLDATALOAD SWAP1 PUSH1 0x3 SLOAD DUP3 LT ISZERO PUSH2 0x119 JUMPI PUSH2 0xBE0 PUSH2 0x50C SWAP3 PUSH1 0x3 PUSH0 MSTORE PUSH32 0xC2575A0E9E593C00F959F8C92F12DB2869C3395A3B0502D05E2516446F71F85B ADD PUSH2 0xC99 JUMP JUMPDEST SWAP1 MLOAD SWAP2 DUP3 SWAP2 PUSH1 0x20 DUP4 MSTORE PUSH1 0x20 DUP4 ADD SWAP1 PUSH2 0xD3B JUMP JUMPDEST DUP3 CALLVALUE PUSH2 0x119 JUMPI PUSH0 CALLDATASIZE PUSH1 0x3 NOT ADD SLT PUSH2 0x119 JUMPI PUSH1 0x20 SWAP1 PUSH1 0x8 SLOAD SWAP1 MLOAD SWAP1 DUP2 MSTORE RETURN JUMPDEST CALLVALUE PUSH2 0x119 JUMPI PUSH0 CALLDATASIZE PUSH1 0x3 NOT ADD SLT PUSH2 0x119 JUMPI PUSH1 0x20 SWAP1 PUSH1 0x7 SLOAD DUP2 MSTORE RETURN JUMPDEST SWAP1 PUSH1 0x1 DUP3 DUP2 SHR SWAP3 AND DUP1 ISZERO PUSH2 0xC59 JUMPI JUMPDEST PUSH1 0x20 DUP4 LT EQ PUSH2 0xC45 JUMPI JUMP JUMPDEST PUSH4 0x4E487B71 PUSH1 0xE0 SHL PUSH0 MSTORE PUSH1 0x22 PUSH1 0x4 MSTORE PUSH1 0x24 PUSH0 REVERT JUMPDEST SWAP2 PUSH1 0x7F AND SWAP2 PUSH2 0xC3A JUMP JUMPDEST SWAP1 PUSH1 0x1F DUP1 NOT SWAP2 ADD AND DUP2 ADD SWAP1 DUP2 LT PUSH8 0xFFFFFFFFFFFFFFFF DUP3 GT OR PUSH2 0xC85 JUMPI PUSH1 0x40 MSTORE JUMP JUMPDEST PUSH4 0x4E487B71 PUSH1 0xE0 SHL PUSH0 MSTORE PUSH1 0x41 PUSH1 0x4 MSTORE PUSH1 0x24 PUSH0 REVERT JUMPDEST SWAP1 PUSH1 0x40 MLOAD SWAP2 DUP3 PUSH0 DUP3 SLOAD PUSH2 0xCAB DUP2 PUSH2 0xC2B JUMP JUMPDEST SWAP1 DUP2 DUP5 MSTORE PUSH1 0x20 SWAP5 PUSH1 0x1 SWAP2 PUSH1 0x1 DUP2 AND SWAP1 DUP2 PUSH0 EQ PUSH2 0xD19 JUMPI POP PUSH1 0x1 EQ PUSH2 0xCDB JUMPI JUMPDEST POP POP POP PUSH2 0xCD9 SWAP3 POP SUB DUP4 PUSH2 0xC63 JUMP JUMPDEST JUMP JUMPDEST PUSH0 SWAP1 DUP2 MSTORE DUP6 DUP2 KECCAK256 SWAP6 SWAP4 POP SWAP2 SWAP1 JUMPDEST DUP2 DUP4 LT PUSH2 0xD01 JUMPI POP POP PUSH2 0xCD9 SWAP4 POP DUP3 ADD ADD PUSH0 DUP1 DUP1 PUSH2 0xCCA JUMP JUMPDEST DUP6 SLOAD DUP9 DUP5 ADD DUP6 ADD MSTORE SWAP5 DUP6 ADD SWAP5 DUP8 SWAP5 POP SWAP2 DUP4 ADD SWAP2 PUSH2 0xCE8 JUMP JUMPDEST SWAP3 POP POP POP PUSH2 0xCD9 SWAP5 SWAP3 POP PUSH1 0xFF NOT AND DUP3 DUP5 ADD MSTORE ISZERO ISZERO PUSH1 0x5 SHL DUP3 ADD ADD PUSH0 DUP1 DUP1 PUSH2 0xCCA JUMP JUMPDEST SWAP2 SWAP1 DUP3 MLOAD SWAP3 DUP4 DUP3 MSTORE PUSH0 JUMPDEST DUP5 DUP2 LT PUSH2 0xD65 JUMPI POP POP DUP3 PUSH0 PUSH1 0x20 DUP1 SWAP5 SWAP6 DUP5 ADD ADD MSTORE PUSH1 0x1F DUP1 NOT SWAP2 ADD AND ADD ADD SWAP1 JUMP JUMPDEST PUSH1 0x20 DUP2 DUP4 ADD DUP2 ADD MLOAD DUP5 DUP4 ADD DUP3 ADD MSTORE ADD PUSH2 0xD45 JUMP JUMPDEST SWAP1 DUP2 PUSH1 0x20 SWAP2 SUB SLT PUSH2 0x119 JUMPI MLOAD DUP1 ISZERO ISZERO DUP2 SUB PUSH2 0x119 JUMPI SWAP1 JUMP JUMPDEST SWAP2 SWAP1 DUP3 ADD DUP1 SWAP3 GT PUSH2 0xD9E JUMPI JUMP JUMPDEST PUSH4 0x4E487B71 PUSH1 0xE0 SHL PUSH0 MSTORE PUSH1 0x11 PUSH1 0x4 MSTORE PUSH1 0x24 PUSH0 REVERT JUMPDEST ISZERO PUSH2 0xDB9 JUMPI JUMP JUMPDEST PUSH1 0x40 MLOAD PUSH3 0x461BCD PUSH1 0xE5 SHL DUP2 MSTORE PUSH1 0x20 PUSH1 0x4 DUP3 ADD MSTORE PUSH1 0xE PUSH1 0x24 DUP3 ADD MSTORE PUSH14 0x105B1C9958591E481A9BDA5B9959 PUSH1 0x92 SHL PUSH1 0x44 DUP3 ADD MSTORE PUSH1 0x64 SWAP1 REVERT JUMPDEST ISZERO PUSH2 0xDF6 JUMPI JUMP JUMPDEST PUSH1 0x64 PUSH1 0x40 MLOAD PUSH3 0x461BCD PUSH1 0xE5 SHL DUP2 MSTORE PUSH1 0x20 PUSH1 0x4 DUP3 ADD MSTORE PUSH1 0x4 PUSH1 0x24 DUP3 ADD MSTORE PUSH4 0x119D5B1B PUSH1 0xE2 SHL PUSH1 0x44 DUP3 ADD MSTORE REVERT JUMPDEST ISZERO PUSH2 0xE28 JUMPI JUMP JUMPDEST PUSH1 0x40 MLOAD PUSH3 0x461BCD PUSH1 0xE5 SHL DUP2 MSTORE PUSH1 0x20 PUSH1 0x4 DUP3 ADD MSTORE PUSH1 0xF PUSH1 0x24 DUP3 ADD MSTORE PUSH15 0x151C985B9CD9995C8819985A5B1959 PUSH1 0x8A SHL PUSH1 0x44 DUP3 ADD MSTORE PUSH1 0x64 SWAP1 REVERT JUMPDEST PUSH0 NOT DUP2 EQ PUSH2 0xD9E JUMPI PUSH1 0x1 ADD SWAP1 JUMP JUMPDEST PUSH1 0x20 DUP1 DUP3 MSTORE PUSH0 SWAP2 PUSH0 SLOAD SWAP1 PUSH2 0xE80 DUP3 PUSH2 0xC2B JUMP JUMPDEST SWAP2 DUP3 PUSH1 0x20 DUP4 ADD MSTORE PUSH1 0x40 PUSH1 0x1 SWAP2 PUSH1 0x1 DUP2 AND SWAP1 DUP2 PUSH0 EQ PUSH2 0xF05 JUMPI POP PUSH1 0x1 EQ PUSH2 0xEA9 JUMPI JUMPDEST POP POP POP POP POP SWAP1 JUMP JUMPDEST PUSH0 DUP1 DUP1 MSTORE SWAP5 SWAP7 SWAP6 POP SWAP2 SWAP3 SWAP2 PUSH32 0x290DECD9548B62A8D60345A988386FC84BA6BC95484008F6362F93160EF3E563 JUMPDEST DUP4 DUP7 LT PUSH2 0xEF2 JUMPI POP POP POP POP PUSH1 0x40 SWAP3 SWAP4 POP ADD ADD PUSH0 DUP1 DUP1 DUP1 DUP1 PUSH2 0xEA1 JUMP JUMPDEST DUP1 SLOAD DUP6 DUP8 ADD DUP4 ADD MSTORE SWAP5 DUP8 ADD SWAP5 DUP3 ADD PUSH2 0xED6 JUMP JUMPDEST SWAP4 SWAP6 POP POP POP POP PUSH1 0x40 SWAP4 POP PUSH1 0xFF NOT AND DUP4 DUP4 ADD MSTORE ISZERO ISZERO PUSH1 0x5 SHL ADD ADD PUSH0 DUP1 DUP1 DUP1 DUP1 PUSH2 0xEA1 JUMP JUMPDEST MLOAD SWAP1 PUSH10 0xFFFFFFFFFFFFFFFFFFFF DUP3 AND DUP3 SUB PUSH2 0x119 JUMPI JUMP JUMPDEST PUSH1 0xD SLOAD PUSH1 0x40 MLOAD PUSH4 0x3FABE5A3 PUSH1 0xE2 SHL DUP2 MSTORE SWAP2 SWAP1 PUSH1 0xA0 SWAP1 DUP4 SWAP1 PUSH1 0x4 SWAP1 DUP3 SWAP1 PUSH1 0x1 PUSH1 0x1 PUSH1 0xA0 SHL SUB AND GAS STATICCALL SWAP2 DUP3 ISZERO PUSH2 0x1035 JUMPI PUSH0 SWAP3 PUSH2 0xFE6 JUMPI JUMPDEST POP PUSH0 DUP3 SGT ISZERO PUSH2 0xFB1 JUMPI PUSH4 0x5F5E100 SWAP1 DUP2 DUP2 MUL SWAP2 DUP2 DUP4 DIV EQ SWAP1 ISZERO OR ISZERO PUSH2 0xD9E JUMPI DUP2 ISZERO PUSH2 0xF9D JUMPI DIV SWAP1 JUMP JUMPDEST PUSH4 0x4E487B71 PUSH1 0xE0 SHL PUSH0 MSTORE PUSH1 0x12 PUSH1 0x4 MSTORE PUSH1 0x24 PUSH0 REVERT JUMPDEST PUSH1 0x40 MLOAD PUSH3 0x461BCD PUSH1 0xE5 SHL DUP2 MSTORE PUSH1 0x20 PUSH1 0x4 DUP3 ADD MSTORE PUSH1 0xD PUSH1 0x24 DUP3 ADD MSTORE PUSH13 0x496E76616C6964207072696365 PUSH1 0x98 SHL PUSH1 0x44 DUP3 ADD MSTORE PUSH1 0x64 SWAP1 REVERT JUMPDEST SWAP1 SWAP2 POP PUSH1 0xA0 DUP2 RETURNDATASIZE PUSH1 0xA0 GT PUSH2 0x102D JUMPI JUMPDEST DUP2 PUSH2 0x1002 PUSH1 0xA0 SWAP4 DUP4 PUSH2 0xC63 JUMP JUMPDEST DUP2 ADD SUB SLT PUSH2 0x119 JUMPI PUSH2 0x1013 DUP2 PUSH2 0xF28 JUMP JUMPDEST POP PUSH2 0x1025 PUSH1 0x80 PUSH1 0x20 DUP4 ADD MLOAD SWAP3 ADD PUSH2 0xF28 JUMP JUMPDEST POP SWAP1 PUSH0 PUSH2 0xF74 JUMP JUMPDEST RETURNDATASIZE SWAP2 POP PUSH2 0xFF5 JUMP JUMPDEST PUSH1 0x40 MLOAD RETURNDATASIZE PUSH0 DUP3 RETURNDATACOPY RETURNDATASIZE SWAP1 REVERT INVALID MULMOD SWAP12 COINBASE 0xEF PUSH24 0x10E47B6754D8EF11FE3BA8A88A70832B121B27D49884654D 0xF9 TSTORE MCOPY LOG2 PUSH5 0x6970667358 0x22 SLT KECCAK256 EQ 0xD7 SWAP11 TLOAD PUSH22 0x2ED0150D41EDB2A46DAD4AFBED9381C9BCD3269469F8 SWAP10 PUSH28 0x23ADA764736F6C63430008180033A264697066735822122068C63394 CODECOPY 0x2A CREATE 0xCD PUSH17 0x725B9B906A1EDA5EA125226F25AB087700 CODESIZE PUSH8 0x17D3339C64736F6C PUSH4 0x43000818 STOP CALLER "
		},
		"gasEstimates": {
			"creation": {
				"codeDepositCost": "1669800",
				"executionCost": "infinite",
				"totalCost": "infinite"
			},
			"external": {
				"createPaidEvent(string,string,uint256,string,string[],uint256,uint256,uint256)": "infinite",
				"defaultTicketPriceUSD()": "2440",
				"editHubContract(address)": "28231",
				"ethUsdPriceFeed()": "2351",
				"hub()": "2306",
				"owner()": "2395",
				"setDefaultTicketPriceUSD(uint256)": "25534",
				"transferOwnership(address)": "26209",
				"usdc()": "2329",
				"usdt()": "2271"
			}
		},
		"methodIdentifiers": {
			"createPaidEvent(string,string,uint256,string,string[],uint256,uint256,uint256)": "c5bb0920",
			"defaultTicketPriceUSD()": "e2f2777b",
			"editHubContract(address)": "b4583b87",
			"ethUsdPriceFeed()": "42f6fb29",
			"hub()": "365a86fc",
			"owner()": "8da5cb5b",
			"setDefaultTicketPriceUSD(uint256)": "75c99b37",
			"transferOwnership(address)": "f2fde38b",
			"usdc()": "3e413bee",
			"usdt()": "2f48ab7d"
		}
	},
	"abi": [
		{
			"inputs": [
				{
					"internalType": "address",
					"name": "_hubAddress",
					"type": "address"
				},
				{
					"internalType": "address",
					"name": "_usdc",
					"type": "address"
				},
				{
					"internalType": "address",
					"name": "_usdt",
					"type": "address"
				},
				{
					"internalType": "address",
					"name": "_ethUsdPriceFeed",
					"type": "address"
				},
				{
					"internalType": "uint256",
					"name": "_defaultTicketPriceUSD",
					"type": "uint256"
				}
			],
			"stateMutability": "nonpayable",
			"type": "constructor"
		},
		{
			"anonymous": false,
			"inputs": [
				{
					"indexed": false,
					"internalType": "uint256",
					"name": "newPrice",
					"type": "uint256"
				}
			],
			"name": "DefaultPriceUpdated",
			"type": "event"
		},
		{
			"anonymous": false,
			"inputs": [
				{
					"indexed": true,
					"internalType": "address",
					"name": "oldHub",
					"type": "address"
				},
				{
					"indexed": true,
					"internalType": "address",
					"name": "newHub",
					"type": "address"
				}
			],
			"name": "HubContractUpdated",
			"type": "event"
		},
		{
			"anonymous": false,
			"inputs": [
				{
					"indexed": true,
					"internalType": "address",
					"name": "previousOwner",
					"type": "address"
				},
				{
					"indexed": true,
					"internalType": "address",
					"name": "newOwner",
					"type": "address"
				}
			],
			"name": "OwnershipTransferred",
			"type": "event"
		},
		{
			"anonymous": false,
			"inputs": [
				{
					"indexed": true,
					"internalType": "address",
					"name": "eventAddress",
					"type": "address"
				},
				{
					"indexed": true,
					"internalType": "address",
					"name": "creator",
					"type": "address"
				},
				{
					"indexed": false,
					"internalType": "string",
					"name": "title",
					"type": "string"
				}
			],
			"name": "PaidEventCreated",
			"type": "event"
		},
		{
			"inputs": [
				{
					"internalType": "string",
					"name": "_title",
					"type": "string"
				},
				{
					"internalType": "string",
					"name": "_location",
					"type": "string"
				},
				{
					"internalType": "uint256",
					"name": "_maxAttendees",
					"type": "uint256"
				},
				{
					"internalType": "string",
					"name": "_description",
					"type": "string"
				},
				{
					"internalType": "string[]",
					"name": "_tags",
					"type": "string[]"
				},
				{
					"internalType": "uint256",
					"name": "_startsAt",
					"type": "uint256"
				},
				{
					"internalType": "uint256",
					"name": "_endsAt",
					"type": "uint256"
				},
				{
					"internalType": "uint256",
					"name": "_ticketPriceUSD",
					"type": "uint256"
				}
			],
			"name": "createPaidEvent",
			"outputs": [],
			"stateMutability": "nonpayable",
			"type": "function"
		},
		{
			"inputs": [],
			"name": "defaultTicketPriceUSD",
			"outputs": [
				{
					"internalType": "uint256",
					"name": "",
					"type": "uint256"
				}
			],
			"stateMutability": "view",
			"type": "function"
		},
		{
			"inputs": [
				{
					"internalType": "address",
					"name": "_newHub",
					"type": "address"
				}
			],
			"name": "editHubContract",
			"outputs": [],
			"stateMutability": "nonpayable",
			"type": "function"
		},
		{
			"inputs": [],
			"name": "ethUsdPriceFeed",
			"outputs": [
				{
					"internalType": "address",
					"name": "",
					"type": "address"
				}
			],
			"stateMutability": "view",
			"type": "function"
		},
		{
			"inputs": [],
			"name": "hub",
			"outputs": [
				{
					"internalType": "contract EventHub",
					"name": "",
					"type": "address"
				}
			],
			"stateMutability": "view",
			"type": "function"
		},
		{
			"inputs": [],
			"name": "owner",
			"outputs": [
				{
					"internalType": "address",
					"name": "",
					"type": "address"
				}
			],
			"stateMutability": "view",
			"type": "function"
		},
		{
			"inputs": [
				{
					"internalType": "uint256",
					"name": "_newPrice",
					"type": "uint256"
				}
			],
			"name": "setDefaultTicketPriceUSD",
			"outputs": [],
			"stateMutability": "nonpayable",
			"type": "function"
		},
		{
			"inputs": [
				{
					"internalType": "address",
					"name": "_newOwner",
					"type": "address"
				}
			],
			"name": "transferOwnership",
			"outputs": [],
			"stateMutability": "nonpayable",
			"type": "function"
		},
		{
			"inputs": [],
			"name": "usdc",
			"outputs": [
				{
					"internalType": "address",
					"name": "",
					"type": "address"
				}
			],
			"stateMutability": "view",
			"type": "function"
		},
		{
			"inputs": [],
			"name": "usdt",
			"outputs": [
				{
					"internalType": "address",
					"name": "",
					"type": "address"
				}
			],
			"stateMutability": "view",
			"type": "function"
		}
	]
}